{
  "contractName": "AFL8_CampaignModel",
  "abi": [
    {
      "inputs": [],
      "stateMutability": "nonpayable",
      "type": "constructor"
    },
    {
      "inputs": [],
      "name": "All_Slots_Taken",
      "type": "error"
    },
    {
      "inputs": [],
      "name": "Already_Listed",
      "type": "error"
    },
    {
      "inputs": [],
      "name": "Array_Length_Mismatch",
      "type": "error"
    },
    {
      "inputs": [],
      "name": "Event_Has_Ended",
      "type": "error"
    },
    {
      "inputs": [],
      "name": "Greenlist_Expired",
      "type": "error"
    },
    {
      "inputs": [],
      "name": "Insufficient_Amount",
      "type": "error"
    },
    {
      "inputs": [],
      "name": "Insufficient_Balance",
      "type": "error"
    },
    {
      "inputs": [],
      "name": "Insufficient_Funds",
      "type": "error"
    },
    {
      "inputs": [],
      "name": "Insufficient_MLQ",
      "type": "error"
    },
    {
      "inputs": [],
      "name": "Insufficient_Supply",
      "type": "error"
    },
    {
      "inputs": [],
      "name": "Invalid_Amount",
      "type": "error"
    },
    {
      "inputs": [],
      "name": "Invalid_Response",
      "type": "error"
    },
    {
      "inputs": [],
      "name": "Max_Tokens_Minted",
      "type": "error"
    },
    {
      "inputs": [],
      "name": "Min_Requirements_Not_Met",
      "type": "error"
    },
    {
      "inputs": [],
      "name": "Mint_In_Progress",
      "type": "error"
    },
    {
      "inputs": [],
      "name": "Mint_Is_Not_Yet_Live",
      "type": "error"
    },
    {
      "inputs": [],
      "name": "Not_Burnable",
      "type": "error"
    },
    {
      "inputs": [],
      "name": "Not_Friends",
      "type": "error"
    },
    {
      "inputs": [],
      "name": "Not_Friends_Rev",
      "type": "error"
    },
    {
      "inputs": [],
      "name": "Not_Greenlisted",
      "type": "error"
    },
    {
      "inputs": [],
      "name": "Not_Pausable",
      "type": "error"
    },
    {
      "inputs": [],
      "name": "Sold_Out",
      "type": "error"
    },
    {
      "inputs": [],
      "name": "Unauthorized",
      "type": "error"
    },
    {
      "inputs": [],
      "name": "You_Are_Not_The_Holder",
      "type": "error"
    },
    {
      "inputs": [],
      "name": "You_Need_To_Wait",
      "type": "error"
    },
    {
      "anonymous": false,
      "inputs": [
        {
          "indexed": false,
          "internalType": "uint256",
          "name": "TX",
          "type": "uint256"
        },
        {
          "indexed": false,
          "internalType": "address",
          "name": "ACTOR",
          "type": "address"
        },
        {
          "indexed": false,
          "internalType": "string",
          "name": "ACTION",
          "type": "string"
        },
        {
          "indexed": false,
          "internalType": "address",
          "name": "REL",
          "type": "address"
        },
        {
          "indexed": false,
          "internalType": "uint256",
          "name": "DATE",
          "type": "uint256"
        }
      ],
      "name": "ACTION_Log",
      "type": "event"
    },
    {
      "anonymous": false,
      "inputs": [
        {
          "indexed": true,
          "internalType": "address",
          "name": "owner",
          "type": "address"
        },
        {
          "indexed": true,
          "internalType": "address",
          "name": "approved",
          "type": "address"
        },
        {
          "indexed": true,
          "internalType": "uint256",
          "name": "tokenId",
          "type": "uint256"
        }
      ],
      "name": "Approval",
      "type": "event"
    },
    {
      "anonymous": false,
      "inputs": [
        {
          "indexed": true,
          "internalType": "address",
          "name": "owner",
          "type": "address"
        },
        {
          "indexed": true,
          "internalType": "address",
          "name": "operator",
          "type": "address"
        },
        {
          "indexed": false,
          "internalType": "bool",
          "name": "approved",
          "type": "bool"
        }
      ],
      "name": "ApprovalForAll",
      "type": "event"
    },
    {
      "anonymous": false,
      "inputs": [
        {
          "indexed": false,
          "internalType": "uint256",
          "name": "TX",
          "type": "uint256"
        },
        {
          "indexed": false,
          "internalType": "address",
          "name": "ACTOR",
          "type": "address"
        },
        {
          "indexed": false,
          "internalType": "string",
          "name": "ERROR",
          "type": "string"
        },
        {
          "indexed": false,
          "internalType": "uint256",
          "name": "DATE",
          "type": "uint256"
        }
      ],
      "name": "ERR_Log",
      "type": "event"
    },
    {
      "anonymous": false,
      "inputs": [
        {
          "indexed": false,
          "internalType": "uint256",
          "name": "TX",
          "type": "uint256"
        },
        {
          "indexed": false,
          "internalType": "address",
          "name": "TRUSTEE",
          "type": "address"
        },
        {
          "indexed": false,
          "internalType": "uint256",
          "name": "AMNT",
          "type": "uint256"
        },
        {
          "indexed": false,
          "internalType": "uint256",
          "name": "DATE",
          "type": "uint256"
        }
      ],
      "name": "TX_Log",
      "type": "event"
    },
    {
      "anonymous": false,
      "inputs": [
        {
          "indexed": true,
          "internalType": "address",
          "name": "from",
          "type": "address"
        },
        {
          "indexed": true,
          "internalType": "address",
          "name": "to",
          "type": "address"
        },
        {
          "indexed": true,
          "internalType": "uint256",
          "name": "tokenId",
          "type": "uint256"
        }
      ],
      "name": "Transfer",
      "type": "event"
    },
    {
      "inputs": [],
      "name": "C_ID",
      "outputs": [
        {
          "internalType": "uint256",
          "name": "",
          "type": "uint256"
        }
      ],
      "stateMutability": "view",
      "type": "function"
    },
    {
      "inputs": [],
      "name": "afl8",
      "outputs": [
        {
          "internalType": "contract iii6CoinModel",
          "name": "",
          "type": "address"
        }
      ],
      "stateMutability": "view",
      "type": "function"
    },
    {
      "inputs": [
        {
          "internalType": "address",
          "name": "to",
          "type": "address"
        },
        {
          "internalType": "uint256",
          "name": "tokenId",
          "type": "uint256"
        }
      ],
      "name": "approve",
      "outputs": [],
      "stateMutability": "nonpayable",
      "type": "function"
    },
    {
      "inputs": [
        {
          "internalType": "address",
          "name": "owner",
          "type": "address"
        }
      ],
      "name": "balanceOf",
      "outputs": [
        {
          "internalType": "uint256",
          "name": "",
          "type": "uint256"
        }
      ],
      "stateMutability": "view",
      "type": "function"
    },
    {
      "inputs": [
        {
          "internalType": "uint256",
          "name": "",
          "type": "uint256"
        }
      ],
      "name": "campaignSafe",
      "outputs": [
        {
          "internalType": "uint256",
          "name": "",
          "type": "uint256"
        }
      ],
      "stateMutability": "view",
      "type": "function"
    },
    {
      "inputs": [
        {
          "internalType": "address",
          "name": "",
          "type": "address"
        },
        {
          "internalType": "uint256",
          "name": "",
          "type": "uint256"
        }
      ],
      "name": "campaignShow",
      "outputs": [
        {
          "internalType": "uint256",
          "name": "id",
          "type": "uint256"
        },
        {
          "internalType": "address",
          "name": "author",
          "type": "address"
        },
        {
          "internalType": "uint256",
          "name": "start",
          "type": "uint256"
        },
        {
          "internalType": "uint256",
          "name": "budget",
          "type": "uint256"
        },
        {
          "internalType": "uint256",
          "name": "price",
          "type": "uint256"
        },
        {
          "internalType": "uint256",
          "name": "actions",
          "type": "uint256"
        },
        {
          "internalType": "bytes",
          "name": "dias",
          "type": "bytes"
        },
        {
          "internalType": "enum iii6Misc.CampaignType",
          "name": "ctype",
          "type": "uint8"
        },
        {
          "internalType": "enum iii6Misc.Status",
          "name": "state",
          "type": "uint8"
        }
      ],
      "stateMutability": "view",
      "type": "function"
    },
    {
      "inputs": [
        {
          "internalType": "uint256",
          "name": "",
          "type": "uint256"
        }
      ],
      "name": "campaigns",
      "outputs": [
        {
          "internalType": "uint256",
          "name": "id",
          "type": "uint256"
        },
        {
          "internalType": "address",
          "name": "author",
          "type": "address"
        },
        {
          "internalType": "uint256",
          "name": "start",
          "type": "uint256"
        },
        {
          "internalType": "uint256",
          "name": "budget",
          "type": "uint256"
        },
        {
          "internalType": "uint256",
          "name": "price",
          "type": "uint256"
        },
        {
          "internalType": "uint256",
          "name": "actions",
          "type": "uint256"
        },
        {
          "internalType": "bytes",
          "name": "dias",
          "type": "bytes"
        },
        {
          "internalType": "enum iii6Misc.CampaignType",
          "name": "ctype",
          "type": "uint8"
        },
        {
          "internalType": "enum iii6Misc.Status",
          "name": "state",
          "type": "uint8"
        }
      ],
      "stateMutability": "view",
      "type": "function"
    },
    {
      "inputs": [],
      "name": "changeMintState",
      "outputs": [
        {
          "internalType": "bool",
          "name": "",
          "type": "bool"
        }
      ],
      "stateMutability": "nonpayable",
      "type": "function"
    },
    {
      "inputs": [
        {
          "internalType": "uint256",
          "name": "",
          "type": "uint256"
        }
      ],
      "name": "dias",
      "outputs": [
        {
          "internalType": "bytes",
          "name": "",
          "type": "bytes"
        }
      ],
      "stateMutability": "view",
      "type": "function"
    },
    {
      "inputs": [
        {
          "internalType": "uint256",
          "name": "tokenId",
          "type": "uint256"
        }
      ],
      "name": "getApproved",
      "outputs": [
        {
          "internalType": "address",
          "name": "",
          "type": "address"
        }
      ],
      "stateMutability": "view",
      "type": "function"
    },
    {
      "inputs": [
        {
          "internalType": "uint256",
          "name": "count",
          "type": "uint256"
        }
      ],
      "name": "grabIds",
      "outputs": [
        {
          "internalType": "uint256",
          "name": "ids",
          "type": "uint256"
        }
      ],
      "stateMutability": "view",
      "type": "function"
    },
    {
      "inputs": [
        {
          "internalType": "uint256",
          "name": "_id",
          "type": "uint256"
        }
      ],
      "name": "holder",
      "outputs": [
        {
          "internalType": "address",
          "name": "",
          "type": "address"
        }
      ],
      "stateMutability": "view",
      "type": "function"
    },
    {
      "inputs": [
        {
          "internalType": "address",
          "name": "owner",
          "type": "address"
        },
        {
          "internalType": "address",
          "name": "operator",
          "type": "address"
        }
      ],
      "name": "isApprovedForAll",
      "outputs": [
        {
          "internalType": "bool",
          "name": "",
          "type": "bool"
        }
      ],
      "stateMutability": "view",
      "type": "function"
    },
    {
      "inputs": [
        {
          "internalType": "address",
          "name": "_adr",
          "type": "address"
        }
      ],
      "name": "isOwner",
      "outputs": [
        {
          "internalType": "bool",
          "name": "",
          "type": "bool"
        }
      ],
      "stateMutability": "view",
      "type": "function"
    },
    {
      "inputs": [],
      "name": "max",
      "outputs": [
        {
          "internalType": "uint256",
          "name": "",
          "type": "uint256"
        }
      ],
      "stateMutability": "view",
      "type": "function"
    },
    {
      "inputs": [
        {
          "internalType": "uint256",
          "name": "_amnt",
          "type": "uint256"
        }
      ],
      "name": "mint",
      "outputs": [
        {
          "internalType": "uint256",
          "name": "",
          "type": "uint256"
        }
      ],
      "stateMutability": "payable",
      "type": "function"
    },
    {
      "inputs": [],
      "name": "minted",
      "outputs": [
        {
          "internalType": "uint256",
          "name": "",
          "type": "uint256"
        }
      ],
      "stateMutability": "view",
      "type": "function"
    },
    {
      "inputs": [],
      "name": "nam",
      "outputs": [
        {
          "internalType": "string",
          "name": "",
          "type": "string"
        }
      ],
      "stateMutability": "view",
      "type": "function"
    },
    {
      "inputs": [],
      "name": "name",
      "outputs": [
        {
          "internalType": "string",
          "name": "",
          "type": "string"
        }
      ],
      "stateMutability": "view",
      "type": "function"
    },
    {
      "inputs": [
        {
          "internalType": "address",
          "name": "",
          "type": "address"
        }
      ],
      "name": "nftCount",
      "outputs": [
        {
          "internalType": "uint256",
          "name": "",
          "type": "uint256"
        }
      ],
      "stateMutability": "view",
      "type": "function"
    },
    {
      "inputs": [
        {
          "internalType": "address",
          "name": "",
          "type": "address"
        },
        {
          "internalType": "uint256",
          "name": "",
          "type": "uint256"
        }
      ],
      "name": "ntfIdByCount",
      "outputs": [
        {
          "internalType": "uint256",
          "name": "",
          "type": "uint256"
        }
      ],
      "stateMutability": "view",
      "type": "function"
    },
    {
      "inputs": [],
      "name": "owner",
      "outputs": [
        {
          "internalType": "address",
          "name": "",
          "type": "address"
        }
      ],
      "stateMutability": "view",
      "type": "function"
    },
    {
      "inputs": [
        {
          "internalType": "uint256",
          "name": "tokenId",
          "type": "uint256"
        }
      ],
      "name": "ownerOf",
      "outputs": [
        {
          "internalType": "address",
          "name": "",
          "type": "address"
        }
      ],
      "stateMutability": "view",
      "type": "function"
    },
    {
      "inputs": [],
      "name": "price",
      "outputs": [
        {
          "internalType": "uint256",
          "name": "",
          "type": "uint256"
        }
      ],
      "stateMutability": "view",
      "type": "function"
    },
    {
      "inputs": [
        {
          "internalType": "address",
          "name": "from",
          "type": "address"
        },
        {
          "internalType": "address",
          "name": "to",
          "type": "address"
        },
        {
          "internalType": "uint256",
          "name": "tokenId",
          "type": "uint256"
        }
      ],
      "name": "safeTransferFrom",
      "outputs": [],
      "stateMutability": "nonpayable",
      "type": "function"
    },
    {
      "inputs": [
        {
          "internalType": "address",
          "name": "from",
          "type": "address"
        },
        {
          "internalType": "address",
          "name": "to",
          "type": "address"
        },
        {
          "internalType": "uint256",
          "name": "tokenId",
          "type": "uint256"
        },
        {
          "internalType": "bytes",
          "name": "_data",
          "type": "bytes"
        }
      ],
      "name": "safeTransferFrom",
      "outputs": [],
      "stateMutability": "nonpayable",
      "type": "function"
    },
    {
      "inputs": [
        {
          "internalType": "address",
          "name": "operator",
          "type": "address"
        },
        {
          "internalType": "bool",
          "name": "approved",
          "type": "bool"
        }
      ],
      "name": "setApprovalForAll",
      "outputs": [],
      "stateMutability": "nonpayable",
      "type": "function"
    },
    {
      "inputs": [],
      "name": "start",
      "outputs": [
        {
          "internalType": "bool",
          "name": "",
          "type": "bool"
        }
      ],
      "stateMutability": "view",
      "type": "function"
    },
    {
      "inputs": [
        {
          "internalType": "bytes4",
          "name": "interfaceId",
          "type": "bytes4"
        }
      ],
      "name": "supportsInterface",
      "outputs": [
        {
          "internalType": "bool",
          "name": "",
          "type": "bool"
        }
      ],
      "stateMutability": "view",
      "type": "function"
    },
    {
      "inputs": [],
      "name": "sym",
      "outputs": [
        {
          "internalType": "string",
          "name": "",
          "type": "string"
        }
      ],
      "stateMutability": "view",
      "type": "function"
    },
    {
      "inputs": [],
      "name": "symbol",
      "outputs": [
        {
          "internalType": "string",
          "name": "",
          "type": "string"
        }
      ],
      "stateMutability": "view",
      "type": "function"
    },
    {
      "inputs": [
        {
          "internalType": "uint256",
          "name": "tokenId",
          "type": "uint256"
        }
      ],
      "name": "tokenURI",
      "outputs": [
        {
          "internalType": "string",
          "name": "",
          "type": "string"
        }
      ],
      "stateMutability": "view",
      "type": "function"
    },
    {
      "inputs": [
        {
          "internalType": "address",
          "name": "from",
          "type": "address"
        },
        {
          "internalType": "address",
          "name": "to",
          "type": "address"
        },
        {
          "internalType": "uint256",
          "name": "tokenId",
          "type": "uint256"
        }
      ],
      "name": "transferFrom",
      "outputs": [],
      "stateMutability": "nonpayable",
      "type": "function"
    },
    {
      "inputs": [
        {
          "internalType": "uint256",
          "name": "_start",
          "type": "uint256"
        },
        {
          "internalType": "uint256",
          "name": "_budget",
          "type": "uint256"
        },
        {
          "internalType": "uint256",
          "name": "_price",
          "type": "uint256"
        },
        {
          "internalType": "string",
          "name": "_dias",
          "type": "string"
        },
        {
          "internalType": "uint256",
          "name": "_ctype",
          "type": "uint256"
        }
      ],
      "name": "createCampaign",
      "outputs": [
        {
          "internalType": "bool",
          "name": "",
          "type": "bool"
        }
      ],
      "stateMutability": "nonpayable",
      "type": "function"
    },
    {
      "inputs": [
        {
          "internalType": "uint256",
          "name": "_cid",
          "type": "uint256"
        },
        {
          "internalType": "bool",
          "name": "_quit",
          "type": "bool"
        }
      ],
      "name": "changeState",
      "outputs": [
        {
          "internalType": "bool",
          "name": "",
          "type": "bool"
        }
      ],
      "stateMutability": "nonpayable",
      "type": "function"
    }
  ],
  "bytecode": "0x60806040523480156200001157600080fd5b50336040518060400160405280601881526020017f416666696c696174652043616d706169676e20417373657400000000000000008152506040518060400160405280600481526020017f41464c3800000000000000000000000000000000000000000000000000000000815250600080604051806020016040528060008152506040518060200160405280600081525060008060008089898160009081620000bb919062000534565b508060019081620000cd919062000534565b50505060006006819055506000600781905550600060088190555060006009819055508a600a60006101000a81548173ffffffffffffffffffffffffffffffffffffffff021916908373ffffffffffffffffffffffffffffffffffffffff16021790555089600d908162000142919062000534565b5088600e908162000154919062000534565b5087600c8190555066038d7ea4c68000876200017191906200064a565b601081905550831562000207578585838560016000600160405162000196906200029e565b620001a8979695949392919062000795565b604051809103906000f080158015620001c5573d6000803e3d6000fd5b50601460006101000a81548173ffffffffffffffffffffffffffffffffffffffff021916908373ffffffffffffffffffffffffffffffffffffffff1602179055505b60008111156200028d5780306040516200022190620002ac565b6200022e92919062000865565b604051809103906000f0801580156200024b573d6000803e3d6000fd5b50601560006101000a81548173ffffffffffffffffffffffffffffffffffffffff021916908373ffffffffffffffffffffffffffffffffffffffff1602179055505b505050505050505050505062000892565b615d9080620059bc83390190565b611ccc806200b74c83390190565b600081519050919050565b7f4e487b7100000000000000000000000000000000000000000000000000000000600052604160045260246000fd5b7f4e487b7100000000000000000000000000000000000000000000000000000000600052602260045260246000fd5b600060028204905060018216806200033c57607f821691505b602082108103620003525762000351620002f4565b5b50919050565b60008190508160005260206000209050919050565b60006020601f8301049050919050565b600082821b905092915050565b600060088302620003bc7fffffffffffffffffffffffffffffffffffffffffffffffffffffffffffffffff826200037d565b620003c886836200037d565b95508019841693508086168417925050509392505050565b6000819050919050565b6000819050919050565b6000620004156200040f6200040984620003e0565b620003ea565b620003e0565b9050919050565b6000819050919050565b6200043183620003f4565b6200044962000440826200041c565b8484546200038a565b825550505050565b600090565b6200046062000451565b6200046d81848462000426565b505050565b5b8181101562000495576200048960008262000456565b60018101905062000473565b5050565b601f821115620004e457620004ae8162000358565b620004b9846200036d565b81016020851015620004c9578190505b620004e1620004d8856200036d565b83018262000472565b50505b505050565b600082821c905092915050565b60006200050960001984600802620004e9565b1980831691505092915050565b6000620005248383620004f6565b9150826002028217905092915050565b6200053f82620002ba565b67ffffffffffffffff8111156200055b576200055a620002c5565b5b62000567825462000323565b6200057482828562000499565b600060209050601f831160018114620005ac576000841562000597578287015190505b620005a3858262000516565b86555062000613565b601f198416620005bc8662000358565b60005b82811015620005e657848901518255600182019150602085019450602081019050620005bf565b8683101562000606578489015162000602601f891682620004f6565b8355505b6001600288020188555050505b505050505050565b7f4e487b7100000000000000000000000000000000000000000000000000000000600052601160045260246000fd5b60006200065782620003e0565b91506200066483620003e0565b92508282026200067481620003e0565b915082820484148315176200068e576200068d6200061b565b5b5092915050565b600082825260208201905092915050565b60005b83811015620006c6578082015181840152602081019050620006a9565b60008484015250505050565b6000601f19601f8301169050919050565b6000620006f082620002ba565b620006fc818562000695565b93506200070e818560208601620006a6565b6200071981620006d2565b840191505092915050565b6200072f81620003e0565b82525050565b60008115159050919050565b6200074c8162000735565b82525050565b6000819050919050565b60006200077d62000777620007718462000752565b620003ea565b620003e0565b9050919050565b6200078f816200075c565b82525050565b600060e0820190508181036000830152620007b1818a620006e3565b90508181036020830152620007c78189620006e3565b9050620007d8604083018862000724565b620007e7606083018762000724565b620007f6608083018662000741565b6200080560a083018562000741565b6200081460c083018462000784565b98975050505050505050565b600073ffffffffffffffffffffffffffffffffffffffff82169050919050565b60006200084d8262000820565b9050919050565b6200085f8162000840565b82525050565b60006040820190506200087c600083018562000724565b6200088b602083018462000854565b9392505050565b61511a80620008a26000396000f3fe6080604052600436106102045760003560e01c806383813a2811610118578063aba4759f116100a0578063be9a65551161006f578063be9a655514610808578063c87b56dd14610833578063c971ebb314610870578063d7bb9d74146108ad578063e985e9c5146108ea57610204565b8063aba4759f1461073a578063b524fd6f14610777578063b88d4fde146107a2578063ba899a2e146107cb57610204565b80639b4f589f116100e75780639b4f589f1461064e578063a035b1fe1461068b578063a0712d68146106b6578063a22cb465146106e6578063a51d8fb11461070f57610204565b806383813a28146105a25780638da5cb5b146105cd57806395d89b41146105f85780639af9bec01461062357610204565b80632f54bf6e1161019b5780636352211e1161016a5780636352211e1461047b5780636ac5db19146104b8578063705faf2d146104e357806370a08231146105285780637641a89a1461056557610204565b80632f54bf6e146103ad578063406d4d23146103ea57806342842e0e146104275780634f02c4201461045057610204565b80630f4c0134116101d75780630f4c0134146102d7578063141961bc1461031457806314e0d7c01461035957806323b872dd1461038457610204565b806301ffc9a71461020957806306fdde0314610246578063081812fc14610271578063095ea7b3146102ae575b600080fd5b34801561021557600080fd5b50610230600480360381019061022b91906137b0565b610927565b60405161023d91906137f8565b60405180910390f35b34801561025257600080fd5b5061025b610a09565b60405161026891906138a3565b60405180910390f35b34801561027d57600080fd5b50610298600480360381019061029391906138fb565b610a9b565b6040516102a59190613969565b60405180910390f35b3480156102ba57600080fd5b506102d560048036038101906102d091906139b0565b610b20565b005b3480156102e357600080fd5b506102fe60048036038101906102f991906139b0565b610c37565b60405161030b91906139ff565b60405180910390f35b34801561032057600080fd5b5061033b600480360381019061033691906138fb565b610c5c565b60405161035099989796959493929190613b2e565b60405180910390f35b34801561036557600080fd5b5061036e610d7c565b60405161037b9190613c21565b60405180910390f35b34801561039057600080fd5b506103ab60048036038101906103a69190613c3c565b610da2565b005b3480156103b957600080fd5b506103d460048036038101906103cf9190613c8f565b610e02565b6040516103e191906137f8565b60405180910390f35b3480156103f657600080fd5b50610411600480360381019061040c9190613ce8565b610e6a565b60405161041e91906137f8565b60405180910390f35b34801561043357600080fd5b5061044e60048036038101906104499190613c3c565b611119565b005b34801561045c57600080fd5b50610465611139565b60405161047291906139ff565b60405180910390f35b34801561048757600080fd5b506104a2600480360381019061049d91906138fb565b61113f565b6040516104af9190613969565b60405180910390f35b3480156104c457600080fd5b506104cd6111f0565b6040516104da91906139ff565b60405180910390f35b3480156104ef57600080fd5b5061050a600480360381019061050591906139b0565b6111f6565b60405161051f99989796959493929190613b2e565b60405180910390f35b34801561053457600080fd5b5061054f600480360381019061054a9190613c8f565b611313565b60405161055c91906139ff565b60405180910390f35b34801561057157600080fd5b5061058c60048036038101906105879190613e5d565b6113ca565b60405161059991906137f8565b60405180910390f35b3480156105ae57600080fd5b506105b7611630565b6040516105c491906138a3565b60405180910390f35b3480156105d957600080fd5b506105e26116be565b6040516105ef9190613969565b60405180910390f35b34801561060457600080fd5b5061060d6116e4565b60405161061a91906138a3565b60405180910390f35b34801561062f57600080fd5b50610638611776565b60405161064591906138a3565b60405180910390f35b34801561065a57600080fd5b50610675600480360381019061067091906138fb565b611804565b6040516106829190613ef4565b60405180910390f35b34801561069757600080fd5b506106a06118a4565b6040516106ad91906139ff565b60405180910390f35b6106d060048036038101906106cb91906138fb565b6118aa565b6040516106dd91906139ff565b60405180910390f35b3480156106f257600080fd5b5061070d60048036038101906107089190613f16565b61195f565b005b34801561071b57600080fd5b50610724611975565b60405161073191906139ff565b60405180910390f35b34801561074657600080fd5b50610761600480360381019061075c91906138fb565b61197b565b60405161076e91906139ff565b60405180910390f35b34801561078357600080fd5b5061078c6119d5565b60405161079991906137f8565b60405180910390f35b3480156107ae57600080fd5b506107c960048036038101906107c49190613ff7565b6119e4565b005b3480156107d757600080fd5b506107f260048036038101906107ed91906138fb565b611a46565b6040516107ff9190613969565b60405180910390f35b34801561081457600080fd5b5061081d611a58565b60405161082a91906137f8565b60405180910390f35b34801561083f57600080fd5b5061085a600480360381019061085591906138fb565b611a6b565b60405161086791906138a3565b60405180910390f35b34801561087c57600080fd5b5061089760048036038101906108929190613c8f565b611b12565b6040516108a491906139ff565b60405180910390f35b3480156108b957600080fd5b506108d460048036038101906108cf91906138fb565b611b2a565b6040516108e191906139ff565b60405180910390f35b3480156108f657600080fd5b50610911600480360381019061090c919061407a565b611b42565b60405161091e91906137f8565b60405180910390f35b60007f80ac58cd000000000000000000000000000000000000000000000000000000007bffffffffffffffffffffffffffffffffffffffffffffffffffffffff1916827bffffffffffffffffffffffffffffffffffffffffffffffffffffffff191614806109f257507f5b5e139f000000000000000000000000000000000000000000000000000000007bffffffffffffffffffffffffffffffffffffffffffffffffffffffff1916827bffffffffffffffffffffffffffffffffffffffffffffffffffffffff1916145b80610a025750610a0182611bd6565b5b9050919050565b606060008054610a18906140e9565b80601f0160208091040260200160405190810160405280929190818152602001828054610a44906140e9565b8015610a915780601f10610a6657610100808354040283529160200191610a91565b820191906000526020600020905b815481529060010190602001808311610a7457829003601f168201915b5050505050905090565b6000610aa682611c40565b610ae5576040517f08c379a0000000000000000000000000000000000000000000000000000000008152600401610adc9061418c565b60405180910390fd5b6004600083815260200190815260200160002060009054906101000a900473ffffffffffffffffffffffffffffffffffffffff169050919050565b6000610b2b8261113f565b90508073ffffffffffffffffffffffffffffffffffffffff168373ffffffffffffffffffffffffffffffffffffffff1603610b9b576040517f08c379a0000000000000000000000000000000000000000000000000000000008152600401610b929061421e565b60405180910390fd5b8073ffffffffffffffffffffffffffffffffffffffff16610bba611cac565b73ffffffffffffffffffffffffffffffffffffffff161480610be95750610be881610be3611cac565b611b42565b5b610c28576040517f08c379a0000000000000000000000000000000000000000000000000000000008152600401610c1f906142b0565b60405180910390fd5b610c328383611cb4565b505050565b6013602052816000526040600020602052806000526040600020600091509150505481565b60198181548110610c6c57600080fd5b90600052602060002090600802016000915090508060000154908060010160009054906101000a900473ffffffffffffffffffffffffffffffffffffffff1690806002015490806003015490806004015490806005015490806006018054610cd3906140e9565b80601f0160208091040260200160405190810160405280929190818152602001828054610cff906140e9565b8015610d4c5780601f10610d2157610100808354040283529160200191610d4c565b820191906000526020600020905b815481529060010190602001808311610d2f57829003601f168201915b5050505050908060070160009054906101000a900460ff16908060070160019054906101000a900460ff16905089565b601660009054906101000a900473ffffffffffffffffffffffffffffffffffffffff1681565b610db3610dad611cac565b82611d6d565b610df2576040517f08c379a0000000000000000000000000000000000000000000000000000000008152600401610de990614342565b60405180910390fd5b610dfd838383611e4b565b505050565b6000600a60009054906101000a900473ffffffffffffffffffffffffffffffffffffffff1673ffffffffffffffffffffffffffffffffffffffff168273ffffffffffffffffffffffffffffffffffffffff1614610e60576000610e63565b60015b9050919050565b60008060198481548110610e8157610e80614362565b5b906000526020600020906008020160405180610120016040529081600082015481526020016001820160009054906101000a900473ffffffffffffffffffffffffffffffffffffffff1673ffffffffffffffffffffffffffffffffffffffff1673ffffffffffffffffffffffffffffffffffffffff16815260200160028201548152602001600382015481526020016004820154815260200160058201548152602001600682018054610f33906140e9565b80601f0160208091040260200160405190810160405280929190818152602001828054610f5f906140e9565b8015610fac5780601f10610f8157610100808354040283529160200191610fac565b820191906000526020600020905b815481529060010190602001808311610f8f57829003601f168201915b505050505081526020016007820160009054906101000a900460ff166004811115610fda57610fd9613a6f565b5b6004811115610fec57610feb613a6f565b5b81526020016007820160019054906101000a900460ff16600381111561101557611014613a6f565b5b600381111561102757611026613a6f565b5b81525050905082156110445761103c846120a6565b915050611113565b428160400151108015611080575060038081111561106557611064613a6f565b5b816101000151600381111561107d5761107c613a6f565b5b14155b1561110d576000600381111561109957611098613a6f565b5b81610100015160038111156110b1576110b0613a6f565b5b14806110e65750600260038111156110cc576110cb613a6f565b5b81610100015160038111156110e4576110e3613a6f565b5b145b156110fc576110f4846123bb565b915050611113565b611105846126d0565b915050611113565b60009150505b92915050565b611134838383604051806020016040528060008152506119e4565b505050565b600b5481565b6000806002600084815260200190815260200160002060009054906101000a900473ffffffffffffffffffffffffffffffffffffffff169050600073ffffffffffffffffffffffffffffffffffffffff168173ffffffffffffffffffffffffffffffffffffffff16036111e7576040517f08c379a00000000000000000000000000000000000000000000000000000000081526004016111de90614403565b60405180910390fd5b80915050919050565b600c5481565b601b602052816000526040600020602052806000526040600020600091509150508060000154908060010160009054906101000a900473ffffffffffffffffffffffffffffffffffffffff169080600201549080600301549080600401549080600501549080600601805461126a906140e9565b80601f0160208091040260200160405190810160405280929190818152602001828054611296906140e9565b80156112e35780601f106112b8576101008083540402835291602001916112e3565b820191906000526020600020905b8154815290600101906020018083116112c657829003601f168201915b5050505050908060070160009054906101000a900460ff16908060070160019054906101000a900460ff16905089565b60008073ffffffffffffffffffffffffffffffffffffffff168273ffffffffffffffffffffffffffffffffffffffff1603611383576040517f08c379a000000000000000000000000000000000000000000000000000000000815260040161137a90614495565b60405180910390fd5b600360008373ffffffffffffffffffffffffffffffffffffffff1673ffffffffffffffffffffffffffffffffffffffff168152602001908152602001600020549050919050565b60008085674563918244f400006113e191906144e4565b905080601660009054906101000a900473ffffffffffffffffffffffffffffffffffffffff1673ffffffffffffffffffffffffffffffffffffffff166370a08231336040518263ffffffff1660e01b815260040161143f9190613969565b602060405180830381865afa15801561145c573d6000803e3d6000fd5b505050506040513d601f19601f82011682018060405250810190611480919061452d565b10156114c1576040517f08c379a00000000000000000000000000000000000000000000000000000000081526004016114b8906145a6565b60405180910390fd5b60008084036114d3576000905061150e565b600184036114e4576001905061150d565b600284036114f5576002905061150c565b60038403611506576003905061150b565b600490505b5b5b5b600061151b8289896129e5565b905060008103611560576040517f08c379a000000000000000000000000000000000000000000000000000000000815260040161155790614612565b60405180910390fd5b6000428a101561156f57600190505b601660009054906101000a900473ffffffffffffffffffffffffffffffffffffffff1673ffffffffffffffffffffffffffffffffffffffff166323b872dd3330876040518463ffffffff1660e01b81526004016115ce93929190614632565b6020604051808303816000875af11580156115ed573d6000803e3d6000fd5b505050506040513d601f19601f82011682018060405250810190611611919061467e565b506116218a8a8a858b8887612c1b565b94505050505095945050505050565b600e805461163d906140e9565b80601f0160208091040260200160405190810160405280929190818152602001828054611669906140e9565b80156116b65780601f1061168b576101008083540402835291602001916116b6565b820191906000526020600020905b81548152906001019060200180831161169957829003601f168201915b505050505081565b600a60009054906101000a900473ffffffffffffffffffffffffffffffffffffffff1681565b6060600180546116f3906140e9565b80601f016020809104026020016040519081016040528092919081815260200182805461171f906140e9565b801561176c5780601f106117415761010080835404028352916020019161176c565b820191906000526020600020905b81548152906001019060200180831161174f57829003601f168201915b5050505050905090565b600d8054611783906140e9565b80601f01602080910402602001604051908101604052809291908181526020018280546117af906140e9565b80156117fc5780601f106117d1576101008083540402835291602001916117fc565b820191906000526020600020905b8154815290600101906020018083116117df57829003601f168201915b505050505081565b60116020528060005260406000206000915090508054611823906140e9565b80601f016020809104026020016040519081016040528092919081815260200182805461184f906140e9565b801561189c5780601f106118715761010080835404028352916020019161189c565b820191906000526020600020905b81548152906001019060200180831161187f57829003601f168201915b505050505081565b60105481565b6000600c54600b541015806118ce5750600c5482600b546118cb91906144e4565b10155b15611905576040517f064a6c4100000000000000000000000000000000000000000000000000000000815260040160405180910390fd5b8160105461191391906146ab565b341061194b576040517fefc60c1400000000000000000000000000000000000000000000000000000000815260040160405180910390fd5b6119548261301c565b50600b549050919050565b61197161196a611cac565b8383613069565b5050565b60185481565b6000601360003373ffffffffffffffffffffffffffffffffffffffff1673ffffffffffffffffffffffffffffffffffffffff1681526020019081526020016000206000838152602001908152602001600020549050919050565b60006119df6131d5565b905090565b6119f56119ef611cac565b83611d6d565b611a34576040517f08c379a0000000000000000000000000000000000000000000000000000000008152600401611a2b90614342565b60405180910390fd5b611a4084848484613205565b50505050565b6000611a518261113f565b9050919050565b600f60009054906101000a900460ff1681565b6060611a7682611c40565b611ab5576040517f08c379a0000000000000000000000000000000000000000000000000000000008152600401611aac9061475f565b60405180910390fd5b6000611abf613261565b90506000815111611adf5760405180602001604052806000815250611b0a565b80611ae984613278565b604051602001611afa9291906147bb565b6040516020818303038152906040525b915050919050565b60126020528060005260406000206000915090505481565b601c6020528060005260406000206000915090505481565b6000600560008473ffffffffffffffffffffffffffffffffffffffff1673ffffffffffffffffffffffffffffffffffffffff16815260200190815260200160002060008373ffffffffffffffffffffffffffffffffffffffff1673ffffffffffffffffffffffffffffffffffffffff16815260200190815260200160002060009054906101000a900460ff16905092915050565b60007f01ffc9a7000000000000000000000000000000000000000000000000000000007bffffffffffffffffffffffffffffffffffffffffffffffffffffffff1916827bffffffffffffffffffffffffffffffffffffffffffffffffffffffff1916149050919050565b60008073ffffffffffffffffffffffffffffffffffffffff166002600084815260200190815260200160002060009054906101000a900473ffffffffffffffffffffffffffffffffffffffff1673ffffffffffffffffffffffffffffffffffffffff1614159050919050565b600033905090565b816004600083815260200190815260200160002060006101000a81548173ffffffffffffffffffffffffffffffffffffffff021916908373ffffffffffffffffffffffffffffffffffffffff160217905550808273ffffffffffffffffffffffffffffffffffffffff16611d278361113f565b73ffffffffffffffffffffffffffffffffffffffff167f8c5be1e5ebec7d5bd14f71427d1e84f3dd0314c0f7b2291e5b200ac8c7c3b92560405160405180910390a45050565b6000611d7882611c40565b611db7576040517f08c379a0000000000000000000000000000000000000000000000000000000008152600401611dae90614851565b60405180910390fd5b6000611dc28361113f565b90508073ffffffffffffffffffffffffffffffffffffffff168473ffffffffffffffffffffffffffffffffffffffff161480611e3157508373ffffffffffffffffffffffffffffffffffffffff16611e1984610a9b565b73ffffffffffffffffffffffffffffffffffffffff16145b80611e425750611e418185611b42565b5b91505092915050565b8273ffffffffffffffffffffffffffffffffffffffff16611e6b8261113f565b73ffffffffffffffffffffffffffffffffffffffff1614611ec1576040517f08c379a0000000000000000000000000000000000000000000000000000000008152600401611eb8906148e3565b60405180910390fd5b600073ffffffffffffffffffffffffffffffffffffffff168273ffffffffffffffffffffffffffffffffffffffff1603611f30576040517f08c379a0000000000000000000000000000000000000000000000000000000008152600401611f2790614975565b60405180910390fd5b611f3b8383836133d8565b611f46600082611cb4565b6001600360008573ffffffffffffffffffffffffffffffffffffffff1673ffffffffffffffffffffffffffffffffffffffff1681526020019081526020016000206000828254611f969190614995565b925050819055506001600360008473ffffffffffffffffffffffffffffffffffffffff1673ffffffffffffffffffffffffffffffffffffffff1681526020019081526020016000206000828254611fed91906144e4565b92505081905550816002600083815260200190815260200160002060006101000a81548173ffffffffffffffffffffffffffffffffffffffff021916908373ffffffffffffffffffffffffffffffffffffffff160217905550808273ffffffffffffffffffffffffffffffffffffffff168473ffffffffffffffffffffffffffffffffffffffff167fddf252ad1be2c89b69c2b068fc378daa952ba7f163c4a11628f55a4df523b3ef60405160405180910390a4505050565b600080601983815481106120bd576120bc614362565b5b906000526020600020906008020160405180610120016040529081600082015481526020016001820160009054906101000a900473ffffffffffffffffffffffffffffffffffffffff1673ffffffffffffffffffffffffffffffffffffffff1673ffffffffffffffffffffffffffffffffffffffff1681526020016002820154815260200160038201548152602001600482015481526020016005820154815260200160068201805461216f906140e9565b80601f016020809104026020016040519081016040528092919081815260200182805461219b906140e9565b80156121e85780601f106121bd576101008083540402835291602001916121e8565b820191906000526020600020905b8154815290600101906020018083116121cb57829003601f168201915b505050505081526020016007820160009054906101000a900460ff16600481111561221657612215613a6f565b5b600481111561222857612227613a6f565b5b81526020016007820160019054906101000a900460ff16600381111561225157612250613a6f565b5b600381111561226357612262613a6f565b5b8152505090506003816101000190600381111561228357612282613a6f565b5b9081600381111561229757612296613a6f565b5b8152505080601984815481106122b0576122af614362565b5b90600052602060002090600802016000820151816000015560208201518160010160006101000a81548173ffffffffffffffffffffffffffffffffffffffff021916908373ffffffffffffffffffffffffffffffffffffffff16021790555060408201518160020155606082015181600301556080820151816004015560a0820151816005015560c082015181600601908161234c9190614b6b565b5060e08201518160070160006101000a81548160ff0219169083600481111561237857612377613a6f565b5b02179055506101008201518160070160016101000a81548160ff021916908360038111156123a9576123a8613a6f565b5b02179055509050506001915050919050565b600080601983815481106123d2576123d1614362565b5b906000526020600020906008020160405180610120016040529081600082015481526020016001820160009054906101000a900473ffffffffffffffffffffffffffffffffffffffff1673ffffffffffffffffffffffffffffffffffffffff1673ffffffffffffffffffffffffffffffffffffffff16815260200160028201548152602001600382015481526020016004820154815260200160058201548152602001600682018054612484906140e9565b80601f01602080910402602001604051908101604052809291908181526020018280546124b0906140e9565b80156124fd5780601f106124d2576101008083540402835291602001916124fd565b820191906000526020600020905b8154815290600101906020018083116124e057829003601f168201915b505050505081526020016007820160009054906101000a900460ff16600481111561252b5761252a613a6f565b5b600481111561253d5761253c613a6f565b5b81526020016007820160019054906101000a900460ff16600381111561256657612565613a6f565b5b600381111561257857612577613a6f565b5b8152505090506001816101000190600381111561259857612597613a6f565b5b908160038111156125ac576125ab613a6f565b5b8152505080601984815481106125c5576125c4614362565b5b90600052602060002090600802016000820151816000015560208201518160010160006101000a81548173ffffffffffffffffffffffffffffffffffffffff021916908373ffffffffffffffffffffffffffffffffffffffff16021790555060408201518160020155606082015181600301556080820151816004015560a0820151816005015560c08201518160060190816126619190614b6b565b5060e08201518160070160006101000a81548160ff0219169083600481111561268d5761268c613a6f565b5b02179055506101008201518160070160016101000a81548160ff021916908360038111156126be576126bd613a6f565b5b02179055509050506001915050919050565b600080601983815481106126e7576126e6614362565b5b906000526020600020906008020160405180610120016040529081600082015481526020016001820160009054906101000a900473ffffffffffffffffffffffffffffffffffffffff1673ffffffffffffffffffffffffffffffffffffffff1673ffffffffffffffffffffffffffffffffffffffff16815260200160028201548152602001600382015481526020016004820154815260200160058201548152602001600682018054612799906140e9565b80601f01602080910402602001604051908101604052809291908181526020018280546127c5906140e9565b80156128125780601f106127e757610100808354040283529160200191612812565b820191906000526020600020905b8154815290600101906020018083116127f557829003601f168201915b505050505081526020016007820160009054906101000a900460ff1660048111156128405761283f613a6f565b5b600481111561285257612851613a6f565b5b81526020016007820160019054906101000a900460ff16600381111561287b5761287a613a6f565b5b600381111561288d5761288c613a6f565b5b815250509050600281610100019060038111156128ad576128ac613a6f565b5b908160038111156128c1576128c0613a6f565b5b8152505080601984815481106128da576128d9614362565b5b90600052602060002090600802016000820151816000015560208201518160010160006101000a81548173ffffffffffffffffffffffffffffffffffffffff021916908373ffffffffffffffffffffffffffffffffffffffff16021790555060408201518160020155606082015181600301556080820151816004015560a0820151816005015560c08201518160060190816129769190614b6b565b5060e08201518160070160006101000a81548160ff021916908360048111156129a2576129a1613a6f565b5b02179055506101008201518160070160016101000a81548160ff021916908360038111156129d3576129d2613a6f565b5b02179055509050506000915050919050565b60008060048111156129fa576129f9613a6f565b5b846004811115612a0d57612a0c613a6f565b5b03612a6f576611c37937e08000821015612a5c576040517f08c379a0000000000000000000000000000000000000000000000000000000008152600401612a5390614c89565b60405180910390fd5b8183612a689190614cd8565b9050612c14565b60016004811115612a8357612a82613a6f565b5b846004811115612a9657612a95613a6f565b5b03612af85766b1a2bc2ec50000821015612ae5576040517f08c379a0000000000000000000000000000000000000000000000000000000008152600401612adc90614c89565b60405180910390fd5b8183612af19190614cd8565b9050612c13565b60026004811115612b0c57612b0b613a6f565b5b846004811115612b1f57612b1e613a6f565b5b03612b82576706f05b59d3b20000821015612b6f576040517f08c379a0000000000000000000000000000000000000000000000000000000008152600401612b6690614c89565b60405180910390fd5b8183612b7b9190614cd8565b9050612c12565b60036004811115612b9657612b95613a6f565b5b846004811115612ba957612ba8613a6f565b5b03612c0c57674563918244f40000821015612bf9576040517f08c379a0000000000000000000000000000000000000000000000000000000008152600401612bf090614c89565b60405180910390fd5b8183612c059190614cd8565b9050612c11565b600090505b5b5b5b9392505050565b6000601960405180610120016040528060185481526020013373ffffffffffffffffffffffffffffffffffffffff1681526020018a8152602001898152602001888152602001878152602001868152602001856004811115612c8057612c7f613a6f565b5b8152602001846003811115612c9857612c97613a6f565b5b81525090806001815401808255809150506001900390600052602060002090600802016000909190919091506000820151816000015560208201518160010160006101000a81548173ffffffffffffffffffffffffffffffffffffffff021916908373ffffffffffffffffffffffffffffffffffffffff16021790555060408201518160020155606082015181600301556080820151816004015560a0820151816005015560c0820151816006019081612d529190614b6b565b5060e08201518160070160006101000a81548160ff02191690836004811115612d7e57612d7d613a6f565b5b02179055506101008201518160070160016101000a81548160ff02191690836003811115612daf57612dae613a6f565b5b02179055505050601960185481548110612dcc57612dcb614362565b5b9060005260206000209060080201601b60003373ffffffffffffffffffffffffffffffffffffffff1673ffffffffffffffffffffffffffffffffffffffff1681526020019081526020016000206000601a60003373ffffffffffffffffffffffffffffffffffffffff1673ffffffffffffffffffffffffffffffffffffffff168152602001908152602001600020548152602001908152602001600020600082015481600001556001820160009054906101000a900473ffffffffffffffffffffffffffffffffffffffff168160010160006101000a81548173ffffffffffffffffffffffffffffffffffffffff021916908373ffffffffffffffffffffffffffffffffffffffff1602179055506002820154816002015560038201548160030155600482015481600401556005820154816005015560068201816006019081612f169190614d1f565b506007820160009054906101000a900460ff168160070160006101000a81548160ff02191690836004811115612f4f57612f4e613a6f565b5b02179055506007820160019054906101000a900460ff168160070160016101000a81548160ff02191690836003811115612f8c57612f8b613a6f565b5b0217905550905050601a60003373ffffffffffffffffffffffffffffffffffffffff1673ffffffffffffffffffffffffffffffffffffffff1681526020019081526020016000206000815480929190612fe490614e07565b9190505550612ff5336018546133dd565b6018600081548092919061300890614e07565b919050555060019050979650505050505050565b6000600782111561302c57600080fd5b60005b8281101561305e5761304333600b546133dd565b600b600081546001019190508190555080600101905061302f565b50600b549050919050565b8173ffffffffffffffffffffffffffffffffffffffff168373ffffffffffffffffffffffffffffffffffffffff16036130d7576040517f08c379a00000000000000000000000000000000000000000000000000000000081526004016130ce90614e9b565b60405180910390fd5b80600560008573ffffffffffffffffffffffffffffffffffffffff1673ffffffffffffffffffffffffffffffffffffffff16815260200190815260200160002060008473ffffffffffffffffffffffffffffffffffffffff1673ffffffffffffffffffffffffffffffffffffffff16815260200190815260200160002060006101000a81548160ff0219169083151502179055508173ffffffffffffffffffffffffffffffffffffffff168373ffffffffffffffffffffffffffffffffffffffff167f17307eab39ab6107e8899845ad3d59bd9653f200f220920489ca2b5937696c31836040516131c891906137f8565b60405180910390a3505050565b6000600f60009054906101000a900460ff1615600f60006101000a81548160ff0219169083151502179055905090565b613210848484611e4b565b61321c848484846135aa565b61325b576040517f08c379a000000000000000000000000000000000000000000000000000000000815260040161325290614f2d565b60405180910390fd5b50505050565b606060405180602001604052806000815250905090565b6060600082036132bf576040518060400160405280600181526020017f300000000000000000000000000000000000000000000000000000000000000081525090506133d3565b600082905060005b600082146132f15780806132da90614e07565b915050600a826132ea9190614cd8565b91506132c7565b60008167ffffffffffffffff81111561330d5761330c613d32565b5b6040519080825280601f01601f19166020018201604052801561333f5781602001600182028036833780820191505090505b5090505b600085146133cc576001826133589190614995565b9150600a856133679190614f4d565b603061337391906144e4565b60f81b81838151811061338957613388614362565b5b60200101907effffffffffffffffffffffffffffffffffffffffffffffffffffffffffffff1916908160001a905350600a856133c59190614cd8565b9450613343565b8093505050505b919050565b505050565b600073ffffffffffffffffffffffffffffffffffffffff168273ffffffffffffffffffffffffffffffffffffffff160361344c576040517f08c379a000000000000000000000000000000000000000000000000000000000815260040161344390614fca565b60405180910390fd5b61345581611c40565b15613495576040517f08c379a000000000000000000000000000000000000000000000000000000000815260040161348c90615036565b60405180910390fd5b6134a1600083836133d8565b6001600360008473ffffffffffffffffffffffffffffffffffffffff1673ffffffffffffffffffffffffffffffffffffffff16815260200190815260200160002060008282546134f191906144e4565b92505081905550816002600083815260200190815260200160002060006101000a81548173ffffffffffffffffffffffffffffffffffffffff021916908373ffffffffffffffffffffffffffffffffffffffff160217905550808273ffffffffffffffffffffffffffffffffffffffff16600073ffffffffffffffffffffffffffffffffffffffff167fddf252ad1be2c89b69c2b068fc378daa952ba7f163c4a11628f55a4df523b3ef60405160405180910390a45050565b60006135cb8473ffffffffffffffffffffffffffffffffffffffff16613731565b15613724578373ffffffffffffffffffffffffffffffffffffffff1663150b7a026135f4611cac565b8786866040518563ffffffff1660e01b81526004016136169493929190615056565b6020604051808303816000875af192505050801561365257506040513d601f19601f8201168201806040525081019061364f91906150b7565b60015b6136d4573d8060008114613682576040519150601f19603f3d011682016040523d82523d6000602084013e613687565b606091505b5060008151036136cc576040517f08c379a00000000000000000000000000000000000000000000000000000000081526004016136c390614f2d565b60405180910390fd5b805181602001fd5b63150b7a0260e01b7bffffffffffffffffffffffffffffffffffffffffffffffffffffffff1916817bffffffffffffffffffffffffffffffffffffffffffffffffffffffff191614915050613729565b600190505b949350505050565b600080823b905060008111915050919050565b6000604051905090565b600080fd5b600080fd5b60007fffffffff0000000000000000000000000000000000000000000000000000000082169050919050565b61378d81613758565b811461379857600080fd5b50565b6000813590506137aa81613784565b92915050565b6000602082840312156137c6576137c561374e565b5b60006137d48482850161379b565b91505092915050565b60008115159050919050565b6137f2816137dd565b82525050565b600060208201905061380d60008301846137e9565b92915050565b600081519050919050565b600082825260208201905092915050565b60005b8381101561384d578082015181840152602081019050613832565b60008484015250505050565b6000601f19601f8301169050919050565b600061387582613813565b61387f818561381e565b935061388f81856020860161382f565b61389881613859565b840191505092915050565b600060208201905081810360008301526138bd818461386a565b905092915050565b6000819050919050565b6138d8816138c5565b81146138e357600080fd5b50565b6000813590506138f5816138cf565b92915050565b6000602082840312156139115761391061374e565b5b600061391f848285016138e6565b91505092915050565b600073ffffffffffffffffffffffffffffffffffffffff82169050919050565b600061395382613928565b9050919050565b61396381613948565b82525050565b600060208201905061397e600083018461395a565b92915050565b61398d81613948565b811461399857600080fd5b50565b6000813590506139aa81613984565b92915050565b600080604083850312156139c7576139c661374e565b5b60006139d58582860161399b565b92505060206139e6858286016138e6565b9150509250929050565b6139f9816138c5565b82525050565b6000602082019050613a1460008301846139f0565b92915050565b600081519050919050565b600082825260208201905092915050565b6000613a4182613a1a565b613a4b8185613a25565b9350613a5b81856020860161382f565b613a6481613859565b840191505092915050565b7f4e487b7100000000000000000000000000000000000000000000000000000000600052602160045260246000fd5b60058110613aaf57613aae613a6f565b5b50565b6000819050613ac082613a9e565b919050565b6000613ad082613ab2565b9050919050565b613ae081613ac5565b82525050565b60048110613af757613af6613a6f565b5b50565b6000819050613b0882613ae6565b919050565b6000613b1882613afa565b9050919050565b613b2881613b0d565b82525050565b600061012082019050613b44600083018c6139f0565b613b51602083018b61395a565b613b5e604083018a6139f0565b613b6b60608301896139f0565b613b7860808301886139f0565b613b8560a08301876139f0565b81810360c0830152613b978186613a36565b9050613ba660e0830185613ad7565b613bb4610100830184613b1f565b9a9950505050505050505050565b6000819050919050565b6000613be7613be2613bdd84613928565b613bc2565b613928565b9050919050565b6000613bf982613bcc565b9050919050565b6000613c0b82613bee565b9050919050565b613c1b81613c00565b82525050565b6000602082019050613c366000830184613c12565b92915050565b600080600060608486031215613c5557613c5461374e565b5b6000613c638682870161399b565b9350506020613c748682870161399b565b9250506040613c85868287016138e6565b9150509250925092565b600060208284031215613ca557613ca461374e565b5b6000613cb38482850161399b565b91505092915050565b613cc5816137dd565b8114613cd057600080fd5b50565b600081359050613ce281613cbc565b92915050565b60008060408385031215613cff57613cfe61374e565b5b6000613d0d858286016138e6565b9250506020613d1e85828601613cd3565b9150509250929050565b600080fd5b600080fd5b7f4e487b7100000000000000000000000000000000000000000000000000000000600052604160045260246000fd5b613d6a82613859565b810181811067ffffffffffffffff82111715613d8957613d88613d32565b5b80604052505050565b6000613d9c613744565b9050613da88282613d61565b919050565b600067ffffffffffffffff821115613dc857613dc7613d32565b5b613dd182613859565b9050602081019050919050565b82818337600083830152505050565b6000613e00613dfb84613dad565b613d92565b905082815260208101848484011115613e1c57613e1b613d2d565b5b613e27848285613dde565b509392505050565b600082601f830112613e4457613e43613d28565b5b8135613e54848260208601613ded565b91505092915050565b600080600080600060a08688031215613e7957613e7861374e565b5b6000613e87888289016138e6565b9550506020613e98888289016138e6565b9450506040613ea9888289016138e6565b935050606086013567ffffffffffffffff811115613eca57613ec9613753565b5b613ed688828901613e2f565b9250506080613ee7888289016138e6565b9150509295509295909350565b60006020820190508181036000830152613f0e8184613a36565b905092915050565b60008060408385031215613f2d57613f2c61374e565b5b6000613f3b8582860161399b565b9250506020613f4c85828601613cd3565b9150509250929050565b600067ffffffffffffffff821115613f7157613f70613d32565b5b613f7a82613859565b9050602081019050919050565b6000613f9a613f9584613f56565b613d92565b905082815260208101848484011115613fb657613fb5613d2d565b5b613fc1848285613dde565b509392505050565b600082601f830112613fde57613fdd613d28565b5b8135613fee848260208601613f87565b91505092915050565b600080600080608085870312156140115761401061374e565b5b600061401f8782880161399b565b94505060206140308782880161399b565b9350506040614041878288016138e6565b925050606085013567ffffffffffffffff81111561406257614061613753565b5b61406e87828801613fc9565b91505092959194509250565b600080604083850312156140915761409061374e565b5b600061409f8582860161399b565b92505060206140b08582860161399b565b9150509250929050565b7f4e487b7100000000000000000000000000000000000000000000000000000000600052602260045260246000fd5b6000600282049050600182168061410157607f821691505b602082108103614114576141136140ba565b5b50919050565b7f4552433732313a20617070726f76656420717565727920666f72206e6f6e657860008201527f697374656e7420746f6b656e0000000000000000000000000000000000000000602082015250565b6000614176602c8361381e565b91506141818261411a565b604082019050919050565b600060208201905081810360008301526141a581614169565b9050919050565b7f4552433732313a20617070726f76616c20746f2063757272656e74206f776e6560008201527f7200000000000000000000000000000000000000000000000000000000000000602082015250565b600061420860218361381e565b9150614213826141ac565b604082019050919050565b60006020820190508181036000830152614237816141fb565b9050919050565b7f4552433732313a20617070726f76652063616c6c6572206973206e6f74206f7760008201527f6e6572206e6f7220617070726f76656420666f7220616c6c0000000000000000602082015250565b600061429a60388361381e565b91506142a58261423e565b604082019050919050565b600060208201905081810360008301526142c98161428d565b9050919050565b7f4552433732313a207472616e736665722063616c6c6572206973206e6f74206f60008201527f776e6572206e6f7220617070726f766564000000000000000000000000000000602082015250565b600061432c60318361381e565b9150614337826142d0565b604082019050919050565b6000602082019050818103600083015261435b8161431f565b9050919050565b7f4e487b7100000000000000000000000000000000000000000000000000000000600052603260045260246000fd5b7f4552433732313a206f776e657220717565727920666f72206e6f6e657869737460008201527f656e7420746f6b656e0000000000000000000000000000000000000000000000602082015250565b60006143ed60298361381e565b91506143f882614391565b604082019050919050565b6000602082019050818103600083015261441c816143e0565b9050919050565b7f4552433732313a2062616c616e636520717565727920666f7220746865207a6560008201527f726f206164647265737300000000000000000000000000000000000000000000602082015250565b600061447f602a8361381e565b915061448a82614423565b604082019050919050565b600060208201905081810360008301526144ae81614472565b9050919050565b7f4e487b7100000000000000000000000000000000000000000000000000000000600052601160045260246000fd5b60006144ef826138c5565b91506144fa836138c5565b9250828201905080821115614512576145116144b5565b5b92915050565b600081519050614527816138cf565b92915050565b6000602082840312156145435761454261374e565b5b600061455184828501614518565b91505092915050565b7f3a3a20696e73756666696369656e742066756e6473203a3a0000000000000000600082015250565b600061459060188361381e565b915061459b8261455a565b602082019050919050565b600060208201905081810360008301526145bf81614583565b9050919050565b7f3a3a206e6f7420656e6f75676820627564676574203a3a000000000000000000600082015250565b60006145fc60178361381e565b9150614607826145c6565b602082019050919050565b6000602082019050818103600083015261462b816145ef565b9050919050565b6000606082019050614647600083018661395a565b614654602083018561395a565b61466160408301846139f0565b949350505050565b60008151905061467881613cbc565b92915050565b6000602082840312156146945761469361374e565b5b60006146a284828501614669565b91505092915050565b60006146b6826138c5565b91506146c1836138c5565b92508282026146cf816138c5565b915082820484148315176146e6576146e56144b5565b5b5092915050565b7f4552433732314d657461646174613a2055524920717565727920666f72206e6f60008201527f6e6578697374656e7420746f6b656e0000000000000000000000000000000000602082015250565b6000614749602f8361381e565b9150614754826146ed565b604082019050919050565b600060208201905081810360008301526147788161473c565b9050919050565b600081905092915050565b600061479582613813565b61479f818561477f565b93506147af81856020860161382f565b80840191505092915050565b60006147c7828561478a565b91506147d3828461478a565b91508190509392505050565b7f4552433732313a206f70657261746f7220717565727920666f72206e6f6e657860008201527f697374656e7420746f6b656e0000000000000000000000000000000000000000602082015250565b600061483b602c8361381e565b9150614846826147df565b604082019050919050565b6000602082019050818103600083015261486a8161482e565b9050919050565b7f4552433732313a207472616e73666572206f6620746f6b656e2074686174206960008201527f73206e6f74206f776e0000000000000000000000000000000000000000000000602082015250565b60006148cd60298361381e565b91506148d882614871565b604082019050919050565b600060208201905081810360008301526148fc816148c0565b9050919050565b7f4552433732313a207472616e7366657220746f20746865207a65726f2061646460008201527f7265737300000000000000000000000000000000000000000000000000000000602082015250565b600061495f60248361381e565b915061496a82614903565b604082019050919050565b6000602082019050818103600083015261498e81614952565b9050919050565b60006149a0826138c5565b91506149ab836138c5565b92508282039050818111156149c3576149c26144b5565b5b92915050565b60008190508160005260206000209050919050565b60006020601f8301049050919050565b600082821b905092915050565b600060088302614a2b7fffffffffffffffffffffffffffffffffffffffffffffffffffffffffffffffff826149ee565b614a3586836149ee565b95508019841693508086168417925050509392505050565b6000614a68614a63614a5e846138c5565b613bc2565b6138c5565b9050919050565b6000819050919050565b614a8283614a4d565b614a96614a8e82614a6f565b8484546149fb565b825550505050565b600090565b614aab614a9e565b614ab6818484614a79565b505050565b5b81811015614ada57614acf600082614aa3565b600181019050614abc565b5050565b601f821115614b1f57614af0816149c9565b614af9846149de565b81016020851015614b08578190505b614b1c614b14856149de565b830182614abb565b50505b505050565b600082821c905092915050565b6000614b4260001984600802614b24565b1980831691505092915050565b6000614b5b8383614b31565b9150826002028217905092915050565b614b7482613a1a565b67ffffffffffffffff811115614b8d57614b8c613d32565b5b614b9782546140e9565b614ba2828285614ade565b600060209050601f831160018114614bd55760008415614bc3578287015190505b614bcd8582614b4f565b865550614c35565b601f198416614be3866149c9565b60005b82811015614c0b57848901518255600182019150602085019450602081019050614be6565b86831015614c285784890151614c24601f891682614b31565b8355505b6001600288020188555050505b505050505050565b7f3a3a20707269636520746f6f206c6f77203a3a00000000000000000000000000600082015250565b6000614c7360138361381e565b9150614c7e82614c3d565b602082019050919050565b60006020820190508181036000830152614ca281614c66565b9050919050565b7f4e487b7100000000000000000000000000000000000000000000000000000000600052601260045260246000fd5b6000614ce3826138c5565b9150614cee836138c5565b925082614cfe57614cfd614ca9565b5b828204905092915050565b600081549050614d18816140e9565b9050919050565b818103614d2d575050614e05565b614d3682614d09565b67ffffffffffffffff811115614d4f57614d4e613d32565b5b614d5982546140e9565b614d64828285614ade565b6000601f831160018114614d935760008415614d81578287015490505b614d8b8582614b4f565b865550614dfe565b601f198416614da1876149c9565b9650614dac866149c9565b60005b82811015614dd457848901548255600182019150600185019450602081019050614daf565b86831015614df15784890154614ded601f891682614b31565b8355505b6001600288020188555050505b5050505050505b565b6000614e12826138c5565b91507fffffffffffffffffffffffffffffffffffffffffffffffffffffffffffffffff8203614e4457614e436144b5565b5b600182019050919050565b7f4552433732313a20617070726f766520746f2063616c6c657200000000000000600082015250565b6000614e8560198361381e565b9150614e9082614e4f565b602082019050919050565b60006020820190508181036000830152614eb481614e78565b9050919050565b7f4552433732313a207472616e7366657220746f206e6f6e20455243373231526560008201527f63656976657220696d706c656d656e7465720000000000000000000000000000602082015250565b6000614f1760328361381e565b9150614f2282614ebb565b604082019050919050565b60006020820190508181036000830152614f4681614f0a565b9050919050565b6000614f58826138c5565b9150614f63836138c5565b925082614f7357614f72614ca9565b5b828206905092915050565b7f4552433732313a206d696e7420746f20746865207a65726f2061646472657373600082015250565b6000614fb460208361381e565b9150614fbf82614f7e565b602082019050919050565b60006020820190508181036000830152614fe381614fa7565b9050919050565b7f4552433732313a20746f6b656e20616c7265616479206d696e74656400000000600082015250565b6000615020601c8361381e565b915061502b82614fea565b602082019050919050565b6000602082019050818103600083015261504f81615013565b9050919050565b600060808201905061506b600083018761395a565b615078602083018661395a565b61508560408301856139f0565b81810360608301526150978184613a36565b905095945050505050565b6000815190506150b181613784565b92915050565b6000602082840312156150cd576150cc61374e565b5b60006150db848285016150a2565b9150509291505056fea26469706673582212204c33d9ef195aa56e855dd43d566ecbc50df974a465bfb79110447f2d8cb3d38764736f6c6343000811003360806040523480156200001157600080fd5b5060405162005d9038038062005d90833981810160405281019062000037919062001041565b868681600390816200004a919062001373565b5080600490816200005c919062001373565b5050506000600560006101000a81548160ff0219169083151502179055506200009a6200008e6200038560201b60201c565b6200038d60201b60201c565b60014603620000fe5773e47da91495c75e1d48569f343938380d8303b1f2600660006101000a81548173ffffffffffffffffffffffffffffffffffffffff021916908373ffffffffffffffffffffffffffffffffffffffff1602179055506200022a565b60054603620001625773e47da91495c75e1d48569f343938380d8303b1f2600660006101000a81548173ffffffffffffffffffffffffffffffffffffffff021916908373ffffffffffffffffffffffffffffffffffffffff16021790555062000229565b60894603620001c65773e47da91495c75e1d48569f343938380d8303b1f2600660006101000a81548173ffffffffffffffffffffffffffffffffffffffff021916908373ffffffffffffffffffffffffffffffffffffffff16021790555062000228565b620138814603620002275773e47da91495c75e1d48569f343938380d8303b1f2600660006101000a81548173ffffffffffffffffffffffffffffffffffffffff021916908373ffffffffffffffffffffffffffffffffffffffff1602179055505b5b5b5b6200023b856200045360201b60201c565b508360098190555086600c908162000254919062001373565b5082600b60006101000a81548160ff02191690831515021790555081600b60016101000a81548160ff0219169083151502179055506200029a8162000cf860201b60201c565b600d60006101000a81548160ff02191690836004811115620002c157620002c06200145a565b5b02179055506040518060600160405280600a548152602001868152602001600d60009054906101000a900460ff1660048111156200030457620003036200145a565b5b815250600e600a548154811062000320576200031f62001489565b5b9060005260206000209060030201600082015181600001556020820151816001015560408201518160020160006101000a81548160ff0219169083600481111562000370576200036f6200145a565b5b02179055509050505050505050505062001594565b600033905090565b6000600560019054906101000a900473ffffffffffffffffffffffffffffffffffffffff16905081600560016101000a81548173ffffffffffffffffffffffffffffffffffffffff021916908373ffffffffffffffffffffffffffffffffffffffff1602179055508173ffffffffffffffffffffffffffffffffffffffff168173ffffffffffffffffffffffffffffffffffffffff167f8be0079c531659141344cd1fd0a4f28419497f9722a3daafe3b4186f6b6457e060405160405180910390a35050565b600080600060048111156200046d576200046c6200145a565b5b600d60009054906101000a900460ff1660048111156200049257620004916200145a565b5b03620006335760008173ffffffffffffffffffffffffffffffffffffffff16638d4a8ffe856040518263ffffffff1660e01b8152600401620004d59190620014c9565b602060405180830381865afa158015620004f3573d6000803e3d6000fd5b505050506040513d601f19601f82011682018060405250810190620005199190620014e6565b9050600081101562000557576040517fc1a21f4e00000000000000000000000000000000000000000000000000000000815260040160405180910390fd5b6040518060600160405280600a548152602001828152602001600d60009054906101000a900460ff1660048111156200059557620005946200145a565b5b815250600e600a5481548110620005b157620005b062001489565b5b9060005260206000209060030201600082015181600001556020820151816001015560408201518160020160006101000a81548160ff021916908360048111156200060157620006006200145a565b5b0217905550905050600a60008154809291906200061e9062001547565b91905055508060078190559250505062000cf3565b600160048111156200064a57620006496200145a565b5b600d60009054906101000a900460ff1660048111156200066f576200066e6200145a565b5b03620007925760008390506000811015620006b6576040517fc1a21f4e00000000000000000000000000000000000000000000000000000000815260040160405180910390fd5b6040518060600160405280600a548152602001828152602001600d60009054906101000a900460ff166004811115620006f457620006f36200145a565b5b815250600e600a548154811062000710576200070f62001489565b5b9060005260206000209060030201600082015181600001556020820151816001015560408201518160020160006101000a81548160ff0219169083600481111562000760576200075f6200145a565b5b0217905550905050600a60008154809291906200077d9062001547565b91905055508060078190559250505062000cf3565b60026004811115620007a957620007a86200145a565b5b600d60009054906101000a900460ff166004811115620007ce57620007cd6200145a565b5b036200096f5760008173ffffffffffffffffffffffffffffffffffffffff16637afcc7a4856040518263ffffffff1660e01b8152600401620008119190620014c9565b602060405180830381865afa1580156200082f573d6000803e3d6000fd5b505050506040513d601f19601f82011682018060405250810190620008559190620014e6565b9050600081101562000893576040517fc1a21f4e00000000000000000000000000000000000000000000000000000000815260040160405180910390fd5b6040518060600160405280600a548152602001828152602001600d60009054906101000a900460ff166004811115620008d157620008d06200145a565b5b815250600e600a5481548110620008ed57620008ec62001489565b5b9060005260206000209060030201600082015181600001556020820151816001015560408201518160020160006101000a81548160ff021916908360048111156200093d576200093c6200145a565b5b0217905550905050600a60008154809291906200095a9062001547565b91905055508060078190559250505062000cf3565b600360048111156200098657620009856200145a565b5b600d60009054906101000a900460ff166004811115620009ab57620009aa6200145a565b5b0362000b4c5760008173ffffffffffffffffffffffffffffffffffffffff166387434dcd856040518263ffffffff1660e01b8152600401620009ee9190620014c9565b602060405180830381865afa15801562000a0c573d6000803e3d6000fd5b505050506040513d601f19601f8201168201806040525081019062000a329190620014e6565b9050600081101562000a70576040517fc1a21f4e00000000000000000000000000000000000000000000000000000000815260040160405180910390fd5b6040518060600160405280600a548152602001828152602001600d60009054906101000a900460ff16600481111562000aae5762000aad6200145a565b5b815250600e600a548154811062000aca5762000ac962001489565b5b9060005260206000209060030201600082015181600001556020820151816001015560408201518160020160006101000a81548160ff0219169083600481111562000b1a5762000b196200145a565b5b0217905550905050600a600081548092919062000b379062001547565b91905055508060078190559250505062000cf3565b60048081111562000b625762000b616200145a565b5b600d60009054906101000a900460ff16600481111562000b875762000b866200145a565b5b0362000cec5760008173ffffffffffffffffffffffffffffffffffffffff1663d1381f4e856040518263ffffffff1660e01b815260040162000bca9190620014c9565b602060405180830381865afa15801562000be8573d6000803e3d6000fd5b505050506040513d601f19601f8201168201806040525081019062000c0e9190620014e6565b90506040518060600160405280600a548152602001828152602001600d60009054906101000a900460ff16600481111562000c4e5762000c4d6200145a565b5b815250600e600a548154811062000c6a5762000c6962001489565b5b9060005260206000209060030201600082015181600001556020820151816001015560408201518160020160006101000a81548160ff0219169083600481111562000cba5762000cb96200145a565b5b0217905550905050600a600081548092919062000cd79062001547565b91905055508060078190559250505062000cf3565b6007549150505b919050565b600080820362000d36576000600d60006101000a81548160ff0219169083600481111562000d2b5762000d2a6200145a565b5b021790555062000e1f565b6001820362000d73576001600d60006101000a81548160ff0219169083600481111562000d685762000d676200145a565b5b021790555062000e1e565b6002820362000db0576002600d60006101000a81548160ff0219169083600481111562000da55762000da46200145a565b5b021790555062000e1d565b6003820362000ded576003600d60006101000a81548160ff0219169083600481111562000de25762000de16200145a565b5b021790555062000e1c565b6004600d60006101000a81548160ff0219169083600481111562000e165762000e156200145a565b5b02179055505b5b5b5b600d60009054906101000a900460ff169050919050565b6000604051905090565b600080fd5b600080fd5b600080fd5b600080fd5b6000601f19601f8301169050919050565b7f4e487b7100000000000000000000000000000000000000000000000000000000600052604160045260246000fd5b62000e9f8262000e54565b810181811067ffffffffffffffff8211171562000ec15762000ec062000e65565b5b80604052505050565b600062000ed662000e36565b905062000ee4828262000e94565b919050565b600067ffffffffffffffff82111562000f075762000f0662000e65565b5b62000f128262000e54565b9050602081019050919050565b60005b8381101562000f3f57808201518184015260208101905062000f22565b60008484015250505050565b600062000f6262000f5c8462000ee9565b62000eca565b90508281526020810184848401111562000f815762000f8062000e4f565b5b62000f8e84828562000f1f565b509392505050565b600082601f83011262000fae5762000fad62000e4a565b5b815162000fc084826020860162000f4b565b91505092915050565b6000819050919050565b62000fde8162000fc9565b811462000fea57600080fd5b50565b60008151905062000ffe8162000fd3565b92915050565b60008115159050919050565b6200101b8162001004565b81146200102757600080fd5b50565b6000815190506200103b8162001010565b92915050565b600080600080600080600060e0888a03121562001063576200106262000e40565b5b600088015167ffffffffffffffff81111562001084576200108362000e45565b5b620010928a828b0162000f96565b975050602088015167ffffffffffffffff811115620010b657620010b562000e45565b5b620010c48a828b0162000f96565b9650506040620010d78a828b0162000fed565b9550506060620010ea8a828b0162000fed565b9450506080620010fd8a828b016200102a565b93505060a0620011108a828b016200102a565b92505060c0620011238a828b0162000fed565b91505092959891949750929550565b600081519050919050565b7f4e487b7100000000000000000000000000000000000000000000000000000000600052602260045260246000fd5b600060028204905060018216806200118557607f821691505b6020821081036200119b576200119a6200113d565b5b50919050565b60008190508160005260206000209050919050565b60006020601f8301049050919050565b600082821b905092915050565b600060088302620012057fffffffffffffffffffffffffffffffffffffffffffffffffffffffffffffffff82620011c6565b620012118683620011c6565b95508019841693508086168417925050509392505050565b6000819050919050565b6000620012546200124e620012488462000fc9565b62001229565b62000fc9565b9050919050565b6000819050919050565b620012708362001233565b620012886200127f826200125b565b848454620011d3565b825550505050565b600090565b6200129f62001290565b620012ac81848462001265565b505050565b5b81811015620012d457620012c860008262001295565b600181019050620012b2565b5050565b601f8211156200132357620012ed81620011a1565b620012f884620011b6565b8101602085101562001308578190505b620013206200131785620011b6565b830182620012b1565b50505b505050565b600082821c905092915050565b6000620013486000198460080262001328565b1980831691505092915050565b600062001363838362001335565b9150826002028217905092915050565b6200137e8262001132565b67ffffffffffffffff8111156200139a576200139962000e65565b5b620013a682546200116c565b620013b3828285620012d8565b600060209050601f831160018114620013eb5760008415620013d6578287015190505b620013e2858262001355565b86555062001452565b601f198416620013fb86620011a1565b60005b828110156200142557848901518255600182019150602085019450602081019050620013fe565b8683101562001445578489015162001441601f89168262001335565b8355505b6001600288020188555050505b505050505050565b7f4e487b7100000000000000000000000000000000000000000000000000000000600052602160045260246000fd5b7f4e487b7100000000000000000000000000000000000000000000000000000000600052603260045260246000fd5b620014c38162000fc9565b82525050565b6000602082019050620014e06000830184620014b8565b92915050565b600060208284031215620014ff57620014fe62000e40565b5b60006200150f8482850162000fed565b91505092915050565b7f4e487b7100000000000000000000000000000000000000000000000000000000600052601160045260246000fd5b6000620015548262000fc9565b91507fffffffffffffffffffffffffffffffffffffffffffffffffffffffffffffffff820362001589576200158862001518565b5b600182019050919050565b6147ec80620015a46000396000f3fe60806040526004361061031e5760003560e01c8063715018a6116101ab578063a457c2d7116100f7578063dd62ed3e11610095578063e2ab78131161006f578063e2ab781314610c99578063e9f38fc514610cd6578063f2fde38b14610d13578063f42fff0114610d3c5761032d565b8063dd62ed3e14610c06578063e04777af14610c43578063e12ef5ed14610c6e5761032d565b8063c4ae3168116100d1578063c4ae316814610b48578063d1381f4e14610b73578063d21b872014610bb0578063d37e510414610bdb5761032d565b8063a457c2d714610aa3578063a9059cbb14610ae0578063bec9908e14610b1d5761032d565b8063836ceb9d116101645780638da5cb5b1161013e5780638da5cb5b146109f75780638dff74a714610a2257806395d89b4114610a4d57806396af428a14610a785761032d565b8063836ceb9d1461094057806387434dcd1461097d5780638d4a8ffe146109ba5761032d565b8063715018a614610842578063778a56ce1461085957806379cc67901461088457806379d79fcc146108ad5780637afcc7a4146108d85780637d670117146109155761032d565b806334fcf4371161026a5780634a2ad99f116102235780636260f55b116101fd5780636260f55b146107725780636a443b591461079d5780636f8b44b0146107c857806370a08231146108055761032d565b80634a2ad99f146106df5780634a79d50c1461071c5780635c975abb146107475761032d565b806334fcf437146105b65780633610724e146105f3578063395093511461062357806342966c6814610660578063445919461461068957806348cf734d146106b45761032d565b8063201a49d6116102d757806329d7a0bd116102b157806329d7a0bd1461050a5780632c4e722e14610535578063313ce5671461056057806332cb6b0c1461058b5761032d565b8063201a49d61461047757806323b872dd146104a2578063287ead9e146104df5761032d565b8063033a7a021461033f578063054dca2a1461037c57806306fdde03146103a7578063095ea7b3146103d25780630b4185ea1461040f57806318160ddd1461044c5761032d565b3661032d5761032b610d67565b005b610335610d67565b61033d610d86565b005b34801561034b57600080fd5b5061036660048036038101906103619190613836565b610e38565b6040516103739190613872565b60405180910390f35b34801561038857600080fd5b50610391610e81565b60405161039e9190613872565b60405180910390f35b3480156103b357600080fd5b506103bc610ebe565b6040516103c9919061391d565b60405180910390f35b3480156103de57600080fd5b506103f960048036038101906103f4919061399d565b610f50565b60405161040691906139f8565b60405180910390f35b34801561041b57600080fd5b5061043660048036038101906104319190613836565b610f6e565b6040516104439190613872565b60405180910390f35b34801561045857600080fd5b50610461610fb7565b60405161046e9190613872565b60405180910390f35b34801561048357600080fd5b5061048c610fc1565b6040516104999190613872565b60405180910390f35b3480156104ae57600080fd5b506104c960048036038101906104c49190613a13565b610fc7565b6040516104d691906139f8565b60405180910390f35b3480156104eb57600080fd5b506104f46110bf565b6040516105019190613872565b60405180910390f35b34801561051657600080fd5b5061051f6110fc565b60405161052c9190613872565b60405180910390f35b34801561054157600080fd5b5061054a611139565b6040516105579190613872565b60405180910390f35b34801561056c57600080fd5b5061057561113f565b6040516105829190613a82565b60405180910390f35b34801561059757600080fd5b506105a0611148565b6040516105ad9190613872565b60405180910390f35b3480156105c257600080fd5b506105dd60048036038101906105d89190613836565b61114e565b6040516105ea9190613872565b60405180910390f35b61060d60048036038101906106089190613836565b6111dc565b60405161061a9190613872565b60405180910390f35b34801561062f57600080fd5b5061064a6004803603810190610645919061399d565b6112be565b60405161065791906139f8565b60405180910390f35b34801561066c57600080fd5b5061068760048036038101906106829190613836565b61136a565b005b34801561069557600080fd5b5061069e6113c4565b6040516106ab9190613872565b60405180910390f35b3480156106c057600080fd5b506106c96113d3565b6040516106d69190613872565b60405180910390f35b3480156106eb57600080fd5b506107066004803603810190610701919061399d565b611410565b60405161071391906139f8565b60405180910390f35b34801561072857600080fd5b506107316114ba565b60405161073e919061391d565b60405180910390f35b34801561075357600080fd5b5061075c611548565b60405161076991906139f8565b60405180910390f35b34801561077e57600080fd5b5061078761155f565b6040516107949190613872565b60405180910390f35b3480156107a957600080fd5b506107b261156e565b6040516107bf9190613872565b60405180910390f35b3480156107d457600080fd5b506107ef60048036038101906107ea9190613836565b61157d565b6040516107fc9190613872565b60405180910390f35b34801561081157600080fd5b5061082c60048036038101906108279190613a9d565b611608565b6040516108399190613872565b60405180910390f35b34801561084e57600080fd5b50610857611650565b005b34801561086557600080fd5b5061086e6116d8565b60405161087b91906139f8565b60405180910390f35b34801561089057600080fd5b506108ab60048036038101906108a6919061399d565b611784565b005b3480156108b957600080fd5b506108c26117ff565b6040516108cf9190613872565b60405180910390f35b3480156108e457600080fd5b506108ff60048036038101906108fa9190613836565b61180e565b60405161090c9190613872565b60405180910390f35b34801561092157600080fd5b5061092a611858565b6040516109379190613872565b60405180910390f35b34801561094c57600080fd5b5061096760048036038101906109629190613836565b611867565b6040516109749190613b41565b60405180910390f35b34801561098957600080fd5b506109a4600480360381019061099f9190613836565b6118f5565b6040516109b19190613872565b60405180910390f35b3480156109c657600080fd5b506109e160048036038101906109dc9190613836565b61193f565b6040516109ee9190613872565b60405180910390f35b348015610a0357600080fd5b50610a0c611989565b604051610a199190613b6b565b60405180910390f35b348015610a2e57600080fd5b50610a376119b3565b604051610a449190613872565b60405180910390f35b348015610a5957600080fd5b50610a626119f0565b604051610a6f919061391d565b60405180910390f35b348015610a8457600080fd5b50610a8d611a82565b604051610a9a9190613872565b60405180910390f35b348015610aaf57600080fd5b50610aca6004803603810190610ac5919061399d565b611a91565b604051610ad791906139f8565b60405180910390f35b348015610aec57600080fd5b50610b076004803603810190610b02919061399d565b611b7c565b604051610b1491906139f8565b60405180910390f35b348015610b2957600080fd5b50610b32611b9a565b604051610b3f9190613872565b60405180910390f35b348015610b5457600080fd5b50610b5d611bd7565b604051610b6a91906139f8565b60405180910390f35b348015610b7f57600080fd5b50610b9a6004803603810190610b959190613836565b611c83565b604051610ba79190613872565b60405180910390f35b348015610bbc57600080fd5b50610bc5611ccd565b604051610bd29190613872565b60405180910390f35b348015610be757600080fd5b50610bf0611d0a565b604051610bfd91906139f8565b60405180910390f35b348015610c1257600080fd5b50610c2d6004803603810190610c289190613b86565b611e05565b604051610c3a9190613872565b60405180910390f35b348015610c4f57600080fd5b50610c58611e8c565b604051610c659190613872565b60405180910390f35b348015610c7a57600080fd5b50610c83611e9b565b604051610c909190613872565b60405180910390f35b348015610ca557600080fd5b50610cc06004803603810190610cbb9190613836565b611ed8565b604051610ccd9190613872565b60405180910390f35b348015610ce257600080fd5b50610cfd6004803603810190610cf8919061399d565b611f22565b604051610d0a91906139f8565b60405180910390f35b348015610d1f57600080fd5b50610d3a6004803603810190610d359190613a9d565b611fcc565b005b348015610d4857600080fd5b50610d516120c3565b604051610d5e9190613872565b60405180910390f35b600060075434610d779190613c24565b9050610d833382612100565b50565b60008060075482610d979190613c24565b9050600754811015610dd5576040517f99956c4600000000000000000000000000000000000000000000000000000000815260040160405180910390fd5b600081600854600954610de89190613c55565b610df29190613c55565b1015610e2a576040517f1e6f0b5400000000000000000000000000000000000000000000000000000000815260040160405180910390fd5b610e343382612100565b5050565b6000806509184e72a00083610e4d9190613c89565b90506000610e5961225f565b9050610e78670de0b6b3a764000083610e729190613c89565b826122fc565b92505050919050565b600080610e8c61232d565b90506000610e9861225f565b9050610eb7670de0b6b3a764000083610eb19190613c89565b826122fc565b9250505090565b606060038054610ecd90613cfa565b80601f0160208091040260200160405190810160405280929190818152602001828054610ef990613cfa565b8015610f465780601f10610f1b57610100808354040283529160200191610f46565b820191906000526020600020905b815481529060010190602001808311610f2957829003601f168201915b5050505050905090565b6000610f64610f5d6123ca565b84846123d2565b6001905092915050565b6000806509184e72a00083610f839190613c89565b90506000610f8f61232d565b9050610fae670de0b6b3a764000083610fa89190613c89565b826122fc565b92505050919050565b6000600254905090565b60085481565b6000610fd484848461259b565b6000600160008673ffffffffffffffffffffffffffffffffffffffff1673ffffffffffffffffffffffffffffffffffffffff168152602001908152602001600020600061101f6123ca565b73ffffffffffffffffffffffffffffffffffffffff1673ffffffffffffffffffffffffffffffffffffffff1681526020019081526020016000205490508281101561109f576040517f08c379a000000000000000000000000000000000000000000000000000000000815260040161109690613d9d565b60405180910390fd5b6110b3856110ab6123ca565b8584036123d2565b60019150509392505050565b6000806110ca61225f565b905060006110d661281a565b90506110f5670de0b6b3a7640000836110ef9190613c89565b826122fc565b9250505090565b60008061110761232d565b905060006111136128b7565b9050611132670de0b6b3a76400008361112c9190613c89565b826122fc565b9250505090565b60075481565b60006012905090565b60095481565b60006111586123ca565b73ffffffffffffffffffffffffffffffffffffffff16611176611989565b73ffffffffffffffffffffffffffffffffffffffff16146111cc576040517f08c379a00000000000000000000000000000000000000000000000000000000081526004016111c390613e09565b60405180910390fd5b6111d582612954565b9050919050565b6000600754826111ec9190613c89565b3411611224576040517f99956c4600000000000000000000000000000000000000000000000000000000815260040160405180910390fd5b6000670de0b6b3a76400008361123a9190613c89565b60085460095461124a9190613c55565b6112549190613c55565b101561128c576040517f1e6f0b5400000000000000000000000000000000000000000000000000000000815260040160405180910390fd5b6112a933670de0b6b3a7640000846112a49190613c89565b612100565b600754826112b79190613c89565b9050919050565b60006113606112cb6123ca565b8484600160006112d96123ca565b73ffffffffffffffffffffffffffffffffffffffff1673ffffffffffffffffffffffffffffffffffffffff16815260200190815260200160002060008873ffffffffffffffffffffffffffffffffffffffff1673ffffffffffffffffffffffffffffffffffffffff1681526020019081526020016000205461135b9190613e29565b6123d2565b6001905092915050565b60001515600b60009054906101000a900460ff161515036113b7576040517ffebe7e1900000000000000000000000000000000000000000000000000000000815260040160405180910390fd5b6113c13382613182565b50565b60006113ce61225f565b905090565b6000806113de61232d565b905060006113ea61281a565b9050611409670de0b6b3a7640000836114039190613c89565b826122fc565b9250505090565b6000600660009054906101000a900473ffffffffffffffffffffffffffffffffffffffff1673ffffffffffffffffffffffffffffffffffffffff16634a2ad99f84846040518363ffffffff1660e01b815260040161146f929190613e5d565b6020604051808303816000875af115801561148e573d6000803e3d6000fd5b505050506040513d601f19601f820116820180604052508101906114b29190613eb2565b905092915050565b600c80546114c790613cfa565b80601f01602080910402602001604051908101604052809291908181526020018280546114f390613cfa565b80156115405780601f1061151557610100808354040283529160200191611540565b820191906000526020600020905b81548152906001019060200180831161152357829003601f168201915b505050505081565b6000600560009054906101000a900460ff16905090565b600061156961232d565b905090565b6000611578613358565b905090565b60006115876123ca565b73ffffffffffffffffffffffffffffffffffffffff166115a5611989565b73ffffffffffffffffffffffffffffffffffffffff16146115fb576040517f08c379a00000000000000000000000000000000000000000000000000000000081526004016115f290613e09565b60405180910390fd5b8160098190559050919050565b60008060008373ffffffffffffffffffffffffffffffffffffffff1673ffffffffffffffffffffffffffffffffffffffff168152602001908152602001600020549050919050565b6116586123ca565b73ffffffffffffffffffffffffffffffffffffffff16611676611989565b73ffffffffffffffffffffffffffffffffffffffff16146116cc576040517f08c379a00000000000000000000000000000000000000000000000000000000081526004016116c390613e09565b60405180910390fd5b6116d66000613395565b565b60006116e26123ca565b73ffffffffffffffffffffffffffffffffffffffff16611700611989565b73ffffffffffffffffffffffffffffffffffffffff1614611756576040517f08c379a000000000000000000000000000000000000000000000000000000000815260040161174d90613e09565b60405180910390fd5b600b60009054906101000a900460ff1615600b60006101000a81548160ff0219169083151502179055905090565b6000611797836117926123ca565b611e05565b9050818110156117dc576040517f08c379a00000000000000000000000000000000000000000000000000000000081526004016117d390613f51565b60405180910390fd5b6117f0836117e86123ca565b8484036123d2565b6117fa8383613182565b505050565b600061180961345b565b905090565b600080662386f26fc10000836118249190613c89565b9050600061183061345b565b905061184f670de0b6b3a7640000836118499190613c89565b826122fc565b92505050919050565b6000611862613498565b905090565b60006118716123ca565b73ffffffffffffffffffffffffffffffffffffffff1661188f611989565b73ffffffffffffffffffffffffffffffffffffffff16146118e5576040517f08c379a00000000000000000000000000000000000000000000000000000000081526004016118dc90613e09565b60405180910390fd5b6118ee826134d5565b9050919050565b600080662386f26fc100008361190b9190613c89565b90506000611917613358565b9050611936670de0b6b3a7640000836119309190613c89565b826122fc565b92505050919050565b600080662386f26fc10000836119559190613c89565b90506000611961613498565b9050611980670de0b6b3a76400008361197a9190613c89565b826122fc565b92505050919050565b6000600560019054906101000a900473ffffffffffffffffffffffffffffffffffffffff16905090565b6000806119be6128b7565b905060006119ca61281a565b90506119e9670de0b6b3a7640000826119e39190613c89565b836122fc565b9250505090565b6060600480546119ff90613cfa565b80601f0160208091040260200160405190810160405280929190818152602001828054611a2b90613cfa565b8015611a785780601f10611a4d57610100808354040283529160200191611a78565b820191906000526020600020905b815481529060010190602001808311611a5b57829003601f168201915b5050505050905090565b6000611a8c61281a565b905090565b60008060016000611aa06123ca565b73ffffffffffffffffffffffffffffffffffffffff1673ffffffffffffffffffffffffffffffffffffffff16815260200190815260200160002060008573ffffffffffffffffffffffffffffffffffffffff1673ffffffffffffffffffffffffffffffffffffffff16815260200190815260200160002054905082811015611b5d576040517f08c379a0000000000000000000000000000000000000000000000000000000008152600401611b5490613fe3565b60405180910390fd5b611b71611b686123ca565b858584036123d2565b600191505092915050565b6000611b90611b896123ca565b848461259b565b6001905092915050565b600080611ba561232d565b90506000611bb161281a565b9050611bd0670de0b6b3a764000082611bca9190613c89565b836122fc565b9250505090565b6000611be16123ca565b73ffffffffffffffffffffffffffffffffffffffff16611bff611989565b73ffffffffffffffffffffffffffffffffffffffff1614611c55576040517f08c379a0000000000000000000000000000000000000000000000000000000008152600401611c4c90613e09565b60405180910390fd5b600b60019054906101000a900460ff1615600b60016101000a81548160ff0219169083151502179055905090565b600080662386f26fc1000083611c999190613c89565b90506000611ca56128b7565b9050611cc4670de0b6b3a764000083611cbe9190613c89565b826122fc565b92505050919050565b600080611cd86128b7565b90506000611ce461225f565b9050611d03670de0b6b3a764000082611cfd9190613c89565b836122fc565b9250505090565b6000611d146123ca565b73ffffffffffffffffffffffffffffffffffffffff16611d32611989565b73ffffffffffffffffffffffffffffffffffffffff1614611d88576040517f08c379a0000000000000000000000000000000000000000000000000000000008152600401611d7f90613e09565b60405180910390fd5b60001515600b60019054906101000a900460ff16151503611dd5576040517fda61c0d800000000000000000000000000000000000000000000000000000000815260040160405180910390fd5b611ddd611548565b15611def57611dea6135fc565b611df8565b611df761369e565b5b611e00611548565b905090565b6000600160008473ffffffffffffffffffffffffffffffffffffffff1673ffffffffffffffffffffffffffffffffffffffff16815260200190815260200160002060008373ffffffffffffffffffffffffffffffffffffffff1673ffffffffffffffffffffffffffffffffffffffff16815260200190815260200160002054905092915050565b6000611e966128b7565b905090565b600080611ea661225f565b90506000611eb261281a565b9050611ed1670de0b6b3a764000082611ecb9190613c89565b836122fc565b9250505090565b600080662386f26fc1000083611eee9190613c89565b90506000611efa61281a565b9050611f19670de0b6b3a764000083611f139190613c89565b826122fc565b92505050919050565b6000600660009054906101000a900473ffffffffffffffffffffffffffffffffffffffff1673ffffffffffffffffffffffffffffffffffffffff1663e9f38fc584846040518363ffffffff1660e01b8152600401611f81929190613e5d565b6020604051808303816000875af1158015611fa0573d6000803e3d6000fd5b505050506040513d601f19601f82011682018060405250810190611fc49190613eb2565b905092915050565b611fd46123ca565b73ffffffffffffffffffffffffffffffffffffffff16611ff2611989565b73ffffffffffffffffffffffffffffffffffffffff1614612048576040517f08c379a000000000000000000000000000000000000000000000000000000000815260040161203f90613e09565b60405180910390fd5b600073ffffffffffffffffffffffffffffffffffffffff168173ffffffffffffffffffffffffffffffffffffffff16036120b7576040517f08c379a00000000000000000000000000000000000000000000000000000000081526004016120ae90614075565b60405180910390fd5b6120c081613395565b50565b6000806120ce61232d565b905060006120da61225f565b90506120f9670de0b6b3a7640000826120f39190613c89565b836122fc565b9250505090565b600073ffffffffffffffffffffffffffffffffffffffff168273ffffffffffffffffffffffffffffffffffffffff160361216f576040517f08c379a0000000000000000000000000000000000000000000000000000000008152600401612166906140e1565b60405180910390fd5b61217b60008383613741565b806002600082825461218d9190613e29565b92505081905550806000808473ffffffffffffffffffffffffffffffffffffffff1673ffffffffffffffffffffffffffffffffffffffff16815260200190815260200160002060008282546121e29190613e29565b925050819055508173ffffffffffffffffffffffffffffffffffffffff16600073ffffffffffffffffffffffffffffffffffffffff167fddf252ad1be2c89b69c2b068fc378daa952ba7f163c4a11628f55a4df523b3ef836040516122479190613872565b60405180910390a361225b60008383613799565b5050565b600080600660009054906101000a900473ffffffffffffffffffffffffffffffffffffffff1673ffffffffffffffffffffffffffffffffffffffff166396722fe56040518163ffffffff1660e01b8152600401602060405180830381865afa1580156122cf573d6000803e3d6000fd5b505050506040513d601f19601f820116820180604052508101906122f39190614137565b90508091505090565b600080828461230b9190614164565b905082818561231a9190613c55565b6123249190613c24565b91505092915050565b600080600660009054906101000a900473ffffffffffffffffffffffffffffffffffffffff1673ffffffffffffffffffffffffffffffffffffffff16639a18c7956040518163ffffffff1660e01b8152600401602060405180830381865afa15801561239d573d6000803e3d6000fd5b505050506040513d601f19601f820116820180604052508101906123c19190614137565b90508091505090565b600033905090565b600073ffffffffffffffffffffffffffffffffffffffff168373ffffffffffffffffffffffffffffffffffffffff1603612441576040517f08c379a000000000000000000000000000000000000000000000000000000000815260040161243890614207565b60405180910390fd5b600073ffffffffffffffffffffffffffffffffffffffff168273ffffffffffffffffffffffffffffffffffffffff16036124b0576040517f08c379a00000000000000000000000000000000000000000000000000000000081526004016124a790614299565b60405180910390fd5b80600160008573ffffffffffffffffffffffffffffffffffffffff1673ffffffffffffffffffffffffffffffffffffffff16815260200190815260200160002060008473ffffffffffffffffffffffffffffffffffffffff1673ffffffffffffffffffffffffffffffffffffffff168152602001908152602001600020819055508173ffffffffffffffffffffffffffffffffffffffff168373ffffffffffffffffffffffffffffffffffffffff167f8c5be1e5ebec7d5bd14f71427d1e84f3dd0314c0f7b2291e5b200ac8c7c3b9258360405161258e9190613872565b60405180910390a3505050565b600073ffffffffffffffffffffffffffffffffffffffff168373ffffffffffffffffffffffffffffffffffffffff160361260a576040517f08c379a00000000000000000000000000000000000000000000000000000000081526004016126019061432b565b60405180910390fd5b600073ffffffffffffffffffffffffffffffffffffffff168273ffffffffffffffffffffffffffffffffffffffff1603612679576040517f08c379a0000000000000000000000000000000000000000000000000000000008152600401612670906143bd565b60405180910390fd5b612684838383613741565b60008060008573ffffffffffffffffffffffffffffffffffffffff1673ffffffffffffffffffffffffffffffffffffffff1681526020019081526020016000205490508181101561270a576040517f08c379a00000000000000000000000000000000000000000000000000000000081526004016127019061444f565b60405180910390fd5b8181036000808673ffffffffffffffffffffffffffffffffffffffff1673ffffffffffffffffffffffffffffffffffffffff16815260200190815260200160002081905550816000808573ffffffffffffffffffffffffffffffffffffffff1673ffffffffffffffffffffffffffffffffffffffff168152602001908152602001600020600082825461279d9190613e29565b925050819055508273ffffffffffffffffffffffffffffffffffffffff168473ffffffffffffffffffffffffffffffffffffffff167fddf252ad1be2c89b69c2b068fc378daa952ba7f163c4a11628f55a4df523b3ef846040516128019190613872565b60405180910390a3612814848484613799565b50505050565b600080600660009054906101000a900473ffffffffffffffffffffffffffffffffffffffff1673ffffffffffffffffffffffffffffffffffffffff1663414641df6040518163ffffffff1660e01b8152600401602060405180830381865afa15801561288a573d6000803e3d6000fd5b505050506040513d601f19601f820116820180604052508101906128ae9190614137565b90508091505090565b600080600660009054906101000a900473ffffffffffffffffffffffffffffffffffffffff1673ffffffffffffffffffffffffffffffffffffffff1663f2e9bd7a6040518163ffffffff1660e01b8152600401602060405180830381865afa158015612927573d6000803e3d6000fd5b505050506040513d601f19601f8201168201806040525081019061294b9190614137565b90508091505090565b6000806000600481111561296b5761296a613aca565b5b600d60009054906101000a900460ff16600481111561298d5761298c613aca565b5b03612b1b5760008173ffffffffffffffffffffffffffffffffffffffff16638d4a8ffe856040518263ffffffff1660e01b81526004016129cd9190613872565b602060405180830381865afa1580156129ea573d6000803e3d6000fd5b505050506040513d601f19601f82011682018060405250810190612a0e9190614484565b90506000811015612a4b576040517fc1a21f4e00000000000000000000000000000000000000000000000000000000815260040160405180910390fd5b6040518060600160405280600a548152602001828152602001600d60009054906101000a900460ff166004811115612a8657612a85613aca565b5b815250600e600a5481548110612a9f57612a9e6144b1565b5b9060005260206000209060030201600082015181600001556020820151816001015560408201518160020160006101000a81548160ff02191690836004811115612aec57612aeb613aca565b5b0217905550905050600a6000815480929190612b07906144e0565b91905055508060078190559250505061317d565b60016004811115612b2f57612b2e613aca565b5b600d60009054906101000a900460ff166004811115612b5157612b50613aca565b5b03612c665760008390506000811015612b96576040517fc1a21f4e00000000000000000000000000000000000000000000000000000000815260040160405180910390fd5b6040518060600160405280600a548152602001828152602001600d60009054906101000a900460ff166004811115612bd157612bd0613aca565b5b815250600e600a5481548110612bea57612be96144b1565b5b9060005260206000209060030201600082015181600001556020820151816001015560408201518160020160006101000a81548160ff02191690836004811115612c3757612c36613aca565b5b0217905550905050600a6000815480929190612c52906144e0565b91905055508060078190559250505061317d565b60026004811115612c7a57612c79613aca565b5b600d60009054906101000a900460ff166004811115612c9c57612c9b613aca565b5b03612e2a5760008173ffffffffffffffffffffffffffffffffffffffff16637afcc7a4856040518263ffffffff1660e01b8152600401612cdc9190613872565b602060405180830381865afa158015612cf9573d6000803e3d6000fd5b505050506040513d601f19601f82011682018060405250810190612d1d9190614484565b90506000811015612d5a576040517fc1a21f4e00000000000000000000000000000000000000000000000000000000815260040160405180910390fd5b6040518060600160405280600a548152602001828152602001600d60009054906101000a900460ff166004811115612d9557612d94613aca565b5b815250600e600a5481548110612dae57612dad6144b1565b5b9060005260206000209060030201600082015181600001556020820151816001015560408201518160020160006101000a81548160ff02191690836004811115612dfb57612dfa613aca565b5b0217905550905050600a6000815480929190612e16906144e0565b91905055508060078190559250505061317d565b60036004811115612e3e57612e3d613aca565b5b600d60009054906101000a900460ff166004811115612e6057612e5f613aca565b5b03612fee5760008173ffffffffffffffffffffffffffffffffffffffff166387434dcd856040518263ffffffff1660e01b8152600401612ea09190613872565b602060405180830381865afa158015612ebd573d6000803e3d6000fd5b505050506040513d601f19601f82011682018060405250810190612ee19190614484565b90506000811015612f1e576040517fc1a21f4e00000000000000000000000000000000000000000000000000000000815260040160405180910390fd5b6040518060600160405280600a548152602001828152602001600d60009054906101000a900460ff166004811115612f5957612f58613aca565b5b815250600e600a5481548110612f7257612f716144b1565b5b9060005260206000209060030201600082015181600001556020820151816001015560408201518160020160006101000a81548160ff02191690836004811115612fbf57612fbe613aca565b5b0217905550905050600a6000815480929190612fda906144e0565b91905055508060078190559250505061317d565b60048081111561300157613000613aca565b5b600d60009054906101000a900460ff16600481111561302357613022613aca565b5b036131765760008173ffffffffffffffffffffffffffffffffffffffff1663d1381f4e856040518263ffffffff1660e01b81526004016130639190613872565b602060405180830381865afa158015613080573d6000803e3d6000fd5b505050506040513d601f19601f820116820180604052508101906130a49190614484565b90506040518060600160405280600a548152602001828152602001600d60009054906101000a900460ff1660048111156130e1576130e0613aca565b5b815250600e600a54815481106130fa576130f96144b1565b5b9060005260206000209060030201600082015181600001556020820151816001015560408201518160020160006101000a81548160ff0219169083600481111561314757613146613aca565b5b0217905550905050600a6000815480929190613162906144e0565b91905055508060078190559250505061317d565b6007549150505b919050565b600073ffffffffffffffffffffffffffffffffffffffff168273ffffffffffffffffffffffffffffffffffffffff16036131f1576040517f08c379a00000000000000000000000000000000000000000000000000000000081526004016131e89061459a565b60405180910390fd5b6131fd82600083613741565b60008060008473ffffffffffffffffffffffffffffffffffffffff1673ffffffffffffffffffffffffffffffffffffffff16815260200190815260200160002054905081811015613283576040517f08c379a000000000000000000000000000000000000000000000000000000000815260040161327a9061462c565b60405180910390fd5b8181036000808573ffffffffffffffffffffffffffffffffffffffff1673ffffffffffffffffffffffffffffffffffffffff1681526020019081526020016000208190555081600260008282546132da9190613c55565b92505081905550600073ffffffffffffffffffffffffffffffffffffffff168373ffffffffffffffffffffffffffffffffffffffff167fddf252ad1be2c89b69c2b068fc378daa952ba7f163c4a11628f55a4df523b3ef8460405161333f9190613872565b60405180910390a361335383600084613799565b505050565b6000806133636128b7565b9050600061336f61225f565b905061338e670de0b6b3a7640000836133889190613c89565b826122fc565b9250505090565b6000600560019054906101000a900473ffffffffffffffffffffffffffffffffffffffff16905081600560016101000a81548173ffffffffffffffffffffffffffffffffffffffff021916908373ffffffffffffffffffffffffffffffffffffffff1602179055508173ffffffffffffffffffffffffffffffffffffffff168173ffffffffffffffffffffffffffffffffffffffff167f8be0079c531659141344cd1fd0a4f28419497f9722a3daafe3b4186f6b6457e060405160405180910390a35050565b6000806134666128b7565b9050600061347261281a565b9050613491670de0b6b3a76400008361348b9190613c89565b826122fc565b9250505090565b6000806134a36128b7565b905060006134af61232d565b90506134ce670de0b6b3a7640000836134c89190613c89565b826122fc565b9250505090565b600080820361350e576000600d60006101000a81548160ff0219169083600481111561350457613503613aca565b5b02179055506135e5565b60018203613546576001600d60006101000a81548160ff0219169083600481111561353c5761353b613aca565b5b02179055506135e4565b6002820361357e576002600d60006101000a81548160ff0219169083600481111561357457613573613aca565b5b02179055506135e3565b600382036135b6576003600d60006101000a81548160ff021916908360048111156135ac576135ab613aca565b5b02179055506135e2565b6004600d60006101000a81548160ff021916908360048111156135dc576135db613aca565b5b02179055505b5b5b5b600d60009054906101000a900460ff169050919050565b613604611548565b613643576040517f08c379a000000000000000000000000000000000000000000000000000000000815260040161363a90614698565b60405180910390fd5b6000600560006101000a81548160ff0219169083151502179055507f5db9ee0a495bf2e6ff9c91a7834c1ba4fdd244a5e8aa4e537bd38aeae4b073aa6136876123ca565b6040516136949190613b6b565b60405180910390a1565b6136a6611548565b156136e6576040517f08c379a00000000000000000000000000000000000000000000000000000000081526004016136dd90614704565b60405180910390fd5b6001600560006101000a81548160ff0219169083151502179055507f62e78cea01bee320cd4e420270b5ea74000d11b0c9f74754ebdbfc544b05a25861372a6123ca565b6040516137379190613b6b565b60405180910390a1565b613749611548565b15613789576040517f08c379a000000000000000000000000000000000000000000000000000000000815260040161378090614704565b60405180910390fd5b61379483838361379e565b505050565b505050565b6137a98383836137f6565b6137b1611548565b156137f1576040517f08c379a00000000000000000000000000000000000000000000000000000000081526004016137e890614796565b60405180910390fd5b505050565b505050565b600080fd5b6000819050919050565b61381381613800565b811461381e57600080fd5b50565b6000813590506138308161380a565b92915050565b60006020828403121561384c5761384b6137fb565b5b600061385a84828501613821565b91505092915050565b61386c81613800565b82525050565b60006020820190506138876000830184613863565b92915050565b600081519050919050565b600082825260208201905092915050565b60005b838110156138c75780820151818401526020810190506138ac565b60008484015250505050565b6000601f19601f8301169050919050565b60006138ef8261388d565b6138f98185613898565b93506139098185602086016138a9565b613912816138d3565b840191505092915050565b6000602082019050818103600083015261393781846138e4565b905092915050565b600073ffffffffffffffffffffffffffffffffffffffff82169050919050565b600061396a8261393f565b9050919050565b61397a8161395f565b811461398557600080fd5b50565b60008135905061399781613971565b92915050565b600080604083850312156139b4576139b36137fb565b5b60006139c285828601613988565b92505060206139d385828601613821565b9150509250929050565b60008115159050919050565b6139f2816139dd565b82525050565b6000602082019050613a0d60008301846139e9565b92915050565b600080600060608486031215613a2c57613a2b6137fb565b5b6000613a3a86828701613988565b9350506020613a4b86828701613988565b9250506040613a5c86828701613821565b9150509250925092565b600060ff82169050919050565b613a7c81613a66565b82525050565b6000602082019050613a976000830184613a73565b92915050565b600060208284031215613ab357613ab26137fb565b5b6000613ac184828501613988565b91505092915050565b7f4e487b7100000000000000000000000000000000000000000000000000000000600052602160045260246000fd5b60058110613b0a57613b09613aca565b5b50565b6000819050613b1b82613af9565b919050565b6000613b2b82613b0d565b9050919050565b613b3b81613b20565b82525050565b6000602082019050613b566000830184613b32565b92915050565b613b658161395f565b82525050565b6000602082019050613b806000830184613b5c565b92915050565b60008060408385031215613b9d57613b9c6137fb565b5b6000613bab85828601613988565b9250506020613bbc85828601613988565b9150509250929050565b7f4e487b7100000000000000000000000000000000000000000000000000000000600052601260045260246000fd5b7f4e487b7100000000000000000000000000000000000000000000000000000000600052601160045260246000fd5b6000613c2f82613800565b9150613c3a83613800565b925082613c4a57613c49613bc6565b5b828204905092915050565b6000613c6082613800565b9150613c6b83613800565b9250828203905081811115613c8357613c82613bf5565b5b92915050565b6000613c9482613800565b9150613c9f83613800565b9250828202613cad81613800565b91508282048414831517613cc457613cc3613bf5565b5b5092915050565b7f4e487b7100000000000000000000000000000000000000000000000000000000600052602260045260246000fd5b60006002820490506001821680613d1257607f821691505b602082108103613d2557613d24613ccb565b5b50919050565b7f45524332303a207472616e7366657220616d6f756e742065786365656473206160008201527f6c6c6f77616e6365000000000000000000000000000000000000000000000000602082015250565b6000613d87602883613898565b9150613d9282613d2b565b604082019050919050565b60006020820190508181036000830152613db681613d7a565b9050919050565b7f4f776e61626c653a2063616c6c6572206973206e6f7420746865206f776e6572600082015250565b6000613df3602083613898565b9150613dfe82613dbd565b602082019050919050565b60006020820190508181036000830152613e2281613de6565b9050919050565b6000613e3482613800565b9150613e3f83613800565b9250828201905080821115613e5757613e56613bf5565b5b92915050565b6000604082019050613e726000830185613b5c565b613e7f6020830184613863565b9392505050565b613e8f816139dd565b8114613e9a57600080fd5b50565b600081519050613eac81613e86565b92915050565b600060208284031215613ec857613ec76137fb565b5b6000613ed684828501613e9d565b91505092915050565b7f45524332303a206275726e20616d6f756e74206578636565647320616c6c6f7760008201527f616e636500000000000000000000000000000000000000000000000000000000602082015250565b6000613f3b602483613898565b9150613f4682613edf565b604082019050919050565b60006020820190508181036000830152613f6a81613f2e565b9050919050565b7f45524332303a2064656372656173656420616c6c6f77616e63652062656c6f7760008201527f207a65726f000000000000000000000000000000000000000000000000000000602082015250565b6000613fcd602583613898565b9150613fd882613f71565b604082019050919050565b60006020820190508181036000830152613ffc81613fc0565b9050919050565b7f4f776e61626c653a206e6577206f776e657220697320746865207a65726f206160008201527f6464726573730000000000000000000000000000000000000000000000000000602082015250565b600061405f602683613898565b915061406a82614003565b604082019050919050565b6000602082019050818103600083015261408e81614052565b9050919050565b7f45524332303a206d696e7420746f20746865207a65726f206164647265737300600082015250565b60006140cb601f83613898565b91506140d682614095565b602082019050919050565b600060208201905081810360008301526140fa816140be565b9050919050565b6000819050919050565b61411481614101565b811461411f57600080fd5b50565b6000815190506141318161410b565b92915050565b60006020828403121561414d5761414c6137fb565b5b600061415b84828501614122565b91505092915050565b600061416f82613800565b915061417a83613800565b92508261418a57614189613bc6565b5b828206905092915050565b7f45524332303a20617070726f76652066726f6d20746865207a65726f2061646460008201527f7265737300000000000000000000000000000000000000000000000000000000602082015250565b60006141f1602483613898565b91506141fc82614195565b604082019050919050565b60006020820190508181036000830152614220816141e4565b9050919050565b7f45524332303a20617070726f766520746f20746865207a65726f20616464726560008201527f7373000000000000000000000000000000000000000000000000000000000000602082015250565b6000614283602283613898565b915061428e82614227565b604082019050919050565b600060208201905081810360008301526142b281614276565b9050919050565b7f45524332303a207472616e736665722066726f6d20746865207a65726f20616460008201527f6472657373000000000000000000000000000000000000000000000000000000602082015250565b6000614315602583613898565b9150614320826142b9565b604082019050919050565b6000602082019050818103600083015261434481614308565b9050919050565b7f45524332303a207472616e7366657220746f20746865207a65726f206164647260008201527f6573730000000000000000000000000000000000000000000000000000000000602082015250565b60006143a7602383613898565b91506143b28261434b565b604082019050919050565b600060208201905081810360008301526143d68161439a565b9050919050565b7f45524332303a207472616e7366657220616d6f756e742065786365656473206260008201527f616c616e63650000000000000000000000000000000000000000000000000000602082015250565b6000614439602683613898565b9150614444826143dd565b604082019050919050565b600060208201905081810360008301526144688161442c565b9050919050565b60008151905061447e8161380a565b92915050565b60006020828403121561449a576144996137fb565b5b60006144a88482850161446f565b91505092915050565b7f4e487b7100000000000000000000000000000000000000000000000000000000600052603260045260246000fd5b60006144eb82613800565b91507fffffffffffffffffffffffffffffffffffffffffffffffffffffffffffffffff820361451d5761451c613bf5565b5b600182019050919050565b7f45524332303a206275726e2066726f6d20746865207a65726f2061646472657360008201527f7300000000000000000000000000000000000000000000000000000000000000602082015250565b6000614584602183613898565b915061458f82614528565b604082019050919050565b600060208201905081810360008301526145b381614577565b9050919050565b7f45524332303a206275726e20616d6f756e7420657863656564732062616c616e60008201527f6365000000000000000000000000000000000000000000000000000000000000602082015250565b6000614616602283613898565b9150614621826145ba565b604082019050919050565b6000602082019050818103600083015261464581614609565b9050919050565b7f5061757361626c653a206e6f7420706175736564000000000000000000000000600082015250565b6000614682601483613898565b915061468d8261464c565b602082019050919050565b600060208201905081810360008301526146b181614675565b9050919050565b7f5061757361626c653a2070617573656400000000000000000000000000000000600082015250565b60006146ee601083613898565b91506146f9826146b8565b602082019050919050565b6000602082019050818103600083015261471d816146e1565b9050919050565b7f45524332305061757361626c653a20746f6b656e207472616e7366657220776860008201527f696c652070617573656400000000000000000000000000000000000000000000602082015250565b6000614780602a83613898565b915061478b82614724565b604082019050919050565b600060208201905081810360008301526147af81614773565b905091905056fea26469706673582212203928b907ff3be54534b34cabe6d600c98070626e3492c5e3f90f2135056bb18864736f6c6343000811003360806040523480156200001157600080fd5b5060405162001ccc38038062001ccc8339818101604052810190620000379190620001d8565b336000806101000a81548173ffffffffffffffffffffffffffffffffffffffff021916908373ffffffffffffffffffffffffffffffffffffffff1602179055506040518060400160405280601a81526020017f4245204652455348204d5920465255495459204652454e5a202100000000000081525060039081620000bd91906200048f565b50600060018190555081600281905550620000de81620000e760201b60201c565b50505062000576565b600081600560006101000a81548173ffffffffffffffffffffffffffffffffffffffff021916908373ffffffffffffffffffffffffffffffffffffffff16021790555060019050919050565b600080fd5b6000819050919050565b6200014d8162000138565b81146200015957600080fd5b50565b6000815190506200016d8162000142565b92915050565b600073ffffffffffffffffffffffffffffffffffffffff82169050919050565b6000620001a08262000173565b9050919050565b620001b28162000193565b8114620001be57600080fd5b50565b600081519050620001d281620001a7565b92915050565b60008060408385031215620001f257620001f162000133565b5b600062000202858286016200015c565b92505060206200021585828601620001c1565b9150509250929050565b600081519050919050565b7f4e487b7100000000000000000000000000000000000000000000000000000000600052604160045260246000fd5b7f4e487b7100000000000000000000000000000000000000000000000000000000600052602260045260246000fd5b60006002820490506001821680620002a157607f821691505b602082108103620002b757620002b662000259565b5b50919050565b60008190508160005260206000209050919050565b60006020601f8301049050919050565b600082821b905092915050565b600060088302620003217fffffffffffffffffffffffffffffffffffffffffffffffffffffffffffffffff82620002e2565b6200032d8683620002e2565b95508019841693508086168417925050509392505050565b6000819050919050565b6000620003706200036a620003648462000138565b62000345565b62000138565b9050919050565b6000819050919050565b6200038c836200034f565b620003a46200039b8262000377565b848454620002ef565b825550505050565b600090565b620003bb620003ac565b620003c881848462000381565b505050565b5b81811015620003f057620003e4600082620003b1565b600181019050620003ce565b5050565b601f8211156200043f576200040981620002bd565b6200041484620002d2565b8101602085101562000424578190505b6200043c6200043385620002d2565b830182620003cd565b50505b505050565b600082821c905092915050565b6000620004646000198460080262000444565b1980831691505092915050565b60006200047f838362000451565b9150826002028217905092915050565b6200049a826200021f565b67ffffffffffffffff811115620004b657620004b56200022a565b5b620004c2825462000288565b620004cf828285620003f4565b600060209050601f831160018114620005075760008415620004f2578287015190505b620004fe858262000471565b8655506200056e565b601f1984166200051786620002bd565b60005b8281101562000541578489015182556001820191506020850194506020810190506200051a565b868310156200056157848901516200055d601f89168262000451565b8355505b6001600288020188555050505b505050505050565b61174680620005866000396000f3fe6080604052600436106100f35760003560e01c806377b3cc9a1161008a578063e21f37ce11610059578063e21f37ce14610349578063ece866b914610374578063f794062e1461039f578063f851a440146103dc576100f3565b806377b3cc9a14610286578063c4784fd4146102b1578063c85e07b9146102e1578063cc87ec5f1461030c576100f3565b8063329dd364116100c6578063329dd364146101c8578063365b98b2146101f35780633ccfd60b146102305780636ac5db191461025b576100f3565b806301c0fb4c146100f8578063161dbc14146101355780632a0c74d4146101725780632f7136551461019d575b600080fd5b34801561010457600080fd5b5061011f600480360381019061011a9190610e7d565b610407565b60405161012c9190610ec5565b60405180910390f35b34801561014157600080fd5b5061015c60048036038101906101579190611026565b610419565b6040516101699190610ec5565b60405180910390f35b34801561017e57600080fd5b506101876104c0565b60405161019491906110ee565b60405180910390f35b3480156101a957600080fd5b506101b2610552565b6040516101bf919061116f565b60405180910390f35b3480156101d457600080fd5b506101dd610578565b6040516101ea9190611236565b60405180910390f35b3480156101ff57600080fd5b5061021a60048036038101906102159190611288565b6105fb565b60405161022791906112c4565b60405180910390f35b34801561023c57600080fd5b50610245610632565b60405161025291906112ee565b60405180910390f35b34801561026757600080fd5b50610270610726565b60405161027d91906112ee565b60405180910390f35b34801561029257600080fd5b5061029b61072c565b6040516102a89190610ec5565b60405180910390f35b6102cb60048036038101906102c69190611026565b610925565b6040516102d89190610ec5565b60405180910390f35b3480156102ed57600080fd5b506102f66109d0565b60405161030391906112ee565b60405180910390f35b34801561031857600080fd5b50610333600480360381019061032e9190610e7d565b6109d6565b6040516103409190610ec5565b60405180910390f35b34801561035557600080fd5b5061035e610c19565b60405161036b91906110ee565b60405180910390f35b34801561038057600080fd5b50610389610ca7565b60405161039691906112ee565b60405180910390f35b3480156103ab57600080fd5b506103c660048036038101906103c19190610e7d565b610cad565b6040516103d39190610ec5565b60405180910390f35b3480156103e857600080fd5b506103f1610ccd565b6040516103fe91906112c4565b60405180910390f35b600061041282610cf1565b9050919050565b60003373ffffffffffffffffffffffffffffffffffffffff1660008054906101000a900473ffffffffffffffffffffffffffffffffffffffff1673ffffffffffffffffffffffffffffffffffffffff16146104a0576040517f82b4290000000000000000000000000000000000000000000000000000000000815260040160405180910390fd5b81600390816104af919061150b565b504260048190555060019050919050565b6060600380546104cf90611338565b80601f01602080910402602001604051908101604052809291908181526020018280546104fb90611338565b80156105485780601f1061051d57610100808354040283529160200191610548565b820191906000526020600020905b81548152906001019060200180831161052b57829003601f168201915b5050505050905090565b600560009054906101000a900473ffffffffffffffffffffffffffffffffffffffff1681565b610580610de7565b60076104d28060200260405190810160405280929190826104d280156105f1576020028201915b8160009054906101000a900473ffffffffffffffffffffffffffffffffffffffff1673ffffffffffffffffffffffffffffffffffffffff16815260200190600101908083116105a7575b5050505050905090565b6007816104d2811061060c57600080fd5b016000915054906101000a900473ffffffffffffffffffffffffffffffffffffffff1681565b60003373ffffffffffffffffffffffffffffffffffffffff1660008054906101000a900473ffffffffffffffffffffffffffffffffffffffff1673ffffffffffffffffffffffffffffffffffffffff16146106b9576040517f82b4290000000000000000000000000000000000000000000000000000000000815260040160405180910390fd5b60008054906101000a900473ffffffffffffffffffffffffffffffffffffffff1673ffffffffffffffffffffffffffffffffffffffff166108fc479081150290604051600060405180830381858888f1935050505015801561071f573d6000803e3d6000fd5b5047905090565b60025481565b60003360011515600660008373ffffffffffffffffffffffffffffffffffffffff1673ffffffffffffffffffffffffffffffffffffffff16815260200190815260200160002060009054906101000a900460ff161515036107b9576040517fe08ca6b000000000000000000000000000000000000000000000000000000000815260040160405180910390fd5b600254600154106107f6576040517fea5db9c500000000000000000000000000000000000000000000000000000000815260040160405180910390fd5b6001600660003373ffffffffffffffffffffffffffffffffffffffff1673ffffffffffffffffffffffffffffffffffffffff16815260200190815260200160002060006101000a81548160ff0219169083151502179055503360076001546104d28110610866576108656115dd565b5b0160006101000a81548173ffffffffffffffffffffffffffffffffffffffff021916908373ffffffffffffffffffffffffffffffffffffffff160217905550600160008154809291906108b89061163b565b9190505550600254600154036108d2576108d0610d3d565b505b600660003373ffffffffffffffffffffffffffffffffffffffff1673ffffffffffffffffffffffffffffffffffffffff16815260200190815260200160002060009054906101000a900460ff1691505090565b6000670de0b6b3a76400003411610968576040517f99956c4600000000000000000000000000000000000000000000000000000000815260040160405180910390fd5b610e106004546109789190611683565b42116109b0576040517f7cd5facc00000000000000000000000000000000000000000000000000000000815260040160405180910390fd5b81600390816109bf919061150b565b504260048190555060019050919050565b60045481565b60008160011515600660008373ffffffffffffffffffffffffffffffffffffffff1673ffffffffffffffffffffffffffffffffffffffff16815260200190815260200160002060009054906101000a900460ff16151503610a63576040517fe08ca6b000000000000000000000000000000000000000000000000000000000815260040160405180910390fd5b3373ffffffffffffffffffffffffffffffffffffffff1660008054906101000a900473ffffffffffffffffffffffffffffffffffffffff1673ffffffffffffffffffffffffffffffffffffffff1614610ae8576040517f82b4290000000000000000000000000000000000000000000000000000000000815260040160405180910390fd5b6001600660008573ffffffffffffffffffffffffffffffffffffffff1673ffffffffffffffffffffffffffffffffffffffff16815260200190815260200160002060006101000a81548160ff0219169083151502179055508260076001546104d28110610b5857610b576115dd565b5b0160006101000a81548173ffffffffffffffffffffffffffffffffffffffff021916908373ffffffffffffffffffffffffffffffffffffffff16021790555060016000815480929190610baa9061163b565b919050555060025460015403610bc457610bc2610d3d565b505b600660008473ffffffffffffffffffffffffffffffffffffffff1673ffffffffffffffffffffffffffffffffffffffff16815260200190815260200160002060009054906101000a900460ff16915050919050565b60038054610c2690611338565b80601f0160208091040260200160405190810160405280929190818152602001828054610c5290611338565b8015610c9f5780601f10610c7457610100808354040283529160200191610c9f565b820191906000526020600020905b815481529060010190602001808311610c8257829003601f168201915b505050505081565b60015481565b60066020528060005260406000206000915054906101000a900460ff1681565b60008054906101000a900473ffffffffffffffffffffffffffffffffffffffff1681565b600081600560006101000a81548173ffffffffffffffffffffffffffffffffffffffff021916908373ffffffffffffffffffffffffffffffffffffffff16021790555060019050919050565b600060025460015414610d4f57600080fd5b600560009054906101000a900473ffffffffffffffffffffffffffffffffffffffff1673ffffffffffffffffffffffffffffffffffffffff1663b524fd6f6040518163ffffffff1660e01b81526004016020604051808303816000875af1158015610dbe573d6000803e3d6000fd5b505050506040513d601f19601f82011682018060405250810190610de291906116e3565b905090565b60405180619a4001604052806104d290602082028036833780820191505090505090565b6000604051905090565b600080fd5b600080fd5b600073ffffffffffffffffffffffffffffffffffffffff82169050919050565b6000610e4a82610e1f565b9050919050565b610e5a81610e3f565b8114610e6557600080fd5b50565b600081359050610e7781610e51565b92915050565b600060208284031215610e9357610e92610e15565b5b6000610ea184828501610e68565b91505092915050565b60008115159050919050565b610ebf81610eaa565b82525050565b6000602082019050610eda6000830184610eb6565b92915050565b600080fd5b600080fd5b6000601f19601f8301169050919050565b7f4e487b7100000000000000000000000000000000000000000000000000000000600052604160045260246000fd5b610f3382610eea565b810181811067ffffffffffffffff82111715610f5257610f51610efb565b5b80604052505050565b6000610f65610e0b565b9050610f718282610f2a565b919050565b600067ffffffffffffffff821115610f9157610f90610efb565b5b610f9a82610eea565b9050602081019050919050565b82818337600083830152505050565b6000610fc9610fc484610f76565b610f5b565b905082815260208101848484011115610fe557610fe4610ee5565b5b610ff0848285610fa7565b509392505050565b600082601f83011261100d5761100c610ee0565b5b813561101d848260208601610fb6565b91505092915050565b60006020828403121561103c5761103b610e15565b5b600082013567ffffffffffffffff81111561105a57611059610e1a565b5b61106684828501610ff8565b91505092915050565b600081519050919050565b600082825260208201905092915050565b60005b838110156110a957808201518184015260208101905061108e565b60008484015250505050565b60006110c08261106f565b6110ca818561107a565b93506110da81856020860161108b565b6110e381610eea565b840191505092915050565b6000602082019050818103600083015261110881846110b5565b905092915050565b6000819050919050565b600061113561113061112b84610e1f565b611110565b610e1f565b9050919050565b60006111478261111a565b9050919050565b60006111598261113c565b9050919050565b6111698161114e565b82525050565b60006020820190506111846000830184611160565b92915050565b60006104d29050919050565b600081905092915050565b6000819050919050565b6111b481610e3f565b82525050565b60006111c683836111ab565b60208301905092915050565b6000602082019050919050565b6111e88161118a565b6111f28184611196565b92506111fd826111a1565b8060005b8381101561122e57815161121587826111ba565b9650611220836111d2565b925050600181019050611201565b505050505050565b6000619a408201905061124c60008301846111df565b92915050565b6000819050919050565b61126581611252565b811461127057600080fd5b50565b6000813590506112828161125c565b92915050565b60006020828403121561129e5761129d610e15565b5b60006112ac84828501611273565b91505092915050565b6112be81610e3f565b82525050565b60006020820190506112d960008301846112b5565b92915050565b6112e881611252565b82525050565b600060208201905061130360008301846112df565b92915050565b7f4e487b7100000000000000000000000000000000000000000000000000000000600052602260045260246000fd5b6000600282049050600182168061135057607f821691505b60208210810361136357611362611309565b5b50919050565b60008190508160005260206000209050919050565b60006020601f8301049050919050565b600082821b905092915050565b6000600883026113cb7fffffffffffffffffffffffffffffffffffffffffffffffffffffffffffffffff8261138e565b6113d5868361138e565b95508019841693508086168417925050509392505050565b60006114086114036113fe84611252565b611110565b611252565b9050919050565b6000819050919050565b611422836113ed565b61143661142e8261140f565b84845461139b565b825550505050565b600090565b61144b61143e565b611456818484611419565b505050565b5b8181101561147a5761146f600082611443565b60018101905061145c565b5050565b601f8211156114bf5761149081611369565b6114998461137e565b810160208510156114a8578190505b6114bc6114b48561137e565b83018261145b565b50505b505050565b600082821c905092915050565b60006114e2600019846008026114c4565b1980831691505092915050565b60006114fb83836114d1565b9150826002028217905092915050565b6115148261106f565b67ffffffffffffffff81111561152d5761152c610efb565b5b6115378254611338565b61154282828561147e565b600060209050601f8311600181146115755760008415611563578287015190505b61156d85826114ef565b8655506115d5565b601f19841661158386611369565b60005b828110156115ab57848901518255600182019150602085019450602081019050611586565b868310156115c857848901516115c4601f8916826114d1565b8355505b6001600288020188555050505b505050505050565b7f4e487b7100000000000000000000000000000000000000000000000000000000600052603260045260246000fd5b7f4e487b7100000000000000000000000000000000000000000000000000000000600052601160045260246000fd5b600061164682611252565b91507fffffffffffffffffffffffffffffffffffffffffffffffffffffffffffffffff82036116785761167761160c565b5b600182019050919050565b600061168e82611252565b915061169983611252565b92508282019050808211156116b1576116b061160c565b5b92915050565b6116c081610eaa565b81146116cb57600080fd5b50565b6000815190506116dd816116b7565b92915050565b6000602082840312156116f9576116f8610e15565b5b6000611707848285016116ce565b9150509291505056fea26469706673582212204bdc8e6efa32998d3f202e2f788403db751fe2416997fa6c6f150573e997efe064736f6c63430008110033",
  "immutableReferences": {},
  "source": "// SPDX-License-Identifier: GPL-3.0\n// // // // // // // // // // // // // // // // // // // // // // // // // // // // // // // // // // // // // // // // // // // // // // // // // // // // // // // // // // // // //\n//\n//      WWWWWWWWWWWWWWWWWWWWWWWWWWWWWWWWWWWWWWWWWWWWWWWWWWWWWWWWWWWWWWWWWWWWWNXK0OOOOO0KXNWWWWWWWWWWWWWWWWWW\n//      WWWWWWWWWWWWWWWWWWWWWWWWWWWWWWWWWWWWWWWWWWWWWWWWWWWWWWWWWWWWWWWWXOdl;'...........,:oOXWWWWWWWWWWWWWW\n//      WWWWWWWWWWWWWWWWWWWWWWWWWWWWWWWWWWWWWWWWWWWWWWWWWWWWWWWWWWWWWXkc'. .';:clooooolc:,. .,oKWWWWWWWWWWWW\n//      WWWWWWWWWWWWWWWWWWWWWWWWWWWWWWWWWWWWWWWWWNKK0000KXXXNNNNNWWKo' .'cdk00KKKKKKKKKK00Od;. .dNWWWWWWWWWW\n//      WWWWWWWWWWWWWWWWWWWWWWWWWWWWWWWWWWWWWNOo;'.........'',,,:kx' .;dO0K0Oxlc:;;:cdk0K00K0x, .dNWWWWWWWWW\n//      WWWWWWWWWWWWWWWWWWWWWWWWWWWWWWWWWWWWO:.    .....        .,. 'd000KOo,. .'',.. .lOKK00Kd. ,KWWWWWWWWW\n//      WWWWWWWWWWWWWWWWWWWWWWWWWWWWWWWWWWW0,     :OXXX0:       .. 'xKK000l. ,xKXNNXx' .dKKK0Kx' '0WWWWWWWWW\n//      WWWWWWWWWWWWWWX0kxdooooodk0NWWWXOOx;     .oOOXWWo       .  c000000:  lXNWNX0l. ,kK00K0l. cXWWWWWWWWW\n//      WWWWWWWWWWWNOc'.          .,xXO,.            :KX:      ';. :000KK0x,  .,;,'. .:x000KOl. ,OWWWWWWWWWW\n//      WWWWWWWWWWNo.     .::'      .kx'..       ...'dNk.      lO; .:x00000Odc;,,,;cok000Oxc' .:0WWWWWWWWWWW\n//      WWWWWWWWWWK;     .dNWK;     .xWXKd.     ;OKKXWNl      .kW0;  .'cx00KKKK0000KK0kl;.  .:kNWWWWWWWWWWWW\n//      WWWWWWWWWWWOl;,;ckKKkc.     ,KWWWd.    .xWWWWW0,      :Od;. .';lx000OOkkOO0000Od:,. .c0WWWWWWWWWWWWW\n//      WWWWWWWWWWNKkoc:;,..        lNWWX:     ;KWWWWWx.      .. .,lxO00xl;'......,:dO0K00xc. .xNWWWWWWWWWWW\n//      WWWWWWWWNk;.        .      .kWWWk.     oNWWWWX:        .:x000Oo,. .;clool:'  ,x0K000d. 'OWWWWWWWWWWW\n//      WWWWWWWXl.     'cdkOo.     :XWWNl     'OWWWWWO.       .o0KKKOc. ,xKNWWWWWWXo. ,kK00K0c .oWWWWWWWWWWW\n//      WWWWWWWx.     ,ONNKx'      lKXKk'     ,OXWWX0:        ;xO0KKd. ;KWWWWWWWWWWx. ,kKK00O: .dWWWWWWWWWWW\n//      WWWWWWWd.      .,'.        .....       .cKd'.          .l0KKd. 'kNWWWWWWXOl. .d00KK0d. ,0WWWWWWWWWWW\n//      WWWWWWW0;          .,.                 .o0;            'x00K0o. .';ccc:;.. .:x0KKK0d' .xWWWWWWWWWWWW\n//      WWWWWWWWXxc;,'',:lx0N0l;,,:clooddxxddooONNOdodxxxdo;  .d000KK0Oo:,'...',;cok0KKK0x:. 'kNWWWWWWWWWWWW\n//      WWWWWWWWWWWWNNNNWWWWWWWWNNWWWWWWWWWWWWWWWWWWWWWWWWWKc  ,oO0KKK0K000OO0000K0KK0ko;. .lKWWWWWWWWWWWWWW\n//      WWWWWWWWWWWWWWWWWWWWWWWWWWWWWWWWWWWWWWWWWWWWWWWWWWWWXx,. .:ldkO00000000OOxdl:'. .;dKWWWWWWWWWWWWWWWW\n//      WWWWWWWWWWWWWWWWWWWWWWWWWWWWWWWWWWWWWWWWWWWWWWWWWWWWWWXOl,......',,,,,'......,cd0NWWWWWWWWWWWWWWWWWW\n//      WWWWWWWWWWWWWWWWWWWWWWWWWWWWWWWWWWWWWWWWWWWWWWWWWWWWWWWWWNKOxoc::;;;;;:cloxOKNWWWWWWWWWWWWWWWWWWWWWW\n//      WWWWWWWWWWWWWWWWWWWWWWWWWWWWWWWWWWWWWWWWWWWWWWWWWWWWWWWWWWWWWWWWWWWWWWWWWWWWWWWWWWWWWWWWWWWWWWWWWWWW\n//\n// // // // // // // // // // // // // // // // // // // // // // // // // // // // // // // // // // // // // // // // // // // // // // // // // // // // // // // // // // // // //\n//                                                                                                                                                                                  //\n//      @dev            ::              Aron Mauritala Ayuk                                                                                                                                          //\n//      @msg            ::              stereo@iii6.xyz                                                                                                                                   //\n//      @github         ::              @stereoIII6\n//      @twitter        ::              @stereoIII6                                                                                                                                              //\n//                                                                                                                                                                                  //\n// // // // // // // // // // // // // // // // // // // // // // // // // // // // // // // // // // // // // // // // // // // // // // // // // // // // // // // // // // // // //\n//                                                                                                                                                                                  //\n//      @dev            ::              Juan Xavier Valverde                                                                                                                                    //\n//      @msg            ::              juanxavier@iii6.xyz                                                                                                                               //\n//      @twitter        ::              @JuanXavier                                                                                                                                             //\n//      @github         ::              @JuanXavier                                                                                                                                             //\n//                                                                                                                                                                                  //                                                                                                                                                                                 //\n// // // // // // // // // // // // // // // // // // // // // // // // // // // // // // // // // // // // // // // // // // // // // // // // // // // // // // // // // // // // //\n//  *   *   *   *   *   *   *   *   *   *   *   *   *   *   *   *   *   *   *   *   *   *   *   *   *   *   *   *   *   *   *   *   *   *   *   *   *   *   *   *   *   *   *   *   //\n// // // // // // // // // // // // // // // // // // // // // // // // // // // // // // // // // // // // // // // // // // // // // // // // // // // // // // // // // // // // //\n//                                                                                                                                                                                  //\n//      @company        ::              Fractio Holding                                                                                                                                                                       //\n//      @title          ::              iii6 Coin Model                                                                                                                            //\n//      @description    ::              ERC20 Model Preset Contract                                                                                                                           //\n//      @version        ::              0.0.1                                                                                                                                       //\n//      @purpose        ::              ERC20 Model Preset                                                                                                          //\n//                                                                                                                                                                                  //\n//                                                                                                                                                                                  //\n//                                                                                                                                                                                  //\n//                                                                                                                                                                                  //\n//                                                                                                                                                                                  //\n// // // // // // // // // // // // // // // // // // // // // // // // // // // // // // // // // // // // // // // // // // // // // // // // // // // // // // // // // // // // //\n//  *   *   *   *   *   *   *   *   *   *   *   *   *   *   *   *   *   *   *   *   *   *   *   *   *   *   *   *   *   *   *   *   *   *   *   *   *   *   *   *   *   *   *   *   //\n// // // // // // // // // // // // // // // // // // // // // // // // // // // // // // // // // // // // // // // // // // // // // // // // // // // // // // // // // // // // //\n\npragma solidity ^0.8.7;\n\nimport \"../iii6utils/Assets/iii6CoinModel.sol\";\nimport \"../iii6utils/Assets/iii6DiaModel.sol\";\nimport \"../iii6utils/Misc/iii6Misc.sol\";\n\ncontract AFL8_CampaignModel is iii6DiaModel, iii6Misc {\n    iii6CoinModel public afl8;\n    uint256 FEE;\n    struct Campaign {\n        uint256 id;\n        address author;\n        uint256 start;\n        uint256 budget;\n        uint256 price;\n        uint256 actions;\n        bytes dias;\n        CampaignType ctype;\n        Status state;\n    }\n    uint256 public C_ID;\n    Campaign[] public campaigns;\n    mapping(address => uint256) campaignCount;\n    mapping(address => mapping(uint256 => Campaign)) public campaignShow;\n    mapping(uint256 => uint256) public campaignSafe;\n\n    // initialises the contract at deployment\n    constructor()\n        iii6DiaModel(\n            msg.sender,\n            \"Affiliate Campaign Asset\",\n            \"AFL8\",\n            0,\n            0,\n            \"\",\n            \"\",\n            false,\n            0,\n            0,\n            0\n        )\n    {\n        // afl8 = iii6CoinModel();\n    }\n\n    // function takes (campaign type , budget , price) and returns (actions)=>{Views,Clicks,Leads,Sales}\n    function _calcActions(\n        CampaignType _ctype,\n        uint256 _budget,\n        uint256 _price\n    ) internal pure returns (uint256 actions) {\n        if (_ctype == CampaignType.View) {\n            // VIEW CAMPAIGNS\n            require(_price >= 5 * 10**15, \":: price too low ::\");\n            actions = _budget / _price;\n        } else if (_ctype == CampaignType.Click) {\n            // CLICK CAMPAIGNS\n            require(_price >= 5 * 10**16, \":: price too low ::\");\n            actions = _budget / _price;\n        } else if (_ctype == CampaignType.Lead) {\n            // LEAD CAMPAIGNS\n            require(_price >= 5 * 10**17, \":: price too low ::\");\n            actions = _budget / _price;\n        } else if (_ctype == CampaignType.Sale) {\n            // SALE CAMPAIGNS\n            require(_price >= 5 * 10**18, \":: price too low ::\");\n            actions = _budget / _price;\n        } else {\n            // ERROR FALLBACK\n            actions = 0;\n        }\n    }\n\n    // function makes a new Campaign from input() and mints a campaign token\n    function _makeCampaign(\n        uint256 _start,\n        uint256 _budget,\n        uint256 _price,\n        uint256 _actions,\n        string memory _dias,\n        CampaignType _ctype,\n        Status _state\n    ) internal returns (bool) {\n        // Write Struct to Array & Mapping\n        campaigns.push(\n            Campaign(\n                C_ID,\n                msg.sender,\n                _start,\n                _budget,\n                _price,\n                _actions,\n                bytes(_dias),\n                _ctype,\n                _state\n            )\n        );\n        campaignShow[msg.sender][campaignCount[msg.sender]] = campaigns[C_ID];\n        // Iterate\n        campaignCount[msg.sender]++;\n        _mint(msg.sender, C_ID);\n        C_ID++;\n        // Exit\n        return true;\n    }\n\n    // function pauses campaign\n    function _pauseCampaign(uint256 _cid) internal returns (bool) {\n        // get campaign data\n        Campaign memory campaign = campaigns[_cid];\n        // set campaign status\n        campaign.state = Status.Paused;\n        // write new state to campaign\n        campaigns[_cid] = campaign;\n        // exit with bool\n        return false;\n    }\n\n    // function starts campaign\n    function _startCampaign(uint256 _cid) internal returns (bool) {\n        // get campaign data\n        Campaign memory campaign = campaigns[_cid];\n        // set campaign status\n        campaign.state = Status.Active;\n        // write new state to campaign\n        campaigns[_cid] = campaign;\n        // exit with bool\n        return true;\n    }\n\n    // function starts campaign\n    function _endCampaign(uint256 _cid) internal returns (bool) {\n        // get campaign data\n        Campaign memory campaign = campaigns[_cid];\n        // set campaign status\n        campaign.state = Status.Ended;\n        // write new state to campaign\n        campaigns[_cid] = campaign;\n        // exit with bool\n        return true;\n    }\n\n    // function handles payment and calls make campaign\n    function createCampaign(\n        uint256 _start,\n        uint256 _budget,\n        uint256 _price,\n        string memory _dias,\n        uint256 _ctype\n    ) external returns (bool) {\n        // check fund availability\n        uint256 checksum = (5 * 10**18) + _budget;\n        require(\n            afl8.balanceOf(msg.sender) >= checksum,\n            \":: insufficient funds ::\"\n        );\n        // Translate Campaign Type to ENUM\n        CampaignType ctyp;\n        if (_ctype == 0) {\n            ctyp = CampaignType.View;\n        } else if (_ctype == 1) {\n            ctyp = CampaignType.Click;\n        } else if (_ctype == 2) {\n            ctyp = CampaignType.Lead;\n        } else if (_ctype == 3) {\n            ctyp = CampaignType.Sale;\n        } else {\n            ctyp = CampaignType.Inactive;\n        }\n        // Calculate Action Count from Input\n        uint256 actions = _calcActions(ctyp, _budget, _price);\n        require(actions != 0, \":: not enough budget ::\");\n        // Check Timing & Set Status ENUM\n        Status stat = Status.Pending;\n        if (_start < block.timestamp) {\n            stat = Status.Active;\n        }\n        // Transfer funds from user to contract\n        afl8.transferFrom(msg.sender, address(this), checksum);\n        // create Campaign Token\n        return\n            _makeCampaign(_start, _budget, _price, actions, _dias, ctyp, stat);\n    }\n\n    // function changes campaign state\n    function changeState(uint256 _cid, bool _quit) external returns (bool) {\n        // get campaign data\n        Campaign memory campaign = campaigns[_cid];\n        // check if campaign is started or ended\n        if (_quit) {\n            return _endCampaign(_cid);\n        }\n        if (\n            campaign.start < block.timestamp && campaign.state != Status.Ended\n        ) {\n            // check campaign state\n            if (\n                campaign.state == Status.Pending ||\n                campaign.state == Status.Paused\n            ) {\n                // exit set to active\n                return _startCampaign(_cid);\n            } else {\n                // exit set to paused\n                return _pauseCampaign(_cid);\n            }\n        }\n        // exit with bool\n        else return false;\n    }\n}\n",
  "sourcePath": "/Users/iii6/Documents/GitHub/III6Dojo/contracts/afl8Projects/afl8ProjectModel.sol",
  "compiler": {
    "name": "solc",
    "version": "0.8.17+commit.8df45f5f.Emscripten.clang"
  },
  "schemaVersion": "3.4.8",
  "updatedAt": "2022-12-14T21:28:12.996Z",
  "devdoc": {
    "kind": "dev",
    "methods": {
      "approve(address,uint256)": {
        "details": "See {IERC721-approve}."
      },
      "balanceOf(address)": {
        "details": "See {IERC721-balanceOf}."
      },
      "getApproved(uint256)": {
        "details": "See {IERC721-getApproved}."
      },
      "isApprovedForAll(address,address)": {
        "details": "See {IERC721-isApprovedForAll}."
      },
      "name()": {
        "details": "See {IERC721Metadata-name}."
      },
      "ownerOf(uint256)": {
        "details": "See {IERC721-ownerOf}."
      },
      "safeTransferFrom(address,address,uint256)": {
        "details": "See {IERC721-safeTransferFrom}."
      },
      "safeTransferFrom(address,address,uint256,bytes)": {
        "details": "See {IERC721-safeTransferFrom}."
      },
      "setApprovalForAll(address,bool)": {
        "details": "See {IERC721-setApprovalForAll}."
      },
      "supportsInterface(bytes4)": {
        "details": "See {IERC165-supportsInterface}."
      },
      "symbol()": {
        "details": "See {IERC721Metadata-symbol}."
      },
      "tokenURI(uint256)": {
        "details": "See {IERC721Metadata-tokenURI}."
      },
      "transferFrom(address,address,uint256)": {
        "details": "See {IERC721-transferFrom}."
      }
    },
    "version": 1
  },
  "userdoc": {
    "kind": "user",
    "methods": {},
    "version": 1
  }
}