{
  "contractName": "AFL8_CampaignModel",
  "abi": [
    {
      "inputs": [],
      "stateMutability": "nonpayable",
      "type": "constructor"
    },
    {
      "inputs": [],
      "name": "All_Slots_Taken",
      "type": "error"
    },
    {
      "inputs": [],
      "name": "Already_Listed",
      "type": "error"
    },
    {
      "inputs": [],
      "name": "Array_Length_Mismatch",
      "type": "error"
    },
    {
      "inputs": [],
      "name": "Event_Has_Ended",
      "type": "error"
    },
    {
      "inputs": [],
      "name": "Greenlist_Expired",
      "type": "error"
    },
    {
      "inputs": [],
      "name": "Insufficient_Amount",
      "type": "error"
    },
    {
      "inputs": [],
      "name": "Insufficient_Balance",
      "type": "error"
    },
    {
      "inputs": [],
      "name": "Insufficient_Funds",
      "type": "error"
    },
    {
      "inputs": [],
      "name": "Insufficient_MLQ",
      "type": "error"
    },
    {
      "inputs": [],
      "name": "Insufficient_Supply",
      "type": "error"
    },
    {
      "inputs": [],
      "name": "Invalid_Amount",
      "type": "error"
    },
    {
      "inputs": [],
      "name": "Invalid_Response",
      "type": "error"
    },
    {
      "inputs": [],
      "name": "Max_Tokens_Minted",
      "type": "error"
    },
    {
      "inputs": [],
      "name": "Min_Requirements_Not_Met",
      "type": "error"
    },
    {
      "inputs": [],
      "name": "Mint_In_Progress",
      "type": "error"
    },
    {
      "inputs": [],
      "name": "Mint_Is_Not_Yet_Live",
      "type": "error"
    },
    {
      "inputs": [],
      "name": "Not_Burnable",
      "type": "error"
    },
    {
      "inputs": [],
      "name": "Not_Friends",
      "type": "error"
    },
    {
      "inputs": [],
      "name": "Not_Friends_Rev",
      "type": "error"
    },
    {
      "inputs": [],
      "name": "Not_Greenlisted",
      "type": "error"
    },
    {
      "inputs": [],
      "name": "Not_Pausable",
      "type": "error"
    },
    {
      "inputs": [],
      "name": "Sold_Out",
      "type": "error"
    },
    {
      "inputs": [],
      "name": "Unauthorized",
      "type": "error"
    },
    {
      "inputs": [],
      "name": "You_Are_Not_The_Holder",
      "type": "error"
    },
    {
      "inputs": [],
      "name": "You_Need_To_Wait",
      "type": "error"
    },
    {
      "anonymous": false,
      "inputs": [
        {
          "indexed": false,
          "internalType": "uint256",
          "name": "TX",
          "type": "uint256"
        },
        {
          "indexed": false,
          "internalType": "address",
          "name": "ACTOR",
          "type": "address"
        },
        {
          "indexed": false,
          "internalType": "string",
          "name": "ACTION",
          "type": "string"
        },
        {
          "indexed": false,
          "internalType": "address",
          "name": "REL",
          "type": "address"
        },
        {
          "indexed": false,
          "internalType": "uint256",
          "name": "DATE",
          "type": "uint256"
        }
      ],
      "name": "ACTION_Log",
      "type": "event"
    },
    {
      "anonymous": false,
      "inputs": [
        {
          "indexed": true,
          "internalType": "address",
          "name": "owner",
          "type": "address"
        },
        {
          "indexed": true,
          "internalType": "address",
          "name": "approved",
          "type": "address"
        },
        {
          "indexed": true,
          "internalType": "uint256",
          "name": "tokenId",
          "type": "uint256"
        }
      ],
      "name": "Approval",
      "type": "event"
    },
    {
      "anonymous": false,
      "inputs": [
        {
          "indexed": true,
          "internalType": "address",
          "name": "owner",
          "type": "address"
        },
        {
          "indexed": true,
          "internalType": "address",
          "name": "operator",
          "type": "address"
        },
        {
          "indexed": false,
          "internalType": "bool",
          "name": "approved",
          "type": "bool"
        }
      ],
      "name": "ApprovalForAll",
      "type": "event"
    },
    {
      "anonymous": false,
      "inputs": [
        {
          "indexed": false,
          "internalType": "uint256",
          "name": "TX",
          "type": "uint256"
        },
        {
          "indexed": false,
          "internalType": "address",
          "name": "ACTOR",
          "type": "address"
        },
        {
          "indexed": false,
          "internalType": "string",
          "name": "ERROR",
          "type": "string"
        },
        {
          "indexed": false,
          "internalType": "uint256",
          "name": "DATE",
          "type": "uint256"
        }
      ],
      "name": "ERR_Log",
      "type": "event"
    },
    {
      "anonymous": false,
      "inputs": [
        {
          "indexed": false,
          "internalType": "uint256",
          "name": "TX",
          "type": "uint256"
        },
        {
          "indexed": false,
          "internalType": "address",
          "name": "TRUSTEE",
          "type": "address"
        },
        {
          "indexed": false,
          "internalType": "uint256",
          "name": "AMNT",
          "type": "uint256"
        },
        {
          "indexed": false,
          "internalType": "uint256",
          "name": "DATE",
          "type": "uint256"
        }
      ],
      "name": "TX_Log",
      "type": "event"
    },
    {
      "anonymous": false,
      "inputs": [
        {
          "indexed": true,
          "internalType": "address",
          "name": "from",
          "type": "address"
        },
        {
          "indexed": true,
          "internalType": "address",
          "name": "to",
          "type": "address"
        },
        {
          "indexed": true,
          "internalType": "uint256",
          "name": "tokenId",
          "type": "uint256"
        }
      ],
      "name": "Transfer",
      "type": "event"
    },
    {
      "inputs": [],
      "name": "C_ID",
      "outputs": [
        {
          "internalType": "uint256",
          "name": "",
          "type": "uint256"
        }
      ],
      "stateMutability": "view",
      "type": "function"
    },
    {
      "inputs": [],
      "name": "afl8",
      "outputs": [
        {
          "internalType": "contract iii6CoinModel",
          "name": "",
          "type": "address"
        }
      ],
      "stateMutability": "view",
      "type": "function"
    },
    {
      "inputs": [
        {
          "internalType": "address",
          "name": "to",
          "type": "address"
        },
        {
          "internalType": "uint256",
          "name": "tokenId",
          "type": "uint256"
        }
      ],
      "name": "approve",
      "outputs": [],
      "stateMutability": "nonpayable",
      "type": "function"
    },
    {
      "inputs": [
        {
          "internalType": "address",
          "name": "owner",
          "type": "address"
        }
      ],
      "name": "balanceOf",
      "outputs": [
        {
          "internalType": "uint256",
          "name": "",
          "type": "uint256"
        }
      ],
      "stateMutability": "view",
      "type": "function"
    },
    {
      "inputs": [
        {
          "internalType": "uint256",
          "name": "",
          "type": "uint256"
        }
      ],
      "name": "campaignSafe",
      "outputs": [
        {
          "internalType": "uint256",
          "name": "",
          "type": "uint256"
        }
      ],
      "stateMutability": "view",
      "type": "function"
    },
    {
      "inputs": [
        {
          "internalType": "address",
          "name": "",
          "type": "address"
        },
        {
          "internalType": "uint256",
          "name": "",
          "type": "uint256"
        }
      ],
      "name": "campaignShow",
      "outputs": [
        {
          "internalType": "uint256",
          "name": "id",
          "type": "uint256"
        },
        {
          "internalType": "address",
          "name": "author",
          "type": "address"
        },
        {
          "internalType": "uint256",
          "name": "start",
          "type": "uint256"
        },
        {
          "internalType": "uint256",
          "name": "budget",
          "type": "uint256"
        },
        {
          "internalType": "uint256",
          "name": "price",
          "type": "uint256"
        },
        {
          "internalType": "uint256",
          "name": "actions",
          "type": "uint256"
        },
        {
          "internalType": "bytes",
          "name": "dias",
          "type": "bytes"
        },
        {
          "internalType": "enum iii6Misc.CampaignType",
          "name": "ctype",
          "type": "uint8"
        },
        {
          "internalType": "enum iii6Misc.Status",
          "name": "state",
          "type": "uint8"
        }
      ],
      "stateMutability": "view",
      "type": "function"
    },
    {
      "inputs": [
        {
          "internalType": "uint256",
          "name": "",
          "type": "uint256"
        }
      ],
      "name": "campaigns",
      "outputs": [
        {
          "internalType": "uint256",
          "name": "id",
          "type": "uint256"
        },
        {
          "internalType": "address",
          "name": "author",
          "type": "address"
        },
        {
          "internalType": "uint256",
          "name": "start",
          "type": "uint256"
        },
        {
          "internalType": "uint256",
          "name": "budget",
          "type": "uint256"
        },
        {
          "internalType": "uint256",
          "name": "price",
          "type": "uint256"
        },
        {
          "internalType": "uint256",
          "name": "actions",
          "type": "uint256"
        },
        {
          "internalType": "bytes",
          "name": "dias",
          "type": "bytes"
        },
        {
          "internalType": "enum iii6Misc.CampaignType",
          "name": "ctype",
          "type": "uint8"
        },
        {
          "internalType": "enum iii6Misc.Status",
          "name": "state",
          "type": "uint8"
        }
      ],
      "stateMutability": "view",
      "type": "function"
    },
    {
      "inputs": [],
      "name": "changeMintState",
      "outputs": [
        {
          "internalType": "bool",
          "name": "",
          "type": "bool"
        }
      ],
      "stateMutability": "nonpayable",
      "type": "function"
    },
    {
      "inputs": [
        {
          "internalType": "uint256",
          "name": "",
          "type": "uint256"
        }
      ],
      "name": "dias",
      "outputs": [
        {
          "internalType": "bytes",
          "name": "",
          "type": "bytes"
        }
      ],
      "stateMutability": "view",
      "type": "function"
    },
    {
      "inputs": [
        {
          "internalType": "uint256",
          "name": "tokenId",
          "type": "uint256"
        }
      ],
      "name": "getApproved",
      "outputs": [
        {
          "internalType": "address",
          "name": "",
          "type": "address"
        }
      ],
      "stateMutability": "view",
      "type": "function"
    },
    {
      "inputs": [
        {
          "internalType": "uint256",
          "name": "count",
          "type": "uint256"
        }
      ],
      "name": "grabIds",
      "outputs": [
        {
          "internalType": "uint256",
          "name": "ids",
          "type": "uint256"
        }
      ],
      "stateMutability": "view",
      "type": "function"
    },
    {
      "inputs": [
        {
          "internalType": "uint256",
          "name": "_id",
          "type": "uint256"
        }
      ],
      "name": "holder",
      "outputs": [
        {
          "internalType": "address",
          "name": "",
          "type": "address"
        }
      ],
      "stateMutability": "view",
      "type": "function"
    },
    {
      "inputs": [
        {
          "internalType": "address",
          "name": "owner",
          "type": "address"
        },
        {
          "internalType": "address",
          "name": "operator",
          "type": "address"
        }
      ],
      "name": "isApprovedForAll",
      "outputs": [
        {
          "internalType": "bool",
          "name": "",
          "type": "bool"
        }
      ],
      "stateMutability": "view",
      "type": "function"
    },
    {
      "inputs": [
        {
          "internalType": "address",
          "name": "_adr",
          "type": "address"
        }
      ],
      "name": "isOwner",
      "outputs": [
        {
          "internalType": "bool",
          "name": "",
          "type": "bool"
        }
      ],
      "stateMutability": "view",
      "type": "function"
    },
    {
      "inputs": [],
      "name": "max",
      "outputs": [
        {
          "internalType": "uint256",
          "name": "",
          "type": "uint256"
        }
      ],
      "stateMutability": "view",
      "type": "function"
    },
    {
      "inputs": [
        {
          "internalType": "uint256",
          "name": "_amnt",
          "type": "uint256"
        }
      ],
      "name": "mint",
      "outputs": [
        {
          "internalType": "uint256",
          "name": "",
          "type": "uint256"
        }
      ],
      "stateMutability": "payable",
      "type": "function"
    },
    {
      "inputs": [],
      "name": "minted",
      "outputs": [
        {
          "internalType": "uint256",
          "name": "",
          "type": "uint256"
        }
      ],
      "stateMutability": "view",
      "type": "function"
    },
    {
      "inputs": [],
      "name": "nam",
      "outputs": [
        {
          "internalType": "string",
          "name": "",
          "type": "string"
        }
      ],
      "stateMutability": "view",
      "type": "function"
    },
    {
      "inputs": [],
      "name": "name",
      "outputs": [
        {
          "internalType": "string",
          "name": "",
          "type": "string"
        }
      ],
      "stateMutability": "view",
      "type": "function"
    },
    {
      "inputs": [
        {
          "internalType": "address",
          "name": "",
          "type": "address"
        }
      ],
      "name": "nftCount",
      "outputs": [
        {
          "internalType": "uint256",
          "name": "",
          "type": "uint256"
        }
      ],
      "stateMutability": "view",
      "type": "function"
    },
    {
      "inputs": [
        {
          "internalType": "address",
          "name": "",
          "type": "address"
        },
        {
          "internalType": "uint256",
          "name": "",
          "type": "uint256"
        }
      ],
      "name": "ntfIdByCount",
      "outputs": [
        {
          "internalType": "uint256",
          "name": "",
          "type": "uint256"
        }
      ],
      "stateMutability": "view",
      "type": "function"
    },
    {
      "inputs": [],
      "name": "owner",
      "outputs": [
        {
          "internalType": "address",
          "name": "",
          "type": "address"
        }
      ],
      "stateMutability": "view",
      "type": "function"
    },
    {
      "inputs": [
        {
          "internalType": "uint256",
          "name": "tokenId",
          "type": "uint256"
        }
      ],
      "name": "ownerOf",
      "outputs": [
        {
          "internalType": "address",
          "name": "",
          "type": "address"
        }
      ],
      "stateMutability": "view",
      "type": "function"
    },
    {
      "inputs": [],
      "name": "price",
      "outputs": [
        {
          "internalType": "uint256",
          "name": "",
          "type": "uint256"
        }
      ],
      "stateMutability": "view",
      "type": "function"
    },
    {
      "inputs": [
        {
          "internalType": "address",
          "name": "from",
          "type": "address"
        },
        {
          "internalType": "address",
          "name": "to",
          "type": "address"
        },
        {
          "internalType": "uint256",
          "name": "tokenId",
          "type": "uint256"
        }
      ],
      "name": "safeTransferFrom",
      "outputs": [],
      "stateMutability": "nonpayable",
      "type": "function"
    },
    {
      "inputs": [
        {
          "internalType": "address",
          "name": "from",
          "type": "address"
        },
        {
          "internalType": "address",
          "name": "to",
          "type": "address"
        },
        {
          "internalType": "uint256",
          "name": "tokenId",
          "type": "uint256"
        },
        {
          "internalType": "bytes",
          "name": "_data",
          "type": "bytes"
        }
      ],
      "name": "safeTransferFrom",
      "outputs": [],
      "stateMutability": "nonpayable",
      "type": "function"
    },
    {
      "inputs": [
        {
          "internalType": "address",
          "name": "operator",
          "type": "address"
        },
        {
          "internalType": "bool",
          "name": "approved",
          "type": "bool"
        }
      ],
      "name": "setApprovalForAll",
      "outputs": [],
      "stateMutability": "nonpayable",
      "type": "function"
    },
    {
      "inputs": [],
      "name": "start",
      "outputs": [
        {
          "internalType": "bool",
          "name": "",
          "type": "bool"
        }
      ],
      "stateMutability": "view",
      "type": "function"
    },
    {
      "inputs": [
        {
          "internalType": "bytes4",
          "name": "interfaceId",
          "type": "bytes4"
        }
      ],
      "name": "supportsInterface",
      "outputs": [
        {
          "internalType": "bool",
          "name": "",
          "type": "bool"
        }
      ],
      "stateMutability": "view",
      "type": "function"
    },
    {
      "inputs": [],
      "name": "sym",
      "outputs": [
        {
          "internalType": "string",
          "name": "",
          "type": "string"
        }
      ],
      "stateMutability": "view",
      "type": "function"
    },
    {
      "inputs": [],
      "name": "symbol",
      "outputs": [
        {
          "internalType": "string",
          "name": "",
          "type": "string"
        }
      ],
      "stateMutability": "view",
      "type": "function"
    },
    {
      "inputs": [
        {
          "internalType": "uint256",
          "name": "tokenId",
          "type": "uint256"
        }
      ],
      "name": "tokenURI",
      "outputs": [
        {
          "internalType": "string",
          "name": "",
          "type": "string"
        }
      ],
      "stateMutability": "view",
      "type": "function"
    },
    {
      "inputs": [
        {
          "internalType": "address",
          "name": "from",
          "type": "address"
        },
        {
          "internalType": "address",
          "name": "to",
          "type": "address"
        },
        {
          "internalType": "uint256",
          "name": "tokenId",
          "type": "uint256"
        }
      ],
      "name": "transferFrom",
      "outputs": [],
      "stateMutability": "nonpayable",
      "type": "function"
    },
    {
      "inputs": [
        {
          "internalType": "uint256",
          "name": "_start",
          "type": "uint256"
        },
        {
          "internalType": "uint256",
          "name": "_budget",
          "type": "uint256"
        },
        {
          "internalType": "uint256",
          "name": "_price",
          "type": "uint256"
        },
        {
          "internalType": "string",
          "name": "_dias",
          "type": "string"
        },
        {
          "internalType": "uint256",
          "name": "_ctype",
          "type": "uint256"
        }
      ],
      "name": "createCampaign",
      "outputs": [
        {
          "internalType": "bool",
          "name": "",
          "type": "bool"
        }
      ],
      "stateMutability": "nonpayable",
      "type": "function"
    },
    {
      "inputs": [
        {
          "internalType": "uint256",
          "name": "_cid",
          "type": "uint256"
        },
        {
          "internalType": "bool",
          "name": "_quit",
          "type": "bool"
        }
      ],
      "name": "changeState",
      "outputs": [
        {
          "internalType": "bool",
          "name": "",
          "type": "bool"
        }
      ],
      "stateMutability": "nonpayable",
      "type": "function"
    }
  ],
  "bytecode": "0x60806040523480156200001157600080fd5b50336040518060400160405280601881526020017f416666696c696174652043616d706169676e20417373657400000000000000008152506040518060400160405280600481526020017f41464c38000000000000000000000000000000000000000000000000000000008152506000806000848481600090816200009791906200046d565b508060019081620000a991906200046d565b505050600060068190555060006007819055506000600881905550600060098190555085600a60006101000a81548173ffffffffffffffffffffffffffffffffffffffff021916908373ffffffffffffffffffffffffffffffffffffffff16021790555084600d90816200011e91906200046d565b5083600e90816200013091906200046d565b5082600c8190555066038d7ea4c68000826200014d919062000583565b6010819055506000811115620001d95780306040516200016d90620001e5565b6200017a92919062000624565b604051809103906000f08015801562000197573d6000803e3d6000fd5b50601460006101000a81548173ffffffffffffffffffffffffffffffffffffffff021916908373ffffffffffffffffffffffffffffffffffffffff1602179055505b50505050505062000651565b611ccc806200577b83390190565b600081519050919050565b7f4e487b7100000000000000000000000000000000000000000000000000000000600052604160045260246000fd5b7f4e487b7100000000000000000000000000000000000000000000000000000000600052602260045260246000fd5b600060028204905060018216806200027557607f821691505b6020821081036200028b576200028a6200022d565b5b50919050565b60008190508160005260206000209050919050565b60006020601f8301049050919050565b600082821b905092915050565b600060088302620002f57fffffffffffffffffffffffffffffffffffffffffffffffffffffffffffffffff82620002b6565b620003018683620002b6565b95508019841693508086168417925050509392505050565b6000819050919050565b6000819050919050565b60006200034e62000348620003428462000319565b62000323565b62000319565b9050919050565b6000819050919050565b6200036a836200032d565b62000382620003798262000355565b848454620002c3565b825550505050565b600090565b620003996200038a565b620003a68184846200035f565b505050565b5b81811015620003ce57620003c26000826200038f565b600181019050620003ac565b5050565b601f8211156200041d57620003e78162000291565b620003f284620002a6565b8101602085101562000402578190505b6200041a6200041185620002a6565b830182620003ab565b50505b505050565b600082821c905092915050565b6000620004426000198460080262000422565b1980831691505092915050565b60006200045d83836200042f565b9150826002028217905092915050565b6200047882620001f3565b67ffffffffffffffff811115620004945762000493620001fe565b5b620004a082546200025c565b620004ad828285620003d2565b600060209050601f831160018114620004e55760008415620004d0578287015190505b620004dc85826200044f565b8655506200054c565b601f198416620004f58662000291565b60005b828110156200051f57848901518255600182019150602085019450602081019050620004f8565b868310156200053f57848901516200053b601f8916826200042f565b8355505b6001600288020188555050505b505050505050565b7f4e487b7100000000000000000000000000000000000000000000000000000000600052601160045260246000fd5b6000620005908262000319565b91506200059d8362000319565b9250828202620005ad8162000319565b91508282048414831517620005c757620005c662000554565b5b5092915050565b620005d98162000319565b82525050565b600073ffffffffffffffffffffffffffffffffffffffff82169050919050565b60006200060c82620005df565b9050919050565b6200061e81620005ff565b82525050565b60006040820190506200063b6000830185620005ce565b6200064a602083018462000613565b9392505050565b61511a80620006616000396000f3fe6080604052600436106102045760003560e01c806383813a2811610118578063aba4759f116100a0578063be9a65551161006f578063be9a655514610808578063c87b56dd14610833578063c971ebb314610870578063d7bb9d74146108ad578063e985e9c5146108ea57610204565b8063aba4759f1461073a578063b524fd6f14610777578063b88d4fde146107a2578063ba899a2e146107cb57610204565b80639b4f589f116100e75780639b4f589f1461064e578063a035b1fe1461068b578063a0712d68146106b6578063a22cb465146106e6578063a51d8fb11461070f57610204565b806383813a28146105a25780638da5cb5b146105cd57806395d89b41146105f85780639af9bec01461062357610204565b80632f54bf6e1161019b5780636352211e1161016a5780636352211e1461047b5780636ac5db19146104b8578063705faf2d146104e357806370a08231146105285780637641a89a1461056557610204565b80632f54bf6e146103ad578063406d4d23146103ea57806342842e0e146104275780634f02c4201461045057610204565b80630f4c0134116101d75780630f4c0134146102d7578063141961bc1461031457806314e0d7c01461035957806323b872dd1461038457610204565b806301ffc9a71461020957806306fdde0314610246578063081812fc14610271578063095ea7b3146102ae575b600080fd5b34801561021557600080fd5b50610230600480360381019061022b91906137b0565b610927565b60405161023d91906137f8565b60405180910390f35b34801561025257600080fd5b5061025b610a09565b60405161026891906138a3565b60405180910390f35b34801561027d57600080fd5b50610298600480360381019061029391906138fb565b610a9b565b6040516102a59190613969565b60405180910390f35b3480156102ba57600080fd5b506102d560048036038101906102d091906139b0565b610b20565b005b3480156102e357600080fd5b506102fe60048036038101906102f991906139b0565b610c37565b60405161030b91906139ff565b60405180910390f35b34801561032057600080fd5b5061033b600480360381019061033691906138fb565b610c5c565b60405161035099989796959493929190613b2e565b60405180910390f35b34801561036557600080fd5b5061036e610d7c565b60405161037b9190613c21565b60405180910390f35b34801561039057600080fd5b506103ab60048036038101906103a69190613c3c565b610da2565b005b3480156103b957600080fd5b506103d460048036038101906103cf9190613c8f565b610e02565b6040516103e191906137f8565b60405180910390f35b3480156103f657600080fd5b50610411600480360381019061040c9190613ce8565b610e6a565b60405161041e91906137f8565b60405180910390f35b34801561043357600080fd5b5061044e60048036038101906104499190613c3c565b611119565b005b34801561045c57600080fd5b50610465611139565b60405161047291906139ff565b60405180910390f35b34801561048757600080fd5b506104a2600480360381019061049d91906138fb565b61113f565b6040516104af9190613969565b60405180910390f35b3480156104c457600080fd5b506104cd6111f0565b6040516104da91906139ff565b60405180910390f35b3480156104ef57600080fd5b5061050a600480360381019061050591906139b0565b6111f6565b60405161051f99989796959493929190613b2e565b60405180910390f35b34801561053457600080fd5b5061054f600480360381019061054a9190613c8f565b611313565b60405161055c91906139ff565b60405180910390f35b34801561057157600080fd5b5061058c60048036038101906105879190613e5d565b6113ca565b60405161059991906137f8565b60405180910390f35b3480156105ae57600080fd5b506105b7611630565b6040516105c491906138a3565b60405180910390f35b3480156105d957600080fd5b506105e26116be565b6040516105ef9190613969565b60405180910390f35b34801561060457600080fd5b5061060d6116e4565b60405161061a91906138a3565b60405180910390f35b34801561062f57600080fd5b50610638611776565b60405161064591906138a3565b60405180910390f35b34801561065a57600080fd5b50610675600480360381019061067091906138fb565b611804565b6040516106829190613ef4565b60405180910390f35b34801561069757600080fd5b506106a06118a4565b6040516106ad91906139ff565b60405180910390f35b6106d060048036038101906106cb91906138fb565b6118aa565b6040516106dd91906139ff565b60405180910390f35b3480156106f257600080fd5b5061070d60048036038101906107089190613f16565b61195f565b005b34801561071b57600080fd5b50610724611975565b60405161073191906139ff565b60405180910390f35b34801561074657600080fd5b50610761600480360381019061075c91906138fb565b61197b565b60405161076e91906139ff565b60405180910390f35b34801561078357600080fd5b5061078c6119d5565b60405161079991906137f8565b60405180910390f35b3480156107ae57600080fd5b506107c960048036038101906107c49190613ff7565b6119e4565b005b3480156107d757600080fd5b506107f260048036038101906107ed91906138fb565b611a46565b6040516107ff9190613969565b60405180910390f35b34801561081457600080fd5b5061081d611a58565b60405161082a91906137f8565b60405180910390f35b34801561083f57600080fd5b5061085a600480360381019061085591906138fb565b611a6b565b60405161086791906138a3565b60405180910390f35b34801561087c57600080fd5b5061089760048036038101906108929190613c8f565b611b12565b6040516108a491906139ff565b60405180910390f35b3480156108b957600080fd5b506108d460048036038101906108cf91906138fb565b611b2a565b6040516108e191906139ff565b60405180910390f35b3480156108f657600080fd5b50610911600480360381019061090c919061407a565b611b42565b60405161091e91906137f8565b60405180910390f35b60007f80ac58cd000000000000000000000000000000000000000000000000000000007bffffffffffffffffffffffffffffffffffffffffffffffffffffffff1916827bffffffffffffffffffffffffffffffffffffffffffffffffffffffff191614806109f257507f5b5e139f000000000000000000000000000000000000000000000000000000007bffffffffffffffffffffffffffffffffffffffffffffffffffffffff1916827bffffffffffffffffffffffffffffffffffffffffffffffffffffffff1916145b80610a025750610a0182611bd6565b5b9050919050565b606060008054610a18906140e9565b80601f0160208091040260200160405190810160405280929190818152602001828054610a44906140e9565b8015610a915780601f10610a6657610100808354040283529160200191610a91565b820191906000526020600020905b815481529060010190602001808311610a7457829003601f168201915b5050505050905090565b6000610aa682611c40565b610ae5576040517f08c379a0000000000000000000000000000000000000000000000000000000008152600401610adc9061418c565b60405180910390fd5b6004600083815260200190815260200160002060009054906101000a900473ffffffffffffffffffffffffffffffffffffffff169050919050565b6000610b2b8261113f565b90508073ffffffffffffffffffffffffffffffffffffffff168373ffffffffffffffffffffffffffffffffffffffff1603610b9b576040517f08c379a0000000000000000000000000000000000000000000000000000000008152600401610b929061421e565b60405180910390fd5b8073ffffffffffffffffffffffffffffffffffffffff16610bba611cac565b73ffffffffffffffffffffffffffffffffffffffff161480610be95750610be881610be3611cac565b611b42565b5b610c28576040517f08c379a0000000000000000000000000000000000000000000000000000000008152600401610c1f906142b0565b60405180910390fd5b610c328383611cb4565b505050565b6013602052816000526040600020602052806000526040600020600091509150505481565b60188181548110610c6c57600080fd5b90600052602060002090600802016000915090508060000154908060010160009054906101000a900473ffffffffffffffffffffffffffffffffffffffff1690806002015490806003015490806004015490806005015490806006018054610cd3906140e9565b80601f0160208091040260200160405190810160405280929190818152602001828054610cff906140e9565b8015610d4c5780601f10610d2157610100808354040283529160200191610d4c565b820191906000526020600020905b815481529060010190602001808311610d2f57829003601f168201915b5050505050908060070160009054906101000a900460ff16908060070160019054906101000a900460ff16905089565b601560009054906101000a900473ffffffffffffffffffffffffffffffffffffffff1681565b610db3610dad611cac565b82611d6d565b610df2576040517f08c379a0000000000000000000000000000000000000000000000000000000008152600401610de990614342565b60405180910390fd5b610dfd838383611e4b565b505050565b6000600a60009054906101000a900473ffffffffffffffffffffffffffffffffffffffff1673ffffffffffffffffffffffffffffffffffffffff168273ffffffffffffffffffffffffffffffffffffffff1614610e60576000610e63565b60015b9050919050565b60008060188481548110610e8157610e80614362565b5b906000526020600020906008020160405180610120016040529081600082015481526020016001820160009054906101000a900473ffffffffffffffffffffffffffffffffffffffff1673ffffffffffffffffffffffffffffffffffffffff1673ffffffffffffffffffffffffffffffffffffffff16815260200160028201548152602001600382015481526020016004820154815260200160058201548152602001600682018054610f33906140e9565b80601f0160208091040260200160405190810160405280929190818152602001828054610f5f906140e9565b8015610fac5780601f10610f8157610100808354040283529160200191610fac565b820191906000526020600020905b815481529060010190602001808311610f8f57829003601f168201915b505050505081526020016007820160009054906101000a900460ff166004811115610fda57610fd9613a6f565b5b6004811115610fec57610feb613a6f565b5b81526020016007820160019054906101000a900460ff16600381111561101557611014613a6f565b5b600381111561102757611026613a6f565b5b81525050905082156110445761103c846120a6565b915050611113565b428160400151108015611080575060038081111561106557611064613a6f565b5b816101000151600381111561107d5761107c613a6f565b5b14155b1561110d576000600381111561109957611098613a6f565b5b81610100015160038111156110b1576110b0613a6f565b5b14806110e65750600260038111156110cc576110cb613a6f565b5b81610100015160038111156110e4576110e3613a6f565b5b145b156110fc576110f4846123bb565b915050611113565b611105846126d0565b915050611113565b60009150505b92915050565b611134838383604051806020016040528060008152506119e4565b505050565b600b5481565b6000806002600084815260200190815260200160002060009054906101000a900473ffffffffffffffffffffffffffffffffffffffff169050600073ffffffffffffffffffffffffffffffffffffffff168173ffffffffffffffffffffffffffffffffffffffff16036111e7576040517f08c379a00000000000000000000000000000000000000000000000000000000081526004016111de90614403565b60405180910390fd5b80915050919050565b600c5481565b601a602052816000526040600020602052806000526040600020600091509150508060000154908060010160009054906101000a900473ffffffffffffffffffffffffffffffffffffffff169080600201549080600301549080600401549080600501549080600601805461126a906140e9565b80601f0160208091040260200160405190810160405280929190818152602001828054611296906140e9565b80156112e35780601f106112b8576101008083540402835291602001916112e3565b820191906000526020600020905b8154815290600101906020018083116112c657829003601f168201915b5050505050908060070160009054906101000a900460ff16908060070160019054906101000a900460ff16905089565b60008073ffffffffffffffffffffffffffffffffffffffff168273ffffffffffffffffffffffffffffffffffffffff1603611383576040517f08c379a000000000000000000000000000000000000000000000000000000000815260040161137a90614495565b60405180910390fd5b600360008373ffffffffffffffffffffffffffffffffffffffff1673ffffffffffffffffffffffffffffffffffffffff168152602001908152602001600020549050919050565b60008085674563918244f400006113e191906144e4565b905080601560009054906101000a900473ffffffffffffffffffffffffffffffffffffffff1673ffffffffffffffffffffffffffffffffffffffff166370a08231336040518263ffffffff1660e01b815260040161143f9190613969565b602060405180830381865afa15801561145c573d6000803e3d6000fd5b505050506040513d601f19601f82011682018060405250810190611480919061452d565b10156114c1576040517f08c379a00000000000000000000000000000000000000000000000000000000081526004016114b8906145a6565b60405180910390fd5b60008084036114d3576000905061150e565b600184036114e4576001905061150d565b600284036114f5576002905061150c565b60038403611506576003905061150b565b600490505b5b5b5b600061151b8289896129e5565b905060008103611560576040517f08c379a000000000000000000000000000000000000000000000000000000000815260040161155790614612565b60405180910390fd5b6000428a101561156f57600190505b601560009054906101000a900473ffffffffffffffffffffffffffffffffffffffff1673ffffffffffffffffffffffffffffffffffffffff166323b872dd3330876040518463ffffffff1660e01b81526004016115ce93929190614632565b6020604051808303816000875af11580156115ed573d6000803e3d6000fd5b505050506040513d601f19601f82011682018060405250810190611611919061467e565b506116218a8a8a858b8887612c1b565b94505050505095945050505050565b600e805461163d906140e9565b80601f0160208091040260200160405190810160405280929190818152602001828054611669906140e9565b80156116b65780601f1061168b576101008083540402835291602001916116b6565b820191906000526020600020905b81548152906001019060200180831161169957829003601f168201915b505050505081565b600a60009054906101000a900473ffffffffffffffffffffffffffffffffffffffff1681565b6060600180546116f3906140e9565b80601f016020809104026020016040519081016040528092919081815260200182805461171f906140e9565b801561176c5780601f106117415761010080835404028352916020019161176c565b820191906000526020600020905b81548152906001019060200180831161174f57829003601f168201915b5050505050905090565b600d8054611783906140e9565b80601f01602080910402602001604051908101604052809291908181526020018280546117af906140e9565b80156117fc5780601f106117d1576101008083540402835291602001916117fc565b820191906000526020600020905b8154815290600101906020018083116117df57829003601f168201915b505050505081565b60116020528060005260406000206000915090508054611823906140e9565b80601f016020809104026020016040519081016040528092919081815260200182805461184f906140e9565b801561189c5780601f106118715761010080835404028352916020019161189c565b820191906000526020600020905b81548152906001019060200180831161187f57829003601f168201915b505050505081565b60105481565b6000600c54600b541015806118ce5750600c5482600b546118cb91906144e4565b10155b15611905576040517f064a6c4100000000000000000000000000000000000000000000000000000000815260040160405180910390fd5b8160105461191391906146ab565b341061194b576040517fefc60c1400000000000000000000000000000000000000000000000000000000815260040160405180910390fd5b6119548261301c565b50600b549050919050565b61197161196a611cac565b8383613069565b5050565b60175481565b6000601360003373ffffffffffffffffffffffffffffffffffffffff1673ffffffffffffffffffffffffffffffffffffffff1681526020019081526020016000206000838152602001908152602001600020549050919050565b60006119df6131d5565b905090565b6119f56119ef611cac565b83611d6d565b611a34576040517f08c379a0000000000000000000000000000000000000000000000000000000008152600401611a2b90614342565b60405180910390fd5b611a4084848484613205565b50505050565b6000611a518261113f565b9050919050565b600f60009054906101000a900460ff1681565b6060611a7682611c40565b611ab5576040517f08c379a0000000000000000000000000000000000000000000000000000000008152600401611aac9061475f565b60405180910390fd5b6000611abf613261565b90506000815111611adf5760405180602001604052806000815250611b0a565b80611ae984613278565b604051602001611afa9291906147bb565b6040516020818303038152906040525b915050919050565b60126020528060005260406000206000915090505481565b601b6020528060005260406000206000915090505481565b6000600560008473ffffffffffffffffffffffffffffffffffffffff1673ffffffffffffffffffffffffffffffffffffffff16815260200190815260200160002060008373ffffffffffffffffffffffffffffffffffffffff1673ffffffffffffffffffffffffffffffffffffffff16815260200190815260200160002060009054906101000a900460ff16905092915050565b60007f01ffc9a7000000000000000000000000000000000000000000000000000000007bffffffffffffffffffffffffffffffffffffffffffffffffffffffff1916827bffffffffffffffffffffffffffffffffffffffffffffffffffffffff1916149050919050565b60008073ffffffffffffffffffffffffffffffffffffffff166002600084815260200190815260200160002060009054906101000a900473ffffffffffffffffffffffffffffffffffffffff1673ffffffffffffffffffffffffffffffffffffffff1614159050919050565b600033905090565b816004600083815260200190815260200160002060006101000a81548173ffffffffffffffffffffffffffffffffffffffff021916908373ffffffffffffffffffffffffffffffffffffffff160217905550808273ffffffffffffffffffffffffffffffffffffffff16611d278361113f565b73ffffffffffffffffffffffffffffffffffffffff167f8c5be1e5ebec7d5bd14f71427d1e84f3dd0314c0f7b2291e5b200ac8c7c3b92560405160405180910390a45050565b6000611d7882611c40565b611db7576040517f08c379a0000000000000000000000000000000000000000000000000000000008152600401611dae90614851565b60405180910390fd5b6000611dc28361113f565b90508073ffffffffffffffffffffffffffffffffffffffff168473ffffffffffffffffffffffffffffffffffffffff161480611e3157508373ffffffffffffffffffffffffffffffffffffffff16611e1984610a9b565b73ffffffffffffffffffffffffffffffffffffffff16145b80611e425750611e418185611b42565b5b91505092915050565b8273ffffffffffffffffffffffffffffffffffffffff16611e6b8261113f565b73ffffffffffffffffffffffffffffffffffffffff1614611ec1576040517f08c379a0000000000000000000000000000000000000000000000000000000008152600401611eb8906148e3565b60405180910390fd5b600073ffffffffffffffffffffffffffffffffffffffff168273ffffffffffffffffffffffffffffffffffffffff1603611f30576040517f08c379a0000000000000000000000000000000000000000000000000000000008152600401611f2790614975565b60405180910390fd5b611f3b8383836133d8565b611f46600082611cb4565b6001600360008573ffffffffffffffffffffffffffffffffffffffff1673ffffffffffffffffffffffffffffffffffffffff1681526020019081526020016000206000828254611f969190614995565b925050819055506001600360008473ffffffffffffffffffffffffffffffffffffffff1673ffffffffffffffffffffffffffffffffffffffff1681526020019081526020016000206000828254611fed91906144e4565b92505081905550816002600083815260200190815260200160002060006101000a81548173ffffffffffffffffffffffffffffffffffffffff021916908373ffffffffffffffffffffffffffffffffffffffff160217905550808273ffffffffffffffffffffffffffffffffffffffff168473ffffffffffffffffffffffffffffffffffffffff167fddf252ad1be2c89b69c2b068fc378daa952ba7f163c4a11628f55a4df523b3ef60405160405180910390a4505050565b600080601883815481106120bd576120bc614362565b5b906000526020600020906008020160405180610120016040529081600082015481526020016001820160009054906101000a900473ffffffffffffffffffffffffffffffffffffffff1673ffffffffffffffffffffffffffffffffffffffff1673ffffffffffffffffffffffffffffffffffffffff1681526020016002820154815260200160038201548152602001600482015481526020016005820154815260200160068201805461216f906140e9565b80601f016020809104026020016040519081016040528092919081815260200182805461219b906140e9565b80156121e85780601f106121bd576101008083540402835291602001916121e8565b820191906000526020600020905b8154815290600101906020018083116121cb57829003601f168201915b505050505081526020016007820160009054906101000a900460ff16600481111561221657612215613a6f565b5b600481111561222857612227613a6f565b5b81526020016007820160019054906101000a900460ff16600381111561225157612250613a6f565b5b600381111561226357612262613a6f565b5b8152505090506003816101000190600381111561228357612282613a6f565b5b9081600381111561229757612296613a6f565b5b8152505080601884815481106122b0576122af614362565b5b90600052602060002090600802016000820151816000015560208201518160010160006101000a81548173ffffffffffffffffffffffffffffffffffffffff021916908373ffffffffffffffffffffffffffffffffffffffff16021790555060408201518160020155606082015181600301556080820151816004015560a0820151816005015560c082015181600601908161234c9190614b6b565b5060e08201518160070160006101000a81548160ff0219169083600481111561237857612377613a6f565b5b02179055506101008201518160070160016101000a81548160ff021916908360038111156123a9576123a8613a6f565b5b02179055509050506001915050919050565b600080601883815481106123d2576123d1614362565b5b906000526020600020906008020160405180610120016040529081600082015481526020016001820160009054906101000a900473ffffffffffffffffffffffffffffffffffffffff1673ffffffffffffffffffffffffffffffffffffffff1673ffffffffffffffffffffffffffffffffffffffff16815260200160028201548152602001600382015481526020016004820154815260200160058201548152602001600682018054612484906140e9565b80601f01602080910402602001604051908101604052809291908181526020018280546124b0906140e9565b80156124fd5780601f106124d2576101008083540402835291602001916124fd565b820191906000526020600020905b8154815290600101906020018083116124e057829003601f168201915b505050505081526020016007820160009054906101000a900460ff16600481111561252b5761252a613a6f565b5b600481111561253d5761253c613a6f565b5b81526020016007820160019054906101000a900460ff16600381111561256657612565613a6f565b5b600381111561257857612577613a6f565b5b8152505090506001816101000190600381111561259857612597613a6f565b5b908160038111156125ac576125ab613a6f565b5b8152505080601884815481106125c5576125c4614362565b5b90600052602060002090600802016000820151816000015560208201518160010160006101000a81548173ffffffffffffffffffffffffffffffffffffffff021916908373ffffffffffffffffffffffffffffffffffffffff16021790555060408201518160020155606082015181600301556080820151816004015560a0820151816005015560c08201518160060190816126619190614b6b565b5060e08201518160070160006101000a81548160ff0219169083600481111561268d5761268c613a6f565b5b02179055506101008201518160070160016101000a81548160ff021916908360038111156126be576126bd613a6f565b5b02179055509050506001915050919050565b600080601883815481106126e7576126e6614362565b5b906000526020600020906008020160405180610120016040529081600082015481526020016001820160009054906101000a900473ffffffffffffffffffffffffffffffffffffffff1673ffffffffffffffffffffffffffffffffffffffff1673ffffffffffffffffffffffffffffffffffffffff16815260200160028201548152602001600382015481526020016004820154815260200160058201548152602001600682018054612799906140e9565b80601f01602080910402602001604051908101604052809291908181526020018280546127c5906140e9565b80156128125780601f106127e757610100808354040283529160200191612812565b820191906000526020600020905b8154815290600101906020018083116127f557829003601f168201915b505050505081526020016007820160009054906101000a900460ff1660048111156128405761283f613a6f565b5b600481111561285257612851613a6f565b5b81526020016007820160019054906101000a900460ff16600381111561287b5761287a613a6f565b5b600381111561288d5761288c613a6f565b5b815250509050600281610100019060038111156128ad576128ac613a6f565b5b908160038111156128c1576128c0613a6f565b5b8152505080601884815481106128da576128d9614362565b5b90600052602060002090600802016000820151816000015560208201518160010160006101000a81548173ffffffffffffffffffffffffffffffffffffffff021916908373ffffffffffffffffffffffffffffffffffffffff16021790555060408201518160020155606082015181600301556080820151816004015560a0820151816005015560c08201518160060190816129769190614b6b565b5060e08201518160070160006101000a81548160ff021916908360048111156129a2576129a1613a6f565b5b02179055506101008201518160070160016101000a81548160ff021916908360038111156129d3576129d2613a6f565b5b02179055509050506000915050919050565b60008060048111156129fa576129f9613a6f565b5b846004811115612a0d57612a0c613a6f565b5b03612a6f576611c37937e08000821015612a5c576040517f08c379a0000000000000000000000000000000000000000000000000000000008152600401612a5390614c89565b60405180910390fd5b8183612a689190614cd8565b9050612c14565b60016004811115612a8357612a82613a6f565b5b846004811115612a9657612a95613a6f565b5b03612af85766b1a2bc2ec50000821015612ae5576040517f08c379a0000000000000000000000000000000000000000000000000000000008152600401612adc90614c89565b60405180910390fd5b8183612af19190614cd8565b9050612c13565b60026004811115612b0c57612b0b613a6f565b5b846004811115612b1f57612b1e613a6f565b5b03612b82576706f05b59d3b20000821015612b6f576040517f08c379a0000000000000000000000000000000000000000000000000000000008152600401612b6690614c89565b60405180910390fd5b8183612b7b9190614cd8565b9050612c12565b60036004811115612b9657612b95613a6f565b5b846004811115612ba957612ba8613a6f565b5b03612c0c57674563918244f40000821015612bf9576040517f08c379a0000000000000000000000000000000000000000000000000000000008152600401612bf090614c89565b60405180910390fd5b8183612c059190614cd8565b9050612c11565b600090505b5b5b5b9392505050565b6000601860405180610120016040528060175481526020013373ffffffffffffffffffffffffffffffffffffffff1681526020018a8152602001898152602001888152602001878152602001868152602001856004811115612c8057612c7f613a6f565b5b8152602001846003811115612c9857612c97613a6f565b5b81525090806001815401808255809150506001900390600052602060002090600802016000909190919091506000820151816000015560208201518160010160006101000a81548173ffffffffffffffffffffffffffffffffffffffff021916908373ffffffffffffffffffffffffffffffffffffffff16021790555060408201518160020155606082015181600301556080820151816004015560a0820151816005015560c0820151816006019081612d529190614b6b565b5060e08201518160070160006101000a81548160ff02191690836004811115612d7e57612d7d613a6f565b5b02179055506101008201518160070160016101000a81548160ff02191690836003811115612daf57612dae613a6f565b5b02179055505050601860175481548110612dcc57612dcb614362565b5b9060005260206000209060080201601a60003373ffffffffffffffffffffffffffffffffffffffff1673ffffffffffffffffffffffffffffffffffffffff1681526020019081526020016000206000601960003373ffffffffffffffffffffffffffffffffffffffff1673ffffffffffffffffffffffffffffffffffffffff168152602001908152602001600020548152602001908152602001600020600082015481600001556001820160009054906101000a900473ffffffffffffffffffffffffffffffffffffffff168160010160006101000a81548173ffffffffffffffffffffffffffffffffffffffff021916908373ffffffffffffffffffffffffffffffffffffffff1602179055506002820154816002015560038201548160030155600482015481600401556005820154816005015560068201816006019081612f169190614d1f565b506007820160009054906101000a900460ff168160070160006101000a81548160ff02191690836004811115612f4f57612f4e613a6f565b5b02179055506007820160019054906101000a900460ff168160070160016101000a81548160ff02191690836003811115612f8c57612f8b613a6f565b5b0217905550905050601960003373ffffffffffffffffffffffffffffffffffffffff1673ffffffffffffffffffffffffffffffffffffffff1681526020019081526020016000206000815480929190612fe490614e07565b9190505550612ff5336017546133dd565b6017600081548092919061300890614e07565b919050555060019050979650505050505050565b6000600782111561302c57600080fd5b60005b8281101561305e5761304333600b546133dd565b600b600081546001019190508190555080600101905061302f565b50600b549050919050565b8173ffffffffffffffffffffffffffffffffffffffff168373ffffffffffffffffffffffffffffffffffffffff16036130d7576040517f08c379a00000000000000000000000000000000000000000000000000000000081526004016130ce90614e9b565b60405180910390fd5b80600560008573ffffffffffffffffffffffffffffffffffffffff1673ffffffffffffffffffffffffffffffffffffffff16815260200190815260200160002060008473ffffffffffffffffffffffffffffffffffffffff1673ffffffffffffffffffffffffffffffffffffffff16815260200190815260200160002060006101000a81548160ff0219169083151502179055508173ffffffffffffffffffffffffffffffffffffffff168373ffffffffffffffffffffffffffffffffffffffff167f17307eab39ab6107e8899845ad3d59bd9653f200f220920489ca2b5937696c31836040516131c891906137f8565b60405180910390a3505050565b6000600f60009054906101000a900460ff1615600f60006101000a81548160ff0219169083151502179055905090565b613210848484611e4b565b61321c848484846135aa565b61325b576040517f08c379a000000000000000000000000000000000000000000000000000000000815260040161325290614f2d565b60405180910390fd5b50505050565b606060405180602001604052806000815250905090565b6060600082036132bf576040518060400160405280600181526020017f300000000000000000000000000000000000000000000000000000000000000081525090506133d3565b600082905060005b600082146132f15780806132da90614e07565b915050600a826132ea9190614cd8565b91506132c7565b60008167ffffffffffffffff81111561330d5761330c613d32565b5b6040519080825280601f01601f19166020018201604052801561333f5781602001600182028036833780820191505090505b5090505b600085146133cc576001826133589190614995565b9150600a856133679190614f4d565b603061337391906144e4565b60f81b81838151811061338957613388614362565b5b60200101907effffffffffffffffffffffffffffffffffffffffffffffffffffffffffffff1916908160001a905350600a856133c59190614cd8565b9450613343565b8093505050505b919050565b505050565b600073ffffffffffffffffffffffffffffffffffffffff168273ffffffffffffffffffffffffffffffffffffffff160361344c576040517f08c379a000000000000000000000000000000000000000000000000000000000815260040161344390614fca565b60405180910390fd5b61345581611c40565b15613495576040517f08c379a000000000000000000000000000000000000000000000000000000000815260040161348c90615036565b60405180910390fd5b6134a1600083836133d8565b6001600360008473ffffffffffffffffffffffffffffffffffffffff1673ffffffffffffffffffffffffffffffffffffffff16815260200190815260200160002060008282546134f191906144e4565b92505081905550816002600083815260200190815260200160002060006101000a81548173ffffffffffffffffffffffffffffffffffffffff021916908373ffffffffffffffffffffffffffffffffffffffff160217905550808273ffffffffffffffffffffffffffffffffffffffff16600073ffffffffffffffffffffffffffffffffffffffff167fddf252ad1be2c89b69c2b068fc378daa952ba7f163c4a11628f55a4df523b3ef60405160405180910390a45050565b60006135cb8473ffffffffffffffffffffffffffffffffffffffff16613731565b15613724578373ffffffffffffffffffffffffffffffffffffffff1663150b7a026135f4611cac565b8786866040518563ffffffff1660e01b81526004016136169493929190615056565b6020604051808303816000875af192505050801561365257506040513d601f19601f8201168201806040525081019061364f91906150b7565b60015b6136d4573d8060008114613682576040519150601f19603f3d011682016040523d82523d6000602084013e613687565b606091505b5060008151036136cc576040517f08c379a00000000000000000000000000000000000000000000000000000000081526004016136c390614f2d565b60405180910390fd5b805181602001fd5b63150b7a0260e01b7bffffffffffffffffffffffffffffffffffffffffffffffffffffffff1916817bffffffffffffffffffffffffffffffffffffffffffffffffffffffff191614915050613729565b600190505b949350505050565b600080823b905060008111915050919050565b6000604051905090565b600080fd5b600080fd5b60007fffffffff0000000000000000000000000000000000000000000000000000000082169050919050565b61378d81613758565b811461379857600080fd5b50565b6000813590506137aa81613784565b92915050565b6000602082840312156137c6576137c561374e565b5b60006137d48482850161379b565b91505092915050565b60008115159050919050565b6137f2816137dd565b82525050565b600060208201905061380d60008301846137e9565b92915050565b600081519050919050565b600082825260208201905092915050565b60005b8381101561384d578082015181840152602081019050613832565b60008484015250505050565b6000601f19601f8301169050919050565b600061387582613813565b61387f818561381e565b935061388f81856020860161382f565b61389881613859565b840191505092915050565b600060208201905081810360008301526138bd818461386a565b905092915050565b6000819050919050565b6138d8816138c5565b81146138e357600080fd5b50565b6000813590506138f5816138cf565b92915050565b6000602082840312156139115761391061374e565b5b600061391f848285016138e6565b91505092915050565b600073ffffffffffffffffffffffffffffffffffffffff82169050919050565b600061395382613928565b9050919050565b61396381613948565b82525050565b600060208201905061397e600083018461395a565b92915050565b61398d81613948565b811461399857600080fd5b50565b6000813590506139aa81613984565b92915050565b600080604083850312156139c7576139c661374e565b5b60006139d58582860161399b565b92505060206139e6858286016138e6565b9150509250929050565b6139f9816138c5565b82525050565b6000602082019050613a1460008301846139f0565b92915050565b600081519050919050565b600082825260208201905092915050565b6000613a4182613a1a565b613a4b8185613a25565b9350613a5b81856020860161382f565b613a6481613859565b840191505092915050565b7f4e487b7100000000000000000000000000000000000000000000000000000000600052602160045260246000fd5b60058110613aaf57613aae613a6f565b5b50565b6000819050613ac082613a9e565b919050565b6000613ad082613ab2565b9050919050565b613ae081613ac5565b82525050565b60048110613af757613af6613a6f565b5b50565b6000819050613b0882613ae6565b919050565b6000613b1882613afa565b9050919050565b613b2881613b0d565b82525050565b600061012082019050613b44600083018c6139f0565b613b51602083018b61395a565b613b5e604083018a6139f0565b613b6b60608301896139f0565b613b7860808301886139f0565b613b8560a08301876139f0565b81810360c0830152613b978186613a36565b9050613ba660e0830185613ad7565b613bb4610100830184613b1f565b9a9950505050505050505050565b6000819050919050565b6000613be7613be2613bdd84613928565b613bc2565b613928565b9050919050565b6000613bf982613bcc565b9050919050565b6000613c0b82613bee565b9050919050565b613c1b81613c00565b82525050565b6000602082019050613c366000830184613c12565b92915050565b600080600060608486031215613c5557613c5461374e565b5b6000613c638682870161399b565b9350506020613c748682870161399b565b9250506040613c85868287016138e6565b9150509250925092565b600060208284031215613ca557613ca461374e565b5b6000613cb38482850161399b565b91505092915050565b613cc5816137dd565b8114613cd057600080fd5b50565b600081359050613ce281613cbc565b92915050565b60008060408385031215613cff57613cfe61374e565b5b6000613d0d858286016138e6565b9250506020613d1e85828601613cd3565b9150509250929050565b600080fd5b600080fd5b7f4e487b7100000000000000000000000000000000000000000000000000000000600052604160045260246000fd5b613d6a82613859565b810181811067ffffffffffffffff82111715613d8957613d88613d32565b5b80604052505050565b6000613d9c613744565b9050613da88282613d61565b919050565b600067ffffffffffffffff821115613dc857613dc7613d32565b5b613dd182613859565b9050602081019050919050565b82818337600083830152505050565b6000613e00613dfb84613dad565b613d92565b905082815260208101848484011115613e1c57613e1b613d2d565b5b613e27848285613dde565b509392505050565b600082601f830112613e4457613e43613d28565b5b8135613e54848260208601613ded565b91505092915050565b600080600080600060a08688031215613e7957613e7861374e565b5b6000613e87888289016138e6565b9550506020613e98888289016138e6565b9450506040613ea9888289016138e6565b935050606086013567ffffffffffffffff811115613eca57613ec9613753565b5b613ed688828901613e2f565b9250506080613ee7888289016138e6565b9150509295509295909350565b60006020820190508181036000830152613f0e8184613a36565b905092915050565b60008060408385031215613f2d57613f2c61374e565b5b6000613f3b8582860161399b565b9250506020613f4c85828601613cd3565b9150509250929050565b600067ffffffffffffffff821115613f7157613f70613d32565b5b613f7a82613859565b9050602081019050919050565b6000613f9a613f9584613f56565b613d92565b905082815260208101848484011115613fb657613fb5613d2d565b5b613fc1848285613dde565b509392505050565b600082601f830112613fde57613fdd613d28565b5b8135613fee848260208601613f87565b91505092915050565b600080600080608085870312156140115761401061374e565b5b600061401f8782880161399b565b94505060206140308782880161399b565b9350506040614041878288016138e6565b925050606085013567ffffffffffffffff81111561406257614061613753565b5b61406e87828801613fc9565b91505092959194509250565b600080604083850312156140915761409061374e565b5b600061409f8582860161399b565b92505060206140b08582860161399b565b9150509250929050565b7f4e487b7100000000000000000000000000000000000000000000000000000000600052602260045260246000fd5b6000600282049050600182168061410157607f821691505b602082108103614114576141136140ba565b5b50919050565b7f4552433732313a20617070726f76656420717565727920666f72206e6f6e657860008201527f697374656e7420746f6b656e0000000000000000000000000000000000000000602082015250565b6000614176602c8361381e565b91506141818261411a565b604082019050919050565b600060208201905081810360008301526141a581614169565b9050919050565b7f4552433732313a20617070726f76616c20746f2063757272656e74206f776e6560008201527f7200000000000000000000000000000000000000000000000000000000000000602082015250565b600061420860218361381e565b9150614213826141ac565b604082019050919050565b60006020820190508181036000830152614237816141fb565b9050919050565b7f4552433732313a20617070726f76652063616c6c6572206973206e6f74206f7760008201527f6e6572206e6f7220617070726f76656420666f7220616c6c0000000000000000602082015250565b600061429a60388361381e565b91506142a58261423e565b604082019050919050565b600060208201905081810360008301526142c98161428d565b9050919050565b7f4552433732313a207472616e736665722063616c6c6572206973206e6f74206f60008201527f776e6572206e6f7220617070726f766564000000000000000000000000000000602082015250565b600061432c60318361381e565b9150614337826142d0565b604082019050919050565b6000602082019050818103600083015261435b8161431f565b9050919050565b7f4e487b7100000000000000000000000000000000000000000000000000000000600052603260045260246000fd5b7f4552433732313a206f776e657220717565727920666f72206e6f6e657869737460008201527f656e7420746f6b656e0000000000000000000000000000000000000000000000602082015250565b60006143ed60298361381e565b91506143f882614391565b604082019050919050565b6000602082019050818103600083015261441c816143e0565b9050919050565b7f4552433732313a2062616c616e636520717565727920666f7220746865207a6560008201527f726f206164647265737300000000000000000000000000000000000000000000602082015250565b600061447f602a8361381e565b915061448a82614423565b604082019050919050565b600060208201905081810360008301526144ae81614472565b9050919050565b7f4e487b7100000000000000000000000000000000000000000000000000000000600052601160045260246000fd5b60006144ef826138c5565b91506144fa836138c5565b9250828201905080821115614512576145116144b5565b5b92915050565b600081519050614527816138cf565b92915050565b6000602082840312156145435761454261374e565b5b600061455184828501614518565b91505092915050565b7f3a3a20696e73756666696369656e742066756e6473203a3a0000000000000000600082015250565b600061459060188361381e565b915061459b8261455a565b602082019050919050565b600060208201905081810360008301526145bf81614583565b9050919050565b7f3a3a206e6f7420656e6f75676820627564676574203a3a000000000000000000600082015250565b60006145fc60178361381e565b9150614607826145c6565b602082019050919050565b6000602082019050818103600083015261462b816145ef565b9050919050565b6000606082019050614647600083018661395a565b614654602083018561395a565b61466160408301846139f0565b949350505050565b60008151905061467881613cbc565b92915050565b6000602082840312156146945761469361374e565b5b60006146a284828501614669565b91505092915050565b60006146b6826138c5565b91506146c1836138c5565b92508282026146cf816138c5565b915082820484148315176146e6576146e56144b5565b5b5092915050565b7f4552433732314d657461646174613a2055524920717565727920666f72206e6f60008201527f6e6578697374656e7420746f6b656e0000000000000000000000000000000000602082015250565b6000614749602f8361381e565b9150614754826146ed565b604082019050919050565b600060208201905081810360008301526147788161473c565b9050919050565b600081905092915050565b600061479582613813565b61479f818561477f565b93506147af81856020860161382f565b80840191505092915050565b60006147c7828561478a565b91506147d3828461478a565b91508190509392505050565b7f4552433732313a206f70657261746f7220717565727920666f72206e6f6e657860008201527f697374656e7420746f6b656e0000000000000000000000000000000000000000602082015250565b600061483b602c8361381e565b9150614846826147df565b604082019050919050565b6000602082019050818103600083015261486a8161482e565b9050919050565b7f4552433732313a207472616e73666572206f6620746f6b656e2074686174206960008201527f73206e6f74206f776e0000000000000000000000000000000000000000000000602082015250565b60006148cd60298361381e565b91506148d882614871565b604082019050919050565b600060208201905081810360008301526148fc816148c0565b9050919050565b7f4552433732313a207472616e7366657220746f20746865207a65726f2061646460008201527f7265737300000000000000000000000000000000000000000000000000000000602082015250565b600061495f60248361381e565b915061496a82614903565b604082019050919050565b6000602082019050818103600083015261498e81614952565b9050919050565b60006149a0826138c5565b91506149ab836138c5565b92508282039050818111156149c3576149c26144b5565b5b92915050565b60008190508160005260206000209050919050565b60006020601f8301049050919050565b600082821b905092915050565b600060088302614a2b7fffffffffffffffffffffffffffffffffffffffffffffffffffffffffffffffff826149ee565b614a3586836149ee565b95508019841693508086168417925050509392505050565b6000614a68614a63614a5e846138c5565b613bc2565b6138c5565b9050919050565b6000819050919050565b614a8283614a4d565b614a96614a8e82614a6f565b8484546149fb565b825550505050565b600090565b614aab614a9e565b614ab6818484614a79565b505050565b5b81811015614ada57614acf600082614aa3565b600181019050614abc565b5050565b601f821115614b1f57614af0816149c9565b614af9846149de565b81016020851015614b08578190505b614b1c614b14856149de565b830182614abb565b50505b505050565b600082821c905092915050565b6000614b4260001984600802614b24565b1980831691505092915050565b6000614b5b8383614b31565b9150826002028217905092915050565b614b7482613a1a565b67ffffffffffffffff811115614b8d57614b8c613d32565b5b614b9782546140e9565b614ba2828285614ade565b600060209050601f831160018114614bd55760008415614bc3578287015190505b614bcd8582614b4f565b865550614c35565b601f198416614be3866149c9565b60005b82811015614c0b57848901518255600182019150602085019450602081019050614be6565b86831015614c285784890151614c24601f891682614b31565b8355505b6001600288020188555050505b505050505050565b7f3a3a20707269636520746f6f206c6f77203a3a00000000000000000000000000600082015250565b6000614c7360138361381e565b9150614c7e82614c3d565b602082019050919050565b60006020820190508181036000830152614ca281614c66565b9050919050565b7f4e487b7100000000000000000000000000000000000000000000000000000000600052601260045260246000fd5b6000614ce3826138c5565b9150614cee836138c5565b925082614cfe57614cfd614ca9565b5b828204905092915050565b600081549050614d18816140e9565b9050919050565b818103614d2d575050614e05565b614d3682614d09565b67ffffffffffffffff811115614d4f57614d4e613d32565b5b614d5982546140e9565b614d64828285614ade565b6000601f831160018114614d935760008415614d81578287015490505b614d8b8582614b4f565b865550614dfe565b601f198416614da1876149c9565b9650614dac866149c9565b60005b82811015614dd457848901548255600182019150600185019450602081019050614daf565b86831015614df15784890154614ded601f891682614b31565b8355505b6001600288020188555050505b5050505050505b565b6000614e12826138c5565b91507fffffffffffffffffffffffffffffffffffffffffffffffffffffffffffffffff8203614e4457614e436144b5565b5b600182019050919050565b7f4552433732313a20617070726f766520746f2063616c6c657200000000000000600082015250565b6000614e8560198361381e565b9150614e9082614e4f565b602082019050919050565b60006020820190508181036000830152614eb481614e78565b9050919050565b7f4552433732313a207472616e7366657220746f206e6f6e20455243373231526560008201527f63656976657220696d706c656d656e7465720000000000000000000000000000602082015250565b6000614f1760328361381e565b9150614f2282614ebb565b604082019050919050565b60006020820190508181036000830152614f4681614f0a565b9050919050565b6000614f58826138c5565b9150614f63836138c5565b925082614f7357614f72614ca9565b5b828206905092915050565b7f4552433732313a206d696e7420746f20746865207a65726f2061646472657373600082015250565b6000614fb460208361381e565b9150614fbf82614f7e565b602082019050919050565b60006020820190508181036000830152614fe381614fa7565b9050919050565b7f4552433732313a20746f6b656e20616c7265616479206d696e74656400000000600082015250565b6000615020601c8361381e565b915061502b82614fea565b602082019050919050565b6000602082019050818103600083015261504f81615013565b9050919050565b600060808201905061506b600083018761395a565b615078602083018661395a565b61508560408301856139f0565b81810360608301526150978184613a36565b905095945050505050565b6000815190506150b181613784565b92915050565b6000602082840312156150cd576150cc61374e565b5b60006150db848285016150a2565b9150509291505056fea26469706673582212207c16ff195b619d4f75757a50a92e658ab7443ec677402305d76458610ff6048c64736f6c6343000812003360806040523480156200001157600080fd5b5060405162001ccc38038062001ccc8339818101604052810190620000379190620001d8565b336000806101000a81548173ffffffffffffffffffffffffffffffffffffffff021916908373ffffffffffffffffffffffffffffffffffffffff1602179055506040518060400160405280601a81526020017f4245204652455348204d5920465255495459204652454e5a202100000000000081525060039081620000bd91906200048f565b50600060018190555081600281905550620000de81620000e760201b60201c565b50505062000576565b600081600560006101000a81548173ffffffffffffffffffffffffffffffffffffffff021916908373ffffffffffffffffffffffffffffffffffffffff16021790555060019050919050565b600080fd5b6000819050919050565b6200014d8162000138565b81146200015957600080fd5b50565b6000815190506200016d8162000142565b92915050565b600073ffffffffffffffffffffffffffffffffffffffff82169050919050565b6000620001a08262000173565b9050919050565b620001b28162000193565b8114620001be57600080fd5b50565b600081519050620001d281620001a7565b92915050565b60008060408385031215620001f257620001f162000133565b5b600062000202858286016200015c565b92505060206200021585828601620001c1565b9150509250929050565b600081519050919050565b7f4e487b7100000000000000000000000000000000000000000000000000000000600052604160045260246000fd5b7f4e487b7100000000000000000000000000000000000000000000000000000000600052602260045260246000fd5b60006002820490506001821680620002a157607f821691505b602082108103620002b757620002b662000259565b5b50919050565b60008190508160005260206000209050919050565b60006020601f8301049050919050565b600082821b905092915050565b600060088302620003217fffffffffffffffffffffffffffffffffffffffffffffffffffffffffffffffff82620002e2565b6200032d8683620002e2565b95508019841693508086168417925050509392505050565b6000819050919050565b6000620003706200036a620003648462000138565b62000345565b62000138565b9050919050565b6000819050919050565b6200038c836200034f565b620003a46200039b8262000377565b848454620002ef565b825550505050565b600090565b620003bb620003ac565b620003c881848462000381565b505050565b5b81811015620003f057620003e4600082620003b1565b600181019050620003ce565b5050565b601f8211156200043f576200040981620002bd565b6200041484620002d2565b8101602085101562000424578190505b6200043c6200043385620002d2565b830182620003cd565b50505b505050565b600082821c905092915050565b6000620004646000198460080262000444565b1980831691505092915050565b60006200047f838362000451565b9150826002028217905092915050565b6200049a826200021f565b67ffffffffffffffff811115620004b657620004b56200022a565b5b620004c2825462000288565b620004cf828285620003f4565b600060209050601f831160018114620005075760008415620004f2578287015190505b620004fe858262000471565b8655506200056e565b601f1984166200051786620002bd565b60005b8281101562000541578489015182556001820191506020850194506020810190506200051a565b868310156200056157848901516200055d601f89168262000451565b8355505b6001600288020188555050505b505050505050565b61174680620005866000396000f3fe6080604052600436106100f35760003560e01c806377b3cc9a1161008a578063e21f37ce11610059578063e21f37ce14610349578063ece866b914610374578063f794062e1461039f578063f851a440146103dc576100f3565b806377b3cc9a14610286578063c4784fd4146102b1578063c85e07b9146102e1578063cc87ec5f1461030c576100f3565b8063329dd364116100c6578063329dd364146101c8578063365b98b2146101f35780633ccfd60b146102305780636ac5db191461025b576100f3565b806301c0fb4c146100f8578063161dbc14146101355780632a0c74d4146101725780632f7136551461019d575b600080fd5b34801561010457600080fd5b5061011f600480360381019061011a9190610e7d565b610407565b60405161012c9190610ec5565b60405180910390f35b34801561014157600080fd5b5061015c60048036038101906101579190611026565b610419565b6040516101699190610ec5565b60405180910390f35b34801561017e57600080fd5b506101876104c0565b60405161019491906110ee565b60405180910390f35b3480156101a957600080fd5b506101b2610552565b6040516101bf919061116f565b60405180910390f35b3480156101d457600080fd5b506101dd610578565b6040516101ea9190611236565b60405180910390f35b3480156101ff57600080fd5b5061021a60048036038101906102159190611288565b6105fb565b60405161022791906112c4565b60405180910390f35b34801561023c57600080fd5b50610245610632565b60405161025291906112ee565b60405180910390f35b34801561026757600080fd5b50610270610726565b60405161027d91906112ee565b60405180910390f35b34801561029257600080fd5b5061029b61072c565b6040516102a89190610ec5565b60405180910390f35b6102cb60048036038101906102c69190611026565b610925565b6040516102d89190610ec5565b60405180910390f35b3480156102ed57600080fd5b506102f66109d0565b60405161030391906112ee565b60405180910390f35b34801561031857600080fd5b50610333600480360381019061032e9190610e7d565b6109d6565b6040516103409190610ec5565b60405180910390f35b34801561035557600080fd5b5061035e610c19565b60405161036b91906110ee565b60405180910390f35b34801561038057600080fd5b50610389610ca7565b60405161039691906112ee565b60405180910390f35b3480156103ab57600080fd5b506103c660048036038101906103c19190610e7d565b610cad565b6040516103d39190610ec5565b60405180910390f35b3480156103e857600080fd5b506103f1610ccd565b6040516103fe91906112c4565b60405180910390f35b600061041282610cf1565b9050919050565b60003373ffffffffffffffffffffffffffffffffffffffff1660008054906101000a900473ffffffffffffffffffffffffffffffffffffffff1673ffffffffffffffffffffffffffffffffffffffff16146104a0576040517f82b4290000000000000000000000000000000000000000000000000000000000815260040160405180910390fd5b81600390816104af919061150b565b504260048190555060019050919050565b6060600380546104cf90611338565b80601f01602080910402602001604051908101604052809291908181526020018280546104fb90611338565b80156105485780601f1061051d57610100808354040283529160200191610548565b820191906000526020600020905b81548152906001019060200180831161052b57829003601f168201915b5050505050905090565b600560009054906101000a900473ffffffffffffffffffffffffffffffffffffffff1681565b610580610de7565b60076104d28060200260405190810160405280929190826104d280156105f1576020028201915b8160009054906101000a900473ffffffffffffffffffffffffffffffffffffffff1673ffffffffffffffffffffffffffffffffffffffff16815260200190600101908083116105a7575b5050505050905090565b6007816104d2811061060c57600080fd5b016000915054906101000a900473ffffffffffffffffffffffffffffffffffffffff1681565b60003373ffffffffffffffffffffffffffffffffffffffff1660008054906101000a900473ffffffffffffffffffffffffffffffffffffffff1673ffffffffffffffffffffffffffffffffffffffff16146106b9576040517f82b4290000000000000000000000000000000000000000000000000000000000815260040160405180910390fd5b60008054906101000a900473ffffffffffffffffffffffffffffffffffffffff1673ffffffffffffffffffffffffffffffffffffffff166108fc479081150290604051600060405180830381858888f1935050505015801561071f573d6000803e3d6000fd5b5047905090565b60025481565b60003360011515600660008373ffffffffffffffffffffffffffffffffffffffff1673ffffffffffffffffffffffffffffffffffffffff16815260200190815260200160002060009054906101000a900460ff161515036107b9576040517fe08ca6b000000000000000000000000000000000000000000000000000000000815260040160405180910390fd5b600254600154106107f6576040517fea5db9c500000000000000000000000000000000000000000000000000000000815260040160405180910390fd5b6001600660003373ffffffffffffffffffffffffffffffffffffffff1673ffffffffffffffffffffffffffffffffffffffff16815260200190815260200160002060006101000a81548160ff0219169083151502179055503360076001546104d28110610866576108656115dd565b5b0160006101000a81548173ffffffffffffffffffffffffffffffffffffffff021916908373ffffffffffffffffffffffffffffffffffffffff160217905550600160008154809291906108b89061163b565b9190505550600254600154036108d2576108d0610d3d565b505b600660003373ffffffffffffffffffffffffffffffffffffffff1673ffffffffffffffffffffffffffffffffffffffff16815260200190815260200160002060009054906101000a900460ff1691505090565b6000670de0b6b3a76400003411610968576040517f99956c4600000000000000000000000000000000000000000000000000000000815260040160405180910390fd5b610e106004546109789190611683565b42116109b0576040517f7cd5facc00000000000000000000000000000000000000000000000000000000815260040160405180910390fd5b81600390816109bf919061150b565b504260048190555060019050919050565b60045481565b60008160011515600660008373ffffffffffffffffffffffffffffffffffffffff1673ffffffffffffffffffffffffffffffffffffffff16815260200190815260200160002060009054906101000a900460ff16151503610a63576040517fe08ca6b000000000000000000000000000000000000000000000000000000000815260040160405180910390fd5b3373ffffffffffffffffffffffffffffffffffffffff1660008054906101000a900473ffffffffffffffffffffffffffffffffffffffff1673ffffffffffffffffffffffffffffffffffffffff1614610ae8576040517f82b4290000000000000000000000000000000000000000000000000000000000815260040160405180910390fd5b6001600660008573ffffffffffffffffffffffffffffffffffffffff1673ffffffffffffffffffffffffffffffffffffffff16815260200190815260200160002060006101000a81548160ff0219169083151502179055508260076001546104d28110610b5857610b576115dd565b5b0160006101000a81548173ffffffffffffffffffffffffffffffffffffffff021916908373ffffffffffffffffffffffffffffffffffffffff16021790555060016000815480929190610baa9061163b565b919050555060025460015403610bc457610bc2610d3d565b505b600660008473ffffffffffffffffffffffffffffffffffffffff1673ffffffffffffffffffffffffffffffffffffffff16815260200190815260200160002060009054906101000a900460ff16915050919050565b60038054610c2690611338565b80601f0160208091040260200160405190810160405280929190818152602001828054610c5290611338565b8015610c9f5780601f10610c7457610100808354040283529160200191610c9f565b820191906000526020600020905b815481529060010190602001808311610c8257829003601f168201915b505050505081565b60015481565b60066020528060005260406000206000915054906101000a900460ff1681565b60008054906101000a900473ffffffffffffffffffffffffffffffffffffffff1681565b600081600560006101000a81548173ffffffffffffffffffffffffffffffffffffffff021916908373ffffffffffffffffffffffffffffffffffffffff16021790555060019050919050565b600060025460015414610d4f57600080fd5b600560009054906101000a900473ffffffffffffffffffffffffffffffffffffffff1673ffffffffffffffffffffffffffffffffffffffff1663b524fd6f6040518163ffffffff1660e01b81526004016020604051808303816000875af1158015610dbe573d6000803e3d6000fd5b505050506040513d601f19601f82011682018060405250810190610de291906116e3565b905090565b60405180619a4001604052806104d290602082028036833780820191505090505090565b6000604051905090565b600080fd5b600080fd5b600073ffffffffffffffffffffffffffffffffffffffff82169050919050565b6000610e4a82610e1f565b9050919050565b610e5a81610e3f565b8114610e6557600080fd5b50565b600081359050610e7781610e51565b92915050565b600060208284031215610e9357610e92610e15565b5b6000610ea184828501610e68565b91505092915050565b60008115159050919050565b610ebf81610eaa565b82525050565b6000602082019050610eda6000830184610eb6565b92915050565b600080fd5b600080fd5b6000601f19601f8301169050919050565b7f4e487b7100000000000000000000000000000000000000000000000000000000600052604160045260246000fd5b610f3382610eea565b810181811067ffffffffffffffff82111715610f5257610f51610efb565b5b80604052505050565b6000610f65610e0b565b9050610f718282610f2a565b919050565b600067ffffffffffffffff821115610f9157610f90610efb565b5b610f9a82610eea565b9050602081019050919050565b82818337600083830152505050565b6000610fc9610fc484610f76565b610f5b565b905082815260208101848484011115610fe557610fe4610ee5565b5b610ff0848285610fa7565b509392505050565b600082601f83011261100d5761100c610ee0565b5b813561101d848260208601610fb6565b91505092915050565b60006020828403121561103c5761103b610e15565b5b600082013567ffffffffffffffff81111561105a57611059610e1a565b5b61106684828501610ff8565b91505092915050565b600081519050919050565b600082825260208201905092915050565b60005b838110156110a957808201518184015260208101905061108e565b60008484015250505050565b60006110c08261106f565b6110ca818561107a565b93506110da81856020860161108b565b6110e381610eea565b840191505092915050565b6000602082019050818103600083015261110881846110b5565b905092915050565b6000819050919050565b600061113561113061112b84610e1f565b611110565b610e1f565b9050919050565b60006111478261111a565b9050919050565b60006111598261113c565b9050919050565b6111698161114e565b82525050565b60006020820190506111846000830184611160565b92915050565b60006104d29050919050565b600081905092915050565b6000819050919050565b6111b481610e3f565b82525050565b60006111c683836111ab565b60208301905092915050565b6000602082019050919050565b6111e88161118a565b6111f28184611196565b92506111fd826111a1565b8060005b8381101561122e57815161121587826111ba565b9650611220836111d2565b925050600181019050611201565b505050505050565b6000619a408201905061124c60008301846111df565b92915050565b6000819050919050565b61126581611252565b811461127057600080fd5b50565b6000813590506112828161125c565b92915050565b60006020828403121561129e5761129d610e15565b5b60006112ac84828501611273565b91505092915050565b6112be81610e3f565b82525050565b60006020820190506112d960008301846112b5565b92915050565b6112e881611252565b82525050565b600060208201905061130360008301846112df565b92915050565b7f4e487b7100000000000000000000000000000000000000000000000000000000600052602260045260246000fd5b6000600282049050600182168061135057607f821691505b60208210810361136357611362611309565b5b50919050565b60008190508160005260206000209050919050565b60006020601f8301049050919050565b600082821b905092915050565b6000600883026113cb7fffffffffffffffffffffffffffffffffffffffffffffffffffffffffffffffff8261138e565b6113d5868361138e565b95508019841693508086168417925050509392505050565b60006114086114036113fe84611252565b611110565b611252565b9050919050565b6000819050919050565b611422836113ed565b61143661142e8261140f565b84845461139b565b825550505050565b600090565b61144b61143e565b611456818484611419565b505050565b5b8181101561147a5761146f600082611443565b60018101905061145c565b5050565b601f8211156114bf5761149081611369565b6114998461137e565b810160208510156114a8578190505b6114bc6114b48561137e565b83018261145b565b50505b505050565b600082821c905092915050565b60006114e2600019846008026114c4565b1980831691505092915050565b60006114fb83836114d1565b9150826002028217905092915050565b6115148261106f565b67ffffffffffffffff81111561152d5761152c610efb565b5b6115378254611338565b61154282828561147e565b600060209050601f8311600181146115755760008415611563578287015190505b61156d85826114ef565b8655506115d5565b601f19841661158386611369565b60005b828110156115ab57848901518255600182019150602085019450602081019050611586565b868310156115c857848901516115c4601f8916826114d1565b8355505b6001600288020188555050505b505050505050565b7f4e487b7100000000000000000000000000000000000000000000000000000000600052603260045260246000fd5b7f4e487b7100000000000000000000000000000000000000000000000000000000600052601160045260246000fd5b600061164682611252565b91507fffffffffffffffffffffffffffffffffffffffffffffffffffffffffffffffff82036116785761167761160c565b5b600182019050919050565b600061168e82611252565b915061169983611252565b92508282019050808211156116b1576116b061160c565b5b92915050565b6116c081610eaa565b81146116cb57600080fd5b50565b6000815190506116dd816116b7565b92915050565b6000602082840312156116f9576116f8610e15565b5b6000611707848285016116ce565b9150509291505056fea264697066735822122050eb422ca59651204cd9449f02fc73a1f3d9e172bc318f87b0b018900530823164736f6c63430008120033",
  "immutableReferences": {},
  "source": "// SPDX-License-Identifier: GPL-3.0\r\n// // // // // // // // // // // // // // // // // // // // // // // // // // // // // // // // // // // // // // // // // // // // // // // // // // // // // // // // // // // // //\r\n//\r\n//      WWWWWWWWWWWWWWWWWWWWWWWWWWWWWWWWWWWWWWWWWWWWWWWWWWWWWWWWWWWWWWWWWWWWWNXK0OOOOO0KXNWWWWWWWWWWWWWWWWWW\r\n//      WWWWWWWWWWWWWWWWWWWWWWWWWWWWWWWWWWWWWWWWWWWWWWWWWWWWWWWWWWWWWWWWXOdl;'...........,:oOXWWWWWWWWWWWWWW\r\n//      WWWWWWWWWWWWWWWWWWWWWWWWWWWWWWWWWWWWWWWWWWWWWWWWWWWWWWWWWWWWWXkc'. .';:clooooolc:,. .,oKWWWWWWWWWWWW\r\n//      WWWWWWWWWWWWWWWWWWWWWWWWWWWWWWWWWWWWWWWWWNKK0000KXXXNNNNNWWKo' .'cdk00KKKKKKKKKK00Od;. .dNWWWWWWWWWW\r\n//      WWWWWWWWWWWWWWWWWWWWWWWWWWWWWWWWWWWWWNOo;'.........'',,,:kx' .;dO0K0Oxlc:;;:cdk0K00K0x, .dNWWWWWWWWW\r\n//      WWWWWWWWWWWWWWWWWWWWWWWWWWWWWWWWWWWWO:.    .....        .,. 'd000KOo,. .'',.. .lOKK00Kd. ,KWWWWWWWWW\r\n//      WWWWWWWWWWWWWWWWWWWWWWWWWWWWWWWWWWW0,     :OXXX0:       .. 'xKK000l. ,xKXNNXx' .dKKK0Kx' '0WWWWWWWWW\r\n//      WWWWWWWWWWWWWWX0kxdooooodk0NWWWXOOx;     .oOOXWWo       .  c000000:  lXNWNX0l. ,kK00K0l. cXWWWWWWWWW\r\n//      WWWWWWWWWWWNOc'.          .,xXO,.            :KX:      ';. :000KK0x,  .,;,'. .:x000KOl. ,OWWWWWWWWWW\r\n//      WWWWWWWWWWNo.     .::'      .kx'..       ...'dNk.      lO; .:x00000Odc;,,,;cok000Oxc' .:0WWWWWWWWWWW\r\n//      WWWWWWWWWWK;     .dNWK;     .xWXKd.     ;OKKXWNl      .kW0;  .'cx00KKKK0000KK0kl;.  .:kNWWWWWWWWWWWW\r\n//      WWWWWWWWWWWOl;,;ckKKkc.     ,KWWWd.    .xWWWWW0,      :Od;. .';lx000OOkkOO0000Od:,. .c0WWWWWWWWWWWWW\r\n//      WWWWWWWWWWNKkoc:;,..        lNWWX:     ;KWWWWWx.      .. .,lxO00xl;'......,:dO0K00xc. .xNWWWWWWWWWWW\r\n//      WWWWWWWWNk;.        .      .kWWWk.     oNWWWWX:        .:x000Oo,. .;clool:'  ,x0K000d. 'OWWWWWWWWWWW\r\n//      WWWWWWWXl.     'cdkOo.     :XWWNl     'OWWWWWO.       .o0KKKOc. ,xKNWWWWWWXo. ,kK00K0c .oWWWWWWWWWWW\r\n//      WWWWWWWx.     ,ONNKx'      lKXKk'     ,OXWWX0:        ;xO0KKd. ;KWWWWWWWWWWx. ,kKK00O: .dWWWWWWWWWWW\r\n//      WWWWWWWd.      .,'.        .....       .cKd'.          .l0KKd. 'kNWWWWWWXOl. .d00KK0d. ,0WWWWWWWWWWW\r\n//      WWWWWWW0;          .,.                 .o0;            'x00K0o. .';ccc:;.. .:x0KKK0d' .xWWWWWWWWWWWW\r\n//      WWWWWWWWXxc;,'',:lx0N0l;,,:clooddxxddooONNOdodxxxdo;  .d000KK0Oo:,'...',;cok0KKK0x:. 'kNWWWWWWWWWWWW\r\n//      WWWWWWWWWWWWNNNNWWWWWWWWNNWWWWWWWWWWWWWWWWWWWWWWWWWKc  ,oO0KKK0K000OO0000K0KK0ko;. .lKWWWWWWWWWWWWWW\r\n//      WWWWWWWWWWWWWWWWWWWWWWWWWWWWWWWWWWWWWWWWWWWWWWWWWWWWXx,. .:ldkO00000000OOxdl:'. .;dKWWWWWWWWWWWWWWWW\r\n//      WWWWWWWWWWWWWWWWWWWWWWWWWWWWWWWWWWWWWWWWWWWWWWWWWWWWWWXOl,......',,,,,'......,cd0NWWWWWWWWWWWWWWWWWW\r\n//      WWWWWWWWWWWWWWWWWWWWWWWWWWWWWWWWWWWWWWWWWWWWWWWWWWWWWWWWWNKOxoc::;;;;;:cloxOKNWWWWWWWWWWWWWWWWWWWWWW\r\n//      WWWWWWWWWWWWWWWWWWWWWWWWWWWWWWWWWWWWWWWWWWWWWWWWWWWWWWWWWWWWWWWWWWWWWWWWWWWWWWWWWWWWWWWWWWWWWWWWWWWW\r\n//\r\n// // // // // // // // // // // // // // // // // // // // // // // // // // // // // // // // // // // // // // // // // // // // // // // // // // // // // // // // // // // // //\r\n//                                                                                                                                                                                  //\r\n//      @dev            ::              Aron Mauritala Ayuk                                                                                                                                          //\r\n//      @msg            ::              stereo@iii6.xyz                                                                                                                                   //\r\n//      @github         ::              @stereoIII6\r\n//      @twitter        ::              @stereoIII6                                                                                                                                              //\r\n//                                                                                                                                                                                  //\r\n// // // // // // // // // // // // // // // // // // // // // // // // // // // // // // // // // // // // // // // // // // // // // // // // // // // // // // // // // // // // //\r\n//                                                                                                                                                                                  //\r\n//      @dev            ::              Juan Xavier Valverde                                                                                                                                    //\r\n//      @msg            ::              juanxavier@iii6.xyz                                                                                                                               //\r\n//      @twitter        ::              @JuanXavier                                                                                                                                             //\r\n//      @github         ::              @JuanXavier                                                                                                                                             //\r\n//                                                                                                                                                                                  //                                                                                                                                                                                 //\r\n// // // // // // // // // // // // // // // // // // // // // // // // // // // // // // // // // // // // // // // // // // // // // // // // // // // // // // // // // // // // //\r\n//  *   *   *   *   *   *   *   *   *   *   *   *   *   *   *   *   *   *   *   *   *   *   *   *   *   *   *   *   *   *   *   *   *   *   *   *   *   *   *   *   *   *   *   *   //\r\n// // // // // // // // // // // // // // // // // // // // // // // // // // // // // // // // // // // // // // // // // // // // // // // // // // // // // // // // // // // // //\r\n//                                                                                                                                                                                  //\r\n//      @company        ::              Fractio Holding                                                                                                                                                                       //\r\n//      @title          ::              iii6 Coin Model                                                                                                                            //\r\n//      @description    ::              ERC20 Model Preset Contract                                                                                                                           //\r\n//      @version        ::              0.0.1                                                                                                                                       //\r\n//      @purpose        ::              ERC20 Model Preset                                                                                                          //\r\n//                                                                                                                                                                                  //\r\n//                                                                                                                                                                                  //\r\n//                                                                                                                                                                                  //\r\n//                                                                                                                                                                                  //\r\n//                                                                                                                                                                                  //\r\n// // // // // // // // // // // // // // // // // // // // // // // // // // // // // // // // // // // // // // // // // // // // // // // // // // // // // // // // // // // // //\r\n//  *   *   *   *   *   *   *   *   *   *   *   *   *   *   *   *   *   *   *   *   *   *   *   *   *   *   *   *   *   *   *   *   *   *   *   *   *   *   *   *   *   *   *   *   //\r\n// // // // // // // // // // // // // // // // // // // // // // // // // // // // // // // // // // // // // // // // // // // // // // // // // // // // // // // // // // // // //\r\n\r\npragma solidity ^0.8.7;\r\n\r\nimport \"../iii6utils/Assets/iii6CoinModel.sol\";\r\nimport \"../iii6utils/Assets/iii6DiaModel.sol\";\r\nimport \"../iii6utils/Misc/iii6Misc.sol\";\r\n\r\ncontract AFL8_CampaignModel is iii6DiaModel, iii6Misc {\r\n    iii6CoinModel public afl8;\r\n    uint256 FEE;\r\n    struct Campaign {\r\n        uint256 id;\r\n        address author;\r\n        uint256 start;\r\n        uint256 budget;\r\n        uint256 price;\r\n        uint256 actions;\r\n        bytes dias;\r\n        CampaignType ctype;\r\n        Status state;\r\n    }\r\n    uint256 public C_ID;\r\n    Campaign[] public campaigns;\r\n    mapping(address => uint256) campaignCount;\r\n    mapping(address => mapping(uint256 => Campaign)) public campaignShow;\r\n    mapping(uint256 => uint256) public campaignSafe;\r\n\r\n    // initialises the contract at deployment\r\n    constructor()\r\n        iii6DiaModel(msg.sender, \"Affiliate Campaign Asset\", \"AFL8\", 0, 0, 0)\r\n    {\r\n        // afl8 = iii6CoinModel();\r\n    }\r\n\r\n    // function takes (campaign type , budget , price) and returns (actions)=>{Views,Clicks,Leads,Sales}\r\n    function _calcActions(\r\n        CampaignType _ctype,\r\n        uint256 _budget,\r\n        uint256 _price\r\n    ) internal pure returns (uint256 actions) {\r\n        if (_ctype == CampaignType.View) {\r\n            // VIEW CAMPAIGNS\r\n            require(_price >= 5 * 10**15, \":: price too low ::\");\r\n            actions = _budget / _price;\r\n        } else if (_ctype == CampaignType.Click) {\r\n            // CLICK CAMPAIGNS\r\n            require(_price >= 5 * 10**16, \":: price too low ::\");\r\n            actions = _budget / _price;\r\n        } else if (_ctype == CampaignType.Lead) {\r\n            // LEAD CAMPAIGNS\r\n            require(_price >= 5 * 10**17, \":: price too low ::\");\r\n            actions = _budget / _price;\r\n        } else if (_ctype == CampaignType.Sale) {\r\n            // SALE CAMPAIGNS\r\n            require(_price >= 5 * 10**18, \":: price too low ::\");\r\n            actions = _budget / _price;\r\n        } else {\r\n            // ERROR FALLBACK\r\n            actions = 0;\r\n        }\r\n    }\r\n\r\n    // function makes a new Campaign from input() and mints a campaign token\r\n    function _makeCampaign(\r\n        uint256 _start,\r\n        uint256 _budget,\r\n        uint256 _price,\r\n        uint256 _actions,\r\n        string memory _dias,\r\n        CampaignType _ctype,\r\n        Status _state\r\n    ) internal returns (bool) {\r\n        // Write Struct to Array & Mapping\r\n        campaigns.push(\r\n            Campaign(\r\n                C_ID,\r\n                msg.sender,\r\n                _start,\r\n                _budget,\r\n                _price,\r\n                _actions,\r\n                bytes(_dias),\r\n                _ctype,\r\n                _state\r\n            )\r\n        );\r\n        campaignShow[msg.sender][campaignCount[msg.sender]] = campaigns[C_ID];\r\n        // Iterate\r\n        campaignCount[msg.sender]++;\r\n        _mint(msg.sender, C_ID);\r\n        C_ID++;\r\n        // Exit\r\n        return true;\r\n    }\r\n\r\n    // function pauses campaign\r\n    function _pauseCampaign(uint256 _cid) internal returns (bool) {\r\n        // get campaign data\r\n        Campaign memory campaign = campaigns[_cid];\r\n        // set campaign status\r\n        campaign.state = Status.Paused;\r\n        // write new state to campaign\r\n        campaigns[_cid] = campaign;\r\n        // exit with bool\r\n        return false;\r\n    }\r\n\r\n    // function starts campaign\r\n    function _startCampaign(uint256 _cid) internal returns (bool) {\r\n        // get campaign data\r\n        Campaign memory campaign = campaigns[_cid];\r\n        // set campaign status\r\n        campaign.state = Status.Active;\r\n        // write new state to campaign\r\n        campaigns[_cid] = campaign;\r\n        // exit with bool\r\n        return true;\r\n    }\r\n\r\n    // function starts campaign\r\n    function _endCampaign(uint256 _cid) internal returns (bool) {\r\n        // get campaign data\r\n        Campaign memory campaign = campaigns[_cid];\r\n        // set campaign status\r\n        campaign.state = Status.Ended;\r\n        // write new state to campaign\r\n        campaigns[_cid] = campaign;\r\n        // exit with bool\r\n        return true;\r\n    }\r\n\r\n    // function handles payment and calls make campaign\r\n    function createCampaign(\r\n        uint256 _start,\r\n        uint256 _budget,\r\n        uint256 _price,\r\n        string memory _dias,\r\n        uint256 _ctype\r\n    ) external returns (bool) {\r\n        // check fund availability\r\n        uint256 checksum = (5 * 10**18) + _budget;\r\n        require(\r\n            afl8.balanceOf(msg.sender) >= checksum,\r\n            \":: insufficient funds ::\"\r\n        );\r\n        // Translate Campaign Type to ENUM\r\n        CampaignType ctyp;\r\n        if (_ctype == 0) {\r\n            ctyp = CampaignType.View;\r\n        } else if (_ctype == 1) {\r\n            ctyp = CampaignType.Click;\r\n        } else if (_ctype == 2) {\r\n            ctyp = CampaignType.Lead;\r\n        } else if (_ctype == 3) {\r\n            ctyp = CampaignType.Sale;\r\n        } else {\r\n            ctyp = CampaignType.Inactive;\r\n        }\r\n        // Calculate Action Count from Input\r\n        uint256 actions = _calcActions(ctyp, _budget, _price);\r\n        require(actions != 0, \":: not enough budget ::\");\r\n        // Check Timing & Set Status ENUM\r\n        Status stat = Status.Pending;\r\n        if (_start < block.timestamp) {\r\n            stat = Status.Active;\r\n        }\r\n        // Transfer funds from user to contract\r\n        afl8.transferFrom(msg.sender, address(this), checksum);\r\n        // create Campaign Token\r\n        return\r\n            _makeCampaign(_start, _budget, _price, actions, _dias, ctyp, stat);\r\n    }\r\n\r\n    // function changes campaign state\r\n    function changeState(uint256 _cid, bool _quit) external returns (bool) {\r\n        // get campaign data\r\n        Campaign memory campaign = campaigns[_cid];\r\n        // check if campaign is started or ended\r\n        if (_quit) {\r\n            return _endCampaign(_cid);\r\n        }\r\n        if (\r\n            campaign.start < block.timestamp && campaign.state != Status.Ended\r\n        ) {\r\n            // check campaign state\r\n            if (\r\n                campaign.state == Status.Pending ||\r\n                campaign.state == Status.Paused\r\n            ) {\r\n                // exit set to active\r\n                return _startCampaign(_cid);\r\n            } else {\r\n                // exit set to paused\r\n                return _pauseCampaign(_cid);\r\n            }\r\n        }\r\n        // exit with bool\r\n        else return false;\r\n    }\r\n}\r\n",
  "sourcePath": "C:\\Users\\juanx\\OneDrive\\Documents\\_prog\\work\\III6Dojo\\contracts\\afl8Projects\\afl8ProjectModel.sol",
  "compiler": {
    "name": "solc",
    "version": "0.8.18+commit.87f61d96.Emscripten.clang"
  },
  "schemaVersion": "3.4.11",
  "updatedAt": "2023-02-03T18:53:17.965Z",
  "devdoc": {
    "events": {
      "ACTION_Log(uint256,address,string,address,uint256)": {
        "details": "this event logs important events"
      },
      "Approval(address,address,uint256)": {
        "details": "Emitted when `owner` enables `approved` to manage the `tokenId` token."
      },
      "ApprovalForAll(address,address,bool)": {
        "details": "Emitted when `owner` enables or disables (`approved`) `operator` to manage all of its assets."
      },
      "ERR_Log(uint256,address,string,uint256)": {
        "details": "this event logs all errors"
      },
      "TX_Log(uint256,address,uint256,uint256)": {
        "details": "this event logs all transactions"
      },
      "Transfer(address,address,uint256)": {
        "details": "Emitted when `tokenId` token is transferred from `from` to `to`."
      }
    },
    "kind": "dev",
    "methods": {
      "approve(address,uint256)": {
        "details": "See {IERC721-approve}."
      },
      "balanceOf(address)": {
        "details": "See {IERC721-balanceOf}."
      },
      "getApproved(uint256)": {
        "details": "See {IERC721-getApproved}."
      },
      "isApprovedForAll(address,address)": {
        "details": "See {IERC721-isApprovedForAll}."
      },
      "name()": {
        "details": "See {IERC721Metadata-name}."
      },
      "ownerOf(uint256)": {
        "details": "See {IERC721-ownerOf}."
      },
      "safeTransferFrom(address,address,uint256)": {
        "details": "See {IERC721-safeTransferFrom}."
      },
      "safeTransferFrom(address,address,uint256,bytes)": {
        "details": "See {IERC721-safeTransferFrom}."
      },
      "setApprovalForAll(address,bool)": {
        "details": "See {IERC721-setApprovalForAll}."
      },
      "supportsInterface(bytes4)": {
        "details": "See {IERC165-supportsInterface}."
      },
      "symbol()": {
        "details": "See {IERC721Metadata-symbol}."
      },
      "tokenURI(uint256)": {
        "details": "See {IERC721Metadata-tokenURI}."
      },
      "transferFrom(address,address,uint256)": {
        "details": "See {IERC721-transferFrom}."
      }
    },
    "version": 1
  },
  "userdoc": {
    "kind": "user",
    "methods": {},
    "version": 1
  }
}