{
  "contractName": "ICE",
  "abi": [
    {
      "inputs": [],
      "stateMutability": "nonpayable",
      "type": "constructor"
    },
    {
      "anonymous": false,
      "inputs": [
        {
          "indexed": true,
          "internalType": "address",
          "name": "owner",
          "type": "address"
        },
        {
          "indexed": true,
          "internalType": "address",
          "name": "spender",
          "type": "address"
        },
        {
          "indexed": false,
          "internalType": "uint256",
          "name": "value",
          "type": "uint256"
        }
      ],
      "name": "Approval",
      "type": "event"
    },
    {
      "anonymous": false,
      "inputs": [
        {
          "indexed": true,
          "internalType": "address",
          "name": "from",
          "type": "address"
        },
        {
          "indexed": true,
          "internalType": "address",
          "name": "to",
          "type": "address"
        },
        {
          "indexed": false,
          "internalType": "uint256",
          "name": "value",
          "type": "uint256"
        }
      ],
      "name": "Transfer",
      "type": "event"
    },
    {
      "inputs": [
        {
          "internalType": "address",
          "name": "owner",
          "type": "address"
        },
        {
          "internalType": "address",
          "name": "spender",
          "type": "address"
        }
      ],
      "name": "allowance",
      "outputs": [
        {
          "internalType": "uint256",
          "name": "",
          "type": "uint256"
        }
      ],
      "stateMutability": "view",
      "type": "function"
    },
    {
      "inputs": [
        {
          "internalType": "address",
          "name": "spender",
          "type": "address"
        },
        {
          "internalType": "uint256",
          "name": "amount",
          "type": "uint256"
        }
      ],
      "name": "approve",
      "outputs": [
        {
          "internalType": "bool",
          "name": "",
          "type": "bool"
        }
      ],
      "stateMutability": "nonpayable",
      "type": "function"
    },
    {
      "inputs": [
        {
          "internalType": "address",
          "name": "account",
          "type": "address"
        }
      ],
      "name": "balanceOf",
      "outputs": [
        {
          "internalType": "uint256",
          "name": "",
          "type": "uint256"
        }
      ],
      "stateMutability": "view",
      "type": "function"
    },
    {
      "inputs": [],
      "name": "decimals",
      "outputs": [
        {
          "internalType": "uint8",
          "name": "",
          "type": "uint8"
        }
      ],
      "stateMutability": "view",
      "type": "function"
    },
    {
      "inputs": [
        {
          "internalType": "address",
          "name": "spender",
          "type": "address"
        },
        {
          "internalType": "uint256",
          "name": "subtractedValue",
          "type": "uint256"
        }
      ],
      "name": "decreaseAllowance",
      "outputs": [
        {
          "internalType": "bool",
          "name": "",
          "type": "bool"
        }
      ],
      "stateMutability": "nonpayable",
      "type": "function"
    },
    {
      "inputs": [],
      "name": "digits",
      "outputs": [
        {
          "internalType": "uint256",
          "name": "",
          "type": "uint256"
        }
      ],
      "stateMutability": "view",
      "type": "function"
    },
    {
      "inputs": [
        {
          "internalType": "address",
          "name": "spender",
          "type": "address"
        },
        {
          "internalType": "uint256",
          "name": "addedValue",
          "type": "uint256"
        }
      ],
      "name": "increaseAllowance",
      "outputs": [
        {
          "internalType": "bool",
          "name": "",
          "type": "bool"
        }
      ],
      "stateMutability": "nonpayable",
      "type": "function"
    },
    {
      "inputs": [],
      "name": "name",
      "outputs": [
        {
          "internalType": "string",
          "name": "",
          "type": "string"
        }
      ],
      "stateMutability": "view",
      "type": "function"
    },
    {
      "inputs": [],
      "name": "price",
      "outputs": [
        {
          "internalType": "uint256",
          "name": "",
          "type": "uint256"
        }
      ],
      "stateMutability": "view",
      "type": "function"
    },
    {
      "inputs": [],
      "name": "symbol",
      "outputs": [
        {
          "internalType": "string",
          "name": "",
          "type": "string"
        }
      ],
      "stateMutability": "view",
      "type": "function"
    },
    {
      "inputs": [],
      "name": "totalSupply",
      "outputs": [
        {
          "internalType": "uint256",
          "name": "",
          "type": "uint256"
        }
      ],
      "stateMutability": "view",
      "type": "function"
    },
    {
      "inputs": [
        {
          "internalType": "address",
          "name": "recipient",
          "type": "address"
        },
        {
          "internalType": "uint256",
          "name": "amount",
          "type": "uint256"
        }
      ],
      "name": "transfer",
      "outputs": [
        {
          "internalType": "bool",
          "name": "",
          "type": "bool"
        }
      ],
      "stateMutability": "nonpayable",
      "type": "function"
    },
    {
      "inputs": [
        {
          "internalType": "address",
          "name": "sender",
          "type": "address"
        },
        {
          "internalType": "address",
          "name": "recipient",
          "type": "address"
        },
        {
          "internalType": "uint256",
          "name": "amount",
          "type": "uint256"
        }
      ],
      "name": "transferFrom",
      "outputs": [
        {
          "internalType": "bool",
          "name": "",
          "type": "bool"
        }
      ],
      "stateMutability": "nonpayable",
      "type": "function"
    },
    {
      "inputs": [
        {
          "internalType": "uint256",
          "name": "_amnt",
          "type": "uint256"
        },
        {
          "internalType": "address",
          "name": "_adr",
          "type": "address"
        }
      ],
      "name": "swap",
      "outputs": [
        {
          "internalType": "uint256",
          "name": "",
          "type": "uint256"
        }
      ],
      "stateMutability": "payable",
      "type": "function"
    },
    {
      "inputs": [
        {
          "internalType": "address",
          "name": "_adr",
          "type": "address"
        }
      ],
      "name": "earn",
      "outputs": [
        {
          "internalType": "bool",
          "name": "",
          "type": "bool"
        }
      ],
      "stateMutability": "nonpayable",
      "type": "function"
    }
  ],
  "bytecode": "0x60806040523480156200001157600080fd5b506040518060400160405280601781526020017f496e6372656469626c7920436f6f6c20457373656e63650000000000000000008152506040518060400160405280600381526020017f494345000000000000000000000000000000000000000000000000000000000081525081600390816200008f919062000365565b508060049081620000a1919062000365565b50505033600560006101000a81548173ffffffffffffffffffffffffffffffffffffffff021916908373ffffffffffffffffffffffffffffffffffffffff1602179055506200044c565b600081519050919050565b7f4e487b7100000000000000000000000000000000000000000000000000000000600052604160045260246000fd5b7f4e487b7100000000000000000000000000000000000000000000000000000000600052602260045260246000fd5b600060028204905060018216806200016d57607f821691505b60208210810362000183576200018262000125565b5b50919050565b60008190508160005260206000209050919050565b60006020601f8301049050919050565b600082821b905092915050565b600060088302620001ed7fffffffffffffffffffffffffffffffffffffffffffffffffffffffffffffffff82620001ae565b620001f98683620001ae565b95508019841693508086168417925050509392505050565b6000819050919050565b6000819050919050565b600062000246620002406200023a8462000211565b6200021b565b62000211565b9050919050565b6000819050919050565b620002628362000225565b6200027a62000271826200024d565b848454620001bb565b825550505050565b600090565b6200029162000282565b6200029e81848462000257565b505050565b5b81811015620002c657620002ba60008262000287565b600181019050620002a4565b5050565b601f8211156200031557620002df8162000189565b620002ea846200019e565b81016020851015620002fa578190505b6200031262000309856200019e565b830182620002a3565b50505b505050565b600082821c905092915050565b60006200033a600019846008026200031a565b1980831691505092915050565b600062000355838362000327565b9150826002028217905092915050565b6200037082620000eb565b67ffffffffffffffff8111156200038c576200038b620000f6565b5b62000398825462000154565b620003a5828285620002ca565b600060209050601f831160018114620003dd5760008415620003c8578287015190505b620003d4858262000347565b86555062000444565b601f198416620003ed8662000189565b60005b828110156200041757848901518255600182019150602085019450602081019050620003f0565b8683101562000437578489015162000433601f89168262000327565b8355505b6001600288020188555050505b505050505050565b6119bb806200045c6000396000f3fe6080604052600436106100e85760003560e01c806395d89b411161008a578063a9059cbb11610059578063a9059cbb14610320578063d3986f081461035d578063dd62ed3e1461038d578063fdb5fefc146103ca576100e8565b806395d89b41146102625780639e20437c1461028d578063a035b1fe146102b8578063a457c2d7146102e3576100e8565b806323b872dd116100c657806323b872dd14610180578063313ce567146101bd57806339509351146101e857806370a0823114610225576100e8565b806306fdde03146100ed578063095ea7b31461011857806318160ddd14610155575b600080fd5b3480156100f957600080fd5b50610102610407565b60405161010f919061104c565b60405180910390f35b34801561012457600080fd5b5061013f600480360381019061013a9190611107565b610499565b60405161014c9190611162565b60405180910390f35b34801561016157600080fd5b5061016a6104b7565b604051610177919061118c565b60405180910390f35b34801561018c57600080fd5b506101a760048036038101906101a291906111a7565b6104c1565b6040516101b49190611162565b60405180910390f35b3480156101c957600080fd5b506101d26105b9565b6040516101df9190611216565b60405180910390f35b3480156101f457600080fd5b5061020f600480360381019061020a9190611107565b6105c2565b60405161021c9190611162565b60405180910390f35b34801561023157600080fd5b5061024c60048036038101906102479190611231565b61066e565b604051610259919061118c565b60405180910390f35b34801561026e57600080fd5b506102776106b6565b604051610284919061104c565b60405180910390f35b34801561029957600080fd5b506102a2610748565b6040516102af919061118c565b60405180910390f35b3480156102c457600080fd5b506102cd610754565b6040516102da919061118c565b60405180910390f35b3480156102ef57600080fd5b5061030a60048036038101906103059190611107565b610779565b6040516103179190611162565b60405180910390f35b34801561032c57600080fd5b5061034760048036038101906103429190611107565b610864565b6040516103549190611162565b60405180910390f35b6103776004803603810190610372919061125e565b610882565b604051610384919061118c565b60405180910390f35b34801561039957600080fd5b506103b460048036038101906103af919061129e565b610949565b6040516103c1919061118c565b60405180910390f35b3480156103d657600080fd5b506103f160048036038101906103ec9190611231565b6109d0565b6040516103fe9190611162565b60405180910390f35b6060600380546104169061130d565b80601f01602080910402602001604051908101604052809291908181526020018280546104429061130d565b801561048f5780601f106104645761010080835404028352916020019161048f565b820191906000526020600020905b81548152906001019060200180831161047257829003601f168201915b5050505050905090565b60006104ad6104a66109ee565b84846109f6565b6001905092915050565b6000600254905090565b60006104ce848484610bbf565b6000600160008673ffffffffffffffffffffffffffffffffffffffff1673ffffffffffffffffffffffffffffffffffffffff16815260200190815260200160002060006105196109ee565b73ffffffffffffffffffffffffffffffffffffffff1673ffffffffffffffffffffffffffffffffffffffff16815260200190815260200160002054905082811015610599576040517f08c379a0000000000000000000000000000000000000000000000000000000008152600401610590906113b0565b60405180910390fd5b6105ad856105a56109ee565b8584036109f6565b60019150509392505050565b60006012905090565b60006106646105cf6109ee565b8484600160006105dd6109ee565b73ffffffffffffffffffffffffffffffffffffffff1673ffffffffffffffffffffffffffffffffffffffff16815260200190815260200160002060008873ffffffffffffffffffffffffffffffffffffffff1673ffffffffffffffffffffffffffffffffffffffff1681526020019081526020016000205461065f91906113ff565b6109f6565b6001905092915050565b60008060008373ffffffffffffffffffffffffffffffffffffffff1673ffffffffffffffffffffffffffffffffffffffff168152602001908152602001600020549050919050565b6060600480546106c59061130d565b80601f01602080910402602001604051908101604052809291908181526020018280546106f19061130d565b801561073e5780601f106107135761010080835404028352916020019161073e565b820191906000526020600020905b81548152906001019060200180831161072157829003601f168201915b5050505050905090565b670de0b6b3a764000081565b612710670de0b6b3a7640000600161076c9190611433565b61077691906114a4565b81565b600080600160006107886109ee565b73ffffffffffffffffffffffffffffffffffffffff1673ffffffffffffffffffffffffffffffffffffffff16815260200190815260200160002060008573ffffffffffffffffffffffffffffffffffffffff1673ffffffffffffffffffffffffffffffffffffffff16815260200190815260200160002054905082811015610845576040517f08c379a000000000000000000000000000000000000000000000000000000000815260040161083c90611547565b60405180910390fd5b6108596108506109ee565b858584036109f6565b600191505092915050565b60006108786108716109ee565b8484610bbf565b6001905092915050565b6000600a8310156108c8576040517f08c379a00000000000000000000000000000000000000000000000000000000081526004016108bf906115b3565b60405180910390fd5b82612710670de0b6b3a764000060016108e19190611433565b6108eb91906114a4565b6108f59190611433565b341015610937576040517f08c379a000000000000000000000000000000000000000000000000000000000815260040161092e9061161f565b60405180910390fd5b6109418383610e3e565b905092915050565b6000600160008473ffffffffffffffffffffffffffffffffffffffff1673ffffffffffffffffffffffffffffffffffffffff16815260200190815260200160002060008373ffffffffffffffffffffffffffffffffffffffff1673ffffffffffffffffffffffffffffffffffffffff16815260200190815260200160002054905092915050565b60006109e4670de0b6b3a764000083610e3e565b5060019050919050565b600033905090565b600073ffffffffffffffffffffffffffffffffffffffff168373ffffffffffffffffffffffffffffffffffffffff1603610a65576040517f08c379a0000000000000000000000000000000000000000000000000000000008152600401610a5c906116b1565b60405180910390fd5b600073ffffffffffffffffffffffffffffffffffffffff168273ffffffffffffffffffffffffffffffffffffffff1603610ad4576040517f08c379a0000000000000000000000000000000000000000000000000000000008152600401610acb90611743565b60405180910390fd5b80600160008573ffffffffffffffffffffffffffffffffffffffff1673ffffffffffffffffffffffffffffffffffffffff16815260200190815260200160002060008473ffffffffffffffffffffffffffffffffffffffff1673ffffffffffffffffffffffffffffffffffffffff168152602001908152602001600020819055508173ffffffffffffffffffffffffffffffffffffffff168373ffffffffffffffffffffffffffffffffffffffff167f8c5be1e5ebec7d5bd14f71427d1e84f3dd0314c0f7b2291e5b200ac8c7c3b92583604051610bb2919061118c565b60405180910390a3505050565b600073ffffffffffffffffffffffffffffffffffffffff168373ffffffffffffffffffffffffffffffffffffffff1603610c2e576040517f08c379a0000000000000000000000000000000000000000000000000000000008152600401610c25906117d5565b60405180910390fd5b600073ffffffffffffffffffffffffffffffffffffffff168273ffffffffffffffffffffffffffffffffffffffff1603610c9d576040517f08c379a0000000000000000000000000000000000000000000000000000000008152600401610c9490611867565b60405180910390fd5b610ca8838383610e53565b60008060008573ffffffffffffffffffffffffffffffffffffffff1673ffffffffffffffffffffffffffffffffffffffff16815260200190815260200160002054905081811015610d2e576040517f08c379a0000000000000000000000000000000000000000000000000000000008152600401610d25906118f9565b60405180910390fd5b8181036000808673ffffffffffffffffffffffffffffffffffffffff1673ffffffffffffffffffffffffffffffffffffffff16815260200190815260200160002081905550816000808573ffffffffffffffffffffffffffffffffffffffff1673ffffffffffffffffffffffffffffffffffffffff1681526020019081526020016000206000828254610dc191906113ff565b925050819055508273ffffffffffffffffffffffffffffffffffffffff168473ffffffffffffffffffffffffffffffffffffffff167fddf252ad1be2c89b69c2b068fc378daa952ba7f163c4a11628f55a4df523b3ef84604051610e25919061118c565b60405180910390a3610e38848484610e58565b50505050565b6000610e4a8284610e5d565b82905092915050565b505050565b505050565b600073ffffffffffffffffffffffffffffffffffffffff168273ffffffffffffffffffffffffffffffffffffffff1603610ecc576040517f08c379a0000000000000000000000000000000000000000000000000000000008152600401610ec390611965565b60405180910390fd5b610ed860008383610e53565b8060026000828254610eea91906113ff565b92505081905550806000808473ffffffffffffffffffffffffffffffffffffffff1673ffffffffffffffffffffffffffffffffffffffff1681526020019081526020016000206000828254610f3f91906113ff565b925050819055508173ffffffffffffffffffffffffffffffffffffffff16600073ffffffffffffffffffffffffffffffffffffffff167fddf252ad1be2c89b69c2b068fc378daa952ba7f163c4a11628f55a4df523b3ef83604051610fa4919061118c565b60405180910390a3610fb860008383610e58565b5050565b600081519050919050565b600082825260208201905092915050565b60005b83811015610ff6578082015181840152602081019050610fdb565b60008484015250505050565b6000601f19601f8301169050919050565b600061101e82610fbc565b6110288185610fc7565b9350611038818560208601610fd8565b61104181611002565b840191505092915050565b600060208201905081810360008301526110668184611013565b905092915050565b600080fd5b600073ffffffffffffffffffffffffffffffffffffffff82169050919050565b600061109e82611073565b9050919050565b6110ae81611093565b81146110b957600080fd5b50565b6000813590506110cb816110a5565b92915050565b6000819050919050565b6110e4816110d1565b81146110ef57600080fd5b50565b600081359050611101816110db565b92915050565b6000806040838503121561111e5761111d61106e565b5b600061112c858286016110bc565b925050602061113d858286016110f2565b9150509250929050565b60008115159050919050565b61115c81611147565b82525050565b60006020820190506111776000830184611153565b92915050565b611186816110d1565b82525050565b60006020820190506111a1600083018461117d565b92915050565b6000806000606084860312156111c0576111bf61106e565b5b60006111ce868287016110bc565b93505060206111df868287016110bc565b92505060406111f0868287016110f2565b9150509250925092565b600060ff82169050919050565b611210816111fa565b82525050565b600060208201905061122b6000830184611207565b92915050565b6000602082840312156112475761124661106e565b5b6000611255848285016110bc565b91505092915050565b600080604083850312156112755761127461106e565b5b6000611283858286016110f2565b9250506020611294858286016110bc565b9150509250929050565b600080604083850312156112b5576112b461106e565b5b60006112c3858286016110bc565b92505060206112d4858286016110bc565b9150509250929050565b7f4e487b7100000000000000000000000000000000000000000000000000000000600052602260045260246000fd5b6000600282049050600182168061132557607f821691505b602082108103611338576113376112de565b5b50919050565b7f45524332303a207472616e7366657220616d6f756e742065786365656473206160008201527f6c6c6f77616e6365000000000000000000000000000000000000000000000000602082015250565b600061139a602883610fc7565b91506113a58261133e565b604082019050919050565b600060208201905081810360008301526113c98161138d565b9050919050565b7f4e487b7100000000000000000000000000000000000000000000000000000000600052601160045260246000fd5b600061140a826110d1565b9150611415836110d1565b925082820190508082111561142d5761142c6113d0565b5b92915050565b600061143e826110d1565b9150611449836110d1565b9250828202611457816110d1565b9150828204841483151761146e5761146d6113d0565b5b5092915050565b7f4e487b7100000000000000000000000000000000000000000000000000000000600052601260045260246000fd5b60006114af826110d1565b91506114ba836110d1565b9250826114ca576114c9611475565b5b828204905092915050565b7f45524332303a2064656372656173656420616c6c6f77616e63652062656c6f7760008201527f207a65726f000000000000000000000000000000000000000000000000000000602082015250565b6000611531602583610fc7565b915061153c826114d5565b604082019050919050565b6000602082019050818103600083015261156081611524565b9050919050565b7f4d494e494d554d20313020494345000000000000000000000000000000000000600082015250565b600061159d600e83610fc7565b91506115a882611567565b602082019050919050565b600060208201905081810360008301526115cc81611590565b9050919050565b7f494e53554646494349454e542046554e44532050524f56494445440000000000600082015250565b6000611609601b83610fc7565b9150611614826115d3565b602082019050919050565b60006020820190508181036000830152611638816115fc565b9050919050565b7f45524332303a20617070726f76652066726f6d20746865207a65726f2061646460008201527f7265737300000000000000000000000000000000000000000000000000000000602082015250565b600061169b602483610fc7565b91506116a68261163f565b604082019050919050565b600060208201905081810360008301526116ca8161168e565b9050919050565b7f45524332303a20617070726f766520746f20746865207a65726f20616464726560008201527f7373000000000000000000000000000000000000000000000000000000000000602082015250565b600061172d602283610fc7565b9150611738826116d1565b604082019050919050565b6000602082019050818103600083015261175c81611720565b9050919050565b7f45524332303a207472616e736665722066726f6d20746865207a65726f20616460008201527f6472657373000000000000000000000000000000000000000000000000000000602082015250565b60006117bf602583610fc7565b91506117ca82611763565b604082019050919050565b600060208201905081810360008301526117ee816117b2565b9050919050565b7f45524332303a207472616e7366657220746f20746865207a65726f206164647260008201527f6573730000000000000000000000000000000000000000000000000000000000602082015250565b6000611851602383610fc7565b915061185c826117f5565b604082019050919050565b6000602082019050818103600083015261188081611844565b9050919050565b7f45524332303a207472616e7366657220616d6f756e742065786365656473206260008201527f616c616e63650000000000000000000000000000000000000000000000000000602082015250565b60006118e3602683610fc7565b91506118ee82611887565b604082019050919050565b60006020820190508181036000830152611912816118d6565b9050919050565b7f45524332303a206d696e7420746f20746865207a65726f206164647265737300600082015250565b600061194f601f83610fc7565b915061195a82611919565b602082019050919050565b6000602082019050818103600083015261197e81611942565b905091905056fea264697066735822122084adcd3e1dbcbe13a07495fa88a245332ff032e6465d51e0da0afe93ebc986bf64736f6c63430008120033",
  "immutableReferences": {},
  "source": "// SPDX-License-Identifier: MIT\r\n\r\n// MAINNET CONTRACT ADDRESSES\r\n\r\n// GL :: 0xecE922B118eEd554Fb9d3318a81FecB8C8D1bD95\r\n// ICE :: 0x890b24d94075B743a89171E5b8A2d9B9049eBf36\r\n// FROOT :: 0xb2330f3836799B36F0be49Df1043C62d30253479\r\n\r\n// TESTNET CONTRACT ADDRESSES\r\n\r\n// GREENLIST :: 0x0f6ee895f93a0525747DdD7c5c177fF65DBD7454\r\n// ICE :: 0xec09faf4b1c6F198cFF1535800d55123C8C848bE :: ERC20\r\n// FROOTYCOOLTINGS :: 0x069BF09A8EDb8C1b3AC7f62bA57C601DBaCc6747 :: ERC721\r\n\r\npragma solidity ^0.8.10;\r\n\r\nimport \"@openzeppelin/contracts/token/ERC20/ERC20.sol\";\r\nimport \"@openzeppelin/contracts/token/ERC721/ERC721.sol\";\r\n\r\ncontract Greenlist {\r\n    address public admin;\r\n\r\n    uint256 public l;\r\n    uint256 public max;\r\n    string public message;\r\n    uint256 public stamp;\r\n    FrootyCoolTingz public FCT;\r\n    mapping(address => bool) public isListed;\r\n    address[1234] public users;\r\n    modifier notListed(address _adr) {\r\n        require(isListed[_adr] == false, \"already listed\");\r\n        _;\r\n    }\r\n\r\n    constructor() {\r\n        admin = msg.sender;\r\n        // isListed[msg.sender] = true; // OFF ON TESTNET\r\n        // users[0] = msg.sender;\r\n        message = \"BE FRESH MY FRUITY FRENZ !\";\r\n        // l = 1; // Mainnet\r\n        // max = 1234; // Mainnet\r\n        l = 0; // Testnet\r\n        max = 1; // Testnet\r\n    }\r\n\r\n    function setFCT(address _fct) external returns (bool) {\r\n        FCT = FrootyCoolTingz(_fct);\r\n        return true;\r\n    }\r\n\r\n    function autoStart() internal returns (bool) {\r\n        return FCT.changeMS();\r\n    }\r\n\r\n    function getListed() external notListed(msg.sender) returns (bool) {\r\n        require(l < max, \"no more greenlist tickets left\");\r\n        isListed[msg.sender] = true;\r\n        users[l] = (msg.sender);\r\n        l++;\r\n        if (l == max) autoStart();\r\n        return isListed[msg.sender];\r\n    }\r\n\r\n    function makeListing(address _adr) external notListed(_adr) returns (bool) {\r\n        require(admin == msg.sender, \"you are not admin\");\r\n        isListed[_adr] = true;\r\n        users[l] = (_adr);\r\n        l++;\r\n        if (l == max) autoStart();\r\n        return isListed[_adr];\r\n    }\r\n\r\n    function showUsers() external view returns (address[1234] memory) {\r\n        return users;\r\n    }\r\n\r\n    function setMsg(string memory _msg) external payable returns (bool) {\r\n        require(msg.value <= 1 * 10**18, \"insufficient balance sent\");\r\n        require(block.timestamp >= stamp + 60 * 60, \"you need to wait\");\r\n        message = _msg;\r\n        stamp = block.timestamp;\r\n        return true;\r\n    }\r\n\r\n    function setMsgAdmin(string memory _msg) external returns (bool) {\r\n        require(admin == msg.sender, \"you are not admin\");\r\n        message = _msg;\r\n        stamp = block.timestamp;\r\n        return true;\r\n    }\r\n\r\n    function showMsg() external view returns (string memory) {\r\n        return message;\r\n    }\r\n\r\n    function withdraw() external returns (uint256) {\r\n        require(admin == msg.sender, \"you are not admin\");\r\n        payable(admin).transfer(address(this).balance);\r\n        return address(this).balance;\r\n    }\r\n}\r\n\r\ncontract ICE is ERC20 {\r\n    uint256 public constant digits = 10**18;\r\n    uint256 public constant price = (1 * digits) / 10000; // Testnet :: 10000 // Mainnet :: 10\r\n\r\n    address admin;\r\n\r\n    modifier onlyA() {\r\n        require(msg.sender == admin);\r\n        _;\r\n    }\r\n\r\n    constructor() ERC20(\"Incredibly Cool Essence\", \"ICE\") {\r\n        admin = msg.sender;\r\n    }\r\n\r\n    function _domint(uint256 _amnt, address _adr) internal returns (uint256) {\r\n        _mint(_adr, _amnt);\r\n        return _amnt;\r\n    }\r\n\r\n    function _doburn(uint256 _amnt, address _adr) internal returns (uint256) {\r\n        _burn(_adr, _amnt);\r\n        return _amnt;\r\n    }\r\n\r\n    function swap(uint256 _amnt, address _adr)\r\n        external\r\n        payable\r\n        returns (uint256)\r\n    {\r\n        require(_amnt >= 10, \"MINIMUM 10 ICE\");\r\n        require(msg.value >= price * _amnt, \"INSUFFICIENT FUNDS PROVIDED\");\r\n        return _domint(_amnt, _adr);\r\n    }\r\n\r\n    function earn(address _adr) external returns (bool) {\r\n        _domint(1 * 10**18, _adr);\r\n        return true;\r\n    }\r\n}\r\n\r\ncontract FrootyCoolTingz is ERC721 {\r\n    // Public Constants\r\n    uint256 public constant price = 5 * 10**14; // PRICE VAL Testnet\r\n    // uint256 public constant price = 5 * 10**18; // PRICE VAL Mainnet\r\n    uint256 public constant num = 1; // MAX MINTS / WALLET\r\n    // MAINNET\r\n    /* *\r\n    uint256 public constant max = 5555; // MAX TOTAL MINTS\r\n    uint256 public constant sloz = 1234; // MAX FREE MINTS\r\n    // */\r\n    // TESTNET\r\n    /* */\r\n    uint256 public constant max = 5; // MAX TOTAL MINTS\r\n    uint256 public constant sloz = 1; // MAX FREE MINTS\r\n    // */\r\n    // Public Variables\r\n    address public owner; // CONTRACT OWNER\r\n    address iceAdr;\r\n    uint256 public minted; // TOKENS MINTED 1-5000\r\n    string public nam; // TOKEN NAME\r\n    string public sym; // TOKEN SYMBOL\r\n    uint256 public slots; // SLOZ USED 1-1234\r\n    bool public start; // ALLOWS MINT TO START\r\n    // Public Mappings\r\n    mapping(uint256 => bytes) public dias; // TOKEN ID SHOWS DIAS BYTES OBJECT\r\n    mapping(uint256 => uint256) public tid; // TOKEN ID SHOWS DIAS ID\r\n    mapping(uint256 => string) public status;\r\n    mapping(uint256 => address) public ownedBy;\r\n    mapping(address => uint256) private minter;\r\n    ICE public ice;\r\n    Greenlist public GLC;\r\n\r\n    modifier onlyO() {\r\n        // ONLY OWNER CAN USE MOD FUNX\r\n        require(msg.sender == owner);\r\n        _;\r\n    }\r\n\r\n    constructor(address _ICE, address _Greenlist)\r\n        ERC721(\"Frooty Cool Tingz\", \"FROOT\")\r\n    {\r\n        // INIT CONTRACT SET PUB VARS\r\n        minted = 1;\r\n        slots = 0;\r\n        owner = msg.sender;\r\n        nam = \"Frooty Cool Tingz\";\r\n        sym = \"FROOT\";\r\n        // EVMOS\r\n        /*  *\r\n        ice = ICE(0x890b24d94075B743a89171E5b8A2d9B9049eBf36);\r\n        GLC = Greenlist(0xecE922B118eEd554Fb9d3318a81FecB8C8D1bD95);\r\n        // */\r\n        // TESTNET EVMOS\r\n        /* */\r\n        ice = ICE(_ICE);\r\n        GLC = Greenlist(_Greenlist);\r\n        // */\r\n    }\r\n\r\n    function isOwner(address _adr) external view returns (bool) {\r\n        // SHOWS BOOL OF OWNERSTATUS OF ADDRESS\r\n        if (_adr == owner) return true;\r\n        else return false;\r\n    }\r\n\r\n    function mint(\r\n        uint256 _amnt,\r\n        uint256[] memory _diasIDs,\r\n        string[] memory _diasOBJs\r\n    ) external payable returns (uint256) {\r\n        // INITIATES THE MINT OF UP TO 7 TOKENS IF ALLOWED\r\n        require(minted < max - (sloz - slots), \"SOLD OUT\");\r\n        require(msg.value >= _amnt * price, \"INSUFFICIET FUNDS\");\r\n        require(start == true, \"MINT IS NOT YET LIVE\");\r\n        _doMint(_amnt, msg.sender, _diasIDs, _diasOBJs);\r\n        uint256 o = block.timestamp % 9;\r\n        for (uint256 i; i <= o; i++) ice.earn(msg.sender);\r\n        return minted;\r\n    }\r\n\r\n    function greenMint(uint256[] memory _diasIDs, string[] memory _diasOBJs)\r\n        external\r\n        returns (uint256)\r\n    {\r\n        // INITIATES THE MINT OF UP TO 7 TOKENS IF ALLOWED\r\n        require(minted < max, \"SOLD OUT\");\r\n        require(start == true, \"MINT IS NOT YET LIVE\");\r\n        bool boo = GLC.isListed(msg.sender);\r\n        require(boo == true, \"YOU ARE NOT GREENLISTED\");\r\n        require(slots <= sloz, \"ALL SLOTS HAVE BEEN MINTED\");\r\n        _doMint(1, msg.sender, _diasIDs, _diasOBJs);\r\n        ice.earn(msg.sender);\r\n        if (block.timestamp % 9 == 0 || block.timestamp % 9 == 9)\r\n            ice.earn(msg.sender);\r\n        slots++;\r\n        return minted;\r\n    }\r\n\r\n    function setStatus(uint256 _id, string memory _status)\r\n        external\r\n        payable\r\n        returns (bool)\r\n    {\r\n        require(ownedBy[_id] == msg.sender, \"YOU ARE NOT THE HOLDER\");\r\n        require(start == false, \"MINT IS STILL IN PROGRESS\");\r\n        require(msg.value >= 1 * 10**18);\r\n        ice.earn(msg.sender);\r\n        if (block.timestamp % 9 == 0 || block.timestamp % 9 == 9)\r\n            ice.earn(msg.sender);\r\n        status[_id] = _status;\r\n        return true;\r\n    }\r\n\r\n    function changeMintState() external onlyO returns (bool) {\r\n        return cMS();\r\n    }\r\n\r\n    function cMS() internal returns (bool) {\r\n        return start = !start;\r\n    }\r\n\r\n    // ONLY TESTNET\r\n    /* */\r\n    function changeMS() external returns (bool) {\r\n        return cMS();\r\n    }\r\n\r\n    // */\r\n\r\n    function mintOne(\r\n        address _adr,\r\n        uint256 _diasID,\r\n        string memory _diasOBJ\r\n    ) internal returns (uint256) {\r\n        // INTERNAL // MINTS ONE TOKEN\r\n        _mint(_adr, minted);\r\n        tid[minted] = _diasID;\r\n        dias[minted] = bytes(_diasOBJ);\r\n        minter[_adr] = minted;\r\n        minted++;\r\n        if (minted == max + 1) cMS();\r\n        return minted;\r\n    }\r\n\r\n    function _doMint(\r\n        uint256 _amnt,\r\n        address _adr,\r\n        uint256[] memory _diasIDs,\r\n        string[] memory _diasOBJs\r\n    ) internal returns (uint256) {\r\n        require(\r\n            balanceOf(_adr) + _amnt <= num,\r\n            \"EXCEEDED MAX MINTABLE TOKENS PER WALLET\"\r\n        );\r\n        require(minted + _amnt <= max, \"NOT ENOUGH SUPPLY\");\r\n        // INTERNAL // MINTS UP TO 7 TOKENS IN ONE TX\r\n        mintOne(_adr, _diasIDs[0], _diasOBJs[0]);\r\n        if (_amnt >= 2) {\r\n            mintOne(_adr, _diasIDs[0], _diasOBJs[0]);\r\n            if (_amnt >= 3) {\r\n                mintOne(_adr, _diasIDs[0], _diasOBJs[0]);\r\n                if (_amnt >= 4) {\r\n                    mintOne(_adr, _diasIDs[0], _diasOBJs[0]);\r\n                    if (_amnt >= 5) {\r\n                        mintOne(_adr, _diasIDs[0], _diasOBJs[0]);\r\n                        if (_amnt >= 6) {\r\n                            mintOne(_adr, _diasIDs[0], _diasOBJs[0]);\r\n                            if (_amnt >= 7) {\r\n                                mintOne(_adr, _diasIDs[0], _diasOBJs[0]);\r\n                            }\r\n                        }\r\n                    }\r\n                }\r\n            }\r\n        }\r\n        return minted;\r\n    }\r\n\r\n    function holder(uint256 _id) external view returns (address) {\r\n        // SHOWS OWNER OF TOKEN BY TID\r\n        return ownerOf(_id);\r\n    }\r\n\r\n    function clearSloz() external returns (bool) {\r\n        slots = 1234;\r\n        return true;\r\n    }\r\n\r\n    function flush() external returns (uint256) {\r\n        // WITHDRAW ALL ETHER FROM CONTRACT\r\n        payable(owner).transfer(address(this).balance);\r\n        return address(this).balance;\r\n    }\r\n\r\n    function flushERC20(address _erc) external returns (uint256) {\r\n        // WITHDRAW ALL COIN FROM CONTRACT\r\n        ERC20 coin = ERC20(_erc);\r\n        coin.transferFrom(address(this), owner, coin.balanceOf(address(this)));\r\n        return coin.balanceOf(address(this));\r\n    }\r\n\r\n    function flushERC721(address _erc, uint256 _id) external returns (uint256) {\r\n        // WITHDRAW ALL NFT FROM CONTRACT\r\n        ERC721 coin = ERC721(_erc);\r\n        coin.transferFrom(address(this), owner, _id);\r\n        return _id;\r\n    }\r\n}\r\n",
  "sourcePath": "C:\\Users\\juanx\\OneDrive\\Documents\\_prog\\work\\III6Dojo\\contracts\\xxx_old\\FrootyCoolTingz.sol",
  "compiler": {
    "name": "solc",
    "version": "0.8.18+commit.87f61d96.Emscripten.clang"
  },
  "schemaVersion": "3.4.11",
  "updatedAt": "2023-02-03T18:53:18.310Z",
  "devdoc": {
    "events": {
      "Approval(address,address,uint256)": {
        "details": "Emitted when the allowance of a `spender` for an `owner` is set by a call to {approve}. `value` is the new allowance."
      },
      "Transfer(address,address,uint256)": {
        "details": "Emitted when `value` tokens are moved from one account (`from`) to another (`to`). Note that `value` may be zero."
      }
    },
    "kind": "dev",
    "methods": {
      "allowance(address,address)": {
        "details": "See {IERC20-allowance}."
      },
      "approve(address,uint256)": {
        "details": "See {IERC20-approve}. Requirements: - `spender` cannot be the zero address."
      },
      "balanceOf(address)": {
        "details": "See {IERC20-balanceOf}."
      },
      "decimals()": {
        "details": "Returns the number of decimals used to get its user representation. For example, if `decimals` equals `2`, a balance of `505` tokens should be displayed to a user as `5.05` (`505 / 10 ** 2`). Tokens usually opt for a value of 18, imitating the relationship between Ether and Wei. This is the value {ERC20} uses, unless this function is overridden; NOTE: This information is only used for _display_ purposes: it in no way affects any of the arithmetic of the contract, including {IERC20-balanceOf} and {IERC20-transfer}."
      },
      "decreaseAllowance(address,uint256)": {
        "details": "Atomically decreases the allowance granted to `spender` by the caller. This is an alternative to {approve} that can be used as a mitigation for problems described in {IERC20-approve}. Emits an {Approval} event indicating the updated allowance. Requirements: - `spender` cannot be the zero address. - `spender` must have allowance for the caller of at least `subtractedValue`."
      },
      "increaseAllowance(address,uint256)": {
        "details": "Atomically increases the allowance granted to `spender` by the caller. This is an alternative to {approve} that can be used as a mitigation for problems described in {IERC20-approve}. Emits an {Approval} event indicating the updated allowance. Requirements: - `spender` cannot be the zero address."
      },
      "name()": {
        "details": "Returns the name of the token."
      },
      "symbol()": {
        "details": "Returns the symbol of the token, usually a shorter version of the name."
      },
      "totalSupply()": {
        "details": "See {IERC20-totalSupply}."
      },
      "transfer(address,uint256)": {
        "details": "See {IERC20-transfer}. Requirements: - `recipient` cannot be the zero address. - the caller must have a balance of at least `amount`."
      },
      "transferFrom(address,address,uint256)": {
        "details": "See {IERC20-transferFrom}. Emits an {Approval} event indicating the updated allowance. This is not required by the EIP. See the note at the beginning of {ERC20}. Requirements: - `sender` and `recipient` cannot be the zero address. - `sender` must have a balance of at least `amount`. - the caller must have allowance for ``sender``'s tokens of at least `amount`."
      }
    },
    "version": 1
  },
  "userdoc": {
    "kind": "user",
    "methods": {},
    "version": 1
  }
}