{
  "contractName": "iii6SafeVoting",
  "abi": [
    {
      "inputs": [
        {
          "internalType": "address payable",
          "name": "_shareToken",
          "type": "address"
        }
      ],
      "stateMutability": "nonpayable",
      "type": "constructor"
    },
    {
      "inputs": [],
      "name": "All_Slots_Taken",
      "type": "error"
    },
    {
      "inputs": [],
      "name": "Already_Listed",
      "type": "error"
    },
    {
      "inputs": [],
      "name": "Array_Length_Mismatch",
      "type": "error"
    },
    {
      "inputs": [],
      "name": "Event_Has_Ended",
      "type": "error"
    },
    {
      "inputs": [],
      "name": "Greenlist_Expired",
      "type": "error"
    },
    {
      "inputs": [],
      "name": "Insufficient_Amount",
      "type": "error"
    },
    {
      "inputs": [],
      "name": "Insufficient_Balance",
      "type": "error"
    },
    {
      "inputs": [],
      "name": "Insufficient_Funds",
      "type": "error"
    },
    {
      "inputs": [],
      "name": "Insufficient_MLQ",
      "type": "error"
    },
    {
      "inputs": [],
      "name": "Insufficient_Supply",
      "type": "error"
    },
    {
      "inputs": [],
      "name": "Invalid_Amount",
      "type": "error"
    },
    {
      "inputs": [],
      "name": "Invalid_Response",
      "type": "error"
    },
    {
      "inputs": [],
      "name": "Max_Tokens_Minted",
      "type": "error"
    },
    {
      "inputs": [],
      "name": "Min_Requirements_Not_Met",
      "type": "error"
    },
    {
      "inputs": [],
      "name": "Mint_In_Progress",
      "type": "error"
    },
    {
      "inputs": [],
      "name": "Mint_Is_Not_Yet_Live",
      "type": "error"
    },
    {
      "inputs": [],
      "name": "Not_Burnable",
      "type": "error"
    },
    {
      "inputs": [],
      "name": "Not_Friends",
      "type": "error"
    },
    {
      "inputs": [],
      "name": "Not_Friends_Rev",
      "type": "error"
    },
    {
      "inputs": [],
      "name": "Not_Greenlisted",
      "type": "error"
    },
    {
      "inputs": [],
      "name": "Not_Pausable",
      "type": "error"
    },
    {
      "inputs": [],
      "name": "Sold_Out",
      "type": "error"
    },
    {
      "inputs": [],
      "name": "Unauthorized",
      "type": "error"
    },
    {
      "inputs": [],
      "name": "You_Are_Not_The_Holder",
      "type": "error"
    },
    {
      "inputs": [],
      "name": "You_Need_To_Wait",
      "type": "error"
    },
    {
      "inputs": [
        {
          "internalType": "address",
          "name": "",
          "type": "address"
        }
      ],
      "name": "memNum",
      "outputs": [
        {
          "internalType": "uint256",
          "name": "",
          "type": "uint256"
        }
      ],
      "stateMutability": "view",
      "type": "function"
    },
    {
      "inputs": [
        {
          "internalType": "uint256",
          "name": "",
          "type": "uint256"
        }
      ],
      "name": "proposals",
      "outputs": [
        {
          "internalType": "uint256",
          "name": "rid",
          "type": "uint256"
        },
        {
          "internalType": "uint256",
          "name": "voteCount",
          "type": "uint256"
        },
        {
          "internalType": "enum iii6Proposals.Voting",
          "name": "state",
          "type": "uint8"
        }
      ],
      "stateMutability": "view",
      "type": "function"
    },
    {
      "inputs": [
        {
          "internalType": "address[]",
          "name": "_members",
          "type": "address[]"
        },
        {
          "internalType": "uint256[]",
          "name": "_shares",
          "type": "uint256[]"
        }
      ],
      "name": "proposeRedistribution",
      "outputs": [
        {
          "internalType": "bool",
          "name": "",
          "type": "bool"
        }
      ],
      "stateMutability": "nonpayable",
      "type": "function"
    },
    {
      "inputs": [],
      "name": "cancelProposal",
      "outputs": [
        {
          "internalType": "bool",
          "name": "",
          "type": "bool"
        }
      ],
      "stateMutability": "nonpayable",
      "type": "function"
    },
    {
      "inputs": [],
      "name": "approveProposal",
      "outputs": [
        {
          "internalType": "bool",
          "name": "",
          "type": "bool"
        }
      ],
      "stateMutability": "nonpayable",
      "type": "function"
    }
  ],
  "bytecode": "0x60806040523480156200001157600080fd5b5060405162002020380380620020208339818101604052810190620000379190620000e9565b80600660006101000a81548173ffffffffffffffffffffffffffffffffffffffff021916908373ffffffffffffffffffffffffffffffffffffffff160217905550506200011b565b600080fd5b600073ffffffffffffffffffffffffffffffffffffffff82169050919050565b6000620000b18262000084565b9050919050565b620000c381620000a4565b8114620000cf57600080fd5b50565b600081519050620000e381620000b8565b92915050565b6000602082840312156200010257620001016200007f565b5b60006200011284828501620000d2565b91505092915050565b611ef5806200012b6000396000f3fe608060405234801561001057600080fd5b50600436106100575760003560e01c8063013cf08b1461005c5780632606d8c61461008e5780633e504e30146100be5780637e056b91146100ee5780639070577f1461010c575b600080fd5b610076600480360381019061007191906117a1565b61012a565b60405161008593929190611854565b60405180910390f35b6100a860048036038101906100a39190611b05565b610171565b6040516100b59190611b98565b60405180910390f35b6100d860048036038101906100d39190611bb3565b61036e565b6040516100e59190611be0565b60405180910390f35b6100f6610386565b6040516101039190611b98565b60405180910390f35b610114610be0565b6040516101219190611b98565b60405180910390f35b6005818154811061013a57600080fd5b90600052602060002090600702016000915090508060000154908060010154908060060160009054906101000a900460ff16905083565b600080600454036101f057600160048190555060015483511415806101995750600154825114155b806101a8575060025460015410155b156101df576040517fea5db9c500000000000000000000000000000000000000000000000000000000815260040160405180910390fd5b6101e98383610f79565b9050610368565b60016002811115610204576102036117dd565b5b600560016004546102159190611c2a565b8154811061022657610225611c5e565b5b906000526020600020906007020160060160009054906101000a900460ff166002811115610257576102566117dd565b5b141580156102c95750600280811115610273576102726117dd565b5b600560016004546102849190611c2a565b8154811061029557610294611c5e565b5b906000526020600020906007020160060160009054906101000a900460ff1660028111156102c6576102c56117dd565b5b14155b15610300576040517f018a987200000000000000000000000000000000000000000000000000000000815260040160405180910390fd5b60015483511415806103155750600154825114155b80610324575060025460015410155b1561035b576040517fea5db9c500000000000000000000000000000000000000000000000000000000815260040160405180910390fd5b6103658383610f79565b90505b92915050565b60006020528060005260406000206000915090505481565b6000806005600160045461039a9190611c2a565b815481106103ab576103aa611c5e565b5b90600052602060002090600702016040518060e001604052908160008201548152602001600182015481526020016002820180548060200260200160405190810160405280929190818152602001828054801561045d57602002820191906000526020600020905b8160009054906101000a900473ffffffffffffffffffffffffffffffffffffffff1673ffffffffffffffffffffffffffffffffffffffff1681526020019060010190808311610413575b50505050508152602001600382018054806020026020016040519081016040528092919081815260200182805480156104b557602002820191906000526020600020905b8154815260200190600101908083116104a1575b505050505081526020016004820180548060200260200160405190810160405280929190818152602001828054801561050d57602002820191906000526020600020905b8154815260200190600101908083116104f9575b505050505081526020016005820180548060200260200160405190810160405280929190818152602001828054801561058a57602002820191906000526020600020906000905b82829054906101000a900460ff161515815260200190600101906020826000010492830192600103820291508084116105545790505b505050505081526020016006820160009054906101000a900460ff1660028111156105b8576105b76117dd565b5b60028111156105ca576105c96117dd565b5b8152505090506000600660009054906101000a900473ffffffffffffffffffffffffffffffffffffffff1673ffffffffffffffffffffffffffffffffffffffff166370a08231336040518263ffffffff1660e01b815260040161062d9190611c9c565b602060405180830381865afa15801561064a573d6000803e3d6000fd5b505050506040513d601f19601f8201168201806040525081019061066e9190611ccc565b9050600080600090505b83604001515181116106ec578360400151818151811061069b5761069a611c5e565b5b602002602001015173ffffffffffffffffffffffffffffffffffffffff163373ffffffffffffffffffffffffffffffffffffffff16036106d9578091505b80806106e490611cf9565b915050610678565b5060008360600151828151811061070657610705611c5e565b5b602002602001015190506000818461071e9190611d4b565b90506000811215801561074e57508460800151838151811061074357610742611c5e565b5b602002602001015181145b156107f557600660009054906101000a900473ffffffffffffffffffffffffffffffffffffffff1673ffffffffffffffffffffffffffffffffffffffff1663095ea7b330836040518363ffffffff1660e01b81526004016107b0929190611d8e565b6020604051808303816000875af11580156107cf573d6000803e3d6000fd5b505050506040513d601f19601f820116820180604052508101906107f39190611de3565b505b60018560a00151848151811061080e5761080d611c5e565b5b60200260200101901515908115158152505084602001805180919061083290611cf9565b8152505060006108406112a9565b90506000866040015151905086602001518114801561085c5750815b15610bd25760028760c00190600281111561087a576108796117dd565b5b9081600281111561088e5761088d6117dd565b5b8152505060005b87604001515181116109bb576000886080015182815181106108ba576108b9611c5e565b5b602002602001015112156109a857600660009054906101000a900473ffffffffffffffffffffffffffffffffffffffff1673ffffffffffffffffffffffffffffffffffffffff166323b872dd8960400151838151811061091d5761091c611c5e565b5b6020026020010151308b60800151858151811061093d5761093c611c5e565b5b60200260200101516040518463ffffffff1660e01b815260040161096393929190611e10565b6020604051808303816000875af1158015610982573d6000803e3d6000fd5b505050506040513d601f19601f820116820180604052508101906109a69190611de3565b505b80806109b390611cf9565b915050610895565b5060005b8760400151518111610ae4576000886080015182815181106109e4576109e3611c5e565b5b602002602001015112610ad157600660009054906101000a900473ffffffffffffffffffffffffffffffffffffffff1673ffffffffffffffffffffffffffffffffffffffff166323b872dd308a604001518481518110610a4757610a46611c5e565b5b60200260200101518b608001518581518110610a6657610a65611c5e565b5b60200260200101516040518463ffffffff1660e01b8152600401610a8c93929190611e10565b6020604051808303816000875af1158015610aab573d6000803e3d6000fd5b505050506040513d601f19601f82011682018060405250810190610acf9190611de3565b505b8080610adc90611cf9565b9150506109bf565b508660056001600454610af79190611c2a565b81548110610b0857610b07611c5e565b5b906000526020600020906007020160008201518160000155602082015181600101556040820151816002019080519060200190610b46929190611553565b506060820151816003019080519060200190610b639291906115dd565b506080820151816004019080519060200190610b8092919061162a565b5060a0820151816005019080519060200190610b9d929190611677565b5060c08201518160060160006101000a81548160ff02191690836002811115610bc957610bc86117dd565b5b02179055509050505b600197505050505050505090565b60008060056001600454610bf49190611c2a565b81548110610c0557610c04611c5e565b5b90600052602060002090600702016040518060e0016040529081600082015481526020016001820154815260200160028201805480602002602001604051908101604052809291908181526020018280548015610cb757602002820191906000526020600020905b8160009054906101000a900473ffffffffffffffffffffffffffffffffffffffff1673ffffffffffffffffffffffffffffffffffffffff1681526020019060010190808311610c6d575b5050505050815260200160038201805480602002602001604051908101604052809291908181526020018280548015610d0f57602002820191906000526020600020905b815481526020019060010190808311610cfb575b5050505050815260200160048201805480602002602001604051908101604052809291908181526020018280548015610d6757602002820191906000526020600020905b815481526020019060010190808311610d53575b5050505050815260200160058201805480602002602001604051908101604052809291908181526020018280548015610de457602002820191906000526020600020906000905b82829054906101000a900460ff16151581526020019060010190602082600001049283019260010382029150808411610dae5790505b505050505081526020016006820160009054906101000a900460ff166002811115610e1257610e116117dd565b5b6002811115610e2457610e236117dd565b5b81525050905060018160c001906002811115610e4357610e426117dd565b5b90816002811115610e5757610e566117dd565b5b815250508060056001600454610e6d9190611c2a565b81548110610e7e57610e7d611c5e565b5b906000526020600020906007020160008201518160000155602082015181600101556040820151816002019080519060200190610ebc929190611553565b506060820151816003019080519060200190610ed99291906115dd565b506080820151816004019080519060200190610ef692919061162a565b5060a0820151816005019080519060200190610f13929190611677565b5060c08201518160060160006101000a81548160ff02191690836002811115610f3f57610f3e6117dd565b5b021790555090505060016002811115610f5b57610f5a6117dd565b5b8160c001516002811115610f7257610f716117dd565b5b1491505090565b600060608060008060005b87518111611110576000858281518110610fa157610fa0611c5e565b5b602002602001019015159081151581525050868181518110610fc657610fc5611c5e565b5b6020026020010151600660009054906101000a900473ffffffffffffffffffffffffffffffffffffffff1673ffffffffffffffffffffffffffffffffffffffff166370a082318a848151811061101f5761101e611c5e565b5b60200260200101516040518263ffffffff1660e01b81526004016110439190611c9c565b602060405180830381865afa158015611060573d6000803e3d6000fd5b505050506040513d601f19601f820116820180604052508101906110849190611ccc565b61108e9190611d4b565b8482815181106110a1576110a0611c5e565b5b6020026020010181815250508681815181106110c0576110bf611c5e565b5b6020026020010151836110d39190611e47565b92508381815181106110e8576110e7611c5e565b5b6020026020010151826110fb9190611e7b565b9150808061110890611cf9565b915050610f84565b50620186a082101580611124575060008114155b1561115b576040517f064a6c4100000000000000000000000000000000000000000000000000000000815260040160405180910390fd5b6040518060e00160405280600454815260200160008152602001888152602001878152602001848152602001858152602001600060028111156111a1576111a06117dd565b5b8152506005600454815481106111ba576111b9611c5e565b5b9060005260206000209060070201600082015181600001556020820151816001015560408201518160020190805190602001906111f8929190611553565b5060608201518160030190805190602001906112159291906115dd565b50608082015181600401908051906020019061123292919061162a565b5060a082015181600501908051906020019061124f929190611677565b5060c08201518160060160006101000a81548160ff0219169083600281111561127b5761127a6117dd565b5b02179055509050506004600081548092919061129690611cf9565b9190505550600194505050505092915050565b600080600560016004546112bd9190611c2a565b815481106112ce576112cd611c5e565b5b90600052602060002090600702016040518060e001604052908160008201548152602001600182015481526020016002820180548060200260200160405190810160405280929190818152602001828054801561138057602002820191906000526020600020905b8160009054906101000a900473ffffffffffffffffffffffffffffffffffffffff1673ffffffffffffffffffffffffffffffffffffffff1681526020019060010190808311611336575b50505050508152602001600382018054806020026020016040519081016040528092919081815260200182805480156113d857602002820191906000526020600020905b8154815260200190600101908083116113c4575b505050505081526020016004820180548060200260200160405190810160405280929190818152602001828054801561143057602002820191906000526020600020905b81548152602001906001019080831161141c575b50505050508152602001600582018054806020026020016040519081016040528092919081815260200182805480156114ad57602002820191906000526020600020906000905b82829054906101000a900460ff161515815260200190600101906020826000010492830192600103820291508084116114775790505b505050505081526020016006820160009054906101000a900460ff1660028111156114db576114da6117dd565b5b60028111156114ed576114ec6117dd565b5b81525050905060006001905060005b826040015151811161154a57600115158360a00151828151811061152357611522611c5e565b5b602002602001015115150361153757600091505b808061154290611cf9565b9150506114fc565b50809250505090565b8280548282559060005260206000209081019282156115cc579160200282015b828111156115cb5782518260006101000a81548173ffffffffffffffffffffffffffffffffffffffff021916908373ffffffffffffffffffffffffffffffffffffffff16021790555091602001919060010190611573565b5b5090506115d9919061171d565b5090565b828054828255906000526020600020908101928215611619579160200282015b828111156116185782518255916020019190600101906115fd565b5b509050611626919061171d565b5090565b828054828255906000526020600020908101928215611666579160200282015b8281111561166557825182559160200191906001019061164a565b5b509050611673919061173a565b5090565b82805482825590600052602060002090601f0160209004810192821561170c5791602002820160005b838211156116dd57835183826101000a81548160ff02191690831515021790555092602001926001016020816000010492830192600103026116a0565b801561170a5782816101000a81549060ff02191690556001016020816000010492830192600103026116dd565b505b509050611719919061171d565b5090565b5b8082111561173657600081600090555060010161171e565b5090565b5b8082111561175357600081600090555060010161173b565b5090565b6000604051905090565b600080fd5b600080fd5b6000819050919050565b61177e8161176b565b811461178957600080fd5b50565b60008135905061179b81611775565b92915050565b6000602082840312156117b7576117b6611761565b5b60006117c58482850161178c565b91505092915050565b6117d78161176b565b82525050565b7f4e487b7100000000000000000000000000000000000000000000000000000000600052602160045260246000fd5b6003811061181d5761181c6117dd565b5b50565b600081905061182e8261180c565b919050565b600061183e82611820565b9050919050565b61184e81611833565b82525050565b600060608201905061186960008301866117ce565b61187660208301856117ce565b6118836040830184611845565b949350505050565b600080fd5b6000601f19601f8301169050919050565b7f4e487b7100000000000000000000000000000000000000000000000000000000600052604160045260246000fd5b6118d982611890565b810181811067ffffffffffffffff821117156118f8576118f76118a1565b5b80604052505050565b600061190b611757565b905061191782826118d0565b919050565b600067ffffffffffffffff821115611937576119366118a1565b5b602082029050602081019050919050565b600080fd5b600073ffffffffffffffffffffffffffffffffffffffff82169050919050565b60006119788261194d565b9050919050565b6119888161196d565b811461199357600080fd5b50565b6000813590506119a58161197f565b92915050565b60006119be6119b98461191c565b611901565b905080838252602082019050602084028301858111156119e1576119e0611948565b5b835b81811015611a0a57806119f68882611996565b8452602084019350506020810190506119e3565b5050509392505050565b600082601f830112611a2957611a2861188b565b5b8135611a398482602086016119ab565b91505092915050565b600067ffffffffffffffff821115611a5d57611a5c6118a1565b5b602082029050602081019050919050565b6000611a81611a7c84611a42565b611901565b90508083825260208201905060208402830185811115611aa457611aa3611948565b5b835b81811015611acd5780611ab9888261178c565b845260208401935050602081019050611aa6565b5050509392505050565b600082601f830112611aec57611aeb61188b565b5b8135611afc848260208601611a6e565b91505092915050565b60008060408385031215611b1c57611b1b611761565b5b600083013567ffffffffffffffff811115611b3a57611b39611766565b5b611b4685828601611a14565b925050602083013567ffffffffffffffff811115611b6757611b66611766565b5b611b7385828601611ad7565b9150509250929050565b60008115159050919050565b611b9281611b7d565b82525050565b6000602082019050611bad6000830184611b89565b92915050565b600060208284031215611bc957611bc8611761565b5b6000611bd784828501611996565b91505092915050565b6000602082019050611bf560008301846117ce565b92915050565b7f4e487b7100000000000000000000000000000000000000000000000000000000600052601160045260246000fd5b6000611c358261176b565b9150611c408361176b565b9250828203905081811115611c5857611c57611bfb565b5b92915050565b7f4e487b7100000000000000000000000000000000000000000000000000000000600052603260045260246000fd5b611c968161196d565b82525050565b6000602082019050611cb16000830184611c8d565b92915050565b600081519050611cc681611775565b92915050565b600060208284031215611ce257611ce1611761565b5b6000611cf084828501611cb7565b91505092915050565b6000611d048261176b565b91507fffffffffffffffffffffffffffffffffffffffffffffffffffffffffffffffff8203611d3657611d35611bfb565b5b600182019050919050565b6000819050919050565b6000611d5682611d41565b9150611d6183611d41565b9250828203905081811260008412168282136000851215161715611d8857611d87611bfb565b5b92915050565b6000604082019050611da36000830185611c8d565b611db060208301846117ce565b9392505050565b611dc081611b7d565b8114611dcb57600080fd5b50565b600081519050611ddd81611db7565b92915050565b600060208284031215611df957611df8611761565b5b6000611e0784828501611dce565b91505092915050565b6000606082019050611e256000830186611c8d565b611e326020830185611c8d565b611e3f60408301846117ce565b949350505050565b6000611e528261176b565b9150611e5d8361176b565b9250828201905080821115611e7557611e74611bfb565b5b92915050565b6000611e8682611d41565b9150611e9183611d41565b925082820190508281121560008312168382126000841215161715611eb957611eb8611bfb565b5b9291505056fea264697066735822122004accba4651f47679e89c7b8b71dde520754b8c7bbbc999f1b8cb561ed9a4c7c64736f6c63430008110033",
  "immutableReferences": {},
  "source": "// SPDX-License-Identifier: GPL-3.0\r\n// // // // // // // // // // // // // // // // // // // // // // // // // // // // // // // // // // // // // // // // // // // // // // // // // // // // // // // // // // // // //\r\n//\r\n//      MMWKd:..                                                                                    ..:dKWMM\r\n//      MKl.                                                                                            .lKW\r\n//      O'       ..''''''''''''.     .''''''.     .'''''.      .''''''''''''''.     .''''''''''''..       'O\r\n//      '     .ckKNNWNWWWWWWWWWk.   .xNWWNWNl    ,0WWWWW0,     lNWWWWWWWWWNWNk'    ;0NNNWWWWWWWWNNKkc.     '\r\n//           ,OWMMMMMMMMMMMMMMMO.   .kMMMMMWl    ,KMMMMMK,     lWMMMMMMMMMMM0,    ;KMMMMMMMMMMMMMMMMWO,\r\n//          .kMMMMMMMMMMMMMMMMMO.   .kMMMMMWl    ,KMMMMMK,     lWMMMMMMMMMM0,    ;KMMMMMMMMMMMMMMMMMMMk.\r\n//          '0MMMMMMMMMMMMMMMMMO.   .kMMMMMWl    ,KMMMMMK,     lWMMMMMMMMM0,    :KMMMMMMMMMMMMMMMMMMMM0'\r\n//          '0MMMMMMMMMMMMMMMMMO.   .kMMMMMWl    ,KMMMMMK,     lWMMMMMMMM0,    :KMMMMMMMMMMMMMMMMMMMMM0'\r\n//          '0MMMMMMMMMMMMMMMMMO.   .kMMMMMWl    ,KMMMMMK,     lWMMMMMMM0,    ;0NNWWMMMMMMMMMMMMMMMMMM0'\r\n//          '0MMMMMMMMMMMMMMMMMO.   .kMMMMMWl    ,KMMMMMK,     lWMMMMMM0,     .'.',;lkNMMMMMMMMMMMMMMM0'\r\n//          '0MMMMMMMMMMMMMMMMMO.   .kMMMMMWl    ,KMMMMMK,     lWMMMMMK;              ,kWMMMMMMMMMMMMM0'\r\n//          '0MMMMMMMMMMMMMMMMMO.   .kMMMMMWl    ,KMMMMMK,     lWMMMMX:    .:oxxdc'    .dWMMMMMMMMMMMM0'\r\n//          '0MMMMMMMMMMMMMMMMMO.   .kMMMMMWl    ,KMMMMMK,     lWMMMWd.   ,OWMMMMMXl.   '0MMMMMMMMMMMM0'\r\n//          '0MMMMMMMMMMMMMMMMMO.   .kMMMMMWl    ,KMMMMMK,     lWMMMX;   .kMMMMMMMMK,   .xMMMMMMMMMMMM0'\r\n//          '0MMMMMMMMMMMMMMMMMO.   .kMMMMMWl    ,KMMMMMK,     lWMMM0'   .OMMMMMMMMX;   .xMMMMMMMMMMMM0'\r\n//          .OMMMMMMMMMMMMMMMMMO.   .kMMMMMWl    ,KMMMMMK,     lWMMMK,    lNMMMMMMWx.   '0MMMMMMMMMMMMO.\r\n//           lNMMMMMMMMMMMMMMMMO.   .kMMMMMWl    ,KMMMMMK,     lWMMMWd.   .:x0KKKkc.   .dWMMMMMMMMMMMNl\r\n//      .    .c0WMMMMMMMMMMMMMMO.   .kMMMMMWo    ,KMMMMMK,     lWMMMMNd.     ....     .xNMMMMMMMMMMW0c.    .\r\n//      l      .,lddxxxxxxxxxxxc.    :xxxxxd,    .lxxxxxl.     ,dxxxxxd:.            .cdxxxxxxxxddl,.      l\r\n//      No.                                                                                              .oN\r\n//      MW0l'                                                                                          'l0WM\r\n//      MMMWKd;.                                                                                    .;dKWMMM\r\n//\r\n// // // // // // // // // // // // // // // // // // // // // // // // // // // // // // // // // // // // // // // // // // // // // // // // // // // // // // // // // // // // //\r\n//                                                                                                                                                                                  //\r\n//      @dev            ::              Aron Mauritala Ayuk                                                                                                                                          //\r\n//      @msg            ::              stereo@iii6.xyz                                                                                                                                   //\r\n//      @github         ::              @stereoIII6\r\n//      @twitter        ::              @stereoIII6                                                                                                                                              //\r\n//                                                                                                                                                                                  //\r\n// // // // // // // // // // // // // // // // // // // // // // // // // // // // // // // // // // // // // // // // // // // // // // // // // // // // // // // // // // // // //\r\n//                                                                                                                                                                                  //\r\n//      @dev            ::              Juan Xavier Valverde                                                                                                                                    //\r\n//      @msg            ::              juanxavier@iii6.xyz                                                                                                                               //\r\n//      @twitter        ::              @JuanXavier                                                                                                                                             //\r\n//      @github         ::              @JuanXavier                                                                                                                                             //\r\n//                                                                                                                                                                                  //                                                                                                                                                                                 //\r\n// // // // // // // // // // // // // // // // // // // // // // // // // // // // // // // // // // // // // // // // // // // // // // // // // // // // // // // // // // // // //\r\n//  *   *   *   *   *   *   *   *   *   *   *   *   *   *   *   *   *   *   *   *   *   *   *   *   *   *   *   *   *   *   *   *   *   *   *   *   *   *   *   *   *   *   *   *   //\r\n// // // // // // // // // // // // // // // // // // // // // // // // // // // // // // // // // // // // // // // // // // // // // // // // // // // // // // // // // // // // //\r\n//                                                                                                                                                                                  //\r\n//      @company        ::              Fractio Holding                                                                                                                                                                       //\r\n//      @title          ::              iii6 Safes                                                                                                                            //\r\n//      @description    ::              This is a Asset Safe for all Board Members                                                                                                                            //\r\n//      @version        ::              0.0.1                                                                                                                                       //\r\n//      @purpose        ::              Multinet Address Storage                                                                                                           //\r\n//                                                                                                                                                                                  //\r\n//                                                                                                                                                                                  //\r\n//                                                                                                                                                                                  //\r\n//                                                                                                                                                                                  //\r\n//                                                                                                                                                                                  //\r\n// // // // // // // // // // // // // // // // // // // // // // // // // // // // // // // // // // // // // // // // // // // // // // // // // // // // // // // // // // // // //\r\n//  *   *   *   *   *   *   *   *   *   *   *   *   *   *   *   *   *   *   *   *   *   *   *   *   *   *   *   *   *   *   *   *   *   *   *   *   *   *   *   *   *   *   *   *   //\r\n// // // // // // // // // // // // // // // // // // // // // // // // // // // // // // // // // // // // // // // // // // // // // // // // // // // // // // // // // // // // //\r\n\r\n/////////////////////////////////////////////////////////////////////////////////////////////////////////////////////\r\n\r\n/////////////////////////////////////////////////////////////////////////////////////////////////////////////////////\r\n\r\npragma solidity ^0.8.7;\r\n\r\nimport \"../Assets/iii6CoinModel.sol\";\r\nimport \"../Math/iii6Math.sol\";\r\nimport \"../Misc/iii6Proposals.sol\";\r\nimport \"../Misc/iii6Logs.sol\";\r\nimport \"../Misc/Errors/iii6Errors.sol\";\r\n\r\ncontract iii6SafeVoting is iii6Errors, iii6Proposals {\r\n    // board member id callback from address\r\n    mapping(address => uint256) public memNum;\r\n    // number of board members starting at 1\r\n    uint256 bms;\r\n    // max number of board members starting at 1\r\n    uint256 maxMembers;\r\n    // minimumshare out of 100000\r\n    uint256 minShare;\r\n    // redistribution count\r\n    uint256 rid;\r\n    Proposal[] public proposals;\r\n    iii6CoinModel BoardShares;\r\n\r\n    constructor(address payable _shareToken) {\r\n        BoardShares = iii6CoinModel(_shareToken);\r\n    }\r\n\r\n    /**\r\n     * @dev allows members to make redistribution proposals\r\n     * @param _members array of board members addresses\r\n     * @param _shares array of share amounts of board members\r\n     * @return exit in bool  makeProposal()\r\n     */\r\n\r\n    function proposeRedistribution(\r\n        address[] memory _members,\r\n        uint256[] memory _shares\r\n    ) external returns (bool) {\r\n        if (rid == 0) {\r\n            // first redistribution\r\n            rid = 1;\r\n            // check member count and share count\r\n            if (\r\n                _members.length != bms ||\r\n                _shares.length != bms ||\r\n                bms >= maxMembers\r\n            ) revert All_Slots_Taken();\r\n\r\n            return _makeProposal(_members, _shares);\r\n        } else {\r\n            if (\r\n                proposals[rid - 1].state != Voting.Canceled &&\r\n                proposals[rid - 1].state != Voting.Approved\r\n            ) revert Event_Has_Ended();\r\n            if (\r\n                _members.length != bms ||\r\n                _shares.length != bms ||\r\n                bms >= maxMembers\r\n            ) revert All_Slots_Taken();\r\n            return _makeProposal(_members, _shares);\r\n        }\r\n    }\r\n\r\n    /**\r\n     * @dev fullfills proposal creation\r\n     * @param _members array of board members addresses\r\n     * @param _shares array of share amounts of board members\r\n     * @return exit in bool true\r\n     */\r\n    function _makeProposal(address[] memory _members, uint256[] memory _shares)\r\n        internal\r\n        returns (bool)\r\n    {\r\n        // create approvals uint[] with numMembers Elements\r\n        bool[] memory approvals;\r\n        int256[] memory difs;\r\n        // check if shares are total < 100000\r\n        uint256 cumu = 0;\r\n        int256 cumud = 0;\r\n        for (uint256 i = 0; i <= _members.length; i++) {\r\n            approvals[i] = false;\r\n            difs[i] =\r\n                int256(BoardShares.balanceOf(_members[i])) -\r\n                int256(_shares[i]);\r\n            cumu += _shares[i];\r\n            cumud += difs[i];\r\n        }\r\n        if (cumu >= 100000 || cumud != 0) revert Invalid_Amount();\r\n        // create first proposal\r\n        proposals[rid] = Proposal(\r\n            rid,\r\n            0,\r\n            _members,\r\n            _shares,\r\n            difs,\r\n            approvals,\r\n            Voting.Active\r\n        );\r\n        rid++;\r\n        return true;\r\n    }\r\n\r\n    /**\r\n     * @dev cancels proposal creation and destroys proposal\r\n     * @return exit in bool true\r\n     */\r\n    function cancelProposal() external returns (bool) {\r\n        // Get Last Proposal data\r\n        Proposal memory props = proposals[rid - 1];\r\n        // Set Proposal state canceled\r\n        props.state = Voting.Canceled;\r\n        // exit with check if canceled bool\r\n        proposals[rid - 1] = props;\r\n        return props.state == Voting.Canceled;\r\n    }\r\n\r\n    /**\r\n     * @dev allows members to approve proposal creation and\r\n     * in case they have to give away shares transfers those to the contract\r\n     * and afterwards send the sahres to members who are supposed to receive shares\r\n     * @return exit in bool true\r\n     */\r\n    function approveProposal() external returns (bool) {\r\n        // Get Last Proposal data\r\n        Proposal memory props = proposals[rid - 1];\r\n        // Get old balance\r\n        uint256 oldBal = BoardShares.balanceOf(msg.sender);\r\n        // check position to get share amount\r\n        uint256 pos;\r\n        for (uint256 i = 0; i <= props.members.length; i++) {\r\n            if (msg.sender == props.members[i]) pos = i;\r\n        }\r\n        // get share amount\r\n        uint256 newBal = props.shares[pos];\r\n        // get difference old - new to check if approval is needed\r\n        int256 difBal = int256(oldBal) - int256(newBal);\r\n        // check if member recieves (negative diference) or has to move funds (positive diference)\r\n        if (difBal >= 0 && difBal == props.difs[pos]) {\r\n            BoardShares.approve(address(this), uint256(difBal));\r\n        }\r\n        props.votes[pos] = true;\r\n        props.voteCount++;\r\n        bool aT = _allTrue();\r\n        uint256 a = props.members.length;\r\n        if (a == props.voteCount && aT) {\r\n            props.state = Voting.Approved;\r\n            // send tokens to contract\r\n            for (uint256 i = 0; i <= props.members.length; i++) {\r\n                if (props.difs[i] < 0) {\r\n                    BoardShares.transferFrom(\r\n                        props.members[i],\r\n                        address(this),\r\n                        uint256(props.difs[i])\r\n                    );\r\n                }\r\n            }\r\n            // sends tokens to users\r\n            for (uint256 i = 0; i <= props.members.length; i++) {\r\n                if (props.difs[i] >= 0) {\r\n                    BoardShares.transferFrom(\r\n                        address(this),\r\n                        props.members[i],\r\n                        uint256(props.difs[i])\r\n                    );\r\n                }\r\n            }\r\n            proposals[rid - 1] = props;\r\n        }\r\n        return true;\r\n    }\r\n\r\n    /**\r\n     * @dev checks if all users approved the proposal\r\n     * @return exit in bool _allTrue\r\n     */\r\n    function _allTrue() internal view returns (bool) {\r\n        // Get Last Proposal data\r\n        Proposal memory props = proposals[rid - 1];\r\n        bool check = true;\r\n        for (uint256 i = 0; i <= props.members.length; i++) {\r\n            if (props.votes[i] == true) check = false;\r\n        }\r\n        return check;\r\n    }\r\n}\r\n",
  "sourcePath": "C:\\Users\\juanx\\OneDrive\\Documents\\work\\III6Dojo\\contracts\\iii6Utils\\Wallets\\iii6SafeVoting.sol",
  "compiler": {
    "name": "solc",
    "version": "0.8.17+commit.8df45f5f.Emscripten.clang"
  },
  "schemaVersion": "3.4.11",
  "updatedAt": "2022-12-19T18:38:50.946Z",
  "devdoc": {
    "kind": "dev",
    "methods": {
      "approveProposal()": {
        "details": "allows members to approve proposal creation and in case they have to give away shares transfers those to the contract and afterwards send the sahres to members who are supposed to receive shares",
        "returns": {
          "_0": "exit in bool true"
        }
      },
      "cancelProposal()": {
        "details": "cancels proposal creation and destroys proposal",
        "returns": {
          "_0": "exit in bool true"
        }
      },
      "proposeRedistribution(address[],uint256[])": {
        "details": "allows members to make redistribution proposals",
        "params": {
          "_members": "array of board members addresses",
          "_shares": "array of share amounts of board members"
        },
        "returns": {
          "_0": "exit in bool  makeProposal()"
        }
      }
    },
    "version": 1
  },
  "userdoc": {
    "kind": "user",
    "methods": {},
    "version": 1
  }
}