{
  "contractName": "iii6CoinFactory",
  "abi": [
    {
      "inputs": [],
      "stateMutability": "nonpayable",
      "type": "constructor"
    },
    {
      "inputs": [],
      "name": "COIN_USD",
      "outputs": [
        {
          "internalType": "uint256",
          "name": "",
          "type": "uint256"
        }
      ],
      "stateMutability": "view",
      "type": "function"
    },
    {
      "inputs": [],
      "name": "ETH_USD",
      "outputs": [
        {
          "internalType": "uint256",
          "name": "",
          "type": "uint256"
        }
      ],
      "stateMutability": "view",
      "type": "function"
    },
    {
      "inputs": [],
      "name": "X_USD",
      "outputs": [
        {
          "internalType": "uint256",
          "name": "",
          "type": "uint256"
        }
      ],
      "stateMutability": "view",
      "type": "function"
    },
    {
      "inputs": [],
      "name": "Y_USD",
      "outputs": [
        {
          "internalType": "uint256",
          "name": "",
          "type": "uint256"
        }
      ],
      "stateMutability": "view",
      "type": "function"
    },
    {
      "inputs": [
        {
          "internalType": "uint256",
          "name": "_amt",
          "type": "uint256"
        }
      ],
      "name": "coinPriceOfEth",
      "outputs": [
        {
          "internalType": "uint256",
          "name": "",
          "type": "uint256"
        }
      ],
      "stateMutability": "view",
      "type": "function"
    },
    {
      "inputs": [
        {
          "internalType": "uint256",
          "name": "_amt",
          "type": "uint256"
        }
      ],
      "name": "coinPriceOfUSD",
      "outputs": [
        {
          "internalType": "uint256",
          "name": "",
          "type": "uint256"
        }
      ],
      "stateMutability": "view",
      "type": "function"
    },
    {
      "inputs": [
        {
          "internalType": "uint256",
          "name": "_amt",
          "type": "uint256"
        }
      ],
      "name": "coinPriceOfX",
      "outputs": [
        {
          "internalType": "uint256",
          "name": "",
          "type": "uint256"
        }
      ],
      "stateMutability": "view",
      "type": "function"
    },
    {
      "inputs": [
        {
          "internalType": "uint256",
          "name": "_amt",
          "type": "uint256"
        }
      ],
      "name": "coinPriceOfY",
      "outputs": [
        {
          "internalType": "uint256",
          "name": "",
          "type": "uint256"
        }
      ],
      "stateMutability": "view",
      "type": "function"
    },
    {
      "inputs": [
        {
          "internalType": "uint256",
          "name": "_amt",
          "type": "uint256"
        }
      ],
      "name": "ethPriceOfUSD",
      "outputs": [
        {
          "internalType": "uint256",
          "name": "",
          "type": "uint256"
        }
      ],
      "stateMutability": "view",
      "type": "function"
    },
    {
      "inputs": [],
      "name": "getCoinPriceInEth",
      "outputs": [
        {
          "internalType": "uint256",
          "name": "coinPriceEth",
          "type": "uint256"
        }
      ],
      "stateMutability": "view",
      "type": "function"
    },
    {
      "inputs": [],
      "name": "getCoinPriceInX",
      "outputs": [
        {
          "internalType": "uint256",
          "name": "coinPriceX",
          "type": "uint256"
        }
      ],
      "stateMutability": "view",
      "type": "function"
    },
    {
      "inputs": [],
      "name": "getCoinPriceInY",
      "outputs": [
        {
          "internalType": "uint256",
          "name": "coinPriceY",
          "type": "uint256"
        }
      ],
      "stateMutability": "view",
      "type": "function"
    },
    {
      "inputs": [],
      "name": "getEthPriceInCoin",
      "outputs": [
        {
          "internalType": "uint256",
          "name": "ethPriceCoin",
          "type": "uint256"
        }
      ],
      "stateMutability": "view",
      "type": "function"
    },
    {
      "inputs": [],
      "name": "getEthPriceInX",
      "outputs": [
        {
          "internalType": "uint256",
          "name": "ethPriceX",
          "type": "uint256"
        }
      ],
      "stateMutability": "view",
      "type": "function"
    },
    {
      "inputs": [],
      "name": "getEthPriceInY",
      "outputs": [
        {
          "internalType": "uint256",
          "name": "ethPriceY",
          "type": "uint256"
        }
      ],
      "stateMutability": "view",
      "type": "function"
    },
    {
      "inputs": [],
      "name": "getXPriceInCoin",
      "outputs": [
        {
          "internalType": "uint256",
          "name": "xPriceCoin",
          "type": "uint256"
        }
      ],
      "stateMutability": "view",
      "type": "function"
    },
    {
      "inputs": [],
      "name": "getXPriceInEth",
      "outputs": [
        {
          "internalType": "uint256",
          "name": "xPriceEth",
          "type": "uint256"
        }
      ],
      "stateMutability": "view",
      "type": "function"
    },
    {
      "inputs": [],
      "name": "getXPriceInY",
      "outputs": [
        {
          "internalType": "uint256",
          "name": "xPriceY",
          "type": "uint256"
        }
      ],
      "stateMutability": "view",
      "type": "function"
    },
    {
      "inputs": [],
      "name": "getYPriceInCoin",
      "outputs": [
        {
          "internalType": "uint256",
          "name": "yPriceCoin",
          "type": "uint256"
        }
      ],
      "stateMutability": "view",
      "type": "function"
    },
    {
      "inputs": [],
      "name": "getYPriceInEth",
      "outputs": [
        {
          "internalType": "uint256",
          "name": "yPriceEth",
          "type": "uint256"
        }
      ],
      "stateMutability": "view",
      "type": "function"
    },
    {
      "inputs": [],
      "name": "getYPriceInX",
      "outputs": [
        {
          "internalType": "uint256",
          "name": "yPriceX",
          "type": "uint256"
        }
      ],
      "stateMutability": "view",
      "type": "function"
    },
    {
      "inputs": [
        {
          "internalType": "address",
          "name": "",
          "type": "address"
        }
      ],
      "name": "mp",
      "outputs": [
        {
          "internalType": "uint256",
          "name": "",
          "type": "uint256"
        }
      ],
      "stateMutability": "view",
      "type": "function"
    },
    {
      "inputs": [
        {
          "internalType": "address",
          "name": "",
          "type": "address"
        },
        {
          "internalType": "uint256",
          "name": "",
          "type": "uint256"
        }
      ],
      "name": "myProjects",
      "outputs": [
        {
          "internalType": "address",
          "name": "",
          "type": "address"
        }
      ],
      "stateMutability": "view",
      "type": "function"
    },
    {
      "inputs": [],
      "name": "p",
      "outputs": [
        {
          "internalType": "uint256",
          "name": "",
          "type": "uint256"
        }
      ],
      "stateMutability": "view",
      "type": "function"
    },
    {
      "inputs": [
        {
          "internalType": "uint256",
          "name": "",
          "type": "uint256"
        }
      ],
      "name": "projects",
      "outputs": [
        {
          "internalType": "address",
          "name": "",
          "type": "address"
        }
      ],
      "stateMutability": "view",
      "type": "function"
    },
    {
      "inputs": [
        {
          "internalType": "address",
          "name": "_oracle",
          "type": "address"
        },
        {
          "internalType": "uint256",
          "name": "_digits",
          "type": "uint256"
        }
      ],
      "name": "setX",
      "outputs": [
        {
          "internalType": "bool",
          "name": "",
          "type": "bool"
        }
      ],
      "stateMutability": "nonpayable",
      "type": "function"
    },
    {
      "inputs": [
        {
          "internalType": "address",
          "name": "_oracle",
          "type": "address"
        },
        {
          "internalType": "uint256",
          "name": "_digits",
          "type": "uint256"
        }
      ],
      "name": "setY",
      "outputs": [
        {
          "internalType": "bool",
          "name": "",
          "type": "bool"
        }
      ],
      "stateMutability": "nonpayable",
      "type": "function"
    },
    {
      "inputs": [
        {
          "internalType": "uint256",
          "name": "_amt",
          "type": "uint256"
        }
      ],
      "name": "xPriceOfUSD",
      "outputs": [
        {
          "internalType": "uint256",
          "name": "",
          "type": "uint256"
        }
      ],
      "stateMutability": "view",
      "type": "function"
    },
    {
      "inputs": [
        {
          "internalType": "uint256",
          "name": "_amt",
          "type": "uint256"
        }
      ],
      "name": "yPriceOfUSD",
      "outputs": [
        {
          "internalType": "uint256",
          "name": "",
          "type": "uint256"
        }
      ],
      "stateMutability": "view",
      "type": "function"
    },
    {
      "inputs": [
        {
          "internalType": "string",
          "name": "_name",
          "type": "string"
        },
        {
          "internalType": "string",
          "name": "_sym",
          "type": "string"
        },
        {
          "internalType": "uint256",
          "name": "_rate",
          "type": "uint256"
        },
        {
          "internalType": "uint256",
          "name": "_supply",
          "type": "uint256"
        },
        {
          "internalType": "bool",
          "name": "_burn",
          "type": "bool"
        },
        {
          "internalType": "bool",
          "name": "_pause",
          "type": "bool"
        }
      ],
      "name": "buildERC20Token",
      "outputs": [
        {
          "internalType": "address",
          "name": "",
          "type": "address"
        }
      ],
      "stateMutability": "payable",
      "type": "function"
    }
  ],
  "bytecode": "0x608060405234801561001057600080fd5b50600146036100725773e47da91495c75e1d48569f343938380d8303b1f26000806101000a81548173ffffffffffffffffffffffffffffffffffffffff021916908373ffffffffffffffffffffffffffffffffffffffff160217905550610196565b600546036100d35773e47da91495c75e1d48569f343938380d8303b1f26000806101000a81548173ffffffffffffffffffffffffffffffffffffffff021916908373ffffffffffffffffffffffffffffffffffffffff160217905550610195565b608946036101345773e47da91495c75e1d48569f343938380d8303b1f26000806101000a81548173ffffffffffffffffffffffffffffffffffffffff021916908373ffffffffffffffffffffffffffffffffffffffff160217905550610194565b6201388146036101935773e47da91495c75e1d48569f343938380d8303b1f26000806101000a81548173ffffffffffffffffffffffffffffffffffffffff021916908373ffffffffffffffffffffffffffffffffffffffff1602179055505b5b5b5b652d79883d2000600381905550614e2280620001b36000396000f3fe608060405260043610620001fa5760003560e01c80637d670117116200010f578063bec9908e11620000a3578063e12ef5ed116200006d578063e12ef5ed14620007ad578063e2ab781314620007dd578063e9f38fc51462000821578063f42fff01146200086557620001fa565b8063bec9908e14620006d9578063d1381f4e1462000709578063d21b8720146200074d578063e04777af146200077d57620001fa565b80638dff74a711620000e55780638dff74a7146200061357806392c49086146200064357806396af428a14620006795780639ae8886a14620006a957620001fa565b80637d670117146200055b57806387434dcd146200058b5780638d4a8ffe14620005cf57620001fa565b80634459194611620001935780636260f55b116200015d5780636260f55b14620004875780636a443b5914620004b757806379d79fcc14620004e75780637afcc7a4146200051757620001fa565b806344591946146200039f57806348cf734d14620003cf5780634a2ad99f14620003ff57806352da887a146200044357620001fa565b8063106581aa11620001d5578063106581aa14620002b7578063107046bd14620002fb578063287ead9e146200033f57806329d7a0bd146200036f57620001fa565b8063033a7a0214620001ff578063054dca2a14620002435780630b4185ea1462000273575b600080fd5b3480156200020c57600080fd5b506200022b600480360381019062000225919062001473565b62000895565b6040516200023a9190620014b6565b60405180910390f35b3480156200025057600080fd5b506200025b620008e6565b6040516200026a9190620014b6565b60405180910390f35b3480156200028057600080fd5b506200029f600480360381019062000299919062001473565b6200092b565b604051620002ae9190620014b6565b60405180910390f35b348015620002c457600080fd5b50620002e36004803603810190620002dd919062001538565b6200097c565b604051620002f29190620014b6565b60405180910390f35b3480156200030857600080fd5b5062000327600480360381019062000321919062001473565b62000994565b6040516200033691906200157b565b60405180910390f35b3480156200034c57600080fd5b5062000357620009c7565b604051620003669190620014b6565b60405180910390f35b3480156200037c57600080fd5b506200038762000a0c565b604051620003969190620014b6565b60405180910390f35b348015620003ac57600080fd5b50620003b762000a51565b604051620003c69190620014b6565b60405180910390f35b348015620003dc57600080fd5b50620003e762000a62565b604051620003f69190620014b6565b60405180910390f35b3480156200040c57600080fd5b506200042b600480360381019062000425919062001598565b62000aa7565b6040516200043a9190620015fc565b60405180910390f35b3480156200045057600080fd5b506200046f600480360381019062000469919062001598565b62000b55565b6040516200047e91906200157b565b60405180910390f35b3480156200049457600080fd5b506200049f62000b97565b604051620004ae9190620014b6565b60405180910390f35b348015620004c457600080fd5b50620004cf62000ba8565b604051620004de9190620014b6565b60405180910390f35b348015620004f457600080fd5b50620004ff62000bb9565b6040516200050e9190620014b6565b60405180910390f35b3480156200052457600080fd5b506200054360048036038101906200053d919062001473565b62000bca565b604051620005529190620014b6565b60405180910390f35b3480156200056857600080fd5b506200057362000c1c565b604051620005829190620014b6565b60405180910390f35b3480156200059857600080fd5b50620005b76004803603810190620005b1919062001473565b62000c2d565b604051620005c69190620014b6565b60405180910390f35b348015620005dc57600080fd5b50620005fb6004803603810190620005f5919062001473565b62000c7f565b6040516200060a9190620014b6565b60405180910390f35b3480156200062057600080fd5b506200062b62000cd1565b6040516200063a9190620014b6565b60405180910390f35b6200066160048036038101906200065b9190620016b8565b62000d16565b6040516200067091906200157b565b60405180910390f35b3480156200068657600080fd5b506200069162000dbe565b604051620006a09190620014b6565b60405180910390f35b348015620006b657600080fd5b50620006c162000dcf565b604051620006d09190620014b6565b60405180910390f35b348015620006e657600080fd5b50620006f162000dd5565b604051620007009190620014b6565b60405180910390f35b3480156200071657600080fd5b506200073560048036038101906200072f919062001473565b62000e1a565b604051620007449190620014b6565b60405180910390f35b3480156200075a57600080fd5b506200076562000e6c565b604051620007749190620014b6565b60405180910390f35b3480156200078a57600080fd5b506200079562000eb1565b604051620007a49190620014b6565b60405180910390f35b348015620007ba57600080fd5b50620007c562000ec2565b604051620007d49190620014b6565b60405180910390f35b348015620007ea57600080fd5b5062000809600480360381019062000803919062001473565b62000f07565b604051620008189190620014b6565b60405180910390f35b3480156200082e57600080fd5b506200084d600480360381019062000847919062001598565b62000f59565b6040516200085c9190620015fc565b60405180910390f35b3480156200087257600080fd5b506200087d62001007565b6040516200088c9190620014b6565b60405180910390f35b6000806509184e72a00083620008ac9190620017cb565b90506000620008ba6200104c565b9050620008dd670de0b6b3a764000083620008d69190620017cb565b82620010ea565b92505050919050565b600080620008f362001121565b90506000620009016200104c565b905062000924670de0b6b3a7640000836200091d9190620017cb565b82620010ea565b9250505090565b6000806509184e72a00083620009429190620017cb565b905060006200095062001121565b905062000973670de0b6b3a7640000836200096c9190620017cb565b82620010ea565b92505050919050565b60066020528060005260406000206000915090505481565b60056020528060005260406000206000915054906101000a900473ffffffffffffffffffffffffffffffffffffffff1681565b600080620009d46200104c565b90506000620009e2620011bf565b905062000a05670de0b6b3a764000083620009fe9190620017cb565b82620010ea565b9250505090565b60008062000a1962001121565b9050600062000a276200125d565b905062000a4a670de0b6b3a76400008362000a439190620017cb565b82620010ea565b9250505090565b600062000a5d6200104c565b905090565b60008062000a6f62001121565b9050600062000a7d620011bf565b905062000aa0670de0b6b3a76400008362000a999190620017cb565b82620010ea565b9250505090565b60008060009054906101000a900473ffffffffffffffffffffffffffffffffffffffff1673ffffffffffffffffffffffffffffffffffffffff16634a2ad99f84846040518363ffffffff1660e01b815260040162000b0792919062001816565b6020604051808303816000875af115801562000b27573d6000803e3d6000fd5b505050506040513d601f19601f8201168201806040525081019062000b4d91906200185a565b905092915050565b60076020528160005260406000206020528060005260406000206000915091509054906101000a900473ffffffffffffffffffffffffffffffffffffffff1681565b600062000ba362001121565b905090565b600062000bb4620012fb565b905090565b600062000bc562001340565b905090565b600080662386f26fc100008362000be29190620017cb565b9050600062000bf062001340565b905062000c13670de0b6b3a76400008362000c0c9190620017cb565b82620010ea565b92505050919050565b600062000c2862001385565b905090565b600080662386f26fc100008362000c459190620017cb565b9050600062000c53620012fb565b905062000c76670de0b6b3a76400008362000c6f9190620017cb565b82620010ea565b92505050919050565b600080662386f26fc100008362000c979190620017cb565b9050600062000ca562001385565b905062000cc8670de0b6b3a76400008362000cc19190620017cb565b82620010ea565b92505050919050565b60008062000cde6200125d565b9050600062000cec620011bf565b905062000d0f670de0b6b3a76400008262000d089190620017cb565b83620010ea565b9250505090565b600062000db089898080601f016020809104026020016040519081016040528093929190818152602001838380828437600081840152601f19601f8201169050808301925050505050505088888080601f016020809104026020016040519081016040528093929190818152602001838380828437600081840152601f19601f8201169050808301925050505050505087878787620013ca565b905098975050505050505050565b600062000dca620011bf565b905090565b60045481565b60008062000de262001121565b9050600062000df0620011bf565b905062000e13670de0b6b3a76400008262000e0c9190620017cb565b83620010ea565b9250505090565b600080662386f26fc100008362000e329190620017cb565b9050600062000e406200125d565b905062000e63670de0b6b3a76400008362000e5c9190620017cb565b82620010ea565b92505050919050565b60008062000e796200125d565b9050600062000e876200104c565b905062000eaa670de0b6b3a76400008262000ea39190620017cb565b83620010ea565b9250505090565b600062000ebd6200125d565b905090565b60008062000ecf6200104c565b9050600062000edd620011bf565b905062000f00670de0b6b3a76400008262000ef99190620017cb565b83620010ea565b9250505090565b600080662386f26fc100008362000f1f9190620017cb565b9050600062000f2d620011bf565b905062000f50670de0b6b3a76400008362000f499190620017cb565b82620010ea565b92505050919050565b60008060009054906101000a900473ffffffffffffffffffffffffffffffffffffffff1673ffffffffffffffffffffffffffffffffffffffff1663e9f38fc584846040518363ffffffff1660e01b815260040162000fb992919062001816565b6020604051808303816000875af115801562000fd9573d6000803e3d6000fd5b505050506040513d601f19601f8201168201806040525081019062000fff91906200185a565b905092915050565b6000806200101462001121565b90506000620010226200104c565b905062001045670de0b6b3a7640000826200103e9190620017cb565b83620010ea565b9250505090565b60008060008054906101000a900473ffffffffffffffffffffffffffffffffffffffff1673ffffffffffffffffffffffffffffffffffffffff166396722fe56040518163ffffffff1660e01b8152600401602060405180830381865afa158015620010bb573d6000803e3d6000fd5b505050506040513d601f19601f82011682018060405250810190620010e19190620018c7565b90508091505090565b6000808284620010fb919062001928565b90508281856200110c919062001960565b6200111891906200199b565b91505092915050565b60008060008054906101000a900473ffffffffffffffffffffffffffffffffffffffff1673ffffffffffffffffffffffffffffffffffffffff16639a18c7956040518163ffffffff1660e01b8152600401602060405180830381865afa15801562001190573d6000803e3d6000fd5b505050506040513d601f19601f82011682018060405250810190620011b69190620018c7565b90508091505090565b60008060008054906101000a900473ffffffffffffffffffffffffffffffffffffffff1673ffffffffffffffffffffffffffffffffffffffff1663414641df6040518163ffffffff1660e01b8152600401602060405180830381865afa1580156200122e573d6000803e3d6000fd5b505050506040513d601f19601f82011682018060405250810190620012549190620018c7565b90508091505090565b60008060008054906101000a900473ffffffffffffffffffffffffffffffffffffffff1673ffffffffffffffffffffffffffffffffffffffff1663f2e9bd7a6040518163ffffffff1660e01b8152600401602060405180830381865afa158015620012cc573d6000803e3d6000fd5b505050506040513d601f19601f82011682018060405250810190620012f29190620018c7565b90508091505090565b600080620013086200125d565b90506000620013166200104c565b905062001339670de0b6b3a764000083620013329190620017cb565b82620010ea565b9250505090565b6000806200134d6200125d565b905060006200135b620011bf565b90506200137e670de0b6b3a764000083620013779190620017cb565b82620010ea565b9250505090565b600080620013926200125d565b90506000620013a062001121565b9050620013c3670de0b6b3a764000083620013bc9190620017cb565b82620010ea565b9250505090565b600080878787878787604051620013e19062001420565b620013f29695949392919062001a6d565b604051809103906000f0801580156200140f573d6000803e3d6000fd5b509050809150509695505050505050565b6133048062001ae983390190565b600080fd5b600080fd5b6000819050919050565b6200144d8162001438565b81146200145957600080fd5b50565b6000813590506200146d8162001442565b92915050565b6000602082840312156200148c576200148b6200142e565b5b60006200149c848285016200145c565b91505092915050565b620014b08162001438565b82525050565b6000602082019050620014cd6000830184620014a5565b92915050565b600073ffffffffffffffffffffffffffffffffffffffff82169050919050565b60006200150082620014d3565b9050919050565b6200151281620014f3565b81146200151e57600080fd5b50565b600081359050620015328162001507565b92915050565b6000602082840312156200155157620015506200142e565b5b6000620015618482850162001521565b91505092915050565b6200157581620014f3565b82525050565b60006020820190506200159260008301846200156a565b92915050565b60008060408385031215620015b257620015b16200142e565b5b6000620015c28582860162001521565b9250506020620015d5858286016200145c565b9150509250929050565b60008115159050919050565b620015f681620015df565b82525050565b6000602082019050620016136000830184620015eb565b92915050565b600080fd5b600080fd5b600080fd5b60008083601f84011262001641576200164062001619565b5b8235905067ffffffffffffffff8111156200166157620016606200161e565b5b60208301915083600182028301111562001680576200167f62001623565b5b9250929050565b6200169281620015df565b81146200169e57600080fd5b50565b600081359050620016b28162001687565b92915050565b60008060008060008060008060c0898b031215620016db57620016da6200142e565b5b600089013567ffffffffffffffff811115620016fc57620016fb62001433565b5b6200170a8b828c0162001628565b9850985050602089013567ffffffffffffffff81111562001730576200172f62001433565b5b6200173e8b828c0162001628565b96509650506040620017538b828c016200145c565b9450506060620017668b828c016200145c565b9350506080620017798b828c01620016a1565b92505060a06200178c8b828c01620016a1565b9150509295985092959890939650565b7f4e487b7100000000000000000000000000000000000000000000000000000000600052601160045260246000fd5b6000620017d88262001438565b9150620017e58362001438565b9250828202620017f58162001438565b915082820484148315176200180f576200180e6200179c565b5b5092915050565b60006040820190506200182d60008301856200156a565b6200183c6020830184620014a5565b9392505050565b600081519050620018548162001687565b92915050565b6000602082840312156200187357620018726200142e565b5b6000620018838482850162001843565b91505092915050565b6000819050919050565b620018a1816200188c565b8114620018ad57600080fd5b50565b600081519050620018c18162001896565b92915050565b600060208284031215620018e057620018df6200142e565b5b6000620018f084828501620018b0565b91505092915050565b7f4e487b7100000000000000000000000000000000000000000000000000000000600052601260045260246000fd5b6000620019358262001438565b9150620019428362001438565b925082620019555762001954620018f9565b5b828206905092915050565b60006200196d8262001438565b91506200197a8362001438565b92508282039050818111156200199557620019946200179c565b5b92915050565b6000620019a88262001438565b9150620019b58362001438565b925082620019c857620019c7620018f9565b5b828204905092915050565b600081519050919050565b600082825260208201905092915050565b60005b8381101562001a0f578082015181840152602081019050620019f2565b60008484015250505050565b6000601f19601f8301169050919050565b600062001a3982620019d3565b62001a458185620019de565b935062001a57818560208601620019ef565b62001a628162001a1b565b840191505092915050565b600060c082019050818103600083015262001a89818962001a2c565b9050818103602083015262001a9f818862001a2c565b905062001ab06040830187620014a5565b62001abf6060830186620014a5565b62001ace6080830185620015eb565b62001add60a0830184620015eb565b97965050505050505056fe60806040523480156200001157600080fd5b506040516200330438038062003304833981810160405281019062000037919062000408565b858581600390816200004a919062000723565b5080600490816200005c919062000723565b5050506000600560006101000a81548160ff0219169083151502179055506200009a6200008e6200010c60201b60201c565b6200011460201b60201c565b620000ab84620001da60201b60201c565b508260088190555085600a9081620000c4919062000723565b5081600960006101000a81548160ff02191690831515021790555080600960016101000a81548160ff021916908315150217905550836006819055505050505050506200080a565b600033905090565b6000600560019054906101000a900473ffffffffffffffffffffffffffffffffffffffff16905081600560016101000a81548173ffffffffffffffffffffffffffffffffffffffff021916908373ffffffffffffffffffffffffffffffffffffffff1602179055508173ffffffffffffffffffffffffffffffffffffffff168173ffffffffffffffffffffffffffffffffffffffff167f8be0079c531659141344cd1fd0a4f28419497f9722a3daafe3b4186f6b6457e060405160405180910390a35050565b6000808290506000811015620001ef57600080fd5b806006819055915050919050565b6000604051905090565b600080fd5b600080fd5b600080fd5b600080fd5b6000601f19601f8301169050919050565b7f4e487b7100000000000000000000000000000000000000000000000000000000600052604160045260246000fd5b62000266826200021b565b810181811067ffffffffffffffff821117156200028857620002876200022c565b5b80604052505050565b60006200029d620001fd565b9050620002ab82826200025b565b919050565b600067ffffffffffffffff821115620002ce57620002cd6200022c565b5b620002d9826200021b565b9050602081019050919050565b60005b8381101562000306578082015181840152602081019050620002e9565b60008484015250505050565b6000620003296200032384620002b0565b62000291565b90508281526020810184848401111562000348576200034762000216565b5b62000355848285620002e6565b509392505050565b600082601f83011262000375576200037462000211565b5b81516200038784826020860162000312565b91505092915050565b6000819050919050565b620003a58162000390565b8114620003b157600080fd5b50565b600081519050620003c5816200039a565b92915050565b60008115159050919050565b620003e281620003cb565b8114620003ee57600080fd5b50565b6000815190506200040281620003d7565b92915050565b60008060008060008060c0878903121562000428576200042762000207565b5b600087015167ffffffffffffffff8111156200044957620004486200020c565b5b6200045789828a016200035d565b965050602087015167ffffffffffffffff8111156200047b576200047a6200020c565b5b6200048989828a016200035d565b95505060406200049c89828a01620003b4565b9450506060620004af89828a01620003b4565b9350506080620004c289828a01620003f1565b92505060a0620004d589828a01620003f1565b9150509295509295509295565b600081519050919050565b7f4e487b7100000000000000000000000000000000000000000000000000000000600052602260045260246000fd5b600060028204905060018216806200053557607f821691505b6020821081036200054b576200054a620004ed565b5b50919050565b60008190508160005260206000209050919050565b60006020601f8301049050919050565b600082821b905092915050565b600060088302620005b57fffffffffffffffffffffffffffffffffffffffffffffffffffffffffffffffff8262000576565b620005c1868362000576565b95508019841693508086168417925050509392505050565b6000819050919050565b600062000604620005fe620005f88462000390565b620005d9565b62000390565b9050919050565b6000819050919050565b6200062083620005e3565b620006386200062f826200060b565b84845462000583565b825550505050565b600090565b6200064f62000640565b6200065c81848462000615565b505050565b5b8181101562000684576200067860008262000645565b60018101905062000662565b5050565b601f821115620006d3576200069d8162000551565b620006a88462000566565b81016020851015620006b8578190505b620006d0620006c78562000566565b83018262000661565b50505b505050565b600082821c905092915050565b6000620006f860001984600802620006d8565b1980831691505092915050565b6000620007138383620006e5565b9150826002028217905092915050565b6200072e82620004e2565b67ffffffffffffffff8111156200074a57620007496200022c565b5b6200075682546200051c565b6200076382828562000688565b600060209050601f8311600181146200079b576000841562000786578287015190505b62000792858262000705565b86555062000802565b601f198416620007ab8662000551565b60005b82811015620007d557848901518255600182019150602085019450602081019050620007ae565b86831015620007f55784890151620007f1601f891682620006e5565b8355505b6001600288020188555050505b505050505050565b612aea806200081a6000396000f3fe6080604052600436106101a05760003560e01c80635c975abb116100ec57806395d89b411161008a578063c4ae316811610064578063c4ae31681461061b578063d37e510414610646578063dd62ed3e14610671578063f2fde38b146106ae576101af565b806395d89b4114610576578063a457c2d7146105a1578063a9059cbb146105de576101af565b8063715018a6116100c6578063715018a6146104e0578063778a56ce146104f757806379cc6790146105225780638da5cb5b1461054b576101af565b80635c975abb1461043b5780636f8b44b01461046657806370a08231146104a3576101af565b8063313ce567116101595780633610724e116101335780633610724e1461037a57806339509351146103aa57806342966c68146103e75780634a79d50c14610410576101af565b8063313ce567146102e757806332cb6b0c1461031257806334fcf4371461033d576101af565b806306fdde03146101c1578063095ea7b3146101ec57806318160ddd14610229578063201a49d61461025457806323b872dd1461027f5780632c4e722e146102bc576101af565b366101af576101ad6106d7565b005b6101b76106d7565b6101bf6106f6565b005b3480156101cd57600080fd5b506101d661074e565b6040516101e39190611dea565b60405180910390f35b3480156101f857600080fd5b50610213600480360381019061020e9190611ea5565b6107e0565b6040516102209190611f00565b60405180910390f35b34801561023557600080fd5b5061023e6107fe565b60405161024b9190611f2a565b60405180910390f35b34801561026057600080fd5b50610269610808565b6040516102769190611f2a565b60405180910390f35b34801561028b57600080fd5b506102a660048036038101906102a19190611f45565b61080e565b6040516102b39190611f00565b60405180910390f35b3480156102c857600080fd5b506102d1610906565b6040516102de9190611f2a565b60405180910390f35b3480156102f357600080fd5b506102fc61090c565b6040516103099190611fb4565b60405180910390f35b34801561031e57600080fd5b50610327610915565b6040516103349190611f2a565b60405180910390f35b34801561034957600080fd5b50610364600480360381019061035f9190611fcf565b61091b565b6040516103719190611f2a565b60405180910390f35b610394600480360381019061038f9190611fcf565b6109a9565b6040516103a19190611f2a565b60405180910390f35b3480156103b657600080fd5b506103d160048036038101906103cc9190611ea5565b610a31565b6040516103de9190611f00565b60405180910390f35b3480156103f357600080fd5b5061040e60048036038101906104099190611fcf565b610add565b005b34801561041c57600080fd5b50610425610b0a565b6040516104329190611dea565b60405180910390f35b34801561044757600080fd5b50610450610b98565b60405161045d9190611f00565b60405180910390f35b34801561047257600080fd5b5061048d60048036038101906104889190611fcf565b610baf565b60405161049a9190611f2a565b60405180910390f35b3480156104af57600080fd5b506104ca60048036038101906104c59190611ffc565b610c3a565b6040516104d79190611f2a565b60405180910390f35b3480156104ec57600080fd5b506104f5610c82565b005b34801561050357600080fd5b5061050c610d0a565b6040516105199190611f00565b60405180910390f35b34801561052e57600080fd5b5061054960048036038101906105449190611ea5565b610db6565b005b34801561055757600080fd5b50610560610e31565b60405161056d9190612038565b60405180910390f35b34801561058257600080fd5b5061058b610e5b565b6040516105989190611dea565b60405180910390f35b3480156105ad57600080fd5b506105c860048036038101906105c39190611ea5565b610eed565b6040516105d59190611f00565b60405180910390f35b3480156105ea57600080fd5b5061060560048036038101906106009190611ea5565b610fd8565b6040516106129190611f00565b60405180910390f35b34801561062757600080fd5b50610630610ff6565b60405161063d9190611f00565b60405180910390f35b34801561065257600080fd5b5061065b6110a2565b6040516106689190611f00565b60405180910390f35b34801561067d57600080fd5b5061069860048036038101906106939190612053565b611170565b6040516106a59190611f2a565b60405180910390f35b3480156106ba57600080fd5b506106d560048036038101906106d09190611ffc565b6111f7565b005b6000600654346106e791906120f1565b90506106f333826112ee565b50565b6000806006548261070791906120f1565b905060065481101561071857600080fd5b60008160075460085461072b9190612122565b6107359190612122565b101561074057600080fd5b61074a33826112ee565b5050565b60606003805461075d90612185565b80601f016020809104026020016040519081016040528092919081815260200182805461078990612185565b80156107d65780601f106107ab576101008083540402835291602001916107d6565b820191906000526020600020905b8154815290600101906020018083116107b957829003601f168201915b5050505050905090565b60006107f46107ed61144d565b8484611455565b6001905092915050565b6000600254905090565b60075481565b600061081b84848461161e565b6000600160008673ffffffffffffffffffffffffffffffffffffffff1673ffffffffffffffffffffffffffffffffffffffff168152602001908152602001600020600061086661144d565b73ffffffffffffffffffffffffffffffffffffffff1673ffffffffffffffffffffffffffffffffffffffff168152602001908152602001600020549050828110156108e6576040517f08c379a00000000000000000000000000000000000000000000000000000000081526004016108dd90612228565b60405180910390fd5b6108fa856108f261144d565b858403611455565b60019150509392505050565b60065481565b60006012905090565b60085481565b600061092561144d565b73ffffffffffffffffffffffffffffffffffffffff16610943610e31565b73ffffffffffffffffffffffffffffffffffffffff1614610999576040517f08c379a000000000000000000000000000000000000000000000000000000000815260040161099090612294565b60405180910390fd5b6109a28261189d565b9050919050565b6000600654826109b991906122b4565b34116109c457600080fd5b6000670de0b6b3a7640000836109da91906122b4565b6007546008546109ea9190612122565b6109f49190612122565b10156109ff57600080fd5b610a1c33670de0b6b3a764000084610a1791906122b4565b6112ee565b60065482610a2a91906122b4565b9050919050565b6000610ad3610a3e61144d565b848460016000610a4c61144d565b73ffffffffffffffffffffffffffffffffffffffff1673ffffffffffffffffffffffffffffffffffffffff16815260200190815260200160002060008873ffffffffffffffffffffffffffffffffffffffff1673ffffffffffffffffffffffffffffffffffffffff16815260200190815260200160002054610ace91906122f6565b611455565b6001905092915050565b60001515600960009054906101000a900460ff16151503610afd57600080fd5b610b0733826118bf565b50565b600a8054610b1790612185565b80601f0160208091040260200160405190810160405280929190818152602001828054610b4390612185565b8015610b905780601f10610b6557610100808354040283529160200191610b90565b820191906000526020600020905b815481529060010190602001808311610b7357829003601f168201915b505050505081565b6000600560009054906101000a900460ff16905090565b6000610bb961144d565b73ffffffffffffffffffffffffffffffffffffffff16610bd7610e31565b73ffffffffffffffffffffffffffffffffffffffff1614610c2d576040517f08c379a0000000000000000000000000000000000000000000000000000000008152600401610c2490612294565b60405180910390fd5b8160088190559050919050565b60008060008373ffffffffffffffffffffffffffffffffffffffff1673ffffffffffffffffffffffffffffffffffffffff168152602001908152602001600020549050919050565b610c8a61144d565b73ffffffffffffffffffffffffffffffffffffffff16610ca8610e31565b73ffffffffffffffffffffffffffffffffffffffff1614610cfe576040517f08c379a0000000000000000000000000000000000000000000000000000000008152600401610cf590612294565b60405180910390fd5b610d086000611a95565b565b6000610d1461144d565b73ffffffffffffffffffffffffffffffffffffffff16610d32610e31565b73ffffffffffffffffffffffffffffffffffffffff1614610d88576040517f08c379a0000000000000000000000000000000000000000000000000000000008152600401610d7f90612294565b60405180910390fd5b600960009054906101000a900460ff1615600960006101000a81548160ff0219169083151502179055905090565b6000610dc983610dc461144d565b611170565b905081811015610e0e576040517f08c379a0000000000000000000000000000000000000000000000000000000008152600401610e059061239c565b60405180910390fd5b610e2283610e1a61144d565b848403611455565b610e2c83836118bf565b505050565b6000600560019054906101000a900473ffffffffffffffffffffffffffffffffffffffff16905090565b606060048054610e6a90612185565b80601f0160208091040260200160405190810160405280929190818152602001828054610e9690612185565b8015610ee35780601f10610eb857610100808354040283529160200191610ee3565b820191906000526020600020905b815481529060010190602001808311610ec657829003601f168201915b5050505050905090565b60008060016000610efc61144d565b73ffffffffffffffffffffffffffffffffffffffff1673ffffffffffffffffffffffffffffffffffffffff16815260200190815260200160002060008573ffffffffffffffffffffffffffffffffffffffff1673ffffffffffffffffffffffffffffffffffffffff16815260200190815260200160002054905082811015610fb9576040517f08c379a0000000000000000000000000000000000000000000000000000000008152600401610fb09061242e565b60405180910390fd5b610fcd610fc461144d565b85858403611455565b600191505092915050565b6000610fec610fe561144d565b848461161e565b6001905092915050565b600061100061144d565b73ffffffffffffffffffffffffffffffffffffffff1661101e610e31565b73ffffffffffffffffffffffffffffffffffffffff1614611074576040517f08c379a000000000000000000000000000000000000000000000000000000000815260040161106b90612294565b60405180910390fd5b600960019054906101000a900460ff1615600960016101000a81548160ff0219169083151502179055905090565b60006110ac61144d565b73ffffffffffffffffffffffffffffffffffffffff166110ca610e31565b73ffffffffffffffffffffffffffffffffffffffff1614611120576040517f08c379a000000000000000000000000000000000000000000000000000000000815260040161111790612294565b60405180910390fd5b60001515600960019054906101000a900460ff1615150361114057600080fd5b611148610b98565b1561115a57611155611b5b565b611163565b611162611bfd565b5b61116b610b98565b905090565b6000600160008473ffffffffffffffffffffffffffffffffffffffff1673ffffffffffffffffffffffffffffffffffffffff16815260200190815260200160002060008373ffffffffffffffffffffffffffffffffffffffff1673ffffffffffffffffffffffffffffffffffffffff16815260200190815260200160002054905092915050565b6111ff61144d565b73ffffffffffffffffffffffffffffffffffffffff1661121d610e31565b73ffffffffffffffffffffffffffffffffffffffff1614611273576040517f08c379a000000000000000000000000000000000000000000000000000000000815260040161126a90612294565b60405180910390fd5b600073ffffffffffffffffffffffffffffffffffffffff168173ffffffffffffffffffffffffffffffffffffffff16036112e2576040517f08c379a00000000000000000000000000000000000000000000000000000000081526004016112d9906124c0565b60405180910390fd5b6112eb81611a95565b50565b600073ffffffffffffffffffffffffffffffffffffffff168273ffffffffffffffffffffffffffffffffffffffff160361135d576040517f08c379a00000000000000000000000000000000000000000000000000000000081526004016113549061252c565b60405180910390fd5b61136960008383611ca0565b806002600082825461137b91906122f6565b92505081905550806000808473ffffffffffffffffffffffffffffffffffffffff1673ffffffffffffffffffffffffffffffffffffffff16815260200190815260200160002060008282546113d091906122f6565b925050819055508173ffffffffffffffffffffffffffffffffffffffff16600073ffffffffffffffffffffffffffffffffffffffff167fddf252ad1be2c89b69c2b068fc378daa952ba7f163c4a11628f55a4df523b3ef836040516114359190611f2a565b60405180910390a361144960008383611cf8565b5050565b600033905090565b600073ffffffffffffffffffffffffffffffffffffffff168373ffffffffffffffffffffffffffffffffffffffff16036114c4576040517f08c379a00000000000000000000000000000000000000000000000000000000081526004016114bb906125be565b60405180910390fd5b600073ffffffffffffffffffffffffffffffffffffffff168273ffffffffffffffffffffffffffffffffffffffff1603611533576040517f08c379a000000000000000000000000000000000000000000000000000000000815260040161152a90612650565b60405180910390fd5b80600160008573ffffffffffffffffffffffffffffffffffffffff1673ffffffffffffffffffffffffffffffffffffffff16815260200190815260200160002060008473ffffffffffffffffffffffffffffffffffffffff1673ffffffffffffffffffffffffffffffffffffffff168152602001908152602001600020819055508173ffffffffffffffffffffffffffffffffffffffff168373ffffffffffffffffffffffffffffffffffffffff167f8c5be1e5ebec7d5bd14f71427d1e84f3dd0314c0f7b2291e5b200ac8c7c3b925836040516116119190611f2a565b60405180910390a3505050565b600073ffffffffffffffffffffffffffffffffffffffff168373ffffffffffffffffffffffffffffffffffffffff160361168d576040517f08c379a0000000000000000000000000000000000000000000000000000000008152600401611684906126e2565b60405180910390fd5b600073ffffffffffffffffffffffffffffffffffffffff168273ffffffffffffffffffffffffffffffffffffffff16036116fc576040517f08c379a00000000000000000000000000000000000000000000000000000000081526004016116f390612774565b60405180910390fd5b611707838383611ca0565b60008060008573ffffffffffffffffffffffffffffffffffffffff1673ffffffffffffffffffffffffffffffffffffffff1681526020019081526020016000205490508181101561178d576040517f08c379a000000000000000000000000000000000000000000000000000000000815260040161178490612806565b60405180910390fd5b8181036000808673ffffffffffffffffffffffffffffffffffffffff1673ffffffffffffffffffffffffffffffffffffffff16815260200190815260200160002081905550816000808573ffffffffffffffffffffffffffffffffffffffff1673ffffffffffffffffffffffffffffffffffffffff168152602001908152602001600020600082825461182091906122f6565b925050819055508273ffffffffffffffffffffffffffffffffffffffff168473ffffffffffffffffffffffffffffffffffffffff167fddf252ad1be2c89b69c2b068fc378daa952ba7f163c4a11628f55a4df523b3ef846040516118849190611f2a565b60405180910390a3611897848484611cf8565b50505050565b60008082905060008110156118b157600080fd5b806006819055915050919050565b600073ffffffffffffffffffffffffffffffffffffffff168273ffffffffffffffffffffffffffffffffffffffff160361192e576040517f08c379a000000000000000000000000000000000000000000000000000000000815260040161192590612898565b60405180910390fd5b61193a82600083611ca0565b60008060008473ffffffffffffffffffffffffffffffffffffffff1673ffffffffffffffffffffffffffffffffffffffff168152602001908152602001600020549050818110156119c0576040517f08c379a00000000000000000000000000000000000000000000000000000000081526004016119b79061292a565b60405180910390fd5b8181036000808573ffffffffffffffffffffffffffffffffffffffff1673ffffffffffffffffffffffffffffffffffffffff168152602001908152602001600020819055508160026000828254611a179190612122565b92505081905550600073ffffffffffffffffffffffffffffffffffffffff168373ffffffffffffffffffffffffffffffffffffffff167fddf252ad1be2c89b69c2b068fc378daa952ba7f163c4a11628f55a4df523b3ef84604051611a7c9190611f2a565b60405180910390a3611a9083600084611cf8565b505050565b6000600560019054906101000a900473ffffffffffffffffffffffffffffffffffffffff16905081600560016101000a81548173ffffffffffffffffffffffffffffffffffffffff021916908373ffffffffffffffffffffffffffffffffffffffff1602179055508173ffffffffffffffffffffffffffffffffffffffff168173ffffffffffffffffffffffffffffffffffffffff167f8be0079c531659141344cd1fd0a4f28419497f9722a3daafe3b4186f6b6457e060405160405180910390a35050565b611b63610b98565b611ba2576040517f08c379a0000000000000000000000000000000000000000000000000000000008152600401611b9990612996565b60405180910390fd5b6000600560006101000a81548160ff0219169083151502179055507f5db9ee0a495bf2e6ff9c91a7834c1ba4fdd244a5e8aa4e537bd38aeae4b073aa611be661144d565b604051611bf39190612038565b60405180910390a1565b611c05610b98565b15611c45576040517f08c379a0000000000000000000000000000000000000000000000000000000008152600401611c3c90612a02565b60405180910390fd5b6001600560006101000a81548160ff0219169083151502179055507f62e78cea01bee320cd4e420270b5ea74000d11b0c9f74754ebdbfc544b05a258611c8961144d565b604051611c969190612038565b60405180910390a1565b611ca8610b98565b15611ce8576040517f08c379a0000000000000000000000000000000000000000000000000000000008152600401611cdf90612a02565b60405180910390fd5b611cf3838383611cfd565b505050565b505050565b611d08838383611d55565b611d10610b98565b15611d50576040517f08c379a0000000000000000000000000000000000000000000000000000000008152600401611d4790612a94565b60405180910390fd5b505050565b505050565b600081519050919050565b600082825260208201905092915050565b60005b83811015611d94578082015181840152602081019050611d79565b60008484015250505050565b6000601f19601f8301169050919050565b6000611dbc82611d5a565b611dc68185611d65565b9350611dd6818560208601611d76565b611ddf81611da0565b840191505092915050565b60006020820190508181036000830152611e048184611db1565b905092915050565b600080fd5b600073ffffffffffffffffffffffffffffffffffffffff82169050919050565b6000611e3c82611e11565b9050919050565b611e4c81611e31565b8114611e5757600080fd5b50565b600081359050611e6981611e43565b92915050565b6000819050919050565b611e8281611e6f565b8114611e8d57600080fd5b50565b600081359050611e9f81611e79565b92915050565b60008060408385031215611ebc57611ebb611e0c565b5b6000611eca85828601611e5a565b9250506020611edb85828601611e90565b9150509250929050565b60008115159050919050565b611efa81611ee5565b82525050565b6000602082019050611f156000830184611ef1565b92915050565b611f2481611e6f565b82525050565b6000602082019050611f3f6000830184611f1b565b92915050565b600080600060608486031215611f5e57611f5d611e0c565b5b6000611f6c86828701611e5a565b9350506020611f7d86828701611e5a565b9250506040611f8e86828701611e90565b9150509250925092565b600060ff82169050919050565b611fae81611f98565b82525050565b6000602082019050611fc96000830184611fa5565b92915050565b600060208284031215611fe557611fe4611e0c565b5b6000611ff384828501611e90565b91505092915050565b60006020828403121561201257612011611e0c565b5b600061202084828501611e5a565b91505092915050565b61203281611e31565b82525050565b600060208201905061204d6000830184612029565b92915050565b6000806040838503121561206a57612069611e0c565b5b600061207885828601611e5a565b925050602061208985828601611e5a565b9150509250929050565b7f4e487b7100000000000000000000000000000000000000000000000000000000600052601260045260246000fd5b7f4e487b7100000000000000000000000000000000000000000000000000000000600052601160045260246000fd5b60006120fc82611e6f565b915061210783611e6f565b92508261211757612116612093565b5b828204905092915050565b600061212d82611e6f565b915061213883611e6f565b92508282039050818111156121505761214f6120c2565b5b92915050565b7f4e487b7100000000000000000000000000000000000000000000000000000000600052602260045260246000fd5b6000600282049050600182168061219d57607f821691505b6020821081036121b0576121af612156565b5b50919050565b7f45524332303a207472616e7366657220616d6f756e742065786365656473206160008201527f6c6c6f77616e6365000000000000000000000000000000000000000000000000602082015250565b6000612212602883611d65565b915061221d826121b6565b604082019050919050565b6000602082019050818103600083015261224181612205565b9050919050565b7f4f776e61626c653a2063616c6c6572206973206e6f7420746865206f776e6572600082015250565b600061227e602083611d65565b915061228982612248565b602082019050919050565b600060208201905081810360008301526122ad81612271565b9050919050565b60006122bf82611e6f565b91506122ca83611e6f565b92508282026122d881611e6f565b915082820484148315176122ef576122ee6120c2565b5b5092915050565b600061230182611e6f565b915061230c83611e6f565b9250828201905080821115612324576123236120c2565b5b92915050565b7f45524332303a206275726e20616d6f756e74206578636565647320616c6c6f7760008201527f616e636500000000000000000000000000000000000000000000000000000000602082015250565b6000612386602483611d65565b91506123918261232a565b604082019050919050565b600060208201905081810360008301526123b581612379565b9050919050565b7f45524332303a2064656372656173656420616c6c6f77616e63652062656c6f7760008201527f207a65726f000000000000000000000000000000000000000000000000000000602082015250565b6000612418602583611d65565b9150612423826123bc565b604082019050919050565b600060208201905081810360008301526124478161240b565b9050919050565b7f4f776e61626c653a206e6577206f776e657220697320746865207a65726f206160008201527f6464726573730000000000000000000000000000000000000000000000000000602082015250565b60006124aa602683611d65565b91506124b58261244e565b604082019050919050565b600060208201905081810360008301526124d98161249d565b9050919050565b7f45524332303a206d696e7420746f20746865207a65726f206164647265737300600082015250565b6000612516601f83611d65565b9150612521826124e0565b602082019050919050565b6000602082019050818103600083015261254581612509565b9050919050565b7f45524332303a20617070726f76652066726f6d20746865207a65726f2061646460008201527f7265737300000000000000000000000000000000000000000000000000000000602082015250565b60006125a8602483611d65565b91506125b38261254c565b604082019050919050565b600060208201905081810360008301526125d78161259b565b9050919050565b7f45524332303a20617070726f766520746f20746865207a65726f20616464726560008201527f7373000000000000000000000000000000000000000000000000000000000000602082015250565b600061263a602283611d65565b9150612645826125de565b604082019050919050565b600060208201905081810360008301526126698161262d565b9050919050565b7f45524332303a207472616e736665722066726f6d20746865207a65726f20616460008201527f6472657373000000000000000000000000000000000000000000000000000000602082015250565b60006126cc602583611d65565b91506126d782612670565b604082019050919050565b600060208201905081810360008301526126fb816126bf565b9050919050565b7f45524332303a207472616e7366657220746f20746865207a65726f206164647260008201527f6573730000000000000000000000000000000000000000000000000000000000602082015250565b600061275e602383611d65565b915061276982612702565b604082019050919050565b6000602082019050818103600083015261278d81612751565b9050919050565b7f45524332303a207472616e7366657220616d6f756e742065786365656473206260008201527f616c616e63650000000000000000000000000000000000000000000000000000602082015250565b60006127f0602683611d65565b91506127fb82612794565b604082019050919050565b6000602082019050818103600083015261281f816127e3565b9050919050565b7f45524332303a206275726e2066726f6d20746865207a65726f2061646472657360008201527f7300000000000000000000000000000000000000000000000000000000000000602082015250565b6000612882602183611d65565b915061288d82612826565b604082019050919050565b600060208201905081810360008301526128b181612875565b9050919050565b7f45524332303a206275726e20616d6f756e7420657863656564732062616c616e60008201527f6365000000000000000000000000000000000000000000000000000000000000602082015250565b6000612914602283611d65565b915061291f826128b8565b604082019050919050565b6000602082019050818103600083015261294381612907565b9050919050565b7f5061757361626c653a206e6f7420706175736564000000000000000000000000600082015250565b6000612980601483611d65565b915061298b8261294a565b602082019050919050565b600060208201905081810360008301526129af81612973565b9050919050565b7f5061757361626c653a2070617573656400000000000000000000000000000000600082015250565b60006129ec601083611d65565b91506129f7826129b6565b602082019050919050565b60006020820190508181036000830152612a1b816129df565b9050919050565b7f45524332305061757361626c653a20746f6b656e207472616e7366657220776860008201527f696c652070617573656400000000000000000000000000000000000000000000602082015250565b6000612a7e602a83611d65565b9150612a8982612a22565b604082019050919050565b60006020820190508181036000830152612aad81612a71565b905091905056fea2646970667358221220b6e344d7c7dcdd47984b77eaf6af3762b54e9499b0c356bc047dc3a82b90c04a64736f6c63430008110033a264697066735822122066920ebab6222f1fde27ecf217b9d868df05ba38c16fe180df6ceab1b103d7ed64736f6c63430008110033",
  "immutableReferences": {},
  "source": "// SPDX-License-Identifier: GPL-3.0\r\n// // // // // // // // // // // // // // // // // // // // // // // // // // // // // // // // // // // // // // // // // // // // // // // // // // // // // // // // // // // // //\r\n//\r\n//      MMWKd:..                                                                                    ..:dKWMM\r\n//      MKl.                                                                                            .lKW\r\n//      O'       ..''''''''''''.     .''''''.     .'''''.      .''''''''''''''.     .''''''''''''..       'O\r\n//      '     .ckKNNWNWWWWWWWWWk.   .xNWWNWNl    ,0WWWWW0,     lNWWWWWWWWWNWNk'    ;0NNNWWWWWWWWNNKkc.     '\r\n//           ,OWMMMMMMMMMMMMMMMO.   .kMMMMMWl    ,KMMMMMK,     lWMMMMMMMMMMM0,    ;KMMMMMMMMMMMMMMMMWO,\r\n//          .kMMMMMMMMMMMMMMMMMO.   .kMMMMMWl    ,KMMMMMK,     lWMMMMMMMMMM0,    ;KMMMMMMMMMMMMMMMMMMMk.\r\n//          '0MMMMMMMMMMMMMMMMMO.   .kMMMMMWl    ,KMMMMMK,     lWMMMMMMMMM0,    :KMMMMMMMMMMMMMMMMMMMM0'\r\n//          '0MMMMMMMMMMMMMMMMMO.   .kMMMMMWl    ,KMMMMMK,     lWMMMMMMMM0,    :KMMMMMMMMMMMMMMMMMMMMM0'\r\n//          '0MMMMMMMMMMMMMMMMMO.   .kMMMMMWl    ,KMMMMMK,     lWMMMMMMM0,    ;0NNWWMMMMMMMMMMMMMMMMMM0'\r\n//          '0MMMMMMMMMMMMMMMMMO.   .kMMMMMWl    ,KMMMMMK,     lWMMMMMM0,     .'.',;lkNMMMMMMMMMMMMMMM0'\r\n//          '0MMMMMMMMMMMMMMMMMO.   .kMMMMMWl    ,KMMMMMK,     lWMMMMMK;              ,kWMMMMMMMMMMMMM0'\r\n//          '0MMMMMMMMMMMMMMMMMO.   .kMMMMMWl    ,KMMMMMK,     lWMMMMX:    .:oxxdc'    .dWMMMMMMMMMMMM0'\r\n//          '0MMMMMMMMMMMMMMMMMO.   .kMMMMMWl    ,KMMMMMK,     lWMMMWd.   ,OWMMMMMXl.   '0MMMMMMMMMMMM0'\r\n//          '0MMMMMMMMMMMMMMMMMO.   .kMMMMMWl    ,KMMMMMK,     lWMMMX;   .kMMMMMMMMK,   .xMMMMMMMMMMMM0'\r\n//          '0MMMMMMMMMMMMMMMMMO.   .kMMMMMWl    ,KMMMMMK,     lWMMM0'   .OMMMMMMMMX;   .xMMMMMMMMMMMM0'\r\n//          .OMMMMMMMMMMMMMMMMMO.   .kMMMMMWl    ,KMMMMMK,     lWMMMK,    lNMMMMMMWx.   '0MMMMMMMMMMMMO.\r\n//           lNMMMMMMMMMMMMMMMMO.   .kMMMMMWl    ,KMMMMMK,     lWMMMWd.   .:x0KKKkc.   .dWMMMMMMMMMMMNl\r\n//      .    .c0WMMMMMMMMMMMMMMO.   .kMMMMMWo    ,KMMMMMK,     lWMMMMNd.     ....     .xNMMMMMMMMMMW0c.    .\r\n//      l      .,lddxxxxxxxxxxxc.    :xxxxxd,    .lxxxxxl.     ,dxxxxxd:.            .cdxxxxxxxxddl,.      l\r\n//      No.                                                                                              .oN\r\n//      MW0l'                                                                                          'l0WM\r\n//      MMMWKd;.                                                                                    .;dKWMMM\r\n//\r\n// // // // // // // // // // // // // // // // // // // // // // // // // // // // // // // // // // // // // // // // // // // // // // // // // // // // // // // // // // // // //\r\n//                                                                                                                                                                                  //\r\n//      @dev            ::              Aron Mauritala Ayuk                                                                                                                                          //\r\n//      @msg            ::              stereo@iii6.xyz                                                                                                                                   //\r\n//      @github         ::              @stereoIII6\r\n//      @twitter        ::              @stereoIII6                                                                                                                                              //\r\n//                                                                                                                                                                                  //\r\n// // // // // // // // // // // // // // // // // // // // // // // // // // // // // // // // // // // // // // // // // // // // // // // // // // // // // // // // // // // // //\r\n//                                                                                                                                                                                  //\r\n//      @dev            ::              Juan Xavier Valverde                                                                                                                                    //\r\n//      @msg            ::              juanxavier@iii6.xyz                                                                                                                               //\r\n//      @twitter        ::              @JuanXavier                                                                                                                                             //\r\n//      @github         ::              @JuanXavier                                                                                                                                             //\r\n//                                                                                                                                                                                  //                                                                                                                                                                                 //\r\n// // // // // // // // // // // // // // // // // // // // // // // // // // // // // // // // // // // // // // // // // // // // // // // // // // // // // // // // // // // // //\r\n//  *   *   *   *   *   *   *   *   *   *   *   *   *   *   *   *   *   *   *   *   *   *   *   *   *   *   *   *   *   *   *   *   *   *   *   *   *   *   *   *   *   *   *   *   //\r\n// // // // // // // // // // // // // // // // // // // // // // // // // // // // // // // // // // // // // // // // // // // // // // // // // // // // // // // // // // // // //\r\n//                                                                                                                                                                                  //\r\n//      @company        ::              Fractio Holding                                                                                                                                                                       //\r\n//      @title          ::              iii6 Coin Factory                                                                                                                            //\r\n//      @description    ::              ERC721 DIA Factory Contract                                                                                                                           //\r\n//      @version        ::              0.0.1                                                                                                                                       //\r\n//      @purpose        ::              ERC721 DIA Factory                                                                                                          //\r\n//                                                                                                                                                                                  //\r\n//                                                                                                                                                                                  //\r\n//                                                                                                                                                                                  //\r\n//                                                                                                                                                                                  //\r\n//                                                                                                                                                                                  //\r\n// // // // // // // // // // // // // // // // // // // // // // // // // // // // // // // // // // // // // // // // // // // // // // // // // // // // // // // // // // // // //\r\n//  *   *   *   *   *   *   *   *   *   *   *   *   *   *   *   *   *   *   *   *   *   *   *   *   *   *   *   *   *   *   *   *   *   *   *   *   *   *   *   *   *   *   *   *   //\r\n// // // // // // // // // // // // // // // // // // // // // // // // // // // // // // // // // // // // // // // // // // // // // // // // // // // // // // // // // // // // //\r\n\r\n/////////////////////////////////////////////////////////////////////////////////////////////////////////////////////\r\n\r\n/////////////////////////////////////////////////////////////////////////////////////////////////////////////////////\r\n\r\npragma solidity ^0.8.7;\r\n\r\nimport \"./iii6CoinModel.sol\";\r\nimport \"../Math/iii6PriceMath.sol\";\r\n\r\ncontract iii6CoinFactory is iii6PriceMath {\r\n    /**\r\n     * @dev this contract is a model contract to be deployed through the iii6AssetFactory\r\n     */\r\n    // \r\n    // \r\n    // \r\n    // \r\n    // \r\n    // \r\n    address VRF;\r\n    address FEED;\r\n    uint256 gasSafe;\r\n    uint256 public p;\r\n    mapping(uint256 => address) public projects;\r\n    mapping(address => uint256) public mp;\r\n    mapping(address => mapping(uint256 => address)) public myProjects;\r\n\r\n    /*\r\n     * @dev this constructor creates a Dia NFT Token Contract\r\n     * @param _owner contract admin\r\n     * @param _name dia token name\r\n     * @param _max amount of tokens 0 = infinte\r\n     * @param _price amount of gascoin for token\r\n     * @param _cName name of related ERC20 token\r\n     * @param _cSym symbol of related ERC20 token\r\n     * @param _c bool if related coin exists\r\n     * @param _cs max supply of related ERC20 token 0 = infinite\r\n     * @param _rate price of related ERC20 token in gascoin\r\n     */\r\n    constructor() {\r\n        gasSafe = 5 * 10**13;\r\n    }\r\n\r\n    // function creates a ERC20 Token Contract\r\n    function _makeERC20Asset(\r\n        string memory _name,\r\n        string memory _sym,\r\n        uint256 _rate,\r\n        uint256 _supply,\r\n        bool _burn,\r\n        bool _pause\r\n    ) internal returns (address) {\r\n        // chose token model\r\n        iii6CoinModel token;\r\n        /**\r\n         * @dev creates an instance of iii6CoinModel\r\n         * @param _name token name\r\n         * @param _sym token symbol\r\n         * @param _rate token rate\r\n         * @param _supply max token supply // if 0-infinte\r\n         * @param _burn bool burnable\r\n         * @param _pause bool pauseble\r\n         * @return contract address\r\n         */\r\n        token = new iii6CoinModel(_name, _sym, _rate, _supply, _burn, _pause);\r\n        // exit with address\r\n        return address(token);\r\n    }\r\n\r\n    /**\r\n     * @dev creates an instance of iii6CoinModel\r\n     * @param _name token name\r\n     * @param _sym token symbol\r\n     * @param _rate token rate\r\n     * @param _supply max token supply // if 0-infinte\r\n     * @param _burn bool burnable\r\n     * @param _pause bool pauseble\r\n     * @return contract address\r\n     */\r\n    function buildERC20Token(\r\n        string calldata _name,\r\n        string calldata _sym,\r\n        uint256 _rate,\r\n        uint256 _supply,\r\n        bool _burn,\r\n        bool _pause\r\n    ) external payable returns (address) {\r\n        // check msg.value\r\n\r\n        // mint license\r\n        // make asset & exit with address\r\n        if (msg.value > 10**14) {\r\n            // address(this).transfer(safe, msg.value - gasSafe);\r\n        }\r\n        return _makeERC20Asset(_name, _sym, _rate, _supply, _burn, _pause);\r\n    }\r\n}\r\n",
  "sourcePath": "C:\\Users\\juanx\\OneDrive\\Documents\\work\\III6Dojo\\contracts\\iii6Utils\\Assets\\iii6CoinFactory.sol",
  "compiler": {
    "name": "solc",
    "version": "0.8.17+commit.8df45f5f.Emscripten.clang"
  },
  "schemaVersion": "3.4.11",
  "updatedAt": "2022-12-19T18:38:50.724Z",
  "devdoc": {
    "kind": "dev",
    "methods": {
      "COIN_USD()": {
        "details": "gets value of gascoin derived from iii6PriceConsumer => _get[...]Usdc()",
        "params": {
          "": "// EXTERNAL"
        },
        "returns": {
          "_0": "uint256 gascoin price in usdc"
        }
      },
      "ETH_USD()": {
        "details": "gets value of eth derived from INTERNAL => _get[...]Usdc()",
        "params": {
          "": "// EXTERNAL"
        },
        "returns": {
          "_0": "uint256 eth price in usdc"
        }
      },
      "X_USD()": {
        "details": "gets value of custon token x derived from iii6PriceConsumer => _get[...]Usdc()",
        "params": {
          "": "// EXTERNAL"
        },
        "returns": {
          "_0": "uint256 custon token x price in usdc"
        }
      },
      "Y_USD()": {
        "details": "gets value of custon token y derived from iii6PriceConsumer => _get[...]Usdc()",
        "params": {
          "": "// EXTERNAL"
        },
        "returns": {
          "_0": "uint256 custon token y price in usdc"
        }
      },
      "buildERC20Token(string,string,uint256,uint256,bool,bool)": {
        "details": "creates an instance of iii6CoinModel",
        "params": {
          "_burn": "bool burnable",
          "_name": "token name",
          "_pause": "bool pauseble",
          "_rate": "token rate",
          "_supply": "max token supply // if 0-infinte",
          "_sym": "token symbol"
        },
        "returns": {
          "_0": "contract address"
        }
      },
      "coinPriceOfEth(uint256)": {
        "details": "Returns price for input amount in chosen currency",
        "params": {
          "_amt": "uint256 amount of usd"
        },
        "returns": {
          "_0": "Result of division"
        }
      },
      "coinPriceOfUSD(uint256)": {
        "details": "Returns price for input amount in chosen currency",
        "params": {
          "_amt": "uint256 amount of usd"
        },
        "returns": {
          "_0": "Result of division"
        }
      },
      "coinPriceOfX(uint256)": {
        "details": "Returns price for input amount in chosen currency",
        "params": {
          "_amt": "uint256 amount of usd"
        },
        "returns": {
          "_0": "Result of division"
        }
      },
      "coinPriceOfY(uint256)": {
        "details": "Returns price for input amount in chosen currency",
        "params": {
          "_amt": "uint256 amount of usd"
        },
        "returns": {
          "_0": "Result of division"
        }
      },
      "ethPriceOfUSD(uint256)": {
        "details": "Returns price for input amount in chosen currency",
        "params": {
          "_amt": "uint256 amount of usd"
        },
        "returns": {
          "_0": "Result of division"
        }
      },
      "getCoinPriceInEth()": {
        "details": "gets value of gascoin denominated in eth derived from _get[...]Usdc()",
        "returns": {
          "coinPriceEth": "uint256 price of gascoin denominated in eth"
        }
      },
      "getCoinPriceInX()": {
        "details": "gets value of gascoin denominated in eth derived from _get[...]Usdc()",
        "returns": {
          "coinPriceX": "uint256 price of gascoin denominated in eth"
        }
      },
      "getCoinPriceInY()": {
        "details": "gets value of gascoin denominated in eth derived from _get[...]Usdc()",
        "returns": {
          "coinPriceY": "uint256 price of gascoin denominated in eth"
        }
      },
      "getEthPriceInCoin()": {
        "details": "gets value of eth denominated in gascoin derived from _get[...]Usdc()",
        "returns": {
          "ethPriceCoin": "uint256 price of eth denominated in gascoin"
        }
      },
      "getEthPriceInX()": {
        "details": "gets value of eth denominated in custom token x derived from _get[...]Usdc()",
        "returns": {
          "ethPriceX": "uint256 price of eth denominated in custom token x"
        }
      },
      "getEthPriceInY()": {
        "details": "gets value of eth denominated in custom token y derived from _get[...]Usdc()",
        "returns": {
          "ethPriceY": "uint256 price of eth denominated in custom token y"
        }
      },
      "getXPriceInCoin()": {
        "details": "gets value of gascoin denominated in eth derived from _get[...]Usdc()",
        "returns": {
          "xPriceCoin": "uint256 price of gascoin denominated in eth"
        }
      },
      "getXPriceInEth()": {
        "details": "gets value of gascoin denominated in eth derived from _get[...]Usdc()",
        "returns": {
          "xPriceEth": "uint256 price of gascoin denominated in eth"
        }
      },
      "getXPriceInY()": {
        "details": "gets value of gascoin denominated in eth derived from _get[...]Usdc()",
        "returns": {
          "xPriceY": "uint256 price of gascoin denominated in eth"
        }
      },
      "getYPriceInCoin()": {
        "details": "gets value of gascoin denominated in eth derived from _get[...]Usdc()",
        "returns": {
          "yPriceCoin": "uint256 price of gascoin denominated in eth"
        }
      },
      "getYPriceInEth()": {
        "details": "gets value of gascoin denominated in eth derived from _get[...]Usdc()",
        "returns": {
          "yPriceEth": "uint256 price of gascoin denominated in eth"
        }
      },
      "getYPriceInX()": {
        "details": "gets value of gascoin denominated in eth derived from _get[...]Usdc()",
        "returns": {
          "yPriceX": "uint256 price of gascoin denominated in eth"
        }
      },
      "setX(address,uint256)": {
        "details": "sets the oracle for custom token x and adapts digit length",
        "params": {
          "": "// EXTERNAL",
          "_digits": "number of decimals passed by oracle",
          "_oracle": "address of the chainlink pricefeed oracle contract"
        },
        "returns": {
          "_0": "bool success"
        }
      },
      "setY(address,uint256)": {
        "details": "sets the oracle for custom token y and adapts digit length",
        "params": {
          "": "// EXTERNAL",
          "_digits": "number of decimals passed by oracle",
          "_oracle": "address of the chainlink pricefeed oracle contract"
        },
        "returns": {
          "_0": "bool success"
        }
      },
      "xPriceOfUSD(uint256)": {
        "details": "Returns price for input amount in chosen currency",
        "params": {
          "_amt": "uint256 amount of usd"
        },
        "returns": {
          "_0": "Result of division"
        }
      },
      "yPriceOfUSD(uint256)": {
        "details": "Returns price for input amount in chosen currency",
        "params": {
          "_amt": "uint256 amount of usd"
        },
        "returns": {
          "_0": "Result of division"
        }
      }
    },
    "stateVariables": {
      "VRF": {
        "details": "this contract is a model contract to be deployed through the iii6AssetFactory"
      }
    },
    "version": 1
  },
  "userdoc": {
    "kind": "user",
    "methods": {},
    "version": 1
  }
}