{
  "contractName": "iii6CoinModelDrop",
  "abi": [
    {
      "inputs": [
        {
          "internalType": "string",
          "name": "_name",
          "type": "string"
        },
        {
          "internalType": "string",
          "name": "_sym",
          "type": "string"
        },
        {
          "internalType": "uint256",
          "name": "_rate",
          "type": "uint256"
        },
        {
          "internalType": "uint256",
          "name": "_supply",
          "type": "uint256"
        },
        {
          "internalType": "bool",
          "name": "_burn",
          "type": "bool"
        },
        {
          "internalType": "bool",
          "name": "_pause",
          "type": "bool"
        },
        {
          "internalType": "uint256",
          "name": "_curr",
          "type": "uint256"
        }
      ],
      "stateMutability": "nonpayable",
      "type": "constructor"
    },
    {
      "anonymous": false,
      "inputs": [
        {
          "indexed": true,
          "internalType": "address",
          "name": "owner",
          "type": "address"
        },
        {
          "indexed": true,
          "internalType": "address",
          "name": "spender",
          "type": "address"
        },
        {
          "indexed": false,
          "internalType": "uint256",
          "name": "value",
          "type": "uint256"
        }
      ],
      "name": "Approval",
      "type": "event"
    },
    {
      "anonymous": false,
      "inputs": [
        {
          "indexed": true,
          "internalType": "address",
          "name": "previousOwner",
          "type": "address"
        },
        {
          "indexed": true,
          "internalType": "address",
          "name": "newOwner",
          "type": "address"
        }
      ],
      "name": "OwnershipTransferred",
      "type": "event"
    },
    {
      "anonymous": false,
      "inputs": [
        {
          "indexed": false,
          "internalType": "address",
          "name": "account",
          "type": "address"
        }
      ],
      "name": "Paused",
      "type": "event"
    },
    {
      "anonymous": false,
      "inputs": [
        {
          "indexed": true,
          "internalType": "address",
          "name": "from",
          "type": "address"
        },
        {
          "indexed": true,
          "internalType": "address",
          "name": "to",
          "type": "address"
        },
        {
          "indexed": false,
          "internalType": "uint256",
          "name": "value",
          "type": "uint256"
        }
      ],
      "name": "Transfer",
      "type": "event"
    },
    {
      "anonymous": false,
      "inputs": [
        {
          "indexed": false,
          "internalType": "address",
          "name": "account",
          "type": "address"
        }
      ],
      "name": "Unpaused",
      "type": "event"
    },
    {
      "stateMutability": "payable",
      "type": "fallback"
    },
    {
      "inputs": [],
      "name": "MAX_SUPPLY",
      "outputs": [
        {
          "internalType": "uint256",
          "name": "",
          "type": "uint256"
        }
      ],
      "stateMutability": "view",
      "type": "function"
    },
    {
      "inputs": [],
      "name": "PUB_SUPPLY",
      "outputs": [
        {
          "internalType": "uint256",
          "name": "",
          "type": "uint256"
        }
      ],
      "stateMutability": "view",
      "type": "function"
    },
    {
      "inputs": [
        {
          "internalType": "address",
          "name": "owner",
          "type": "address"
        },
        {
          "internalType": "address",
          "name": "spender",
          "type": "address"
        }
      ],
      "name": "allowance",
      "outputs": [
        {
          "internalType": "uint256",
          "name": "",
          "type": "uint256"
        }
      ],
      "stateMutability": "view",
      "type": "function"
    },
    {
      "inputs": [
        {
          "internalType": "address",
          "name": "spender",
          "type": "address"
        },
        {
          "internalType": "uint256",
          "name": "amount",
          "type": "uint256"
        }
      ],
      "name": "approve",
      "outputs": [
        {
          "internalType": "bool",
          "name": "",
          "type": "bool"
        }
      ],
      "stateMutability": "nonpayable",
      "type": "function"
    },
    {
      "inputs": [
        {
          "internalType": "address",
          "name": "account",
          "type": "address"
        }
      ],
      "name": "balanceOf",
      "outputs": [
        {
          "internalType": "uint256",
          "name": "",
          "type": "uint256"
        }
      ],
      "stateMutability": "view",
      "type": "function"
    },
    {
      "inputs": [
        {
          "internalType": "uint256",
          "name": "_amount",
          "type": "uint256"
        }
      ],
      "name": "burn",
      "outputs": [],
      "stateMutability": "nonpayable",
      "type": "function"
    },
    {
      "inputs": [
        {
          "internalType": "address",
          "name": "account",
          "type": "address"
        },
        {
          "internalType": "uint256",
          "name": "amount",
          "type": "uint256"
        }
      ],
      "name": "burnFrom",
      "outputs": [],
      "stateMutability": "nonpayable",
      "type": "function"
    },
    {
      "inputs": [
        {
          "internalType": "uint256",
          "name": "_amount",
          "type": "uint256"
        }
      ],
      "name": "buyTokens",
      "outputs": [
        {
          "internalType": "uint256",
          "name": "",
          "type": "uint256"
        }
      ],
      "stateMutability": "payable",
      "type": "function"
    },
    {
      "inputs": [],
      "name": "decimals",
      "outputs": [
        {
          "internalType": "uint8",
          "name": "",
          "type": "uint8"
        }
      ],
      "stateMutability": "view",
      "type": "function"
    },
    {
      "inputs": [
        {
          "internalType": "address",
          "name": "spender",
          "type": "address"
        },
        {
          "internalType": "uint256",
          "name": "subtractedValue",
          "type": "uint256"
        }
      ],
      "name": "decreaseAllowance",
      "outputs": [
        {
          "internalType": "bool",
          "name": "",
          "type": "bool"
        }
      ],
      "stateMutability": "nonpayable",
      "type": "function"
    },
    {
      "inputs": [
        {
          "internalType": "address",
          "name": "spender",
          "type": "address"
        },
        {
          "internalType": "uint256",
          "name": "addedValue",
          "type": "uint256"
        }
      ],
      "name": "increaseAllowance",
      "outputs": [
        {
          "internalType": "bool",
          "name": "",
          "type": "bool"
        }
      ],
      "stateMutability": "nonpayable",
      "type": "function"
    },
    {
      "inputs": [],
      "name": "name",
      "outputs": [
        {
          "internalType": "string",
          "name": "",
          "type": "string"
        }
      ],
      "stateMutability": "view",
      "type": "function"
    },
    {
      "inputs": [],
      "name": "owner",
      "outputs": [
        {
          "internalType": "address",
          "name": "",
          "type": "address"
        }
      ],
      "stateMutability": "view",
      "type": "function"
    },
    {
      "inputs": [],
      "name": "paused",
      "outputs": [
        {
          "internalType": "bool",
          "name": "",
          "type": "bool"
        }
      ],
      "stateMutability": "view",
      "type": "function"
    },
    {
      "inputs": [],
      "name": "rate",
      "outputs": [
        {
          "internalType": "uint256",
          "name": "",
          "type": "uint256"
        }
      ],
      "stateMutability": "view",
      "type": "function"
    },
    {
      "inputs": [],
      "name": "renounceOwnership",
      "outputs": [],
      "stateMutability": "nonpayable",
      "type": "function"
    },
    {
      "inputs": [
        {
          "internalType": "uint256",
          "name": "_newSupply",
          "type": "uint256"
        }
      ],
      "name": "setMaxSupply",
      "outputs": [
        {
          "internalType": "uint256",
          "name": "",
          "type": "uint256"
        }
      ],
      "stateMutability": "nonpayable",
      "type": "function"
    },
    {
      "inputs": [
        {
          "internalType": "uint256",
          "name": "_rate",
          "type": "uint256"
        }
      ],
      "name": "setRate",
      "outputs": [
        {
          "internalType": "uint256",
          "name": "",
          "type": "uint256"
        }
      ],
      "stateMutability": "nonpayable",
      "type": "function"
    },
    {
      "inputs": [],
      "name": "symbol",
      "outputs": [
        {
          "internalType": "string",
          "name": "",
          "type": "string"
        }
      ],
      "stateMutability": "view",
      "type": "function"
    },
    {
      "inputs": [],
      "name": "title",
      "outputs": [
        {
          "internalType": "string",
          "name": "",
          "type": "string"
        }
      ],
      "stateMutability": "view",
      "type": "function"
    },
    {
      "inputs": [],
      "name": "toggleBurn",
      "outputs": [
        {
          "internalType": "bool",
          "name": "",
          "type": "bool"
        }
      ],
      "stateMutability": "nonpayable",
      "type": "function"
    },
    {
      "inputs": [],
      "name": "togglePause",
      "outputs": [
        {
          "internalType": "bool",
          "name": "",
          "type": "bool"
        }
      ],
      "stateMutability": "nonpayable",
      "type": "function"
    },
    {
      "inputs": [],
      "name": "toggleState",
      "outputs": [
        {
          "internalType": "bool",
          "name": "",
          "type": "bool"
        }
      ],
      "stateMutability": "nonpayable",
      "type": "function"
    },
    {
      "inputs": [],
      "name": "totalSupply",
      "outputs": [
        {
          "internalType": "uint256",
          "name": "",
          "type": "uint256"
        }
      ],
      "stateMutability": "view",
      "type": "function"
    },
    {
      "inputs": [
        {
          "internalType": "address",
          "name": "recipient",
          "type": "address"
        },
        {
          "internalType": "uint256",
          "name": "amount",
          "type": "uint256"
        }
      ],
      "name": "transfer",
      "outputs": [
        {
          "internalType": "bool",
          "name": "",
          "type": "bool"
        }
      ],
      "stateMutability": "nonpayable",
      "type": "function"
    },
    {
      "inputs": [
        {
          "internalType": "address",
          "name": "sender",
          "type": "address"
        },
        {
          "internalType": "address",
          "name": "recipient",
          "type": "address"
        },
        {
          "internalType": "uint256",
          "name": "amount",
          "type": "uint256"
        }
      ],
      "name": "transferFrom",
      "outputs": [
        {
          "internalType": "bool",
          "name": "",
          "type": "bool"
        }
      ],
      "stateMutability": "nonpayable",
      "type": "function"
    },
    {
      "inputs": [
        {
          "internalType": "address",
          "name": "newOwner",
          "type": "address"
        }
      ],
      "name": "transferOwnership",
      "outputs": [],
      "stateMutability": "nonpayable",
      "type": "function"
    },
    {
      "stateMutability": "payable",
      "type": "receive"
    },
    {
      "inputs": [],
      "name": "dropToken",
      "outputs": [],
      "stateMutability": "nonpayable",
      "type": "function"
    }
  ],
  "bytecode": "0x60806040523480156200001157600080fd5b506040516200330738038062003307833981810160405281019062000037919062000415565b8686868686868585816003908162000050919062000747565b50806004908162000062919062000747565b5050506000600560006101000a81548160ff021916908315150217905550620000a0620000946200011960201b60201c565b6200012160201b60201c565b620000b184620001e760201b60201c565b508260088190555085600a9081620000ca919062000747565b5081600960006101000a81548160ff02191690831515021790555080600960016101000a81548160ff02191690831515021790555083600681905550505050505050505050505050506200082e565b600033905090565b6000600560019054906101000a900473ffffffffffffffffffffffffffffffffffffffff16905081600560016101000a81548173ffffffffffffffffffffffffffffffffffffffff021916908373ffffffffffffffffffffffffffffffffffffffff1602179055508173ffffffffffffffffffffffffffffffffffffffff168173ffffffffffffffffffffffffffffffffffffffff167f8be0079c531659141344cd1fd0a4f28419497f9722a3daafe3b4186f6b6457e060405160405180910390a35050565b6000808290506000811015620001fc57600080fd5b806006819055915050919050565b6000604051905090565b600080fd5b600080fd5b600080fd5b600080fd5b6000601f19601f8301169050919050565b7f4e487b7100000000000000000000000000000000000000000000000000000000600052604160045260246000fd5b620002738262000228565b810181811067ffffffffffffffff8211171562000295576200029462000239565b5b80604052505050565b6000620002aa6200020a565b9050620002b8828262000268565b919050565b600067ffffffffffffffff821115620002db57620002da62000239565b5b620002e68262000228565b9050602081019050919050565b60005b8381101562000313578082015181840152602081019050620002f6565b60008484015250505050565b6000620003366200033084620002bd565b6200029e565b90508281526020810184848401111562000355576200035462000223565b5b62000362848285620002f3565b509392505050565b600082601f8301126200038257620003816200021e565b5b8151620003948482602086016200031f565b91505092915050565b6000819050919050565b620003b2816200039d565b8114620003be57600080fd5b50565b600081519050620003d281620003a7565b92915050565b60008115159050919050565b620003ef81620003d8565b8114620003fb57600080fd5b50565b6000815190506200040f81620003e4565b92915050565b600080600080600080600060e0888a03121562000437576200043662000214565b5b600088015167ffffffffffffffff81111562000458576200045762000219565b5b620004668a828b016200036a565b975050602088015167ffffffffffffffff8111156200048a576200048962000219565b5b620004988a828b016200036a565b9650506040620004ab8a828b01620003c1565b9550506060620004be8a828b01620003c1565b9450506080620004d18a828b01620003fe565b93505060a0620004e48a828b01620003fe565b92505060c0620004f78a828b01620003c1565b91505092959891949750929550565b600081519050919050565b7f4e487b7100000000000000000000000000000000000000000000000000000000600052602260045260246000fd5b600060028204905060018216806200055957607f821691505b6020821081036200056f576200056e62000511565b5b50919050565b60008190508160005260206000209050919050565b60006020601f8301049050919050565b600082821b905092915050565b600060088302620005d97fffffffffffffffffffffffffffffffffffffffffffffffffffffffffffffffff826200059a565b620005e586836200059a565b95508019841693508086168417925050509392505050565b6000819050919050565b600062000628620006226200061c846200039d565b620005fd565b6200039d565b9050919050565b6000819050919050565b620006448362000607565b6200065c62000653826200062f565b848454620005a7565b825550505050565b600090565b6200067362000664565b6200068081848462000639565b505050565b5b81811015620006a8576200069c60008262000669565b60018101905062000686565b5050565b601f821115620006f757620006c18162000575565b620006cc846200058a565b81016020851015620006dc578190505b620006f4620006eb856200058a565b83018262000685565b50505b505050565b600082821c905092915050565b60006200071c60001984600802620006fc565b1980831691505092915050565b600062000737838362000709565b9150826002028217905092915050565b620007528262000506565b67ffffffffffffffff8111156200076e576200076d62000239565b5b6200077a825462000540565b62000787828285620006ac565b600060209050601f831160018114620007bf5760008415620007aa578287015190505b620007b6858262000729565b86555062000826565b601f198416620007cf8662000575565b60005b82811015620007f957848901518255600182019150602085019450602081019050620007d2565b8683101562000819578489015162000815601f89168262000709565b8355505b6001600288020188555050505b505050505050565b612ac9806200083e6000396000f3fe6080604052600436106101bb5760003560e01c80636f8b44b0116100ec578063a457c2d71161008a578063c7945de011610064578063c7945de014610651578063d37e510414610668578063dd62ed3e14610693578063f2fde38b146106d0576101ca565b8063a457c2d7146105ac578063a9059cbb146105e9578063c4ae316814610626576101ca565b8063778a56ce116100c6578063778a56ce1461050257806379cc67901461052d5780638da5cb5b1461055657806395d89b4114610581576101ca565b80636f8b44b01461047157806370a08231146104ae578063715018a6146104eb576101ca565b806332cb6b0c11610159578063395093511161013357806339509351146103b557806342966c68146103f25780634a79d50c1461041b5780635c975abb14610446576101ca565b806332cb6b0c1461031d57806334fcf437146103485780633610724e14610385576101ca565b8063201a49d611610195578063201a49d61461025f57806323b872dd1461028a5780632c4e722e146102c7578063313ce567146102f2576101ca565b806306fdde03146101cc578063095ea7b3146101f757806318160ddd14610234576101ca565b366101ca576101c86106f9565b005b005b3480156101d857600080fd5b506101e1610718565b6040516101ee9190611dc9565b60405180910390f35b34801561020357600080fd5b5061021e60048036038101906102199190611e84565b6107aa565b60405161022b9190611edf565b60405180910390f35b34801561024057600080fd5b506102496107c8565b6040516102569190611f09565b60405180910390f35b34801561026b57600080fd5b506102746107d2565b6040516102819190611f09565b60405180910390f35b34801561029657600080fd5b506102b160048036038101906102ac9190611f24565b6107d8565b6040516102be9190611edf565b60405180910390f35b3480156102d357600080fd5b506102dc6108d0565b6040516102e99190611f09565b60405180910390f35b3480156102fe57600080fd5b506103076108d6565b6040516103149190611f93565b60405180910390f35b34801561032957600080fd5b506103326108df565b60405161033f9190611f09565b60405180910390f35b34801561035457600080fd5b5061036f600480360381019061036a9190611fae565b6108e5565b60405161037c9190611f09565b60405180910390f35b61039f600480360381019061039a9190611fae565b610973565b6040516103ac9190611f09565b60405180910390f35b3480156103c157600080fd5b506103dc60048036038101906103d79190611e84565b6109fb565b6040516103e99190611edf565b60405180910390f35b3480156103fe57600080fd5b5061041960048036038101906104149190611fae565b610aa7565b005b34801561042757600080fd5b50610430610ad4565b60405161043d9190611dc9565b60405180910390f35b34801561045257600080fd5b5061045b610b62565b6040516104689190611edf565b60405180910390f35b34801561047d57600080fd5b5061049860048036038101906104939190611fae565b610b79565b6040516104a59190611f09565b60405180910390f35b3480156104ba57600080fd5b506104d560048036038101906104d09190611fdb565b610c04565b6040516104e29190611f09565b60405180910390f35b3480156104f757600080fd5b50610500610c4c565b005b34801561050e57600080fd5b50610517610cd4565b6040516105249190611edf565b60405180910390f35b34801561053957600080fd5b50610554600480360381019061054f9190611e84565b610d80565b005b34801561056257600080fd5b5061056b610dfb565b6040516105789190612017565b60405180910390f35b34801561058d57600080fd5b50610596610e25565b6040516105a39190611dc9565b60405180910390f35b3480156105b857600080fd5b506105d360048036038101906105ce9190611e84565b610eb7565b6040516105e09190611edf565b60405180910390f35b3480156105f557600080fd5b50610610600480360381019061060b9190611e84565b610fa2565b60405161061d9190611edf565b60405180910390f35b34801561063257600080fd5b5061063b610fc0565b6040516106489190611edf565b60405180910390f35b34801561065d57600080fd5b5061066661106c565b005b34801561067457600080fd5b5061067d611081565b60405161068a9190611edf565b60405180910390f35b34801561069f57600080fd5b506106ba60048036038101906106b59190612032565b61114f565b6040516106c79190611f09565b60405180910390f35b3480156106dc57600080fd5b506106f760048036038101906106f29190611fdb565b6111d6565b005b60006006543461070991906120d0565b905061071533826112cd565b50565b60606003805461072790612130565b80601f016020809104026020016040519081016040528092919081815260200182805461075390612130565b80156107a05780601f10610775576101008083540402835291602001916107a0565b820191906000526020600020905b81548152906001019060200180831161078357829003601f168201915b5050505050905090565b60006107be6107b761142c565b8484611434565b6001905092915050565b6000600254905090565b60075481565b60006107e58484846115fd565b6000600160008673ffffffffffffffffffffffffffffffffffffffff1673ffffffffffffffffffffffffffffffffffffffff168152602001908152602001600020600061083061142c565b73ffffffffffffffffffffffffffffffffffffffff1673ffffffffffffffffffffffffffffffffffffffff168152602001908152602001600020549050828110156108b0576040517f08c379a00000000000000000000000000000000000000000000000000000000081526004016108a7906121d3565b60405180910390fd5b6108c4856108bc61142c565b858403611434565b60019150509392505050565b60065481565b60006012905090565b60085481565b60006108ef61142c565b73ffffffffffffffffffffffffffffffffffffffff1661090d610dfb565b73ffffffffffffffffffffffffffffffffffffffff1614610963576040517f08c379a000000000000000000000000000000000000000000000000000000000815260040161095a9061223f565b60405180910390fd5b61096c8261187c565b9050919050565b600060065482610983919061225f565b341161098e57600080fd5b6000670de0b6b3a7640000836109a4919061225f565b6007546008546109b491906122a1565b6109be91906122a1565b10156109c957600080fd5b6109e633670de0b6b3a7640000846109e1919061225f565b6112cd565b600654826109f4919061225f565b9050919050565b6000610a9d610a0861142c565b848460016000610a1661142c565b73ffffffffffffffffffffffffffffffffffffffff1673ffffffffffffffffffffffffffffffffffffffff16815260200190815260200160002060008873ffffffffffffffffffffffffffffffffffffffff1673ffffffffffffffffffffffffffffffffffffffff16815260200190815260200160002054610a9891906122d5565b611434565b6001905092915050565b60001515600960009054906101000a900460ff16151503610ac757600080fd5b610ad1338261189e565b50565b600a8054610ae190612130565b80601f0160208091040260200160405190810160405280929190818152602001828054610b0d90612130565b8015610b5a5780601f10610b2f57610100808354040283529160200191610b5a565b820191906000526020600020905b815481529060010190602001808311610b3d57829003601f168201915b505050505081565b6000600560009054906101000a900460ff16905090565b6000610b8361142c565b73ffffffffffffffffffffffffffffffffffffffff16610ba1610dfb565b73ffffffffffffffffffffffffffffffffffffffff1614610bf7576040517f08c379a0000000000000000000000000000000000000000000000000000000008152600401610bee9061223f565b60405180910390fd5b8160088190559050919050565b60008060008373ffffffffffffffffffffffffffffffffffffffff1673ffffffffffffffffffffffffffffffffffffffff168152602001908152602001600020549050919050565b610c5461142c565b73ffffffffffffffffffffffffffffffffffffffff16610c72610dfb565b73ffffffffffffffffffffffffffffffffffffffff1614610cc8576040517f08c379a0000000000000000000000000000000000000000000000000000000008152600401610cbf9061223f565b60405180910390fd5b610cd26000611a74565b565b6000610cde61142c565b73ffffffffffffffffffffffffffffffffffffffff16610cfc610dfb565b73ffffffffffffffffffffffffffffffffffffffff1614610d52576040517f08c379a0000000000000000000000000000000000000000000000000000000008152600401610d499061223f565b60405180910390fd5b600960009054906101000a900460ff1615600960006101000a81548160ff0219169083151502179055905090565b6000610d9383610d8e61142c565b61114f565b905081811015610dd8576040517f08c379a0000000000000000000000000000000000000000000000000000000008152600401610dcf9061237b565b60405180910390fd5b610dec83610de461142c565b848403611434565b610df6838361189e565b505050565b6000600560019054906101000a900473ffffffffffffffffffffffffffffffffffffffff16905090565b606060048054610e3490612130565b80601f0160208091040260200160405190810160405280929190818152602001828054610e6090612130565b8015610ead5780601f10610e8257610100808354040283529160200191610ead565b820191906000526020600020905b815481529060010190602001808311610e9057829003601f168201915b5050505050905090565b60008060016000610ec661142c565b73ffffffffffffffffffffffffffffffffffffffff1673ffffffffffffffffffffffffffffffffffffffff16815260200190815260200160002060008573ffffffffffffffffffffffffffffffffffffffff1673ffffffffffffffffffffffffffffffffffffffff16815260200190815260200160002054905082811015610f83576040517f08c379a0000000000000000000000000000000000000000000000000000000008152600401610f7a9061240d565b60405180910390fd5b610f97610f8e61142c565b85858403611434565b600191505092915050565b6000610fb6610faf61142c565b84846115fd565b6001905092915050565b6000610fca61142c565b73ffffffffffffffffffffffffffffffffffffffff16610fe8610dfb565b73ffffffffffffffffffffffffffffffffffffffff161461103e576040517f08c379a00000000000000000000000000000000000000000000000000000000081526004016110359061223f565b60405180910390fd5b600960019054906101000a900460ff1615600960016101000a81548160ff0219169083151502179055905090565b61107f3368056bc75e2d631000006112cd565b565b600061108b61142c565b73ffffffffffffffffffffffffffffffffffffffff166110a9610dfb565b73ffffffffffffffffffffffffffffffffffffffff16146110ff576040517f08c379a00000000000000000000000000000000000000000000000000000000081526004016110f69061223f565b60405180910390fd5b60001515600960019054906101000a900460ff1615150361111f57600080fd5b611127610b62565b1561113957611134611b3a565b611142565b611141611bdc565b5b61114a610b62565b905090565b6000600160008473ffffffffffffffffffffffffffffffffffffffff1673ffffffffffffffffffffffffffffffffffffffff16815260200190815260200160002060008373ffffffffffffffffffffffffffffffffffffffff1673ffffffffffffffffffffffffffffffffffffffff16815260200190815260200160002054905092915050565b6111de61142c565b73ffffffffffffffffffffffffffffffffffffffff166111fc610dfb565b73ffffffffffffffffffffffffffffffffffffffff1614611252576040517f08c379a00000000000000000000000000000000000000000000000000000000081526004016112499061223f565b60405180910390fd5b600073ffffffffffffffffffffffffffffffffffffffff168173ffffffffffffffffffffffffffffffffffffffff16036112c1576040517f08c379a00000000000000000000000000000000000000000000000000000000081526004016112b89061249f565b60405180910390fd5b6112ca81611a74565b50565b600073ffffffffffffffffffffffffffffffffffffffff168273ffffffffffffffffffffffffffffffffffffffff160361133c576040517f08c379a00000000000000000000000000000000000000000000000000000000081526004016113339061250b565b60405180910390fd5b61134860008383611c7f565b806002600082825461135a91906122d5565b92505081905550806000808473ffffffffffffffffffffffffffffffffffffffff1673ffffffffffffffffffffffffffffffffffffffff16815260200190815260200160002060008282546113af91906122d5565b925050819055508173ffffffffffffffffffffffffffffffffffffffff16600073ffffffffffffffffffffffffffffffffffffffff167fddf252ad1be2c89b69c2b068fc378daa952ba7f163c4a11628f55a4df523b3ef836040516114149190611f09565b60405180910390a361142860008383611cd7565b5050565b600033905090565b600073ffffffffffffffffffffffffffffffffffffffff168373ffffffffffffffffffffffffffffffffffffffff16036114a3576040517f08c379a000000000000000000000000000000000000000000000000000000000815260040161149a9061259d565b60405180910390fd5b600073ffffffffffffffffffffffffffffffffffffffff168273ffffffffffffffffffffffffffffffffffffffff1603611512576040517f08c379a00000000000000000000000000000000000000000000000000000000081526004016115099061262f565b60405180910390fd5b80600160008573ffffffffffffffffffffffffffffffffffffffff1673ffffffffffffffffffffffffffffffffffffffff16815260200190815260200160002060008473ffffffffffffffffffffffffffffffffffffffff1673ffffffffffffffffffffffffffffffffffffffff168152602001908152602001600020819055508173ffffffffffffffffffffffffffffffffffffffff168373ffffffffffffffffffffffffffffffffffffffff167f8c5be1e5ebec7d5bd14f71427d1e84f3dd0314c0f7b2291e5b200ac8c7c3b925836040516115f09190611f09565b60405180910390a3505050565b600073ffffffffffffffffffffffffffffffffffffffff168373ffffffffffffffffffffffffffffffffffffffff160361166c576040517f08c379a0000000000000000000000000000000000000000000000000000000008152600401611663906126c1565b60405180910390fd5b600073ffffffffffffffffffffffffffffffffffffffff168273ffffffffffffffffffffffffffffffffffffffff16036116db576040517f08c379a00000000000000000000000000000000000000000000000000000000081526004016116d290612753565b60405180910390fd5b6116e6838383611c7f565b60008060008573ffffffffffffffffffffffffffffffffffffffff1673ffffffffffffffffffffffffffffffffffffffff1681526020019081526020016000205490508181101561176c576040517f08c379a0000000000000000000000000000000000000000000000000000000008152600401611763906127e5565b60405180910390fd5b8181036000808673ffffffffffffffffffffffffffffffffffffffff1673ffffffffffffffffffffffffffffffffffffffff16815260200190815260200160002081905550816000808573ffffffffffffffffffffffffffffffffffffffff1673ffffffffffffffffffffffffffffffffffffffff16815260200190815260200160002060008282546117ff91906122d5565b925050819055508273ffffffffffffffffffffffffffffffffffffffff168473ffffffffffffffffffffffffffffffffffffffff167fddf252ad1be2c89b69c2b068fc378daa952ba7f163c4a11628f55a4df523b3ef846040516118639190611f09565b60405180910390a3611876848484611cd7565b50505050565b600080829050600081101561189057600080fd5b806006819055915050919050565b600073ffffffffffffffffffffffffffffffffffffffff168273ffffffffffffffffffffffffffffffffffffffff160361190d576040517f08c379a000000000000000000000000000000000000000000000000000000000815260040161190490612877565b60405180910390fd5b61191982600083611c7f565b60008060008473ffffffffffffffffffffffffffffffffffffffff1673ffffffffffffffffffffffffffffffffffffffff1681526020019081526020016000205490508181101561199f576040517f08c379a000000000000000000000000000000000000000000000000000000000815260040161199690612909565b60405180910390fd5b8181036000808573ffffffffffffffffffffffffffffffffffffffff1673ffffffffffffffffffffffffffffffffffffffff1681526020019081526020016000208190555081600260008282546119f691906122a1565b92505081905550600073ffffffffffffffffffffffffffffffffffffffff168373ffffffffffffffffffffffffffffffffffffffff167fddf252ad1be2c89b69c2b068fc378daa952ba7f163c4a11628f55a4df523b3ef84604051611a5b9190611f09565b60405180910390a3611a6f83600084611cd7565b505050565b6000600560019054906101000a900473ffffffffffffffffffffffffffffffffffffffff16905081600560016101000a81548173ffffffffffffffffffffffffffffffffffffffff021916908373ffffffffffffffffffffffffffffffffffffffff1602179055508173ffffffffffffffffffffffffffffffffffffffff168173ffffffffffffffffffffffffffffffffffffffff167f8be0079c531659141344cd1fd0a4f28419497f9722a3daafe3b4186f6b6457e060405160405180910390a35050565b611b42610b62565b611b81576040517f08c379a0000000000000000000000000000000000000000000000000000000008152600401611b7890612975565b60405180910390fd5b6000600560006101000a81548160ff0219169083151502179055507f5db9ee0a495bf2e6ff9c91a7834c1ba4fdd244a5e8aa4e537bd38aeae4b073aa611bc561142c565b604051611bd29190612017565b60405180910390a1565b611be4610b62565b15611c24576040517f08c379a0000000000000000000000000000000000000000000000000000000008152600401611c1b906129e1565b60405180910390fd5b6001600560006101000a81548160ff0219169083151502179055507f62e78cea01bee320cd4e420270b5ea74000d11b0c9f74754ebdbfc544b05a258611c6861142c565b604051611c759190612017565b60405180910390a1565b611c87610b62565b15611cc7576040517f08c379a0000000000000000000000000000000000000000000000000000000008152600401611cbe906129e1565b60405180910390fd5b611cd2838383611cdc565b505050565b505050565b611ce7838383611d34565b611cef610b62565b15611d2f576040517f08c379a0000000000000000000000000000000000000000000000000000000008152600401611d2690612a73565b60405180910390fd5b505050565b505050565b600081519050919050565b600082825260208201905092915050565b60005b83811015611d73578082015181840152602081019050611d58565b60008484015250505050565b6000601f19601f8301169050919050565b6000611d9b82611d39565b611da58185611d44565b9350611db5818560208601611d55565b611dbe81611d7f565b840191505092915050565b60006020820190508181036000830152611de38184611d90565b905092915050565b600080fd5b600073ffffffffffffffffffffffffffffffffffffffff82169050919050565b6000611e1b82611df0565b9050919050565b611e2b81611e10565b8114611e3657600080fd5b50565b600081359050611e4881611e22565b92915050565b6000819050919050565b611e6181611e4e565b8114611e6c57600080fd5b50565b600081359050611e7e81611e58565b92915050565b60008060408385031215611e9b57611e9a611deb565b5b6000611ea985828601611e39565b9250506020611eba85828601611e6f565b9150509250929050565b60008115159050919050565b611ed981611ec4565b82525050565b6000602082019050611ef46000830184611ed0565b92915050565b611f0381611e4e565b82525050565b6000602082019050611f1e6000830184611efa565b92915050565b600080600060608486031215611f3d57611f3c611deb565b5b6000611f4b86828701611e39565b9350506020611f5c86828701611e39565b9250506040611f6d86828701611e6f565b9150509250925092565b600060ff82169050919050565b611f8d81611f77565b82525050565b6000602082019050611fa86000830184611f84565b92915050565b600060208284031215611fc457611fc3611deb565b5b6000611fd284828501611e6f565b91505092915050565b600060208284031215611ff157611ff0611deb565b5b6000611fff84828501611e39565b91505092915050565b61201181611e10565b82525050565b600060208201905061202c6000830184612008565b92915050565b6000806040838503121561204957612048611deb565b5b600061205785828601611e39565b925050602061206885828601611e39565b9150509250929050565b7f4e487b7100000000000000000000000000000000000000000000000000000000600052601260045260246000fd5b7f4e487b7100000000000000000000000000000000000000000000000000000000600052601160045260246000fd5b60006120db82611e4e565b91506120e683611e4e565b9250826120f6576120f5612072565b5b828204905092915050565b7f4e487b7100000000000000000000000000000000000000000000000000000000600052602260045260246000fd5b6000600282049050600182168061214857607f821691505b60208210810361215b5761215a612101565b5b50919050565b7f45524332303a207472616e7366657220616d6f756e742065786365656473206160008201527f6c6c6f77616e6365000000000000000000000000000000000000000000000000602082015250565b60006121bd602883611d44565b91506121c882612161565b604082019050919050565b600060208201905081810360008301526121ec816121b0565b9050919050565b7f4f776e61626c653a2063616c6c6572206973206e6f7420746865206f776e6572600082015250565b6000612229602083611d44565b9150612234826121f3565b602082019050919050565b600060208201905081810360008301526122588161221c565b9050919050565b600061226a82611e4e565b915061227583611e4e565b925082820261228381611e4e565b9150828204841483151761229a576122996120a1565b5b5092915050565b60006122ac82611e4e565b91506122b783611e4e565b92508282039050818111156122cf576122ce6120a1565b5b92915050565b60006122e082611e4e565b91506122eb83611e4e565b9250828201905080821115612303576123026120a1565b5b92915050565b7f45524332303a206275726e20616d6f756e74206578636565647320616c6c6f7760008201527f616e636500000000000000000000000000000000000000000000000000000000602082015250565b6000612365602483611d44565b915061237082612309565b604082019050919050565b6000602082019050818103600083015261239481612358565b9050919050565b7f45524332303a2064656372656173656420616c6c6f77616e63652062656c6f7760008201527f207a65726f000000000000000000000000000000000000000000000000000000602082015250565b60006123f7602583611d44565b91506124028261239b565b604082019050919050565b60006020820190508181036000830152612426816123ea565b9050919050565b7f4f776e61626c653a206e6577206f776e657220697320746865207a65726f206160008201527f6464726573730000000000000000000000000000000000000000000000000000602082015250565b6000612489602683611d44565b91506124948261242d565b604082019050919050565b600060208201905081810360008301526124b88161247c565b9050919050565b7f45524332303a206d696e7420746f20746865207a65726f206164647265737300600082015250565b60006124f5601f83611d44565b9150612500826124bf565b602082019050919050565b60006020820190508181036000830152612524816124e8565b9050919050565b7f45524332303a20617070726f76652066726f6d20746865207a65726f2061646460008201527f7265737300000000000000000000000000000000000000000000000000000000602082015250565b6000612587602483611d44565b91506125928261252b565b604082019050919050565b600060208201905081810360008301526125b68161257a565b9050919050565b7f45524332303a20617070726f766520746f20746865207a65726f20616464726560008201527f7373000000000000000000000000000000000000000000000000000000000000602082015250565b6000612619602283611d44565b9150612624826125bd565b604082019050919050565b600060208201905081810360008301526126488161260c565b9050919050565b7f45524332303a207472616e736665722066726f6d20746865207a65726f20616460008201527f6472657373000000000000000000000000000000000000000000000000000000602082015250565b60006126ab602583611d44565b91506126b68261264f565b604082019050919050565b600060208201905081810360008301526126da8161269e565b9050919050565b7f45524332303a207472616e7366657220746f20746865207a65726f206164647260008201527f6573730000000000000000000000000000000000000000000000000000000000602082015250565b600061273d602383611d44565b9150612748826126e1565b604082019050919050565b6000602082019050818103600083015261276c81612730565b9050919050565b7f45524332303a207472616e7366657220616d6f756e742065786365656473206260008201527f616c616e63650000000000000000000000000000000000000000000000000000602082015250565b60006127cf602683611d44565b91506127da82612773565b604082019050919050565b600060208201905081810360008301526127fe816127c2565b9050919050565b7f45524332303a206275726e2066726f6d20746865207a65726f2061646472657360008201527f7300000000000000000000000000000000000000000000000000000000000000602082015250565b6000612861602183611d44565b915061286c82612805565b604082019050919050565b6000602082019050818103600083015261289081612854565b9050919050565b7f45524332303a206275726e20616d6f756e7420657863656564732062616c616e60008201527f6365000000000000000000000000000000000000000000000000000000000000602082015250565b60006128f3602283611d44565b91506128fe82612897565b604082019050919050565b60006020820190508181036000830152612922816128e6565b9050919050565b7f5061757361626c653a206e6f7420706175736564000000000000000000000000600082015250565b600061295f601483611d44565b915061296a82612929565b602082019050919050565b6000602082019050818103600083015261298e81612952565b9050919050565b7f5061757361626c653a2070617573656400000000000000000000000000000000600082015250565b60006129cb601083611d44565b91506129d682612995565b602082019050919050565b600060208201905081810360008301526129fa816129be565b9050919050565b7f45524332305061757361626c653a20746f6b656e207472616e7366657220776860008201527f696c652070617573656400000000000000000000000000000000000000000000602082015250565b6000612a5d602a83611d44565b9150612a6882612a01565b604082019050919050565b60006020820190508181036000830152612a8c81612a50565b905091905056fea2646970667358221220b8ae949adda67c7e51086d312fc6d28103db42c9dc5195adf614e7bf28ca975064736f6c63430008110033",
  "immutableReferences": {},
  "source": "// SPDX-License-Identifier: GPL-3.0\n// // // // // // // // // // // // // // // // // // // // // // // // // // // // // // // // // // // // // // // // // // // // // // // // // // // // // // // // // // // // //\n//\n//      MMWKd:..                                                                                    ..:dKWMM\n//      MKl.                                                                                            .lKW\n//      O'       ..''''''''''''.     .''''''.     .'''''.      .''''''''''''''.     .''''''''''''..       'O\n//      '     .ckKNNWNWWWWWWWWWk.   .xNWWNWNl    ,0WWWWW0,     lNWWWWWWWWWNWNk'    ;0NNNWWWWWWWWNNKkc.     '\n//           ,OWMMMMMMMMMMMMMMMO.   .kMMMMMWl    ,KMMMMMK,     lWMMMMMMMMMMM0,    ;KMMMMMMMMMMMMMMMMWO,\n//          .kMMMMMMMMMMMMMMMMMO.   .kMMMMMWl    ,KMMMMMK,     lWMMMMMMMMMM0,    ;KMMMMMMMMMMMMMMMMMMMk.\n//          '0MMMMMMMMMMMMMMMMMO.   .kMMMMMWl    ,KMMMMMK,     lWMMMMMMMMM0,    :KMMMMMMMMMMMMMMMMMMMM0'\n//          '0MMMMMMMMMMMMMMMMMO.   .kMMMMMWl    ,KMMMMMK,     lWMMMMMMMM0,    :KMMMMMMMMMMMMMMMMMMMMM0'\n//          '0MMMMMMMMMMMMMMMMMO.   .kMMMMMWl    ,KMMMMMK,     lWMMMMMMM0,    ;0NNWWMMMMMMMMMMMMMMMMMM0'\n//          '0MMMMMMMMMMMMMMMMMO.   .kMMMMMWl    ,KMMMMMK,     lWMMMMMM0,     .'.',;lkNMMMMMMMMMMMMMMM0'\n//          '0MMMMMMMMMMMMMMMMMO.   .kMMMMMWl    ,KMMMMMK,     lWMMMMMK;              ,kWMMMMMMMMMMMMM0'\n//          '0MMMMMMMMMMMMMMMMMO.   .kMMMMMWl    ,KMMMMMK,     lWMMMMX:    .:oxxdc'    .dWMMMMMMMMMMMM0'\n//          '0MMMMMMMMMMMMMMMMMO.   .kMMMMMWl    ,KMMMMMK,     lWMMMWd.   ,OWMMMMMXl.   '0MMMMMMMMMMMM0'\n//          '0MMMMMMMMMMMMMMMMMO.   .kMMMMMWl    ,KMMMMMK,     lWMMMX;   .kMMMMMMMMK,   .xMMMMMMMMMMMM0'\n//          '0MMMMMMMMMMMMMMMMMO.   .kMMMMMWl    ,KMMMMMK,     lWMMM0'   .OMMMMMMMMX;   .xMMMMMMMMMMMM0'\n//          .OMMMMMMMMMMMMMMMMMO.   .kMMMMMWl    ,KMMMMMK,     lWMMMK,    lNMMMMMMWx.   '0MMMMMMMMMMMMO.\n//           lNMMMMMMMMMMMMMMMMO.   .kMMMMMWl    ,KMMMMMK,     lWMMMWd.   .:x0KKKkc.   .dWMMMMMMMMMMMNl\n//      .    .c0WMMMMMMMMMMMMMMO.   .kMMMMMWo    ,KMMMMMK,     lWMMMMNd.     ....     .xNMMMMMMMMMMW0c.    .\n//      l      .,lddxxxxxxxxxxxc.    :xxxxxd,    .lxxxxxl.     ,dxxxxxd:.            .cdxxxxxxxxddl,.      l\n//      No.                                                                                              .oN\n//      MW0l'                                                                                          'l0WM\n//      MMMWKd;.                                                                                    .;dKWMMM\n//\n// // // // // // // // // // // // // // // // // // // // // // // // // // // // // // // // // // // // // // // // // // // // // // // // // // // // // // // // // // // // //\n//                                                                                                                                                                                  //\n//      @dev            ::              Aron Mauritala Ayuk                                                                                                                                          //\n//      @msg            ::              stereo@iii6.xyz                                                                                                                                   //\n//      @github         ::              @stereoIII6\n//      @twitter        ::              @stereoIII6                                                                                                                                              //\n//                                                                                                                                                                                  //\n// // // // // // // // // // // // // // // // // // // // // // // // // // // // // // // // // // // // // // // // // // // // // // // // // // // // // // // // // // // // //\n//                                                                                                                                                                                  //\n//      @dev            ::              Juan Xavier Valverde                                                                                                                                    //\n//      @msg            ::              juanxavier@iii6.xyz                                                                                                                               //\n//      @twitter        ::              @JuanXavier                                                                                                                                             //\n//      @github         ::              @JuanXavier                                                                                                                                             //\n//                                                                                                                                                                                  //                                                                                                                                                                                 //\n// // // // // // // // // // // // // // // // // // // // // // // // // // // // // // // // // // // // // // // // // // // // // // // // // // // // // // // // // // // // //\n//  *   *   *   *   *   *   *   *   *   *   *   *   *   *   *   *   *   *   *   *   *   *   *   *   *   *   *   *   *   *   *   *   *   *   *   *   *   *   *   *   *   *   *   *   //\n// // // // // // // // // // // // // // // // // // // // // // // // // // // // // // // // // // // // // // // // // // // // // // // // // // // // // // // // // // // // //\n//                                                                                                                                                                                  //\n//      @company        ::              Fractio Holding                                                                                                                                                                       //\n//      @title          ::              iii6 Coin Model                                                                                                                            //\n//      @description    ::              ERC20 Model Preset Contract                                                                                                                           //\n//      @version        ::              0.0.1                                                                                                                                       //\n//      @purpose        ::              ERC20 Model Preset                                                                                                          //\n//                                                                                                                                                                                  //\n//                                                                                                                                                                                  //\n//                                                                                                                                                                                  //\n//                                                                                                                                                                                  //\n//                                                                                                                                                                                  //\n// // // // // // // // // // // // // // // // // // // // // // // // // // // // // // // // // // // // // // // // // // // // // // // // // // // // // // // // // // // // //\n//  *   *   *   *   *   *   *   *   *   *   *   *   *   *   *   *   *   *   *   *   *   *   *   *   *   *   *   *   *   *   *   *   *   *   *   *   *   *   *   *   *   *   *   *   //\n// // // // // // // // // // // // // // // // // // // // // // // // // // // // // // // // // // // // // // // // // // // // // // // // // // // // // // // // // // // // //\n\n/////////////////////////////////////////////////////////////////////////////////////////////////////////////////////\n\n/////////////////////////////////////////////////////////////////////////////////////////////////////////////////////\n\npragma solidity ^0.8.7;\n\nimport \"@openzeppelin/contracts/token/ERC20/ERC20.sol\";\nimport \"@openzeppelin/contracts/access/Ownable.sol\";\nimport \"@openzeppelin/contracts/token/ERC20/extensions/ERC20Burnable.sol\";\nimport \"@openzeppelin/contracts/token/ERC20/extensions/ERC20Pausable.sol\";\nimport \"../Oracles/iii6PriceConsumer.sol\";\nimport \"../Math/iii6PriceMath.sol\";\nimport \"../Wallets/iii6Safes.sol\";\nimport \"../Misc/iii6Misc.sol\";\n\ncontract iii6CoinModel is\n    ERC20,\n    ERC20Pausable,\n    ERC20Burnable,\n    Ownable,\n    iii6Misc\n{\n    /**\n     * @dev this contract is a factory contract to deploy iii6CoinModel & iii6DiaModel\n     */\n    // \n    // \n    // \n    // \n    // \n    // \n    /**\n     * @dev declaration of storage vars\n     */\n    uint256 public rate;\n    uint256 public PUB_SUPPLY;\n    uint256 public MAX_SUPPLY;\n    bool private burns;\n    bool private pauses;\n    string public title;\n\n    /**\n     * @dev declaration of enums structs and arrays\n     */\n\n    /**\n     * @dev creates an instance of iii6CoinModel\n     * @param _name token name\n     * @param _sym token symbol\n     * @param _rate token rate\n     * @param _supply max token supply // if 0-infinte\n     * @param _burn bool burnable\n     * @param _pause bool pauseble\n     */\n    constructor(\n        string memory _name, // Token Name\n        string memory _sym, // Token Symbol\n        uint256 _rate, // Token Price in USD // 100 == 1 usd // 100000 = 1ETH\n        uint256 _supply, // Token Max Supply\n        bool _burn, // Burnable Option\n        bool _pause\n    ) ERC20(_name, _sym) {\n        _setRate(_rate); /** @dev see _setRate() :: line138 */\n        MAX_SUPPLY = _supply;\n        title = _name;\n        burns = _burn;\n        pauses = _pause;\n        rate = _rate; /** @dev see Rates{} :: line97 */\n    }\n\n    // \n    // \n    // \n    // \n    // \n    // \n\n    /**\n     * @dev sets token price in denomination currency ocoin\n     * @param _newRate token price in $ocoin (denomination currency)\n     * denomination currency can be set in setCurr()\n     * @return uint256 rate in gascoin\n     */\n    function _setRate(uint256 _newRate) internal returns (uint256) {\n        uint256 gP = _newRate;\n        if (gP < 0) revert();\n        return rate = gP;\n    }\n\n    /**\n     * @dev overrides ERC20 & ERC20Pausable\n     */\n    function _beforeTokenTransfer(\n        address from,\n        address to,\n        uint256 amount\n    ) internal override(ERC20, ERC20Pausable) whenNotPaused {\n        super._beforeTokenTransfer(from, to, amount);\n    }\n\n    // \n    // \n    // \n    // \n    // \n    // \n\n    /**\n     * @dev sets the rate of currency in denomination currency\n     * @dev check the ocoin for its state to determine what value to type in\n     * @param // EXTERNAL\n     * @param _rate  ocoin (denomination currency) // 0-eth 1-gascoin 2-xCur 2-yCur >4-usdc\n     * denomination currency can be set in setCurr()\n     * @return _setRate // ocoin name as enum Coins\n     */\n    function setRate(uint256 _rate) external onlyOwner returns (uint256) {\n        return _setRate(_rate);\n    }\n\n    /**\n     * @dev sets the max supply\n     * @param // EXTERNAL only owner\n     * @param _newSupply  ocoin (denomination currency) // 0-eth 1-gascoin 2-xCur 2-yCur >4-usdc\n     * denomination currency can be set in setCurr()\n     * @return Max Supply\n     */\n    function setMaxSupply(uint256 _newSupply)\n        external\n        onlyOwner\n        returns (uint256)\n    {\n        return MAX_SUPPLY = _newSupply;\n    }\n\n    /**\n     * @dev burn function for token holders only for burnable contracts\n     * @param _amount of tokens to burn // EXTERNAL\n     */\n    function burn(uint256 _amount) public override {\n        if (burns == false) revert();\n        _burn(msg.sender, _amount);\n    }\n\n    /**\n     * @dev toggle the pausable functionality on the contract\n     * @return pausable state of contract\n     */\n    function togglePause() public onlyOwner returns (bool) {\n        return pauses = !pauses;\n    }\n\n    /**\n     * @dev toggle the burnable functionality on the contract\n     * @return burnable state of contract\n     */\n    function toggleBurn() public onlyOwner returns (bool) {\n        return burns = !burns;\n    }\n\n    /**\n     * @dev if contract pauses the state get checked and toggled via condition to opposite state\n     * @return active state of contract (true = paused / false = active)\n     */\n    function toggleState() public onlyOwner returns (bool) {\n        if (pauses == false) revert();\n        if (paused()) _unpause();\n        else _pause();\n        return paused();\n    }\n\n    /**\n     * @dev buy function for token holders\n     * @param _amount of tokens to mint // EXTERNAL\n     * @return uint total price\n     */\n    function buyTokens(uint256 _amount) external payable returns (uint256) {\n        if (msg.value <= _amount * rate) revert();\n        if ((MAX_SUPPLY - PUB_SUPPLY) - (_amount * 10**18) < 0) revert();\n        _mint(msg.sender, _amount * 10**18);\n        return _amount * rate;\n    }\n\n    /**\n     * @dev recieve function returns tokens on gascoin transfer to contract\n     */\n\n    receive() external payable {\n        // condition\n        _rcMint();\n    }\n\n    /**\n     * @dev recieve function returns tokens on gascoin and/or tokens transfer to contract\n     */\n    fallback() external payable {\n        // condition\n        // _rcMint();\n    }\n\n    /**\n     * @dev does mint  in exchange for gascoin action on recieve() and fallback()\n     */\n    function _rcMint() internal {\n        uint256 amount = msg.value / rate;\n        _mint(msg.sender, amount);\n    }\n}\n\ncontract iii6CoinModelDrop is iii6CoinModel {\n    /**\n     * @dev creates an instance of iii6CoinModel\n     * @param _name token name\n     * @param _sym token symbol\n     * @param _rate token rate\n     * @param _supply max token supply // if 0-infinte\n     * @param _burn bool burnable\n     * @param _pause bool pauseble\n     * @param _curr denomintaor currency // 0-eth 1-gascoin 2-xCur 2-yCur >4-usdc\n     */\n    constructor(\n        string memory _name,\n        string memory _sym,\n        uint256 _rate,\n        uint256 _supply,\n        bool _burn,\n        bool _pause,\n        uint256 _curr\n    ) iii6CoinModel(_name, _sym, _rate, _supply, _burn, _pause) {}\n\n    /**\n     * @dev Drops users 100 Full Tokens For testnets only\n     */\n    function dropToken() external {\n        _mint(msg.sender, 100 * 10**18);\n    }\n}\n// // // // // // // // // // // // // // // // // // // // // // // // // // // // // // // // // // // // // // // // // // // // // // // // // // // // // // // // // // // // //\n//\n//      MMWKd:..                                                                                    ..:dKWMM\n//      MKl.                                                                                            .lKW\n//      O'       ..''''''''''''.     .''''''.     .'''''.      .''''''''''''''.     .''''''''''''..       'O\n//      '     .ckKNNWNWWWWWWWWWk.   .xNWWNWNl    ,0WWWWW0,     lNWWWWWWWWWNWNk'    ;0NNNWWWWWWWWNNKkc.     '\n//           ,OWMMMMMMMMMMMMMMMO.   .kMMMMMWl    ,KMMMMMK,     lWMMMMMMMMMMM0,    ;KMMMMMMMMMMMMMMMMWO,\n//          .kMMMMMMMMMMMMMMMMMO.   .kMMMMMWl    ,KMMMMMK,     lWMMMMMMMMMM0,    ;KMMMMMMMMMMMMMMMMMMMk.\n//          '0MMMMMMMMMMMMMMMMMO.   .kMMMMMWl    ,KMMMMMK,     lWMMMMMMMMM0,    :KMMMMMMMMMMMMMMMMMMMM0'\n//          '0MMMMMMMMMMMMMMMMMO.   .kMMMMMWl    ,KMMMMMK,     lWMMMMMMMM0,    :KMMMMMMMMMMMMMMMMMMMMM0'\n//          '0MMMMMMMMMMMMMMMMMO.   .kMMMMMWl    ,KMMMMMK,     lWMMMMMMM0,    ;0NNWWMMMMMMMMMMMMMMMMMM0'\n//          '0MMMMMMMMMMMMMMMMMO.   .kMMMMMWl    ,KMMMMMK,     lWMMMMMM0,     .'.',;lkNMMMMMMMMMMMMMMM0'\n//          '0MMMMMMMMMMMMMMMMMO.   .kMMMMMWl    ,KMMMMMK,     lWMMMMMK;              ,kWMMMMMMMMMMMMM0'\n//          '0MMMMMMMMMMMMMMMMMO.   .kMMMMMWl    ,KMMMMMK,     lWMMMMX:    .:oxxdc'    .dWMMMMMMMMMMMM0'\n//          '0MMMMMMMMMMMMMMMMMO.   .kMMMMMWl    ,KMMMMMK,     lWMMMWd.   ,OWMMMMMXl.   '0MMMMMMMMMMMM0'\n//          '0MMMMMMMMMMMMMMMMMO.   .kMMMMMWl    ,KMMMMMK,     lWMMMX;   .kMMMMMMMMK,   .xMMMMMMMMMMMM0'\n//          '0MMMMMMMMMMMMMMMMMO.   .kMMMMMWl    ,KMMMMMK,     lWMMM0'   .OMMMMMMMMX;   .xMMMMMMMMMMMM0'\n//          .OMMMMMMMMMMMMMMMMMO.   .kMMMMMWl    ,KMMMMMK,     lWMMMK,    lNMMMMMMWx.   '0MMMMMMMMMMMMO.\n//           lNMMMMMMMMMMMMMMMMO.   .kMMMMMWl    ,KMMMMMK,     lWMMMWd.   .:x0KKKkc.   .dWMMMMMMMMMMMNl\n//      .    .c0WMMMMMMMMMMMMMMO.   .kMMMMMWo    ,KMMMMMK,     lWMMMMNd.     ....     .xNMMMMMMMMMMW0c.    .\n//      l      .,lddxxxxxxxxxxxc.    :xxxxxd,    .lxxxxxl.     ,dxxxxxd:.            .cdxxxxxxxxddl,.      l\n//      No.                                                                                              .oN\n//      MW0l'                                                                                          'l0WM\n//      MMMWKd;.                                                                                    .;dKWMMM\n//\n// // // // // // // // // // // // // // // // // // // // // // // // // // // // // // // // // // // // // // // // // // // // // // // // // // // // // // // // // // // // //\n",
  "sourcePath": "/Users/iii6/Documents/GitHub/III6Dojo/contracts/iii6Utils/Assets/iii6CoinModel.sol",
  "compiler": {
    "name": "solc",
    "version": "0.8.17+commit.8df45f5f.Emscripten.clang"
  },
  "schemaVersion": "3.4.8",
  "updatedAt": "2023-03-16T00:54:35.198Z",
  "devdoc": {
    "kind": "dev",
    "methods": {
      "allowance(address,address)": {
        "details": "See {IERC20-allowance}."
      },
      "approve(address,uint256)": {
        "details": "See {IERC20-approve}. Requirements: - `spender` cannot be the zero address."
      },
      "balanceOf(address)": {
        "details": "See {IERC20-balanceOf}."
      },
      "burn(uint256)": {
        "details": "burn function for token holders only for burnable contracts",
        "params": {
          "_amount": "of tokens to burn // EXTERNAL"
        }
      },
      "burnFrom(address,uint256)": {
        "details": "Destroys `amount` tokens from `account`, deducting from the caller's allowance. See {ERC20-_burn} and {ERC20-allowance}. Requirements: - the caller must have allowance for ``accounts``'s tokens of at least `amount`."
      },
      "buyTokens(uint256)": {
        "details": "buy function for token holders",
        "params": {
          "_amount": "of tokens to mint // EXTERNAL"
        },
        "returns": {
          "_0": "uint total price"
        }
      },
      "constructor": {
        "details": "creates an instance of iii6CoinModel",
        "params": {
          "_burn": "bool burnable",
          "_curr": "denomintaor currency // 0-eth 1-gascoin 2-xCur 2-yCur >4-usdc",
          "_name": "token name",
          "_pause": "bool pauseble",
          "_rate": "token rate",
          "_supply": "max token supply // if 0-infinte",
          "_sym": "token symbol"
        }
      },
      "decimals()": {
        "details": "Returns the number of decimals used to get its user representation. For example, if `decimals` equals `2`, a balance of `505` tokens should be displayed to a user as `5.05` (`505 / 10 ** 2`). Tokens usually opt for a value of 18, imitating the relationship between Ether and Wei. This is the value {ERC20} uses, unless this function is overridden; NOTE: This information is only used for _display_ purposes: it in no way affects any of the arithmetic of the contract, including {IERC20-balanceOf} and {IERC20-transfer}."
      },
      "decreaseAllowance(address,uint256)": {
        "details": "Atomically decreases the allowance granted to `spender` by the caller. This is an alternative to {approve} that can be used as a mitigation for problems described in {IERC20-approve}. Emits an {Approval} event indicating the updated allowance. Requirements: - `spender` cannot be the zero address. - `spender` must have allowance for the caller of at least `subtractedValue`."
      },
      "dropToken()": {
        "details": "Drops users 100 Full Tokens For testnets only"
      },
      "increaseAllowance(address,uint256)": {
        "details": "Atomically increases the allowance granted to `spender` by the caller. This is an alternative to {approve} that can be used as a mitigation for problems described in {IERC20-approve}. Emits an {Approval} event indicating the updated allowance. Requirements: - `spender` cannot be the zero address."
      },
      "name()": {
        "details": "Returns the name of the token."
      },
      "owner()": {
        "details": "Returns the address of the current owner."
      },
      "paused()": {
        "details": "Returns true if the contract is paused, and false otherwise."
      },
      "renounceOwnership()": {
        "details": "Leaves the contract without owner. It will not be possible to call `onlyOwner` functions anymore. Can only be called by the current owner. NOTE: Renouncing ownership will leave the contract without an owner, thereby removing any functionality that is only available to the owner."
      },
      "setMaxSupply(uint256)": {
        "details": "sets the max supply",
        "params": {
          "": "// EXTERNAL only owner",
          "_newSupply": "ocoin (denomination currency) // 0-eth 1-gascoin 2-xCur 2-yCur >4-usdc denomination currency can be set in setCurr()"
        },
        "returns": {
          "_0": "Max Supply"
        }
      },
      "setRate(uint256)": {
        "details": "sets the rate of currency in denomination currencycheck the ocoin for its state to determine what value to type in",
        "params": {
          "": "// EXTERNAL",
          "_rate": "ocoin (denomination currency) // 0-eth 1-gascoin 2-xCur 2-yCur >4-usdc denomination currency can be set in setCurr()"
        },
        "returns": {
          "_0": "_setRate // ocoin name as enum Coins"
        }
      },
      "symbol()": {
        "details": "Returns the symbol of the token, usually a shorter version of the name."
      },
      "toggleBurn()": {
        "details": "toggle the burnable functionality on the contract",
        "returns": {
          "_0": "burnable state of contract"
        }
      },
      "togglePause()": {
        "details": "toggle the pausable functionality on the contract",
        "returns": {
          "_0": "pausable state of contract"
        }
      },
      "toggleState()": {
        "details": "if contract pauses the state get checked and toggled via condition to opposite state",
        "returns": {
          "_0": "active state of contract (true = paused / false = active)"
        }
      },
      "totalSupply()": {
        "details": "See {IERC20-totalSupply}."
      },
      "transfer(address,uint256)": {
        "details": "See {IERC20-transfer}. Requirements: - `recipient` cannot be the zero address. - the caller must have a balance of at least `amount`."
      },
      "transferFrom(address,address,uint256)": {
        "details": "See {IERC20-transferFrom}. Emits an {Approval} event indicating the updated allowance. This is not required by the EIP. See the note at the beginning of {ERC20}. Requirements: - `sender` and `recipient` cannot be the zero address. - `sender` must have a balance of at least `amount`. - the caller must have allowance for ``sender``'s tokens of at least `amount`."
      },
      "transferOwnership(address)": {
        "details": "Transfers ownership of the contract to a new account (`newOwner`). Can only be called by the current owner."
      }
    },
    "version": 1
  },
  "userdoc": {
    "kind": "user",
    "methods": {},
    "version": 1
  }
}