{
  "contractName": "iii6ShareModel",
  "abi": [
    {
      "inputs": [
        {
          "internalType": "string",
          "name": "_name",
          "type": "string"
        },
        {
          "internalType": "string",
          "name": "_sym",
          "type": "string"
        },
        {
          "internalType": "address",
          "name": "_admin",
          "type": "address"
        }
      ],
      "stateMutability": "nonpayable",
      "type": "constructor"
    },
    {
      "anonymous": false,
      "inputs": [
        {
          "indexed": true,
          "internalType": "address",
          "name": "owner",
          "type": "address"
        },
        {
          "indexed": true,
          "internalType": "address",
          "name": "spender",
          "type": "address"
        },
        {
          "indexed": false,
          "internalType": "uint256",
          "name": "value",
          "type": "uint256"
        }
      ],
      "name": "Approval",
      "type": "event"
    },
    {
      "anonymous": false,
      "inputs": [
        {
          "indexed": true,
          "internalType": "address",
          "name": "from",
          "type": "address"
        },
        {
          "indexed": true,
          "internalType": "address",
          "name": "to",
          "type": "address"
        },
        {
          "indexed": false,
          "internalType": "uint256",
          "name": "value",
          "type": "uint256"
        }
      ],
      "name": "Transfer",
      "type": "event"
    },
    {
      "inputs": [],
      "name": "MAX_SUPPLY",
      "outputs": [
        {
          "internalType": "uint256",
          "name": "",
          "type": "uint256"
        }
      ],
      "stateMutability": "view",
      "type": "function"
    },
    {
      "inputs": [],
      "name": "OPEN_SUPPLY",
      "outputs": [
        {
          "internalType": "uint256",
          "name": "",
          "type": "uint256"
        }
      ],
      "stateMutability": "view",
      "type": "function"
    },
    {
      "inputs": [
        {
          "internalType": "address",
          "name": "owner",
          "type": "address"
        },
        {
          "internalType": "address",
          "name": "spender",
          "type": "address"
        }
      ],
      "name": "allowance",
      "outputs": [
        {
          "internalType": "uint256",
          "name": "",
          "type": "uint256"
        }
      ],
      "stateMutability": "view",
      "type": "function"
    },
    {
      "inputs": [
        {
          "internalType": "address",
          "name": "spender",
          "type": "address"
        },
        {
          "internalType": "uint256",
          "name": "amount",
          "type": "uint256"
        }
      ],
      "name": "approve",
      "outputs": [
        {
          "internalType": "bool",
          "name": "",
          "type": "bool"
        }
      ],
      "stateMutability": "nonpayable",
      "type": "function"
    },
    {
      "inputs": [
        {
          "internalType": "address",
          "name": "account",
          "type": "address"
        }
      ],
      "name": "balanceOf",
      "outputs": [
        {
          "internalType": "uint256",
          "name": "",
          "type": "uint256"
        }
      ],
      "stateMutability": "view",
      "type": "function"
    },
    {
      "inputs": [
        {
          "internalType": "uint256",
          "name": "",
          "type": "uint256"
        }
      ],
      "name": "board",
      "outputs": [
        {
          "internalType": "address",
          "name": "",
          "type": "address"
        }
      ],
      "stateMutability": "view",
      "type": "function"
    },
    {
      "inputs": [],
      "name": "decimals",
      "outputs": [
        {
          "internalType": "uint8",
          "name": "",
          "type": "uint8"
        }
      ],
      "stateMutability": "view",
      "type": "function"
    },
    {
      "inputs": [
        {
          "internalType": "address",
          "name": "spender",
          "type": "address"
        },
        {
          "internalType": "uint256",
          "name": "subtractedValue",
          "type": "uint256"
        }
      ],
      "name": "decreaseAllowance",
      "outputs": [
        {
          "internalType": "bool",
          "name": "",
          "type": "bool"
        }
      ],
      "stateMutability": "nonpayable",
      "type": "function"
    },
    {
      "inputs": [
        {
          "internalType": "address",
          "name": "spender",
          "type": "address"
        },
        {
          "internalType": "uint256",
          "name": "addedValue",
          "type": "uint256"
        }
      ],
      "name": "increaseAllowance",
      "outputs": [
        {
          "internalType": "bool",
          "name": "",
          "type": "bool"
        }
      ],
      "stateMutability": "nonpayable",
      "type": "function"
    },
    {
      "inputs": [],
      "name": "name",
      "outputs": [
        {
          "internalType": "string",
          "name": "",
          "type": "string"
        }
      ],
      "stateMutability": "view",
      "type": "function"
    },
    {
      "inputs": [],
      "name": "symbol",
      "outputs": [
        {
          "internalType": "string",
          "name": "",
          "type": "string"
        }
      ],
      "stateMutability": "view",
      "type": "function"
    },
    {
      "inputs": [],
      "name": "title",
      "outputs": [
        {
          "internalType": "string",
          "name": "",
          "type": "string"
        }
      ],
      "stateMutability": "view",
      "type": "function"
    },
    {
      "inputs": [],
      "name": "totalSupply",
      "outputs": [
        {
          "internalType": "uint256",
          "name": "",
          "type": "uint256"
        }
      ],
      "stateMutability": "view",
      "type": "function"
    },
    {
      "inputs": [
        {
          "internalType": "address",
          "name": "recipient",
          "type": "address"
        },
        {
          "internalType": "uint256",
          "name": "amount",
          "type": "uint256"
        }
      ],
      "name": "transfer",
      "outputs": [
        {
          "internalType": "bool",
          "name": "",
          "type": "bool"
        }
      ],
      "stateMutability": "nonpayable",
      "type": "function"
    },
    {
      "inputs": [
        {
          "internalType": "address",
          "name": "sender",
          "type": "address"
        },
        {
          "internalType": "address",
          "name": "recipient",
          "type": "address"
        },
        {
          "internalType": "uint256",
          "name": "amount",
          "type": "uint256"
        }
      ],
      "name": "transferFrom",
      "outputs": [
        {
          "internalType": "bool",
          "name": "",
          "type": "bool"
        }
      ],
      "stateMutability": "nonpayable",
      "type": "function"
    },
    {
      "inputs": [
        {
          "internalType": "address",
          "name": "_adr",
          "type": "address"
        }
      ],
      "name": "makeTrustee",
      "outputs": [
        {
          "internalType": "address",
          "name": "",
          "type": "address"
        }
      ],
      "stateMutability": "nonpayable",
      "type": "function"
    },
    {
      "inputs": [
        {
          "internalType": "address",
          "name": "_adr",
          "type": "address"
        }
      ],
      "name": "makeBoardMember",
      "outputs": [
        {
          "internalType": "address",
          "name": "",
          "type": "address"
        }
      ],
      "stateMutability": "nonpayable",
      "type": "function"
    },
    {
      "inputs": [
        {
          "internalType": "address",
          "name": "_adr",
          "type": "address"
        },
        {
          "internalType": "uint256",
          "name": "_amount",
          "type": "uint256"
        }
      ],
      "name": "createSharesFor",
      "outputs": [
        {
          "internalType": "bool",
          "name": "",
          "type": "bool"
        }
      ],
      "stateMutability": "nonpayable",
      "type": "function"
    }
  ],
  "bytecode": "0x60806040523480156200001157600080fd5b506040516200243038038062002430833981810160405281019062000037919062000315565b828281600390816200004a9190620005fa565b5080600490816200005c9190620005fa565b50505068056bc75e2d6310000060058190555060055460068190555082600c9081620000899190620005fa565b5080600960006101000a81548173ffffffffffffffffffffffffffffffffffffffff021916908373ffffffffffffffffffffffffffffffffffffffff16021790555030600a60006101000a81548173ffffffffffffffffffffffffffffffffffffffff021916908373ffffffffffffffffffffffffffffffffffffffff1602179055506001600781905550505050620006e1565b6000604051905090565b600080fd5b600080fd5b600080fd5b600080fd5b6000601f19601f8301169050919050565b7f4e487b7100000000000000000000000000000000000000000000000000000000600052604160045260246000fd5b62000186826200013b565b810181811067ffffffffffffffff82111715620001a857620001a76200014c565b5b80604052505050565b6000620001bd6200011d565b9050620001cb82826200017b565b919050565b600067ffffffffffffffff821115620001ee57620001ed6200014c565b5b620001f9826200013b565b9050602081019050919050565b60005b838110156200022657808201518184015260208101905062000209565b60008484015250505050565b6000620002496200024384620001d0565b620001b1565b90508281526020810184848401111562000268576200026762000136565b5b6200027584828562000206565b509392505050565b600082601f83011262000295576200029462000131565b5b8151620002a784826020860162000232565b91505092915050565b600073ffffffffffffffffffffffffffffffffffffffff82169050919050565b6000620002dd82620002b0565b9050919050565b620002ef81620002d0565b8114620002fb57600080fd5b50565b6000815190506200030f81620002e4565b92915050565b60008060006060848603121562000331576200033062000127565b5b600084015167ffffffffffffffff8111156200035257620003516200012c565b5b62000360868287016200027d565b935050602084015167ffffffffffffffff8111156200038457620003836200012c565b5b62000392868287016200027d565b9250506040620003a586828701620002fe565b9150509250925092565b600081519050919050565b7f4e487b7100000000000000000000000000000000000000000000000000000000600052602260045260246000fd5b600060028204905060018216806200040257607f821691505b602082108103620004185762000417620003ba565b5b50919050565b60008190508160005260206000209050919050565b60006020601f8301049050919050565b600082821b905092915050565b600060088302620004827fffffffffffffffffffffffffffffffffffffffffffffffffffffffffffffffff8262000443565b6200048e868362000443565b95508019841693508086168417925050509392505050565b6000819050919050565b6000819050919050565b6000620004db620004d5620004cf84620004a6565b620004b0565b620004a6565b9050919050565b6000819050919050565b620004f783620004ba565b6200050f6200050682620004e2565b84845462000450565b825550505050565b600090565b6200052662000517565b62000533818484620004ec565b505050565b5b818110156200055b576200054f6000826200051c565b60018101905062000539565b5050565b601f821115620005aa5762000574816200041e565b6200057f8462000433565b810160208510156200058f578190505b620005a76200059e8562000433565b83018262000538565b50505b505050565b600082821c905092915050565b6000620005cf60001984600802620005af565b1980831691505092915050565b6000620005ea8383620005bc565b9150826002028217905092915050565b6200060582620003af565b67ffffffffffffffff8111156200062157620006206200014c565b5b6200062d8254620003e9565b6200063a8282856200055f565b600060209050601f8311600181146200067257600084156200065d578287015190505b620006698582620005dc565b865550620006d9565b601f19841662000682866200041e565b60005b82811015620006ac5784890151825560018201915060208501945060208101905062000685565b86831015620006cc5784890151620006c8601f891682620005bc565b8355505b6001600288020188555050505b505050505050565b611d3f80620006f16000396000f3fe608060405234801561001057600080fd5b50600436106101165760003560e01c806370a08231116100a2578063b2b070f711610071578063b2b070f71461031f578063b80a9b971461034f578063c9d545f81461036d578063dd62ed3e1461039d578063ead0675c146103cd57610116565b806370a082311461027157806395d89b41146102a1578063a457c2d7146102bf578063a9059cbb146102ef57610116565b806328ed6e3f116100e957806328ed6e3f146101b7578063313ce567146101e757806332cb6b0c1461020557806339509351146102235780634a79d50c1461025357610116565b806306fdde031461011b578063095ea7b31461013957806318160ddd1461016957806323b872dd14610187575b600080fd5b6101236103fd565b6040516101309190611446565b60405180910390f35b610153600480360381019061014e9190611501565b61048f565b604051610160919061155c565b60405180910390f35b6101716104ad565b60405161017e9190611586565b60405180910390f35b6101a1600480360381019061019c91906115a1565b6104b7565b6040516101ae919061155c565b60405180910390f35b6101d160048036038101906101cc91906115f4565b6105af565b6040516101de9190611630565b60405180910390f35b6101ef6105ee565b6040516101fc9190611667565b60405180910390f35b61020d6105f7565b60405161021a9190611586565b60405180910390f35b61023d60048036038101906102389190611501565b6105fd565b60405161024a919061155c565b60405180910390f35b61025b6106a9565b6040516102689190611446565b60405180910390f35b61028b60048036038101906102869190611682565b610737565b6040516102989190611586565b60405180910390f35b6102a961077f565b6040516102b69190611446565b60405180910390f35b6102d960048036038101906102d49190611501565b610811565b6040516102e6919061155c565b60405180910390f35b61030960048036038101906103049190611501565b6108fc565b604051610316919061155c565b60405180910390f35b61033960048036038101906103349190611501565b61091a565b604051610346919061155c565b60405180910390f35b610357610988565b6040516103649190611586565b60405180910390f35b61038760048036038101906103829190611682565b61098e565b6040516103949190611630565b60405180910390f35b6103b760048036038101906103b291906116af565b6109fa565b6040516103c49190611586565b60405180910390f35b6103e760048036038101906103e29190611682565b610a81565b6040516103f49190611630565b60405180910390f35b60606003805461040c9061171e565b80601f01602080910402602001604051908101604052809291908181526020018280546104389061171e565b80156104855780601f1061045a57610100808354040283529160200191610485565b820191906000526020600020905b81548152906001019060200180831161046857829003601f168201915b5050505050905090565b60006104a361049c610aed565b8484610af5565b6001905092915050565b6000600254905090565b60006104c4848484610cbe565b6000600160008673ffffffffffffffffffffffffffffffffffffffff1673ffffffffffffffffffffffffffffffffffffffff168152602001908152602001600020600061050f610aed565b73ffffffffffffffffffffffffffffffffffffffff1673ffffffffffffffffffffffffffffffffffffffff1681526020019081526020016000205490508281101561058f576040517f08c379a0000000000000000000000000000000000000000000000000000000008152600401610586906117c1565b60405180910390fd5b6105a38561059b610aed565b858403610af5565b60019150509392505050565b600b81815481106105bf57600080fd5b906000526020600020016000915054906101000a900473ffffffffffffffffffffffffffffffffffffffff1681565b60006012905090565b60055481565b600061069f61060a610aed565b848460016000610618610aed565b73ffffffffffffffffffffffffffffffffffffffff1673ffffffffffffffffffffffffffffffffffffffff16815260200190815260200160002060008873ffffffffffffffffffffffffffffffffffffffff1673ffffffffffffffffffffffffffffffffffffffff1681526020019081526020016000205461069a9190611810565b610af5565b6001905092915050565b600c80546106b69061171e565b80601f01602080910402602001604051908101604052809291908181526020018280546106e29061171e565b801561072f5780601f106107045761010080835404028352916020019161072f565b820191906000526020600020905b81548152906001019060200180831161071257829003601f168201915b505050505081565b60008060008373ffffffffffffffffffffffffffffffffffffffff1673ffffffffffffffffffffffffffffffffffffffff168152602001908152602001600020549050919050565b60606004805461078e9061171e565b80601f01602080910402602001604051908101604052809291908181526020018280546107ba9061171e565b80156108075780601f106107dc57610100808354040283529160200191610807565b820191906000526020600020905b8154815290600101906020018083116107ea57829003601f168201915b5050505050905090565b60008060016000610820610aed565b73ffffffffffffffffffffffffffffffffffffffff1673ffffffffffffffffffffffffffffffffffffffff16815260200190815260200160002060008573ffffffffffffffffffffffffffffffffffffffff1673ffffffffffffffffffffffffffffffffffffffff168152602001908152602001600020549050828110156108dd576040517f08c379a00000000000000000000000000000000000000000000000000000000081526004016108d4906118b6565b60405180910390fd5b6108f16108e8610aed565b85858403610af5565b600191505092915050565b6000610910610909610aed565b8484610cbe565b6001905092915050565b6000600860009054906101000a900473ffffffffffffffffffffffffffffffffffffffff1673ffffffffffffffffffffffffffffffffffffffff163373ffffffffffffffffffffffffffffffffffffffff161461097657600080fd5b6109808383610f3d565b905092915050565b60065481565b6000600960009054906101000a900473ffffffffffffffffffffffffffffffffffffffff1673ffffffffffffffffffffffffffffffffffffffff163373ffffffffffffffffffffffffffffffffffffffff16146109ea57600080fd5b6109f382611004565b9050919050565b6000600160008473ffffffffffffffffffffffffffffffffffffffff1673ffffffffffffffffffffffffffffffffffffffff16815260200190815260200160002060008373ffffffffffffffffffffffffffffffffffffffff1673ffffffffffffffffffffffffffffffffffffffff16815260200190815260200160002054905092915050565b6000600860009054906101000a900473ffffffffffffffffffffffffffffffffffffffff1673ffffffffffffffffffffffffffffffffffffffff163373ffffffffffffffffffffffffffffffffffffffff1614610add57600080fd5b610ae6826110a7565b9050919050565b600033905090565b600073ffffffffffffffffffffffffffffffffffffffff168373ffffffffffffffffffffffffffffffffffffffff1603610b64576040517f08c379a0000000000000000000000000000000000000000000000000000000008152600401610b5b90611948565b60405180910390fd5b600073ffffffffffffffffffffffffffffffffffffffff168273ffffffffffffffffffffffffffffffffffffffff1603610bd3576040517f08c379a0000000000000000000000000000000000000000000000000000000008152600401610bca906119da565b60405180910390fd5b80600160008573ffffffffffffffffffffffffffffffffffffffff1673ffffffffffffffffffffffffffffffffffffffff16815260200190815260200160002060008473ffffffffffffffffffffffffffffffffffffffff1673ffffffffffffffffffffffffffffffffffffffff168152602001908152602001600020819055508173ffffffffffffffffffffffffffffffffffffffff168373ffffffffffffffffffffffffffffffffffffffff167f8c5be1e5ebec7d5bd14f71427d1e84f3dd0314c0f7b2291e5b200ac8c7c3b92583604051610cb19190611586565b60405180910390a3505050565b600073ffffffffffffffffffffffffffffffffffffffff168373ffffffffffffffffffffffffffffffffffffffff1603610d2d576040517f08c379a0000000000000000000000000000000000000000000000000000000008152600401610d2490611a6c565b60405180910390fd5b600073ffffffffffffffffffffffffffffffffffffffff168273ffffffffffffffffffffffffffffffffffffffff1603610d9c576040517f08c379a0000000000000000000000000000000000000000000000000000000008152600401610d9390611afe565b60405180910390fd5b610da78383836111a3565b60008060008573ffffffffffffffffffffffffffffffffffffffff1673ffffffffffffffffffffffffffffffffffffffff16815260200190815260200160002054905081811015610e2d576040517f08c379a0000000000000000000000000000000000000000000000000000000008152600401610e2490611b90565b60405180910390fd5b8181036000808673ffffffffffffffffffffffffffffffffffffffff1673ffffffffffffffffffffffffffffffffffffffff16815260200190815260200160002081905550816000808573ffffffffffffffffffffffffffffffffffffffff1673ffffffffffffffffffffffffffffffffffffffff1681526020019081526020016000206000828254610ec09190611810565b925050819055508273ffffffffffffffffffffffffffffffffffffffff168473ffffffffffffffffffffffffffffffffffffffff167fddf252ad1be2c89b69c2b068fc378daa952ba7f163c4a11628f55a4df523b3ef84604051610f249190611586565b60405180910390a3610f378484846111a8565b50505050565b6000600860009054906101000a900473ffffffffffffffffffffffffffffffffffffffff1673ffffffffffffffffffffffffffffffffffffffff163373ffffffffffffffffffffffffffffffffffffffff1614610f9957600080fd5b610fa2836111ad565b15610ff957600066038d7ea4c6800083610fbc9190611bb0565b90508060065410610ff4578060066000828254610fd99190611bf2565b92505081905550610fea8482611257565b6001915050610ffe565b600080fd5b600080fd5b92915050565b6000600960009054906101000a900473ffffffffffffffffffffffffffffffffffffffff1673ffffffffffffffffffffffffffffffffffffffff163373ffffffffffffffffffffffffffffffffffffffff161461106057600080fd5b81600860006101000a81548173ffffffffffffffffffffffffffffffffffffffff021916908373ffffffffffffffffffffffffffffffffffffffff16021790559050919050565b6000600860009054906101000a900473ffffffffffffffffffffffffffffffffffffffff1673ffffffffffffffffffffffffffffffffffffffff163373ffffffffffffffffffffffffffffffffffffffff161461110357600080fd5b61110c826111ad565b611199576007600081548092919061112390611c26565b919050555081600b600160075461113a9190611bf2565b8154811061114b5761114a611c6e565b5b9060005260206000200160006101000a81548173ffffffffffffffffffffffffffffffffffffffff021916908373ffffffffffffffffffffffffffffffffffffffff1602179055905061119e565b600080fd5b919050565b505050565b505050565b6000806000905060005b600b8054905081101561124d57600b81815481106111d8576111d7611c6e565b5b9060005260206000200160009054906101000a900473ffffffffffffffffffffffffffffffffffffffff1673ffffffffffffffffffffffffffffffffffffffff168473ffffffffffffffffffffffffffffffffffffffff160361123a57600191505b808061124590611c26565b9150506111b7565b5080915050919050565b600073ffffffffffffffffffffffffffffffffffffffff168273ffffffffffffffffffffffffffffffffffffffff16036112c6576040517f08c379a00000000000000000000000000000000000000000000000000000000081526004016112bd90611ce9565b60405180910390fd5b6112d2600083836111a3565b80600260008282546112e49190611810565b92505081905550806000808473ffffffffffffffffffffffffffffffffffffffff1673ffffffffffffffffffffffffffffffffffffffff16815260200190815260200160002060008282546113399190611810565b925050819055508173ffffffffffffffffffffffffffffffffffffffff16600073ffffffffffffffffffffffffffffffffffffffff167fddf252ad1be2c89b69c2b068fc378daa952ba7f163c4a11628f55a4df523b3ef8360405161139e9190611586565b60405180910390a36113b2600083836111a8565b5050565b600081519050919050565b600082825260208201905092915050565b60005b838110156113f05780820151818401526020810190506113d5565b60008484015250505050565b6000601f19601f8301169050919050565b6000611418826113b6565b61142281856113c1565b93506114328185602086016113d2565b61143b816113fc565b840191505092915050565b60006020820190508181036000830152611460818461140d565b905092915050565b600080fd5b600073ffffffffffffffffffffffffffffffffffffffff82169050919050565b60006114988261146d565b9050919050565b6114a88161148d565b81146114b357600080fd5b50565b6000813590506114c58161149f565b92915050565b6000819050919050565b6114de816114cb565b81146114e957600080fd5b50565b6000813590506114fb816114d5565b92915050565b6000806040838503121561151857611517611468565b5b6000611526858286016114b6565b9250506020611537858286016114ec565b9150509250929050565b60008115159050919050565b61155681611541565b82525050565b6000602082019050611571600083018461154d565b92915050565b611580816114cb565b82525050565b600060208201905061159b6000830184611577565b92915050565b6000806000606084860312156115ba576115b9611468565b5b60006115c8868287016114b6565b93505060206115d9868287016114b6565b92505060406115ea868287016114ec565b9150509250925092565b60006020828403121561160a57611609611468565b5b6000611618848285016114ec565b91505092915050565b61162a8161148d565b82525050565b60006020820190506116456000830184611621565b92915050565b600060ff82169050919050565b6116618161164b565b82525050565b600060208201905061167c6000830184611658565b92915050565b60006020828403121561169857611697611468565b5b60006116a6848285016114b6565b91505092915050565b600080604083850312156116c6576116c5611468565b5b60006116d4858286016114b6565b92505060206116e5858286016114b6565b9150509250929050565b7f4e487b7100000000000000000000000000000000000000000000000000000000600052602260045260246000fd5b6000600282049050600182168061173657607f821691505b602082108103611749576117486116ef565b5b50919050565b7f45524332303a207472616e7366657220616d6f756e742065786365656473206160008201527f6c6c6f77616e6365000000000000000000000000000000000000000000000000602082015250565b60006117ab6028836113c1565b91506117b68261174f565b604082019050919050565b600060208201905081810360008301526117da8161179e565b9050919050565b7f4e487b7100000000000000000000000000000000000000000000000000000000600052601160045260246000fd5b600061181b826114cb565b9150611826836114cb565b925082820190508082111561183e5761183d6117e1565b5b92915050565b7f45524332303a2064656372656173656420616c6c6f77616e63652062656c6f7760008201527f207a65726f000000000000000000000000000000000000000000000000000000602082015250565b60006118a06025836113c1565b91506118ab82611844565b604082019050919050565b600060208201905081810360008301526118cf81611893565b9050919050565b7f45524332303a20617070726f76652066726f6d20746865207a65726f2061646460008201527f7265737300000000000000000000000000000000000000000000000000000000602082015250565b60006119326024836113c1565b915061193d826118d6565b604082019050919050565b6000602082019050818103600083015261196181611925565b9050919050565b7f45524332303a20617070726f766520746f20746865207a65726f20616464726560008201527f7373000000000000000000000000000000000000000000000000000000000000602082015250565b60006119c46022836113c1565b91506119cf82611968565b604082019050919050565b600060208201905081810360008301526119f3816119b7565b9050919050565b7f45524332303a207472616e736665722066726f6d20746865207a65726f20616460008201527f6472657373000000000000000000000000000000000000000000000000000000602082015250565b6000611a566025836113c1565b9150611a61826119fa565b604082019050919050565b60006020820190508181036000830152611a8581611a49565b9050919050565b7f45524332303a207472616e7366657220746f20746865207a65726f206164647260008201527f6573730000000000000000000000000000000000000000000000000000000000602082015250565b6000611ae86023836113c1565b9150611af382611a8c565b604082019050919050565b60006020820190508181036000830152611b1781611adb565b9050919050565b7f45524332303a207472616e7366657220616d6f756e742065786365656473206260008201527f616c616e63650000000000000000000000000000000000000000000000000000602082015250565b6000611b7a6026836113c1565b9150611b8582611b1e565b604082019050919050565b60006020820190508181036000830152611ba981611b6d565b9050919050565b6000611bbb826114cb565b9150611bc6836114cb565b9250828202611bd4816114cb565b91508282048414831517611beb57611bea6117e1565b5b5092915050565b6000611bfd826114cb565b9150611c08836114cb565b9250828203905081811115611c2057611c1f6117e1565b5b92915050565b6000611c31826114cb565b91507fffffffffffffffffffffffffffffffffffffffffffffffffffffffffffffffff8203611c6357611c626117e1565b5b600182019050919050565b7f4e487b7100000000000000000000000000000000000000000000000000000000600052603260045260246000fd5b7f45524332303a206d696e7420746f20746865207a65726f206164647265737300600082015250565b6000611cd3601f836113c1565b9150611cde82611c9d565b602082019050919050565b60006020820190508181036000830152611d0281611cc6565b905091905056fea2646970667358221220f04fd46e45dff0cd46d22c3ccccbc448a8c0ab17e666d724b1fd1704c712d89864736f6c63430008120033",
  "immutableReferences": {},
  "source": "// SPDX-License-Identifier: GPL-3.0\r\n// // // // // // // // // // // // // // // // // // // // // // // // // // // // // // // // // // // // // // // // // // // // // // // // // // // // // // // // // // // // //\r\n//\r\n//      MMWKd:..                                                                                    ..:dKWMM\r\n//      MKl.                                                                                            .lKW\r\n//      O'       ..''''''''''''.     .''''''.     .'''''.      .''''''''''''''.     .''''''''''''..       'O\r\n//      '     .ckKNNWNWWWWWWWWWk.   .xNWWNWNl    ,0WWWWW0,     lNWWWWWWWWWNWNk'    ;0NNNWWWWWWWWNNKkc.     '\r\n//           ,OWMMMMMMMMMMMMMMMO.   .kMMMMMWl    ,KMMMMMK,     lWMMMMMMMMMMM0,    ;KMMMMMMMMMMMMMMMMWO,\r\n//          .kMMMMMMMMMMMMMMMMMO.   .kMMMMMWl    ,KMMMMMK,     lWMMMMMMMMMM0,    ;KMMMMMMMMMMMMMMMMMMMk.\r\n//          '0MMMMMMMMMMMMMMMMMO.   .kMMMMMWl    ,KMMMMMK,     lWMMMMMMMMM0,    :KMMMMMMMMMMMMMMMMMMMM0'\r\n//          '0MMMMMMMMMMMMMMMMMO.   .kMMMMMWl    ,KMMMMMK,     lWMMMMMMMM0,    :KMMMMMMMMMMMMMMMMMMMMM0'\r\n//          '0MMMMMMMMMMMMMMMMMO.   .kMMMMMWl    ,KMMMMMK,     lWMMMMMMM0,    ;0NNWWMMMMMMMMMMMMMMMMMM0'\r\n//          '0MMMMMMMMMMMMMMMMMO.   .kMMMMMWl    ,KMMMMMK,     lWMMMMMM0,     .'.',;lkNMMMMMMMMMMMMMMM0'\r\n//          '0MMMMMMMMMMMMMMMMMO.   .kMMMMMWl    ,KMMMMMK,     lWMMMMMK;              ,kWMMMMMMMMMMMMM0'\r\n//          '0MMMMMMMMMMMMMMMMMO.   .kMMMMMWl    ,KMMMMMK,     lWMMMMX:    .:oxxdc'    .dWMMMMMMMMMMMM0'\r\n//          '0MMMMMMMMMMMMMMMMMO.   .kMMMMMWl    ,KMMMMMK,     lWMMMWd.   ,OWMMMMMXl.   '0MMMMMMMMMMMM0'\r\n//          '0MMMMMMMMMMMMMMMMMO.   .kMMMMMWl    ,KMMMMMK,     lWMMMX;   .kMMMMMMMMK,   .xMMMMMMMMMMMM0'\r\n//          '0MMMMMMMMMMMMMMMMMO.   .kMMMMMWl    ,KMMMMMK,     lWMMM0'   .OMMMMMMMMX;   .xMMMMMMMMMMMM0'\r\n//          .OMMMMMMMMMMMMMMMMMO.   .kMMMMMWl    ,KMMMMMK,     lWMMMK,    lNMMMMMMWx.   '0MMMMMMMMMMMMO.\r\n//           lNMMMMMMMMMMMMMMMMO.   .kMMMMMWl    ,KMMMMMK,     lWMMMWd.   .:x0KKKkc.   .dWMMMMMMMMMMMNl\r\n//      .    .c0WMMMMMMMMMMMMMMO.   .kMMMMMWo    ,KMMMMMK,     lWMMMMNd.     ....     .xNMMMMMMMMMMW0c.    .\r\n//      l      .,lddxxxxxxxxxxxc.    :xxxxxd,    .lxxxxxl.     ,dxxxxxd:.            .cdxxxxxxxxddl,.      l\r\n//      No.                                                                                              .oN\r\n//      MW0l'                                                                                          'l0WM\r\n//      MMMWKd;.                                                                                    .;dKWMMM\r\n//\r\n// // // // // // // // // // // // // // // // // // // // // // // // // // // // // // // // // // // // // // // // // // // // // // // // // // // // // // // // // // // // //\r\n//                                                                                                                                                                                  //\r\n//      @dev            ::              Aron Mauritala Ayuk                                                                                                                                          //\r\n//      @msg            ::              stereo@iii6.xyz                                                                                                                                   //\r\n//      @github         ::              @stereoIII6\r\n//      @twitter        ::              @stereoIII6                                                                                                                                              //\r\n//                                                                                                                                                                                  //\r\n// // // // // // // // // // // // // // // // // // // // // // // // // // // // // // // // // // // // // // // // // // // // // // // // // // // // // // // // // // // // //\r\n//                                                                                                                                                                                  //\r\n//      @dev            ::              Juan Xavier Valverde                                                                                                                                    //\r\n//      @msg            ::              juanxavier@iii6.xyz                                                                                                                               //\r\n//      @twitter        ::              @JuanXavier                                                                                                                                             //\r\n//      @github         ::              @JuanXavier                                                                                                                                             //\r\n//                                                                                                                                                                                  //                                                                                                                                                                                 //\r\n// // // // // // // // // // // // // // // // // // // // // // // // // // // // // // // // // // // // // // // // // // // // // // // // // // // // // // // // // // // // //\r\n//  *   *   *   *   *   *   *   *   *   *   *   *   *   *   *   *   *   *   *   *   *   *   *   *   *   *   *   *   *   *   *   *   *   *   *   *   *   *   *   *   *   *   *   *   //\r\n// // // // // // // // // // // // // // // // // // // // // // // // // // // // // // // // // // // // // // // // // // // // // // // // // // // // // // // // // // // // //\r\n//                                                                                                                                                                                  //\r\n//      @company        ::              Fractio Holding                                                                                                                                                                       //\r\n//      @title          ::              iii6 Coin Model                                                                                                                            //\r\n//      @description    ::              ERC20 Model Preset Contract                                                                                                                           //\r\n//      @version        ::              0.0.1                                                                                                                                       //\r\n//      @purpose        ::              ERC20 Model Preset                                                                                                          //\r\n//                                                                                                                                                                                  //\r\n//                                                                                                                                                                                  //\r\n//                                                                                                                                                                                  //\r\n//                                                                                                                                                                                  //\r\n//                                                                                                                                                                                  //\r\n// // // // // // // // // // // // // // // // // // // // // // // // // // // // // // // // // // // // // // // // // // // // // // // // // // // // // // // // // // // // //\r\n//  *   *   *   *   *   *   *   *   *   *   *   *   *   *   *   *   *   *   *   *   *   *   *   *   *   *   *   *   *   *   *   *   *   *   *   *   *   *   *   *   *   *   *   *   //\r\n// // // // // // // // // // // // // // // // // // // // // // // // // // // // // // // // // // // // // // // // // // // // // // // // // // // // // // // // // // // // //\r\n\r\n/////////////////////////////////////////////////////////////////////////////////////////////////////////////////////\r\n\r\n/////////////////////////////////////////////////////////////////////////////////////////////////////////////////////\r\n\r\npragma solidity ^0.8.7;\r\n\r\nimport \"@openzeppelin/contracts/token/ERC20/ERC20.sol\";\r\n\r\ncontract iii6ShareModel is ERC20 {\r\n    /**\r\n     * @dev this contract is a factory contract to deploy iii6ShareModels\r\n     * Share Models give out exactly 100 coins representing 100%\r\n     * the trustee of the contract is the main administrator\r\n     * in case the trustee does not act after 48h the admin can create a new trustee\r\n     * there are three roles allowed to act on this contract trustee (main), admin (sec), boardmember (tri)\r\n     *\r\n     */\r\n    // \r\n    // \r\n    // \r\n    // \r\n    // \r\n    // \r\n    /**\r\n     * @dev declaration of storage vars\r\n     */\r\n    uint256 public MAX_SUPPLY;\r\n    uint256 public OPEN_SUPPLY;\r\n    uint256 b;\r\n    address private trustee;\r\n    address private admin;\r\n    address private safe;\r\n    address[] public board;\r\n    string public title;\r\n\r\n    struct AdminRequest {\r\n        uint256 id;\r\n        uint256 boardSize;\r\n        address[] voters;\r\n        bool[] votes;\r\n        address newAdmin;\r\n    }\r\n    AdminRequest[] arqs;\r\n    uint256 ar;\r\n    bool v;\r\n    /**\r\n     * @dev declaration of modifiers\r\n     */\r\n\r\n    modifier isAdmin() {\r\n        if (msg.sender != admin) revert();\r\n        _;\r\n    } // only for admin user\r\n    modifier isTrustee() {\r\n        if (msg.sender != trustee) revert();\r\n        _;\r\n    } // only for trustee user\r\n\r\n    /**\r\n     * @dev creates an instance of iii6CoinModel\r\n     * @param _name token name\r\n     * @param _sym token symbol\r\n     */\r\n    constructor(\r\n        string memory _name, // Token Name\r\n        string memory _sym, // Token Symbol\r\n        address _admin\r\n    ) ERC20(_name, _sym) {\r\n        MAX_SUPPLY = 100 * 10**18;\r\n        OPEN_SUPPLY = MAX_SUPPLY;\r\n        title = _name;\r\n        admin = _admin;\r\n        safe = address(this);\r\n        b = 1;\r\n    }\r\n\r\n    // \r\n    // \r\n    // \r\n    // \r\n    // \r\n    // \r\n\r\n    /**\r\n     * @dev function allows admin to make a new trustee if the trustee doesnt act within 48h\r\n     * @param _adr token name\r\n     * condition : old trustee did not fulfill request for 48h\r\n     * @return new trustees address\r\n     */\r\n    function _makeTrustee(address _adr) internal isAdmin returns (address) {\r\n        return trustee = _adr;\r\n    }\r\n\r\n    /**\r\n     * @dev function allows trustee to make a new admin with permission of board members\r\n     * @param _adr token name\r\n     * condition : > 50% of board members approve\r\n     * @return new trustees address\r\n     */\r\n    function _makeAdmin(address _adr) internal isTrustee returns (address) {\r\n        if (v == true && _checkVotes()) return trustee = _adr;\r\n        else revert();\r\n    }\r\n\r\n    function _checkVotes() internal view returns (bool) {\r\n        uint256 vote;\r\n        AdminRequest memory ars = arqs[ar - 1];\r\n        for (uint256 i = 0; i < ars.votes.length; i++) {\r\n            if (ars.votes[i] == true) vote++;\r\n        }\r\n        if (vote > (ars.votes.length / 2)) return true;\r\n        else revert();\r\n    }\r\n\r\n    /**\r\n     * @dev function allows board members to propose a new admin\r\n     * @param _adr user address\r\n     * condition : > must be board member and all votings must be closed\r\n     * @return new admin address proposal\r\n     */\r\n    function _makeNewAdmin(address _adr) internal returns (address) {\r\n        if (_isBoard(_adr) && v == false) {\r\n            bool[] memory votes;\r\n            for (uint256 i = 0; i < board.length; i++) {\r\n                votes[i] = false;\r\n            }\r\n            arqs[ar] = AdminRequest(ar, board.length, board, votes, _adr);\r\n            ar++;\r\n            v = true;\r\n        }\r\n        return _adr;\r\n    }\r\n\r\n    /**\r\n     * @dev function allows trustee to make a new board members\r\n     * @param _adr token name\r\n     * condition A : new board member must not be registered yet\r\n     * @return new board members address\r\n     */\r\n    function _makeBoardMember(address _adr)\r\n        internal\r\n        isTrustee\r\n        returns (address)\r\n    {\r\n        if (!_isBoard(_adr)) {\r\n            // Condition A\r\n            b++;\r\n            return board[b - 1] = _adr;\r\n        } else revert();\r\n    }\r\n\r\n    /**\r\n     * @dev function allows trustee to create shares for board members\r\n     * @param _adr token name\r\n     * @param _amount amount of tokens 100% is 100000 (max input) 0.001% is 1 (min input)\r\n     * condition A : board member must be registered\r\n     * condition B : Supply must be sufficient\r\n     * @return new board members address\r\n     */\r\n    function _createSharesFor(address _adr, uint256 _amount)\r\n        internal\r\n        isTrustee\r\n        returns (bool)\r\n    {\r\n        // Condition A\r\n        if (_isBoard(_adr)) {\r\n            // setting input value to 10**18 digits\r\n            uint256 amount = _amount * 10**15;\r\n            // Condition B\r\n            if (OPEN_SUPPLY >= amount) {\r\n                OPEN_SUPPLY -= amount;\r\n                _mint(_adr, amount);\r\n                return true;\r\n            } else revert();\r\n        } else revert();\r\n    }\r\n\r\n    /**\r\n     * @dev function returns true if address belongs to existing board member\r\n     * @param _adr token name\r\n     * loop : check all boardmembers\r\n     * @return isBoarded boolean\r\n     */\r\n    function _isBoard(address _adr) internal view returns (bool) {\r\n        bool isBoarded = false;\r\n        for (uint256 i = 0; i < board.length; i++) {\r\n            if (_adr == board[i]) isBoarded = true;\r\n        }\r\n        return isBoarded;\r\n    }\r\n\r\n    // \r\n    // \r\n    // \r\n    // \r\n    // \r\n    // \r\n\r\n    /**\r\n     * @dev function allows admin to make a new trustee if the trustee doesnt act within 48h\r\n     * @param _adr token name\r\n     * condition : old trustee did not fulfill request for 48h\r\n     * @return new trustees address\r\n     */\r\n    function makeTrustee(address _adr) external isAdmin returns (address) {\r\n        return _makeTrustee(_adr);\r\n    }\r\n\r\n    /**\r\n     * @dev function allows trustee to make a new board members\r\n     * @param _adr token name\r\n     * condition A : new board member must not be registered yet\r\n     * @return new board members address\r\n     */\r\n    function makeBoardMember(address _adr)\r\n        external\r\n        isTrustee\r\n        returns (address)\r\n    {\r\n        return _makeBoardMember(_adr);\r\n    }\r\n\r\n    /**\r\n     * @dev function allows trustee to create shares for board members\r\n     * @param _adr token name\r\n     * @param _amount amount of tokens 100% is 100000 (max input) 0.001% is 1 (min input)\r\n     * condition A : board member must be registered\r\n     * condition B : Supply must be sufficient\r\n     * @return new board members address\r\n     */\r\n    function createSharesFor(address _adr, uint256 _amount)\r\n        external\r\n        isTrustee\r\n        returns (bool)\r\n    {\r\n        return _createSharesFor(_adr, _amount);\r\n    }\r\n}\r\n\r\n// // // // // // // // // // // // // // // // // // // // // // // // // // // // // // // // // // // // // // // // // // // // // // // // // // // // // // // // // // // // //\r\n//\r\n//      MMWKd:..                                                                                    ..:dKWMM\r\n//      MKl.                                                                                            .lKW\r\n//      O'       ..''''''''''''.     .''''''.     .'''''.      .''''''''''''''.     .''''''''''''..       'O\r\n//      '     .ckKNNWNWWWWWWWWWk.   .xNWWNWNl    ,0WWWWW0,     lNWWWWWWWWWNWNk'    ;0NNNWWWWWWWWNNKkc.     '\r\n//           ,OWMMMMMMMMMMMMMMMO.   .kMMMMMWl    ,KMMMMMK,     lWMMMMMMMMMMM0,    ;KMMMMMMMMMMMMMMMMWO,\r\n//          .kMMMMMMMMMMMMMMMMMO.   .kMMMMMWl    ,KMMMMMK,     lWMMMMMMMMMM0,    ;KMMMMMMMMMMMMMMMMMMMk.\r\n//          '0MMMMMMMMMMMMMMMMMO.   .kMMMMMWl    ,KMMMMMK,     lWMMMMMMMMM0,    :KMMMMMMMMMMMMMMMMMMMM0'\r\n//          '0MMMMMMMMMMMMMMMMMO.   .kMMMMMWl    ,KMMMMMK,     lWMMMMMMMM0,    :KMMMMMMMMMMMMMMMMMMMMM0'\r\n//          '0MMMMMMMMMMMMMMMMMO.   .kMMMMMWl    ,KMMMMMK,     lWMMMMMMM0,    ;0NNWWMMMMMMMMMMMMMMMMMM0'\r\n//          '0MMMMMMMMMMMMMMMMMO.   .kMMMMMWl    ,KMMMMMK,     lWMMMMMM0,     .'.',;lkNMMMMMMMMMMMMMMM0'\r\n//          '0MMMMMMMMMMMMMMMMMO.   .kMMMMMWl    ,KMMMMMK,     lWMMMMMK;              ,kWMMMMMMMMMMMMM0'\r\n//          '0MMMMMMMMMMMMMMMMMO.   .kMMMMMWl    ,KMMMMMK,     lWMMMMX:    .:oxxdc'    .dWMMMMMMMMMMMM0'\r\n//          '0MMMMMMMMMMMMMMMMMO.   .kMMMMMWl    ,KMMMMMK,     lWMMMWd.   ,OWMMMMMXl.   '0MMMMMMMMMMMM0'\r\n//          '0MMMMMMMMMMMMMMMMMO.   .kMMMMMWl    ,KMMMMMK,     lWMMMX;   .kMMMMMMMMK,   .xMMMMMMMMMMMM0'\r\n//          '0MMMMMMMMMMMMMMMMMO.   .kMMMMMWl    ,KMMMMMK,     lWMMM0'   .OMMMMMMMMX;   .xMMMMMMMMMMMM0'\r\n//          .OMMMMMMMMMMMMMMMMMO.   .kMMMMMWl    ,KMMMMMK,     lWMMMK,    lNMMMMMMWx.   '0MMMMMMMMMMMMO.\r\n//           lNMMMMMMMMMMMMMMMMO.   .kMMMMMWl    ,KMMMMMK,     lWMMMWd.   .:x0KKKkc.   .dWMMMMMMMMMMMNl\r\n//      .    .c0WMMMMMMMMMMMMMMO.   .kMMMMMWo    ,KMMMMMK,     lWMMMMNd.     ....     .xNMMMMMMMMMMW0c.    .\r\n//      l      .,lddxxxxxxxxxxxc.    :xxxxxd,    .lxxxxxl.     ,dxxxxxd:.            .cdxxxxxxxxddl,.      l\r\n//      No.                                                                                              .oN\r\n//      MW0l'                                                                                          'l0WM\r\n//      MMMWKd;.                                                                                    .;dKWMMM\r\n//\r\n// // // // // // // // // // // // // // // // // // // // // // // // // // // // // // // // // // // // // // // // // // // // // // // // // // // // // // // // // // // // //\r\n",
  "sourcePath": "C:\\Users\\juanx\\OneDrive\\Documents\\_prog\\work\\III6Dojo\\contracts\\iii6Utils\\Wallets\\iii6ShareModel.sol",
  "compiler": {
    "name": "solc",
    "version": "0.8.18+commit.87f61d96.Emscripten.clang"
  },
  "schemaVersion": "3.4.11",
  "updatedAt": "2023-02-03T18:53:18.211Z",
  "devdoc": {
    "events": {
      "Approval(address,address,uint256)": {
        "details": "Emitted when the allowance of a `spender` for an `owner` is set by a call to {approve}. `value` is the new allowance."
      },
      "Transfer(address,address,uint256)": {
        "details": "Emitted when `value` tokens are moved from one account (`from`) to another (`to`). Note that `value` may be zero."
      }
    },
    "kind": "dev",
    "methods": {
      "allowance(address,address)": {
        "details": "See {IERC20-allowance}."
      },
      "approve(address,uint256)": {
        "details": "See {IERC20-approve}. Requirements: - `spender` cannot be the zero address."
      },
      "balanceOf(address)": {
        "details": "See {IERC20-balanceOf}."
      },
      "constructor": {
        "details": "creates an instance of iii6CoinModel",
        "params": {
          "_name": "token name",
          "_sym": "token symbol"
        }
      },
      "createSharesFor(address,uint256)": {
        "details": "function allows trustee to create shares for board members",
        "params": {
          "_adr": "token name",
          "_amount": "amount of tokens 100% is 100000 (max input) 0.001% is 1 (min input) condition A : board member must be registered condition B : Supply must be sufficient"
        },
        "returns": {
          "_0": "new board members address"
        }
      },
      "decimals()": {
        "details": "Returns the number of decimals used to get its user representation. For example, if `decimals` equals `2`, a balance of `505` tokens should be displayed to a user as `5.05` (`505 / 10 ** 2`). Tokens usually opt for a value of 18, imitating the relationship between Ether and Wei. This is the value {ERC20} uses, unless this function is overridden; NOTE: This information is only used for _display_ purposes: it in no way affects any of the arithmetic of the contract, including {IERC20-balanceOf} and {IERC20-transfer}."
      },
      "decreaseAllowance(address,uint256)": {
        "details": "Atomically decreases the allowance granted to `spender` by the caller. This is an alternative to {approve} that can be used as a mitigation for problems described in {IERC20-approve}. Emits an {Approval} event indicating the updated allowance. Requirements: - `spender` cannot be the zero address. - `spender` must have allowance for the caller of at least `subtractedValue`."
      },
      "increaseAllowance(address,uint256)": {
        "details": "Atomically increases the allowance granted to `spender` by the caller. This is an alternative to {approve} that can be used as a mitigation for problems described in {IERC20-approve}. Emits an {Approval} event indicating the updated allowance. Requirements: - `spender` cannot be the zero address."
      },
      "makeBoardMember(address)": {
        "details": "function allows trustee to make a new board members",
        "params": {
          "_adr": "token name condition A : new board member must not be registered yet"
        },
        "returns": {
          "_0": "new board members address"
        }
      },
      "makeTrustee(address)": {
        "details": "function allows admin to make a new trustee if the trustee doesnt act within 48h",
        "params": {
          "_adr": "token name condition : old trustee did not fulfill request for 48h"
        },
        "returns": {
          "_0": "new trustees address"
        }
      },
      "name()": {
        "details": "Returns the name of the token."
      },
      "symbol()": {
        "details": "Returns the symbol of the token, usually a shorter version of the name."
      },
      "totalSupply()": {
        "details": "See {IERC20-totalSupply}."
      },
      "transfer(address,uint256)": {
        "details": "See {IERC20-transfer}. Requirements: - `recipient` cannot be the zero address. - the caller must have a balance of at least `amount`."
      },
      "transferFrom(address,address,uint256)": {
        "details": "See {IERC20-transferFrom}. Emits an {Approval} event indicating the updated allowance. This is not required by the EIP. See the note at the beginning of {ERC20}. Requirements: - `sender` and `recipient` cannot be the zero address. - `sender` must have a balance of at least `amount`. - the caller must have allowance for ``sender``'s tokens of at least `amount`."
      }
    },
    "stateVariables": {
      "MAX_SUPPLY": {
        "details": "declaration of storage vars"
      }
    },
    "version": 1
  },
  "userdoc": {
    "kind": "user",
    "methods": {},
    "version": 1
  }
}