{
  "contractName": "iii6CoinModelDrop",
  "abi": [
    {
      "inputs": [
        {
          "internalType": "string",
          "name": "_name",
          "type": "string"
        },
        {
          "internalType": "string",
          "name": "_sym",
          "type": "string"
        },
        {
          "internalType": "uint256",
          "name": "_rate",
          "type": "uint256"
        },
        {
          "internalType": "uint256",
          "name": "_supply",
          "type": "uint256"
        },
        {
          "internalType": "bool",
          "name": "_burn",
          "type": "bool"
        },
        {
          "internalType": "bool",
          "name": "_pause",
          "type": "bool"
        },
        {
          "internalType": "uint256",
          "name": "_curr",
          "type": "uint256"
        }
      ],
      "stateMutability": "nonpayable",
      "type": "constructor"
    },
    {
      "inputs": [],
      "name": "All_Slots_Taken",
      "type": "error"
    },
    {
      "inputs": [],
      "name": "Already_Listed",
      "type": "error"
    },
    {
      "inputs": [],
      "name": "Array_Length_Mismatch",
      "type": "error"
    },
    {
      "inputs": [],
      "name": "Event_Has_Ended",
      "type": "error"
    },
    {
      "inputs": [],
      "name": "Greenlist_Expired",
      "type": "error"
    },
    {
      "inputs": [],
      "name": "Insufficient_Amount",
      "type": "error"
    },
    {
      "inputs": [],
      "name": "Insufficient_Balance",
      "type": "error"
    },
    {
      "inputs": [],
      "name": "Insufficient_Funds",
      "type": "error"
    },
    {
      "inputs": [],
      "name": "Insufficient_MLQ",
      "type": "error"
    },
    {
      "inputs": [],
      "name": "Insufficient_Supply",
      "type": "error"
    },
    {
      "inputs": [],
      "name": "Invalid_Amount",
      "type": "error"
    },
    {
      "inputs": [],
      "name": "Invalid_Response",
      "type": "error"
    },
    {
      "inputs": [],
      "name": "Max_Tokens_Minted",
      "type": "error"
    },
    {
      "inputs": [],
      "name": "Min_Requirements_Not_Met",
      "type": "error"
    },
    {
      "inputs": [],
      "name": "Mint_In_Progress",
      "type": "error"
    },
    {
      "inputs": [],
      "name": "Mint_Is_Not_Yet_Live",
      "type": "error"
    },
    {
      "inputs": [],
      "name": "Not_Burnable",
      "type": "error"
    },
    {
      "inputs": [],
      "name": "Not_Friends",
      "type": "error"
    },
    {
      "inputs": [],
      "name": "Not_Friends_Rev",
      "type": "error"
    },
    {
      "inputs": [],
      "name": "Not_Greenlisted",
      "type": "error"
    },
    {
      "inputs": [],
      "name": "Not_Pausable",
      "type": "error"
    },
    {
      "inputs": [],
      "name": "Sold_Out",
      "type": "error"
    },
    {
      "inputs": [],
      "name": "Unauthorized",
      "type": "error"
    },
    {
      "inputs": [],
      "name": "You_Are_Not_The_Holder",
      "type": "error"
    },
    {
      "inputs": [],
      "name": "You_Need_To_Wait",
      "type": "error"
    },
    {
      "anonymous": false,
      "inputs": [
        {
          "indexed": true,
          "internalType": "address",
          "name": "owner",
          "type": "address"
        },
        {
          "indexed": true,
          "internalType": "address",
          "name": "spender",
          "type": "address"
        },
        {
          "indexed": false,
          "internalType": "uint256",
          "name": "value",
          "type": "uint256"
        }
      ],
      "name": "Approval",
      "type": "event"
    },
    {
      "anonymous": false,
      "inputs": [
        {
          "indexed": true,
          "internalType": "address",
          "name": "previousOwner",
          "type": "address"
        },
        {
          "indexed": true,
          "internalType": "address",
          "name": "newOwner",
          "type": "address"
        }
      ],
      "name": "OwnershipTransferred",
      "type": "event"
    },
    {
      "anonymous": false,
      "inputs": [
        {
          "indexed": false,
          "internalType": "address",
          "name": "account",
          "type": "address"
        }
      ],
      "name": "Paused",
      "type": "event"
    },
    {
      "anonymous": false,
      "inputs": [
        {
          "indexed": true,
          "internalType": "address",
          "name": "from",
          "type": "address"
        },
        {
          "indexed": true,
          "internalType": "address",
          "name": "to",
          "type": "address"
        },
        {
          "indexed": false,
          "internalType": "uint256",
          "name": "value",
          "type": "uint256"
        }
      ],
      "name": "Transfer",
      "type": "event"
    },
    {
      "anonymous": false,
      "inputs": [
        {
          "indexed": false,
          "internalType": "address",
          "name": "account",
          "type": "address"
        }
      ],
      "name": "Unpaused",
      "type": "event"
    },
    {
      "stateMutability": "payable",
      "type": "fallback"
    },
    {
      "inputs": [],
      "name": "COIN_USD",
      "outputs": [
        {
          "internalType": "uint256",
          "name": "",
          "type": "uint256"
        }
      ],
      "stateMutability": "view",
      "type": "function"
    },
    {
      "inputs": [],
      "name": "ETH_USD",
      "outputs": [
        {
          "internalType": "uint256",
          "name": "",
          "type": "uint256"
        }
      ],
      "stateMutability": "view",
      "type": "function"
    },
    {
      "inputs": [],
      "name": "MAX_SUPPLY",
      "outputs": [
        {
          "internalType": "uint256",
          "name": "",
          "type": "uint256"
        }
      ],
      "stateMutability": "view",
      "type": "function"
    },
    {
      "inputs": [],
      "name": "PUB_SUPPLY",
      "outputs": [
        {
          "internalType": "uint256",
          "name": "",
          "type": "uint256"
        }
      ],
      "stateMutability": "view",
      "type": "function"
    },
    {
      "inputs": [],
      "name": "X_USD",
      "outputs": [
        {
          "internalType": "uint256",
          "name": "",
          "type": "uint256"
        }
      ],
      "stateMutability": "view",
      "type": "function"
    },
    {
      "inputs": [],
      "name": "Y_USD",
      "outputs": [
        {
          "internalType": "uint256",
          "name": "",
          "type": "uint256"
        }
      ],
      "stateMutability": "view",
      "type": "function"
    },
    {
      "inputs": [
        {
          "internalType": "address",
          "name": "owner",
          "type": "address"
        },
        {
          "internalType": "address",
          "name": "spender",
          "type": "address"
        }
      ],
      "name": "allowance",
      "outputs": [
        {
          "internalType": "uint256",
          "name": "",
          "type": "uint256"
        }
      ],
      "stateMutability": "view",
      "type": "function"
    },
    {
      "inputs": [
        {
          "internalType": "address",
          "name": "spender",
          "type": "address"
        },
        {
          "internalType": "uint256",
          "name": "amount",
          "type": "uint256"
        }
      ],
      "name": "approve",
      "outputs": [
        {
          "internalType": "bool",
          "name": "",
          "type": "bool"
        }
      ],
      "stateMutability": "nonpayable",
      "type": "function"
    },
    {
      "inputs": [
        {
          "internalType": "address",
          "name": "account",
          "type": "address"
        }
      ],
      "name": "balanceOf",
      "outputs": [
        {
          "internalType": "uint256",
          "name": "",
          "type": "uint256"
        }
      ],
      "stateMutability": "view",
      "type": "function"
    },
    {
      "inputs": [
        {
          "internalType": "uint256",
          "name": "_amount",
          "type": "uint256"
        }
      ],
      "name": "burn",
      "outputs": [],
      "stateMutability": "nonpayable",
      "type": "function"
    },
    {
      "inputs": [
        {
          "internalType": "address",
          "name": "account",
          "type": "address"
        },
        {
          "internalType": "uint256",
          "name": "amount",
          "type": "uint256"
        }
      ],
      "name": "burnFrom",
      "outputs": [],
      "stateMutability": "nonpayable",
      "type": "function"
    },
    {
      "inputs": [
        {
          "internalType": "uint256",
          "name": "_amount",
          "type": "uint256"
        }
      ],
      "name": "buyTokens",
      "outputs": [
        {
          "internalType": "uint256",
          "name": "",
          "type": "uint256"
        }
      ],
      "stateMutability": "payable",
      "type": "function"
    },
    {
      "inputs": [
        {
          "internalType": "uint256",
          "name": "_amt",
          "type": "uint256"
        }
      ],
      "name": "coinPriceOfEth",
      "outputs": [
        {
          "internalType": "uint256",
          "name": "",
          "type": "uint256"
        }
      ],
      "stateMutability": "view",
      "type": "function"
    },
    {
      "inputs": [
        {
          "internalType": "uint256",
          "name": "_amt",
          "type": "uint256"
        }
      ],
      "name": "coinPriceOfUSD",
      "outputs": [
        {
          "internalType": "uint256",
          "name": "",
          "type": "uint256"
        }
      ],
      "stateMutability": "view",
      "type": "function"
    },
    {
      "inputs": [
        {
          "internalType": "uint256",
          "name": "_amt",
          "type": "uint256"
        }
      ],
      "name": "coinPriceOfX",
      "outputs": [
        {
          "internalType": "uint256",
          "name": "",
          "type": "uint256"
        }
      ],
      "stateMutability": "view",
      "type": "function"
    },
    {
      "inputs": [
        {
          "internalType": "uint256",
          "name": "_amt",
          "type": "uint256"
        }
      ],
      "name": "coinPriceOfY",
      "outputs": [
        {
          "internalType": "uint256",
          "name": "",
          "type": "uint256"
        }
      ],
      "stateMutability": "view",
      "type": "function"
    },
    {
      "inputs": [],
      "name": "decimals",
      "outputs": [
        {
          "internalType": "uint8",
          "name": "",
          "type": "uint8"
        }
      ],
      "stateMutability": "view",
      "type": "function"
    },
    {
      "inputs": [
        {
          "internalType": "address",
          "name": "spender",
          "type": "address"
        },
        {
          "internalType": "uint256",
          "name": "subtractedValue",
          "type": "uint256"
        }
      ],
      "name": "decreaseAllowance",
      "outputs": [
        {
          "internalType": "bool",
          "name": "",
          "type": "bool"
        }
      ],
      "stateMutability": "nonpayable",
      "type": "function"
    },
    {
      "inputs": [
        {
          "internalType": "uint256",
          "name": "_amt",
          "type": "uint256"
        }
      ],
      "name": "ethPriceOfUSD",
      "outputs": [
        {
          "internalType": "uint256",
          "name": "",
          "type": "uint256"
        }
      ],
      "stateMutability": "view",
      "type": "function"
    },
    {
      "inputs": [],
      "name": "getCoinPriceInEth",
      "outputs": [
        {
          "internalType": "uint256",
          "name": "coinPriceEth",
          "type": "uint256"
        }
      ],
      "stateMutability": "view",
      "type": "function"
    },
    {
      "inputs": [],
      "name": "getCoinPriceInX",
      "outputs": [
        {
          "internalType": "uint256",
          "name": "coinPriceX",
          "type": "uint256"
        }
      ],
      "stateMutability": "view",
      "type": "function"
    },
    {
      "inputs": [],
      "name": "getCoinPriceInY",
      "outputs": [
        {
          "internalType": "uint256",
          "name": "coinPriceY",
          "type": "uint256"
        }
      ],
      "stateMutability": "view",
      "type": "function"
    },
    {
      "inputs": [],
      "name": "getEthPriceInCoin",
      "outputs": [
        {
          "internalType": "uint256",
          "name": "ethPriceCoin",
          "type": "uint256"
        }
      ],
      "stateMutability": "view",
      "type": "function"
    },
    {
      "inputs": [],
      "name": "getEthPriceInX",
      "outputs": [
        {
          "internalType": "uint256",
          "name": "ethPriceX",
          "type": "uint256"
        }
      ],
      "stateMutability": "view",
      "type": "function"
    },
    {
      "inputs": [],
      "name": "getEthPriceInY",
      "outputs": [
        {
          "internalType": "uint256",
          "name": "ethPriceY",
          "type": "uint256"
        }
      ],
      "stateMutability": "view",
      "type": "function"
    },
    {
      "inputs": [],
      "name": "getXPriceInCoin",
      "outputs": [
        {
          "internalType": "uint256",
          "name": "xPriceCoin",
          "type": "uint256"
        }
      ],
      "stateMutability": "view",
      "type": "function"
    },
    {
      "inputs": [],
      "name": "getXPriceInEth",
      "outputs": [
        {
          "internalType": "uint256",
          "name": "xPriceEth",
          "type": "uint256"
        }
      ],
      "stateMutability": "view",
      "type": "function"
    },
    {
      "inputs": [],
      "name": "getXPriceInY",
      "outputs": [
        {
          "internalType": "uint256",
          "name": "xPriceY",
          "type": "uint256"
        }
      ],
      "stateMutability": "view",
      "type": "function"
    },
    {
      "inputs": [],
      "name": "getYPriceInCoin",
      "outputs": [
        {
          "internalType": "uint256",
          "name": "yPriceCoin",
          "type": "uint256"
        }
      ],
      "stateMutability": "view",
      "type": "function"
    },
    {
      "inputs": [],
      "name": "getYPriceInEth",
      "outputs": [
        {
          "internalType": "uint256",
          "name": "yPriceEth",
          "type": "uint256"
        }
      ],
      "stateMutability": "view",
      "type": "function"
    },
    {
      "inputs": [],
      "name": "getYPriceInX",
      "outputs": [
        {
          "internalType": "uint256",
          "name": "yPriceX",
          "type": "uint256"
        }
      ],
      "stateMutability": "view",
      "type": "function"
    },
    {
      "inputs": [
        {
          "internalType": "address",
          "name": "spender",
          "type": "address"
        },
        {
          "internalType": "uint256",
          "name": "addedValue",
          "type": "uint256"
        }
      ],
      "name": "increaseAllowance",
      "outputs": [
        {
          "internalType": "bool",
          "name": "",
          "type": "bool"
        }
      ],
      "stateMutability": "nonpayable",
      "type": "function"
    },
    {
      "inputs": [],
      "name": "name",
      "outputs": [
        {
          "internalType": "string",
          "name": "",
          "type": "string"
        }
      ],
      "stateMutability": "view",
      "type": "function"
    },
    {
      "inputs": [],
      "name": "owner",
      "outputs": [
        {
          "internalType": "address",
          "name": "",
          "type": "address"
        }
      ],
      "stateMutability": "view",
      "type": "function"
    },
    {
      "inputs": [],
      "name": "paused",
      "outputs": [
        {
          "internalType": "bool",
          "name": "",
          "type": "bool"
        }
      ],
      "stateMutability": "view",
      "type": "function"
    },
    {
      "inputs": [],
      "name": "rate",
      "outputs": [
        {
          "internalType": "uint256",
          "name": "",
          "type": "uint256"
        }
      ],
      "stateMutability": "view",
      "type": "function"
    },
    {
      "inputs": [],
      "name": "renounceOwnership",
      "outputs": [],
      "stateMutability": "nonpayable",
      "type": "function"
    },
    {
      "inputs": [
        {
          "internalType": "uint256",
          "name": "_curr",
          "type": "uint256"
        }
      ],
      "name": "setCurr",
      "outputs": [
        {
          "internalType": "enum iii6Misc.Coins",
          "name": "",
          "type": "uint8"
        }
      ],
      "stateMutability": "nonpayable",
      "type": "function"
    },
    {
      "inputs": [
        {
          "internalType": "uint256",
          "name": "_newSupply",
          "type": "uint256"
        }
      ],
      "name": "setMaxSupply",
      "outputs": [
        {
          "internalType": "uint256",
          "name": "",
          "type": "uint256"
        }
      ],
      "stateMutability": "nonpayable",
      "type": "function"
    },
    {
      "inputs": [
        {
          "internalType": "uint256",
          "name": "_rate",
          "type": "uint256"
        }
      ],
      "name": "setRate",
      "outputs": [
        {
          "internalType": "uint256",
          "name": "",
          "type": "uint256"
        }
      ],
      "stateMutability": "nonpayable",
      "type": "function"
    },
    {
      "inputs": [
        {
          "internalType": "address",
          "name": "_oracle",
          "type": "address"
        },
        {
          "internalType": "uint256",
          "name": "_digits",
          "type": "uint256"
        }
      ],
      "name": "setX",
      "outputs": [
        {
          "internalType": "bool",
          "name": "",
          "type": "bool"
        }
      ],
      "stateMutability": "nonpayable",
      "type": "function"
    },
    {
      "inputs": [
        {
          "internalType": "address",
          "name": "_oracle",
          "type": "address"
        },
        {
          "internalType": "uint256",
          "name": "_digits",
          "type": "uint256"
        }
      ],
      "name": "setY",
      "outputs": [
        {
          "internalType": "bool",
          "name": "",
          "type": "bool"
        }
      ],
      "stateMutability": "nonpayable",
      "type": "function"
    },
    {
      "inputs": [],
      "name": "symbol",
      "outputs": [
        {
          "internalType": "string",
          "name": "",
          "type": "string"
        }
      ],
      "stateMutability": "view",
      "type": "function"
    },
    {
      "inputs": [],
      "name": "title",
      "outputs": [
        {
          "internalType": "string",
          "name": "",
          "type": "string"
        }
      ],
      "stateMutability": "view",
      "type": "function"
    },
    {
      "inputs": [],
      "name": "toggleBurn",
      "outputs": [
        {
          "internalType": "bool",
          "name": "",
          "type": "bool"
        }
      ],
      "stateMutability": "nonpayable",
      "type": "function"
    },
    {
      "inputs": [],
      "name": "togglePause",
      "outputs": [
        {
          "internalType": "bool",
          "name": "",
          "type": "bool"
        }
      ],
      "stateMutability": "nonpayable",
      "type": "function"
    },
    {
      "inputs": [],
      "name": "toggleState",
      "outputs": [
        {
          "internalType": "bool",
          "name": "",
          "type": "bool"
        }
      ],
      "stateMutability": "nonpayable",
      "type": "function"
    },
    {
      "inputs": [],
      "name": "totalSupply",
      "outputs": [
        {
          "internalType": "uint256",
          "name": "",
          "type": "uint256"
        }
      ],
      "stateMutability": "view",
      "type": "function"
    },
    {
      "inputs": [
        {
          "internalType": "address",
          "name": "recipient",
          "type": "address"
        },
        {
          "internalType": "uint256",
          "name": "amount",
          "type": "uint256"
        }
      ],
      "name": "transfer",
      "outputs": [
        {
          "internalType": "bool",
          "name": "",
          "type": "bool"
        }
      ],
      "stateMutability": "nonpayable",
      "type": "function"
    },
    {
      "inputs": [
        {
          "internalType": "address",
          "name": "sender",
          "type": "address"
        },
        {
          "internalType": "address",
          "name": "recipient",
          "type": "address"
        },
        {
          "internalType": "uint256",
          "name": "amount",
          "type": "uint256"
        }
      ],
      "name": "transferFrom",
      "outputs": [
        {
          "internalType": "bool",
          "name": "",
          "type": "bool"
        }
      ],
      "stateMutability": "nonpayable",
      "type": "function"
    },
    {
      "inputs": [
        {
          "internalType": "address",
          "name": "newOwner",
          "type": "address"
        }
      ],
      "name": "transferOwnership",
      "outputs": [],
      "stateMutability": "nonpayable",
      "type": "function"
    },
    {
      "inputs": [
        {
          "internalType": "uint256",
          "name": "_amt",
          "type": "uint256"
        }
      ],
      "name": "xPriceOfUSD",
      "outputs": [
        {
          "internalType": "uint256",
          "name": "",
          "type": "uint256"
        }
      ],
      "stateMutability": "view",
      "type": "function"
    },
    {
      "inputs": [
        {
          "internalType": "uint256",
          "name": "_amt",
          "type": "uint256"
        }
      ],
      "name": "yPriceOfUSD",
      "outputs": [
        {
          "internalType": "uint256",
          "name": "",
          "type": "uint256"
        }
      ],
      "stateMutability": "view",
      "type": "function"
    },
    {
      "stateMutability": "payable",
      "type": "receive"
    },
    {
      "inputs": [],
      "name": "dropToken",
      "outputs": [],
      "stateMutability": "nonpayable",
      "type": "function"
    }
  ],
  "bytecode": "0x60806040523480156200001157600080fd5b5060405162005de538038062005de583398181016040528101906200003791906200104f565b868686868686868686816003908162000051919062001381565b50806004908162000063919062001381565b5050506000600560006101000a81548160ff021916908315150217905550620000a1620000956200039360201b60201c565b6200039b60201b60201c565b60014603620001055773e47da91495c75e1d48569f343938380d8303b1f2600660006101000a81548173ffffffffffffffffffffffffffffffffffffffff021916908373ffffffffffffffffffffffffffffffffffffffff16021790555062000231565b60054603620001695773e47da91495c75e1d48569f343938380d8303b1f2600660006101000a81548173ffffffffffffffffffffffffffffffffffffffff021916908373ffffffffffffffffffffffffffffffffffffffff16021790555062000230565b60894603620001cd5773e47da91495c75e1d48569f343938380d8303b1f2600660006101000a81548173ffffffffffffffffffffffffffffffffffffffff021916908373ffffffffffffffffffffffffffffffffffffffff1602179055506200022f565b6201388146036200022e5773e47da91495c75e1d48569f343938380d8303b1f2600660006101000a81548173ffffffffffffffffffffffffffffffffffffffff021916908373ffffffffffffffffffffffffffffffffffffffff1602179055505b5b5b5b62000242856200046160201b60201c565b508360098190555086600c90816200025b919062001381565b5082600b60006101000a81548160ff02191690831515021790555081600b60016101000a81548160ff021916908315150217905550620002a18162000d0660201b60201c565b600d60006101000a81548160ff02191690836004811115620002c857620002c762001468565b5b02179055506040518060600160405280600a548152602001868152602001600d60009054906101000a900460ff1660048111156200030b576200030a62001468565b5b815250600e600a548154811062000327576200032662001497565b5b9060005260206000209060030201600082015181600001556020820151816001015560408201518160020160006101000a81548160ff0219169083600481111562000377576200037662001468565b5b02179055509050505050505050505050505050505050620015a2565b600033905090565b6000600560019054906101000a900473ffffffffffffffffffffffffffffffffffffffff16905081600560016101000a81548173ffffffffffffffffffffffffffffffffffffffff021916908373ffffffffffffffffffffffffffffffffffffffff1602179055508173ffffffffffffffffffffffffffffffffffffffff168173ffffffffffffffffffffffffffffffffffffffff167f8be0079c531659141344cd1fd0a4f28419497f9722a3daafe3b4186f6b6457e060405160405180910390a35050565b600080600060048111156200047b576200047a62001468565b5b600d60009054906101000a900460ff166004811115620004a0576200049f62001468565b5b03620006415760008173ffffffffffffffffffffffffffffffffffffffff16638d4a8ffe856040518263ffffffff1660e01b8152600401620004e39190620014d7565b602060405180830381865afa15801562000501573d6000803e3d6000fd5b505050506040513d601f19601f82011682018060405250810190620005279190620014f4565b9050600081101562000565576040517fc1a21f4e00000000000000000000000000000000000000000000000000000000815260040160405180910390fd5b6040518060600160405280600a548152602001828152602001600d60009054906101000a900460ff166004811115620005a357620005a262001468565b5b815250600e600a5481548110620005bf57620005be62001497565b5b9060005260206000209060030201600082015181600001556020820151816001015560408201518160020160006101000a81548160ff021916908360048111156200060f576200060e62001468565b5b0217905550905050600a60008154809291906200062c9062001555565b91905055508060078190559250505062000d01565b6001600481111562000658576200065762001468565b5b600d60009054906101000a900460ff1660048111156200067d576200067c62001468565b5b03620007a05760008390506000811015620006c4576040517fc1a21f4e00000000000000000000000000000000000000000000000000000000815260040160405180910390fd5b6040518060600160405280600a548152602001828152602001600d60009054906101000a900460ff16600481111562000702576200070162001468565b5b815250600e600a54815481106200071e576200071d62001497565b5b9060005260206000209060030201600082015181600001556020820151816001015560408201518160020160006101000a81548160ff021916908360048111156200076e576200076d62001468565b5b0217905550905050600a60008154809291906200078b9062001555565b91905055508060078190559250505062000d01565b60026004811115620007b757620007b662001468565b5b600d60009054906101000a900460ff166004811115620007dc57620007db62001468565b5b036200097d5760008173ffffffffffffffffffffffffffffffffffffffff16637afcc7a4856040518263ffffffff1660e01b81526004016200081f9190620014d7565b602060405180830381865afa1580156200083d573d6000803e3d6000fd5b505050506040513d601f19601f82011682018060405250810190620008639190620014f4565b90506000811015620008a1576040517fc1a21f4e00000000000000000000000000000000000000000000000000000000815260040160405180910390fd5b6040518060600160405280600a548152602001828152602001600d60009054906101000a900460ff166004811115620008df57620008de62001468565b5b815250600e600a5481548110620008fb57620008fa62001497565b5b9060005260206000209060030201600082015181600001556020820151816001015560408201518160020160006101000a81548160ff021916908360048111156200094b576200094a62001468565b5b0217905550905050600a6000815480929190620009689062001555565b91905055508060078190559250505062000d01565b6003600481111562000994576200099362001468565b5b600d60009054906101000a900460ff166004811115620009b957620009b862001468565b5b0362000b5a5760008173ffffffffffffffffffffffffffffffffffffffff166387434dcd856040518263ffffffff1660e01b8152600401620009fc9190620014d7565b602060405180830381865afa15801562000a1a573d6000803e3d6000fd5b505050506040513d601f19601f8201168201806040525081019062000a409190620014f4565b9050600081101562000a7e576040517fc1a21f4e00000000000000000000000000000000000000000000000000000000815260040160405180910390fd5b6040518060600160405280600a548152602001828152602001600d60009054906101000a900460ff16600481111562000abc5762000abb62001468565b5b815250600e600a548154811062000ad85762000ad762001497565b5b9060005260206000209060030201600082015181600001556020820151816001015560408201518160020160006101000a81548160ff0219169083600481111562000b285762000b2762001468565b5b0217905550905050600a600081548092919062000b459062001555565b91905055508060078190559250505062000d01565b60048081111562000b705762000b6f62001468565b5b600d60009054906101000a900460ff16600481111562000b955762000b9462001468565b5b0362000cfa5760008173ffffffffffffffffffffffffffffffffffffffff1663d1381f4e856040518263ffffffff1660e01b815260040162000bd89190620014d7565b602060405180830381865afa15801562000bf6573d6000803e3d6000fd5b505050506040513d601f19601f8201168201806040525081019062000c1c9190620014f4565b90506040518060600160405280600a548152602001828152602001600d60009054906101000a900460ff16600481111562000c5c5762000c5b62001468565b5b815250600e600a548154811062000c785762000c7762001497565b5b9060005260206000209060030201600082015181600001556020820151816001015560408201518160020160006101000a81548160ff0219169083600481111562000cc85762000cc762001468565b5b0217905550905050600a600081548092919062000ce59062001555565b91905055508060078190559250505062000d01565b6007549150505b919050565b600080820362000d44576000600d60006101000a81548160ff0219169083600481111562000d395762000d3862001468565b5b021790555062000e2d565b6001820362000d81576001600d60006101000a81548160ff0219169083600481111562000d765762000d7562001468565b5b021790555062000e2c565b6002820362000dbe576002600d60006101000a81548160ff0219169083600481111562000db35762000db262001468565b5b021790555062000e2b565b6003820362000dfb576003600d60006101000a81548160ff0219169083600481111562000df05762000def62001468565b5b021790555062000e2a565b6004600d60006101000a81548160ff0219169083600481111562000e245762000e2362001468565b5b02179055505b5b5b5b600d60009054906101000a900460ff169050919050565b6000604051905090565b600080fd5b600080fd5b600080fd5b600080fd5b6000601f19601f8301169050919050565b7f4e487b7100000000000000000000000000000000000000000000000000000000600052604160045260246000fd5b62000ead8262000e62565b810181811067ffffffffffffffff8211171562000ecf5762000ece62000e73565b5b80604052505050565b600062000ee462000e44565b905062000ef2828262000ea2565b919050565b600067ffffffffffffffff82111562000f155762000f1462000e73565b5b62000f208262000e62565b9050602081019050919050565b60005b8381101562000f4d57808201518184015260208101905062000f30565b60008484015250505050565b600062000f7062000f6a8462000ef7565b62000ed8565b90508281526020810184848401111562000f8f5762000f8e62000e5d565b5b62000f9c84828562000f2d565b509392505050565b600082601f83011262000fbc5762000fbb62000e58565b5b815162000fce84826020860162000f59565b91505092915050565b6000819050919050565b62000fec8162000fd7565b811462000ff857600080fd5b50565b6000815190506200100c8162000fe1565b92915050565b60008115159050919050565b620010298162001012565b81146200103557600080fd5b50565b60008151905062001049816200101e565b92915050565b600080600080600080600060e0888a03121562001071576200107062000e4e565b5b600088015167ffffffffffffffff81111562001092576200109162000e53565b5b620010a08a828b0162000fa4565b975050602088015167ffffffffffffffff811115620010c457620010c362000e53565b5b620010d28a828b0162000fa4565b9650506040620010e58a828b0162000ffb565b9550506060620010f88a828b0162000ffb565b94505060806200110b8a828b0162001038565b93505060a06200111e8a828b0162001038565b92505060c0620011318a828b0162000ffb565b91505092959891949750929550565b600081519050919050565b7f4e487b7100000000000000000000000000000000000000000000000000000000600052602260045260246000fd5b600060028204905060018216806200119357607f821691505b602082108103620011a957620011a86200114b565b5b50919050565b60008190508160005260206000209050919050565b60006020601f8301049050919050565b600082821b905092915050565b600060088302620012137fffffffffffffffffffffffffffffffffffffffffffffffffffffffffffffffff82620011d4565b6200121f8683620011d4565b95508019841693508086168417925050509392505050565b6000819050919050565b6000620012626200125c620012568462000fd7565b62001237565b62000fd7565b9050919050565b6000819050919050565b6200127e8362001241565b620012966200128d8262001269565b848454620011e1565b825550505050565b600090565b620012ad6200129e565b620012ba81848462001273565b505050565b5b81811015620012e257620012d6600082620012a3565b600181019050620012c0565b5050565b601f8211156200133157620012fb81620011af565b6200130684620011c4565b8101602085101562001316578190505b6200132e6200132585620011c4565b830182620012bf565b50505b505050565b600082821c905092915050565b6000620013566000198460080262001336565b1980831691505092915050565b600062001371838362001343565b9150826002028217905092915050565b6200138c8262001140565b67ffffffffffffffff811115620013a857620013a762000e73565b5b620013b482546200117a565b620013c1828285620012e6565b600060209050601f831160018114620013f95760008415620013e4578287015190505b620013f0858262001363565b86555062001460565b601f1984166200140986620011af565b60005b8281101562001433578489015182556001820191506020850194506020810190506200140c565b868310156200145357848901516200144f601f89168262001343565b8355505b6001600288020188555050505b505050505050565b7f4e487b7100000000000000000000000000000000000000000000000000000000600052602160045260246000fd5b7f4e487b7100000000000000000000000000000000000000000000000000000000600052603260045260246000fd5b620014d18162000fd7565b82525050565b6000602082019050620014ee6000830184620014c6565b92915050565b6000602082840312156200150d576200150c62000e4e565b5b60006200151d8482850162000ffb565b91505092915050565b7f4e487b7100000000000000000000000000000000000000000000000000000000600052601160045260246000fd5b6000620015628262000fd7565b91507fffffffffffffffffffffffffffffffffffffffffffffffffffffffffffffffff820362001597576200159662001526565b5b600182019050919050565b61483380620015b26000396000f3fe6080604052600436106103395760003560e01c8063778a56ce116101ab578063a9059cbb116100f7578063dd62ed3e11610095578063e2ab78131161006f578063e2ab781314610ccb578063e9f38fc514610d08578063f2fde38b14610d45578063f42fff0114610d6e57610348565b8063dd62ed3e14610c38578063e04777af14610c75578063e12ef5ed14610ca057610348565b8063c7945de0116100d1578063c7945de014610b8e578063d1381f4e14610ba5578063d21b872014610be2578063d37e510414610c0d57610348565b8063a9059cbb14610afb578063bec9908e14610b38578063c4ae316814610b6357610348565b806387434dcd116101645780638dff74a71161013e5780638dff74a714610a3d57806395d89b4114610a6857806396af428a14610a93578063a457c2d714610abe57610348565b806387434dcd146109985780638d4a8ffe146109d55780638da5cb5b14610a1257610348565b8063778a56ce1461087457806379cc67901461089f57806379d79fcc146108c85780637afcc7a4146108f35780637d67011714610930578063836ceb9d1461095b57610348565b806334fcf437116102855780634a79d50c116102235780636a443b59116101fd5780636a443b59146107b85780636f8b44b0146107e357806370a0823114610820578063715018a61461085d57610348565b80634a79d50c146107375780635c975abb146107625780636260f55b1461078d57610348565b806342966c681161025f57806342966c681461067b57806344591946146106a457806348cf734d146106cf5780634a2ad99f146106fa57610348565b806334fcf437146105d15780633610724e1461060e578063395093511461063e57610348565b8063201a49d6116102f257806329d7a0bd116102cc57806329d7a0bd146105255780632c4e722e14610550578063313ce5671461057b57806332cb6b0c146105a657610348565b8063201a49d61461049257806323b872dd146104bd578063287ead9e146104fa57610348565b8063033a7a021461035a578063054dca2a1461039757806306fdde03146103c2578063095ea7b3146103ed5780630b4185ea1461042a57806318160ddd1461046757610348565b3661034857610346610d99565b005b610350610d99565b610358610db8565b005b34801561036657600080fd5b50610381600480360381019061037c919061387d565b610e6a565b60405161038e91906138b9565b60405180910390f35b3480156103a357600080fd5b506103ac610eb3565b6040516103b991906138b9565b60405180910390f35b3480156103ce57600080fd5b506103d7610ef0565b6040516103e49190613964565b60405180910390f35b3480156103f957600080fd5b50610414600480360381019061040f91906139e4565b610f82565b6040516104219190613a3f565b60405180910390f35b34801561043657600080fd5b50610451600480360381019061044c919061387d565b610fa0565b60405161045e91906138b9565b60405180910390f35b34801561047357600080fd5b5061047c610fe9565b60405161048991906138b9565b60405180910390f35b34801561049e57600080fd5b506104a7610ff3565b6040516104b491906138b9565b60405180910390f35b3480156104c957600080fd5b506104e460048036038101906104df9190613a5a565b610ff9565b6040516104f19190613a3f565b60405180910390f35b34801561050657600080fd5b5061050f6110f1565b60405161051c91906138b9565b60405180910390f35b34801561053157600080fd5b5061053a61112e565b60405161054791906138b9565b60405180910390f35b34801561055c57600080fd5b5061056561116b565b60405161057291906138b9565b60405180910390f35b34801561058757600080fd5b50610590611171565b60405161059d9190613ac9565b60405180910390f35b3480156105b257600080fd5b506105bb61117a565b6040516105c891906138b9565b60405180910390f35b3480156105dd57600080fd5b506105f860048036038101906105f3919061387d565b611180565b60405161060591906138b9565b60405180910390f35b6106286004803603810190610623919061387d565b61120e565b60405161063591906138b9565b60405180910390f35b34801561064a57600080fd5b50610665600480360381019061066091906139e4565b6112f0565b6040516106729190613a3f565b60405180910390f35b34801561068757600080fd5b506106a2600480360381019061069d919061387d565b61139c565b005b3480156106b057600080fd5b506106b96113f6565b6040516106c691906138b9565b60405180910390f35b3480156106db57600080fd5b506106e4611405565b6040516106f191906138b9565b60405180910390f35b34801561070657600080fd5b50610721600480360381019061071c91906139e4565b611442565b60405161072e9190613a3f565b60405180910390f35b34801561074357600080fd5b5061074c6114ec565b6040516107599190613964565b60405180910390f35b34801561076e57600080fd5b5061077761157a565b6040516107849190613a3f565b60405180910390f35b34801561079957600080fd5b506107a2611591565b6040516107af91906138b9565b60405180910390f35b3480156107c457600080fd5b506107cd6115a0565b6040516107da91906138b9565b60405180910390f35b3480156107ef57600080fd5b5061080a6004803603810190610805919061387d565b6115af565b60405161081791906138b9565b60405180910390f35b34801561082c57600080fd5b5061084760048036038101906108429190613ae4565b61163a565b60405161085491906138b9565b60405180910390f35b34801561086957600080fd5b50610872611682565b005b34801561088057600080fd5b5061088961170a565b6040516108969190613a3f565b60405180910390f35b3480156108ab57600080fd5b506108c660048036038101906108c191906139e4565b6117b6565b005b3480156108d457600080fd5b506108dd611831565b6040516108ea91906138b9565b60405180910390f35b3480156108ff57600080fd5b5061091a6004803603810190610915919061387d565b611840565b60405161092791906138b9565b60405180910390f35b34801561093c57600080fd5b5061094561188a565b60405161095291906138b9565b60405180910390f35b34801561096757600080fd5b50610982600480360381019061097d919061387d565b611899565b60405161098f9190613b88565b60405180910390f35b3480156109a457600080fd5b506109bf60048036038101906109ba919061387d565b611927565b6040516109cc91906138b9565b60405180910390f35b3480156109e157600080fd5b506109fc60048036038101906109f7919061387d565b611971565b604051610a0991906138b9565b60405180910390f35b348015610a1e57600080fd5b50610a276119bb565b604051610a349190613bb2565b60405180910390f35b348015610a4957600080fd5b50610a526119e5565b604051610a5f91906138b9565b60405180910390f35b348015610a7457600080fd5b50610a7d611a22565b604051610a8a9190613964565b60405180910390f35b348015610a9f57600080fd5b50610aa8611ab4565b604051610ab591906138b9565b60405180910390f35b348015610aca57600080fd5b50610ae56004803603810190610ae091906139e4565b611ac3565b604051610af29190613a3f565b60405180910390f35b348015610b0757600080fd5b50610b226004803603810190610b1d91906139e4565b611bae565b604051610b2f9190613a3f565b60405180910390f35b348015610b4457600080fd5b50610b4d611bcc565b604051610b5a91906138b9565b60405180910390f35b348015610b6f57600080fd5b50610b78611c09565b604051610b859190613a3f565b60405180910390f35b348015610b9a57600080fd5b50610ba3611cb5565b005b348015610bb157600080fd5b50610bcc6004803603810190610bc7919061387d565b611cca565b604051610bd991906138b9565b60405180910390f35b348015610bee57600080fd5b50610bf7611d14565b604051610c0491906138b9565b60405180910390f35b348015610c1957600080fd5b50610c22611d51565b604051610c2f9190613a3f565b60405180910390f35b348015610c4457600080fd5b50610c5f6004803603810190610c5a9190613bcd565b611e4c565b604051610c6c91906138b9565b60405180910390f35b348015610c8157600080fd5b50610c8a611ed3565b604051610c9791906138b9565b60405180910390f35b348015610cac57600080fd5b50610cb5611ee2565b604051610cc291906138b9565b60405180910390f35b348015610cd757600080fd5b50610cf26004803603810190610ced919061387d565b611f1f565b604051610cff91906138b9565b60405180910390f35b348015610d1457600080fd5b50610d2f6004803603810190610d2a91906139e4565b611f69565b604051610d3c9190613a3f565b60405180910390f35b348015610d5157600080fd5b50610d6c6004803603810190610d679190613ae4565b612013565b005b348015610d7a57600080fd5b50610d8361210a565b604051610d9091906138b9565b60405180910390f35b600060075434610da99190613c6b565b9050610db53382612147565b50565b60008060075482610dc99190613c6b565b9050600754811015610e07576040517f99956c4600000000000000000000000000000000000000000000000000000000815260040160405180910390fd5b600081600854600954610e1a9190613c9c565b610e249190613c9c565b1015610e5c576040517f1e6f0b5400000000000000000000000000000000000000000000000000000000815260040160405180910390fd5b610e663382612147565b5050565b6000806509184e72a00083610e7f9190613cd0565b90506000610e8b6122a6565b9050610eaa670de0b6b3a764000083610ea49190613cd0565b82612343565b92505050919050565b600080610ebe612374565b90506000610eca6122a6565b9050610ee9670de0b6b3a764000083610ee39190613cd0565b82612343565b9250505090565b606060038054610eff90613d41565b80601f0160208091040260200160405190810160405280929190818152602001828054610f2b90613d41565b8015610f785780601f10610f4d57610100808354040283529160200191610f78565b820191906000526020600020905b815481529060010190602001808311610f5b57829003601f168201915b5050505050905090565b6000610f96610f8f612411565b8484612419565b6001905092915050565b6000806509184e72a00083610fb59190613cd0565b90506000610fc1612374565b9050610fe0670de0b6b3a764000083610fda9190613cd0565b82612343565b92505050919050565b6000600254905090565b60085481565b60006110068484846125e2565b6000600160008673ffffffffffffffffffffffffffffffffffffffff1673ffffffffffffffffffffffffffffffffffffffff1681526020019081526020016000206000611051612411565b73ffffffffffffffffffffffffffffffffffffffff1673ffffffffffffffffffffffffffffffffffffffff168152602001908152602001600020549050828110156110d1576040517f08c379a00000000000000000000000000000000000000000000000000000000081526004016110c890613de4565b60405180910390fd5b6110e5856110dd612411565b858403612419565b60019150509392505050565b6000806110fc6122a6565b90506000611108612861565b9050611127670de0b6b3a7640000836111219190613cd0565b82612343565b9250505090565b600080611139612374565b905060006111456128fe565b9050611164670de0b6b3a76400008361115e9190613cd0565b82612343565b9250505090565b60075481565b60006012905090565b60095481565b600061118a612411565b73ffffffffffffffffffffffffffffffffffffffff166111a86119bb565b73ffffffffffffffffffffffffffffffffffffffff16146111fe576040517f08c379a00000000000000000000000000000000000000000000000000000000081526004016111f590613e50565b60405180910390fd5b6112078261299b565b9050919050565b60006007548261121e9190613cd0565b3411611256576040517f99956c4600000000000000000000000000000000000000000000000000000000815260040160405180910390fd5b6000670de0b6b3a76400008361126c9190613cd0565b60085460095461127c9190613c9c565b6112869190613c9c565b10156112be576040517f1e6f0b5400000000000000000000000000000000000000000000000000000000815260040160405180910390fd5b6112db33670de0b6b3a7640000846112d69190613cd0565b612147565b600754826112e99190613cd0565b9050919050565b60006113926112fd612411565b84846001600061130b612411565b73ffffffffffffffffffffffffffffffffffffffff1673ffffffffffffffffffffffffffffffffffffffff16815260200190815260200160002060008873ffffffffffffffffffffffffffffffffffffffff1673ffffffffffffffffffffffffffffffffffffffff1681526020019081526020016000205461138d9190613e70565b612419565b6001905092915050565b60001515600b60009054906101000a900460ff161515036113e9576040517ffebe7e1900000000000000000000000000000000000000000000000000000000815260040160405180910390fd5b6113f333826131c9565b50565b60006114006122a6565b905090565b600080611410612374565b9050600061141c612861565b905061143b670de0b6b3a7640000836114359190613cd0565b82612343565b9250505090565b6000600660009054906101000a900473ffffffffffffffffffffffffffffffffffffffff1673ffffffffffffffffffffffffffffffffffffffff16634a2ad99f84846040518363ffffffff1660e01b81526004016114a1929190613ea4565b6020604051808303816000875af11580156114c0573d6000803e3d6000fd5b505050506040513d601f19601f820116820180604052508101906114e49190613ef9565b905092915050565b600c80546114f990613d41565b80601f016020809104026020016040519081016040528092919081815260200182805461152590613d41565b80156115725780601f1061154757610100808354040283529160200191611572565b820191906000526020600020905b81548152906001019060200180831161155557829003601f168201915b505050505081565b6000600560009054906101000a900460ff16905090565b600061159b612374565b905090565b60006115aa61339f565b905090565b60006115b9612411565b73ffffffffffffffffffffffffffffffffffffffff166115d76119bb565b73ffffffffffffffffffffffffffffffffffffffff161461162d576040517f08c379a000000000000000000000000000000000000000000000000000000000815260040161162490613e50565b60405180910390fd5b8160098190559050919050565b60008060008373ffffffffffffffffffffffffffffffffffffffff1673ffffffffffffffffffffffffffffffffffffffff168152602001908152602001600020549050919050565b61168a612411565b73ffffffffffffffffffffffffffffffffffffffff166116a86119bb565b73ffffffffffffffffffffffffffffffffffffffff16146116fe576040517f08c379a00000000000000000000000000000000000000000000000000000000081526004016116f590613e50565b60405180910390fd5b61170860006133dc565b565b6000611714612411565b73ffffffffffffffffffffffffffffffffffffffff166117326119bb565b73ffffffffffffffffffffffffffffffffffffffff1614611788576040517f08c379a000000000000000000000000000000000000000000000000000000000815260040161177f90613e50565b60405180910390fd5b600b60009054906101000a900460ff1615600b60006101000a81548160ff0219169083151502179055905090565b60006117c9836117c4612411565b611e4c565b90508181101561180e576040517f08c379a000000000000000000000000000000000000000000000000000000000815260040161180590613f98565b60405180910390fd5b6118228361181a612411565b848403612419565b61182c83836131c9565b505050565b600061183b6134a2565b905090565b600080662386f26fc10000836118569190613cd0565b905060006118626134a2565b9050611881670de0b6b3a76400008361187b9190613cd0565b82612343565b92505050919050565b60006118946134df565b905090565b60006118a3612411565b73ffffffffffffffffffffffffffffffffffffffff166118c16119bb565b73ffffffffffffffffffffffffffffffffffffffff1614611917576040517f08c379a000000000000000000000000000000000000000000000000000000000815260040161190e90613e50565b60405180910390fd5b6119208261351c565b9050919050565b600080662386f26fc100008361193d9190613cd0565b9050600061194961339f565b9050611968670de0b6b3a7640000836119629190613cd0565b82612343565b92505050919050565b600080662386f26fc10000836119879190613cd0565b905060006119936134df565b90506119b2670de0b6b3a7640000836119ac9190613cd0565b82612343565b92505050919050565b6000600560019054906101000a900473ffffffffffffffffffffffffffffffffffffffff16905090565b6000806119f06128fe565b905060006119fc612861565b9050611a1b670de0b6b3a764000082611a159190613cd0565b83612343565b9250505090565b606060048054611a3190613d41565b80601f0160208091040260200160405190810160405280929190818152602001828054611a5d90613d41565b8015611aaa5780601f10611a7f57610100808354040283529160200191611aaa565b820191906000526020600020905b815481529060010190602001808311611a8d57829003601f168201915b5050505050905090565b6000611abe612861565b905090565b60008060016000611ad2612411565b73ffffffffffffffffffffffffffffffffffffffff1673ffffffffffffffffffffffffffffffffffffffff16815260200190815260200160002060008573ffffffffffffffffffffffffffffffffffffffff1673ffffffffffffffffffffffffffffffffffffffff16815260200190815260200160002054905082811015611b8f576040517f08c379a0000000000000000000000000000000000000000000000000000000008152600401611b869061402a565b60405180910390fd5b611ba3611b9a612411565b85858403612419565b600191505092915050565b6000611bc2611bbb612411565b84846125e2565b6001905092915050565b600080611bd7612374565b90506000611be3612861565b9050611c02670de0b6b3a764000082611bfc9190613cd0565b83612343565b9250505090565b6000611c13612411565b73ffffffffffffffffffffffffffffffffffffffff16611c316119bb565b73ffffffffffffffffffffffffffffffffffffffff1614611c87576040517f08c379a0000000000000000000000000000000000000000000000000000000008152600401611c7e90613e50565b60405180910390fd5b600b60019054906101000a900460ff1615600b60016101000a81548160ff0219169083151502179055905090565b611cc83368056bc75e2d63100000612147565b565b600080662386f26fc1000083611ce09190613cd0565b90506000611cec6128fe565b9050611d0b670de0b6b3a764000083611d059190613cd0565b82612343565b92505050919050565b600080611d1f6128fe565b90506000611d2b6122a6565b9050611d4a670de0b6b3a764000082611d449190613cd0565b83612343565b9250505090565b6000611d5b612411565b73ffffffffffffffffffffffffffffffffffffffff16611d796119bb565b73ffffffffffffffffffffffffffffffffffffffff1614611dcf576040517f08c379a0000000000000000000000000000000000000000000000000000000008152600401611dc690613e50565b60405180910390fd5b60001515600b60019054906101000a900460ff16151503611e1c576040517fda61c0d800000000000000000000000000000000000000000000000000000000815260040160405180910390fd5b611e2461157a565b15611e3657611e31613643565b611e3f565b611e3e6136e5565b5b611e4761157a565b905090565b6000600160008473ffffffffffffffffffffffffffffffffffffffff1673ffffffffffffffffffffffffffffffffffffffff16815260200190815260200160002060008373ffffffffffffffffffffffffffffffffffffffff1673ffffffffffffffffffffffffffffffffffffffff16815260200190815260200160002054905092915050565b6000611edd6128fe565b905090565b600080611eed6122a6565b90506000611ef9612861565b9050611f18670de0b6b3a764000082611f129190613cd0565b83612343565b9250505090565b600080662386f26fc1000083611f359190613cd0565b90506000611f41612861565b9050611f60670de0b6b3a764000083611f5a9190613cd0565b82612343565b92505050919050565b6000600660009054906101000a900473ffffffffffffffffffffffffffffffffffffffff1673ffffffffffffffffffffffffffffffffffffffff1663e9f38fc584846040518363ffffffff1660e01b8152600401611fc8929190613ea4565b6020604051808303816000875af1158015611fe7573d6000803e3d6000fd5b505050506040513d601f19601f8201168201806040525081019061200b9190613ef9565b905092915050565b61201b612411565b73ffffffffffffffffffffffffffffffffffffffff166120396119bb565b73ffffffffffffffffffffffffffffffffffffffff161461208f576040517f08c379a000000000000000000000000000000000000000000000000000000000815260040161208690613e50565b60405180910390fd5b600073ffffffffffffffffffffffffffffffffffffffff168173ffffffffffffffffffffffffffffffffffffffff16036120fe576040517f08c379a00000000000000000000000000000000000000000000000000000000081526004016120f5906140bc565b60405180910390fd5b612107816133dc565b50565b600080612115612374565b905060006121216122a6565b9050612140670de0b6b3a76400008261213a9190613cd0565b83612343565b9250505090565b600073ffffffffffffffffffffffffffffffffffffffff168273ffffffffffffffffffffffffffffffffffffffff16036121b6576040517f08c379a00000000000000000000000000000000000000000000000000000000081526004016121ad90614128565b60405180910390fd5b6121c260008383613788565b80600260008282546121d49190613e70565b92505081905550806000808473ffffffffffffffffffffffffffffffffffffffff1673ffffffffffffffffffffffffffffffffffffffff16815260200190815260200160002060008282546122299190613e70565b925050819055508173ffffffffffffffffffffffffffffffffffffffff16600073ffffffffffffffffffffffffffffffffffffffff167fddf252ad1be2c89b69c2b068fc378daa952ba7f163c4a11628f55a4df523b3ef8360405161228e91906138b9565b60405180910390a36122a2600083836137e0565b5050565b600080600660009054906101000a900473ffffffffffffffffffffffffffffffffffffffff1673ffffffffffffffffffffffffffffffffffffffff166396722fe56040518163ffffffff1660e01b8152600401602060405180830381865afa158015612316573d6000803e3d6000fd5b505050506040513d601f19601f8201168201806040525081019061233a919061417e565b90508091505090565b600080828461235291906141ab565b90508281856123619190613c9c565b61236b9190613c6b565b91505092915050565b600080600660009054906101000a900473ffffffffffffffffffffffffffffffffffffffff1673ffffffffffffffffffffffffffffffffffffffff16639a18c7956040518163ffffffff1660e01b8152600401602060405180830381865afa1580156123e4573d6000803e3d6000fd5b505050506040513d601f19601f82011682018060405250810190612408919061417e565b90508091505090565b600033905090565b600073ffffffffffffffffffffffffffffffffffffffff168373ffffffffffffffffffffffffffffffffffffffff1603612488576040517f08c379a000000000000000000000000000000000000000000000000000000000815260040161247f9061424e565b60405180910390fd5b600073ffffffffffffffffffffffffffffffffffffffff168273ffffffffffffffffffffffffffffffffffffffff16036124f7576040517f08c379a00000000000000000000000000000000000000000000000000000000081526004016124ee906142e0565b60405180910390fd5b80600160008573ffffffffffffffffffffffffffffffffffffffff1673ffffffffffffffffffffffffffffffffffffffff16815260200190815260200160002060008473ffffffffffffffffffffffffffffffffffffffff1673ffffffffffffffffffffffffffffffffffffffff168152602001908152602001600020819055508173ffffffffffffffffffffffffffffffffffffffff168373ffffffffffffffffffffffffffffffffffffffff167f8c5be1e5ebec7d5bd14f71427d1e84f3dd0314c0f7b2291e5b200ac8c7c3b925836040516125d591906138b9565b60405180910390a3505050565b600073ffffffffffffffffffffffffffffffffffffffff168373ffffffffffffffffffffffffffffffffffffffff1603612651576040517f08c379a000000000000000000000000000000000000000000000000000000000815260040161264890614372565b60405180910390fd5b600073ffffffffffffffffffffffffffffffffffffffff168273ffffffffffffffffffffffffffffffffffffffff16036126c0576040517f08c379a00000000000000000000000000000000000000000000000000000000081526004016126b790614404565b60405180910390fd5b6126cb838383613788565b60008060008573ffffffffffffffffffffffffffffffffffffffff1673ffffffffffffffffffffffffffffffffffffffff16815260200190815260200160002054905081811015612751576040517f08c379a000000000000000000000000000000000000000000000000000000000815260040161274890614496565b60405180910390fd5b8181036000808673ffffffffffffffffffffffffffffffffffffffff1673ffffffffffffffffffffffffffffffffffffffff16815260200190815260200160002081905550816000808573ffffffffffffffffffffffffffffffffffffffff1673ffffffffffffffffffffffffffffffffffffffff16815260200190815260200160002060008282546127e49190613e70565b925050819055508273ffffffffffffffffffffffffffffffffffffffff168473ffffffffffffffffffffffffffffffffffffffff167fddf252ad1be2c89b69c2b068fc378daa952ba7f163c4a11628f55a4df523b3ef8460405161284891906138b9565b60405180910390a361285b8484846137e0565b50505050565b600080600660009054906101000a900473ffffffffffffffffffffffffffffffffffffffff1673ffffffffffffffffffffffffffffffffffffffff1663414641df6040518163ffffffff1660e01b8152600401602060405180830381865afa1580156128d1573d6000803e3d6000fd5b505050506040513d601f19601f820116820180604052508101906128f5919061417e565b90508091505090565b600080600660009054906101000a900473ffffffffffffffffffffffffffffffffffffffff1673ffffffffffffffffffffffffffffffffffffffff1663f2e9bd7a6040518163ffffffff1660e01b8152600401602060405180830381865afa15801561296e573d6000803e3d6000fd5b505050506040513d601f19601f82011682018060405250810190612992919061417e565b90508091505090565b600080600060048111156129b2576129b1613b11565b5b600d60009054906101000a900460ff1660048111156129d4576129d3613b11565b5b03612b625760008173ffffffffffffffffffffffffffffffffffffffff16638d4a8ffe856040518263ffffffff1660e01b8152600401612a1491906138b9565b602060405180830381865afa158015612a31573d6000803e3d6000fd5b505050506040513d601f19601f82011682018060405250810190612a5591906144cb565b90506000811015612a92576040517fc1a21f4e00000000000000000000000000000000000000000000000000000000815260040160405180910390fd5b6040518060600160405280600a548152602001828152602001600d60009054906101000a900460ff166004811115612acd57612acc613b11565b5b815250600e600a5481548110612ae657612ae56144f8565b5b9060005260206000209060030201600082015181600001556020820151816001015560408201518160020160006101000a81548160ff02191690836004811115612b3357612b32613b11565b5b0217905550905050600a6000815480929190612b4e90614527565b9190505550806007819055925050506131c4565b60016004811115612b7657612b75613b11565b5b600d60009054906101000a900460ff166004811115612b9857612b97613b11565b5b03612cad5760008390506000811015612bdd576040517fc1a21f4e00000000000000000000000000000000000000000000000000000000815260040160405180910390fd5b6040518060600160405280600a548152602001828152602001600d60009054906101000a900460ff166004811115612c1857612c17613b11565b5b815250600e600a5481548110612c3157612c306144f8565b5b9060005260206000209060030201600082015181600001556020820151816001015560408201518160020160006101000a81548160ff02191690836004811115612c7e57612c7d613b11565b5b0217905550905050600a6000815480929190612c9990614527565b9190505550806007819055925050506131c4565b60026004811115612cc157612cc0613b11565b5b600d60009054906101000a900460ff166004811115612ce357612ce2613b11565b5b03612e715760008173ffffffffffffffffffffffffffffffffffffffff16637afcc7a4856040518263ffffffff1660e01b8152600401612d2391906138b9565b602060405180830381865afa158015612d40573d6000803e3d6000fd5b505050506040513d601f19601f82011682018060405250810190612d6491906144cb565b90506000811015612da1576040517fc1a21f4e00000000000000000000000000000000000000000000000000000000815260040160405180910390fd5b6040518060600160405280600a548152602001828152602001600d60009054906101000a900460ff166004811115612ddc57612ddb613b11565b5b815250600e600a5481548110612df557612df46144f8565b5b9060005260206000209060030201600082015181600001556020820151816001015560408201518160020160006101000a81548160ff02191690836004811115612e4257612e41613b11565b5b0217905550905050600a6000815480929190612e5d90614527565b9190505550806007819055925050506131c4565b60036004811115612e8557612e84613b11565b5b600d60009054906101000a900460ff166004811115612ea757612ea6613b11565b5b036130355760008173ffffffffffffffffffffffffffffffffffffffff166387434dcd856040518263ffffffff1660e01b8152600401612ee791906138b9565b602060405180830381865afa158015612f04573d6000803e3d6000fd5b505050506040513d601f19601f82011682018060405250810190612f2891906144cb565b90506000811015612f65576040517fc1a21f4e00000000000000000000000000000000000000000000000000000000815260040160405180910390fd5b6040518060600160405280600a548152602001828152602001600d60009054906101000a900460ff166004811115612fa057612f9f613b11565b5b815250600e600a5481548110612fb957612fb86144f8565b5b9060005260206000209060030201600082015181600001556020820151816001015560408201518160020160006101000a81548160ff0219169083600481111561300657613005613b11565b5b0217905550905050600a600081548092919061302190614527565b9190505550806007819055925050506131c4565b60048081111561304857613047613b11565b5b600d60009054906101000a900460ff16600481111561306a57613069613b11565b5b036131bd5760008173ffffffffffffffffffffffffffffffffffffffff1663d1381f4e856040518263ffffffff1660e01b81526004016130aa91906138b9565b602060405180830381865afa1580156130c7573d6000803e3d6000fd5b505050506040513d601f19601f820116820180604052508101906130eb91906144cb565b90506040518060600160405280600a548152602001828152602001600d60009054906101000a900460ff16600481111561312857613127613b11565b5b815250600e600a5481548110613141576131406144f8565b5b9060005260206000209060030201600082015181600001556020820151816001015560408201518160020160006101000a81548160ff0219169083600481111561318e5761318d613b11565b5b0217905550905050600a60008154809291906131a990614527565b9190505550806007819055925050506131c4565b6007549150505b919050565b600073ffffffffffffffffffffffffffffffffffffffff168273ffffffffffffffffffffffffffffffffffffffff1603613238576040517f08c379a000000000000000000000000000000000000000000000000000000000815260040161322f906145e1565b60405180910390fd5b61324482600083613788565b60008060008473ffffffffffffffffffffffffffffffffffffffff1673ffffffffffffffffffffffffffffffffffffffff168152602001908152602001600020549050818110156132ca576040517f08c379a00000000000000000000000000000000000000000000000000000000081526004016132c190614673565b60405180910390fd5b8181036000808573ffffffffffffffffffffffffffffffffffffffff1673ffffffffffffffffffffffffffffffffffffffff1681526020019081526020016000208190555081600260008282546133219190613c9c565b92505081905550600073ffffffffffffffffffffffffffffffffffffffff168373ffffffffffffffffffffffffffffffffffffffff167fddf252ad1be2c89b69c2b068fc378daa952ba7f163c4a11628f55a4df523b3ef8460405161338691906138b9565b60405180910390a361339a836000846137e0565b505050565b6000806133aa6128fe565b905060006133b66122a6565b90506133d5670de0b6b3a7640000836133cf9190613cd0565b82612343565b9250505090565b6000600560019054906101000a900473ffffffffffffffffffffffffffffffffffffffff16905081600560016101000a81548173ffffffffffffffffffffffffffffffffffffffff021916908373ffffffffffffffffffffffffffffffffffffffff1602179055508173ffffffffffffffffffffffffffffffffffffffff168173ffffffffffffffffffffffffffffffffffffffff167f8be0079c531659141344cd1fd0a4f28419497f9722a3daafe3b4186f6b6457e060405160405180910390a35050565b6000806134ad6128fe565b905060006134b9612861565b90506134d8670de0b6b3a7640000836134d29190613cd0565b82612343565b9250505090565b6000806134ea6128fe565b905060006134f6612374565b9050613515670de0b6b3a76400008361350f9190613cd0565b82612343565b9250505090565b6000808203613555576000600d60006101000a81548160ff0219169083600481111561354b5761354a613b11565b5b021790555061362c565b6001820361358d576001600d60006101000a81548160ff0219169083600481111561358357613582613b11565b5b021790555061362b565b600282036135c5576002600d60006101000a81548160ff021916908360048111156135bb576135ba613b11565b5b021790555061362a565b600382036135fd576003600d60006101000a81548160ff021916908360048111156135f3576135f2613b11565b5b0217905550613629565b6004600d60006101000a81548160ff0219169083600481111561362357613622613b11565b5b02179055505b5b5b5b600d60009054906101000a900460ff169050919050565b61364b61157a565b61368a576040517f08c379a0000000000000000000000000000000000000000000000000000000008152600401613681906146df565b60405180910390fd5b6000600560006101000a81548160ff0219169083151502179055507f5db9ee0a495bf2e6ff9c91a7834c1ba4fdd244a5e8aa4e537bd38aeae4b073aa6136ce612411565b6040516136db9190613bb2565b60405180910390a1565b6136ed61157a565b1561372d576040517f08c379a00000000000000000000000000000000000000000000000000000000081526004016137249061474b565b60405180910390fd5b6001600560006101000a81548160ff0219169083151502179055507f62e78cea01bee320cd4e420270b5ea74000d11b0c9f74754ebdbfc544b05a258613771612411565b60405161377e9190613bb2565b60405180910390a1565b61379061157a565b156137d0576040517f08c379a00000000000000000000000000000000000000000000000000000000081526004016137c79061474b565b60405180910390fd5b6137db8383836137e5565b505050565b505050565b6137f083838361383d565b6137f861157a565b15613838576040517f08c379a000000000000000000000000000000000000000000000000000000000815260040161382f906147dd565b60405180910390fd5b505050565b505050565b600080fd5b6000819050919050565b61385a81613847565b811461386557600080fd5b50565b60008135905061387781613851565b92915050565b60006020828403121561389357613892613842565b5b60006138a184828501613868565b91505092915050565b6138b381613847565b82525050565b60006020820190506138ce60008301846138aa565b92915050565b600081519050919050565b600082825260208201905092915050565b60005b8381101561390e5780820151818401526020810190506138f3565b60008484015250505050565b6000601f19601f8301169050919050565b6000613936826138d4565b61394081856138df565b93506139508185602086016138f0565b6139598161391a565b840191505092915050565b6000602082019050818103600083015261397e818461392b565b905092915050565b600073ffffffffffffffffffffffffffffffffffffffff82169050919050565b60006139b182613986565b9050919050565b6139c1816139a6565b81146139cc57600080fd5b50565b6000813590506139de816139b8565b92915050565b600080604083850312156139fb576139fa613842565b5b6000613a09858286016139cf565b9250506020613a1a85828601613868565b9150509250929050565b60008115159050919050565b613a3981613a24565b82525050565b6000602082019050613a546000830184613a30565b92915050565b600080600060608486031215613a7357613a72613842565b5b6000613a81868287016139cf565b9350506020613a92868287016139cf565b9250506040613aa386828701613868565b9150509250925092565b600060ff82169050919050565b613ac381613aad565b82525050565b6000602082019050613ade6000830184613aba565b92915050565b600060208284031215613afa57613af9613842565b5b6000613b08848285016139cf565b91505092915050565b7f4e487b7100000000000000000000000000000000000000000000000000000000600052602160045260246000fd5b60058110613b5157613b50613b11565b5b50565b6000819050613b6282613b40565b919050565b6000613b7282613b54565b9050919050565b613b8281613b67565b82525050565b6000602082019050613b9d6000830184613b79565b92915050565b613bac816139a6565b82525050565b6000602082019050613bc76000830184613ba3565b92915050565b60008060408385031215613be457613be3613842565b5b6000613bf2858286016139cf565b9250506020613c03858286016139cf565b9150509250929050565b7f4e487b7100000000000000000000000000000000000000000000000000000000600052601260045260246000fd5b7f4e487b7100000000000000000000000000000000000000000000000000000000600052601160045260246000fd5b6000613c7682613847565b9150613c8183613847565b925082613c9157613c90613c0d565b5b828204905092915050565b6000613ca782613847565b9150613cb283613847565b9250828203905081811115613cca57613cc9613c3c565b5b92915050565b6000613cdb82613847565b9150613ce683613847565b9250828202613cf481613847565b91508282048414831517613d0b57613d0a613c3c565b5b5092915050565b7f4e487b7100000000000000000000000000000000000000000000000000000000600052602260045260246000fd5b60006002820490506001821680613d5957607f821691505b602082108103613d6c57613d6b613d12565b5b50919050565b7f45524332303a207472616e7366657220616d6f756e742065786365656473206160008201527f6c6c6f77616e6365000000000000000000000000000000000000000000000000602082015250565b6000613dce6028836138df565b9150613dd982613d72565b604082019050919050565b60006020820190508181036000830152613dfd81613dc1565b9050919050565b7f4f776e61626c653a2063616c6c6572206973206e6f7420746865206f776e6572600082015250565b6000613e3a6020836138df565b9150613e4582613e04565b602082019050919050565b60006020820190508181036000830152613e6981613e2d565b9050919050565b6000613e7b82613847565b9150613e8683613847565b9250828201905080821115613e9e57613e9d613c3c565b5b92915050565b6000604082019050613eb96000830185613ba3565b613ec660208301846138aa565b9392505050565b613ed681613a24565b8114613ee157600080fd5b50565b600081519050613ef381613ecd565b92915050565b600060208284031215613f0f57613f0e613842565b5b6000613f1d84828501613ee4565b91505092915050565b7f45524332303a206275726e20616d6f756e74206578636565647320616c6c6f7760008201527f616e636500000000000000000000000000000000000000000000000000000000602082015250565b6000613f826024836138df565b9150613f8d82613f26565b604082019050919050565b60006020820190508181036000830152613fb181613f75565b9050919050565b7f45524332303a2064656372656173656420616c6c6f77616e63652062656c6f7760008201527f207a65726f000000000000000000000000000000000000000000000000000000602082015250565b60006140146025836138df565b915061401f82613fb8565b604082019050919050565b6000602082019050818103600083015261404381614007565b9050919050565b7f4f776e61626c653a206e6577206f776e657220697320746865207a65726f206160008201527f6464726573730000000000000000000000000000000000000000000000000000602082015250565b60006140a66026836138df565b91506140b18261404a565b604082019050919050565b600060208201905081810360008301526140d581614099565b9050919050565b7f45524332303a206d696e7420746f20746865207a65726f206164647265737300600082015250565b6000614112601f836138df565b915061411d826140dc565b602082019050919050565b6000602082019050818103600083015261414181614105565b9050919050565b6000819050919050565b61415b81614148565b811461416657600080fd5b50565b60008151905061417881614152565b92915050565b60006020828403121561419457614193613842565b5b60006141a284828501614169565b91505092915050565b60006141b682613847565b91506141c183613847565b9250826141d1576141d0613c0d565b5b828206905092915050565b7f45524332303a20617070726f76652066726f6d20746865207a65726f2061646460008201527f7265737300000000000000000000000000000000000000000000000000000000602082015250565b60006142386024836138df565b9150614243826141dc565b604082019050919050565b600060208201905081810360008301526142678161422b565b9050919050565b7f45524332303a20617070726f766520746f20746865207a65726f20616464726560008201527f7373000000000000000000000000000000000000000000000000000000000000602082015250565b60006142ca6022836138df565b91506142d58261426e565b604082019050919050565b600060208201905081810360008301526142f9816142bd565b9050919050565b7f45524332303a207472616e736665722066726f6d20746865207a65726f20616460008201527f6472657373000000000000000000000000000000000000000000000000000000602082015250565b600061435c6025836138df565b915061436782614300565b604082019050919050565b6000602082019050818103600083015261438b8161434f565b9050919050565b7f45524332303a207472616e7366657220746f20746865207a65726f206164647260008201527f6573730000000000000000000000000000000000000000000000000000000000602082015250565b60006143ee6023836138df565b91506143f982614392565b604082019050919050565b6000602082019050818103600083015261441d816143e1565b9050919050565b7f45524332303a207472616e7366657220616d6f756e742065786365656473206260008201527f616c616e63650000000000000000000000000000000000000000000000000000602082015250565b60006144806026836138df565b915061448b82614424565b604082019050919050565b600060208201905081810360008301526144af81614473565b9050919050565b6000815190506144c581613851565b92915050565b6000602082840312156144e1576144e0613842565b5b60006144ef848285016144b6565b91505092915050565b7f4e487b7100000000000000000000000000000000000000000000000000000000600052603260045260246000fd5b600061453282613847565b91507fffffffffffffffffffffffffffffffffffffffffffffffffffffffffffffffff820361456457614563613c3c565b5b600182019050919050565b7f45524332303a206275726e2066726f6d20746865207a65726f2061646472657360008201527f7300000000000000000000000000000000000000000000000000000000000000602082015250565b60006145cb6021836138df565b91506145d68261456f565b604082019050919050565b600060208201905081810360008301526145fa816145be565b9050919050565b7f45524332303a206275726e20616d6f756e7420657863656564732062616c616e60008201527f6365000000000000000000000000000000000000000000000000000000000000602082015250565b600061465d6022836138df565b915061466882614601565b604082019050919050565b6000602082019050818103600083015261468c81614650565b9050919050565b7f5061757361626c653a206e6f7420706175736564000000000000000000000000600082015250565b60006146c96014836138df565b91506146d482614693565b602082019050919050565b600060208201905081810360008301526146f8816146bc565b9050919050565b7f5061757361626c653a2070617573656400000000000000000000000000000000600082015250565b60006147356010836138df565b9150614740826146ff565b602082019050919050565b6000602082019050818103600083015261476481614728565b9050919050565b7f45524332305061757361626c653a20746f6b656e207472616e7366657220776860008201527f696c652070617573656400000000000000000000000000000000000000000000602082015250565b60006147c7602a836138df565b91506147d28261476b565b604082019050919050565b600060208201905081810360008301526147f6816147ba565b905091905056fea2646970667358221220e3058f16a7243554c327156588124b844c66dc65caa91f0bebd05d6d56f2dc5364736f6c63430008110033",
  "immutableReferences": {},
  "source": "// SPDX-License-Identifier: GPL-3.0\n// // // // // // // // // // // // // // // // // // // // // // // // // // // // // // // // // // // // // // // // // // // // // // // // // // // // // // // // // // // // //\n//\n//      MMWKd:..                                                                                    ..:dKWMM\n//      MKl.                                                                                            .lKW\n//      O'       ..''''''''''''.     .''''''.     .'''''.      .''''''''''''''.     .''''''''''''..       'O\n//      '     .ckKNNWNWWWWWWWWWk.   .xNWWNWNl    ,0WWWWW0,     lNWWWWWWWWWNWNk'    ;0NNNWWWWWWWWNNKkc.     '\n//           ,OWMMMMMMMMMMMMMMMO.   .kMMMMMWl    ,KMMMMMK,     lWMMMMMMMMMMM0,    ;KMMMMMMMMMMMMMMMMWO,\n//          .kMMMMMMMMMMMMMMMMMO.   .kMMMMMWl    ,KMMMMMK,     lWMMMMMMMMMM0,    ;KMMMMMMMMMMMMMMMMMMMk.\n//          '0MMMMMMMMMMMMMMMMMO.   .kMMMMMWl    ,KMMMMMK,     lWMMMMMMMMM0,    :KMMMMMMMMMMMMMMMMMMMM0'\n//          '0MMMMMMMMMMMMMMMMMO.   .kMMMMMWl    ,KMMMMMK,     lWMMMMMMMM0,    :KMMMMMMMMMMMMMMMMMMMMM0'\n//          '0MMMMMMMMMMMMMMMMMO.   .kMMMMMWl    ,KMMMMMK,     lWMMMMMMM0,    ;0NNWWMMMMMMMMMMMMMMMMMM0'\n//          '0MMMMMMMMMMMMMMMMMO.   .kMMMMMWl    ,KMMMMMK,     lWMMMMMM0,     .'.',;lkNMMMMMMMMMMMMMMM0'\n//          '0MMMMMMMMMMMMMMMMMO.   .kMMMMMWl    ,KMMMMMK,     lWMMMMMK;              ,kWMMMMMMMMMMMMM0'\n//          '0MMMMMMMMMMMMMMMMMO.   .kMMMMMWl    ,KMMMMMK,     lWMMMMX:    .:oxxdc'    .dWMMMMMMMMMMMM0'\n//          '0MMMMMMMMMMMMMMMMMO.   .kMMMMMWl    ,KMMMMMK,     lWMMMWd.   ,OWMMMMMXl.   '0MMMMMMMMMMMM0'\n//          '0MMMMMMMMMMMMMMMMMO.   .kMMMMMWl    ,KMMMMMK,     lWMMMX;   .kMMMMMMMMK,   .xMMMMMMMMMMMM0'\n//          '0MMMMMMMMMMMMMMMMMO.   .kMMMMMWl    ,KMMMMMK,     lWMMM0'   .OMMMMMMMMX;   .xMMMMMMMMMMMM0'\n//          .OMMMMMMMMMMMMMMMMMO.   .kMMMMMWl    ,KMMMMMK,     lWMMMK,    lNMMMMMMWx.   '0MMMMMMMMMMMMO.\n//           lNMMMMMMMMMMMMMMMMO.   .kMMMMMWl    ,KMMMMMK,     lWMMMWd.   .:x0KKKkc.   .dWMMMMMMMMMMMNl\n//      .    .c0WMMMMMMMMMMMMMMO.   .kMMMMMWo    ,KMMMMMK,     lWMMMMNd.     ....     .xNMMMMMMMMMMW0c.    .\n//      l      .,lddxxxxxxxxxxxc.    :xxxxxd,    .lxxxxxl.     ,dxxxxxd:.            .cdxxxxxxxxddl,.      l\n//      No.                                                                                              .oN\n//      MW0l'                                                                                          'l0WM\n//      MMMWKd;.                                                                                    .;dKWMMM\n//\n// // // // // // // // // // // // // // // // // // // // // // // // // // // // // // // // // // // // // // // // // // // // // // // // // // // // // // // // // // // // //\n//                                                                                                                                                                                  //\n//      @dev            ::              Aron Mauritala Ayuk                                                                                                                                          //\n//      @msg            ::              stereo@iii6.xyz                                                                                                                                   //\n//      @github         ::              @stereoIII6\n//      @twitter        ::              @stereoIII6                                                                                                                                              //\n//                                                                                                                                                                                  //\n// // // // // // // // // // // // // // // // // // // // // // // // // // // // // // // // // // // // // // // // // // // // // // // // // // // // // // // // // // // // //\n//                                                                                                                                                                                  //\n//      @dev            ::              Juan Xavier Valverde                                                                                                                                    //\n//      @msg            ::              juanxavier@iii6.xyz                                                                                                                               //\n//      @twitter        ::              @JuanXavier                                                                                                                                             //\n//      @github         ::              @JuanXavier                                                                                                                                             //\n//                                                                                                                                                                                  //                                                                                                                                                                                 //\n// // // // // // // // // // // // // // // // // // // // // // // // // // // // // // // // // // // // // // // // // // // // // // // // // // // // // // // // // // // // //\n//  *   *   *   *   *   *   *   *   *   *   *   *   *   *   *   *   *   *   *   *   *   *   *   *   *   *   *   *   *   *   *   *   *   *   *   *   *   *   *   *   *   *   *   *   //\n// // // // // // // // // // // // // // // // // // // // // // // // // // // // // // // // // // // // // // // // // // // // // // // // // // // // // // // // // // // // //\n//                                                                                                                                                                                  //\n//      @company        ::              Fractio Holding                                                                                                                                                                       //\n//      @title          ::              iii6 Coin Model                                                                                                                            //\n//      @description    ::              ERC20 Model Preset Contract                                                                                                                           //\n//      @version        ::              0.0.1                                                                                                                                       //\n//      @purpose        ::              ERC20 Model Preset                                                                                                          //\n//                                                                                                                                                                                  //\n//                                                                                                                                                                                  //\n//                                                                                                                                                                                  //\n//                                                                                                                                                                                  //\n//                                                                                                                                                                                  //\n// // // // // // // // // // // // // // // // // // // // // // // // // // // // // // // // // // // // // // // // // // // // // // // // // // // // // // // // // // // // //\n//  *   *   *   *   *   *   *   *   *   *   *   *   *   *   *   *   *   *   *   *   *   *   *   *   *   *   *   *   *   *   *   *   *   *   *   *   *   *   *   *   *   *   *   *   //\n// // // // // // // // // // // // // // // // // // // // // // // // // // // // // // // // // // // // // // // // // // // // // // // // // // // // // // // // // // // // //\n\n/////////////////////////////////////////////////////////////////////////////////////////////////////////////////////\n\n/////////////////////////////////////////////////////////////////////////////////////////////////////////////////////\n\npragma solidity ^0.8.7;\n\nimport \"@openzeppelin/contracts/token/ERC20/ERC20.sol\";\nimport \"@openzeppelin/contracts/access/Ownable.sol\";\nimport \"@openzeppelin/contracts/token/ERC20/extensions/ERC20Burnable.sol\";\nimport \"@openzeppelin/contracts/token/ERC20/extensions/ERC20Pausable.sol\";\nimport \"../Oracles/iii6PriceConsumer.sol\";\nimport \"../Math/iii6PriceMath.sol\";\nimport \"./iii6Safes.sol\";\nimport \"../Misc/iii6Misc.sol\";\nimport \"../Misc/Errors/iii6Errors.sol\";\n\ncontract iii6CoinModel is\n    ERC20,\n    ERC20Pausable,\n    ERC20Burnable,\n    Ownable,\n    iii6PriceMath,\n    iii6Misc,\n    iii6Errors\n{\n    /**\n     * @dev this contract is a factory contract to deploy iii6CoinModel & iii6DiaModel\n     */\n    // \n    // \n    // \n    // \n    // \n    // \n    /**\n     * @dev declaration of storage vars\n     */\n    uint256 public rate;\n    uint256 public PUB_SUPPLY;\n    uint256 public MAX_SUPPLY;\n    uint256 private r;\n    bool private burns;\n    bool private pauses;\n    string public title;\n\n    /**\n     * @dev declaration of enums structs and arrays\n     */\n    Coins private ocoin;\n    struct Rates {\n        uint256 rateid;\n        uint256 rate;\n        Coins ocoin;\n    }\n    Rates[] private rates;\n\n    /**\n     * @dev creates an instance of iii6CoinModel\n     * @param _name token name\n     * @param _sym token symbol\n     * @param _rate token rate\n     * @param _supply max token supply // if 0-infinte\n     * @param _burn bool burnable\n     * @param _pause bool pauseble\n     * @param _curr denomintaor currency // 0-eth 1-gascoin 2-xCur 2-yCur >4-usdc\n     */\n    constructor(\n        string memory _name, // Token Name\n        string memory _sym, // Token Symbol\n        uint256 _rate, // Token Price in USD // 100 == 1 usd // 100000 = 1ETH\n        uint256 _supply, // Token Max Supply\n        bool _burn, // Burnable Option\n        bool _pause,\n        uint256 _curr // 1-eth 2-usd 3-xCur 4-yCur\n    ) ERC20(_name, _sym) {\n        _setRate(_rate); /** @dev see _setRate() :: line138 */\n        MAX_SUPPLY = _supply;\n        title = _name;\n        burns = _burn;\n        pauses = _pause;\n        ocoin = _setCurr(_curr); /** @dev see _setRate() :: line181 */\n        rates[r] = Rates(r, _rate, ocoin); /** @dev see Rates{} :: line97 */\n    }\n\n    // \n    // \n    // \n    // \n    // \n    // \n\n    /**\n     * @dev sets token price in denomination currency ocoin\n     * @param _newRate token price in $ocoin (denomination currency)\n     * denomination currency can be set in setCurr()\n     * @return uint256 rate in gascoin\n     */\n    function _setRate(uint256 _newRate) internal returns (uint256) {\n        iii6PriceMath pm;\n        if (ocoin == Coins.WETH) {\n            uint256 eP = pm.coinPriceOfEth(_newRate); /** @dev see iii6PriceMath.sol coinPriceOfEth() :: line138 */\n            if (eP < 0) revert Invalid_Response();\n            rates[r] = Rates(r, eP, ocoin);\n            r++;\n            return rate = eP;\n        } else if (ocoin == Coins.GASCOIN) {\n            uint256 gP = _newRate;\n            if (gP < 0) revert Invalid_Response();\n            rates[r] = Rates(r, gP, ocoin);\n            r++;\n            return rate = gP;\n        } else if (ocoin == Coins.XXX) {\n            uint256 xP = pm.coinPriceOfX(_newRate); /** @dev see iii6PriceMath.sol coinPriceOfX() :: line138 */\n            if (xP < 0) revert Invalid_Response();\n            rates[r] = Rates(r, xP, ocoin);\n            r++;\n            return rate = xP;\n        } else if (ocoin == Coins.YYY) {\n            uint256 yP = pm.coinPriceOfY(_newRate); /** @dev see iii6PriceMath.sol coinPriceOfY() :: line138 */\n            if (yP < 0) revert Invalid_Response();\n            rates[r] = Rates(r, yP, ocoin);\n            r++;\n            return rate = yP;\n        } else if (ocoin == Coins.USDC) {\n            uint256 newRate = pm.coinPriceOfUSD(_newRate); /** @dev see iii6PriceMath.sol coinPriceOfUSD() :: line138 */\n            rates[r] = Rates(r, newRate, ocoin);\n            r++;\n            return rate = newRate;\n        } else {\n            return rate;\n        }\n    }\n\n    /**\n     * @dev sets the denomination currency\n     * @param // INTERNAL\n     * @param _curr  ocoin (denomination currency) // 0-eth 1-gascoin 2-xCur 2-yCur >4-usdc\n     * denomination currency can be set in setCurr()\n     * @return Coins.[???] // ocoin name as enum Coins\n     */\n    function _setCurr(uint256 _curr) internal returns (Coins) {\n        if (_curr == 0) {\n            ocoin = Coins.WETH;\n        } else if (_curr == 1) {\n            ocoin = Coins.GASCOIN;\n        } else if (_curr == 2) {\n            ocoin = Coins.XXX;\n        } else if (_curr == 3) {\n            ocoin = Coins.YYY;\n        } else {\n            ocoin = Coins.USDC;\n        }\n        return ocoin;\n    }\n\n    /**\n     * @dev overrides ERC20 & ERC20Pausable\n     */\n    function _beforeTokenTransfer(\n        address from,\n        address to,\n        uint256 amount\n    ) internal override(ERC20, ERC20Pausable) whenNotPaused {\n        super._beforeTokenTransfer(from, to, amount);\n    }\n\n    // \n    // \n    // \n    // \n    // \n    // \n\n    /**\n     * @dev sets the denomination currency\n     * @param // EXTERNAL\n     * @param _curr  ocoin (denomination currency) // 0-eth 1-gascoin 2-xCur 2-yCur >4-usdc\n     * denomination currency can be set in setCurr()\n     * @return Coins.[???] // ocoin name as enum Coins\n     */\n    function setCurr(uint256 _curr) external onlyOwner returns (Coins) {\n        return _setCurr(_curr);\n    }\n\n    /**\n     * @dev sets the rate of currency in denomination currency\n     * @dev check the ocoin for its state to determine what value to type in\n     * @param // EXTERNAL\n     * @param _rate  ocoin (denomination currency) // 0-eth 1-gascoin 2-xCur 2-yCur >4-usdc\n     * denomination currency can be set in setCurr()\n     * @return _setRate // ocoin name as enum Coins\n     */\n    function setRate(uint256 _rate) external onlyOwner returns (uint256) {\n        return _setRate(_rate);\n    }\n\n    /**\n     * @dev sets the max supply\n     * @param // EXTERNAL only owner\n     * @param _newSupply  ocoin (denomination currency) // 0-eth 1-gascoin 2-xCur 2-yCur >4-usdc\n     * denomination currency can be set in setCurr()\n     * @return Max Supply\n     */\n    function setMaxSupply(uint256 _newSupply)\n        external\n        onlyOwner\n        returns (uint256)\n    {\n        return MAX_SUPPLY = _newSupply;\n    }\n\n    /**\n     * @dev burn function for token holders only for burnable contracts\n     * @param _amount of tokens to burn // EXTERNAL\n     */\n    function burn(uint256 _amount) public override {\n        if (burns == false) revert Not_Burnable();\n        _burn(msg.sender, _amount);\n    }\n\n    /**\n     * @dev toggle the pausable functionality on the contract\n     * @return pausable state of contract\n     */\n    function togglePause() public onlyOwner returns (bool) {\n        return pauses = !pauses;\n    }\n\n    /**\n     * @dev toggle the burnable functionality on the contract\n     * @return burnable state of contract\n     */\n    function toggleBurn() public onlyOwner returns (bool) {\n        return burns = !burns;\n    }\n\n    /**\n     * @dev if contract pauses the state get checked and toggled via condition to opposite state\n     * @return active state of contract (true = paused / false = active)\n     */\n    function toggleState() public onlyOwner returns (bool) {\n        if (pauses == false) revert Not_Pausable();\n        if (paused()) _unpause();\n        else _pause();\n        return paused();\n    }\n\n    /**\n     * @dev buy function for token holders\n     * @param _amount of tokens to mint // EXTERNAL\n     * @return uint total price\n     */\n    function buyTokens(uint256 _amount) external payable returns (uint256) {\n        if (msg.value <= _amount * rate) revert Insufficient_Amount();\n        if ((MAX_SUPPLY - PUB_SUPPLY) - (_amount * 10**18) < 0)\n            revert Insufficient_Supply();\n        _mint(msg.sender, _amount * 10**18);\n        return _amount * rate;\n    }\n\n    /**\n     * @dev recieve function returns tokens on gascoin transfer to contract\n     */\n\n    receive() external payable {\n        // condition\n        _rcMint();\n    }\n\n    /**\n     * @dev recieve function returns tokens on gascoin and/or tokens transfer to contract\n     */\n    fallback() external payable {\n        // condition\n        _rcMint();\n        // condition\n        _fbMint();\n    }\n\n    /**\n     * @dev does mint  in exchange for gascoin action on recieve() and fallback()\n     */\n    function _rcMint() internal {\n        uint256 amount = msg.value / rate;\n        _mint(msg.sender, amount);\n    }\n\n    /**\n     * @dev does mint in exchange for erc20 tokens action on recieve() and fallback()\n     */\n    function _fbMint() internal {\n        // else if() { // ROADMAP\n        // handle erc20 tokens\n        // get token address\n        // check for oracle\n        // go to oracle list for network\n        // check if address is listed or exit empty\n        // connect X Custom Token to oracle address\n        // check for price\n        uint256 input = 0; // amount input from token x to amount of gascoins\n        // determine tAmount\n        uint256 tAmount = input / rate;\n        // check if input sufficient\n        if (tAmount < rate) revert Insufficient_Amount();\n        // check if tokens available\n        if ((MAX_SUPPLY - PUB_SUPPLY) - (tAmount) < 0)\n            revert Insufficient_Supply();\n        _mint(msg.sender, tAmount);\n    }\n}\n\ncontract iii6CoinModelDrop is iii6CoinModel {\n    /**\n     * @dev creates an instance of iii6CoinModel\n     * @param _name token name\n     * @param _sym token symbol\n     * @param _rate token rate\n     * @param _supply max token supply // if 0-infinte\n     * @param _burn bool burnable\n     * @param _pause bool pauseble\n     * @param _curr denomintaor currency // 0-eth 1-gascoin 2-xCur 2-yCur >4-usdc\n     */\n    constructor(\n        string memory _name,\n        string memory _sym,\n        uint256 _rate,\n        uint256 _supply,\n        bool _burn,\n        bool _pause,\n        uint256 _curr\n    ) iii6CoinModel(_name, _sym, _rate, _supply, _burn, _pause, _curr) {}\n\n    /**\n     * @dev Drops users 100 Full Tokens For testnets only\n     */\n    function dropToken() external {\n        _mint(msg.sender, 100 * 10**18);\n    }\n}\n// // // // // // // // // // // // // // // // // // // // // // // // // // // // // // // // // // // // // // // // // // // // // // // // // // // // // // // // // // // // //\n//\n//      MMWKd:..                                                                                    ..:dKWMM\n//      MKl.                                                                                            .lKW\n//      O'       ..''''''''''''.     .''''''.     .'''''.      .''''''''''''''.     .''''''''''''..       'O\n//      '     .ckKNNWNWWWWWWWWWk.   .xNWWNWNl    ,0WWWWW0,     lNWWWWWWWWWNWNk'    ;0NNNWWWWWWWWNNKkc.     '\n//           ,OWMMMMMMMMMMMMMMMO.   .kMMMMMWl    ,KMMMMMK,     lWMMMMMMMMMMM0,    ;KMMMMMMMMMMMMMMMMWO,\n//          .kMMMMMMMMMMMMMMMMMO.   .kMMMMMWl    ,KMMMMMK,     lWMMMMMMMMMM0,    ;KMMMMMMMMMMMMMMMMMMMk.\n//          '0MMMMMMMMMMMMMMMMMO.   .kMMMMMWl    ,KMMMMMK,     lWMMMMMMMMM0,    :KMMMMMMMMMMMMMMMMMMMM0'\n//          '0MMMMMMMMMMMMMMMMMO.   .kMMMMMWl    ,KMMMMMK,     lWMMMMMMMM0,    :KMMMMMMMMMMMMMMMMMMMMM0'\n//          '0MMMMMMMMMMMMMMMMMO.   .kMMMMMWl    ,KMMMMMK,     lWMMMMMMM0,    ;0NNWWMMMMMMMMMMMMMMMMMM0'\n//          '0MMMMMMMMMMMMMMMMMO.   .kMMMMMWl    ,KMMMMMK,     lWMMMMMM0,     .'.',;lkNMMMMMMMMMMMMMMM0'\n//          '0MMMMMMMMMMMMMMMMMO.   .kMMMMMWl    ,KMMMMMK,     lWMMMMMK;              ,kWMMMMMMMMMMMMM0'\n//          '0MMMMMMMMMMMMMMMMMO.   .kMMMMMWl    ,KMMMMMK,     lWMMMMX:    .:oxxdc'    .dWMMMMMMMMMMMM0'\n//          '0MMMMMMMMMMMMMMMMMO.   .kMMMMMWl    ,KMMMMMK,     lWMMMWd.   ,OWMMMMMXl.   '0MMMMMMMMMMMM0'\n//          '0MMMMMMMMMMMMMMMMMO.   .kMMMMMWl    ,KMMMMMK,     lWMMMX;   .kMMMMMMMMK,   .xMMMMMMMMMMMM0'\n//          '0MMMMMMMMMMMMMMMMMO.   .kMMMMMWl    ,KMMMMMK,     lWMMM0'   .OMMMMMMMMX;   .xMMMMMMMMMMMM0'\n//          .OMMMMMMMMMMMMMMMMMO.   .kMMMMMWl    ,KMMMMMK,     lWMMMK,    lNMMMMMMWx.   '0MMMMMMMMMMMMO.\n//           lNMMMMMMMMMMMMMMMMO.   .kMMMMMWl    ,KMMMMMK,     lWMMMWd.   .:x0KKKkc.   .dWMMMMMMMMMMMNl\n//      .    .c0WMMMMMMMMMMMMMMO.   .kMMMMMWo    ,KMMMMMK,     lWMMMMNd.     ....     .xNMMMMMMMMMMW0c.    .\n//      l      .,lddxxxxxxxxxxxc.    :xxxxxd,    .lxxxxxl.     ,dxxxxxd:.            .cdxxxxxxxxddl,.      l\n//      No.                                                                                              .oN\n//      MW0l'                                                                                          'l0WM\n//      MMMWKd;.                                                                                    .;dKWMMM\n//\n// // // // // // // // // // // // // // // // // // // // // // // // // // // // // // // // // // // // // // // // // // // // // // // // // // // // // // // // // // // // //\n",
  "sourcePath": "/Users/iii6/Documents/GitHub/III6Dojo/contracts/iii6Utils/Assets/iii6CoinModel.sol",
  "compiler": {
    "name": "solc",
    "version": "0.8.17+commit.8df45f5f.Emscripten.clang"
  },
  "schemaVersion": "3.4.8",
  "updatedAt": "2022-12-15T19:23:26.319Z",
  "devdoc": {
    "kind": "dev",
    "methods": {
      "COIN_USD()": {
        "details": "gets value of gascoin derived from iii6PriceConsumer => _get[...]Usdc()",
        "params": {
          "": "// EXTERNAL"
        },
        "returns": {
          "_0": "uint256 gascoin price in usdc"
        }
      },
      "ETH_USD()": {
        "details": "gets value of eth derived from INTERNAL => _get[...]Usdc()",
        "params": {
          "": "// EXTERNAL"
        },
        "returns": {
          "_0": "uint256 eth price in usdc"
        }
      },
      "X_USD()": {
        "details": "gets value of custon token x derived from iii6PriceConsumer => _get[...]Usdc()",
        "params": {
          "": "// EXTERNAL"
        },
        "returns": {
          "_0": "uint256 custon token x price in usdc"
        }
      },
      "Y_USD()": {
        "details": "gets value of custon token y derived from iii6PriceConsumer => _get[...]Usdc()",
        "params": {
          "": "// EXTERNAL"
        },
        "returns": {
          "_0": "uint256 custon token y price in usdc"
        }
      },
      "allowance(address,address)": {
        "details": "See {IERC20-allowance}."
      },
      "approve(address,uint256)": {
        "details": "See {IERC20-approve}. Requirements: - `spender` cannot be the zero address."
      },
      "balanceOf(address)": {
        "details": "See {IERC20-balanceOf}."
      },
      "burn(uint256)": {
        "details": "burn function for token holders only for burnable contracts",
        "params": {
          "_amount": "of tokens to burn // EXTERNAL"
        }
      },
      "burnFrom(address,uint256)": {
        "details": "Destroys `amount` tokens from `account`, deducting from the caller's allowance. See {ERC20-_burn} and {ERC20-allowance}. Requirements: - the caller must have allowance for ``accounts``'s tokens of at least `amount`."
      },
      "buyTokens(uint256)": {
        "details": "buy function for token holders",
        "params": {
          "_amount": "of tokens to mint // EXTERNAL"
        },
        "returns": {
          "_0": "uint total price"
        }
      },
      "coinPriceOfEth(uint256)": {
        "details": "Returns price for input amount in chosen currency",
        "params": {
          "_amt": "uint256 amount of usd"
        },
        "returns": {
          "_0": "Result of division"
        }
      },
      "coinPriceOfUSD(uint256)": {
        "details": "Returns price for input amount in chosen currency",
        "params": {
          "_amt": "uint256 amount of usd"
        },
        "returns": {
          "_0": "Result of division"
        }
      },
      "coinPriceOfX(uint256)": {
        "details": "Returns price for input amount in chosen currency",
        "params": {
          "_amt": "uint256 amount of usd"
        },
        "returns": {
          "_0": "Result of division"
        }
      },
      "coinPriceOfY(uint256)": {
        "details": "Returns price for input amount in chosen currency",
        "params": {
          "_amt": "uint256 amount of usd"
        },
        "returns": {
          "_0": "Result of division"
        }
      },
      "constructor": {
        "details": "creates an instance of iii6CoinModel",
        "params": {
          "_burn": "bool burnable",
          "_curr": "denomintaor currency // 0-eth 1-gascoin 2-xCur 2-yCur >4-usdc",
          "_name": "token name",
          "_pause": "bool pauseble",
          "_rate": "token rate",
          "_supply": "max token supply // if 0-infinte",
          "_sym": "token symbol"
        }
      },
      "decimals()": {
        "details": "Returns the number of decimals used to get its user representation. For example, if `decimals` equals `2`, a balance of `505` tokens should be displayed to a user as `5.05` (`505 / 10 ** 2`). Tokens usually opt for a value of 18, imitating the relationship between Ether and Wei. This is the value {ERC20} uses, unless this function is overridden; NOTE: This information is only used for _display_ purposes: it in no way affects any of the arithmetic of the contract, including {IERC20-balanceOf} and {IERC20-transfer}."
      },
      "decreaseAllowance(address,uint256)": {
        "details": "Atomically decreases the allowance granted to `spender` by the caller. This is an alternative to {approve} that can be used as a mitigation for problems described in {IERC20-approve}. Emits an {Approval} event indicating the updated allowance. Requirements: - `spender` cannot be the zero address. - `spender` must have allowance for the caller of at least `subtractedValue`."
      },
      "dropToken()": {
        "details": "Drops users 100 Full Tokens For testnets only"
      },
      "ethPriceOfUSD(uint256)": {
        "details": "Returns price for input amount in chosen currency",
        "params": {
          "_amt": "uint256 amount of usd"
        },
        "returns": {
          "_0": "Result of division"
        }
      },
      "getCoinPriceInEth()": {
        "details": "gets value of gascoin denominated in eth derived from _get[...]Usdc()",
        "returns": {
          "coinPriceEth": "uint256 price of gascoin denominated in eth"
        }
      },
      "getCoinPriceInX()": {
        "details": "gets value of gascoin denominated in eth derived from _get[...]Usdc()",
        "returns": {
          "coinPriceX": "uint256 price of gascoin denominated in eth"
        }
      },
      "getCoinPriceInY()": {
        "details": "gets value of gascoin denominated in eth derived from _get[...]Usdc()",
        "returns": {
          "coinPriceY": "uint256 price of gascoin denominated in eth"
        }
      },
      "getEthPriceInCoin()": {
        "details": "gets value of eth denominated in gascoin derived from _get[...]Usdc()",
        "returns": {
          "ethPriceCoin": "uint256 price of eth denominated in gascoin"
        }
      },
      "getEthPriceInX()": {
        "details": "gets value of eth denominated in custom token x derived from _get[...]Usdc()",
        "returns": {
          "ethPriceX": "uint256 price of eth denominated in custom token x"
        }
      },
      "getEthPriceInY()": {
        "details": "gets value of eth denominated in custom token y derived from _get[...]Usdc()",
        "returns": {
          "ethPriceY": "uint256 price of eth denominated in custom token y"
        }
      },
      "getXPriceInCoin()": {
        "details": "gets value of gascoin denominated in eth derived from _get[...]Usdc()",
        "returns": {
          "xPriceCoin": "uint256 price of gascoin denominated in eth"
        }
      },
      "getXPriceInEth()": {
        "details": "gets value of gascoin denominated in eth derived from _get[...]Usdc()",
        "returns": {
          "xPriceEth": "uint256 price of gascoin denominated in eth"
        }
      },
      "getXPriceInY()": {
        "details": "gets value of gascoin denominated in eth derived from _get[...]Usdc()",
        "returns": {
          "xPriceY": "uint256 price of gascoin denominated in eth"
        }
      },
      "getYPriceInCoin()": {
        "details": "gets value of gascoin denominated in eth derived from _get[...]Usdc()",
        "returns": {
          "yPriceCoin": "uint256 price of gascoin denominated in eth"
        }
      },
      "getYPriceInEth()": {
        "details": "gets value of gascoin denominated in eth derived from _get[...]Usdc()",
        "returns": {
          "yPriceEth": "uint256 price of gascoin denominated in eth"
        }
      },
      "getYPriceInX()": {
        "details": "gets value of gascoin denominated in eth derived from _get[...]Usdc()",
        "returns": {
          "yPriceX": "uint256 price of gascoin denominated in eth"
        }
      },
      "increaseAllowance(address,uint256)": {
        "details": "Atomically increases the allowance granted to `spender` by the caller. This is an alternative to {approve} that can be used as a mitigation for problems described in {IERC20-approve}. Emits an {Approval} event indicating the updated allowance. Requirements: - `spender` cannot be the zero address."
      },
      "name()": {
        "details": "Returns the name of the token."
      },
      "owner()": {
        "details": "Returns the address of the current owner."
      },
      "paused()": {
        "details": "Returns true if the contract is paused, and false otherwise."
      },
      "renounceOwnership()": {
        "details": "Leaves the contract without owner. It will not be possible to call `onlyOwner` functions anymore. Can only be called by the current owner. NOTE: Renouncing ownership will leave the contract without an owner, thereby removing any functionality that is only available to the owner."
      },
      "setCurr(uint256)": {
        "details": "sets the denomination currency",
        "params": {
          "": "// EXTERNAL",
          "_curr": "ocoin (denomination currency) // 0-eth 1-gascoin 2-xCur 2-yCur >4-usdc denomination currency can be set in setCurr()"
        },
        "returns": {
          "_0": "Coins.[???] // ocoin name as enum Coins"
        }
      },
      "setMaxSupply(uint256)": {
        "details": "sets the max supply",
        "params": {
          "": "// EXTERNAL only owner",
          "_newSupply": "ocoin (denomination currency) // 0-eth 1-gascoin 2-xCur 2-yCur >4-usdc denomination currency can be set in setCurr()"
        },
        "returns": {
          "_0": "Max Supply"
        }
      },
      "setRate(uint256)": {
        "details": "sets the rate of currency in denomination currencycheck the ocoin for its state to determine what value to type in",
        "params": {
          "": "// EXTERNAL",
          "_rate": "ocoin (denomination currency) // 0-eth 1-gascoin 2-xCur 2-yCur >4-usdc denomination currency can be set in setCurr()"
        },
        "returns": {
          "_0": "_setRate // ocoin name as enum Coins"
        }
      },
      "setX(address,uint256)": {
        "details": "sets the oracle for custom token x and adapts digit length",
        "params": {
          "": "// EXTERNAL",
          "_digits": "number of decimals passed by oracle",
          "_oracle": "address of the chainlink pricefeed oracle contract"
        },
        "returns": {
          "_0": "bool success"
        }
      },
      "setY(address,uint256)": {
        "details": "sets the oracle for custom token y and adapts digit length",
        "params": {
          "": "// EXTERNAL",
          "_digits": "number of decimals passed by oracle",
          "_oracle": "address of the chainlink pricefeed oracle contract"
        },
        "returns": {
          "_0": "bool success"
        }
      },
      "symbol()": {
        "details": "Returns the symbol of the token, usually a shorter version of the name."
      },
      "toggleBurn()": {
        "details": "toggle the burnable functionality on the contract",
        "returns": {
          "_0": "burnable state of contract"
        }
      },
      "togglePause()": {
        "details": "toggle the pausable functionality on the contract",
        "returns": {
          "_0": "pausable state of contract"
        }
      },
      "toggleState()": {
        "details": "if contract pauses the state get checked and toggled via condition to opposite state",
        "returns": {
          "_0": "active state of contract (true = paused / false = active)"
        }
      },
      "totalSupply()": {
        "details": "See {IERC20-totalSupply}."
      },
      "transfer(address,uint256)": {
        "details": "See {IERC20-transfer}. Requirements: - `recipient` cannot be the zero address. - the caller must have a balance of at least `amount`."
      },
      "transferFrom(address,address,uint256)": {
        "details": "See {IERC20-transferFrom}. Emits an {Approval} event indicating the updated allowance. This is not required by the EIP. See the note at the beginning of {ERC20}. Requirements: - `sender` and `recipient` cannot be the zero address. - `sender` must have a balance of at least `amount`. - the caller must have allowance for ``sender``'s tokens of at least `amount`."
      },
      "transferOwnership(address)": {
        "details": "Transfers ownership of the contract to a new account (`newOwner`). Can only be called by the current owner."
      },
      "xPriceOfUSD(uint256)": {
        "details": "Returns price for input amount in chosen currency",
        "params": {
          "_amt": "uint256 amount of usd"
        },
        "returns": {
          "_0": "Result of division"
        }
      },
      "yPriceOfUSD(uint256)": {
        "details": "Returns price for input amount in chosen currency",
        "params": {
          "_amt": "uint256 amount of usd"
        },
        "returns": {
          "_0": "Result of division"
        }
      }
    },
    "version": 1
  },
  "userdoc": {
    "kind": "user",
    "methods": {},
    "version": 1
  }
}