{
  "contractName": "iii6CoinFactory",
  "abi": [
    {
      "inputs": [],
      "stateMutability": "nonpayable",
      "type": "constructor"
    },
    {
      "inputs": [],
      "name": "COIN_USD",
      "outputs": [
        {
          "internalType": "uint256",
          "name": "",
          "type": "uint256"
        }
      ],
      "stateMutability": "view",
      "type": "function"
    },
    {
      "inputs": [],
      "name": "ETH_USD",
      "outputs": [
        {
          "internalType": "uint256",
          "name": "",
          "type": "uint256"
        }
      ],
      "stateMutability": "view",
      "type": "function"
    },
    {
      "inputs": [],
      "name": "X_USD",
      "outputs": [
        {
          "internalType": "uint256",
          "name": "",
          "type": "uint256"
        }
      ],
      "stateMutability": "view",
      "type": "function"
    },
    {
      "inputs": [],
      "name": "Y_USD",
      "outputs": [
        {
          "internalType": "uint256",
          "name": "",
          "type": "uint256"
        }
      ],
      "stateMutability": "view",
      "type": "function"
    },
    {
      "inputs": [
        {
          "internalType": "uint256",
          "name": "_amt",
          "type": "uint256"
        }
      ],
      "name": "coinPriceOfEth",
      "outputs": [
        {
          "internalType": "uint256",
          "name": "",
          "type": "uint256"
        }
      ],
      "stateMutability": "view",
      "type": "function"
    },
    {
      "inputs": [
        {
          "internalType": "uint256",
          "name": "_amt",
          "type": "uint256"
        }
      ],
      "name": "coinPriceOfUSD",
      "outputs": [
        {
          "internalType": "uint256",
          "name": "",
          "type": "uint256"
        }
      ],
      "stateMutability": "view",
      "type": "function"
    },
    {
      "inputs": [
        {
          "internalType": "uint256",
          "name": "_amt",
          "type": "uint256"
        }
      ],
      "name": "coinPriceOfX",
      "outputs": [
        {
          "internalType": "uint256",
          "name": "",
          "type": "uint256"
        }
      ],
      "stateMutability": "view",
      "type": "function"
    },
    {
      "inputs": [
        {
          "internalType": "uint256",
          "name": "_amt",
          "type": "uint256"
        }
      ],
      "name": "coinPriceOfY",
      "outputs": [
        {
          "internalType": "uint256",
          "name": "",
          "type": "uint256"
        }
      ],
      "stateMutability": "view",
      "type": "function"
    },
    {
      "inputs": [
        {
          "internalType": "uint256",
          "name": "_amt",
          "type": "uint256"
        }
      ],
      "name": "ethPriceOfUSD",
      "outputs": [
        {
          "internalType": "uint256",
          "name": "",
          "type": "uint256"
        }
      ],
      "stateMutability": "view",
      "type": "function"
    },
    {
      "inputs": [],
      "name": "getCoinPriceInEth",
      "outputs": [
        {
          "internalType": "uint256",
          "name": "coinPriceEth",
          "type": "uint256"
        }
      ],
      "stateMutability": "view",
      "type": "function"
    },
    {
      "inputs": [],
      "name": "getCoinPriceInX",
      "outputs": [
        {
          "internalType": "uint256",
          "name": "coinPriceX",
          "type": "uint256"
        }
      ],
      "stateMutability": "view",
      "type": "function"
    },
    {
      "inputs": [],
      "name": "getCoinPriceInY",
      "outputs": [
        {
          "internalType": "uint256",
          "name": "coinPriceY",
          "type": "uint256"
        }
      ],
      "stateMutability": "view",
      "type": "function"
    },
    {
      "inputs": [],
      "name": "getEthPriceInCoin",
      "outputs": [
        {
          "internalType": "uint256",
          "name": "ethPriceCoin",
          "type": "uint256"
        }
      ],
      "stateMutability": "view",
      "type": "function"
    },
    {
      "inputs": [],
      "name": "getEthPriceInX",
      "outputs": [
        {
          "internalType": "uint256",
          "name": "ethPriceX",
          "type": "uint256"
        }
      ],
      "stateMutability": "view",
      "type": "function"
    },
    {
      "inputs": [],
      "name": "getEthPriceInY",
      "outputs": [
        {
          "internalType": "uint256",
          "name": "ethPriceY",
          "type": "uint256"
        }
      ],
      "stateMutability": "view",
      "type": "function"
    },
    {
      "inputs": [],
      "name": "getXPriceInCoin",
      "outputs": [
        {
          "internalType": "uint256",
          "name": "xPriceCoin",
          "type": "uint256"
        }
      ],
      "stateMutability": "view",
      "type": "function"
    },
    {
      "inputs": [],
      "name": "getXPriceInEth",
      "outputs": [
        {
          "internalType": "uint256",
          "name": "xPriceEth",
          "type": "uint256"
        }
      ],
      "stateMutability": "view",
      "type": "function"
    },
    {
      "inputs": [],
      "name": "getXPriceInY",
      "outputs": [
        {
          "internalType": "uint256",
          "name": "xPriceY",
          "type": "uint256"
        }
      ],
      "stateMutability": "view",
      "type": "function"
    },
    {
      "inputs": [],
      "name": "getYPriceInCoin",
      "outputs": [
        {
          "internalType": "uint256",
          "name": "yPriceCoin",
          "type": "uint256"
        }
      ],
      "stateMutability": "view",
      "type": "function"
    },
    {
      "inputs": [],
      "name": "getYPriceInEth",
      "outputs": [
        {
          "internalType": "uint256",
          "name": "yPriceEth",
          "type": "uint256"
        }
      ],
      "stateMutability": "view",
      "type": "function"
    },
    {
      "inputs": [],
      "name": "getYPriceInX",
      "outputs": [
        {
          "internalType": "uint256",
          "name": "yPriceX",
          "type": "uint256"
        }
      ],
      "stateMutability": "view",
      "type": "function"
    },
    {
      "inputs": [
        {
          "internalType": "address",
          "name": "",
          "type": "address"
        }
      ],
      "name": "mp",
      "outputs": [
        {
          "internalType": "uint256",
          "name": "",
          "type": "uint256"
        }
      ],
      "stateMutability": "view",
      "type": "function"
    },
    {
      "inputs": [
        {
          "internalType": "address",
          "name": "",
          "type": "address"
        },
        {
          "internalType": "uint256",
          "name": "",
          "type": "uint256"
        }
      ],
      "name": "myProjects",
      "outputs": [
        {
          "internalType": "address",
          "name": "",
          "type": "address"
        }
      ],
      "stateMutability": "view",
      "type": "function"
    },
    {
      "inputs": [],
      "name": "p",
      "outputs": [
        {
          "internalType": "uint256",
          "name": "",
          "type": "uint256"
        }
      ],
      "stateMutability": "view",
      "type": "function"
    },
    {
      "inputs": [
        {
          "internalType": "uint256",
          "name": "",
          "type": "uint256"
        }
      ],
      "name": "projects",
      "outputs": [
        {
          "internalType": "address",
          "name": "",
          "type": "address"
        }
      ],
      "stateMutability": "view",
      "type": "function"
    },
    {
      "inputs": [
        {
          "internalType": "address",
          "name": "_oracle",
          "type": "address"
        },
        {
          "internalType": "uint256",
          "name": "_digits",
          "type": "uint256"
        }
      ],
      "name": "setX",
      "outputs": [
        {
          "internalType": "bool",
          "name": "",
          "type": "bool"
        }
      ],
      "stateMutability": "nonpayable",
      "type": "function"
    },
    {
      "inputs": [
        {
          "internalType": "address",
          "name": "_oracle",
          "type": "address"
        },
        {
          "internalType": "uint256",
          "name": "_digits",
          "type": "uint256"
        }
      ],
      "name": "setY",
      "outputs": [
        {
          "internalType": "bool",
          "name": "",
          "type": "bool"
        }
      ],
      "stateMutability": "nonpayable",
      "type": "function"
    },
    {
      "inputs": [
        {
          "internalType": "uint256",
          "name": "_amt",
          "type": "uint256"
        }
      ],
      "name": "xPriceOfUSD",
      "outputs": [
        {
          "internalType": "uint256",
          "name": "",
          "type": "uint256"
        }
      ],
      "stateMutability": "view",
      "type": "function"
    },
    {
      "inputs": [
        {
          "internalType": "uint256",
          "name": "_amt",
          "type": "uint256"
        }
      ],
      "name": "yPriceOfUSD",
      "outputs": [
        {
          "internalType": "uint256",
          "name": "",
          "type": "uint256"
        }
      ],
      "stateMutability": "view",
      "type": "function"
    },
    {
      "inputs": [
        {
          "internalType": "string",
          "name": "_name",
          "type": "string"
        },
        {
          "internalType": "string",
          "name": "_sym",
          "type": "string"
        },
        {
          "internalType": "uint256",
          "name": "_rate",
          "type": "uint256"
        },
        {
          "internalType": "uint256",
          "name": "_supply",
          "type": "uint256"
        },
        {
          "internalType": "bool",
          "name": "_burn",
          "type": "bool"
        },
        {
          "internalType": "bool",
          "name": "_pause",
          "type": "bool"
        },
        {
          "internalType": "uint256",
          "name": "_curr",
          "type": "uint256"
        }
      ],
      "name": "buildERC20Token",
      "outputs": [
        {
          "internalType": "address",
          "name": "",
          "type": "address"
        }
      ],
      "stateMutability": "payable",
      "type": "function"
    }
  ],
  "bytecode": "0x608060405234801561001057600080fd5b50600146036100725773e47da91495c75e1d48569f343938380d8303b1f26000806101000a81548173ffffffffffffffffffffffffffffffffffffffff021916908373ffffffffffffffffffffffffffffffffffffffff160217905550610196565b600546036100d35773e47da91495c75e1d48569f343938380d8303b1f26000806101000a81548173ffffffffffffffffffffffffffffffffffffffff021916908373ffffffffffffffffffffffffffffffffffffffff160217905550610195565b608946036101345773e47da91495c75e1d48569f343938380d8303b1f26000806101000a81548173ffffffffffffffffffffffffffffffffffffffff021916908373ffffffffffffffffffffffffffffffffffffffff160217905550610194565b6201388146036101935773e47da91495c75e1d48569f343938380d8303b1f26000806101000a81548173ffffffffffffffffffffffffffffffffffffffff021916908373ffffffffffffffffffffffffffffffffffffffff1602179055505b5b5b5b652d79883d20006003819055506178d880620001b36000396000f3fe608060405260043610620001fa5760003560e01c80637d670117116200010f578063bec9908e11620000a3578063e12ef5ed116200006d578063e12ef5ed14620007ad578063e2ab781314620007dd578063e9f38fc51462000821578063f42fff01146200086557620001fa565b8063bec9908e14620006d9578063d1381f4e1462000709578063d21b8720146200074d578063e04777af146200077d57620001fa565b80638dff74a711620000e55780638dff74a7146200061357806396af428a14620006435780639ae8886a1462000673578063a384ddbd14620006a357620001fa565b80637d670117146200055b57806387434dcd146200058b5780638d4a8ffe14620005cf57620001fa565b80634459194611620001935780636260f55b116200015d5780636260f55b14620004875780636a443b5914620004b757806379d79fcc14620004e75780637afcc7a4146200051757620001fa565b806344591946146200039f57806348cf734d14620003cf5780634a2ad99f14620003ff57806352da887a146200044357620001fa565b8063106581aa11620001d5578063106581aa14620002b7578063107046bd14620002fb578063287ead9e146200033f57806329d7a0bd146200036f57620001fa565b8063033a7a0214620001ff578063054dca2a14620002435780630b4185ea1462000273575b600080fd5b3480156200020c57600080fd5b506200022b600480360381019062000225919062001478565b62000895565b6040516200023a9190620014bb565b60405180910390f35b3480156200025057600080fd5b506200025b620008e6565b6040516200026a9190620014bb565b60405180910390f35b3480156200028057600080fd5b506200029f600480360381019062000299919062001478565b6200092b565b604051620002ae9190620014bb565b60405180910390f35b348015620002c457600080fd5b50620002e36004803603810190620002dd91906200153d565b6200097c565b604051620002f29190620014bb565b60405180910390f35b3480156200030857600080fd5b5062000327600480360381019062000321919062001478565b62000994565b60405162000336919062001580565b60405180910390f35b3480156200034c57600080fd5b5062000357620009c7565b604051620003669190620014bb565b60405180910390f35b3480156200037c57600080fd5b506200038762000a0c565b604051620003969190620014bb565b60405180910390f35b348015620003ac57600080fd5b50620003b762000a51565b604051620003c69190620014bb565b60405180910390f35b348015620003dc57600080fd5b50620003e762000a62565b604051620003f69190620014bb565b60405180910390f35b3480156200040c57600080fd5b506200042b60048036038101906200042591906200159d565b62000aa7565b6040516200043a919062001601565b60405180910390f35b3480156200045057600080fd5b506200046f60048036038101906200046991906200159d565b62000b55565b6040516200047e919062001580565b60405180910390f35b3480156200049457600080fd5b506200049f62000b97565b604051620004ae9190620014bb565b60405180910390f35b348015620004c457600080fd5b50620004cf62000ba8565b604051620004de9190620014bb565b60405180910390f35b348015620004f457600080fd5b50620004ff62000bb9565b6040516200050e9190620014bb565b60405180910390f35b3480156200052457600080fd5b506200054360048036038101906200053d919062001478565b62000bca565b604051620005529190620014bb565b60405180910390f35b3480156200056857600080fd5b506200057362000c1c565b604051620005829190620014bb565b60405180910390f35b3480156200059857600080fd5b50620005b76004803603810190620005b1919062001478565b62000c2d565b604051620005c69190620014bb565b60405180910390f35b348015620005dc57600080fd5b50620005fb6004803603810190620005f5919062001478565b62000c7f565b6040516200060a9190620014bb565b60405180910390f35b3480156200062057600080fd5b506200062b62000cd1565b6040516200063a9190620014bb565b60405180910390f35b3480156200065057600080fd5b506200065b62000d16565b6040516200066a9190620014bb565b60405180910390f35b3480156200068057600080fd5b506200068b62000d27565b6040516200069a9190620014bb565b60405180910390f35b620006c16004803603810190620006bb9190620016bd565b62000d2d565b604051620006d0919062001580565b60405180910390f35b348015620006e657600080fd5b50620006f162000dd7565b604051620007009190620014bb565b60405180910390f35b3480156200071657600080fd5b506200073560048036038101906200072f919062001478565b62000e1c565b604051620007449190620014bb565b60405180910390f35b3480156200075a57600080fd5b506200076562000e6e565b604051620007749190620014bb565b60405180910390f35b3480156200078a57600080fd5b506200079562000eb3565b604051620007a49190620014bb565b60405180910390f35b348015620007ba57600080fd5b50620007c562000ec4565b604051620007d49190620014bb565b60405180910390f35b348015620007ea57600080fd5b5062000809600480360381019062000803919062001478565b62000f09565b604051620008189190620014bb565b60405180910390f35b3480156200082e57600080fd5b506200084d60048036038101906200084791906200159d565b62000f5b565b6040516200085c919062001601565b60405180910390f35b3480156200087257600080fd5b506200087d62001009565b6040516200088c9190620014bb565b60405180910390f35b6000806509184e72a00083620008ac9190620017e5565b90506000620008ba6200104e565b9050620008dd670de0b6b3a764000083620008d69190620017e5565b82620010ec565b92505050919050565b600080620008f362001123565b90506000620009016200104e565b905062000924670de0b6b3a7640000836200091d9190620017e5565b82620010ec565b9250505090565b6000806509184e72a00083620009429190620017e5565b905060006200095062001123565b905062000973670de0b6b3a7640000836200096c9190620017e5565b82620010ec565b92505050919050565b60066020528060005260406000206000915090505481565b60056020528060005260406000206000915054906101000a900473ffffffffffffffffffffffffffffffffffffffff1681565b600080620009d46200104e565b90506000620009e2620011c1565b905062000a05670de0b6b3a764000083620009fe9190620017e5565b82620010ec565b9250505090565b60008062000a1962001123565b9050600062000a276200125f565b905062000a4a670de0b6b3a76400008362000a439190620017e5565b82620010ec565b9250505090565b600062000a5d6200104e565b905090565b60008062000a6f62001123565b9050600062000a7d620011c1565b905062000aa0670de0b6b3a76400008362000a999190620017e5565b82620010ec565b9250505090565b60008060009054906101000a900473ffffffffffffffffffffffffffffffffffffffff1673ffffffffffffffffffffffffffffffffffffffff16634a2ad99f84846040518363ffffffff1660e01b815260040162000b0792919062001830565b6020604051808303816000875af115801562000b27573d6000803e3d6000fd5b505050506040513d601f19601f8201168201806040525081019062000b4d919062001874565b905092915050565b60076020528160005260406000206020528060005260406000206000915091509054906101000a900473ffffffffffffffffffffffffffffffffffffffff1681565b600062000ba362001123565b905090565b600062000bb4620012fd565b905090565b600062000bc562001342565b905090565b600080662386f26fc100008362000be29190620017e5565b9050600062000bf062001342565b905062000c13670de0b6b3a76400008362000c0c9190620017e5565b82620010ec565b92505050919050565b600062000c2862001387565b905090565b600080662386f26fc100008362000c459190620017e5565b9050600062000c53620012fd565b905062000c76670de0b6b3a76400008362000c6f9190620017e5565b82620010ec565b92505050919050565b600080662386f26fc100008362000c979190620017e5565b9050600062000ca562001387565b905062000cc8670de0b6b3a76400008362000cc19190620017e5565b82620010ec565b92505050919050565b60008062000cde6200125f565b9050600062000cec620011c1565b905062000d0f670de0b6b3a76400008262000d089190620017e5565b83620010ec565b9250505090565b600062000d22620011c1565b905090565b60045481565b600062000dc88a8a8080601f016020809104026020016040519081016040528093929190818152602001838380828437600081840152601f19601f8201169050808301925050505050505089898080601f016020809104026020016040519081016040528093929190818152602001838380828437600081840152601f19601f820116905080830192505050505050508888888888620013cc565b90509998505050505050505050565b60008062000de462001123565b9050600062000df2620011c1565b905062000e15670de0b6b3a76400008262000e0e9190620017e5565b83620010ec565b9250505090565b600080662386f26fc100008362000e349190620017e5565b9050600062000e426200125f565b905062000e65670de0b6b3a76400008362000e5e9190620017e5565b82620010ec565b92505050919050565b60008062000e7b6200125f565b9050600062000e896200104e565b905062000eac670de0b6b3a76400008262000ea59190620017e5565b83620010ec565b9250505090565b600062000ebf6200125f565b905090565b60008062000ed16200104e565b9050600062000edf620011c1565b905062000f02670de0b6b3a76400008262000efb9190620017e5565b83620010ec565b9250505090565b600080662386f26fc100008362000f219190620017e5565b9050600062000f2f620011c1565b905062000f52670de0b6b3a76400008362000f4b9190620017e5565b82620010ec565b92505050919050565b60008060009054906101000a900473ffffffffffffffffffffffffffffffffffffffff1673ffffffffffffffffffffffffffffffffffffffff1663e9f38fc584846040518363ffffffff1660e01b815260040162000fbb92919062001830565b6020604051808303816000875af115801562000fdb573d6000803e3d6000fd5b505050506040513d601f19601f8201168201806040525081019062001001919062001874565b905092915050565b6000806200101662001123565b90506000620010246200104e565b905062001047670de0b6b3a764000082620010409190620017e5565b83620010ec565b9250505090565b60008060008054906101000a900473ffffffffffffffffffffffffffffffffffffffff1673ffffffffffffffffffffffffffffffffffffffff166396722fe56040518163ffffffff1660e01b8152600401602060405180830381865afa158015620010bd573d6000803e3d6000fd5b505050506040513d601f19601f82011682018060405250810190620010e39190620018e1565b90508091505090565b6000808284620010fd919062001942565b90508281856200110e91906200197a565b6200111a9190620019b5565b91505092915050565b60008060008054906101000a900473ffffffffffffffffffffffffffffffffffffffff1673ffffffffffffffffffffffffffffffffffffffff16639a18c7956040518163ffffffff1660e01b8152600401602060405180830381865afa15801562001192573d6000803e3d6000fd5b505050506040513d601f19601f82011682018060405250810190620011b89190620018e1565b90508091505090565b60008060008054906101000a900473ffffffffffffffffffffffffffffffffffffffff1673ffffffffffffffffffffffffffffffffffffffff1663414641df6040518163ffffffff1660e01b8152600401602060405180830381865afa15801562001230573d6000803e3d6000fd5b505050506040513d601f19601f82011682018060405250810190620012569190620018e1565b90508091505090565b60008060008054906101000a900473ffffffffffffffffffffffffffffffffffffffff1673ffffffffffffffffffffffffffffffffffffffff1663f2e9bd7a6040518163ffffffff1660e01b8152600401602060405180830381865afa158015620012ce573d6000803e3d6000fd5b505050506040513d601f19601f82011682018060405250810190620012f49190620018e1565b90508091505090565b6000806200130a6200125f565b90506000620013186200104e565b90506200133b670de0b6b3a764000083620013349190620017e5565b82620010ec565b9250505090565b6000806200134f6200125f565b905060006200135d620011c1565b905062001380670de0b6b3a764000083620013799190620017e5565b82620010ec565b9250505090565b600080620013946200125f565b90506000620013a262001123565b9050620013c5670de0b6b3a764000083620013be9190620017e5565b82620010ec565b9250505090565b60008088888888888888604051620013e49062001425565b620013f6979695949392919062001a87565b604051809103906000f08015801562001413573d6000803e3d6000fd5b50905080915050979650505050505050565b615d908062001b1383390190565b600080fd5b600080fd5b6000819050919050565b62001452816200143d565b81146200145e57600080fd5b50565b600081359050620014728162001447565b92915050565b60006020828403121562001491576200149062001433565b5b6000620014a18482850162001461565b91505092915050565b620014b5816200143d565b82525050565b6000602082019050620014d26000830184620014aa565b92915050565b600073ffffffffffffffffffffffffffffffffffffffff82169050919050565b60006200150582620014d8565b9050919050565b6200151781620014f8565b81146200152357600080fd5b50565b60008135905062001537816200150c565b92915050565b60006020828403121562001556576200155562001433565b5b6000620015668482850162001526565b91505092915050565b6200157a81620014f8565b82525050565b60006020820190506200159760008301846200156f565b92915050565b60008060408385031215620015b757620015b662001433565b5b6000620015c78582860162001526565b9250506020620015da8582860162001461565b9150509250929050565b60008115159050919050565b620015fb81620015e4565b82525050565b6000602082019050620016186000830184620015f0565b92915050565b600080fd5b600080fd5b600080fd5b60008083601f8401126200164657620016456200161e565b5b8235905067ffffffffffffffff81111562001666576200166562001623565b5b60208301915083600182028301111562001685576200168462001628565b5b9250929050565b6200169781620015e4565b8114620016a357600080fd5b50565b600081359050620016b7816200168c565b92915050565b600080600080600080600080600060e08a8c031215620016e257620016e162001433565b5b60008a013567ffffffffffffffff81111562001703576200170262001438565b5b620017118c828d016200162d565b995099505060208a013567ffffffffffffffff81111562001737576200173662001438565b5b620017458c828d016200162d565b975097505060406200175a8c828d0162001461565b95505060606200176d8c828d0162001461565b9450506080620017808c828d01620016a6565b93505060a0620017938c828d01620016a6565b92505060c0620017a68c828d0162001461565b9150509295985092959850929598565b7f4e487b7100000000000000000000000000000000000000000000000000000000600052601160045260246000fd5b6000620017f2826200143d565b9150620017ff836200143d565b92508282026200180f816200143d565b91508282048414831517620018295762001828620017b6565b5b5092915050565b60006040820190506200184760008301856200156f565b620018566020830184620014aa565b9392505050565b6000815190506200186e816200168c565b92915050565b6000602082840312156200188d576200188c62001433565b5b60006200189d848285016200185d565b91505092915050565b6000819050919050565b620018bb81620018a6565b8114620018c757600080fd5b50565b600081519050620018db81620018b0565b92915050565b600060208284031215620018fa57620018f962001433565b5b60006200190a84828501620018ca565b91505092915050565b7f4e487b7100000000000000000000000000000000000000000000000000000000600052601260045260246000fd5b60006200194f826200143d565b91506200195c836200143d565b9250826200196f576200196e62001913565b5b828206905092915050565b600062001987826200143d565b915062001994836200143d565b9250828203905081811115620019af57620019ae620017b6565b5b92915050565b6000620019c2826200143d565b9150620019cf836200143d565b925082620019e257620019e162001913565b5b828204905092915050565b600081519050919050565b600082825260208201905092915050565b60005b8381101562001a2957808201518184015260208101905062001a0c565b60008484015250505050565b6000601f19601f8301169050919050565b600062001a5382620019ed565b62001a5f8185620019f8565b935062001a7181856020860162001a09565b62001a7c8162001a35565b840191505092915050565b600060e082019050818103600083015262001aa3818a62001a46565b9050818103602083015262001ab9818962001a46565b905062001aca6040830188620014aa565b62001ad96060830187620014aa565b62001ae86080830186620015f0565b62001af760a0830185620015f0565b62001b0660c0830184620014aa565b9897505050505050505056fe60806040523480156200001157600080fd5b5060405162005d9038038062005d90833981810160405281019062000037919062001041565b868681600390816200004a919062001373565b5080600490816200005c919062001373565b5050506000600560006101000a81548160ff0219169083151502179055506200009a6200008e6200038560201b60201c565b6200038d60201b60201c565b60014603620000fe5773e47da91495c75e1d48569f343938380d8303b1f2600660006101000a81548173ffffffffffffffffffffffffffffffffffffffff021916908373ffffffffffffffffffffffffffffffffffffffff1602179055506200022a565b60054603620001625773e47da91495c75e1d48569f343938380d8303b1f2600660006101000a81548173ffffffffffffffffffffffffffffffffffffffff021916908373ffffffffffffffffffffffffffffffffffffffff16021790555062000229565b60894603620001c65773e47da91495c75e1d48569f343938380d8303b1f2600660006101000a81548173ffffffffffffffffffffffffffffffffffffffff021916908373ffffffffffffffffffffffffffffffffffffffff16021790555062000228565b620138814603620002275773e47da91495c75e1d48569f343938380d8303b1f2600660006101000a81548173ffffffffffffffffffffffffffffffffffffffff021916908373ffffffffffffffffffffffffffffffffffffffff1602179055505b5b5b5b6200023b856200045360201b60201c565b508360098190555086600c908162000254919062001373565b5082600b60006101000a81548160ff02191690831515021790555081600b60016101000a81548160ff0219169083151502179055506200029a8162000cf860201b60201c565b600d60006101000a81548160ff02191690836004811115620002c157620002c06200145a565b5b02179055506040518060600160405280600a548152602001868152602001600d60009054906101000a900460ff1660048111156200030457620003036200145a565b5b815250600e600a548154811062000320576200031f62001489565b5b9060005260206000209060030201600082015181600001556020820151816001015560408201518160020160006101000a81548160ff0219169083600481111562000370576200036f6200145a565b5b02179055509050505050505050505062001594565b600033905090565b6000600560019054906101000a900473ffffffffffffffffffffffffffffffffffffffff16905081600560016101000a81548173ffffffffffffffffffffffffffffffffffffffff021916908373ffffffffffffffffffffffffffffffffffffffff1602179055508173ffffffffffffffffffffffffffffffffffffffff168173ffffffffffffffffffffffffffffffffffffffff167f8be0079c531659141344cd1fd0a4f28419497f9722a3daafe3b4186f6b6457e060405160405180910390a35050565b600080600060048111156200046d576200046c6200145a565b5b600d60009054906101000a900460ff1660048111156200049257620004916200145a565b5b03620006335760008173ffffffffffffffffffffffffffffffffffffffff16638d4a8ffe856040518263ffffffff1660e01b8152600401620004d59190620014c9565b602060405180830381865afa158015620004f3573d6000803e3d6000fd5b505050506040513d601f19601f82011682018060405250810190620005199190620014e6565b9050600081101562000557576040517fc1a21f4e00000000000000000000000000000000000000000000000000000000815260040160405180910390fd5b6040518060600160405280600a548152602001828152602001600d60009054906101000a900460ff1660048111156200059557620005946200145a565b5b815250600e600a5481548110620005b157620005b062001489565b5b9060005260206000209060030201600082015181600001556020820151816001015560408201518160020160006101000a81548160ff021916908360048111156200060157620006006200145a565b5b0217905550905050600a60008154809291906200061e9062001547565b91905055508060078190559250505062000cf3565b600160048111156200064a57620006496200145a565b5b600d60009054906101000a900460ff1660048111156200066f576200066e6200145a565b5b03620007925760008390506000811015620006b6576040517fc1a21f4e00000000000000000000000000000000000000000000000000000000815260040160405180910390fd5b6040518060600160405280600a548152602001828152602001600d60009054906101000a900460ff166004811115620006f457620006f36200145a565b5b815250600e600a548154811062000710576200070f62001489565b5b9060005260206000209060030201600082015181600001556020820151816001015560408201518160020160006101000a81548160ff0219169083600481111562000760576200075f6200145a565b5b0217905550905050600a60008154809291906200077d9062001547565b91905055508060078190559250505062000cf3565b60026004811115620007a957620007a86200145a565b5b600d60009054906101000a900460ff166004811115620007ce57620007cd6200145a565b5b036200096f5760008173ffffffffffffffffffffffffffffffffffffffff16637afcc7a4856040518263ffffffff1660e01b8152600401620008119190620014c9565b602060405180830381865afa1580156200082f573d6000803e3d6000fd5b505050506040513d601f19601f82011682018060405250810190620008559190620014e6565b9050600081101562000893576040517fc1a21f4e00000000000000000000000000000000000000000000000000000000815260040160405180910390fd5b6040518060600160405280600a548152602001828152602001600d60009054906101000a900460ff166004811115620008d157620008d06200145a565b5b815250600e600a5481548110620008ed57620008ec62001489565b5b9060005260206000209060030201600082015181600001556020820151816001015560408201518160020160006101000a81548160ff021916908360048111156200093d576200093c6200145a565b5b0217905550905050600a60008154809291906200095a9062001547565b91905055508060078190559250505062000cf3565b600360048111156200098657620009856200145a565b5b600d60009054906101000a900460ff166004811115620009ab57620009aa6200145a565b5b0362000b4c5760008173ffffffffffffffffffffffffffffffffffffffff166387434dcd856040518263ffffffff1660e01b8152600401620009ee9190620014c9565b602060405180830381865afa15801562000a0c573d6000803e3d6000fd5b505050506040513d601f19601f8201168201806040525081019062000a329190620014e6565b9050600081101562000a70576040517fc1a21f4e00000000000000000000000000000000000000000000000000000000815260040160405180910390fd5b6040518060600160405280600a548152602001828152602001600d60009054906101000a900460ff16600481111562000aae5762000aad6200145a565b5b815250600e600a548154811062000aca5762000ac962001489565b5b9060005260206000209060030201600082015181600001556020820151816001015560408201518160020160006101000a81548160ff0219169083600481111562000b1a5762000b196200145a565b5b0217905550905050600a600081548092919062000b379062001547565b91905055508060078190559250505062000cf3565b60048081111562000b625762000b616200145a565b5b600d60009054906101000a900460ff16600481111562000b875762000b866200145a565b5b0362000cec5760008173ffffffffffffffffffffffffffffffffffffffff1663d1381f4e856040518263ffffffff1660e01b815260040162000bca9190620014c9565b602060405180830381865afa15801562000be8573d6000803e3d6000fd5b505050506040513d601f19601f8201168201806040525081019062000c0e9190620014e6565b90506040518060600160405280600a548152602001828152602001600d60009054906101000a900460ff16600481111562000c4e5762000c4d6200145a565b5b815250600e600a548154811062000c6a5762000c6962001489565b5b9060005260206000209060030201600082015181600001556020820151816001015560408201518160020160006101000a81548160ff0219169083600481111562000cba5762000cb96200145a565b5b0217905550905050600a600081548092919062000cd79062001547565b91905055508060078190559250505062000cf3565b6007549150505b919050565b600080820362000d36576000600d60006101000a81548160ff0219169083600481111562000d2b5762000d2a6200145a565b5b021790555062000e1f565b6001820362000d73576001600d60006101000a81548160ff0219169083600481111562000d685762000d676200145a565b5b021790555062000e1e565b6002820362000db0576002600d60006101000a81548160ff0219169083600481111562000da55762000da46200145a565b5b021790555062000e1d565b6003820362000ded576003600d60006101000a81548160ff0219169083600481111562000de25762000de16200145a565b5b021790555062000e1c565b6004600d60006101000a81548160ff0219169083600481111562000e165762000e156200145a565b5b02179055505b5b5b5b600d60009054906101000a900460ff169050919050565b6000604051905090565b600080fd5b600080fd5b600080fd5b600080fd5b6000601f19601f8301169050919050565b7f4e487b7100000000000000000000000000000000000000000000000000000000600052604160045260246000fd5b62000e9f8262000e54565b810181811067ffffffffffffffff8211171562000ec15762000ec062000e65565b5b80604052505050565b600062000ed662000e36565b905062000ee4828262000e94565b919050565b600067ffffffffffffffff82111562000f075762000f0662000e65565b5b62000f128262000e54565b9050602081019050919050565b60005b8381101562000f3f57808201518184015260208101905062000f22565b60008484015250505050565b600062000f6262000f5c8462000ee9565b62000eca565b90508281526020810184848401111562000f815762000f8062000e4f565b5b62000f8e84828562000f1f565b509392505050565b600082601f83011262000fae5762000fad62000e4a565b5b815162000fc084826020860162000f4b565b91505092915050565b6000819050919050565b62000fde8162000fc9565b811462000fea57600080fd5b50565b60008151905062000ffe8162000fd3565b92915050565b60008115159050919050565b6200101b8162001004565b81146200102757600080fd5b50565b6000815190506200103b8162001010565b92915050565b600080600080600080600060e0888a03121562001063576200106262000e40565b5b600088015167ffffffffffffffff81111562001084576200108362000e45565b5b620010928a828b0162000f96565b975050602088015167ffffffffffffffff811115620010b657620010b562000e45565b5b620010c48a828b0162000f96565b9650506040620010d78a828b0162000fed565b9550506060620010ea8a828b0162000fed565b9450506080620010fd8a828b016200102a565b93505060a0620011108a828b016200102a565b92505060c0620011238a828b0162000fed565b91505092959891949750929550565b600081519050919050565b7f4e487b7100000000000000000000000000000000000000000000000000000000600052602260045260246000fd5b600060028204905060018216806200118557607f821691505b6020821081036200119b576200119a6200113d565b5b50919050565b60008190508160005260206000209050919050565b60006020601f8301049050919050565b600082821b905092915050565b600060088302620012057fffffffffffffffffffffffffffffffffffffffffffffffffffffffffffffffff82620011c6565b620012118683620011c6565b95508019841693508086168417925050509392505050565b6000819050919050565b6000620012546200124e620012488462000fc9565b62001229565b62000fc9565b9050919050565b6000819050919050565b620012708362001233565b620012886200127f826200125b565b848454620011d3565b825550505050565b600090565b6200129f62001290565b620012ac81848462001265565b505050565b5b81811015620012d457620012c860008262001295565b600181019050620012b2565b5050565b601f8211156200132357620012ed81620011a1565b620012f884620011b6565b8101602085101562001308578190505b620013206200131785620011b6565b830182620012b1565b50505b505050565b600082821c905092915050565b6000620013486000198460080262001328565b1980831691505092915050565b600062001363838362001335565b9150826002028217905092915050565b6200137e8262001132565b67ffffffffffffffff8111156200139a576200139962000e65565b5b620013a682546200116c565b620013b3828285620012d8565b600060209050601f831160018114620013eb5760008415620013d6578287015190505b620013e2858262001355565b86555062001452565b601f198416620013fb86620011a1565b60005b828110156200142557848901518255600182019150602085019450602081019050620013fe565b8683101562001445578489015162001441601f89168262001335565b8355505b6001600288020188555050505b505050505050565b7f4e487b7100000000000000000000000000000000000000000000000000000000600052602160045260246000fd5b7f4e487b7100000000000000000000000000000000000000000000000000000000600052603260045260246000fd5b620014c38162000fc9565b82525050565b6000602082019050620014e06000830184620014b8565b92915050565b600060208284031215620014ff57620014fe62000e40565b5b60006200150f8482850162000fed565b91505092915050565b7f4e487b7100000000000000000000000000000000000000000000000000000000600052601160045260246000fd5b6000620015548262000fc9565b91507fffffffffffffffffffffffffffffffffffffffffffffffffffffffffffffffff820362001589576200158862001518565b5b600182019050919050565b6147ec80620015a46000396000f3fe60806040526004361061031e5760003560e01c8063715018a6116101ab578063a457c2d7116100f7578063dd62ed3e11610095578063e2ab78131161006f578063e2ab781314610c99578063e9f38fc514610cd6578063f2fde38b14610d13578063f42fff0114610d3c5761032d565b8063dd62ed3e14610c06578063e04777af14610c43578063e12ef5ed14610c6e5761032d565b8063c4ae3168116100d1578063c4ae316814610b48578063d1381f4e14610b73578063d21b872014610bb0578063d37e510414610bdb5761032d565b8063a457c2d714610aa3578063a9059cbb14610ae0578063bec9908e14610b1d5761032d565b8063836ceb9d116101645780638da5cb5b1161013e5780638da5cb5b146109f75780638dff74a714610a2257806395d89b4114610a4d57806396af428a14610a785761032d565b8063836ceb9d1461094057806387434dcd1461097d5780638d4a8ffe146109ba5761032d565b8063715018a614610842578063778a56ce1461085957806379cc67901461088457806379d79fcc146108ad5780637afcc7a4146108d85780637d670117146109155761032d565b806334fcf4371161026a5780634a2ad99f116102235780636260f55b116101fd5780636260f55b146107725780636a443b591461079d5780636f8b44b0146107c857806370a08231146108055761032d565b80634a2ad99f146106df5780634a79d50c1461071c5780635c975abb146107475761032d565b806334fcf437146105b65780633610724e146105f3578063395093511461062357806342966c6814610660578063445919461461068957806348cf734d146106b45761032d565b8063201a49d6116102d757806329d7a0bd116102b157806329d7a0bd1461050a5780632c4e722e14610535578063313ce5671461056057806332cb6b0c1461058b5761032d565b8063201a49d61461047757806323b872dd146104a2578063287ead9e146104df5761032d565b8063033a7a021461033f578063054dca2a1461037c57806306fdde03146103a7578063095ea7b3146103d25780630b4185ea1461040f57806318160ddd1461044c5761032d565b3661032d5761032b610d67565b005b610335610d67565b61033d610d86565b005b34801561034b57600080fd5b5061036660048036038101906103619190613836565b610e38565b6040516103739190613872565b60405180910390f35b34801561038857600080fd5b50610391610e81565b60405161039e9190613872565b60405180910390f35b3480156103b357600080fd5b506103bc610ebe565b6040516103c9919061391d565b60405180910390f35b3480156103de57600080fd5b506103f960048036038101906103f4919061399d565b610f50565b60405161040691906139f8565b60405180910390f35b34801561041b57600080fd5b5061043660048036038101906104319190613836565b610f6e565b6040516104439190613872565b60405180910390f35b34801561045857600080fd5b50610461610fb7565b60405161046e9190613872565b60405180910390f35b34801561048357600080fd5b5061048c610fc1565b6040516104999190613872565b60405180910390f35b3480156104ae57600080fd5b506104c960048036038101906104c49190613a13565b610fc7565b6040516104d691906139f8565b60405180910390f35b3480156104eb57600080fd5b506104f46110bf565b6040516105019190613872565b60405180910390f35b34801561051657600080fd5b5061051f6110fc565b60405161052c9190613872565b60405180910390f35b34801561054157600080fd5b5061054a611139565b6040516105579190613872565b60405180910390f35b34801561056c57600080fd5b5061057561113f565b6040516105829190613a82565b60405180910390f35b34801561059757600080fd5b506105a0611148565b6040516105ad9190613872565b60405180910390f35b3480156105c257600080fd5b506105dd60048036038101906105d89190613836565b61114e565b6040516105ea9190613872565b60405180910390f35b61060d60048036038101906106089190613836565b6111dc565b60405161061a9190613872565b60405180910390f35b34801561062f57600080fd5b5061064a6004803603810190610645919061399d565b6112be565b60405161065791906139f8565b60405180910390f35b34801561066c57600080fd5b5061068760048036038101906106829190613836565b61136a565b005b34801561069557600080fd5b5061069e6113c4565b6040516106ab9190613872565b60405180910390f35b3480156106c057600080fd5b506106c96113d3565b6040516106d69190613872565b60405180910390f35b3480156106eb57600080fd5b506107066004803603810190610701919061399d565b611410565b60405161071391906139f8565b60405180910390f35b34801561072857600080fd5b506107316114ba565b60405161073e919061391d565b60405180910390f35b34801561075357600080fd5b5061075c611548565b60405161076991906139f8565b60405180910390f35b34801561077e57600080fd5b5061078761155f565b6040516107949190613872565b60405180910390f35b3480156107a957600080fd5b506107b261156e565b6040516107bf9190613872565b60405180910390f35b3480156107d457600080fd5b506107ef60048036038101906107ea9190613836565b61157d565b6040516107fc9190613872565b60405180910390f35b34801561081157600080fd5b5061082c60048036038101906108279190613a9d565b611608565b6040516108399190613872565b60405180910390f35b34801561084e57600080fd5b50610857611650565b005b34801561086557600080fd5b5061086e6116d8565b60405161087b91906139f8565b60405180910390f35b34801561089057600080fd5b506108ab60048036038101906108a6919061399d565b611784565b005b3480156108b957600080fd5b506108c26117ff565b6040516108cf9190613872565b60405180910390f35b3480156108e457600080fd5b506108ff60048036038101906108fa9190613836565b61180e565b60405161090c9190613872565b60405180910390f35b34801561092157600080fd5b5061092a611858565b6040516109379190613872565b60405180910390f35b34801561094c57600080fd5b5061096760048036038101906109629190613836565b611867565b6040516109749190613b41565b60405180910390f35b34801561098957600080fd5b506109a4600480360381019061099f9190613836565b6118f5565b6040516109b19190613872565b60405180910390f35b3480156109c657600080fd5b506109e160048036038101906109dc9190613836565b61193f565b6040516109ee9190613872565b60405180910390f35b348015610a0357600080fd5b50610a0c611989565b604051610a199190613b6b565b60405180910390f35b348015610a2e57600080fd5b50610a376119b3565b604051610a449190613872565b60405180910390f35b348015610a5957600080fd5b50610a626119f0565b604051610a6f919061391d565b60405180910390f35b348015610a8457600080fd5b50610a8d611a82565b604051610a9a9190613872565b60405180910390f35b348015610aaf57600080fd5b50610aca6004803603810190610ac5919061399d565b611a91565b604051610ad791906139f8565b60405180910390f35b348015610aec57600080fd5b50610b076004803603810190610b02919061399d565b611b7c565b604051610b1491906139f8565b60405180910390f35b348015610b2957600080fd5b50610b32611b9a565b604051610b3f9190613872565b60405180910390f35b348015610b5457600080fd5b50610b5d611bd7565b604051610b6a91906139f8565b60405180910390f35b348015610b7f57600080fd5b50610b9a6004803603810190610b959190613836565b611c83565b604051610ba79190613872565b60405180910390f35b348015610bbc57600080fd5b50610bc5611ccd565b604051610bd29190613872565b60405180910390f35b348015610be757600080fd5b50610bf0611d0a565b604051610bfd91906139f8565b60405180910390f35b348015610c1257600080fd5b50610c2d6004803603810190610c289190613b86565b611e05565b604051610c3a9190613872565b60405180910390f35b348015610c4f57600080fd5b50610c58611e8c565b604051610c659190613872565b60405180910390f35b348015610c7a57600080fd5b50610c83611e9b565b604051610c909190613872565b60405180910390f35b348015610ca557600080fd5b50610cc06004803603810190610cbb9190613836565b611ed8565b604051610ccd9190613872565b60405180910390f35b348015610ce257600080fd5b50610cfd6004803603810190610cf8919061399d565b611f22565b604051610d0a91906139f8565b60405180910390f35b348015610d1f57600080fd5b50610d3a6004803603810190610d359190613a9d565b611fcc565b005b348015610d4857600080fd5b50610d516120c3565b604051610d5e9190613872565b60405180910390f35b600060075434610d779190613c24565b9050610d833382612100565b50565b60008060075482610d979190613c24565b9050600754811015610dd5576040517f99956c4600000000000000000000000000000000000000000000000000000000815260040160405180910390fd5b600081600854600954610de89190613c55565b610df29190613c55565b1015610e2a576040517f1e6f0b5400000000000000000000000000000000000000000000000000000000815260040160405180910390fd5b610e343382612100565b5050565b6000806509184e72a00083610e4d9190613c89565b90506000610e5961225f565b9050610e78670de0b6b3a764000083610e729190613c89565b826122fc565b92505050919050565b600080610e8c61232d565b90506000610e9861225f565b9050610eb7670de0b6b3a764000083610eb19190613c89565b826122fc565b9250505090565b606060038054610ecd90613cfa565b80601f0160208091040260200160405190810160405280929190818152602001828054610ef990613cfa565b8015610f465780601f10610f1b57610100808354040283529160200191610f46565b820191906000526020600020905b815481529060010190602001808311610f2957829003601f168201915b5050505050905090565b6000610f64610f5d6123ca565b84846123d2565b6001905092915050565b6000806509184e72a00083610f839190613c89565b90506000610f8f61232d565b9050610fae670de0b6b3a764000083610fa89190613c89565b826122fc565b92505050919050565b6000600254905090565b60085481565b6000610fd484848461259b565b6000600160008673ffffffffffffffffffffffffffffffffffffffff1673ffffffffffffffffffffffffffffffffffffffff168152602001908152602001600020600061101f6123ca565b73ffffffffffffffffffffffffffffffffffffffff1673ffffffffffffffffffffffffffffffffffffffff1681526020019081526020016000205490508281101561109f576040517f08c379a000000000000000000000000000000000000000000000000000000000815260040161109690613d9d565b60405180910390fd5b6110b3856110ab6123ca565b8584036123d2565b60019150509392505050565b6000806110ca61225f565b905060006110d661281a565b90506110f5670de0b6b3a7640000836110ef9190613c89565b826122fc565b9250505090565b60008061110761232d565b905060006111136128b7565b9050611132670de0b6b3a76400008361112c9190613c89565b826122fc565b9250505090565b60075481565b60006012905090565b60095481565b60006111586123ca565b73ffffffffffffffffffffffffffffffffffffffff16611176611989565b73ffffffffffffffffffffffffffffffffffffffff16146111cc576040517f08c379a00000000000000000000000000000000000000000000000000000000081526004016111c390613e09565b60405180910390fd5b6111d582612954565b9050919050565b6000600754826111ec9190613c89565b3411611224576040517f99956c4600000000000000000000000000000000000000000000000000000000815260040160405180910390fd5b6000670de0b6b3a76400008361123a9190613c89565b60085460095461124a9190613c55565b6112549190613c55565b101561128c576040517f1e6f0b5400000000000000000000000000000000000000000000000000000000815260040160405180910390fd5b6112a933670de0b6b3a7640000846112a49190613c89565b612100565b600754826112b79190613c89565b9050919050565b60006113606112cb6123ca565b8484600160006112d96123ca565b73ffffffffffffffffffffffffffffffffffffffff1673ffffffffffffffffffffffffffffffffffffffff16815260200190815260200160002060008873ffffffffffffffffffffffffffffffffffffffff1673ffffffffffffffffffffffffffffffffffffffff1681526020019081526020016000205461135b9190613e29565b6123d2565b6001905092915050565b60001515600b60009054906101000a900460ff161515036113b7576040517ffebe7e1900000000000000000000000000000000000000000000000000000000815260040160405180910390fd5b6113c13382613182565b50565b60006113ce61225f565b905090565b6000806113de61232d565b905060006113ea61281a565b9050611409670de0b6b3a7640000836114039190613c89565b826122fc565b9250505090565b6000600660009054906101000a900473ffffffffffffffffffffffffffffffffffffffff1673ffffffffffffffffffffffffffffffffffffffff16634a2ad99f84846040518363ffffffff1660e01b815260040161146f929190613e5d565b6020604051808303816000875af115801561148e573d6000803e3d6000fd5b505050506040513d601f19601f820116820180604052508101906114b29190613eb2565b905092915050565b600c80546114c790613cfa565b80601f01602080910402602001604051908101604052809291908181526020018280546114f390613cfa565b80156115405780601f1061151557610100808354040283529160200191611540565b820191906000526020600020905b81548152906001019060200180831161152357829003601f168201915b505050505081565b6000600560009054906101000a900460ff16905090565b600061156961232d565b905090565b6000611578613358565b905090565b60006115876123ca565b73ffffffffffffffffffffffffffffffffffffffff166115a5611989565b73ffffffffffffffffffffffffffffffffffffffff16146115fb576040517f08c379a00000000000000000000000000000000000000000000000000000000081526004016115f290613e09565b60405180910390fd5b8160098190559050919050565b60008060008373ffffffffffffffffffffffffffffffffffffffff1673ffffffffffffffffffffffffffffffffffffffff168152602001908152602001600020549050919050565b6116586123ca565b73ffffffffffffffffffffffffffffffffffffffff16611676611989565b73ffffffffffffffffffffffffffffffffffffffff16146116cc576040517f08c379a00000000000000000000000000000000000000000000000000000000081526004016116c390613e09565b60405180910390fd5b6116d66000613395565b565b60006116e26123ca565b73ffffffffffffffffffffffffffffffffffffffff16611700611989565b73ffffffffffffffffffffffffffffffffffffffff1614611756576040517f08c379a000000000000000000000000000000000000000000000000000000000815260040161174d90613e09565b60405180910390fd5b600b60009054906101000a900460ff1615600b60006101000a81548160ff0219169083151502179055905090565b6000611797836117926123ca565b611e05565b9050818110156117dc576040517f08c379a00000000000000000000000000000000000000000000000000000000081526004016117d390613f51565b60405180910390fd5b6117f0836117e86123ca565b8484036123d2565b6117fa8383613182565b505050565b600061180961345b565b905090565b600080662386f26fc10000836118249190613c89565b9050600061183061345b565b905061184f670de0b6b3a7640000836118499190613c89565b826122fc565b92505050919050565b6000611862613498565b905090565b60006118716123ca565b73ffffffffffffffffffffffffffffffffffffffff1661188f611989565b73ffffffffffffffffffffffffffffffffffffffff16146118e5576040517f08c379a00000000000000000000000000000000000000000000000000000000081526004016118dc90613e09565b60405180910390fd5b6118ee826134d5565b9050919050565b600080662386f26fc100008361190b9190613c89565b90506000611917613358565b9050611936670de0b6b3a7640000836119309190613c89565b826122fc565b92505050919050565b600080662386f26fc10000836119559190613c89565b90506000611961613498565b9050611980670de0b6b3a76400008361197a9190613c89565b826122fc565b92505050919050565b6000600560019054906101000a900473ffffffffffffffffffffffffffffffffffffffff16905090565b6000806119be6128b7565b905060006119ca61281a565b90506119e9670de0b6b3a7640000826119e39190613c89565b836122fc565b9250505090565b6060600480546119ff90613cfa565b80601f0160208091040260200160405190810160405280929190818152602001828054611a2b90613cfa565b8015611a785780601f10611a4d57610100808354040283529160200191611a78565b820191906000526020600020905b815481529060010190602001808311611a5b57829003601f168201915b5050505050905090565b6000611a8c61281a565b905090565b60008060016000611aa06123ca565b73ffffffffffffffffffffffffffffffffffffffff1673ffffffffffffffffffffffffffffffffffffffff16815260200190815260200160002060008573ffffffffffffffffffffffffffffffffffffffff1673ffffffffffffffffffffffffffffffffffffffff16815260200190815260200160002054905082811015611b5d576040517f08c379a0000000000000000000000000000000000000000000000000000000008152600401611b5490613fe3565b60405180910390fd5b611b71611b686123ca565b858584036123d2565b600191505092915050565b6000611b90611b896123ca565b848461259b565b6001905092915050565b600080611ba561232d565b90506000611bb161281a565b9050611bd0670de0b6b3a764000082611bca9190613c89565b836122fc565b9250505090565b6000611be16123ca565b73ffffffffffffffffffffffffffffffffffffffff16611bff611989565b73ffffffffffffffffffffffffffffffffffffffff1614611c55576040517f08c379a0000000000000000000000000000000000000000000000000000000008152600401611c4c90613e09565b60405180910390fd5b600b60019054906101000a900460ff1615600b60016101000a81548160ff0219169083151502179055905090565b600080662386f26fc1000083611c999190613c89565b90506000611ca56128b7565b9050611cc4670de0b6b3a764000083611cbe9190613c89565b826122fc565b92505050919050565b600080611cd86128b7565b90506000611ce461225f565b9050611d03670de0b6b3a764000082611cfd9190613c89565b836122fc565b9250505090565b6000611d146123ca565b73ffffffffffffffffffffffffffffffffffffffff16611d32611989565b73ffffffffffffffffffffffffffffffffffffffff1614611d88576040517f08c379a0000000000000000000000000000000000000000000000000000000008152600401611d7f90613e09565b60405180910390fd5b60001515600b60019054906101000a900460ff16151503611dd5576040517fda61c0d800000000000000000000000000000000000000000000000000000000815260040160405180910390fd5b611ddd611548565b15611def57611dea6135fc565b611df8565b611df761369e565b5b611e00611548565b905090565b6000600160008473ffffffffffffffffffffffffffffffffffffffff1673ffffffffffffffffffffffffffffffffffffffff16815260200190815260200160002060008373ffffffffffffffffffffffffffffffffffffffff1673ffffffffffffffffffffffffffffffffffffffff16815260200190815260200160002054905092915050565b6000611e966128b7565b905090565b600080611ea661225f565b90506000611eb261281a565b9050611ed1670de0b6b3a764000082611ecb9190613c89565b836122fc565b9250505090565b600080662386f26fc1000083611eee9190613c89565b90506000611efa61281a565b9050611f19670de0b6b3a764000083611f139190613c89565b826122fc565b92505050919050565b6000600660009054906101000a900473ffffffffffffffffffffffffffffffffffffffff1673ffffffffffffffffffffffffffffffffffffffff1663e9f38fc584846040518363ffffffff1660e01b8152600401611f81929190613e5d565b6020604051808303816000875af1158015611fa0573d6000803e3d6000fd5b505050506040513d601f19601f82011682018060405250810190611fc49190613eb2565b905092915050565b611fd46123ca565b73ffffffffffffffffffffffffffffffffffffffff16611ff2611989565b73ffffffffffffffffffffffffffffffffffffffff1614612048576040517f08c379a000000000000000000000000000000000000000000000000000000000815260040161203f90613e09565b60405180910390fd5b600073ffffffffffffffffffffffffffffffffffffffff168173ffffffffffffffffffffffffffffffffffffffff16036120b7576040517f08c379a00000000000000000000000000000000000000000000000000000000081526004016120ae90614075565b60405180910390fd5b6120c081613395565b50565b6000806120ce61232d565b905060006120da61225f565b90506120f9670de0b6b3a7640000826120f39190613c89565b836122fc565b9250505090565b600073ffffffffffffffffffffffffffffffffffffffff168273ffffffffffffffffffffffffffffffffffffffff160361216f576040517f08c379a0000000000000000000000000000000000000000000000000000000008152600401612166906140e1565b60405180910390fd5b61217b60008383613741565b806002600082825461218d9190613e29565b92505081905550806000808473ffffffffffffffffffffffffffffffffffffffff1673ffffffffffffffffffffffffffffffffffffffff16815260200190815260200160002060008282546121e29190613e29565b925050819055508173ffffffffffffffffffffffffffffffffffffffff16600073ffffffffffffffffffffffffffffffffffffffff167fddf252ad1be2c89b69c2b068fc378daa952ba7f163c4a11628f55a4df523b3ef836040516122479190613872565b60405180910390a361225b60008383613799565b5050565b600080600660009054906101000a900473ffffffffffffffffffffffffffffffffffffffff1673ffffffffffffffffffffffffffffffffffffffff166396722fe56040518163ffffffff1660e01b8152600401602060405180830381865afa1580156122cf573d6000803e3d6000fd5b505050506040513d601f19601f820116820180604052508101906122f39190614137565b90508091505090565b600080828461230b9190614164565b905082818561231a9190613c55565b6123249190613c24565b91505092915050565b600080600660009054906101000a900473ffffffffffffffffffffffffffffffffffffffff1673ffffffffffffffffffffffffffffffffffffffff16639a18c7956040518163ffffffff1660e01b8152600401602060405180830381865afa15801561239d573d6000803e3d6000fd5b505050506040513d601f19601f820116820180604052508101906123c19190614137565b90508091505090565b600033905090565b600073ffffffffffffffffffffffffffffffffffffffff168373ffffffffffffffffffffffffffffffffffffffff1603612441576040517f08c379a000000000000000000000000000000000000000000000000000000000815260040161243890614207565b60405180910390fd5b600073ffffffffffffffffffffffffffffffffffffffff168273ffffffffffffffffffffffffffffffffffffffff16036124b0576040517f08c379a00000000000000000000000000000000000000000000000000000000081526004016124a790614299565b60405180910390fd5b80600160008573ffffffffffffffffffffffffffffffffffffffff1673ffffffffffffffffffffffffffffffffffffffff16815260200190815260200160002060008473ffffffffffffffffffffffffffffffffffffffff1673ffffffffffffffffffffffffffffffffffffffff168152602001908152602001600020819055508173ffffffffffffffffffffffffffffffffffffffff168373ffffffffffffffffffffffffffffffffffffffff167f8c5be1e5ebec7d5bd14f71427d1e84f3dd0314c0f7b2291e5b200ac8c7c3b9258360405161258e9190613872565b60405180910390a3505050565b600073ffffffffffffffffffffffffffffffffffffffff168373ffffffffffffffffffffffffffffffffffffffff160361260a576040517f08c379a00000000000000000000000000000000000000000000000000000000081526004016126019061432b565b60405180910390fd5b600073ffffffffffffffffffffffffffffffffffffffff168273ffffffffffffffffffffffffffffffffffffffff1603612679576040517f08c379a0000000000000000000000000000000000000000000000000000000008152600401612670906143bd565b60405180910390fd5b612684838383613741565b60008060008573ffffffffffffffffffffffffffffffffffffffff1673ffffffffffffffffffffffffffffffffffffffff1681526020019081526020016000205490508181101561270a576040517f08c379a00000000000000000000000000000000000000000000000000000000081526004016127019061444f565b60405180910390fd5b8181036000808673ffffffffffffffffffffffffffffffffffffffff1673ffffffffffffffffffffffffffffffffffffffff16815260200190815260200160002081905550816000808573ffffffffffffffffffffffffffffffffffffffff1673ffffffffffffffffffffffffffffffffffffffff168152602001908152602001600020600082825461279d9190613e29565b925050819055508273ffffffffffffffffffffffffffffffffffffffff168473ffffffffffffffffffffffffffffffffffffffff167fddf252ad1be2c89b69c2b068fc378daa952ba7f163c4a11628f55a4df523b3ef846040516128019190613872565b60405180910390a3612814848484613799565b50505050565b600080600660009054906101000a900473ffffffffffffffffffffffffffffffffffffffff1673ffffffffffffffffffffffffffffffffffffffff1663414641df6040518163ffffffff1660e01b8152600401602060405180830381865afa15801561288a573d6000803e3d6000fd5b505050506040513d601f19601f820116820180604052508101906128ae9190614137565b90508091505090565b600080600660009054906101000a900473ffffffffffffffffffffffffffffffffffffffff1673ffffffffffffffffffffffffffffffffffffffff1663f2e9bd7a6040518163ffffffff1660e01b8152600401602060405180830381865afa158015612927573d6000803e3d6000fd5b505050506040513d601f19601f8201168201806040525081019061294b9190614137565b90508091505090565b6000806000600481111561296b5761296a613aca565b5b600d60009054906101000a900460ff16600481111561298d5761298c613aca565b5b03612b1b5760008173ffffffffffffffffffffffffffffffffffffffff16638d4a8ffe856040518263ffffffff1660e01b81526004016129cd9190613872565b602060405180830381865afa1580156129ea573d6000803e3d6000fd5b505050506040513d601f19601f82011682018060405250810190612a0e9190614484565b90506000811015612a4b576040517fc1a21f4e00000000000000000000000000000000000000000000000000000000815260040160405180910390fd5b6040518060600160405280600a548152602001828152602001600d60009054906101000a900460ff166004811115612a8657612a85613aca565b5b815250600e600a5481548110612a9f57612a9e6144b1565b5b9060005260206000209060030201600082015181600001556020820151816001015560408201518160020160006101000a81548160ff02191690836004811115612aec57612aeb613aca565b5b0217905550905050600a6000815480929190612b07906144e0565b91905055508060078190559250505061317d565b60016004811115612b2f57612b2e613aca565b5b600d60009054906101000a900460ff166004811115612b5157612b50613aca565b5b03612c665760008390506000811015612b96576040517fc1a21f4e00000000000000000000000000000000000000000000000000000000815260040160405180910390fd5b6040518060600160405280600a548152602001828152602001600d60009054906101000a900460ff166004811115612bd157612bd0613aca565b5b815250600e600a5481548110612bea57612be96144b1565b5b9060005260206000209060030201600082015181600001556020820151816001015560408201518160020160006101000a81548160ff02191690836004811115612c3757612c36613aca565b5b0217905550905050600a6000815480929190612c52906144e0565b91905055508060078190559250505061317d565b60026004811115612c7a57612c79613aca565b5b600d60009054906101000a900460ff166004811115612c9c57612c9b613aca565b5b03612e2a5760008173ffffffffffffffffffffffffffffffffffffffff16637afcc7a4856040518263ffffffff1660e01b8152600401612cdc9190613872565b602060405180830381865afa158015612cf9573d6000803e3d6000fd5b505050506040513d601f19601f82011682018060405250810190612d1d9190614484565b90506000811015612d5a576040517fc1a21f4e00000000000000000000000000000000000000000000000000000000815260040160405180910390fd5b6040518060600160405280600a548152602001828152602001600d60009054906101000a900460ff166004811115612d9557612d94613aca565b5b815250600e600a5481548110612dae57612dad6144b1565b5b9060005260206000209060030201600082015181600001556020820151816001015560408201518160020160006101000a81548160ff02191690836004811115612dfb57612dfa613aca565b5b0217905550905050600a6000815480929190612e16906144e0565b91905055508060078190559250505061317d565b60036004811115612e3e57612e3d613aca565b5b600d60009054906101000a900460ff166004811115612e6057612e5f613aca565b5b03612fee5760008173ffffffffffffffffffffffffffffffffffffffff166387434dcd856040518263ffffffff1660e01b8152600401612ea09190613872565b602060405180830381865afa158015612ebd573d6000803e3d6000fd5b505050506040513d601f19601f82011682018060405250810190612ee19190614484565b90506000811015612f1e576040517fc1a21f4e00000000000000000000000000000000000000000000000000000000815260040160405180910390fd5b6040518060600160405280600a548152602001828152602001600d60009054906101000a900460ff166004811115612f5957612f58613aca565b5b815250600e600a5481548110612f7257612f716144b1565b5b9060005260206000209060030201600082015181600001556020820151816001015560408201518160020160006101000a81548160ff02191690836004811115612fbf57612fbe613aca565b5b0217905550905050600a6000815480929190612fda906144e0565b91905055508060078190559250505061317d565b60048081111561300157613000613aca565b5b600d60009054906101000a900460ff16600481111561302357613022613aca565b5b036131765760008173ffffffffffffffffffffffffffffffffffffffff1663d1381f4e856040518263ffffffff1660e01b81526004016130639190613872565b602060405180830381865afa158015613080573d6000803e3d6000fd5b505050506040513d601f19601f820116820180604052508101906130a49190614484565b90506040518060600160405280600a548152602001828152602001600d60009054906101000a900460ff1660048111156130e1576130e0613aca565b5b815250600e600a54815481106130fa576130f96144b1565b5b9060005260206000209060030201600082015181600001556020820151816001015560408201518160020160006101000a81548160ff0219169083600481111561314757613146613aca565b5b0217905550905050600a6000815480929190613162906144e0565b91905055508060078190559250505061317d565b6007549150505b919050565b600073ffffffffffffffffffffffffffffffffffffffff168273ffffffffffffffffffffffffffffffffffffffff16036131f1576040517f08c379a00000000000000000000000000000000000000000000000000000000081526004016131e89061459a565b60405180910390fd5b6131fd82600083613741565b60008060008473ffffffffffffffffffffffffffffffffffffffff1673ffffffffffffffffffffffffffffffffffffffff16815260200190815260200160002054905081811015613283576040517f08c379a000000000000000000000000000000000000000000000000000000000815260040161327a9061462c565b60405180910390fd5b8181036000808573ffffffffffffffffffffffffffffffffffffffff1673ffffffffffffffffffffffffffffffffffffffff1681526020019081526020016000208190555081600260008282546132da9190613c55565b92505081905550600073ffffffffffffffffffffffffffffffffffffffff168373ffffffffffffffffffffffffffffffffffffffff167fddf252ad1be2c89b69c2b068fc378daa952ba7f163c4a11628f55a4df523b3ef8460405161333f9190613872565b60405180910390a361335383600084613799565b505050565b6000806133636128b7565b9050600061336f61225f565b905061338e670de0b6b3a7640000836133889190613c89565b826122fc565b9250505090565b6000600560019054906101000a900473ffffffffffffffffffffffffffffffffffffffff16905081600560016101000a81548173ffffffffffffffffffffffffffffffffffffffff021916908373ffffffffffffffffffffffffffffffffffffffff1602179055508173ffffffffffffffffffffffffffffffffffffffff168173ffffffffffffffffffffffffffffffffffffffff167f8be0079c531659141344cd1fd0a4f28419497f9722a3daafe3b4186f6b6457e060405160405180910390a35050565b6000806134666128b7565b9050600061347261281a565b9050613491670de0b6b3a76400008361348b9190613c89565b826122fc565b9250505090565b6000806134a36128b7565b905060006134af61232d565b90506134ce670de0b6b3a7640000836134c89190613c89565b826122fc565b9250505090565b600080820361350e576000600d60006101000a81548160ff0219169083600481111561350457613503613aca565b5b02179055506135e5565b60018203613546576001600d60006101000a81548160ff0219169083600481111561353c5761353b613aca565b5b02179055506135e4565b6002820361357e576002600d60006101000a81548160ff0219169083600481111561357457613573613aca565b5b02179055506135e3565b600382036135b6576003600d60006101000a81548160ff021916908360048111156135ac576135ab613aca565b5b02179055506135e2565b6004600d60006101000a81548160ff021916908360048111156135dc576135db613aca565b5b02179055505b5b5b5b600d60009054906101000a900460ff169050919050565b613604611548565b613643576040517f08c379a000000000000000000000000000000000000000000000000000000000815260040161363a90614698565b60405180910390fd5b6000600560006101000a81548160ff0219169083151502179055507f5db9ee0a495bf2e6ff9c91a7834c1ba4fdd244a5e8aa4e537bd38aeae4b073aa6136876123ca565b6040516136949190613b6b565b60405180910390a1565b6136a6611548565b156136e6576040517f08c379a00000000000000000000000000000000000000000000000000000000081526004016136dd90614704565b60405180910390fd5b6001600560006101000a81548160ff0219169083151502179055507f62e78cea01bee320cd4e420270b5ea74000d11b0c9f74754ebdbfc544b05a25861372a6123ca565b6040516137379190613b6b565b60405180910390a1565b613749611548565b15613789576040517f08c379a000000000000000000000000000000000000000000000000000000000815260040161378090614704565b60405180910390fd5b61379483838361379e565b505050565b505050565b6137a98383836137f6565b6137b1611548565b156137f1576040517f08c379a00000000000000000000000000000000000000000000000000000000081526004016137e890614796565b60405180910390fd5b505050565b505050565b600080fd5b6000819050919050565b61381381613800565b811461381e57600080fd5b50565b6000813590506138308161380a565b92915050565b60006020828403121561384c5761384b6137fb565b5b600061385a84828501613821565b91505092915050565b61386c81613800565b82525050565b60006020820190506138876000830184613863565b92915050565b600081519050919050565b600082825260208201905092915050565b60005b838110156138c75780820151818401526020810190506138ac565b60008484015250505050565b6000601f19601f8301169050919050565b60006138ef8261388d565b6138f98185613898565b93506139098185602086016138a9565b613912816138d3565b840191505092915050565b6000602082019050818103600083015261393781846138e4565b905092915050565b600073ffffffffffffffffffffffffffffffffffffffff82169050919050565b600061396a8261393f565b9050919050565b61397a8161395f565b811461398557600080fd5b50565b60008135905061399781613971565b92915050565b600080604083850312156139b4576139b36137fb565b5b60006139c285828601613988565b92505060206139d385828601613821565b9150509250929050565b60008115159050919050565b6139f2816139dd565b82525050565b6000602082019050613a0d60008301846139e9565b92915050565b600080600060608486031215613a2c57613a2b6137fb565b5b6000613a3a86828701613988565b9350506020613a4b86828701613988565b9250506040613a5c86828701613821565b9150509250925092565b600060ff82169050919050565b613a7c81613a66565b82525050565b6000602082019050613a976000830184613a73565b92915050565b600060208284031215613ab357613ab26137fb565b5b6000613ac184828501613988565b91505092915050565b7f4e487b7100000000000000000000000000000000000000000000000000000000600052602160045260246000fd5b60058110613b0a57613b09613aca565b5b50565b6000819050613b1b82613af9565b919050565b6000613b2b82613b0d565b9050919050565b613b3b81613b20565b82525050565b6000602082019050613b566000830184613b32565b92915050565b613b658161395f565b82525050565b6000602082019050613b806000830184613b5c565b92915050565b60008060408385031215613b9d57613b9c6137fb565b5b6000613bab85828601613988565b9250506020613bbc85828601613988565b9150509250929050565b7f4e487b7100000000000000000000000000000000000000000000000000000000600052601260045260246000fd5b7f4e487b7100000000000000000000000000000000000000000000000000000000600052601160045260246000fd5b6000613c2f82613800565b9150613c3a83613800565b925082613c4a57613c49613bc6565b5b828204905092915050565b6000613c6082613800565b9150613c6b83613800565b9250828203905081811115613c8357613c82613bf5565b5b92915050565b6000613c9482613800565b9150613c9f83613800565b9250828202613cad81613800565b91508282048414831517613cc457613cc3613bf5565b5b5092915050565b7f4e487b7100000000000000000000000000000000000000000000000000000000600052602260045260246000fd5b60006002820490506001821680613d1257607f821691505b602082108103613d2557613d24613ccb565b5b50919050565b7f45524332303a207472616e7366657220616d6f756e742065786365656473206160008201527f6c6c6f77616e6365000000000000000000000000000000000000000000000000602082015250565b6000613d87602883613898565b9150613d9282613d2b565b604082019050919050565b60006020820190508181036000830152613db681613d7a565b9050919050565b7f4f776e61626c653a2063616c6c6572206973206e6f7420746865206f776e6572600082015250565b6000613df3602083613898565b9150613dfe82613dbd565b602082019050919050565b60006020820190508181036000830152613e2281613de6565b9050919050565b6000613e3482613800565b9150613e3f83613800565b9250828201905080821115613e5757613e56613bf5565b5b92915050565b6000604082019050613e726000830185613b5c565b613e7f6020830184613863565b9392505050565b613e8f816139dd565b8114613e9a57600080fd5b50565b600081519050613eac81613e86565b92915050565b600060208284031215613ec857613ec76137fb565b5b6000613ed684828501613e9d565b91505092915050565b7f45524332303a206275726e20616d6f756e74206578636565647320616c6c6f7760008201527f616e636500000000000000000000000000000000000000000000000000000000602082015250565b6000613f3b602483613898565b9150613f4682613edf565b604082019050919050565b60006020820190508181036000830152613f6a81613f2e565b9050919050565b7f45524332303a2064656372656173656420616c6c6f77616e63652062656c6f7760008201527f207a65726f000000000000000000000000000000000000000000000000000000602082015250565b6000613fcd602583613898565b9150613fd882613f71565b604082019050919050565b60006020820190508181036000830152613ffc81613fc0565b9050919050565b7f4f776e61626c653a206e6577206f776e657220697320746865207a65726f206160008201527f6464726573730000000000000000000000000000000000000000000000000000602082015250565b600061405f602683613898565b915061406a82614003565b604082019050919050565b6000602082019050818103600083015261408e81614052565b9050919050565b7f45524332303a206d696e7420746f20746865207a65726f206164647265737300600082015250565b60006140cb601f83613898565b91506140d682614095565b602082019050919050565b600060208201905081810360008301526140fa816140be565b9050919050565b6000819050919050565b61411481614101565b811461411f57600080fd5b50565b6000815190506141318161410b565b92915050565b60006020828403121561414d5761414c6137fb565b5b600061415b84828501614122565b91505092915050565b600061416f82613800565b915061417a83613800565b92508261418a57614189613bc6565b5b828206905092915050565b7f45524332303a20617070726f76652066726f6d20746865207a65726f2061646460008201527f7265737300000000000000000000000000000000000000000000000000000000602082015250565b60006141f1602483613898565b91506141fc82614195565b604082019050919050565b60006020820190508181036000830152614220816141e4565b9050919050565b7f45524332303a20617070726f766520746f20746865207a65726f20616464726560008201527f7373000000000000000000000000000000000000000000000000000000000000602082015250565b6000614283602283613898565b915061428e82614227565b604082019050919050565b600060208201905081810360008301526142b281614276565b9050919050565b7f45524332303a207472616e736665722066726f6d20746865207a65726f20616460008201527f6472657373000000000000000000000000000000000000000000000000000000602082015250565b6000614315602583613898565b9150614320826142b9565b604082019050919050565b6000602082019050818103600083015261434481614308565b9050919050565b7f45524332303a207472616e7366657220746f20746865207a65726f206164647260008201527f6573730000000000000000000000000000000000000000000000000000000000602082015250565b60006143a7602383613898565b91506143b28261434b565b604082019050919050565b600060208201905081810360008301526143d68161439a565b9050919050565b7f45524332303a207472616e7366657220616d6f756e742065786365656473206260008201527f616c616e63650000000000000000000000000000000000000000000000000000602082015250565b6000614439602683613898565b9150614444826143dd565b604082019050919050565b600060208201905081810360008301526144688161442c565b9050919050565b60008151905061447e8161380a565b92915050565b60006020828403121561449a576144996137fb565b5b60006144a88482850161446f565b91505092915050565b7f4e487b7100000000000000000000000000000000000000000000000000000000600052603260045260246000fd5b60006144eb82613800565b91507fffffffffffffffffffffffffffffffffffffffffffffffffffffffffffffffff820361451d5761451c613bf5565b5b600182019050919050565b7f45524332303a206275726e2066726f6d20746865207a65726f2061646472657360008201527f7300000000000000000000000000000000000000000000000000000000000000602082015250565b6000614584602183613898565b915061458f82614528565b604082019050919050565b600060208201905081810360008301526145b381614577565b9050919050565b7f45524332303a206275726e20616d6f756e7420657863656564732062616c616e60008201527f6365000000000000000000000000000000000000000000000000000000000000602082015250565b6000614616602283613898565b9150614621826145ba565b604082019050919050565b6000602082019050818103600083015261464581614609565b9050919050565b7f5061757361626c653a206e6f7420706175736564000000000000000000000000600082015250565b6000614682601483613898565b915061468d8261464c565b602082019050919050565b600060208201905081810360008301526146b181614675565b9050919050565b7f5061757361626c653a2070617573656400000000000000000000000000000000600082015250565b60006146ee601083613898565b91506146f9826146b8565b602082019050919050565b6000602082019050818103600083015261471d816146e1565b9050919050565b7f45524332305061757361626c653a20746f6b656e207472616e7366657220776860008201527f696c652070617573656400000000000000000000000000000000000000000000602082015250565b6000614780602a83613898565b915061478b82614724565b604082019050919050565b600060208201905081810360008301526147af81614773565b905091905056fea2646970667358221220e5e683cb4f445f43fda38d82d1554d882f75b438abe93dc769d55a791e15819464736f6c63430008110033a2646970667358221220749d0ec693628e603a13aa3b5a1a527cacb50fe0d0736ad6847a43016f082ea764736f6c63430008110033",
  "immutableReferences": {},
  "source": "// SPDX-License-Identifier: GPL-3.0\n// // // // // // // // // // // // // // // // // // // // // // // // // // // // // // // // // // // // // // // // // // // // // // // // // // // // // // // // // // // // //\n//\n//      MMWKd:..                                                                                    ..:dKWMM\n//      MKl.                                                                                            .lKW\n//      O'       ..''''''''''''.     .''''''.     .'''''.      .''''''''''''''.     .''''''''''''..       'O\n//      '     .ckKNNWNWWWWWWWWWk.   .xNWWNWNl    ,0WWWWW0,     lNWWWWWWWWWNWNk'    ;0NNNWWWWWWWWNNKkc.     '\n//           ,OWMMMMMMMMMMMMMMMO.   .kMMMMMWl    ,KMMMMMK,     lWMMMMMMMMMMM0,    ;KMMMMMMMMMMMMMMMMWO,\n//          .kMMMMMMMMMMMMMMMMMO.   .kMMMMMWl    ,KMMMMMK,     lWMMMMMMMMMM0,    ;KMMMMMMMMMMMMMMMMMMMk.\n//          '0MMMMMMMMMMMMMMMMMO.   .kMMMMMWl    ,KMMMMMK,     lWMMMMMMMMM0,    :KMMMMMMMMMMMMMMMMMMMM0'\n//          '0MMMMMMMMMMMMMMMMMO.   .kMMMMMWl    ,KMMMMMK,     lWMMMMMMMM0,    :KMMMMMMMMMMMMMMMMMMMMM0'\n//          '0MMMMMMMMMMMMMMMMMO.   .kMMMMMWl    ,KMMMMMK,     lWMMMMMMM0,    ;0NNWWMMMMMMMMMMMMMMMMMM0'\n//          '0MMMMMMMMMMMMMMMMMO.   .kMMMMMWl    ,KMMMMMK,     lWMMMMMM0,     .'.',;lkNMMMMMMMMMMMMMMM0'\n//          '0MMMMMMMMMMMMMMMMMO.   .kMMMMMWl    ,KMMMMMK,     lWMMMMMK;              ,kWMMMMMMMMMMMMM0'\n//          '0MMMMMMMMMMMMMMMMMO.   .kMMMMMWl    ,KMMMMMK,     lWMMMMX:    .:oxxdc'    .dWMMMMMMMMMMMM0'\n//          '0MMMMMMMMMMMMMMMMMO.   .kMMMMMWl    ,KMMMMMK,     lWMMMWd.   ,OWMMMMMXl.   '0MMMMMMMMMMMM0'\n//          '0MMMMMMMMMMMMMMMMMO.   .kMMMMMWl    ,KMMMMMK,     lWMMMX;   .kMMMMMMMMK,   .xMMMMMMMMMMMM0'\n//          '0MMMMMMMMMMMMMMMMMO.   .kMMMMMWl    ,KMMMMMK,     lWMMM0'   .OMMMMMMMMX;   .xMMMMMMMMMMMM0'\n//          .OMMMMMMMMMMMMMMMMMO.   .kMMMMMWl    ,KMMMMMK,     lWMMMK,    lNMMMMMMWx.   '0MMMMMMMMMMMMO.\n//           lNMMMMMMMMMMMMMMMMO.   .kMMMMMWl    ,KMMMMMK,     lWMMMWd.   .:x0KKKkc.   .dWMMMMMMMMMMMNl\n//      .    .c0WMMMMMMMMMMMMMMO.   .kMMMMMWo    ,KMMMMMK,     lWMMMMNd.     ....     .xNMMMMMMMMMMW0c.    .\n//      l      .,lddxxxxxxxxxxxc.    :xxxxxd,    .lxxxxxl.     ,dxxxxxd:.            .cdxxxxxxxxddl,.      l\n//      No.                                                                                              .oN\n//      MW0l'                                                                                          'l0WM\n//      MMMWKd;.                                                                                    .;dKWMMM\n//\n// // // // // // // // // // // // // // // // // // // // // // // // // // // // // // // // // // // // // // // // // // // // // // // // // // // // // // // // // // // // //\n//                                                                                                                                                                                  //\n//      @dev            ::              Aron Mauritala Ayuk                                                                                                                                          //\n//      @msg            ::              stereo@iii6.xyz                                                                                                                                   //\n//      @github         ::              @stereoIII6\n//      @twitter        ::              @stereoIII6                                                                                                                                              //\n//                                                                                                                                                                                  //\n// // // // // // // // // // // // // // // // // // // // // // // // // // // // // // // // // // // // // // // // // // // // // // // // // // // // // // // // // // // // //\n//                                                                                                                                                                                  //\n//      @dev            ::              Juan Xavier Valverde                                                                                                                                    //\n//      @msg            ::              juanxavier@iii6.xyz                                                                                                                               //\n//      @twitter        ::              @JuanXavier                                                                                                                                             //\n//      @github         ::              @JuanXavier                                                                                                                                             //\n//                                                                                                                                                                                  //                                                                                                                                                                                 //\n// // // // // // // // // // // // // // // // // // // // // // // // // // // // // // // // // // // // // // // // // // // // // // // // // // // // // // // // // // // // //\n//  *   *   *   *   *   *   *   *   *   *   *   *   *   *   *   *   *   *   *   *   *   *   *   *   *   *   *   *   *   *   *   *   *   *   *   *   *   *   *   *   *   *   *   *   //\n// // // // // // // // // // // // // // // // // // // // // // // // // // // // // // // // // // // // // // // // // // // // // // // // // // // // // // // // // // // // //\n//                                                                                                                                                                                  //\n//      @company        ::              Fractio Holding                                                                                                                                                                       //\n//      @title          ::              iii6 Coin Factory                                                                                                                            //\n//      @description    ::              ERC721 DIA Factory Contract                                                                                                                           //\n//      @version        ::              0.0.1                                                                                                                                       //\n//      @purpose        ::              ERC721 DIA Factory                                                                                                          //\n//                                                                                                                                                                                  //\n//                                                                                                                                                                                  //\n//                                                                                                                                                                                  //\n//                                                                                                                                                                                  //\n//                                                                                                                                                                                  //\n// // // // // // // // // // // // // // // // // // // // // // // // // // // // // // // // // // // // // // // // // // // // // // // // // // // // // // // // // // // // //\n//  *   *   *   *   *   *   *   *   *   *   *   *   *   *   *   *   *   *   *   *   *   *   *   *   *   *   *   *   *   *   *   *   *   *   *   *   *   *   *   *   *   *   *   *   //\n// // // // // // // // // // // // // // // // // // // // // // // // // // // // // // // // // // // // // // // // // // // // // // // // // // // // // // // // // // // // //\n\n/////////////////////////////////////////////////////////////////////////////////////////////////////////////////////\n\n/////////////////////////////////////////////////////////////////////////////////////////////////////////////////////\n\npragma solidity ^0.8.7;\n\nimport \"./iii6CoinModel.sol\";\nimport \"../Math/iii6PriceMath.sol\";\n\ncontract iii6CoinFactory is iii6PriceMath {\n    /**\n     * @dev this contract is a model contract to be deployed through the iii6AssetFactory\n     */\n    // \n    // \n    // \n    // \n    // \n    // \n    address VRF;\n    address FEED;\n    uint256 gasSafe;\n    uint256 public p;\n    mapping(uint256 => address) public projects;\n    mapping(address => uint256) public mp;\n    mapping(address => mapping(uint256 => address)) public myProjects;\n\n    /*\n     * @dev this constructor creates a Dia NFT Token Contract\n     * @param _owner contract admin\n     * @param _name dia token name\n     * @param _max amount of tokens 0 = infinte\n     * @param _price amount of gascoin for token\n     * @param _cName name of related ERC20 token\n     * @param _cSym symbol of related ERC20 token\n     * @param _c bool if related coin exists\n     * @param _cs max supply of related ERC20 token 0 = infinite\n     * @param _rate price of related ERC20 token in gascoin\n     * @param _g number of greenlist slots for Dia NFT project 0 = no greenlist\n     */\n    constructor() {\n        gasSafe = 5 * 10**13;\n    }\n\n    // function creates a ERC20 Token Contract\n    function _makeERC20Asset(\n        string memory _name,\n        string memory _sym,\n        uint256 _rate,\n        uint256 _supply,\n        bool _burn,\n        bool _pause,\n        uint256 _curr\n    ) internal returns (address) {\n        // chose token model\n        iii6CoinModel token;\n        /**\n         * @dev creates an instance of iii6CoinModel\n         * @param _name token name\n         * @param _sym token symbol\n         * @param _rate token rate\n         * @param _supply max token supply // if 0-infinte\n         * @param _burn bool burnable\n         * @param _pause bool pauseble\n         * @param _curr denomintaor currency // 0-eth 1-gascoin 2-xCur 2-yCur >4-usdc\n         * @return contract address\n         */\n        token = new iii6CoinModel(\n            _name,\n            _sym,\n            _rate,\n            _supply,\n            _burn,\n            _pause,\n            _curr\n        );\n        // exit with address\n        return address(token);\n    }\n\n    /**\n     * @dev creates an instance of iii6CoinModel\n     * @param _name token name\n     * @param _sym token symbol\n     * @param _rate token rate\n     * @param _supply max token supply // if 0-infinte\n     * @param _burn bool burnable\n     * @param _pause bool pauseble\n     * @param _curr denomintaor currency // 0-eth 1-gascoin 2-xCur 2-yCur >4-usdc\n     * @return contract address\n     */\n    function buildERC20Token(\n        string calldata _name,\n        string calldata _sym,\n        uint256 _rate,\n        uint256 _supply,\n        bool _burn,\n        bool _pause,\n        uint256 _curr\n    ) external payable returns (address) {\n        // check msg.value\n\n        // mint license\n        // make asset & exit with address\n        if (msg.value > 10**14) {\n            // address(this).transfer(safe, msg.value - gasSafe);\n        }\n        return\n            _makeERC20Asset(_name, _sym, _rate, _supply, _burn, _pause, _curr);\n    }\n}\n",
  "sourcePath": "/Users/iii6/Documents/GitHub/III6Dojo/contracts/iii6Utils/Assets/iii6CoinFactory.sol",
  "compiler": {
    "name": "solc",
    "version": "0.8.17+commit.8df45f5f.Emscripten.clang"
  },
  "schemaVersion": "3.4.8",
  "updatedAt": "2022-12-15T19:33:33.955Z",
  "devdoc": {
    "kind": "dev",
    "methods": {
      "COIN_USD()": {
        "details": "gets value of gascoin derived from iii6PriceConsumer => _get[...]Usdc()",
        "params": {
          "": "// EXTERNAL"
        },
        "returns": {
          "_0": "uint256 gascoin price in usdc"
        }
      },
      "ETH_USD()": {
        "details": "gets value of eth derived from INTERNAL => _get[...]Usdc()",
        "params": {
          "": "// EXTERNAL"
        },
        "returns": {
          "_0": "uint256 eth price in usdc"
        }
      },
      "X_USD()": {
        "details": "gets value of custon token x derived from iii6PriceConsumer => _get[...]Usdc()",
        "params": {
          "": "// EXTERNAL"
        },
        "returns": {
          "_0": "uint256 custon token x price in usdc"
        }
      },
      "Y_USD()": {
        "details": "gets value of custon token y derived from iii6PriceConsumer => _get[...]Usdc()",
        "params": {
          "": "// EXTERNAL"
        },
        "returns": {
          "_0": "uint256 custon token y price in usdc"
        }
      },
      "buildERC20Token(string,string,uint256,uint256,bool,bool,uint256)": {
        "details": "creates an instance of iii6CoinModel",
        "params": {
          "_burn": "bool burnable",
          "_curr": "denomintaor currency // 0-eth 1-gascoin 2-xCur 2-yCur >4-usdc",
          "_name": "token name",
          "_pause": "bool pauseble",
          "_rate": "token rate",
          "_supply": "max token supply // if 0-infinte",
          "_sym": "token symbol"
        },
        "returns": {
          "_0": "contract address"
        }
      },
      "coinPriceOfEth(uint256)": {
        "details": "Returns price for input amount in chosen currency",
        "params": {
          "_amt": "uint256 amount of usd"
        },
        "returns": {
          "_0": "Result of division"
        }
      },
      "coinPriceOfUSD(uint256)": {
        "details": "Returns price for input amount in chosen currency",
        "params": {
          "_amt": "uint256 amount of usd"
        },
        "returns": {
          "_0": "Result of division"
        }
      },
      "coinPriceOfX(uint256)": {
        "details": "Returns price for input amount in chosen currency",
        "params": {
          "_amt": "uint256 amount of usd"
        },
        "returns": {
          "_0": "Result of division"
        }
      },
      "coinPriceOfY(uint256)": {
        "details": "Returns price for input amount in chosen currency",
        "params": {
          "_amt": "uint256 amount of usd"
        },
        "returns": {
          "_0": "Result of division"
        }
      },
      "ethPriceOfUSD(uint256)": {
        "details": "Returns price for input amount in chosen currency",
        "params": {
          "_amt": "uint256 amount of usd"
        },
        "returns": {
          "_0": "Result of division"
        }
      },
      "getCoinPriceInEth()": {
        "details": "gets value of gascoin denominated in eth derived from _get[...]Usdc()",
        "returns": {
          "coinPriceEth": "uint256 price of gascoin denominated in eth"
        }
      },
      "getCoinPriceInX()": {
        "details": "gets value of gascoin denominated in eth derived from _get[...]Usdc()",
        "returns": {
          "coinPriceX": "uint256 price of gascoin denominated in eth"
        }
      },
      "getCoinPriceInY()": {
        "details": "gets value of gascoin denominated in eth derived from _get[...]Usdc()",
        "returns": {
          "coinPriceY": "uint256 price of gascoin denominated in eth"
        }
      },
      "getEthPriceInCoin()": {
        "details": "gets value of eth denominated in gascoin derived from _get[...]Usdc()",
        "returns": {
          "ethPriceCoin": "uint256 price of eth denominated in gascoin"
        }
      },
      "getEthPriceInX()": {
        "details": "gets value of eth denominated in custom token x derived from _get[...]Usdc()",
        "returns": {
          "ethPriceX": "uint256 price of eth denominated in custom token x"
        }
      },
      "getEthPriceInY()": {
        "details": "gets value of eth denominated in custom token y derived from _get[...]Usdc()",
        "returns": {
          "ethPriceY": "uint256 price of eth denominated in custom token y"
        }
      },
      "getXPriceInCoin()": {
        "details": "gets value of gascoin denominated in eth derived from _get[...]Usdc()",
        "returns": {
          "xPriceCoin": "uint256 price of gascoin denominated in eth"
        }
      },
      "getXPriceInEth()": {
        "details": "gets value of gascoin denominated in eth derived from _get[...]Usdc()",
        "returns": {
          "xPriceEth": "uint256 price of gascoin denominated in eth"
        }
      },
      "getXPriceInY()": {
        "details": "gets value of gascoin denominated in eth derived from _get[...]Usdc()",
        "returns": {
          "xPriceY": "uint256 price of gascoin denominated in eth"
        }
      },
      "getYPriceInCoin()": {
        "details": "gets value of gascoin denominated in eth derived from _get[...]Usdc()",
        "returns": {
          "yPriceCoin": "uint256 price of gascoin denominated in eth"
        }
      },
      "getYPriceInEth()": {
        "details": "gets value of gascoin denominated in eth derived from _get[...]Usdc()",
        "returns": {
          "yPriceEth": "uint256 price of gascoin denominated in eth"
        }
      },
      "getYPriceInX()": {
        "details": "gets value of gascoin denominated in eth derived from _get[...]Usdc()",
        "returns": {
          "yPriceX": "uint256 price of gascoin denominated in eth"
        }
      },
      "setX(address,uint256)": {
        "details": "sets the oracle for custom token x and adapts digit length",
        "params": {
          "": "// EXTERNAL",
          "_digits": "number of decimals passed by oracle",
          "_oracle": "address of the chainlink pricefeed oracle contract"
        },
        "returns": {
          "_0": "bool success"
        }
      },
      "setY(address,uint256)": {
        "details": "sets the oracle for custom token y and adapts digit length",
        "params": {
          "": "// EXTERNAL",
          "_digits": "number of decimals passed by oracle",
          "_oracle": "address of the chainlink pricefeed oracle contract"
        },
        "returns": {
          "_0": "bool success"
        }
      },
      "xPriceOfUSD(uint256)": {
        "details": "Returns price for input amount in chosen currency",
        "params": {
          "_amt": "uint256 amount of usd"
        },
        "returns": {
          "_0": "Result of division"
        }
      },
      "yPriceOfUSD(uint256)": {
        "details": "Returns price for input amount in chosen currency",
        "params": {
          "_amt": "uint256 amount of usd"
        },
        "returns": {
          "_0": "Result of division"
        }
      }
    },
    "stateVariables": {
      "VRF": {
        "details": "this contract is a model contract to be deployed through the iii6AssetFactory"
      }
    },
    "version": 1
  },
  "userdoc": {
    "kind": "user",
    "methods": {},
    "version": 1
  }
}