{
  "contractName": "iii6CoinModel",
  "abi": [
    {
      "inputs": [
        {
          "internalType": "string",
          "name": "_name",
          "type": "string"
        },
        {
          "internalType": "string",
          "name": "_sym",
          "type": "string"
        },
        {
          "internalType": "uint256",
          "name": "_rate",
          "type": "uint256"
        },
        {
          "internalType": "uint256",
          "name": "_supply",
          "type": "uint256"
        },
        {
          "internalType": "bool",
          "name": "_burn",
          "type": "bool"
        },
        {
          "internalType": "bool",
          "name": "_pause",
          "type": "bool"
        }
      ],
      "stateMutability": "nonpayable",
      "type": "constructor"
    },
    {
      "anonymous": false,
      "inputs": [
        {
          "indexed": true,
          "internalType": "address",
          "name": "owner",
          "type": "address"
        },
        {
          "indexed": true,
          "internalType": "address",
          "name": "spender",
          "type": "address"
        },
        {
          "indexed": false,
          "internalType": "uint256",
          "name": "value",
          "type": "uint256"
        }
      ],
      "name": "Approval",
      "type": "event"
    },
    {
      "anonymous": false,
      "inputs": [
        {
          "indexed": true,
          "internalType": "address",
          "name": "previousOwner",
          "type": "address"
        },
        {
          "indexed": true,
          "internalType": "address",
          "name": "newOwner",
          "type": "address"
        }
      ],
      "name": "OwnershipTransferred",
      "type": "event"
    },
    {
      "anonymous": false,
      "inputs": [
        {
          "indexed": false,
          "internalType": "address",
          "name": "account",
          "type": "address"
        }
      ],
      "name": "Paused",
      "type": "event"
    },
    {
      "anonymous": false,
      "inputs": [
        {
          "indexed": true,
          "internalType": "address",
          "name": "from",
          "type": "address"
        },
        {
          "indexed": true,
          "internalType": "address",
          "name": "to",
          "type": "address"
        },
        {
          "indexed": false,
          "internalType": "uint256",
          "name": "value",
          "type": "uint256"
        }
      ],
      "name": "Transfer",
      "type": "event"
    },
    {
      "anonymous": false,
      "inputs": [
        {
          "indexed": false,
          "internalType": "address",
          "name": "account",
          "type": "address"
        }
      ],
      "name": "Unpaused",
      "type": "event"
    },
    {
      "stateMutability": "payable",
      "type": "fallback"
    },
    {
      "inputs": [],
      "name": "MAX_SUPPLY",
      "outputs": [
        {
          "internalType": "uint256",
          "name": "",
          "type": "uint256"
        }
      ],
      "stateMutability": "view",
      "type": "function"
    },
    {
      "inputs": [],
      "name": "PUB_SUPPLY",
      "outputs": [
        {
          "internalType": "uint256",
          "name": "",
          "type": "uint256"
        }
      ],
      "stateMutability": "view",
      "type": "function"
    },
    {
      "inputs": [
        {
          "internalType": "address",
          "name": "owner",
          "type": "address"
        },
        {
          "internalType": "address",
          "name": "spender",
          "type": "address"
        }
      ],
      "name": "allowance",
      "outputs": [
        {
          "internalType": "uint256",
          "name": "",
          "type": "uint256"
        }
      ],
      "stateMutability": "view",
      "type": "function"
    },
    {
      "inputs": [
        {
          "internalType": "address",
          "name": "spender",
          "type": "address"
        },
        {
          "internalType": "uint256",
          "name": "amount",
          "type": "uint256"
        }
      ],
      "name": "approve",
      "outputs": [
        {
          "internalType": "bool",
          "name": "",
          "type": "bool"
        }
      ],
      "stateMutability": "nonpayable",
      "type": "function"
    },
    {
      "inputs": [
        {
          "internalType": "address",
          "name": "account",
          "type": "address"
        }
      ],
      "name": "balanceOf",
      "outputs": [
        {
          "internalType": "uint256",
          "name": "",
          "type": "uint256"
        }
      ],
      "stateMutability": "view",
      "type": "function"
    },
    {
      "inputs": [
        {
          "internalType": "address",
          "name": "account",
          "type": "address"
        },
        {
          "internalType": "uint256",
          "name": "amount",
          "type": "uint256"
        }
      ],
      "name": "burnFrom",
      "outputs": [],
      "stateMutability": "nonpayable",
      "type": "function"
    },
    {
      "inputs": [],
      "name": "decimals",
      "outputs": [
        {
          "internalType": "uint8",
          "name": "",
          "type": "uint8"
        }
      ],
      "stateMutability": "view",
      "type": "function"
    },
    {
      "inputs": [
        {
          "internalType": "address",
          "name": "spender",
          "type": "address"
        },
        {
          "internalType": "uint256",
          "name": "subtractedValue",
          "type": "uint256"
        }
      ],
      "name": "decreaseAllowance",
      "outputs": [
        {
          "internalType": "bool",
          "name": "",
          "type": "bool"
        }
      ],
      "stateMutability": "nonpayable",
      "type": "function"
    },
    {
      "inputs": [
        {
          "internalType": "address",
          "name": "spender",
          "type": "address"
        },
        {
          "internalType": "uint256",
          "name": "addedValue",
          "type": "uint256"
        }
      ],
      "name": "increaseAllowance",
      "outputs": [
        {
          "internalType": "bool",
          "name": "",
          "type": "bool"
        }
      ],
      "stateMutability": "nonpayable",
      "type": "function"
    },
    {
      "inputs": [],
      "name": "name",
      "outputs": [
        {
          "internalType": "string",
          "name": "",
          "type": "string"
        }
      ],
      "stateMutability": "view",
      "type": "function"
    },
    {
      "inputs": [],
      "name": "owner",
      "outputs": [
        {
          "internalType": "address",
          "name": "",
          "type": "address"
        }
      ],
      "stateMutability": "view",
      "type": "function"
    },
    {
      "inputs": [],
      "name": "paused",
      "outputs": [
        {
          "internalType": "bool",
          "name": "",
          "type": "bool"
        }
      ],
      "stateMutability": "view",
      "type": "function"
    },
    {
      "inputs": [],
      "name": "rate",
      "outputs": [
        {
          "internalType": "uint256",
          "name": "",
          "type": "uint256"
        }
      ],
      "stateMutability": "view",
      "type": "function"
    },
    {
      "inputs": [],
      "name": "renounceOwnership",
      "outputs": [],
      "stateMutability": "nonpayable",
      "type": "function"
    },
    {
      "inputs": [],
      "name": "symbol",
      "outputs": [
        {
          "internalType": "string",
          "name": "",
          "type": "string"
        }
      ],
      "stateMutability": "view",
      "type": "function"
    },
    {
      "inputs": [],
      "name": "title",
      "outputs": [
        {
          "internalType": "string",
          "name": "",
          "type": "string"
        }
      ],
      "stateMutability": "view",
      "type": "function"
    },
    {
      "inputs": [],
      "name": "totalSupply",
      "outputs": [
        {
          "internalType": "uint256",
          "name": "",
          "type": "uint256"
        }
      ],
      "stateMutability": "view",
      "type": "function"
    },
    {
      "inputs": [
        {
          "internalType": "address",
          "name": "recipient",
          "type": "address"
        },
        {
          "internalType": "uint256",
          "name": "amount",
          "type": "uint256"
        }
      ],
      "name": "transfer",
      "outputs": [
        {
          "internalType": "bool",
          "name": "",
          "type": "bool"
        }
      ],
      "stateMutability": "nonpayable",
      "type": "function"
    },
    {
      "inputs": [
        {
          "internalType": "address",
          "name": "sender",
          "type": "address"
        },
        {
          "internalType": "address",
          "name": "recipient",
          "type": "address"
        },
        {
          "internalType": "uint256",
          "name": "amount",
          "type": "uint256"
        }
      ],
      "name": "transferFrom",
      "outputs": [
        {
          "internalType": "bool",
          "name": "",
          "type": "bool"
        }
      ],
      "stateMutability": "nonpayable",
      "type": "function"
    },
    {
      "inputs": [
        {
          "internalType": "address",
          "name": "newOwner",
          "type": "address"
        }
      ],
      "name": "transferOwnership",
      "outputs": [],
      "stateMutability": "nonpayable",
      "type": "function"
    },
    {
      "stateMutability": "payable",
      "type": "receive"
    },
    {
      "inputs": [
        {
          "internalType": "uint256",
          "name": "_rate",
          "type": "uint256"
        }
      ],
      "name": "setRate",
      "outputs": [
        {
          "internalType": "uint256",
          "name": "",
          "type": "uint256"
        }
      ],
      "stateMutability": "nonpayable",
      "type": "function"
    },
    {
      "inputs": [
        {
          "internalType": "uint256",
          "name": "_newSupply",
          "type": "uint256"
        }
      ],
      "name": "setMaxSupply",
      "outputs": [
        {
          "internalType": "uint256",
          "name": "",
          "type": "uint256"
        }
      ],
      "stateMutability": "nonpayable",
      "type": "function"
    },
    {
      "inputs": [
        {
          "internalType": "uint256",
          "name": "_amount",
          "type": "uint256"
        }
      ],
      "name": "burn",
      "outputs": [],
      "stateMutability": "nonpayable",
      "type": "function"
    },
    {
      "inputs": [],
      "name": "togglePause",
      "outputs": [
        {
          "internalType": "bool",
          "name": "",
          "type": "bool"
        }
      ],
      "stateMutability": "nonpayable",
      "type": "function"
    },
    {
      "inputs": [],
      "name": "toggleBurn",
      "outputs": [
        {
          "internalType": "bool",
          "name": "",
          "type": "bool"
        }
      ],
      "stateMutability": "nonpayable",
      "type": "function"
    },
    {
      "inputs": [],
      "name": "toggleState",
      "outputs": [
        {
          "internalType": "bool",
          "name": "",
          "type": "bool"
        }
      ],
      "stateMutability": "nonpayable",
      "type": "function"
    },
    {
      "inputs": [
        {
          "internalType": "uint256",
          "name": "_amount",
          "type": "uint256"
        }
      ],
      "name": "buyTokens",
      "outputs": [
        {
          "internalType": "uint256",
          "name": "",
          "type": "uint256"
        }
      ],
      "stateMutability": "payable",
      "type": "function"
    }
  ],
  "bytecode": "0x60806040523480156200001157600080fd5b506040516200329c3803806200329c833981810160405281019062000037919062000408565b858581600390816200004a919062000723565b5080600490816200005c919062000723565b5050506000600560006101000a81548160ff0219169083151502179055506200009a6200008e6200010c60201b60201c565b6200011460201b60201c565b620000ab84620001da60201b60201c565b508260088190555085600a9081620000c4919062000723565b5081600960006101000a81548160ff02191690831515021790555080600960016101000a81548160ff021916908315150217905550836006819055505050505050506200080a565b600033905090565b6000600560019054906101000a900473ffffffffffffffffffffffffffffffffffffffff16905081600560016101000a81548173ffffffffffffffffffffffffffffffffffffffff021916908373ffffffffffffffffffffffffffffffffffffffff1602179055508173ffffffffffffffffffffffffffffffffffffffff168173ffffffffffffffffffffffffffffffffffffffff167f8be0079c531659141344cd1fd0a4f28419497f9722a3daafe3b4186f6b6457e060405160405180910390a35050565b6000808290506000811015620001ef57600080fd5b806006819055915050919050565b6000604051905090565b600080fd5b600080fd5b600080fd5b600080fd5b6000601f19601f8301169050919050565b7f4e487b7100000000000000000000000000000000000000000000000000000000600052604160045260246000fd5b62000266826200021b565b810181811067ffffffffffffffff821117156200028857620002876200022c565b5b80604052505050565b60006200029d620001fd565b9050620002ab82826200025b565b919050565b600067ffffffffffffffff821115620002ce57620002cd6200022c565b5b620002d9826200021b565b9050602081019050919050565b60005b8381101562000306578082015181840152602081019050620002e9565b60008484015250505050565b6000620003296200032384620002b0565b62000291565b90508281526020810184848401111562000348576200034762000216565b5b62000355848285620002e6565b509392505050565b600082601f83011262000375576200037462000211565b5b81516200038784826020860162000312565b91505092915050565b6000819050919050565b620003a58162000390565b8114620003b157600080fd5b50565b600081519050620003c5816200039a565b92915050565b60008115159050919050565b620003e281620003cb565b8114620003ee57600080fd5b50565b6000815190506200040281620003d7565b92915050565b60008060008060008060c0878903121562000428576200042762000207565b5b600087015167ffffffffffffffff8111156200044957620004486200020c565b5b6200045789828a016200035d565b965050602087015167ffffffffffffffff8111156200047b576200047a6200020c565b5b6200048989828a016200035d565b95505060406200049c89828a01620003b4565b9450506060620004af89828a01620003b4565b9350506080620004c289828a01620003f1565b92505060a0620004d589828a01620003f1565b9150509295509295509295565b600081519050919050565b7f4e487b7100000000000000000000000000000000000000000000000000000000600052602260045260246000fd5b600060028204905060018216806200053557607f821691505b6020821081036200054b576200054a620004ed565b5b50919050565b60008190508160005260206000209050919050565b60006020601f8301049050919050565b600082821b905092915050565b600060088302620005b57fffffffffffffffffffffffffffffffffffffffffffffffffffffffffffffffff8262000576565b620005c1868362000576565b95508019841693508086168417925050509392505050565b6000819050919050565b600062000604620005fe620005f88462000390565b620005d9565b62000390565b9050919050565b6000819050919050565b6200062083620005e3565b620006386200062f826200060b565b84845462000583565b825550505050565b600090565b6200064f62000640565b6200065c81848462000615565b505050565b5b8181101562000684576200067860008262000645565b60018101905062000662565b5050565b601f821115620006d3576200069d8162000551565b620006a88462000566565b81016020851015620006b8578190505b620006d0620006c78562000566565b83018262000661565b50505b505050565b600082821c905092915050565b6000620006f860001984600802620006d8565b1980831691505092915050565b6000620007138383620006e5565b9150826002028217905092915050565b6200072e82620004e2565b67ffffffffffffffff8111156200074a57620007496200022c565b5b6200075682546200051c565b6200076382828562000688565b600060209050601f8311600181146200079b576000841562000786578287015190505b62000792858262000705565b86555062000802565b601f198416620007ab8662000551565b60005b82811015620007d557848901518255600182019150602085019450602081019050620007ae565b86831015620007f55784890151620007f1601f891682620006e5565b8355505b6001600288020188555050505b505050505050565b612a82806200081a6000396000f3fe6080604052600436106101a05760003560e01c80635c975abb116100ec57806395d89b411161008a578063c4ae316811610064578063c4ae31681461060b578063d37e510414610636578063dd62ed3e14610661578063f2fde38b1461069e576101af565b806395d89b4114610566578063a457c2d714610591578063a9059cbb146105ce576101af565b8063715018a6116100c6578063715018a6146104d0578063778a56ce146104e757806379cc6790146105125780638da5cb5b1461053b576101af565b80635c975abb1461042b5780636f8b44b01461045657806370a0823114610493576101af565b8063313ce567116101595780633610724e116101335780633610724e1461036a578063395093511461039a57806342966c68146103d75780634a79d50c14610400576101af565b8063313ce567146102d757806332cb6b0c1461030257806334fcf4371461032d576101af565b806306fdde03146101b1578063095ea7b3146101dc57806318160ddd14610219578063201a49d61461024457806323b872dd1461026f5780632c4e722e146102ac576101af565b366101af576101ad6106c7565b005b005b3480156101bd57600080fd5b506101c66106e6565b6040516101d39190611d82565b60405180910390f35b3480156101e857600080fd5b5061020360048036038101906101fe9190611e3d565b610778565b6040516102109190611e98565b60405180910390f35b34801561022557600080fd5b5061022e610796565b60405161023b9190611ec2565b60405180910390f35b34801561025057600080fd5b506102596107a0565b6040516102669190611ec2565b60405180910390f35b34801561027b57600080fd5b5061029660048036038101906102919190611edd565b6107a6565b6040516102a39190611e98565b60405180910390f35b3480156102b857600080fd5b506102c161089e565b6040516102ce9190611ec2565b60405180910390f35b3480156102e357600080fd5b506102ec6108a4565b6040516102f99190611f4c565b60405180910390f35b34801561030e57600080fd5b506103176108ad565b6040516103249190611ec2565b60405180910390f35b34801561033957600080fd5b50610354600480360381019061034f9190611f67565b6108b3565b6040516103619190611ec2565b60405180910390f35b610384600480360381019061037f9190611f67565b610941565b6040516103919190611ec2565b60405180910390f35b3480156103a657600080fd5b506103c160048036038101906103bc9190611e3d565b6109c9565b6040516103ce9190611e98565b60405180910390f35b3480156103e357600080fd5b506103fe60048036038101906103f99190611f67565b610a75565b005b34801561040c57600080fd5b50610415610aa2565b6040516104229190611d82565b60405180910390f35b34801561043757600080fd5b50610440610b30565b60405161044d9190611e98565b60405180910390f35b34801561046257600080fd5b5061047d60048036038101906104789190611f67565b610b47565b60405161048a9190611ec2565b60405180910390f35b34801561049f57600080fd5b506104ba60048036038101906104b59190611f94565b610bd2565b6040516104c79190611ec2565b60405180910390f35b3480156104dc57600080fd5b506104e5610c1a565b005b3480156104f357600080fd5b506104fc610ca2565b6040516105099190611e98565b60405180910390f35b34801561051e57600080fd5b5061053960048036038101906105349190611e3d565b610d4e565b005b34801561054757600080fd5b50610550610dc9565b60405161055d9190611fd0565b60405180910390f35b34801561057257600080fd5b5061057b610df3565b6040516105889190611d82565b60405180910390f35b34801561059d57600080fd5b506105b860048036038101906105b39190611e3d565b610e85565b6040516105c59190611e98565b60405180910390f35b3480156105da57600080fd5b506105f560048036038101906105f09190611e3d565b610f70565b6040516106029190611e98565b60405180910390f35b34801561061757600080fd5b50610620610f8e565b60405161062d9190611e98565b60405180910390f35b34801561064257600080fd5b5061064b61103a565b6040516106589190611e98565b60405180910390f35b34801561066d57600080fd5b5061068860048036038101906106839190611feb565b611108565b6040516106959190611ec2565b60405180910390f35b3480156106aa57600080fd5b506106c560048036038101906106c09190611f94565b61118f565b005b6000600654346106d79190612089565b90506106e33382611286565b50565b6060600380546106f5906120e9565b80601f0160208091040260200160405190810160405280929190818152602001828054610721906120e9565b801561076e5780601f106107435761010080835404028352916020019161076e565b820191906000526020600020905b81548152906001019060200180831161075157829003601f168201915b5050505050905090565b600061078c6107856113e5565b84846113ed565b6001905092915050565b6000600254905090565b60075481565b60006107b38484846115b6565b6000600160008673ffffffffffffffffffffffffffffffffffffffff1673ffffffffffffffffffffffffffffffffffffffff16815260200190815260200160002060006107fe6113e5565b73ffffffffffffffffffffffffffffffffffffffff1673ffffffffffffffffffffffffffffffffffffffff1681526020019081526020016000205490508281101561087e576040517f08c379a00000000000000000000000000000000000000000000000000000000081526004016108759061218c565b60405180910390fd5b6108928561088a6113e5565b8584036113ed565b60019150509392505050565b60065481565b60006012905090565b60085481565b60006108bd6113e5565b73ffffffffffffffffffffffffffffffffffffffff166108db610dc9565b73ffffffffffffffffffffffffffffffffffffffff1614610931576040517f08c379a0000000000000000000000000000000000000000000000000000000008152600401610928906121f8565b60405180910390fd5b61093a82611835565b9050919050565b6000600654826109519190612218565b341161095c57600080fd5b6000670de0b6b3a7640000836109729190612218565b600754600854610982919061225a565b61098c919061225a565b101561099757600080fd5b6109b433670de0b6b3a7640000846109af9190612218565b611286565b600654826109c29190612218565b9050919050565b6000610a6b6109d66113e5565b8484600160006109e46113e5565b73ffffffffffffffffffffffffffffffffffffffff1673ffffffffffffffffffffffffffffffffffffffff16815260200190815260200160002060008873ffffffffffffffffffffffffffffffffffffffff1673ffffffffffffffffffffffffffffffffffffffff16815260200190815260200160002054610a66919061228e565b6113ed565b6001905092915050565b60001515600960009054906101000a900460ff16151503610a9557600080fd5b610a9f3382611857565b50565b600a8054610aaf906120e9565b80601f0160208091040260200160405190810160405280929190818152602001828054610adb906120e9565b8015610b285780601f10610afd57610100808354040283529160200191610b28565b820191906000526020600020905b815481529060010190602001808311610b0b57829003601f168201915b505050505081565b6000600560009054906101000a900460ff16905090565b6000610b516113e5565b73ffffffffffffffffffffffffffffffffffffffff16610b6f610dc9565b73ffffffffffffffffffffffffffffffffffffffff1614610bc5576040517f08c379a0000000000000000000000000000000000000000000000000000000008152600401610bbc906121f8565b60405180910390fd5b8160088190559050919050565b60008060008373ffffffffffffffffffffffffffffffffffffffff1673ffffffffffffffffffffffffffffffffffffffff168152602001908152602001600020549050919050565b610c226113e5565b73ffffffffffffffffffffffffffffffffffffffff16610c40610dc9565b73ffffffffffffffffffffffffffffffffffffffff1614610c96576040517f08c379a0000000000000000000000000000000000000000000000000000000008152600401610c8d906121f8565b60405180910390fd5b610ca06000611a2d565b565b6000610cac6113e5565b73ffffffffffffffffffffffffffffffffffffffff16610cca610dc9565b73ffffffffffffffffffffffffffffffffffffffff1614610d20576040517f08c379a0000000000000000000000000000000000000000000000000000000008152600401610d17906121f8565b60405180910390fd5b600960009054906101000a900460ff1615600960006101000a81548160ff0219169083151502179055905090565b6000610d6183610d5c6113e5565b611108565b905081811015610da6576040517f08c379a0000000000000000000000000000000000000000000000000000000008152600401610d9d90612334565b60405180910390fd5b610dba83610db26113e5565b8484036113ed565b610dc48383611857565b505050565b6000600560019054906101000a900473ffffffffffffffffffffffffffffffffffffffff16905090565b606060048054610e02906120e9565b80601f0160208091040260200160405190810160405280929190818152602001828054610e2e906120e9565b8015610e7b5780601f10610e5057610100808354040283529160200191610e7b565b820191906000526020600020905b815481529060010190602001808311610e5e57829003601f168201915b5050505050905090565b60008060016000610e946113e5565b73ffffffffffffffffffffffffffffffffffffffff1673ffffffffffffffffffffffffffffffffffffffff16815260200190815260200160002060008573ffffffffffffffffffffffffffffffffffffffff1673ffffffffffffffffffffffffffffffffffffffff16815260200190815260200160002054905082811015610f51576040517f08c379a0000000000000000000000000000000000000000000000000000000008152600401610f48906123c6565b60405180910390fd5b610f65610f5c6113e5565b858584036113ed565b600191505092915050565b6000610f84610f7d6113e5565b84846115b6565b6001905092915050565b6000610f986113e5565b73ffffffffffffffffffffffffffffffffffffffff16610fb6610dc9565b73ffffffffffffffffffffffffffffffffffffffff161461100c576040517f08c379a0000000000000000000000000000000000000000000000000000000008152600401611003906121f8565b60405180910390fd5b600960019054906101000a900460ff1615600960016101000a81548160ff0219169083151502179055905090565b60006110446113e5565b73ffffffffffffffffffffffffffffffffffffffff16611062610dc9565b73ffffffffffffffffffffffffffffffffffffffff16146110b8576040517f08c379a00000000000000000000000000000000000000000000000000000000081526004016110af906121f8565b60405180910390fd5b60001515600960019054906101000a900460ff161515036110d857600080fd5b6110e0610b30565b156110f2576110ed611af3565b6110fb565b6110fa611b95565b5b611103610b30565b905090565b6000600160008473ffffffffffffffffffffffffffffffffffffffff1673ffffffffffffffffffffffffffffffffffffffff16815260200190815260200160002060008373ffffffffffffffffffffffffffffffffffffffff1673ffffffffffffffffffffffffffffffffffffffff16815260200190815260200160002054905092915050565b6111976113e5565b73ffffffffffffffffffffffffffffffffffffffff166111b5610dc9565b73ffffffffffffffffffffffffffffffffffffffff161461120b576040517f08c379a0000000000000000000000000000000000000000000000000000000008152600401611202906121f8565b60405180910390fd5b600073ffffffffffffffffffffffffffffffffffffffff168173ffffffffffffffffffffffffffffffffffffffff160361127a576040517f08c379a000000000000000000000000000000000000000000000000000000000815260040161127190612458565b60405180910390fd5b61128381611a2d565b50565b600073ffffffffffffffffffffffffffffffffffffffff168273ffffffffffffffffffffffffffffffffffffffff16036112f5576040517f08c379a00000000000000000000000000000000000000000000000000000000081526004016112ec906124c4565b60405180910390fd5b61130160008383611c38565b8060026000828254611313919061228e565b92505081905550806000808473ffffffffffffffffffffffffffffffffffffffff1673ffffffffffffffffffffffffffffffffffffffff1681526020019081526020016000206000828254611368919061228e565b925050819055508173ffffffffffffffffffffffffffffffffffffffff16600073ffffffffffffffffffffffffffffffffffffffff167fddf252ad1be2c89b69c2b068fc378daa952ba7f163c4a11628f55a4df523b3ef836040516113cd9190611ec2565b60405180910390a36113e160008383611c90565b5050565b600033905090565b600073ffffffffffffffffffffffffffffffffffffffff168373ffffffffffffffffffffffffffffffffffffffff160361145c576040517f08c379a000000000000000000000000000000000000000000000000000000000815260040161145390612556565b60405180910390fd5b600073ffffffffffffffffffffffffffffffffffffffff168273ffffffffffffffffffffffffffffffffffffffff16036114cb576040517f08c379a00000000000000000000000000000000000000000000000000000000081526004016114c2906125e8565b60405180910390fd5b80600160008573ffffffffffffffffffffffffffffffffffffffff1673ffffffffffffffffffffffffffffffffffffffff16815260200190815260200160002060008473ffffffffffffffffffffffffffffffffffffffff1673ffffffffffffffffffffffffffffffffffffffff168152602001908152602001600020819055508173ffffffffffffffffffffffffffffffffffffffff168373ffffffffffffffffffffffffffffffffffffffff167f8c5be1e5ebec7d5bd14f71427d1e84f3dd0314c0f7b2291e5b200ac8c7c3b925836040516115a99190611ec2565b60405180910390a3505050565b600073ffffffffffffffffffffffffffffffffffffffff168373ffffffffffffffffffffffffffffffffffffffff1603611625576040517f08c379a000000000000000000000000000000000000000000000000000000000815260040161161c9061267a565b60405180910390fd5b600073ffffffffffffffffffffffffffffffffffffffff168273ffffffffffffffffffffffffffffffffffffffff1603611694576040517f08c379a000000000000000000000000000000000000000000000000000000000815260040161168b9061270c565b60405180910390fd5b61169f838383611c38565b60008060008573ffffffffffffffffffffffffffffffffffffffff1673ffffffffffffffffffffffffffffffffffffffff16815260200190815260200160002054905081811015611725576040517f08c379a000000000000000000000000000000000000000000000000000000000815260040161171c9061279e565b60405180910390fd5b8181036000808673ffffffffffffffffffffffffffffffffffffffff1673ffffffffffffffffffffffffffffffffffffffff16815260200190815260200160002081905550816000808573ffffffffffffffffffffffffffffffffffffffff1673ffffffffffffffffffffffffffffffffffffffff16815260200190815260200160002060008282546117b8919061228e565b925050819055508273ffffffffffffffffffffffffffffffffffffffff168473ffffffffffffffffffffffffffffffffffffffff167fddf252ad1be2c89b69c2b068fc378daa952ba7f163c4a11628f55a4df523b3ef8460405161181c9190611ec2565b60405180910390a361182f848484611c90565b50505050565b600080829050600081101561184957600080fd5b806006819055915050919050565b600073ffffffffffffffffffffffffffffffffffffffff168273ffffffffffffffffffffffffffffffffffffffff16036118c6576040517f08c379a00000000000000000000000000000000000000000000000000000000081526004016118bd90612830565b60405180910390fd5b6118d282600083611c38565b60008060008473ffffffffffffffffffffffffffffffffffffffff1673ffffffffffffffffffffffffffffffffffffffff16815260200190815260200160002054905081811015611958576040517f08c379a000000000000000000000000000000000000000000000000000000000815260040161194f906128c2565b60405180910390fd5b8181036000808573ffffffffffffffffffffffffffffffffffffffff1673ffffffffffffffffffffffffffffffffffffffff1681526020019081526020016000208190555081600260008282546119af919061225a565b92505081905550600073ffffffffffffffffffffffffffffffffffffffff168373ffffffffffffffffffffffffffffffffffffffff167fddf252ad1be2c89b69c2b068fc378daa952ba7f163c4a11628f55a4df523b3ef84604051611a149190611ec2565b60405180910390a3611a2883600084611c90565b505050565b6000600560019054906101000a900473ffffffffffffffffffffffffffffffffffffffff16905081600560016101000a81548173ffffffffffffffffffffffffffffffffffffffff021916908373ffffffffffffffffffffffffffffffffffffffff1602179055508173ffffffffffffffffffffffffffffffffffffffff168173ffffffffffffffffffffffffffffffffffffffff167f8be0079c531659141344cd1fd0a4f28419497f9722a3daafe3b4186f6b6457e060405160405180910390a35050565b611afb610b30565b611b3a576040517f08c379a0000000000000000000000000000000000000000000000000000000008152600401611b319061292e565b60405180910390fd5b6000600560006101000a81548160ff0219169083151502179055507f5db9ee0a495bf2e6ff9c91a7834c1ba4fdd244a5e8aa4e537bd38aeae4b073aa611b7e6113e5565b604051611b8b9190611fd0565b60405180910390a1565b611b9d610b30565b15611bdd576040517f08c379a0000000000000000000000000000000000000000000000000000000008152600401611bd49061299a565b60405180910390fd5b6001600560006101000a81548160ff0219169083151502179055507f62e78cea01bee320cd4e420270b5ea74000d11b0c9f74754ebdbfc544b05a258611c216113e5565b604051611c2e9190611fd0565b60405180910390a1565b611c40610b30565b15611c80576040517f08c379a0000000000000000000000000000000000000000000000000000000008152600401611c779061299a565b60405180910390fd5b611c8b838383611c95565b505050565b505050565b611ca0838383611ced565b611ca8610b30565b15611ce8576040517f08c379a0000000000000000000000000000000000000000000000000000000008152600401611cdf90612a2c565b60405180910390fd5b505050565b505050565b600081519050919050565b600082825260208201905092915050565b60005b83811015611d2c578082015181840152602081019050611d11565b60008484015250505050565b6000601f19601f8301169050919050565b6000611d5482611cf2565b611d5e8185611cfd565b9350611d6e818560208601611d0e565b611d7781611d38565b840191505092915050565b60006020820190508181036000830152611d9c8184611d49565b905092915050565b600080fd5b600073ffffffffffffffffffffffffffffffffffffffff82169050919050565b6000611dd482611da9565b9050919050565b611de481611dc9565b8114611def57600080fd5b50565b600081359050611e0181611ddb565b92915050565b6000819050919050565b611e1a81611e07565b8114611e2557600080fd5b50565b600081359050611e3781611e11565b92915050565b60008060408385031215611e5457611e53611da4565b5b6000611e6285828601611df2565b9250506020611e7385828601611e28565b9150509250929050565b60008115159050919050565b611e9281611e7d565b82525050565b6000602082019050611ead6000830184611e89565b92915050565b611ebc81611e07565b82525050565b6000602082019050611ed76000830184611eb3565b92915050565b600080600060608486031215611ef657611ef5611da4565b5b6000611f0486828701611df2565b9350506020611f1586828701611df2565b9250506040611f2686828701611e28565b9150509250925092565b600060ff82169050919050565b611f4681611f30565b82525050565b6000602082019050611f616000830184611f3d565b92915050565b600060208284031215611f7d57611f7c611da4565b5b6000611f8b84828501611e28565b91505092915050565b600060208284031215611faa57611fa9611da4565b5b6000611fb884828501611df2565b91505092915050565b611fca81611dc9565b82525050565b6000602082019050611fe56000830184611fc1565b92915050565b6000806040838503121561200257612001611da4565b5b600061201085828601611df2565b925050602061202185828601611df2565b9150509250929050565b7f4e487b7100000000000000000000000000000000000000000000000000000000600052601260045260246000fd5b7f4e487b7100000000000000000000000000000000000000000000000000000000600052601160045260246000fd5b600061209482611e07565b915061209f83611e07565b9250826120af576120ae61202b565b5b828204905092915050565b7f4e487b7100000000000000000000000000000000000000000000000000000000600052602260045260246000fd5b6000600282049050600182168061210157607f821691505b602082108103612114576121136120ba565b5b50919050565b7f45524332303a207472616e7366657220616d6f756e742065786365656473206160008201527f6c6c6f77616e6365000000000000000000000000000000000000000000000000602082015250565b6000612176602883611cfd565b91506121818261211a565b604082019050919050565b600060208201905081810360008301526121a581612169565b9050919050565b7f4f776e61626c653a2063616c6c6572206973206e6f7420746865206f776e6572600082015250565b60006121e2602083611cfd565b91506121ed826121ac565b602082019050919050565b60006020820190508181036000830152612211816121d5565b9050919050565b600061222382611e07565b915061222e83611e07565b925082820261223c81611e07565b915082820484148315176122535761225261205a565b5b5092915050565b600061226582611e07565b915061227083611e07565b92508282039050818111156122885761228761205a565b5b92915050565b600061229982611e07565b91506122a483611e07565b92508282019050808211156122bc576122bb61205a565b5b92915050565b7f45524332303a206275726e20616d6f756e74206578636565647320616c6c6f7760008201527f616e636500000000000000000000000000000000000000000000000000000000602082015250565b600061231e602483611cfd565b9150612329826122c2565b604082019050919050565b6000602082019050818103600083015261234d81612311565b9050919050565b7f45524332303a2064656372656173656420616c6c6f77616e63652062656c6f7760008201527f207a65726f000000000000000000000000000000000000000000000000000000602082015250565b60006123b0602583611cfd565b91506123bb82612354565b604082019050919050565b600060208201905081810360008301526123df816123a3565b9050919050565b7f4f776e61626c653a206e6577206f776e657220697320746865207a65726f206160008201527f6464726573730000000000000000000000000000000000000000000000000000602082015250565b6000612442602683611cfd565b915061244d826123e6565b604082019050919050565b6000602082019050818103600083015261247181612435565b9050919050565b7f45524332303a206d696e7420746f20746865207a65726f206164647265737300600082015250565b60006124ae601f83611cfd565b91506124b982612478565b602082019050919050565b600060208201905081810360008301526124dd816124a1565b9050919050565b7f45524332303a20617070726f76652066726f6d20746865207a65726f2061646460008201527f7265737300000000000000000000000000000000000000000000000000000000602082015250565b6000612540602483611cfd565b915061254b826124e4565b604082019050919050565b6000602082019050818103600083015261256f81612533565b9050919050565b7f45524332303a20617070726f766520746f20746865207a65726f20616464726560008201527f7373000000000000000000000000000000000000000000000000000000000000602082015250565b60006125d2602283611cfd565b91506125dd82612576565b604082019050919050565b60006020820190508181036000830152612601816125c5565b9050919050565b7f45524332303a207472616e736665722066726f6d20746865207a65726f20616460008201527f6472657373000000000000000000000000000000000000000000000000000000602082015250565b6000612664602583611cfd565b915061266f82612608565b604082019050919050565b6000602082019050818103600083015261269381612657565b9050919050565b7f45524332303a207472616e7366657220746f20746865207a65726f206164647260008201527f6573730000000000000000000000000000000000000000000000000000000000602082015250565b60006126f6602383611cfd565b91506127018261269a565b604082019050919050565b60006020820190508181036000830152612725816126e9565b9050919050565b7f45524332303a207472616e7366657220616d6f756e742065786365656473206260008201527f616c616e63650000000000000000000000000000000000000000000000000000602082015250565b6000612788602683611cfd565b91506127938261272c565b604082019050919050565b600060208201905081810360008301526127b78161277b565b9050919050565b7f45524332303a206275726e2066726f6d20746865207a65726f2061646472657360008201527f7300000000000000000000000000000000000000000000000000000000000000602082015250565b600061281a602183611cfd565b9150612825826127be565b604082019050919050565b600060208201905081810360008301526128498161280d565b9050919050565b7f45524332303a206275726e20616d6f756e7420657863656564732062616c616e60008201527f6365000000000000000000000000000000000000000000000000000000000000602082015250565b60006128ac602283611cfd565b91506128b782612850565b604082019050919050565b600060208201905081810360008301526128db8161289f565b9050919050565b7f5061757361626c653a206e6f7420706175736564000000000000000000000000600082015250565b6000612918601483611cfd565b9150612923826128e2565b602082019050919050565b600060208201905081810360008301526129478161290b565b9050919050565b7f5061757361626c653a2070617573656400000000000000000000000000000000600082015250565b6000612984601083611cfd565b915061298f8261294e565b602082019050919050565b600060208201905081810360008301526129b381612977565b9050919050565b7f45524332305061757361626c653a20746f6b656e207472616e7366657220776860008201527f696c652070617573656400000000000000000000000000000000000000000000602082015250565b6000612a16602a83611cfd565b9150612a21826129ba565b604082019050919050565b60006020820190508181036000830152612a4581612a09565b905091905056fea264697066735822122063b41ee03df4a4b929bccc3be94939c9ad18c8106f563b85f3f1fd584544289964736f6c63430008110033",
  "immutableReferences": {},
  "source": "// SPDX-License-Identifier: GPL-3.0\n// // // // // // // // // // // // // // // // // // // // // // // // // // // // // // // // // // // // // // // // // // // // // // // // // // // // // // // // // // // // //\n//\n//      MMWKd:..                                                                                    ..:dKWMM\n//      MKl.                                                                                            .lKW\n//      O'       ..''''''''''''.     .''''''.     .'''''.      .''''''''''''''.     .''''''''''''..       'O\n//      '     .ckKNNWNWWWWWWWWWk.   .xNWWNWNl    ,0WWWWW0,     lNWWWWWWWWWNWNk'    ;0NNNWWWWWWWWNNKkc.     '\n//           ,OWMMMMMMMMMMMMMMMO.   .kMMMMMWl    ,KMMMMMK,     lWMMMMMMMMMMM0,    ;KMMMMMMMMMMMMMMMMWO,\n//          .kMMMMMMMMMMMMMMMMMO.   .kMMMMMWl    ,KMMMMMK,     lWMMMMMMMMMM0,    ;KMMMMMMMMMMMMMMMMMMMk.\n//          '0MMMMMMMMMMMMMMMMMO.   .kMMMMMWl    ,KMMMMMK,     lWMMMMMMMMM0,    :KMMMMMMMMMMMMMMMMMMMM0'\n//          '0MMMMMMMMMMMMMMMMMO.   .kMMMMMWl    ,KMMMMMK,     lWMMMMMMMM0,    :KMMMMMMMMMMMMMMMMMMMMM0'\n//          '0MMMMMMMMMMMMMMMMMO.   .kMMMMMWl    ,KMMMMMK,     lWMMMMMMM0,    ;0NNWWMMMMMMMMMMMMMMMMMM0'\n//          '0MMMMMMMMMMMMMMMMMO.   .kMMMMMWl    ,KMMMMMK,     lWMMMMMM0,     .'.',;lkNMMMMMMMMMMMMMMM0'\n//          '0MMMMMMMMMMMMMMMMMO.   .kMMMMMWl    ,KMMMMMK,     lWMMMMMK;              ,kWMMMMMMMMMMMMM0'\n//          '0MMMMMMMMMMMMMMMMMO.   .kMMMMMWl    ,KMMMMMK,     lWMMMMX:    .:oxxdc'    .dWMMMMMMMMMMMM0'\n//          '0MMMMMMMMMMMMMMMMMO.   .kMMMMMWl    ,KMMMMMK,     lWMMMWd.   ,OWMMMMMXl.   '0MMMMMMMMMMMM0'\n//          '0MMMMMMMMMMMMMMMMMO.   .kMMMMMWl    ,KMMMMMK,     lWMMMX;   .kMMMMMMMMK,   .xMMMMMMMMMMMM0'\n//          '0MMMMMMMMMMMMMMMMMO.   .kMMMMMWl    ,KMMMMMK,     lWMMM0'   .OMMMMMMMMX;   .xMMMMMMMMMMMM0'\n//          .OMMMMMMMMMMMMMMMMMO.   .kMMMMMWl    ,KMMMMMK,     lWMMMK,    lNMMMMMMWx.   '0MMMMMMMMMMMMO.\n//           lNMMMMMMMMMMMMMMMMO.   .kMMMMMWl    ,KMMMMMK,     lWMMMWd.   .:x0KKKkc.   .dWMMMMMMMMMMMNl\n//      .    .c0WMMMMMMMMMMMMMMO.   .kMMMMMWo    ,KMMMMMK,     lWMMMMNd.     ....     .xNMMMMMMMMMMW0c.    .\n//      l      .,lddxxxxxxxxxxxc.    :xxxxxd,    .lxxxxxl.     ,dxxxxxd:.            .cdxxxxxxxxddl,.      l\n//      No.                                                                                              .oN\n//      MW0l'                                                                                          'l0WM\n//      MMMWKd;.                                                                                    .;dKWMMM\n//\n// // // // // // // // // // // // // // // // // // // // // // // // // // // // // // // // // // // // // // // // // // // // // // // // // // // // // // // // // // // // //\n//                                                                                                                                                                                  //\n//      @dev            ::              Aron Mauritala Ayuk                                                                                                                                          //\n//      @msg            ::              stereo@iii6.xyz                                                                                                                                   //\n//      @github         ::              @stereoIII6\n//      @twitter        ::              @stereoIII6                                                                                                                                              //\n//                                                                                                                                                                                  //\n// // // // // // // // // // // // // // // // // // // // // // // // // // // // // // // // // // // // // // // // // // // // // // // // // // // // // // // // // // // // //\n//                                                                                                                                                                                  //\n//      @dev            ::              Juan Xavier Valverde                                                                                                                                    //\n//      @msg            ::              juanxavier@iii6.xyz                                                                                                                               //\n//      @twitter        ::              @JuanXavier                                                                                                                                             //\n//      @github         ::              @JuanXavier                                                                                                                                             //\n//                                                                                                                                                                                  //                                                                                                                                                                                 //\n// // // // // // // // // // // // // // // // // // // // // // // // // // // // // // // // // // // // // // // // // // // // // // // // // // // // // // // // // // // // //\n//  *   *   *   *   *   *   *   *   *   *   *   *   *   *   *   *   *   *   *   *   *   *   *   *   *   *   *   *   *   *   *   *   *   *   *   *   *   *   *   *   *   *   *   *   //\n// // // // // // // // // // // // // // // // // // // // // // // // // // // // // // // // // // // // // // // // // // // // // // // // // // // // // // // // // // // // //\n//                                                                                                                                                                                  //\n//      @company        ::              Fractio Holding                                                                                                                                                                       //\n//      @title          ::              iii6 Coin Model                                                                                                                            //\n//      @description    ::              ERC20 Model Preset Contract                                                                                                                           //\n//      @version        ::              0.0.1                                                                                                                                       //\n//      @purpose        ::              ERC20 Model Preset                                                                                                          //\n//                                                                                                                                                                                  //\n//                                                                                                                                                                                  //\n//                                                                                                                                                                                  //\n//                                                                                                                                                                                  //\n//                                                                                                                                                                                  //\n// // // // // // // // // // // // // // // // // // // // // // // // // // // // // // // // // // // // // // // // // // // // // // // // // // // // // // // // // // // // //\n//  *   *   *   *   *   *   *   *   *   *   *   *   *   *   *   *   *   *   *   *   *   *   *   *   *   *   *   *   *   *   *   *   *   *   *   *   *   *   *   *   *   *   *   *   //\n// // // // // // // // // // // // // // // // // // // // // // // // // // // // // // // // // // // // // // // // // // // // // // // // // // // // // // // // // // // // //\n\n/////////////////////////////////////////////////////////////////////////////////////////////////////////////////////\n\n/////////////////////////////////////////////////////////////////////////////////////////////////////////////////////\n\npragma solidity ^0.8.7;\n\nimport \"@openzeppelin/contracts/token/ERC20/ERC20.sol\";\nimport \"@openzeppelin/contracts/access/Ownable.sol\";\nimport \"@openzeppelin/contracts/token/ERC20/extensions/ERC20Burnable.sol\";\nimport \"@openzeppelin/contracts/token/ERC20/extensions/ERC20Pausable.sol\";\nimport \"../Oracles/iii6PriceConsumer.sol\";\nimport \"../Math/iii6PriceMath.sol\";\nimport \"../Wallets/iii6Safes.sol\";\nimport \"../Misc/iii6Misc.sol\";\n\ncontract iii6CoinModel is\n    ERC20,\n    ERC20Pausable,\n    ERC20Burnable,\n    Ownable,\n    iii6Misc\n{\n    /**\n     * @dev this contract is a factory contract to deploy iii6CoinModel & iii6DiaModel\n     */\n    // \n    // \n    // \n    // \n    // \n    // \n    /**\n     * @dev declaration of storage vars\n     */\n    uint256 public rate;\n    uint256 public PUB_SUPPLY;\n    uint256 public MAX_SUPPLY;\n    bool private burns;\n    bool private pauses;\n    string public title;\n\n    /**\n     * @dev declaration of enums structs and arrays\n     */\n\n    /**\n     * @dev creates an instance of iii6CoinModel\n     * @param _name token name\n     * @param _sym token symbol\n     * @param _rate token rate\n     * @param _supply max token supply // if 0-infinte\n     * @param _burn bool burnable\n     * @param _pause bool pauseble\n     */\n    constructor(\n        string memory _name, // Token Name\n        string memory _sym, // Token Symbol\n        uint256 _rate, // Token Price in USD // 100 == 1 usd // 100000 = 1ETH\n        uint256 _supply, // Token Max Supply\n        bool _burn, // Burnable Option\n        bool _pause\n    ) ERC20(_name, _sym) {\n        _setRate(_rate); /** @dev see _setRate() :: line138 */\n        MAX_SUPPLY = _supply;\n        title = _name;\n        burns = _burn;\n        pauses = _pause;\n        rate = _rate; /** @dev see Rates{} :: line97 */\n    }\n\n    // \n    // \n    // \n    // \n    // \n    // \n\n    /**\n     * @dev sets token price in denomination currency ocoin\n     * @param _newRate token price in $ocoin (denomination currency)\n     * denomination currency can be set in setCurr()\n     * @return uint256 rate in gascoin\n     */\n    function _setRate(uint256 _newRate) internal returns (uint256) {\n        uint256 gP = _newRate;\n        if (gP < 0) revert();\n        return rate = gP;\n    }\n\n    /**\n     * @dev overrides ERC20 & ERC20Pausable\n     */\n    function _beforeTokenTransfer(\n        address from,\n        address to,\n        uint256 amount\n    ) internal override(ERC20, ERC20Pausable) whenNotPaused {\n        super._beforeTokenTransfer(from, to, amount);\n    }\n\n    // \n    // \n    // \n    // \n    // \n    // \n\n    /**\n     * @dev sets the rate of currency in denomination currency\n     * @dev check the ocoin for its state to determine what value to type in\n     * @param // EXTERNAL\n     * @param _rate  ocoin (denomination currency) // 0-eth 1-gascoin 2-xCur 2-yCur >4-usdc\n     * denomination currency can be set in setCurr()\n     * @return _setRate // ocoin name as enum Coins\n     */\n    function setRate(uint256 _rate) external onlyOwner returns (uint256) {\n        return _setRate(_rate);\n    }\n\n    /**\n     * @dev sets the max supply\n     * @param // EXTERNAL only owner\n     * @param _newSupply  ocoin (denomination currency) // 0-eth 1-gascoin 2-xCur 2-yCur >4-usdc\n     * denomination currency can be set in setCurr()\n     * @return Max Supply\n     */\n    function setMaxSupply(uint256 _newSupply)\n        external\n        onlyOwner\n        returns (uint256)\n    {\n        return MAX_SUPPLY = _newSupply;\n    }\n\n    /**\n     * @dev burn function for token holders only for burnable contracts\n     * @param _amount of tokens to burn // EXTERNAL\n     */\n    function burn(uint256 _amount) public override {\n        if (burns == false) revert();\n        _burn(msg.sender, _amount);\n    }\n\n    /**\n     * @dev toggle the pausable functionality on the contract\n     * @return pausable state of contract\n     */\n    function togglePause() public onlyOwner returns (bool) {\n        return pauses = !pauses;\n    }\n\n    /**\n     * @dev toggle the burnable functionality on the contract\n     * @return burnable state of contract\n     */\n    function toggleBurn() public onlyOwner returns (bool) {\n        return burns = !burns;\n    }\n\n    /**\n     * @dev if contract pauses the state get checked and toggled via condition to opposite state\n     * @return active state of contract (true = paused / false = active)\n     */\n    function toggleState() public onlyOwner returns (bool) {\n        if (pauses == false) revert();\n        if (paused()) _unpause();\n        else _pause();\n        return paused();\n    }\n\n    /**\n     * @dev buy function for token holders\n     * @param _amount of tokens to mint // EXTERNAL\n     * @return uint total price\n     */\n    function buyTokens(uint256 _amount) external payable returns (uint256) {\n        if (msg.value <= _amount * rate) revert();\n        if ((MAX_SUPPLY - PUB_SUPPLY) - (_amount * 10**18) < 0) revert();\n        _mint(msg.sender, _amount * 10**18);\n        return _amount * rate;\n    }\n\n    /**\n     * @dev recieve function returns tokens on gascoin transfer to contract\n     */\n\n    receive() external payable {\n        // condition\n        _rcMint();\n    }\n\n    /**\n     * @dev recieve function returns tokens on gascoin and/or tokens transfer to contract\n     */\n    fallback() external payable {\n        // condition\n        // _rcMint();\n    }\n\n    /**\n     * @dev does mint  in exchange for gascoin action on recieve() and fallback()\n     */\n    function _rcMint() internal {\n        uint256 amount = msg.value / rate;\n        _mint(msg.sender, amount);\n    }\n}\n\ncontract iii6CoinModelDrop is iii6CoinModel {\n    /**\n     * @dev creates an instance of iii6CoinModel\n     * @param _name token name\n     * @param _sym token symbol\n     * @param _rate token rate\n     * @param _supply max token supply // if 0-infinte\n     * @param _burn bool burnable\n     * @param _pause bool pauseble\n     * @param _curr denomintaor currency // 0-eth 1-gascoin 2-xCur 2-yCur >4-usdc\n     */\n    constructor(\n        string memory _name,\n        string memory _sym,\n        uint256 _rate,\n        uint256 _supply,\n        bool _burn,\n        bool _pause,\n        uint256 _curr\n    ) iii6CoinModel(_name, _sym, _rate, _supply, _burn, _pause) {}\n\n    /**\n     * @dev Drops users 100 Full Tokens For testnets only\n     */\n    function dropToken() external {\n        _mint(msg.sender, 100 * 10**18);\n    }\n}\n// // // // // // // // // // // // // // // // // // // // // // // // // // // // // // // // // // // // // // // // // // // // // // // // // // // // // // // // // // // // //\n//\n//      MMWKd:..                                                                                    ..:dKWMM\n//      MKl.                                                                                            .lKW\n//      O'       ..''''''''''''.     .''''''.     .'''''.      .''''''''''''''.     .''''''''''''..       'O\n//      '     .ckKNNWNWWWWWWWWWk.   .xNWWNWNl    ,0WWWWW0,     lNWWWWWWWWWNWNk'    ;0NNNWWWWWWWWNNKkc.     '\n//           ,OWMMMMMMMMMMMMMMMO.   .kMMMMMWl    ,KMMMMMK,     lWMMMMMMMMMMM0,    ;KMMMMMMMMMMMMMMMMWO,\n//          .kMMMMMMMMMMMMMMMMMO.   .kMMMMMWl    ,KMMMMMK,     lWMMMMMMMMMM0,    ;KMMMMMMMMMMMMMMMMMMMk.\n//          '0MMMMMMMMMMMMMMMMMO.   .kMMMMMWl    ,KMMMMMK,     lWMMMMMMMMM0,    :KMMMMMMMMMMMMMMMMMMMM0'\n//          '0MMMMMMMMMMMMMMMMMO.   .kMMMMMWl    ,KMMMMMK,     lWMMMMMMMM0,    :KMMMMMMMMMMMMMMMMMMMMM0'\n//          '0MMMMMMMMMMMMMMMMMO.   .kMMMMMWl    ,KMMMMMK,     lWMMMMMMM0,    ;0NNWWMMMMMMMMMMMMMMMMMM0'\n//          '0MMMMMMMMMMMMMMMMMO.   .kMMMMMWl    ,KMMMMMK,     lWMMMMMM0,     .'.',;lkNMMMMMMMMMMMMMMM0'\n//          '0MMMMMMMMMMMMMMMMMO.   .kMMMMMWl    ,KMMMMMK,     lWMMMMMK;              ,kWMMMMMMMMMMMMM0'\n//          '0MMMMMMMMMMMMMMMMMO.   .kMMMMMWl    ,KMMMMMK,     lWMMMMX:    .:oxxdc'    .dWMMMMMMMMMMMM0'\n//          '0MMMMMMMMMMMMMMMMMO.   .kMMMMMWl    ,KMMMMMK,     lWMMMWd.   ,OWMMMMMXl.   '0MMMMMMMMMMMM0'\n//          '0MMMMMMMMMMMMMMMMMO.   .kMMMMMWl    ,KMMMMMK,     lWMMMX;   .kMMMMMMMMK,   .xMMMMMMMMMMMM0'\n//          '0MMMMMMMMMMMMMMMMMO.   .kMMMMMWl    ,KMMMMMK,     lWMMM0'   .OMMMMMMMMX;   .xMMMMMMMMMMMM0'\n//          .OMMMMMMMMMMMMMMMMMO.   .kMMMMMWl    ,KMMMMMK,     lWMMMK,    lNMMMMMMWx.   '0MMMMMMMMMMMMO.\n//           lNMMMMMMMMMMMMMMMMO.   .kMMMMMWl    ,KMMMMMK,     lWMMMWd.   .:x0KKKkc.   .dWMMMMMMMMMMMNl\n//      .    .c0WMMMMMMMMMMMMMMO.   .kMMMMMWo    ,KMMMMMK,     lWMMMMNd.     ....     .xNMMMMMMMMMMW0c.    .\n//      l      .,lddxxxxxxxxxxxc.    :xxxxxd,    .lxxxxxl.     ,dxxxxxd:.            .cdxxxxxxxxddl,.      l\n//      No.                                                                                              .oN\n//      MW0l'                                                                                          'l0WM\n//      MMMWKd;.                                                                                    .;dKWMMM\n//\n// // // // // // // // // // // // // // // // // // // // // // // // // // // // // // // // // // // // // // // // // // // // // // // // // // // // // // // // // // // // //\n",
  "sourcePath": "/Users/iii6/Documents/GitHub/III6Dojo/contracts/iii6Utils/Assets/iii6CoinModel.sol",
  "compiler": {
    "name": "solc",
    "version": "0.8.17+commit.8df45f5f.Emscripten.clang"
  },
  "schemaVersion": "3.4.8",
  "updatedAt": "2023-03-16T00:54:35.176Z",
  "devdoc": {
    "kind": "dev",
    "methods": {
      "allowance(address,address)": {
        "details": "See {IERC20-allowance}."
      },
      "approve(address,uint256)": {
        "details": "See {IERC20-approve}. Requirements: - `spender` cannot be the zero address."
      },
      "balanceOf(address)": {
        "details": "See {IERC20-balanceOf}."
      },
      "burn(uint256)": {
        "details": "burn function for token holders only for burnable contracts",
        "params": {
          "_amount": "of tokens to burn // EXTERNAL"
        }
      },
      "burnFrom(address,uint256)": {
        "details": "Destroys `amount` tokens from `account`, deducting from the caller's allowance. See {ERC20-_burn} and {ERC20-allowance}. Requirements: - the caller must have allowance for ``accounts``'s tokens of at least `amount`."
      },
      "buyTokens(uint256)": {
        "details": "buy function for token holders",
        "params": {
          "_amount": "of tokens to mint // EXTERNAL"
        },
        "returns": {
          "_0": "uint total price"
        }
      },
      "constructor": {
        "details": "creates an instance of iii6CoinModel",
        "params": {
          "_burn": "bool burnable",
          "_name": "token name",
          "_pause": "bool pauseble",
          "_rate": "token rate",
          "_supply": "max token supply // if 0-infinte",
          "_sym": "token symbol"
        }
      },
      "decimals()": {
        "details": "Returns the number of decimals used to get its user representation. For example, if `decimals` equals `2`, a balance of `505` tokens should be displayed to a user as `5.05` (`505 / 10 ** 2`). Tokens usually opt for a value of 18, imitating the relationship between Ether and Wei. This is the value {ERC20} uses, unless this function is overridden; NOTE: This information is only used for _display_ purposes: it in no way affects any of the arithmetic of the contract, including {IERC20-balanceOf} and {IERC20-transfer}."
      },
      "decreaseAllowance(address,uint256)": {
        "details": "Atomically decreases the allowance granted to `spender` by the caller. This is an alternative to {approve} that can be used as a mitigation for problems described in {IERC20-approve}. Emits an {Approval} event indicating the updated allowance. Requirements: - `spender` cannot be the zero address. - `spender` must have allowance for the caller of at least `subtractedValue`."
      },
      "increaseAllowance(address,uint256)": {
        "details": "Atomically increases the allowance granted to `spender` by the caller. This is an alternative to {approve} that can be used as a mitigation for problems described in {IERC20-approve}. Emits an {Approval} event indicating the updated allowance. Requirements: - `spender` cannot be the zero address."
      },
      "name()": {
        "details": "Returns the name of the token."
      },
      "owner()": {
        "details": "Returns the address of the current owner."
      },
      "paused()": {
        "details": "Returns true if the contract is paused, and false otherwise."
      },
      "renounceOwnership()": {
        "details": "Leaves the contract without owner. It will not be possible to call `onlyOwner` functions anymore. Can only be called by the current owner. NOTE: Renouncing ownership will leave the contract without an owner, thereby removing any functionality that is only available to the owner."
      },
      "setMaxSupply(uint256)": {
        "details": "sets the max supply",
        "params": {
          "": "// EXTERNAL only owner",
          "_newSupply": "ocoin (denomination currency) // 0-eth 1-gascoin 2-xCur 2-yCur >4-usdc denomination currency can be set in setCurr()"
        },
        "returns": {
          "_0": "Max Supply"
        }
      },
      "setRate(uint256)": {
        "details": "sets the rate of currency in denomination currencycheck the ocoin for its state to determine what value to type in",
        "params": {
          "": "// EXTERNAL",
          "_rate": "ocoin (denomination currency) // 0-eth 1-gascoin 2-xCur 2-yCur >4-usdc denomination currency can be set in setCurr()"
        },
        "returns": {
          "_0": "_setRate // ocoin name as enum Coins"
        }
      },
      "symbol()": {
        "details": "Returns the symbol of the token, usually a shorter version of the name."
      },
      "toggleBurn()": {
        "details": "toggle the burnable functionality on the contract",
        "returns": {
          "_0": "burnable state of contract"
        }
      },
      "togglePause()": {
        "details": "toggle the pausable functionality on the contract",
        "returns": {
          "_0": "pausable state of contract"
        }
      },
      "toggleState()": {
        "details": "if contract pauses the state get checked and toggled via condition to opposite state",
        "returns": {
          "_0": "active state of contract (true = paused / false = active)"
        }
      },
      "totalSupply()": {
        "details": "See {IERC20-totalSupply}."
      },
      "transfer(address,uint256)": {
        "details": "See {IERC20-transfer}. Requirements: - `recipient` cannot be the zero address. - the caller must have a balance of at least `amount`."
      },
      "transferFrom(address,address,uint256)": {
        "details": "See {IERC20-transferFrom}. Emits an {Approval} event indicating the updated allowance. This is not required by the EIP. See the note at the beginning of {ERC20}. Requirements: - `sender` and `recipient` cannot be the zero address. - `sender` must have a balance of at least `amount`. - the caller must have allowance for ``sender``'s tokens of at least `amount`."
      },
      "transferOwnership(address)": {
        "details": "Transfers ownership of the contract to a new account (`newOwner`). Can only be called by the current owner."
      }
    },
    "stateVariables": {
      "rate": {
        "details": "declaration of storage vars"
      }
    },
    "version": 1
  },
  "userdoc": {
    "kind": "user",
    "methods": {},
    "version": 1
  }
}