{
  "contractName": "iii6PriceConsumer",
  "abi": [
    {
      "inputs": [],
      "stateMutability": "nonpayable",
      "type": "constructor"
    },
    {
      "inputs": [],
      "name": "WethUsdPrice",
      "outputs": [
        {
          "internalType": "int256",
          "name": "priceFull",
          "type": "int256"
        }
      ],
      "stateMutability": "view",
      "type": "function"
    },
    {
      "inputs": [],
      "name": "CoinUsdPrice",
      "outputs": [
        {
          "internalType": "int256",
          "name": "priceFull",
          "type": "int256"
        }
      ],
      "stateMutability": "view",
      "type": "function"
    },
    {
      "inputs": [
        {
          "internalType": "address",
          "name": "_oracle",
          "type": "address"
        },
        {
          "internalType": "uint256",
          "name": "_digits",
          "type": "uint256"
        }
      ],
      "name": "setX",
      "outputs": [
        {
          "internalType": "bool",
          "name": "",
          "type": "bool"
        }
      ],
      "stateMutability": "nonpayable",
      "type": "function"
    },
    {
      "inputs": [],
      "name": "XUsdPrice",
      "outputs": [
        {
          "internalType": "int256",
          "name": "priceFull",
          "type": "int256"
        }
      ],
      "stateMutability": "view",
      "type": "function"
    },
    {
      "inputs": [
        {
          "internalType": "address",
          "name": "_oracle",
          "type": "address"
        },
        {
          "internalType": "uint256",
          "name": "_digits",
          "type": "uint256"
        }
      ],
      "name": "setY",
      "outputs": [
        {
          "internalType": "bool",
          "name": "",
          "type": "bool"
        }
      ],
      "stateMutability": "nonpayable",
      "type": "function"
    },
    {
      "inputs": [],
      "name": "YUsdPrice",
      "outputs": [
        {
          "internalType": "int256",
          "name": "priceFull",
          "type": "int256"
        }
      ],
      "stateMutability": "view",
      "type": "function"
    }
  ],
  "bytecode": "0x60806040523480156200001157600080fd5b5060014603620000ca57735f4ec3df9cbd43714fe2740f5e3616155c5b84196000806101000a81548173ffffffffffffffffffffffffffffffffffffffff021916908373ffffffffffffffffffffffffffffffffffffffff160217905550735f4ec3df9cbd43714fe2740f5e3616155c5b8419600160006101000a81548173ffffffffffffffffffffffffffffffffffffffff021916908373ffffffffffffffffffffffffffffffffffffffff16021790555062000d21565b60054603620001825773d4a33860578de61dbabdc8bfdb98fd742fa7028e6000806101000a81548173ffffffffffffffffffffffffffffffffffffffff021916908373ffffffffffffffffffffffffffffffffffffffff16021790555073d4a33860578de61dbabdc8bfdb98fd742fa7028e600160006101000a81548173ffffffffffffffffffffffffffffffffffffffff021916908373ffffffffffffffffffffffffffffffffffffffff16021790555062000d20565b61a86946036200023b577386d67c3d38d2bcee722e601025c25a575021c6ea6000806101000a81548173ffffffffffffffffffffffffffffffffffffffff021916908373ffffffffffffffffffffffffffffffffffffffff160217905550735498bb86bc934c8d34fda08e81d444153d0d06ad600160006101000a81548173ffffffffffffffffffffffffffffffffffffffff021916908373ffffffffffffffffffffffffffffffffffffffff16021790555062000d1f565b61a86a4603620002f45773976b3d034e162d8bd72d6b9c989d545b839003b06000806101000a81548173ffffffffffffffffffffffffffffffffffffffff021916908373ffffffffffffffffffffffffffffffffffffffff160217905550730a77230d17318075983913bc2145db16c7366156600160006101000a81548173ffffffffffffffffffffffffffffffffffffffff021916908373ffffffffffffffffffffffffffffffffffffffff16021790555062000d1e565b610fa24603620003ad5773b8c458c957a6e6ca7cc53ed95bea548c52afaa246000806101000a81548173ffffffffffffffffffffffffffffffffffffffff021916908373ffffffffffffffffffffffffffffffffffffffff16021790555073e04676b9a9a2973bcb0d1478b5e1e9098bbb7f3d600160006101000a81548173ffffffffffffffffffffffffffffffffffffffff021916908373ffffffffffffffffffffffffffffffffffffffff16021790555062000d1d565b60fa460362000465577311ddd3d147e5b83d01cee7070027092397d636586000806101000a81548173ffffffffffffffffffffffffffffffffffffffff021916908373ffffffffffffffffffffffffffffffffffffffff16021790555073f4766552d15ae4d256ad41b6cf2933482b0680dc600160006101000a81548173ffffffffffffffffffffffffffffffffffffffff021916908373ffffffffffffffffffffffffffffffffffffffff16021790555062000d1c565b6201388146036200051f57730715a7794a1dc8e42615f059dd6e406a6594651a6000806101000a81548173ffffffffffffffffffffffffffffffffffffffff021916908373ffffffffffffffffffffffffffffffffffffffff16021790555073d0d5e3db44de05e9f294bb0a3beeaf030de24ada600160006101000a81548173ffffffffffffffffffffffffffffffffffffffff021916908373ffffffffffffffffffffffffffffffffffffffff16021790555062000d1b565b60894603620005d75773f9680d99d6c9589e2a93a78a04a279e5092059456000806101000a81548173ffffffffffffffffffffffffffffffffffffffff021916908373ffffffffffffffffffffffffffffffffffffffff16021790555073ab594600376ec9fd91f8e885dadf0ce036862de0600160006101000a81548173ffffffffffffffffffffffffffffffffffffffff021916908373ffffffffffffffffffffffffffffffffffffffff16021790555062000d1a565b608946036200068f57739ef1b8c0e4f7dc8bf5719ea496883dc6401d5b2e6000806101000a81548173ffffffffffffffffffffffffffffffffffffffff021916908373ffffffffffffffffffffffffffffffffffffffff160217905550730567f2323251f0aab15c8dfb1967e4e8a7d42aee600160006101000a81548173ffffffffffffffffffffffffffffffffffffffff021916908373ffffffffffffffffffffffffffffffffffffffff16021790555062000d19565b60894603620007475773143db3ceefbdfe5631add3e50f7614b6ba708ba76000806101000a81548173ffffffffffffffffffffffffffffffffffffffff021916908373ffffffffffffffffffffffffffffffffffffffff160217905550732514895c72f50d8bd4b4f9b1110f0d6bd2c97526600160006101000a81548173ffffffffffffffffffffffffffffffffffffffff021916908373ffffffffffffffffffffffffffffffffffffffff16021790555062000d18565b60644603620007ff5773a767f745331d267c7751297d982b050c939856276000806101000a81548173ffffffffffffffffffffffffffffffffffffffff021916908373ffffffffffffffffffffffffffffffffffffffff16021790555073678df3415fc31947da4324ec63212874be5a82f8600160006101000a81548173ffffffffffffffffffffffffffffffffffffffff021916908373ffffffffffffffffffffffffffffffffffffffff16021790555062000d17565b61a4b14603620008b85773b1f70a229fe7cced0428245db8b1f6c48c7ea82a6000806101000a81548173ffffffffffffffffffffffffffffffffffffffff021916908373ffffffffffffffffffffffffffffffffffffffff16021790555073b1f70a229fe7cced0428245db8b1f6c48c7ea82a600160006101000a81548173ffffffffffffffffffffffffffffffffffffffff021916908373ffffffffffffffffffffffffffffffffffffffff16021790555062000d16565b62066eed460362000972577362cae0fa2da220f43a51f86db2edb36dca9a5a086000806101000a81548173ffffffffffffffffffffffffffffffffffffffff021916908373ffffffffffffffffffffffffffffffffffffffff1602179055507362cae0fa2da220f43a51f86db2edb36dca9a5a08600160006101000a81548173ffffffffffffffffffffffffffffffffffffffff021916908373ffffffffffffffffffffffffffffffffffffffff16021790555062000d15565b600a460362000a2a577313e3ee699d1909e989722e753853ae30b17e08c56000806101000a81548173ffffffffffffffffffffffffffffffffffffffff021916908373ffffffffffffffffffffffffffffffffffffffff1602179055507313e3ee699d1909e989722e753853ae30b17e08c5600160006101000a81548173ffffffffffffffffffffffffffffffffffffffff021916908373ffffffffffffffffffffffffffffffffffffffff16021790555062000d14565b62066eed460362000ae4577357241a37733983f97c4ab06448f244a1e0ca0ba86000806101000a81548173ffffffffffffffffffffffffffffffffffffffff021916908373ffffffffffffffffffffffffffffffffffffffff1602179055507357241a37733983f97c4ab06448f244a1e0ca0ba8600160006101000a81548173ffffffffffffffffffffffffffffffffffffffff021916908373ffffffffffffffffffffffffffffffffffffffff16021790555062000d13565b610505460362000b9d5773c3cf399566220dc5ed6c8cfbf8247214af103c726000806101000a81548173ffffffffffffffffffffffffffffffffffffffff021916908373ffffffffffffffffffffffffffffffffffffffff160217905550733f8bfbdc1e79777511c00ad8591cef888c2113c1600160006101000a81548173ffffffffffffffffffffffffffffffffffffffff021916908373ffffffffffffffffffffffffffffffffffffffff16021790555062000d12565b610504460362000c5657739ce2388a1696e22f870341c3fc1e89710c7569b56000806101000a81548173ffffffffffffffffffffffffffffffffffffffff021916908373ffffffffffffffffffffffffffffffffffffffff160217905550734497b606be93e773bba5eacfcb2ac5e2214220eb600160006101000a81548173ffffffffffffffffffffffffffffffffffffffff021916908373ffffffffffffffffffffffffffffffffffffffff16021790555062000d11565b610440460362000d0f57733bbe70e2f96c87aece7f67a2b0178052f62e37fe6000806101000a81548173ffffffffffffffffffffffffffffffffffffffff021916908373ffffffffffffffffffffffffffffffffffffffff16021790555073d4a5bb03b5d66d9bf81507379302ac2c2dfdfa6d600160006101000a81548173ffffffffffffffffffffffffffffffffffffffff021916908373ffffffffffffffffffffffffffffffffffffffff16021790555062000d10565b5b5b5b5b5b5b5b5b5b5b5b5b5b5b5b5b5b5b6109958062000d316000396000f3fe608060405234801561001057600080fd5b50600436106100625760003560e01c8063414641df146100675780634a2ad99f1461008557806396722fe5146100b55780639a18c795146100d3578063e9f38fc5146100f1578063f2e9bd7a14610121575b600080fd5b61006f61013f565b60405161007c9190610514565b60405180910390f35b61009f600480360381019061009a91906105c8565b6101f9565b6040516100ac9190610623565b60405180910390f35b6100bd61020d565b6040516100ca9190610514565b60405180910390f35b6100db6102c7565b6040516100e89190610514565b60405180910390f35b61010b600480360381019061010691906105c8565b610376565b6040516101189190610623565b60405180910390f35b61012961038a565b6040516101369190610514565b60405180910390f35b600080600260009054906101000a900473ffffffffffffffffffffffffffffffffffffffff1673ffffffffffffffffffffffffffffffffffffffff1663feaf968c6040518163ffffffff1660e01b815260040160a060405180830381865afa1580156101af573d6000803e3d6000fd5b505050506040513d601f19601f820116820180604052508101906101d391906106c1565b505050915050600454600a6101e8919061089e565b816101f391906108e9565b91505090565b6000610205838361043b565b905092915050565b600080600360009054906101000a900473ffffffffffffffffffffffffffffffffffffffff1673ffffffffffffffffffffffffffffffffffffffff1663feaf968c6040518163ffffffff1660e01b815260040160a060405180830381865afa15801561027d573d6000803e3d6000fd5b505050506040513d601f19601f820116820180604052508101906102a191906106c1565b505050915050600554600a6102b6919061089e565b816102c191906108e9565b91505090565b60008060008054906101000a900473ffffffffffffffffffffffffffffffffffffffff1673ffffffffffffffffffffffffffffffffffffffff1663feaf968c6040518163ffffffff1660e01b815260040160a060405180830381865afa158015610335573d6000803e3d6000fd5b505050506040513d601f19601f8201168201806040525081019061035991906106c1565b5050509150506402540be4008161037091906108e9565b91505090565b6000610382838361049b565b905092915050565b600080600160009054906101000a900473ffffffffffffffffffffffffffffffffffffffff1673ffffffffffffffffffffffffffffffffffffffff1663feaf968c6040518163ffffffff1660e01b815260040160a060405180830381865afa1580156103fa573d6000803e3d6000fd5b505050506040513d601f19601f8201168201806040525081019061041e91906106c1565b5050509150506402540be4008161043591906108e9565b91505090565b600082600260006101000a81548173ffffffffffffffffffffffffffffffffffffffff021916908373ffffffffffffffffffffffffffffffffffffffff16021790555081601261048b919061092b565b6004819055506001905092915050565b600082600360006101000a81548173ffffffffffffffffffffffffffffffffffffffff021916908373ffffffffffffffffffffffffffffffffffffffff1602179055508160126104eb919061092b565b6005819055506001905092915050565b6000819050919050565b61050e816104fb565b82525050565b60006020820190506105296000830184610505565b92915050565b600080fd5b600073ffffffffffffffffffffffffffffffffffffffff82169050919050565b600061055f82610534565b9050919050565b61056f81610554565b811461057a57600080fd5b50565b60008135905061058c81610566565b92915050565b6000819050919050565b6105a581610592565b81146105b057600080fd5b50565b6000813590506105c28161059c565b92915050565b600080604083850312156105df576105de61052f565b5b60006105ed8582860161057d565b92505060206105fe858286016105b3565b9150509250929050565b60008115159050919050565b61061d81610608565b82525050565b60006020820190506106386000830184610614565b92915050565b600069ffffffffffffffffffff82169050919050565b61065d8161063e565b811461066857600080fd5b50565b60008151905061067a81610654565b92915050565b610689816104fb565b811461069457600080fd5b50565b6000815190506106a681610680565b92915050565b6000815190506106bb8161059c565b92915050565b600080600080600060a086880312156106dd576106dc61052f565b5b60006106eb8882890161066b565b95505060206106fc88828901610697565b945050604061070d888289016106ac565b935050606061071e888289016106ac565b925050608061072f8882890161066b565b9150509295509295909350565b7f4e487b7100000000000000000000000000000000000000000000000000000000600052601160045260246000fd5b60008160011c9050919050565b6000808291508390505b60018511156107c25780860481111561079e5761079d61073c565b5b60018516156107ad5780820291505b80810290506107bb8561076b565b9450610782565b94509492505050565b6000826107db5760019050610897565b816107e95760009050610897565b81600181146107ff576002811461080957610838565b6001915050610897565b60ff84111561081b5761081a61073c565b5b8360020a9150848211156108325761083161073c565b5b50610897565b5060208310610133831016604e8410600b841016171561086d5782820a9050838111156108685761086761073c565b5b610897565b61087a8484846001610778565b925090508184048111156108915761089061073c565b5b81810290505b9392505050565b60006108a982610592565b91506108b483610592565b92506108e17fffffffffffffffffffffffffffffffffffffffffffffffffffffffffffffffff84846107cb565b905092915050565b60006108f482610592565b91506108ff83610592565b925082820261090d81610592565b915082820484148315176109245761092361073c565b5b5092915050565b600061093682610592565b915061094183610592565b92508282039050818111156109595761095861073c565b5b9291505056fea264697066735822122013d47efcb063f09286a8fb7477b6331b344037ac606e9adb1e1128872b81942464736f6c63430008110033",
  "immutableReferences": {},
  "source": "// SPDX-License-Identifier: GPL-3.0\r\n// // // // // // // // // // // // // // // // // // // // // // // // // // // // // // // // // // // // // // // // // // // // // // // // // // // // // // // // // // // // //\r\n//\r\n//      MMWKd:..                                                                                    ..:dKWMM\r\n//      MKl.                                                                                            .lKW\r\n//      O'       ..''''''''''''.     .''''''.     .'''''.      .''''''''''''''.     .''''''''''''..       'O\r\n//      '     .ckKNNWNWWWWWWWWWk.   .xNWWNWNl    ,0WWWWW0,     lNWWWWWWWWWNWNk'    ;0NNNWWWWWWWWNNKkc.     '\r\n//           ,OWMMMMMMMMMMMMMMMO.   .kMMMMMWl    ,KMMMMMK,     lWMMMMMMMMMMM0,    ;KMMMMMMMMMMMMMMMMWO,\r\n//          .kMMMMMMMMMMMMMMMMMO.   .kMMMMMWl    ,KMMMMMK,     lWMMMMMMMMMM0,    ;KMMMMMMMMMMMMMMMMMMMk.\r\n//          '0MMMMMMMMMMMMMMMMMO.   .kMMMMMWl    ,KMMMMMK,     lWMMMMMMMMM0,    :KMMMMMMMMMMMMMMMMMMMM0'\r\n//          '0MMMMMMMMMMMMMMMMMO.   .kMMMMMWl    ,KMMMMMK,     lWMMMMMMMM0,    :KMMMMMMMMMMMMMMMMMMMMM0'\r\n//          '0MMMMMMMMMMMMMMMMMO.   .kMMMMMWl    ,KMMMMMK,     lWMMMMMMM0,    ;0NNWWMMMMMMMMMMMMMMMMMM0'\r\n//          '0MMMMMMMMMMMMMMMMMO.   .kMMMMMWl    ,KMMMMMK,     lWMMMMMM0,     .'.',;lkNMMMMMMMMMMMMMMM0'\r\n//          '0MMMMMMMMMMMMMMMMMO.   .kMMMMMWl    ,KMMMMMK,     lWMMMMMK;              ,kWMMMMMMMMMMMMM0'\r\n//          '0MMMMMMMMMMMMMMMMMO.   .kMMMMMWl    ,KMMMMMK,     lWMMMMX:    .:oxxdc'    .dWMMMMMMMMMMMM0'\r\n//          '0MMMMMMMMMMMMMMMMMO.   .kMMMMMWl    ,KMMMMMK,     lWMMMWd.   ,OWMMMMMXl.   '0MMMMMMMMMMMM0'\r\n//          '0MMMMMMMMMMMMMMMMMO.   .kMMMMMWl    ,KMMMMMK,     lWMMMX;   .kMMMMMMMMK,   .xMMMMMMMMMMMM0'\r\n//          '0MMMMMMMMMMMMMMMMMO.   .kMMMMMWl    ,KMMMMMK,     lWMMM0'   .OMMMMMMMMX;   .xMMMMMMMMMMMM0'\r\n//          .OMMMMMMMMMMMMMMMMMO.   .kMMMMMWl    ,KMMMMMK,     lWMMMK,    lNMMMMMMWx.   '0MMMMMMMMMMMMO.\r\n//           lNMMMMMMMMMMMMMMMMO.   .kMMMMMWl    ,KMMMMMK,     lWMMMWd.   .:x0KKKkc.   .dWMMMMMMMMMMMNl\r\n//      .    .c0WMMMMMMMMMMMMMMO.   .kMMMMMWo    ,KMMMMMK,     lWMMMMNd.     ....     .xNMMMMMMMMMMW0c.    .\r\n//      l      .,lddxxxxxxxxxxxc.    :xxxxxd,    .lxxxxxl.     ,dxxxxxd:.            .cdxxxxxxxxddl,.      l\r\n//      No.                                                                                              .oN\r\n//      MW0l'                                                                                          'l0WM\r\n//      MMMWKd;.                                                                                    .;dKWMMM\r\n//\r\n// // // // // // // // // // // // // // // // // // // // // // // // // // // // // // // // // // // // // // // // // // // // // // // // // // // // // // // // // // // // //\r\n//                                                                                                                                                                                  //\r\n//      @dev            ::              Aron Mauritala Ayuk                                                                                                                                          //\r\n//      @msg            ::              stereo@iii6.xyz                                                                                                                                   //\r\n//      @github         ::              @stereoIII6\r\n//      @twitter        ::              @stereoIII6                                                                                                                                              //\r\n//                                                                                                                                                                                  //\r\n// // // // // // // // // // // // // // // // // // // // // // // // // // // // // // // // // // // // // // // // // // // // // // // // // // // // // // // // // // // // //\r\n//                                                                                                                                                                                  //\r\n//      @dev            ::              Juan Xavier Valverde                                                                                                                                    //\r\n//      @msg            ::              juanxavier@iii6.xyz                                                                                                                               //\r\n//      @twitter        ::              @JuanXavier                                                                                                                                             //\r\n//      @github         ::              @JuanXavier                                                                                                                                             //\r\n//                                                                                                                                                                                  //                                                                                                                                                                                 //\r\n// // // // // // // // // // // // // // // // // // // // // // // // // // // // // // // // // // // // // // // // // // // // // // // // // // // // // // // // // // // // //\r\n//  *   *   *   *   *   *   *   *   *   *   *   *   *   *   *   *   *   *   *   *   *   *   *   *   *   *   *   *   *   *   *   *   *   *   *   *   *   *   *   *   *   *   *   *   //\r\n// // // // // // // // // // // // // // // // // // // // // // // // // // // // // // // // // // // // // // // // // // // // // // // // // // // // // // // // // // // // //\r\n//                                                                                                                                                                                  //\r\n//      @company        ::              Fractio Holding                                                                                                                                                                       //\r\n//      @title          ::              iii6 Price Consumer                                                                                                                            //\r\n//      @description    ::              Fractio Holding Price Oracle Contract                                                                                                                           //\r\n//      @version        ::              0.0.1                                                                                                                                       //\r\n//      @purpose        ::              Multinet Oracle Price Feed                                                                                                           //\r\n//                                                                                                                                                                                  //\r\n//                                                                                                                                                                                  //\r\n//                                                                                                                                                                                  //\r\n//                                                                                                                                                                                  //\r\n//                                                                                                                                                                                  //\r\n// // // // // // // // // // // // // // // // // // // // // // // // // // // // // // // // // // // // // // // // // // // // // // // // // // // // // // // // // // // // //\r\n//  *   *   *   *   *   *   *   *   *   *   *   *   *   *   *   *   *   *   *   *   *   *   *   *   *   *   *   *   *   *   *   *   *   *   *   *   *   *   *   *   *   *   *   *   //\r\n// // // // // // // // // // // // // // // // // // // // // // // // // // // // // // // // // // // // // // // // // // // // // // // // // // // // // // // // // // // // //\r\n\r\n/////////////////////////////////////////////////////////////////////////////////////////////////////////////////////\r\n\r\n/////////////////////////////////////////////////////////////////////////////////////////////////////////////////////\r\n\r\npragma solidity ^0.8.7;\r\n\r\nimport \"@chainlink/contracts/src/v0.8/interfaces/AggregatorV3Interface.sol\";\r\nimport \"@chainlink/contracts/src/v0.8/interfaces/LinkTokenInterface.sol\";\r\n\r\ncontract iii6PriceConsumer {\r\n    /**\r\n     * @dev this contract is a price consumer contract with all possible networks integrated\r\n     */\r\n    // \r\n    // \r\n    // \r\n    // \r\n    // \r\n    // \r\n    AggregatorV3Interface internal ethUSDagg;\r\n    AggregatorV3Interface internal mainUSDagg;\r\n    AggregatorV3Interface internal xUSDagg;\r\n    AggregatorV3Interface internal yUSDagg;\r\n    uint256 xDig;\r\n    uint256 yDig;\r\n\r\n    constructor() {\r\n        // \r\n        // \r\n        // \r\n        // \r\n        // \r\n        // \r\n        if (block.chainid == 1) {\r\n            // AVAX FUJI\r\n            ethUSDagg = AggregatorV3Interface(\r\n                0x5f4eC3Df9cbd43714FE2740f5E3616155c5b8419\r\n            );\r\n            mainUSDagg = AggregatorV3Interface(\r\n                0x5f4eC3Df9cbd43714FE2740f5E3616155c5b8419\r\n            );\r\n        }\r\n        // \r\n        // \r\n        // \r\n        // \r\n        // \r\n        // \r\n        else if (block.chainid == 5) {\r\n            // GOERLI\r\n            ethUSDagg = AggregatorV3Interface(\r\n                0xD4a33860578De61DBAbDc8BFdb98FD742fA7028e\r\n            );\r\n            mainUSDagg = AggregatorV3Interface(\r\n                0xD4a33860578De61DBAbDc8BFdb98FD742fA7028e\r\n            );\r\n        }\r\n        // \r\n        // \r\n        // \r\n        // \r\n        // \r\n        // \r\n        else if (block.chainid == 43113) {\r\n            // AVAX FUJI\r\n            ethUSDagg = AggregatorV3Interface(\r\n                0x86d67c3D38D2bCeE722E601025C25a575021c6EA\r\n            );\r\n            mainUSDagg = AggregatorV3Interface(\r\n                0x5498BB86BC934c8D34FDA08E81D444153d0D06aD\r\n            );\r\n        }\r\n        // \r\n        // \r\n        // \r\n        // \r\n        // \r\n        // \r\n        else if (block.chainid == 43114) {\r\n            // AVAX MAINNET\r\n            ethUSDagg = AggregatorV3Interface(\r\n                0x976B3D034E162d8bD72D6b9C989d545b839003b0\r\n            );\r\n            mainUSDagg = AggregatorV3Interface(\r\n                0x0A77230d17318075983913bC2145DB16C7366156\r\n            );\r\n        }\r\n        // \r\n        // \r\n        // \r\n        // \r\n        // \r\n        // \r\n        else if (block.chainid == 4002) {\r\n            // Fantom TESTNET\r\n            ethUSDagg = AggregatorV3Interface(\r\n                0xB8C458C957a6e6ca7Cc53eD95bEA548c52AFaA24\r\n            );\r\n            mainUSDagg = AggregatorV3Interface(\r\n                0xe04676B9A9A2973BCb0D1478b5E1E9098BBB7f3D\r\n            );\r\n        }\r\n        // \r\n        // \r\n        // \r\n        // \r\n        // \r\n        // \r\n        else if (block.chainid == 250) {\r\n            // Fantom MAINNET\r\n            ethUSDagg = AggregatorV3Interface(\r\n                0x11DdD3d147E5b83D01cee7070027092397d63658\r\n            );\r\n            mainUSDagg = AggregatorV3Interface(\r\n                0xf4766552D15AE4d256Ad41B6cf2933482B0680dc\r\n            );\r\n        }\r\n        //  \r\n        //  \r\n        //  \r\n        //  \r\n        //  \r\n        //  \r\n        else if (block.chainid == 80001) {\r\n            // Polygon Mumbai\r\n            ethUSDagg = AggregatorV3Interface(\r\n                0x0715A7794a1dc8e42615F059dD6e406A6594651A\r\n            );\r\n            mainUSDagg = AggregatorV3Interface(\r\n                0xd0D5e3DB44DE05E9F294BB0a3bEEaF030DE24Ada\r\n            );\r\n        }\r\n        // \r\n        // \r\n        // \r\n        // \r\n        // \r\n        // \r\n        else if (block.chainid == 137) {\r\n            // Polygon Mainnet\r\n            ethUSDagg = AggregatorV3Interface(\r\n                0xF9680D99D6C9589e2a93a78A04A279e509205945\r\n            );\r\n            mainUSDagg = AggregatorV3Interface(\r\n                0xAB594600376Ec9fD91F8e885dADF0CE036862dE0\r\n            );\r\n        }\r\n        // \r\n        // \r\n        // \r\n        // \r\n        // \r\n        // \r\n        else if (block.chainid == 137) {\r\n            // Polygon Mainnet\r\n            ethUSDagg = AggregatorV3Interface(\r\n                0x9ef1B8c0E4F7dc8bF5719Ea496883DC6401d5b2e\r\n            );\r\n            mainUSDagg = AggregatorV3Interface(\r\n                0x0567F2323251f0Aab15c8dFb1967E4e8A7D42aeE\r\n            );\r\n        }\r\n        // \r\n        // \r\n        // \r\n        // \r\n        // \r\n        // \r\n        else if (block.chainid == 137) {\r\n            // Polygon Mainnet\r\n            ethUSDagg = AggregatorV3Interface(\r\n                0x143db3CEEfbdfe5631aDD3E50f7614B6ba708BA7\r\n            );\r\n            mainUSDagg = AggregatorV3Interface(\r\n                0x2514895c72f50D8bd4B4F9b1110F0D6bD2c97526\r\n            );\r\n        }\r\n        // \r\n        // \r\n        // \r\n        // \r\n        // \r\n        // \r\n        else if (block.chainid == 100) {\r\n            // Gnosis Mainnet\r\n            ethUSDagg = AggregatorV3Interface(\r\n                0xa767f745331D267c7751297D982b050c93985627\r\n            );\r\n            mainUSDagg = AggregatorV3Interface(\r\n                0x678df3415fc31947dA4324eC63212874be5a82f8\r\n            );\r\n        }\r\n        // \r\n        // \r\n        // \r\n        // \r\n        // \r\n        // \r\n        else if (block.chainid == 42161) {\r\n            // Arbitrum One Mainnet\r\n            ethUSDagg = AggregatorV3Interface(\r\n                0xB1f70A229FE7cceD0428245db8B1f6C48c7Ea82a\r\n            );\r\n            mainUSDagg = AggregatorV3Interface(\r\n                0xB1f70A229FE7cceD0428245db8B1f6C48c7Ea82a\r\n            );\r\n        }\r\n        // \r\n        // \r\n        // \r\n        // \r\n        // \r\n        // \r\n        else if (block.chainid == 421613) {\r\n            // Arbitrum Goerli Testnet\r\n            ethUSDagg = AggregatorV3Interface(\r\n                0x62CAe0FA2da220f43a51F86Db2EDb36DcA9A5A08\r\n            );\r\n            mainUSDagg = AggregatorV3Interface(\r\n                0x62CAe0FA2da220f43a51F86Db2EDb36DcA9A5A08\r\n            );\r\n        }\r\n        // \r\n        // \r\n        // \r\n        // \r\n        // \r\n        // \r\n        else if (block.chainid == 10) {\r\n            // Optimism Mainnet\r\n            ethUSDagg = AggregatorV3Interface(\r\n                0x13e3Ee699D1909E989722E753853AE30b17e08c5\r\n            );\r\n            mainUSDagg = AggregatorV3Interface(\r\n                0x13e3Ee699D1909E989722E753853AE30b17e08c5\r\n            );\r\n        }\r\n        // \r\n        // \r\n        // \r\n        // \r\n        // \r\n        // \r\n        else if (block.chainid == 421613) {\r\n            // Optimism Testnet\r\n            ethUSDagg = AggregatorV3Interface(\r\n                0x57241A37733983F97C4Ab06448F244A1E0Ca0ba8\r\n            );\r\n            mainUSDagg = AggregatorV3Interface(\r\n                0x57241A37733983F97C4Ab06448F244A1E0Ca0ba8\r\n            );\r\n        }\r\n        // \r\n        // \r\n        // \r\n        // \r\n        // \r\n        // \r\n        else if (block.chainid == 1285) {\r\n            // Moonriver Mainnet\r\n            ethUSDagg = AggregatorV3Interface(\r\n                0xc3cF399566220dc5Ed6C8CFbf8247214Af103C72\r\n            );\r\n            mainUSDagg = AggregatorV3Interface(\r\n                0x3f8BFbDc1e79777511c00Ad8591cef888C2113C1\r\n            );\r\n        }\r\n        // \r\n        // \r\n        // \r\n        // \r\n        // \r\n        // \r\n        else if (block.chainid == 1284) {\r\n            // Moonbeam\r\n            ethUSDagg = AggregatorV3Interface(\r\n                0x9ce2388a1696e22F870341C3FC1E89710C7569B5\r\n            );\r\n            mainUSDagg = AggregatorV3Interface(\r\n                0x4497B606be93e773bbA5eaCFCb2ac5E2214220Eb\r\n            );\r\n        }\r\n        // \r\n        // \r\n        // \r\n        // \r\n        // \r\n        // \r\n        else if (block.chainid == 1088) {\r\n            // Moonriver Mainnet\r\n            ethUSDagg = AggregatorV3Interface(\r\n                0x3BBe70e2F96c87aEce7F67A2b0178052f62E37fE\r\n            );\r\n            mainUSDagg = AggregatorV3Interface(\r\n                0xD4a5Bb03B5D66d9bf81507379302Ac2C2DFDFa6D\r\n            );\r\n        }\r\n        // \r\n        // \r\n        // \r\n        // \r\n        // \r\n        // \r\n        else if (block.chainid == 8217) {\r\n            // Moonbeam\r\n            /** \r\n             * @dev awaiting klay/usd & eth/usd pricefeeds \r\n\r\n            ethUSDagg = AggregatorV3Interface(\r\n                0x9ce2388a1696e22F870341C3FC1E89710C7569B5\r\n            );\r\n            mainUSDagg = AggregatorV3Interface(\r\n                0x4497B606be93e773bbA5eaCFCb2ac5E2214220Eb\r\n            );\r\n            */\r\n        }\r\n\r\n        //   \r\n        //   \r\n        //   \r\n        //   \r\n        //   \r\n        //   \r\n    }\r\n\r\n    // \r\n    // \r\n    // \r\n    // \r\n    // \r\n    // \r\n\r\n    /**\r\n     * @dev sets custom token x new oracle address\r\n     * @param _oracle address of the oracle\r\n     * @param _digits number of decimals the oracle passes\r\n     * @return exit in bool true\r\n     */\r\n    function _setX(address _oracle, uint256 _digits) internal returns (bool) {\r\n        xUSDagg = AggregatorV3Interface(_oracle);\r\n        xDig = 18 - _digits;\r\n        return true;\r\n    }\r\n\r\n    /**\r\n     * @dev sets custom token y new oracle address\r\n     * @param _oracle address of the oracle\r\n     * @param _digits number of decimals the oracle passes\r\n     * @return exit in bool true\r\n     */\r\n    function _setY(address _oracle, uint256 _digits) internal returns (bool) {\r\n        yUSDagg = AggregatorV3Interface(_oracle);\r\n        yDig = 18 - _digits;\r\n        return true;\r\n    }\r\n\r\n    // \r\n    // \r\n    // \r\n    // \r\n    // \r\n    // \r\n    /**\r\n     * @dev Divides between two values substracting the remainder from the dividend\r\n     * @return priceFull eth price in usd\r\n     */\r\n    function WethUsdPrice() external view returns (int256 priceFull) {\r\n        (, int256 price, , , ) = ethUSDagg.latestRoundData();\r\n        priceFull = int256(uint256(price) * 10**10);\r\n    }\r\n\r\n    /**\r\n     * @dev Divides between two values substracting the remainder from the dividend\r\n     * @return priceFull gascoin price in usd\r\n     */\r\n    function CoinUsdPrice() external view returns (int256 priceFull) {\r\n        (, int256 price, , , ) = mainUSDagg.latestRoundData();\r\n        priceFull = int256(uint256(price) * 10**10);\r\n    }\r\n\r\n    /**\r\n     * @dev sets custom token x new oracle address\r\n     * @param _oracle address of the oracle\r\n     * @param _digits number of decimals the oracle passes\r\n     * @return exit in bool true\r\n     */\r\n    function setX(address _oracle, uint256 _digits) external returns (bool) {\r\n        return _setX(_oracle, _digits);\r\n    }\r\n\r\n    /**\r\n     * @dev Divides between two values substracting the remainder from the dividend\r\n     * @return priceFull custom token x price in usd\r\n     */\r\n    function XUsdPrice() external view returns (int256 priceFull) {\r\n        (, int256 price, , , ) = xUSDagg.latestRoundData();\r\n        priceFull = int256(uint256(price) * 10**xDig);\r\n    }\r\n\r\n    /**\r\n     * @dev sets custom token y new oracle address\r\n     * @param _oracle address of the oracle\r\n     * @param _digits number of decimals the oracle passes\r\n     * @return exit in bool true\r\n     */\r\n    function setY(address _oracle, uint256 _digits) external returns (bool) {\r\n        return _setY(_oracle, _digits);\r\n    }\r\n\r\n    /**\r\n     * @dev Divides between two values substracting the remainder from the dividend\r\n     * @return priceFull custom token x price in usd\r\n     */\r\n    // gives back network gas currency price in $\r\n    function YUsdPrice() external view returns (int256 priceFull) {\r\n        (, int256 price, , , ) = yUSDagg.latestRoundData();\r\n        priceFull = int256(uint256(price) * 10**yDig);\r\n    }\r\n}\r\n// // // // // // // // // // // // // // // // // // // // // // // // // // // // // // // // // // // // // // // // // // // // // // // // // // // // // // // // // // // // //\r\n//\r\n//      MMWKd:..                                                                                    ..:dKWMM\r\n//      MKl.                                                                                            .lKW\r\n//      O'       ..''''''''''''.     .''''''.     .'''''.      .''''''''''''''.     .''''''''''''..       'O\r\n//      '     .ckKNNWNWWWWWWWWWk.   .xNWWNWNl    ,0WWWWW0,     lNWWWWWWWWWNWNk'    ;0NNNWWWWWWWWNNKkc.     '\r\n//           ,OWMMMMMMMMMMMMMMMO.   .kMMMMMWl    ,KMMMMMK,     lWMMMMMMMMMMM0,    ;KMMMMMMMMMMMMMMMMWO,\r\n//          .kMMMMMMMMMMMMMMMMMO.   .kMMMMMWl    ,KMMMMMK,     lWMMMMMMMMMM0,    ;KMMMMMMMMMMMMMMMMMMMk.\r\n//          '0MMMMMMMMMMMMMMMMMO.   .kMMMMMWl    ,KMMMMMK,     lWMMMMMMMMM0,    :KMMMMMMMMMMMMMMMMMMMM0'\r\n//          '0MMMMMMMMMMMMMMMMMO.   .kMMMMMWl    ,KMMMMMK,     lWMMMMMMMM0,    :KMMMMMMMMMMMMMMMMMMMMM0'\r\n//          '0MMMMMMMMMMMMMMMMMO.   .kMMMMMWl    ,KMMMMMK,     lWMMMMMMM0,    ;0NNWWMMMMMMMMMMMMMMMMMM0'\r\n//          '0MMMMMMMMMMMMMMMMMO.   .kMMMMMWl    ,KMMMMMK,     lWMMMMMM0,     .'.',;lkNMMMMMMMMMMMMMMM0'\r\n//          '0MMMMMMMMMMMMMMMMMO.   .kMMMMMWl    ,KMMMMMK,     lWMMMMMK;              ,kWMMMMMMMMMMMMM0'\r\n//          '0MMMMMMMMMMMMMMMMMO.   .kMMMMMWl    ,KMMMMMK,     lWMMMMX:    .:oxxdc'    .dWMMMMMMMMMMMM0'\r\n//          '0MMMMMMMMMMMMMMMMMO.   .kMMMMMWl    ,KMMMMMK,     lWMMMWd.   ,OWMMMMMXl.   '0MMMMMMMMMMMM0'\r\n//          '0MMMMMMMMMMMMMMMMMO.   .kMMMMMWl    ,KMMMMMK,     lWMMMX;   .kMMMMMMMMK,   .xMMMMMMMMMMMM0'\r\n//          '0MMMMMMMMMMMMMMMMMO.   .kMMMMMWl    ,KMMMMMK,     lWMMM0'   .OMMMMMMMMX;   .xMMMMMMMMMMMM0'\r\n//          .OMMMMMMMMMMMMMMMMMO.   .kMMMMMWl    ,KMMMMMK,     lWMMMK,    lNMMMMMMWx.   '0MMMMMMMMMMMMO.\r\n//           lNMMMMMMMMMMMMMMMMO.   .kMMMMMWl    ,KMMMMMK,     lWMMMWd.   .:x0KKKkc.   .dWMMMMMMMMMMMNl\r\n//      .    .c0WMMMMMMMMMMMMMMO.   .kMMMMMWo    ,KMMMMMK,     lWMMMMNd.     ....     .xNMMMMMMMMMMW0c.    .\r\n//      l      .,lddxxxxxxxxxxxc.    :xxxxxd,    .lxxxxxl.     ,dxxxxxd:.            .cdxxxxxxxxddl,.      l\r\n//      No.                                                                                              .oN\r\n//      MW0l'                                                                                          'l0WM\r\n//      MMMWKd;.                                                                                    .;dKWMMM\r\n//\r\n// // // // // // // // // // // // // // // // // // // // // // // // // // // // // // // // // // // // // // // // // // // // // // // // // // // // // // // // // // // // //\r\n",
  "sourcePath": "C:\\Users\\juanx\\OneDrive\\Documents\\work\\III6Dojo\\contracts\\iii6utils\\Oracles\\iii6PriceConsumer.sol",
  "compiler": {
    "name": "solc",
    "version": "0.8.17+commit.8df45f5f.Emscripten.clang"
  },
  "schemaVersion": "3.4.11",
  "updatedAt": "2022-12-19T18:38:50.805Z",
  "devdoc": {
    "kind": "dev",
    "methods": {
      "CoinUsdPrice()": {
        "details": "Divides between two values substracting the remainder from the dividend",
        "returns": {
          "priceFull": "gascoin price in usd"
        }
      },
      "WethUsdPrice()": {
        "details": "Divides between two values substracting the remainder from the dividend",
        "returns": {
          "priceFull": "eth price in usd"
        }
      },
      "XUsdPrice()": {
        "details": "Divides between two values substracting the remainder from the dividend",
        "returns": {
          "priceFull": "custom token x price in usd"
        }
      },
      "YUsdPrice()": {
        "details": "Divides between two values substracting the remainder from the dividend",
        "returns": {
          "priceFull": "custom token x price in usd"
        }
      },
      "setX(address,uint256)": {
        "details": "sets custom token x new oracle address",
        "params": {
          "_digits": "number of decimals the oracle passes",
          "_oracle": "address of the oracle"
        },
        "returns": {
          "_0": "exit in bool true"
        }
      },
      "setY(address,uint256)": {
        "details": "sets custom token y new oracle address",
        "params": {
          "_digits": "number of decimals the oracle passes",
          "_oracle": "address of the oracle"
        },
        "returns": {
          "_0": "exit in bool true"
        }
      }
    },
    "stateVariables": {
      "ethUSDagg": {
        "details": "this contract is a price consumer contract with all possible networks integrated"
      }
    },
    "version": 1
  },
  "userdoc": {
    "kind": "user",
    "methods": {},
    "version": 1
  }
}