{
  "contractName": "iii6SafeModel",
  "abi": [
    {
      "inputs": [],
      "stateMutability": "nonpayable",
      "type": "constructor"
    },
    {
      "inputs": [],
      "name": "All_Slots_Taken",
      "type": "error"
    },
    {
      "inputs": [],
      "name": "Already_Listed",
      "type": "error"
    },
    {
      "inputs": [],
      "name": "Array_Length_Mismatch",
      "type": "error"
    },
    {
      "inputs": [],
      "name": "Event_Has_Ended",
      "type": "error"
    },
    {
      "inputs": [],
      "name": "Greenlist_Expired",
      "type": "error"
    },
    {
      "inputs": [],
      "name": "Insufficient_Amount",
      "type": "error"
    },
    {
      "inputs": [],
      "name": "Insufficient_Balance",
      "type": "error"
    },
    {
      "inputs": [],
      "name": "Insufficient_Funds",
      "type": "error"
    },
    {
      "inputs": [],
      "name": "Insufficient_MLQ",
      "type": "error"
    },
    {
      "inputs": [],
      "name": "Insufficient_Supply",
      "type": "error"
    },
    {
      "inputs": [],
      "name": "Invalid_Amount",
      "type": "error"
    },
    {
      "inputs": [],
      "name": "Invalid_Response",
      "type": "error"
    },
    {
      "inputs": [],
      "name": "Max_Tokens_Minted",
      "type": "error"
    },
    {
      "inputs": [],
      "name": "Min_Requirements_Not_Met",
      "type": "error"
    },
    {
      "inputs": [],
      "name": "Mint_In_Progress",
      "type": "error"
    },
    {
      "inputs": [],
      "name": "Mint_Is_Not_Yet_Live",
      "type": "error"
    },
    {
      "inputs": [],
      "name": "Not_Burnable",
      "type": "error"
    },
    {
      "inputs": [],
      "name": "Not_Friends",
      "type": "error"
    },
    {
      "inputs": [],
      "name": "Not_Friends_Rev",
      "type": "error"
    },
    {
      "inputs": [],
      "name": "Not_Greenlisted",
      "type": "error"
    },
    {
      "inputs": [],
      "name": "Not_Pausable",
      "type": "error"
    },
    {
      "inputs": [],
      "name": "Sold_Out",
      "type": "error"
    },
    {
      "inputs": [],
      "name": "Unauthorized",
      "type": "error"
    },
    {
      "inputs": [],
      "name": "You_Are_Not_The_Holder",
      "type": "error"
    },
    {
      "inputs": [],
      "name": "You_Need_To_Wait",
      "type": "error"
    },
    {
      "inputs": [
        {
          "internalType": "address",
          "name": "",
          "type": "address"
        }
      ],
      "name": "memNum",
      "outputs": [
        {
          "internalType": "uint256",
          "name": "",
          "type": "uint256"
        }
      ],
      "stateMutability": "view",
      "type": "function"
    },
    {
      "inputs": [
        {
          "internalType": "uint256",
          "name": "",
          "type": "uint256"
        }
      ],
      "name": "members",
      "outputs": [
        {
          "internalType": "uint256",
          "name": "b_id",
          "type": "uint256"
        },
        {
          "internalType": "address",
          "name": "adr",
          "type": "address"
        },
        {
          "internalType": "uint256",
          "name": "share",
          "type": "uint256"
        },
        {
          "internalType": "string",
          "name": "info",
          "type": "string"
        }
      ],
      "stateMutability": "view",
      "type": "function"
    },
    {
      "inputs": [
        {
          "internalType": "string",
          "name": "_name",
          "type": "string"
        },
        {
          "internalType": "string",
          "name": "_sym",
          "type": "string"
        }
      ],
      "name": "makeShares",
      "outputs": [],
      "stateMutability": "nonpayable",
      "type": "function"
    },
    {
      "inputs": [
        {
          "internalType": "address",
          "name": "_adr",
          "type": "address"
        },
        {
          "internalType": "string",
          "name": "_inf",
          "type": "string"
        }
      ],
      "name": "addMember",
      "outputs": [
        {
          "internalType": "address",
          "name": "",
          "type": "address"
        }
      ],
      "stateMutability": "nonpayable",
      "type": "function"
    }
  ],
  "bytecode": "0x608060405234801561001057600080fd5b50336000806101000a81548173ffffffffffffffffffffffffffffffffffffffff021916908373ffffffffffffffffffffffffffffffffffffffff160217905550600160058190555061101d806100686000396000f3fe608060405234801561001057600080fd5b506004361061004c5760003560e01c80633e504e30146100515780635daf08ca1461008157806394af4c3c146100b4578063c127c247146100d0575b600080fd5b61006b600480360381019061006691906106fb565b610100565b6040516100789190610741565b60405180910390f35b61009b60048036038101906100969190610788565b610118565b6040516100ab9493929190610854565b60405180910390f35b6100ce60048036038101906100c991906109d5565b610200565b005b6100ea60048036038101906100e59190610a4d565b61041e565b6040516100f79190610aa9565b60405180910390f35b60046020528060005260406000206000915090505481565b6003818154811061012857600080fd5b90600052602060002090600402016000915090508060000154908060010160009054906101000a900473ffffffffffffffffffffffffffffffffffffffff169080600201549080600301805461017d90610af3565b80601f01602080910402602001604051908101604052809291908181526020018280546101a990610af3565b80156101f65780601f106101cb576101008083540402835291602001916101f6565b820191906000526020600020905b8154815290600101906020018083116101d957829003601f168201915b5050505050905084565b60008054906101000a900473ffffffffffffffffffffffffffffffffffffffff1673ffffffffffffffffffffffffffffffffffffffff163373ffffffffffffffffffffffffffffffffffffffff1614610285576040517f82b4290000000000000000000000000000000000000000000000000000000000815260040160405180910390fd5b6000600260009054906101000a900473ffffffffffffffffffffffffffffffffffffffff1673ffffffffffffffffffffffffffffffffffffffff166392c4908684846000620186a06000806040518763ffffffff1660e01b81526004016102f196959493929190610bbf565b6020604051808303816000875af1158015610310573d6000803e3d6000fd5b505050506040513d601f19601f820116820180604052508101906103349190610c43565b905080600160006101000a81548173ffffffffffffffffffffffffffffffffffffffff021916908373ffffffffffffffffffffffffffffffffffffffff160217905550600160009054906101000a900473ffffffffffffffffffffffffffffffffffffffff1673ffffffffffffffffffffffffffffffffffffffff16633610724e620186a06040518263ffffffff1660e01b81526004016103d59190610c70565b6020604051808303816000875af11580156103f4573d6000803e3d6000fd5b505050506040513d601f19601f820116820180604052508101906104189190610ca0565b50505050565b60008060009054906101000a900473ffffffffffffffffffffffffffffffffffffffff1673ffffffffffffffffffffffffffffffffffffffff163373ffffffffffffffffffffffffffffffffffffffff161415801561051957506032600160009054906101000a900473ffffffffffffffffffffffffffffffffffffffff1673ffffffffffffffffffffffffffffffffffffffff166370a08231336040518263ffffffff1660e01b81526004016104d59190610aa9565b602060405180830381865afa1580156104f2573d6000803e3d6000fd5b505050506040513d601f19601f820116820180604052508101906105169190610ca0565b11155b15610550576040517f82b4290000000000000000000000000000000000000000000000000000000000815260040160405180910390fd5b604051806080016040528060055481526020018473ffffffffffffffffffffffffffffffffffffffff16815260200160008152602001838152506003600554815481106105a05761059f610ccd565b5b90600052602060002090600402016000820151816000015560208201518160010160006101000a81548173ffffffffffffffffffffffffffffffffffffffff021916908373ffffffffffffffffffffffffffffffffffffffff16021790555060408201518160020155606082015181600301908161061e9190610e9e565b50905050600554600460008573ffffffffffffffffffffffffffffffffffffffff1673ffffffffffffffffffffffffffffffffffffffff168152602001908152602001600020819055506005600081548092919061067b90610f9f565b919050555082905092915050565b6000604051905090565b600080fd5b600080fd5b600073ffffffffffffffffffffffffffffffffffffffff82169050919050565b60006106c88261069d565b9050919050565b6106d8816106bd565b81146106e357600080fd5b50565b6000813590506106f5816106cf565b92915050565b60006020828403121561071157610710610693565b5b600061071f848285016106e6565b91505092915050565b6000819050919050565b61073b81610728565b82525050565b60006020820190506107566000830184610732565b92915050565b61076581610728565b811461077057600080fd5b50565b6000813590506107828161075c565b92915050565b60006020828403121561079e5761079d610693565b5b60006107ac84828501610773565b91505092915050565b6107be816106bd565b82525050565b600081519050919050565b600082825260208201905092915050565b60005b838110156107fe5780820151818401526020810190506107e3565b60008484015250505050565b6000601f19601f8301169050919050565b6000610826826107c4565b61083081856107cf565b93506108408185602086016107e0565b6108498161080a565b840191505092915050565b60006080820190506108696000830187610732565b61087660208301866107b5565b6108836040830185610732565b8181036060830152610895818461081b565b905095945050505050565b600080fd5b600080fd5b7f4e487b7100000000000000000000000000000000000000000000000000000000600052604160045260246000fd5b6108e28261080a565b810181811067ffffffffffffffff82111715610901576109006108aa565b5b80604052505050565b6000610914610689565b905061092082826108d9565b919050565b600067ffffffffffffffff8211156109405761093f6108aa565b5b6109498261080a565b9050602081019050919050565b82818337600083830152505050565b600061097861097384610925565b61090a565b905082815260208101848484011115610994576109936108a5565b5b61099f848285610956565b509392505050565b600082601f8301126109bc576109bb6108a0565b5b81356109cc848260208601610965565b91505092915050565b600080604083850312156109ec576109eb610693565b5b600083013567ffffffffffffffff811115610a0a57610a09610698565b5b610a16858286016109a7565b925050602083013567ffffffffffffffff811115610a3757610a36610698565b5b610a43858286016109a7565b9150509250929050565b60008060408385031215610a6457610a63610693565b5b6000610a72858286016106e6565b925050602083013567ffffffffffffffff811115610a9357610a92610698565b5b610a9f858286016109a7565b9150509250929050565b6000602082019050610abe60008301846107b5565b92915050565b7f4e487b7100000000000000000000000000000000000000000000000000000000600052602260045260246000fd5b60006002820490506001821680610b0b57607f821691505b602082108103610b1e57610b1d610ac4565b5b50919050565b6000819050919050565b6000819050919050565b6000610b53610b4e610b4984610b24565b610b2e565b610728565b9050919050565b610b6381610b38565b82525050565b6000819050919050565b6000610b8e610b89610b8484610b69565b610b2e565b610728565b9050919050565b610b9e81610b73565b82525050565b60008115159050919050565b610bb981610ba4565b82525050565b600060c0820190508181036000830152610bd9818961081b565b90508181036020830152610bed818861081b565b9050610bfc6040830187610b5a565b610c096060830186610b95565b610c166080830185610bb0565b610c2360a0830184610bb0565b979650505050505050565b600081519050610c3d816106cf565b92915050565b600060208284031215610c5957610c58610693565b5b6000610c6784828501610c2e565b91505092915050565b6000602082019050610c856000830184610b95565b92915050565b600081519050610c9a8161075c565b92915050565b600060208284031215610cb657610cb5610693565b5b6000610cc484828501610c8b565b91505092915050565b7f4e487b7100000000000000000000000000000000000000000000000000000000600052603260045260246000fd5b60008190508160005260206000209050919050565b60006020601f8301049050919050565b600082821b905092915050565b600060088302610d5e7fffffffffffffffffffffffffffffffffffffffffffffffffffffffffffffffff82610d21565b610d688683610d21565b95508019841693508086168417925050509392505050565b6000610d9b610d96610d9184610728565b610b2e565b610728565b9050919050565b6000819050919050565b610db583610d80565b610dc9610dc182610da2565b848454610d2e565b825550505050565b600090565b610dde610dd1565b610de9818484610dac565b505050565b5b81811015610e0d57610e02600082610dd6565b600181019050610def565b5050565b601f821115610e5257610e2381610cfc565b610e2c84610d11565b81016020851015610e3b578190505b610e4f610e4785610d11565b830182610dee565b50505b505050565b600082821c905092915050565b6000610e7560001984600802610e57565b1980831691505092915050565b6000610e8e8383610e64565b9150826002028217905092915050565b610ea7826107c4565b67ffffffffffffffff811115610ec057610ebf6108aa565b5b610eca8254610af3565b610ed5828285610e11565b600060209050601f831160018114610f085760008415610ef6578287015190505b610f008582610e82565b865550610f68565b601f198416610f1686610cfc565b60005b82811015610f3e57848901518255600182019150602085019450602081019050610f19565b86831015610f5b5784890151610f57601f891682610e64565b8355505b6001600288020188555050505b505050505050565b7f4e487b7100000000000000000000000000000000000000000000000000000000600052601160045260246000fd5b6000610faa82610728565b91507fffffffffffffffffffffffffffffffffffffffffffffffffffffffffffffffff8203610fdc57610fdb610f70565b5b60018201905091905056fea26469706673582212206fe15f84fd3fe128fc76fa08c83935253036e08f252e4172cea3f35547e7d91564736f6c63430008110033",
  "immutableReferences": {},
  "source": "// SPDX-License-Identifier: GPL-3.0\r\n// // // // // // // // // // // // // // // // // // // // // // // // // // // // // // // // // // // // // // // // // // // // // // // // // // // // // // // // // // // // //\r\n//\r\n//      MMWKd:..                                                                                    ..:dKWMM\r\n//      MKl.                                                                                            .lKW\r\n//      O'       ..''''''''''''.     .''''''.     .'''''.      .''''''''''''''.     .''''''''''''..       'O\r\n//      '     .ckKNNWNWWWWWWWWWk.   .xNWWNWNl    ,0WWWWW0,     lNWWWWWWWWWNWNk'    ;0NNNWWWWWWWWNNKkc.     '\r\n//           ,OWMMMMMMMMMMMMMMMO.   .kMMMMMWl    ,KMMMMMK,     lWMMMMMMMMMMM0,    ;KMMMMMMMMMMMMMMMMWO,\r\n//          .kMMMMMMMMMMMMMMMMMO.   .kMMMMMWl    ,KMMMMMK,     lWMMMMMMMMMM0,    ;KMMMMMMMMMMMMMMMMMMMk.\r\n//          '0MMMMMMMMMMMMMMMMMO.   .kMMMMMWl    ,KMMMMMK,     lWMMMMMMMMM0,    :KMMMMMMMMMMMMMMMMMMMM0'\r\n//          '0MMMMMMMMMMMMMMMMMO.   .kMMMMMWl    ,KMMMMMK,     lWMMMMMMMM0,    :KMMMMMMMMMMMMMMMMMMMMM0'\r\n//          '0MMMMMMMMMMMMMMMMMO.   .kMMMMMWl    ,KMMMMMK,     lWMMMMMMM0,    ;0NNWWMMMMMMMMMMMMMMMMMM0'\r\n//          '0MMMMMMMMMMMMMMMMMO.   .kMMMMMWl    ,KMMMMMK,     lWMMMMMM0,     .'.',;lkNMMMMMMMMMMMMMMM0'\r\n//          '0MMMMMMMMMMMMMMMMMO.   .kMMMMMWl    ,KMMMMMK,     lWMMMMMK;              ,kWMMMMMMMMMMMMM0'\r\n//          '0MMMMMMMMMMMMMMMMMO.   .kMMMMMWl    ,KMMMMMK,     lWMMMMX:    .:oxxdc'    .dWMMMMMMMMMMMM0'\r\n//          '0MMMMMMMMMMMMMMMMMO.   .kMMMMMWl    ,KMMMMMK,     lWMMMWd.   ,OWMMMMMXl.   '0MMMMMMMMMMMM0'\r\n//          '0MMMMMMMMMMMMMMMMMO.   .kMMMMMWl    ,KMMMMMK,     lWMMMX;   .kMMMMMMMMK,   .xMMMMMMMMMMMM0'\r\n//          '0MMMMMMMMMMMMMMMMMO.   .kMMMMMWl    ,KMMMMMK,     lWMMM0'   .OMMMMMMMMX;   .xMMMMMMMMMMMM0'\r\n//          .OMMMMMMMMMMMMMMMMMO.   .kMMMMMWl    ,KMMMMMK,     lWMMMK,    lNMMMMMMWx.   '0MMMMMMMMMMMMO.\r\n//           lNMMMMMMMMMMMMMMMMO.   .kMMMMMWl    ,KMMMMMK,     lWMMMWd.   .:x0KKKkc.   .dWMMMMMMMMMMMNl\r\n//      .    .c0WMMMMMMMMMMMMMMO.   .kMMMMMWo    ,KMMMMMK,     lWMMMMNd.     ....     .xNMMMMMMMMMMW0c.    .\r\n//      l      .,lddxxxxxxxxxxxc.    :xxxxxd,    .lxxxxxl.     ,dxxxxxd:.            .cdxxxxxxxxddl,.      l\r\n//      No.                                                                                              .oN\r\n//      MW0l'                                                                                          'l0WM\r\n//      MMMWKd;.                                                                                    .;dKWMMM\r\n//\r\n// // // // // // // // // // // // // // // // // // // // // // // // // // // // // // // // // // // // // // // // // // // // // // // // // // // // // // // // // // // // //\r\n//                                                                                                                                                                                  //\r\n//      @dev            ::              Aron Mauritala Ayuk                                                                                                                                          //\r\n//      @msg            ::              stereo@iii6.xyz                                                                                                                                   //\r\n//      @github         ::              @stereoIII6\r\n//      @twitter        ::              @stereoIII6                                                                                                                                              //\r\n//                                                                                                                                                                                  //\r\n// // // // // // // // // // // // // // // // // // // // // // // // // // // // // // // // // // // // // // // // // // // // // // // // // // // // // // // // // // // // //\r\n//                                                                                                                                                                                  //\r\n//      @dev            ::              Juan Xavier Valverde                                                                                                                                    //\r\n//      @msg            ::              juanxavier@iii6.xyz                                                                                                                               //\r\n//      @twitter        ::              @JuanXavier                                                                                                                                             //\r\n//      @github         ::              @JuanXavier                                                                                                                                             //\r\n//                                                                                                                                                                                  //                                                                                                                                                                                 //\r\n// // // // // // // // // // // // // // // // // // // // // // // // // // // // // // // // // // // // // // // // // // // // // // // // // // // // // // // // // // // // //\r\n//  *   *   *   *   *   *   *   *   *   *   *   *   *   *   *   *   *   *   *   *   *   *   *   *   *   *   *   *   *   *   *   *   *   *   *   *   *   *   *   *   *   *   *   *   //\r\n// // // // // // // // // // // // // // // // // // // // // // // // // // // // // // // // // // // // // // // // // // // // // // // // // // // // // // // // // // // // //\r\n//                                                                                                                                                                                  //\r\n//      @company        ::              Fractio Holding                                                                                                                                                                       //\r\n//      @title          ::              iii6 Safes                                                                                                                            //\r\n//      @description    ::              This is a Asset Safe for all Board Members                                                                                                                            //\r\n//      @version        ::              0.0.1                                                                                                                                       //\r\n//      @purpose        ::              Multinet Address Storage                                                                                                           //\r\n//                                                                                                                                                                                  //\r\n//                                                                                                                                                                                  //\r\n//                                                                                                                                                                                  //\r\n//                                                                                                                                                                                  //\r\n//                                                                                                                                                                                  //\r\n// // // // // // // // // // // // // // // // // // // // // // // // // // // // // // // // // // // // // // // // // // // // // // // // // // // // // // // // // // // // //\r\n//  *   *   *   *   *   *   *   *   *   *   *   *   *   *   *   *   *   *   *   *   *   *   *   *   *   *   *   *   *   *   *   *   *   *   *   *   *   *   *   *   *   *   *   *   //\r\n// // // // // // // // // // // // // // // // // // // // // // // // // // // // // // // // // // // // // // // // // // // // // // // // // // // // // // // // // // // // //\r\n\r\n/////////////////////////////////////////////////////////////////////////////////////////////////////////////////////\r\n\r\n/////////////////////////////////////////////////////////////////////////////////////////////////////////////////////\r\n\r\npragma solidity ^0.8.7;\r\n\r\nimport \"./iii6SafeVoting.sol\";\r\nimport \"../Assets/iii6CoinModel.sol\";\r\nimport \"../Assets/iii6CoinFactory.sol\";\r\nimport \"../Misc/iii6Proposals.sol\";\r\nimport \"../Misc/iii6Relations.sol\";\r\nimport \"../Misc/Errors/iii6Errors.sol\";\r\n\r\ncontract iii6SafeModel is iii6Proposals, iii6Relations, iii6Errors {\r\n    // list of trustees\r\n    address TRUSTEE;\r\n    iii6CoinModel BoardShares;\r\n    iii6CoinFactory iii6Coins;\r\n    // array of board members\r\n    BoardMember[] public members;\r\n    // board member id callback from address\r\n    mapping(address => uint256) public memNum;\r\n    // number of board members starting at 1\r\n    uint256 bms;\r\n    // max number of board members starting at 1\r\n    /**\r\n     * @dev allows only board members to use functions\r\n     */\r\n    modifier isMember() {\r\n        if (memNum[msg.sender] == 0) revert Unauthorized();\r\n        if (members[memNum[msg.sender]].adr != msg.sender)\r\n            revert Unauthorized();\r\n        _;\r\n    }\r\n\r\n    /**\r\n     * @dev initializes safe contract that stores and distributes funds amongst boardmembers\r\n     */\r\n    constructor() {\r\n        TRUSTEE = msg.sender; // first trust admin\r\n        bms = 1; // number of board members\r\n    }\r\n\r\n    function makeShares(string memory _name, string memory _sym) external {\r\n        if (msg.sender != TRUSTEE) revert Unauthorized();\r\n        address _newShares = iii6Coins.buildERC20Token(\r\n            _name,\r\n            _sym,\r\n            0,\r\n            100000,\r\n            false,\r\n            false\r\n        );\r\n        BoardShares = iii6CoinModel(payable(_newShares));\r\n        BoardShares.buyTokens(100000);\r\n    }\r\n\r\n    /**\r\n     * @dev allows trustee to add board members to safe contract\r\n     * @param _adr number of board members\r\n     * @param _inf minimum share\r\n     */\r\n    function addMember(address _adr, string memory _inf)\r\n        external\r\n        returns (address)\r\n    {\r\n        if (msg.sender != TRUSTEE && BoardShares.balanceOf(msg.sender) <= 50)\r\n            revert Unauthorized();\r\n        members[bms] = BoardMember(bms, _adr, 0, _inf);\r\n        memNum[_adr] = bms;\r\n        bms++;\r\n        return _adr;\r\n    }\r\n}\r\n",
  "sourcePath": "C:\\Users\\juanx\\OneDrive\\Documents\\work\\III6Dojo\\contracts\\iii6Utils\\Wallets\\iii6SafeModel.sol",
  "compiler": {
    "name": "solc",
    "version": "0.8.17+commit.8df45f5f.Emscripten.clang"
  },
  "schemaVersion": "3.4.11",
  "updatedAt": "2022-12-19T18:38:50.939Z",
  "devdoc": {
    "kind": "dev",
    "methods": {
      "addMember(address,string)": {
        "details": "allows trustee to add board members to safe contract",
        "params": {
          "_adr": "number of board members",
          "_inf": "minimum share"
        }
      },
      "constructor": {
        "details": "initializes safe contract that stores and distributes funds amongst boardmembers"
      }
    },
    "version": 1
  },
  "userdoc": {
    "kind": "user",
    "methods": {},
    "version": 1
  }
}