{
  "contractName": "iii6SafeModel",
  "abi": [
    {
      "inputs": [],
      "stateMutability": "nonpayable",
      "type": "constructor"
    },
    {
      "inputs": [],
      "name": "All_Slots_Taken",
      "type": "error"
    },
    {
      "inputs": [],
      "name": "Already_Listed",
      "type": "error"
    },
    {
      "inputs": [],
      "name": "Array_Length_Mismatch",
      "type": "error"
    },
    {
      "inputs": [],
      "name": "Event_Has_Ended",
      "type": "error"
    },
    {
      "inputs": [],
      "name": "Greenlist_Expired",
      "type": "error"
    },
    {
      "inputs": [],
      "name": "Insufficient_Amount",
      "type": "error"
    },
    {
      "inputs": [],
      "name": "Insufficient_Balance",
      "type": "error"
    },
    {
      "inputs": [],
      "name": "Insufficient_Funds",
      "type": "error"
    },
    {
      "inputs": [],
      "name": "Insufficient_MLQ",
      "type": "error"
    },
    {
      "inputs": [],
      "name": "Insufficient_Supply",
      "type": "error"
    },
    {
      "inputs": [],
      "name": "Invalid_Amount",
      "type": "error"
    },
    {
      "inputs": [],
      "name": "Invalid_Response",
      "type": "error"
    },
    {
      "inputs": [],
      "name": "Max_Tokens_Minted",
      "type": "error"
    },
    {
      "inputs": [],
      "name": "Min_Requirements_Not_Met",
      "type": "error"
    },
    {
      "inputs": [],
      "name": "Mint_In_Progress",
      "type": "error"
    },
    {
      "inputs": [],
      "name": "Mint_Is_Not_Yet_Live",
      "type": "error"
    },
    {
      "inputs": [],
      "name": "Not_Burnable",
      "type": "error"
    },
    {
      "inputs": [],
      "name": "Not_Friends",
      "type": "error"
    },
    {
      "inputs": [],
      "name": "Not_Friends_Rev",
      "type": "error"
    },
    {
      "inputs": [],
      "name": "Not_Greenlisted",
      "type": "error"
    },
    {
      "inputs": [],
      "name": "Not_Pausable",
      "type": "error"
    },
    {
      "inputs": [],
      "name": "Sold_Out",
      "type": "error"
    },
    {
      "inputs": [],
      "name": "Unauthorized",
      "type": "error"
    },
    {
      "inputs": [],
      "name": "You_Are_Not_The_Holder",
      "type": "error"
    },
    {
      "inputs": [],
      "name": "You_Need_To_Wait",
      "type": "error"
    },
    {
      "inputs": [
        {
          "internalType": "address",
          "name": "",
          "type": "address"
        }
      ],
      "name": "memNum",
      "outputs": [
        {
          "internalType": "uint256",
          "name": "",
          "type": "uint256"
        }
      ],
      "stateMutability": "view",
      "type": "function"
    },
    {
      "inputs": [
        {
          "internalType": "uint256",
          "name": "",
          "type": "uint256"
        }
      ],
      "name": "members",
      "outputs": [
        {
          "internalType": "uint256",
          "name": "b_id",
          "type": "uint256"
        },
        {
          "internalType": "address",
          "name": "adr",
          "type": "address"
        },
        {
          "internalType": "uint256",
          "name": "share",
          "type": "uint256"
        },
        {
          "internalType": "string",
          "name": "info",
          "type": "string"
        }
      ],
      "stateMutability": "view",
      "type": "function"
    },
    {
      "inputs": [
        {
          "internalType": "string",
          "name": "_name",
          "type": "string"
        },
        {
          "internalType": "string",
          "name": "_sym",
          "type": "string"
        }
      ],
      "name": "makeShares",
      "outputs": [],
      "stateMutability": "nonpayable",
      "type": "function"
    },
    {
      "inputs": [
        {
          "internalType": "address",
          "name": "_adr",
          "type": "address"
        },
        {
          "internalType": "string",
          "name": "_inf",
          "type": "string"
        }
      ],
      "name": "addMember",
      "outputs": [
        {
          "internalType": "address",
          "name": "",
          "type": "address"
        }
      ],
      "stateMutability": "nonpayable",
      "type": "function"
    }
  ],
  "bytecode": "0x608060405234801561001057600080fd5b50336000806101000a81548173ffffffffffffffffffffffffffffffffffffffff021916908373ffffffffffffffffffffffffffffffffffffffff1602179055506001600581905550611069806100686000396000f3fe608060405234801561001057600080fd5b506004361061004c5760003560e01c80633e504e30146100515780635daf08ca1461008157806394af4c3c146100b4578063c127c247146100d0575b600080fd5b61006b600480360381019061006691906106fe565b610100565b6040516100789190610744565b60405180910390f35b61009b6004803603810190610096919061078b565b610118565b6040516100ab9493929190610857565b60405180910390f35b6100ce60048036038101906100c991906109d8565b610200565b005b6100ea60048036038101906100e59190610a50565b610421565b6040516100f79190610aac565b60405180910390f35b60046020528060005260406000206000915090505481565b6003818154811061012857600080fd5b90600052602060002090600402016000915090508060000154908060010160009054906101000a900473ffffffffffffffffffffffffffffffffffffffff169080600201549080600301805461017d90610af6565b80601f01602080910402602001604051908101604052809291908181526020018280546101a990610af6565b80156101f65780601f106101cb576101008083540402835291602001916101f6565b820191906000526020600020905b8154815290600101906020018083116101d957829003601f168201915b5050505050905084565b60008054906101000a900473ffffffffffffffffffffffffffffffffffffffff1673ffffffffffffffffffffffffffffffffffffffff163373ffffffffffffffffffffffffffffffffffffffff1614610285576040517f82b4290000000000000000000000000000000000000000000000000000000000815260040160405180910390fd5b6000600260009054906101000a900473ffffffffffffffffffffffffffffffffffffffff1673ffffffffffffffffffffffffffffffffffffffff1663a384ddbd84846000620186a060008060016040518863ffffffff1660e01b81526004016102f49796959493929190610bfd565b6020604051808303816000875af1158015610313573d6000803e3d6000fd5b505050506040513d601f19601f820116820180604052508101906103379190610c8f565b905080600160006101000a81548173ffffffffffffffffffffffffffffffffffffffff021916908373ffffffffffffffffffffffffffffffffffffffff160217905550600160009054906101000a900473ffffffffffffffffffffffffffffffffffffffff1673ffffffffffffffffffffffffffffffffffffffff16633610724e620186a06040518263ffffffff1660e01b81526004016103d89190610cbc565b6020604051808303816000875af11580156103f7573d6000803e3d6000fd5b505050506040513d601f19601f8201168201806040525081019061041b9190610cec565b50505050565b60008060009054906101000a900473ffffffffffffffffffffffffffffffffffffffff1673ffffffffffffffffffffffffffffffffffffffff163373ffffffffffffffffffffffffffffffffffffffff161415801561051c57506032600160009054906101000a900473ffffffffffffffffffffffffffffffffffffffff1673ffffffffffffffffffffffffffffffffffffffff166370a08231336040518263ffffffff1660e01b81526004016104d89190610aac565b602060405180830381865afa1580156104f5573d6000803e3d6000fd5b505050506040513d601f19601f820116820180604052508101906105199190610cec565b11155b15610553576040517f82b4290000000000000000000000000000000000000000000000000000000000815260040160405180910390fd5b604051806080016040528060055481526020018473ffffffffffffffffffffffffffffffffffffffff16815260200160008152602001838152506003600554815481106105a3576105a2610d19565b5b90600052602060002090600402016000820151816000015560208201518160010160006101000a81548173ffffffffffffffffffffffffffffffffffffffff021916908373ffffffffffffffffffffffffffffffffffffffff1602179055506040820151816002015560608201518160030190816106219190610eea565b50905050600554600460008573ffffffffffffffffffffffffffffffffffffffff1673ffffffffffffffffffffffffffffffffffffffff168152602001908152602001600020819055506005600081548092919061067e90610feb565b919050555082905092915050565b6000604051905090565b600080fd5b600080fd5b600073ffffffffffffffffffffffffffffffffffffffff82169050919050565b60006106cb826106a0565b9050919050565b6106db816106c0565b81146106e657600080fd5b50565b6000813590506106f8816106d2565b92915050565b60006020828403121561071457610713610696565b5b6000610722848285016106e9565b91505092915050565b6000819050919050565b61073e8161072b565b82525050565b60006020820190506107596000830184610735565b92915050565b6107688161072b565b811461077357600080fd5b50565b6000813590506107858161075f565b92915050565b6000602082840312156107a1576107a0610696565b5b60006107af84828501610776565b91505092915050565b6107c1816106c0565b82525050565b600081519050919050565b600082825260208201905092915050565b60005b838110156108015780820151818401526020810190506107e6565b60008484015250505050565b6000601f19601f8301169050919050565b6000610829826107c7565b61083381856107d2565b93506108438185602086016107e3565b61084c8161080d565b840191505092915050565b600060808201905061086c6000830187610735565b61087960208301866107b8565b6108866040830185610735565b8181036060830152610898818461081e565b905095945050505050565b600080fd5b600080fd5b7f4e487b7100000000000000000000000000000000000000000000000000000000600052604160045260246000fd5b6108e58261080d565b810181811067ffffffffffffffff82111715610904576109036108ad565b5b80604052505050565b600061091761068c565b905061092382826108dc565b919050565b600067ffffffffffffffff821115610943576109426108ad565b5b61094c8261080d565b9050602081019050919050565b82818337600083830152505050565b600061097b61097684610928565b61090d565b905082815260208101848484011115610997576109966108a8565b5b6109a2848285610959565b509392505050565b600082601f8301126109bf576109be6108a3565b5b81356109cf848260208601610968565b91505092915050565b600080604083850312156109ef576109ee610696565b5b600083013567ffffffffffffffff811115610a0d57610a0c61069b565b5b610a19858286016109aa565b925050602083013567ffffffffffffffff811115610a3a57610a3961069b565b5b610a46858286016109aa565b9150509250929050565b60008060408385031215610a6757610a66610696565b5b6000610a75858286016106e9565b925050602083013567ffffffffffffffff811115610a9657610a9561069b565b5b610aa2858286016109aa565b9150509250929050565b6000602082019050610ac160008301846107b8565b92915050565b7f4e487b7100000000000000000000000000000000000000000000000000000000600052602260045260246000fd5b60006002820490506001821680610b0e57607f821691505b602082108103610b2157610b20610ac7565b5b50919050565b6000819050919050565b6000819050919050565b6000610b56610b51610b4c84610b27565b610b31565b61072b565b9050919050565b610b6681610b3b565b82525050565b6000819050919050565b6000610b91610b8c610b8784610b6c565b610b31565b61072b565b9050919050565b610ba181610b76565b82525050565b60008115159050919050565b610bbc81610ba7565b82525050565b6000819050919050565b6000610be7610be2610bdd84610bc2565b610b31565b61072b565b9050919050565b610bf781610bcc565b82525050565b600060e0820190508181036000830152610c17818a61081e565b90508181036020830152610c2b818961081e565b9050610c3a6040830188610b5d565b610c476060830187610b98565b610c546080830186610bb3565b610c6160a0830185610bb3565b610c6e60c0830184610bee565b98975050505050505050565b600081519050610c89816106d2565b92915050565b600060208284031215610ca557610ca4610696565b5b6000610cb384828501610c7a565b91505092915050565b6000602082019050610cd16000830184610b98565b92915050565b600081519050610ce68161075f565b92915050565b600060208284031215610d0257610d01610696565b5b6000610d1084828501610cd7565b91505092915050565b7f4e487b7100000000000000000000000000000000000000000000000000000000600052603260045260246000fd5b60008190508160005260206000209050919050565b60006020601f8301049050919050565b600082821b905092915050565b600060088302610daa7fffffffffffffffffffffffffffffffffffffffffffffffffffffffffffffffff82610d6d565b610db48683610d6d565b95508019841693508086168417925050509392505050565b6000610de7610de2610ddd8461072b565b610b31565b61072b565b9050919050565b6000819050919050565b610e0183610dcc565b610e15610e0d82610dee565b848454610d7a565b825550505050565b600090565b610e2a610e1d565b610e35818484610df8565b505050565b5b81811015610e5957610e4e600082610e22565b600181019050610e3b565b5050565b601f821115610e9e57610e6f81610d48565b610e7884610d5d565b81016020851015610e87578190505b610e9b610e9385610d5d565b830182610e3a565b50505b505050565b600082821c905092915050565b6000610ec160001984600802610ea3565b1980831691505092915050565b6000610eda8383610eb0565b9150826002028217905092915050565b610ef3826107c7565b67ffffffffffffffff811115610f0c57610f0b6108ad565b5b610f168254610af6565b610f21828285610e5d565b600060209050601f831160018114610f545760008415610f42578287015190505b610f4c8582610ece565b865550610fb4565b601f198416610f6286610d48565b60005b82811015610f8a57848901518255600182019150602085019450602081019050610f65565b86831015610fa75784890151610fa3601f891682610eb0565b8355505b6001600288020188555050505b505050505050565b7f4e487b7100000000000000000000000000000000000000000000000000000000600052601160045260246000fd5b6000610ff68261072b565b91507fffffffffffffffffffffffffffffffffffffffffffffffffffffffffffffffff820361102857611027610fbc565b5b60018201905091905056fea2646970667358221220d87a05269a0f6962bf1120508bbf1eb28265052cec709820392dfd8ff221447d64736f6c63430008110033",
  "immutableReferences": {},
  "source": "// SPDX-License-Identifier: GPL-3.0\n// // // // // // // // // // // // // // // // // // // // // // // // // // // // // // // // // // // // // // // // // // // // // // // // // // // // // // // // // // // // //\n//\n//      MMWKd:..                                                                                    ..:dKWMM\n//      MKl.                                                                                            .lKW\n//      O'       ..''''''''''''.     .''''''.     .'''''.      .''''''''''''''.     .''''''''''''..       'O\n//      '     .ckKNNWNWWWWWWWWWk.   .xNWWNWNl    ,0WWWWW0,     lNWWWWWWWWWNWNk'    ;0NNNWWWWWWWWNNKkc.     '\n//           ,OWMMMMMMMMMMMMMMMO.   .kMMMMMWl    ,KMMMMMK,     lWMMMMMMMMMMM0,    ;KMMMMMMMMMMMMMMMMWO,\n//          .kMMMMMMMMMMMMMMMMMO.   .kMMMMMWl    ,KMMMMMK,     lWMMMMMMMMMM0,    ;KMMMMMMMMMMMMMMMMMMMk.\n//          '0MMMMMMMMMMMMMMMMMO.   .kMMMMMWl    ,KMMMMMK,     lWMMMMMMMMM0,    :KMMMMMMMMMMMMMMMMMMMM0'\n//          '0MMMMMMMMMMMMMMMMMO.   .kMMMMMWl    ,KMMMMMK,     lWMMMMMMMM0,    :KMMMMMMMMMMMMMMMMMMMMM0'\n//          '0MMMMMMMMMMMMMMMMMO.   .kMMMMMWl    ,KMMMMMK,     lWMMMMMMM0,    ;0NNWWMMMMMMMMMMMMMMMMMM0'\n//          '0MMMMMMMMMMMMMMMMMO.   .kMMMMMWl    ,KMMMMMK,     lWMMMMMM0,     .'.',;lkNMMMMMMMMMMMMMMM0'\n//          '0MMMMMMMMMMMMMMMMMO.   .kMMMMMWl    ,KMMMMMK,     lWMMMMMK;              ,kWMMMMMMMMMMMMM0'\n//          '0MMMMMMMMMMMMMMMMMO.   .kMMMMMWl    ,KMMMMMK,     lWMMMMX:    .:oxxdc'    .dWMMMMMMMMMMMM0'\n//          '0MMMMMMMMMMMMMMMMMO.   .kMMMMMWl    ,KMMMMMK,     lWMMMWd.   ,OWMMMMMXl.   '0MMMMMMMMMMMM0'\n//          '0MMMMMMMMMMMMMMMMMO.   .kMMMMMWl    ,KMMMMMK,     lWMMMX;   .kMMMMMMMMK,   .xMMMMMMMMMMMM0'\n//          '0MMMMMMMMMMMMMMMMMO.   .kMMMMMWl    ,KMMMMMK,     lWMMM0'   .OMMMMMMMMX;   .xMMMMMMMMMMMM0'\n//          .OMMMMMMMMMMMMMMMMMO.   .kMMMMMWl    ,KMMMMMK,     lWMMMK,    lNMMMMMMWx.   '0MMMMMMMMMMMMO.\n//           lNMMMMMMMMMMMMMMMMO.   .kMMMMMWl    ,KMMMMMK,     lWMMMWd.   .:x0KKKkc.   .dWMMMMMMMMMMMNl\n//      .    .c0WMMMMMMMMMMMMMMO.   .kMMMMMWo    ,KMMMMMK,     lWMMMMNd.     ....     .xNMMMMMMMMMMW0c.    .\n//      l      .,lddxxxxxxxxxxxc.    :xxxxxd,    .lxxxxxl.     ,dxxxxxd:.            .cdxxxxxxxxddl,.      l\n//      No.                                                                                              .oN\n//      MW0l'                                                                                          'l0WM\n//      MMMWKd;.                                                                                    .;dKWMMM\n//\n// // // // // // // // // // // // // // // // // // // // // // // // // // // // // // // // // // // // // // // // // // // // // // // // // // // // // // // // // // // // //\n//                                                                                                                                                                                  //\n//      @dev            ::              Aron Mauritala Ayuk                                                                                                                                          //\n//      @msg            ::              stereo@iii6.xyz                                                                                                                                   //\n//      @github         ::              @stereoIII6\n//      @twitter        ::              @stereoIII6                                                                                                                                              //\n//                                                                                                                                                                                  //\n// // // // // // // // // // // // // // // // // // // // // // // // // // // // // // // // // // // // // // // // // // // // // // // // // // // // // // // // // // // // //\n//                                                                                                                                                                                  //\n//      @dev            ::              Juan Xavier Valverde                                                                                                                                    //\n//      @msg            ::              juanxavier@iii6.xyz                                                                                                                               //\n//      @twitter        ::              @JuanXavier                                                                                                                                             //\n//      @github         ::              @JuanXavier                                                                                                                                             //\n//                                                                                                                                                                                  //                                                                                                                                                                                 //\n// // // // // // // // // // // // // // // // // // // // // // // // // // // // // // // // // // // // // // // // // // // // // // // // // // // // // // // // // // // // //\n//  *   *   *   *   *   *   *   *   *   *   *   *   *   *   *   *   *   *   *   *   *   *   *   *   *   *   *   *   *   *   *   *   *   *   *   *   *   *   *   *   *   *   *   *   //\n// // // // // // // // // // // // // // // // // // // // // // // // // // // // // // // // // // // // // // // // // // // // // // // // // // // // // // // // // // // // //\n//                                                                                                                                                                                  //\n//      @company        ::              Fractio Holding                                                                                                                                                                       //\n//      @title          ::              iii6 Safes                                                                                                                            //\n//      @description    ::              This is a Asset Safe for all Board Members                                                                                                                            //\n//      @version        ::              0.0.1                                                                                                                                       //\n//      @purpose        ::              Multinet Address Storage                                                                                                           //\n//                                                                                                                                                                                  //\n//                                                                                                                                                                                  //\n//                                                                                                                                                                                  //\n//                                                                                                                                                                                  //\n//                                                                                                                                                                                  //\n// // // // // // // // // // // // // // // // // // // // // // // // // // // // // // // // // // // // // // // // // // // // // // // // // // // // // // // // // // // // //\n//  *   *   *   *   *   *   *   *   *   *   *   *   *   *   *   *   *   *   *   *   *   *   *   *   *   *   *   *   *   *   *   *   *   *   *   *   *   *   *   *   *   *   *   *   //\n// // // // // // // // // // // // // // // // // // // // // // // // // // // // // // // // // // // // // // // // // // // // // // // // // // // // // // // // // // // // //\n\n/////////////////////////////////////////////////////////////////////////////////////////////////////////////////////\n\n/////////////////////////////////////////////////////////////////////////////////////////////////////////////////////\n\npragma solidity ^0.8.7;\n\nimport \"./iii6CoinModel.sol\";\nimport \"./iii6SafeVoting.sol\";\nimport \"../Misc/iii6Proposals.sol\";\nimport \"../Misc/iii6Relations.sol\";\nimport \"../Assets/iii6CoinFactory.sol\";\nimport \"../Misc/Errors/iii6Errors.sol\";\n\ncontract iii6SafeModel is iii6Proposals, iii6Relations, iii6Errors {\n    // list of trustees\n    address TRUSTEE;\n    iii6CoinModel BoardShares;\n    iii6CoinFactory iii6Coins;\n    // array of board members\n    BoardMember[] public members;\n    // board member id callback from address\n    mapping(address => uint256) public memNum;\n    // number of board members starting at 1\n    uint256 bms;\n    // max number of board members starting at 1\n    /**\n     * @dev allows only board members to use functions\n     */\n    modifier isMember() {\n        if (memNum[msg.sender] == 0) revert Unauthorized();\n        if (members[memNum[msg.sender]].adr != msg.sender)\n            revert Unauthorized();\n        _;\n    }\n\n    /**\n     * @dev initializes safe contract that stores and distributes funds amongst boardmembers\n     */\n    constructor() {\n        TRUSTEE = msg.sender; // first trust admin\n        bms = 1; // number of board members\n    }\n\n    function makeShares(string memory _name, string memory _sym) external {\n        if (msg.sender != TRUSTEE) revert Unauthorized();\n        address _newShares = iii6Coins.buildERC20Token(\n            _name,\n            _sym,\n            0,\n            100000,\n            false,\n            false,\n            1\n        );\n        BoardShares = iii6CoinModel(payable(_newShares));\n        BoardShares.buyTokens(100000);\n    }\n\n    /**\n     * @dev allows trustee to add board members to safe contract\n     * @param _adr number of board members\n     * @param _inf minimum share\n     */\n    function addMember(address _adr, string memory _inf)\n        external\n        returns (address)\n    {\n        if (msg.sender != TRUSTEE && BoardShares.balanceOf(msg.sender) <= 50)\n            revert Unauthorized();\n        members[bms] = BoardMember(bms, _adr, 0, _inf);\n        memNum[_adr] = bms;\n        bms++;\n        return _adr;\n    }\n}\n",
  "sourcePath": "/Users/iii6/Documents/GitHub/III6Dojo/contracts/iii6Utils/Assets/iii6SafeModel.sol",
  "compiler": {
    "name": "solc",
    "version": "0.8.17+commit.8df45f5f.Emscripten.clang"
  },
  "schemaVersion": "3.4.8",
  "updatedAt": "2022-12-15T19:33:33.967Z",
  "devdoc": {
    "kind": "dev",
    "methods": {
      "addMember(address,string)": {
        "details": "allows trustee to add board members to safe contract",
        "params": {
          "_adr": "number of board members",
          "_inf": "minimum share"
        }
      },
      "constructor": {
        "details": "initializes safe contract that stores and distributes funds amongst boardmembers"
      }
    },
    "version": 1
  },
  "userdoc": {
    "kind": "user",
    "methods": {},
    "version": 1
  }
}