{
  "contractName": "iii6AssetFactory",
  "abi": [
    {
      "inputs": [
        {
          "internalType": "string",
          "name": "_name",
          "type": "string"
        },
        {
          "internalType": "string",
          "name": "_sym",
          "type": "string"
        }
      ],
      "stateMutability": "nonpayable",
      "type": "constructor"
    },
    {
      "inputs": [],
      "name": "All_Slots_Taken",
      "type": "error"
    },
    {
      "inputs": [],
      "name": "Already_Listed",
      "type": "error"
    },
    {
      "inputs": [],
      "name": "Array_Length_Mismatch",
      "type": "error"
    },
    {
      "inputs": [],
      "name": "Event_Has_Ended",
      "type": "error"
    },
    {
      "inputs": [],
      "name": "Greenlist_Expired",
      "type": "error"
    },
    {
      "inputs": [],
      "name": "Insufficient_Amount",
      "type": "error"
    },
    {
      "inputs": [],
      "name": "Insufficient_Balance",
      "type": "error"
    },
    {
      "inputs": [],
      "name": "Insufficient_Funds",
      "type": "error"
    },
    {
      "inputs": [],
      "name": "Insufficient_MLQ",
      "type": "error"
    },
    {
      "inputs": [],
      "name": "Insufficient_Supply",
      "type": "error"
    },
    {
      "inputs": [],
      "name": "Invalid_Amount",
      "type": "error"
    },
    {
      "inputs": [],
      "name": "Invalid_Response",
      "type": "error"
    },
    {
      "inputs": [],
      "name": "Max_Tokens_Minted",
      "type": "error"
    },
    {
      "inputs": [],
      "name": "Min_Requirements_Not_Met",
      "type": "error"
    },
    {
      "inputs": [],
      "name": "Mint_In_Progress",
      "type": "error"
    },
    {
      "inputs": [],
      "name": "Mint_Is_Not_Yet_Live",
      "type": "error"
    },
    {
      "inputs": [],
      "name": "Not_Burnable",
      "type": "error"
    },
    {
      "inputs": [],
      "name": "Not_Friends",
      "type": "error"
    },
    {
      "inputs": [],
      "name": "Not_Friends_Rev",
      "type": "error"
    },
    {
      "inputs": [],
      "name": "Not_Greenlisted",
      "type": "error"
    },
    {
      "inputs": [],
      "name": "Not_Pausable",
      "type": "error"
    },
    {
      "inputs": [],
      "name": "Sold_Out",
      "type": "error"
    },
    {
      "inputs": [],
      "name": "Unauthorized",
      "type": "error"
    },
    {
      "inputs": [],
      "name": "You_Are_Not_The_Holder",
      "type": "error"
    },
    {
      "inputs": [],
      "name": "You_Need_To_Wait",
      "type": "error"
    },
    {
      "anonymous": false,
      "inputs": [
        {
          "indexed": false,
          "internalType": "uint256",
          "name": "TX",
          "type": "uint256"
        },
        {
          "indexed": false,
          "internalType": "address",
          "name": "ACTOR",
          "type": "address"
        },
        {
          "indexed": false,
          "internalType": "string",
          "name": "ACTION",
          "type": "string"
        },
        {
          "indexed": false,
          "internalType": "address",
          "name": "REL",
          "type": "address"
        },
        {
          "indexed": false,
          "internalType": "uint256",
          "name": "DATE",
          "type": "uint256"
        }
      ],
      "name": "ACTION_Log",
      "type": "event"
    },
    {
      "anonymous": false,
      "inputs": [
        {
          "indexed": true,
          "internalType": "address",
          "name": "owner",
          "type": "address"
        },
        {
          "indexed": true,
          "internalType": "address",
          "name": "approved",
          "type": "address"
        },
        {
          "indexed": true,
          "internalType": "uint256",
          "name": "tokenId",
          "type": "uint256"
        }
      ],
      "name": "Approval",
      "type": "event"
    },
    {
      "anonymous": false,
      "inputs": [
        {
          "indexed": true,
          "internalType": "address",
          "name": "owner",
          "type": "address"
        },
        {
          "indexed": true,
          "internalType": "address",
          "name": "operator",
          "type": "address"
        },
        {
          "indexed": false,
          "internalType": "bool",
          "name": "approved",
          "type": "bool"
        }
      ],
      "name": "ApprovalForAll",
      "type": "event"
    },
    {
      "anonymous": false,
      "inputs": [
        {
          "indexed": false,
          "internalType": "uint256",
          "name": "TX",
          "type": "uint256"
        },
        {
          "indexed": false,
          "internalType": "address",
          "name": "ACTOR",
          "type": "address"
        },
        {
          "indexed": false,
          "internalType": "string",
          "name": "ERROR",
          "type": "string"
        },
        {
          "indexed": false,
          "internalType": "uint256",
          "name": "DATE",
          "type": "uint256"
        }
      ],
      "name": "ERR_Log",
      "type": "event"
    },
    {
      "anonymous": false,
      "inputs": [
        {
          "indexed": false,
          "internalType": "uint256",
          "name": "TX",
          "type": "uint256"
        },
        {
          "indexed": false,
          "internalType": "address",
          "name": "TRUSTEE",
          "type": "address"
        },
        {
          "indexed": false,
          "internalType": "uint256",
          "name": "AMNT",
          "type": "uint256"
        },
        {
          "indexed": false,
          "internalType": "uint256",
          "name": "DATE",
          "type": "uint256"
        }
      ],
      "name": "TX_Log",
      "type": "event"
    },
    {
      "anonymous": false,
      "inputs": [
        {
          "indexed": true,
          "internalType": "address",
          "name": "from",
          "type": "address"
        },
        {
          "indexed": true,
          "internalType": "address",
          "name": "to",
          "type": "address"
        },
        {
          "indexed": true,
          "internalType": "uint256",
          "name": "tokenId",
          "type": "uint256"
        }
      ],
      "name": "Transfer",
      "type": "event"
    },
    {
      "inputs": [],
      "name": "COIN_USD",
      "outputs": [
        {
          "internalType": "uint256",
          "name": "",
          "type": "uint256"
        }
      ],
      "stateMutability": "view",
      "type": "function"
    },
    {
      "inputs": [],
      "name": "ETH_USD",
      "outputs": [
        {
          "internalType": "uint256",
          "name": "",
          "type": "uint256"
        }
      ],
      "stateMutability": "view",
      "type": "function"
    },
    {
      "inputs": [],
      "name": "X_USD",
      "outputs": [
        {
          "internalType": "uint256",
          "name": "",
          "type": "uint256"
        }
      ],
      "stateMutability": "view",
      "type": "function"
    },
    {
      "inputs": [],
      "name": "Y_USD",
      "outputs": [
        {
          "internalType": "uint256",
          "name": "",
          "type": "uint256"
        }
      ],
      "stateMutability": "view",
      "type": "function"
    },
    {
      "inputs": [
        {
          "internalType": "address",
          "name": "to",
          "type": "address"
        },
        {
          "internalType": "uint256",
          "name": "tokenId",
          "type": "uint256"
        }
      ],
      "name": "approve",
      "outputs": [],
      "stateMutability": "nonpayable",
      "type": "function"
    },
    {
      "inputs": [
        {
          "internalType": "address",
          "name": "owner",
          "type": "address"
        }
      ],
      "name": "balanceOf",
      "outputs": [
        {
          "internalType": "uint256",
          "name": "",
          "type": "uint256"
        }
      ],
      "stateMutability": "view",
      "type": "function"
    },
    {
      "inputs": [],
      "name": "changeMintState",
      "outputs": [
        {
          "internalType": "bool",
          "name": "",
          "type": "bool"
        }
      ],
      "stateMutability": "nonpayable",
      "type": "function"
    },
    {
      "inputs": [
        {
          "internalType": "uint256",
          "name": "_amt",
          "type": "uint256"
        }
      ],
      "name": "coinPriceOfEth",
      "outputs": [
        {
          "internalType": "uint256",
          "name": "",
          "type": "uint256"
        }
      ],
      "stateMutability": "view",
      "type": "function"
    },
    {
      "inputs": [
        {
          "internalType": "uint256",
          "name": "_amt",
          "type": "uint256"
        }
      ],
      "name": "coinPriceOfUSD",
      "outputs": [
        {
          "internalType": "uint256",
          "name": "",
          "type": "uint256"
        }
      ],
      "stateMutability": "view",
      "type": "function"
    },
    {
      "inputs": [
        {
          "internalType": "uint256",
          "name": "_amt",
          "type": "uint256"
        }
      ],
      "name": "coinPriceOfX",
      "outputs": [
        {
          "internalType": "uint256",
          "name": "",
          "type": "uint256"
        }
      ],
      "stateMutability": "view",
      "type": "function"
    },
    {
      "inputs": [
        {
          "internalType": "uint256",
          "name": "_amt",
          "type": "uint256"
        }
      ],
      "name": "coinPriceOfY",
      "outputs": [
        {
          "internalType": "uint256",
          "name": "",
          "type": "uint256"
        }
      ],
      "stateMutability": "view",
      "type": "function"
    },
    {
      "inputs": [
        {
          "internalType": "uint256",
          "name": "",
          "type": "uint256"
        }
      ],
      "name": "dias",
      "outputs": [
        {
          "internalType": "bytes",
          "name": "",
          "type": "bytes"
        }
      ],
      "stateMutability": "view",
      "type": "function"
    },
    {
      "inputs": [
        {
          "internalType": "uint256",
          "name": "_amt",
          "type": "uint256"
        }
      ],
      "name": "ethPriceOfUSD",
      "outputs": [
        {
          "internalType": "uint256",
          "name": "",
          "type": "uint256"
        }
      ],
      "stateMutability": "view",
      "type": "function"
    },
    {
      "inputs": [
        {
          "internalType": "uint256",
          "name": "tokenId",
          "type": "uint256"
        }
      ],
      "name": "getApproved",
      "outputs": [
        {
          "internalType": "address",
          "name": "",
          "type": "address"
        }
      ],
      "stateMutability": "view",
      "type": "function"
    },
    {
      "inputs": [],
      "name": "getCoinPriceInEth",
      "outputs": [
        {
          "internalType": "uint256",
          "name": "coinPriceEth",
          "type": "uint256"
        }
      ],
      "stateMutability": "view",
      "type": "function"
    },
    {
      "inputs": [],
      "name": "getCoinPriceInX",
      "outputs": [
        {
          "internalType": "uint256",
          "name": "coinPriceX",
          "type": "uint256"
        }
      ],
      "stateMutability": "view",
      "type": "function"
    },
    {
      "inputs": [],
      "name": "getCoinPriceInY",
      "outputs": [
        {
          "internalType": "uint256",
          "name": "coinPriceY",
          "type": "uint256"
        }
      ],
      "stateMutability": "view",
      "type": "function"
    },
    {
      "inputs": [],
      "name": "getEthPriceInCoin",
      "outputs": [
        {
          "internalType": "uint256",
          "name": "ethPriceCoin",
          "type": "uint256"
        }
      ],
      "stateMutability": "view",
      "type": "function"
    },
    {
      "inputs": [],
      "name": "getEthPriceInX",
      "outputs": [
        {
          "internalType": "uint256",
          "name": "ethPriceX",
          "type": "uint256"
        }
      ],
      "stateMutability": "view",
      "type": "function"
    },
    {
      "inputs": [],
      "name": "getEthPriceInY",
      "outputs": [
        {
          "internalType": "uint256",
          "name": "ethPriceY",
          "type": "uint256"
        }
      ],
      "stateMutability": "view",
      "type": "function"
    },
    {
      "inputs": [],
      "name": "getXPriceInCoin",
      "outputs": [
        {
          "internalType": "uint256",
          "name": "xPriceCoin",
          "type": "uint256"
        }
      ],
      "stateMutability": "view",
      "type": "function"
    },
    {
      "inputs": [],
      "name": "getXPriceInEth",
      "outputs": [
        {
          "internalType": "uint256",
          "name": "xPriceEth",
          "type": "uint256"
        }
      ],
      "stateMutability": "view",
      "type": "function"
    },
    {
      "inputs": [],
      "name": "getXPriceInY",
      "outputs": [
        {
          "internalType": "uint256",
          "name": "xPriceY",
          "type": "uint256"
        }
      ],
      "stateMutability": "view",
      "type": "function"
    },
    {
      "inputs": [],
      "name": "getYPriceInCoin",
      "outputs": [
        {
          "internalType": "uint256",
          "name": "yPriceCoin",
          "type": "uint256"
        }
      ],
      "stateMutability": "view",
      "type": "function"
    },
    {
      "inputs": [],
      "name": "getYPriceInEth",
      "outputs": [
        {
          "internalType": "uint256",
          "name": "yPriceEth",
          "type": "uint256"
        }
      ],
      "stateMutability": "view",
      "type": "function"
    },
    {
      "inputs": [],
      "name": "getYPriceInX",
      "outputs": [
        {
          "internalType": "uint256",
          "name": "yPriceX",
          "type": "uint256"
        }
      ],
      "stateMutability": "view",
      "type": "function"
    },
    {
      "inputs": [
        {
          "internalType": "uint256",
          "name": "count",
          "type": "uint256"
        }
      ],
      "name": "grabIds",
      "outputs": [
        {
          "internalType": "uint256",
          "name": "ids",
          "type": "uint256"
        }
      ],
      "stateMutability": "view",
      "type": "function"
    },
    {
      "inputs": [
        {
          "internalType": "uint256",
          "name": "_id",
          "type": "uint256"
        }
      ],
      "name": "holder",
      "outputs": [
        {
          "internalType": "address",
          "name": "",
          "type": "address"
        }
      ],
      "stateMutability": "view",
      "type": "function"
    },
    {
      "inputs": [
        {
          "internalType": "address",
          "name": "owner",
          "type": "address"
        },
        {
          "internalType": "address",
          "name": "operator",
          "type": "address"
        }
      ],
      "name": "isApprovedForAll",
      "outputs": [
        {
          "internalType": "bool",
          "name": "",
          "type": "bool"
        }
      ],
      "stateMutability": "view",
      "type": "function"
    },
    {
      "inputs": [
        {
          "internalType": "address",
          "name": "_adr",
          "type": "address"
        }
      ],
      "name": "isOwner",
      "outputs": [
        {
          "internalType": "bool",
          "name": "",
          "type": "bool"
        }
      ],
      "stateMutability": "view",
      "type": "function"
    },
    {
      "inputs": [],
      "name": "licenseFee",
      "outputs": [
        {
          "internalType": "uint256",
          "name": "",
          "type": "uint256"
        }
      ],
      "stateMutability": "view",
      "type": "function"
    },
    {
      "inputs": [
        {
          "internalType": "address",
          "name": "",
          "type": "address"
        }
      ],
      "name": "licenseRange",
      "outputs": [
        {
          "internalType": "uint256",
          "name": "",
          "type": "uint256"
        }
      ],
      "stateMutability": "view",
      "type": "function"
    },
    {
      "inputs": [],
      "name": "max",
      "outputs": [
        {
          "internalType": "uint256",
          "name": "",
          "type": "uint256"
        }
      ],
      "stateMutability": "view",
      "type": "function"
    },
    {
      "inputs": [
        {
          "internalType": "uint256",
          "name": "_amnt",
          "type": "uint256"
        }
      ],
      "name": "mint",
      "outputs": [
        {
          "internalType": "uint256",
          "name": "",
          "type": "uint256"
        }
      ],
      "stateMutability": "payable",
      "type": "function"
    },
    {
      "inputs": [],
      "name": "minted",
      "outputs": [
        {
          "internalType": "uint256",
          "name": "",
          "type": "uint256"
        }
      ],
      "stateMutability": "view",
      "type": "function"
    },
    {
      "inputs": [
        {
          "internalType": "address",
          "name": "",
          "type": "address"
        }
      ],
      "name": "mp",
      "outputs": [
        {
          "internalType": "uint256",
          "name": "",
          "type": "uint256"
        }
      ],
      "stateMutability": "view",
      "type": "function"
    },
    {
      "inputs": [
        {
          "internalType": "address",
          "name": "",
          "type": "address"
        },
        {
          "internalType": "uint256",
          "name": "",
          "type": "uint256"
        }
      ],
      "name": "myProjects",
      "outputs": [
        {
          "internalType": "address",
          "name": "",
          "type": "address"
        }
      ],
      "stateMutability": "view",
      "type": "function"
    },
    {
      "inputs": [],
      "name": "nam",
      "outputs": [
        {
          "internalType": "string",
          "name": "",
          "type": "string"
        }
      ],
      "stateMutability": "view",
      "type": "function"
    },
    {
      "inputs": [],
      "name": "name",
      "outputs": [
        {
          "internalType": "string",
          "name": "",
          "type": "string"
        }
      ],
      "stateMutability": "view",
      "type": "function"
    },
    {
      "inputs": [
        {
          "internalType": "address",
          "name": "",
          "type": "address"
        }
      ],
      "name": "nftCount",
      "outputs": [
        {
          "internalType": "uint256",
          "name": "",
          "type": "uint256"
        }
      ],
      "stateMutability": "view",
      "type": "function"
    },
    {
      "inputs": [
        {
          "internalType": "address",
          "name": "",
          "type": "address"
        },
        {
          "internalType": "uint256",
          "name": "",
          "type": "uint256"
        }
      ],
      "name": "ntfIdByCount",
      "outputs": [
        {
          "internalType": "uint256",
          "name": "",
          "type": "uint256"
        }
      ],
      "stateMutability": "view",
      "type": "function"
    },
    {
      "inputs": [],
      "name": "owner",
      "outputs": [
        {
          "internalType": "address",
          "name": "",
          "type": "address"
        }
      ],
      "stateMutability": "view",
      "type": "function"
    },
    {
      "inputs": [
        {
          "internalType": "uint256",
          "name": "tokenId",
          "type": "uint256"
        }
      ],
      "name": "ownerOf",
      "outputs": [
        {
          "internalType": "address",
          "name": "",
          "type": "address"
        }
      ],
      "stateMutability": "view",
      "type": "function"
    },
    {
      "inputs": [],
      "name": "p",
      "outputs": [
        {
          "internalType": "uint256",
          "name": "",
          "type": "uint256"
        }
      ],
      "stateMutability": "view",
      "type": "function"
    },
    {
      "inputs": [],
      "name": "price",
      "outputs": [
        {
          "internalType": "uint256",
          "name": "",
          "type": "uint256"
        }
      ],
      "stateMutability": "view",
      "type": "function"
    },
    {
      "inputs": [
        {
          "internalType": "uint256",
          "name": "",
          "type": "uint256"
        }
      ],
      "name": "projects",
      "outputs": [
        {
          "internalType": "address",
          "name": "",
          "type": "address"
        }
      ],
      "stateMutability": "view",
      "type": "function"
    },
    {
      "inputs": [
        {
          "internalType": "address",
          "name": "from",
          "type": "address"
        },
        {
          "internalType": "address",
          "name": "to",
          "type": "address"
        },
        {
          "internalType": "uint256",
          "name": "tokenId",
          "type": "uint256"
        }
      ],
      "name": "safeTransferFrom",
      "outputs": [],
      "stateMutability": "nonpayable",
      "type": "function"
    },
    {
      "inputs": [
        {
          "internalType": "address",
          "name": "from",
          "type": "address"
        },
        {
          "internalType": "address",
          "name": "to",
          "type": "address"
        },
        {
          "internalType": "uint256",
          "name": "tokenId",
          "type": "uint256"
        },
        {
          "internalType": "bytes",
          "name": "_data",
          "type": "bytes"
        }
      ],
      "name": "safeTransferFrom",
      "outputs": [],
      "stateMutability": "nonpayable",
      "type": "function"
    },
    {
      "inputs": [
        {
          "internalType": "address",
          "name": "operator",
          "type": "address"
        },
        {
          "internalType": "bool",
          "name": "approved",
          "type": "bool"
        }
      ],
      "name": "setApprovalForAll",
      "outputs": [],
      "stateMutability": "nonpayable",
      "type": "function"
    },
    {
      "inputs": [
        {
          "internalType": "address",
          "name": "_oracle",
          "type": "address"
        },
        {
          "internalType": "uint256",
          "name": "_digits",
          "type": "uint256"
        }
      ],
      "name": "setX",
      "outputs": [
        {
          "internalType": "bool",
          "name": "",
          "type": "bool"
        }
      ],
      "stateMutability": "nonpayable",
      "type": "function"
    },
    {
      "inputs": [
        {
          "internalType": "address",
          "name": "_oracle",
          "type": "address"
        },
        {
          "internalType": "uint256",
          "name": "_digits",
          "type": "uint256"
        }
      ],
      "name": "setY",
      "outputs": [
        {
          "internalType": "bool",
          "name": "",
          "type": "bool"
        }
      ],
      "stateMutability": "nonpayable",
      "type": "function"
    },
    {
      "inputs": [],
      "name": "start",
      "outputs": [
        {
          "internalType": "bool",
          "name": "",
          "type": "bool"
        }
      ],
      "stateMutability": "view",
      "type": "function"
    },
    {
      "inputs": [
        {
          "internalType": "bytes4",
          "name": "interfaceId",
          "type": "bytes4"
        }
      ],
      "name": "supportsInterface",
      "outputs": [
        {
          "internalType": "bool",
          "name": "",
          "type": "bool"
        }
      ],
      "stateMutability": "view",
      "type": "function"
    },
    {
      "inputs": [],
      "name": "sym",
      "outputs": [
        {
          "internalType": "string",
          "name": "",
          "type": "string"
        }
      ],
      "stateMutability": "view",
      "type": "function"
    },
    {
      "inputs": [],
      "name": "symbol",
      "outputs": [
        {
          "internalType": "string",
          "name": "",
          "type": "string"
        }
      ],
      "stateMutability": "view",
      "type": "function"
    },
    {
      "inputs": [
        {
          "internalType": "uint256",
          "name": "tokenId",
          "type": "uint256"
        }
      ],
      "name": "tokenURI",
      "outputs": [
        {
          "internalType": "string",
          "name": "",
          "type": "string"
        }
      ],
      "stateMutability": "view",
      "type": "function"
    },
    {
      "inputs": [
        {
          "internalType": "address",
          "name": "from",
          "type": "address"
        },
        {
          "internalType": "address",
          "name": "to",
          "type": "address"
        },
        {
          "internalType": "uint256",
          "name": "tokenId",
          "type": "uint256"
        }
      ],
      "name": "transferFrom",
      "outputs": [],
      "stateMutability": "nonpayable",
      "type": "function"
    },
    {
      "inputs": [
        {
          "internalType": "uint256",
          "name": "_amt",
          "type": "uint256"
        }
      ],
      "name": "xPriceOfUSD",
      "outputs": [
        {
          "internalType": "uint256",
          "name": "",
          "type": "uint256"
        }
      ],
      "stateMutability": "view",
      "type": "function"
    },
    {
      "inputs": [
        {
          "internalType": "uint256",
          "name": "_amt",
          "type": "uint256"
        }
      ],
      "name": "yPriceOfUSD",
      "outputs": [
        {
          "internalType": "uint256",
          "name": "",
          "type": "uint256"
        }
      ],
      "stateMutability": "view",
      "type": "function"
    },
    {
      "inputs": [
        {
          "internalType": "uint256",
          "name": "_years",
          "type": "uint256"
        }
      ],
      "name": "buyLicense",
      "outputs": [
        {
          "internalType": "uint256",
          "name": "",
          "type": "uint256"
        }
      ],
      "stateMutability": "payable",
      "type": "function"
    },
    {
      "inputs": [
        {
          "internalType": "string",
          "name": "_name",
          "type": "string"
        },
        {
          "internalType": "string",
          "name": "_sym",
          "type": "string"
        },
        {
          "internalType": "uint256",
          "name": "_rate",
          "type": "uint256"
        },
        {
          "internalType": "uint256",
          "name": "_supply",
          "type": "uint256"
        },
        {
          "internalType": "bool",
          "name": "_burn",
          "type": "bool"
        },
        {
          "internalType": "bool",
          "name": "_pause",
          "type": "bool"
        },
        {
          "internalType": "uint256",
          "name": "_curr",
          "type": "uint256"
        }
      ],
      "name": "buildERC20Token",
      "outputs": [
        {
          "internalType": "address",
          "name": "",
          "type": "address"
        }
      ],
      "stateMutability": "payable",
      "type": "function"
    },
    {
      "inputs": [
        {
          "internalType": "string",
          "name": "_name",
          "type": "string"
        },
        {
          "internalType": "string",
          "name": "_sym",
          "type": "string"
        },
        {
          "internalType": "uint256",
          "name": "_max",
          "type": "uint256"
        },
        {
          "internalType": "uint256",
          "name": "_price",
          "type": "uint256"
        },
        {
          "internalType": "uint256",
          "name": "_g",
          "type": "uint256"
        }
      ],
      "name": "buildERC721Token",
      "outputs": [
        {
          "internalType": "address",
          "name": "",
          "type": "address"
        }
      ],
      "stateMutability": "payable",
      "type": "function"
    }
  ],
  "bytecode": "0x60806040523480156200001157600080fd5b506040516201e9a03803806201e9a08339818101604052810190620000379190620005a7565b33828260008060405180602001604052806000815250604051806020016040528060008152506000806000808989816000908162000076919062000877565b50806001908162000088919062000877565b50505060006006819055506000600781905550600060088190555060006009819055508a600a60006101000a81548173ffffffffffffffffffffffffffffffffffffffff021916908373ffffffffffffffffffffffffffffffffffffffff16021790555089600d9081620000fd919062000877565b5088600e90816200010f919062000877565b5087600c8190555066038d7ea4c68000876200012c91906200098d565b6010819055508315620001c257858583856001600060016040516200015190620003f8565b62000163979695949392919062000a9b565b604051809103906000f08015801562000180573d6000803e3d6000fd5b50601460006101000a81548173ffffffffffffffffffffffffffffffffffffffff021916908373ffffffffffffffffffffffffffffffffffffffff1602179055505b600081111562000248578030604051620001dc9062000406565b620001e992919062000b6b565b604051809103906000f08015801562000206573d6000803e3d6000fd5b50601560006101000a81548173ffffffffffffffffffffffffffffffffffffffff021916908373ffffffffffffffffffffffffffffffffffffffff1602179055505b505050505050505050505060014603620002b75773e47da91495c75e1d48569f343938380d8303b1f2601660006101000a81548173ffffffffffffffffffffffffffffffffffffffff021916908373ffffffffffffffffffffffffffffffffffffffff160217905550620003e3565b600546036200031b5773e47da91495c75e1d48569f343938380d8303b1f2601660006101000a81548173ffffffffffffffffffffffffffffffffffffffff021916908373ffffffffffffffffffffffffffffffffffffffff160217905550620003e2565b608946036200037f5773e47da91495c75e1d48569f343938380d8303b1f2601660006101000a81548173ffffffffffffffffffffffffffffffffffffffff021916908373ffffffffffffffffffffffffffffffffffffffff160217905550620003e1565b620138814603620003e05773e47da91495c75e1d48569f343938380d8303b1f2601660006101000a81548173ffffffffffffffffffffffffffffffffffffffff021916908373ffffffffffffffffffffffffffffffffffffffff1602179055505b5b5b5b652d79883d2000601a81905550505062000b98565b615d908062016f4483390190565b611ccc806201ccd483390190565b6000604051905090565b600080fd5b600080fd5b600080fd5b600080fd5b6000601f19601f8301169050919050565b7f4e487b7100000000000000000000000000000000000000000000000000000000600052604160045260246000fd5b6200047d8262000432565b810181811067ffffffffffffffff821117156200049f576200049e62000443565b5b80604052505050565b6000620004b462000414565b9050620004c2828262000472565b919050565b600067ffffffffffffffff821115620004e557620004e462000443565b5b620004f08262000432565b9050602081019050919050565b60005b838110156200051d57808201518184015260208101905062000500565b60008484015250505050565b6000620005406200053a84620004c7565b620004a8565b9050828152602081018484840111156200055f576200055e6200042d565b5b6200056c848285620004fd565b509392505050565b600082601f8301126200058c576200058b62000428565b5b81516200059e84826020860162000529565b91505092915050565b60008060408385031215620005c157620005c06200041e565b5b600083015167ffffffffffffffff811115620005e257620005e162000423565b5b620005f08582860162000574565b925050602083015167ffffffffffffffff81111562000614576200061362000423565b5b620006228582860162000574565b9150509250929050565b600081519050919050565b7f4e487b7100000000000000000000000000000000000000000000000000000000600052602260045260246000fd5b600060028204905060018216806200067f57607f821691505b60208210810362000695576200069462000637565b5b50919050565b60008190508160005260206000209050919050565b60006020601f8301049050919050565b600082821b905092915050565b600060088302620006ff7fffffffffffffffffffffffffffffffffffffffffffffffffffffffffffffffff82620006c0565b6200070b8683620006c0565b95508019841693508086168417925050509392505050565b6000819050919050565b6000819050919050565b600062000758620007526200074c8462000723565b6200072d565b62000723565b9050919050565b6000819050919050565b620007748362000737565b6200078c62000783826200075f565b848454620006cd565b825550505050565b600090565b620007a362000794565b620007b081848462000769565b505050565b5b81811015620007d857620007cc60008262000799565b600181019050620007b6565b5050565b601f8211156200082757620007f1816200069b565b620007fc84620006b0565b810160208510156200080c578190505b620008246200081b85620006b0565b830182620007b5565b50505b505050565b600082821c905092915050565b60006200084c600019846008026200082c565b1980831691505092915050565b600062000867838362000839565b9150826002028217905092915050565b62000882826200062c565b67ffffffffffffffff8111156200089e576200089d62000443565b5b620008aa825462000666565b620008b7828285620007dc565b600060209050601f831160018114620008ef5760008415620008da578287015190505b620008e6858262000859565b86555062000956565b601f198416620008ff866200069b565b60005b82811015620009295784890151825560018201915060208501945060208101905062000902565b8683101562000949578489015162000945601f89168262000839565b8355505b6001600288020188555050505b505050505050565b7f4e487b7100000000000000000000000000000000000000000000000000000000600052601160045260246000fd5b60006200099a8262000723565b9150620009a78362000723565b9250828202620009b78162000723565b91508282048414831517620009d157620009d06200095e565b5b5092915050565b600082825260208201905092915050565b6000620009f6826200062c565b62000a028185620009d8565b935062000a14818560208601620004fd565b62000a1f8162000432565b840191505092915050565b62000a358162000723565b82525050565b60008115159050919050565b62000a528162000a3b565b82525050565b6000819050919050565b600062000a8362000a7d62000a778462000a58565b6200072d565b62000723565b9050919050565b62000a958162000a62565b82525050565b600060e082019050818103600083015262000ab7818a620009e9565b9050818103602083015262000acd8189620009e9565b905062000ade604083018862000a2a565b62000aed606083018762000a2a565b62000afc608083018662000a47565b62000b0b60a083018562000a47565b62000b1a60c083018462000a8a565b98975050505050505050565b600073ffffffffffffffffffffffffffffffffffffffff82169050919050565b600062000b538262000b26565b9050919050565b62000b658162000b46565b82525050565b600060408201905062000b82600083018562000a2a565b62000b91602083018462000b5a565b9392505050565b6201639b8062000ba96000396000f3fe6080604052600436106200040a5760003560e01c80638d4a8ffe1162000217578063b524fd6f1162000127578063d1381f4e11620000af578063e2ab78131162000079578063e2ab781314620010b5578063e985e9c514620010f9578063e9f38fc5146200113d578063f42fff011462001181576200040a565b8063d1381f4e1462000fe1578063d21b87201462001025578063e04777af1462001055578063e12ef5ed1462001085576200040a565b8063bec9908e11620000f1578063bec9908e1462000ef3578063c87b56dd1462000f23578063c971ebb31462000f67578063cae1a69c1462000fab576200040a565b8063b524fd6f1462000e21578063b88d4fde1462000e51578063ba899a2e1462000e7f578063be9a65551462000ec3576200040a565b80639af9bec011620001ab578063a22cb4651162000175578063a22cb4651462000d49578063a384ddbd1462000d77578063a9d9d0c71462000dad578063aba4759f1462000ddd576200040a565b80639af9bec01462000c6f5780639b4f589f1462000c9f578063a035b1fe1462000ce3578063a0712d681462000d13576200040a565b806392a13fde11620001ed57806392a13fde1462000ba957806395d89b411462000bdf57806396af428a1462000c0f5780639ae8886a1462000c3f576200040a565b80638d4a8ffe1462000b055780638da5cb5b1462000b495780638dff74a71462000b79576200040a565b806342842e0e116200031f5780636a443b5911620002a75780637afcc7a411620002715780637afcc7a41462000a1d5780637d6701171462000a6157806383813a281462000a9157806387434dcd1462000ac1576200040a565b80636a443b5914620009495780636ac5db19146200097957806370a0823114620009a957806379d79fcc14620009ed576200040a565b80634f02c42011620002e95780634f02c420146200086157806352da887a14620008915780636260f55b14620008d55780636352211e1462000905576200040a565b806342842e0e146200078f5780634459194614620007bd57806348cf734d14620007ed5780634a2ad99f146200081d576200040a565b80630f4c013411620003a357806327555a02116200036d57806327555a0214620006a7578063287ead9e14620006eb57806329d7a0bd146200071b5780632f54bf6e146200074b576200040a565b80630f4c013414620005ad578063106581aa14620005f1578063107046bd146200063557806323b872dd1462000679576200040a565b806306fdde0311620003e557806306fdde0314620004c7578063081812fc14620004f7578063095ea7b3146200053b5780630b4185ea1462000569576200040a565b806301ffc9a7146200040f578063033a7a021462000453578063054dca2a1462000497575b600080fd5b3480156200041c57600080fd5b506200043b6004803603810190620004359190620039ff565b620011b1565b6040516200044a919062003a4e565b60405180910390f35b3480156200046057600080fd5b506200047f600480360381019062000479919062003aa6565b62001297565b6040516200048e919062003ae9565b60405180910390f35b348015620004a457600080fd5b50620004af620012e8565b604051620004be919062003ae9565b60405180910390f35b348015620004d457600080fd5b50620004df6200132d565b604051620004ee919062003ba0565b60405180910390f35b3480156200050457600080fd5b506200052360048036038101906200051d919062003aa6565b620013c7565b60405162000532919062003c09565b60405180910390f35b3480156200054857600080fd5b5062000567600480360381019062000561919062003c57565b62001451565b005b3480156200057657600080fd5b506200059560048036038101906200058f919062003aa6565b62001579565b604051620005a4919062003ae9565b60405180910390f35b348015620005ba57600080fd5b50620005d96004803603810190620005d3919062003c57565b620015ca565b604051620005e8919062003ae9565b60405180910390f35b348015620005fe57600080fd5b506200061d600480360381019062000617919062003c9e565b620015ef565b6040516200062c919062003ae9565b60405180910390f35b3480156200064257600080fd5b506200066160048036038101906200065b919062003aa6565b62001607565b60405162000670919062003c09565b60405180910390f35b3480156200068657600080fd5b50620006a560048036038101906200069f919062003cd0565b6200163a565b005b348015620006b457600080fd5b50620006d36004803603810190620006cd919062003c9e565b620016a3565b604051620006e2919062003ae9565b60405180910390f35b348015620006f857600080fd5b5062000703620016bb565b60405162000712919062003ae9565b60405180910390f35b3480156200072857600080fd5b506200073362001700565b60405162000742919062003ae9565b60405180910390f35b3480156200075857600080fd5b5062000777600480360381019062000771919062003c9e565b62001745565b60405162000786919062003a4e565b60405180910390f35b3480156200079c57600080fd5b50620007bb6004803603810190620007b5919062003cd0565b620017af565b005b348015620007ca57600080fd5b50620007d5620017d1565b604051620007e4919062003ae9565b60405180910390f35b348015620007fa57600080fd5b5062000805620017e2565b60405162000814919062003ae9565b60405180910390f35b3480156200082a57600080fd5b5062000849600480360381019062000843919062003c57565b62001827565b60405162000858919062003a4e565b60405180910390f35b3480156200086e57600080fd5b5062000879620018d6565b60405162000888919062003ae9565b60405180910390f35b3480156200089e57600080fd5b50620008bd6004803603810190620008b7919062003c57565b620018dc565b604051620008cc919062003c09565b60405180910390f35b348015620008e257600080fd5b50620008ed6200191e565b604051620008fc919062003ae9565b60405180910390f35b3480156200091257600080fd5b506200093160048036038101906200092b919062003aa6565b6200192f565b60405162000940919062003c09565b60405180910390f35b3480156200095657600080fd5b5062000961620019e3565b60405162000970919062003ae9565b60405180910390f35b3480156200098657600080fd5b5062000991620019f4565b604051620009a0919062003ae9565b60405180910390f35b348015620009b657600080fd5b50620009d56004803603810190620009cf919062003c9e565b620019fa565b604051620009e4919062003ae9565b60405180910390f35b348015620009fa57600080fd5b5062000a0562001ab4565b60405162000a14919062003ae9565b60405180910390f35b34801562000a2a57600080fd5b5062000a49600480360381019062000a43919062003aa6565b62001ac5565b60405162000a58919062003ae9565b60405180910390f35b34801562000a6e57600080fd5b5062000a7962001b17565b60405162000a88919062003ae9565b60405180910390f35b34801562000a9e57600080fd5b5062000aa962001b28565b60405162000ab8919062003ba0565b60405180910390f35b34801562000ace57600080fd5b5062000aed600480360381019062000ae7919062003aa6565b62001bbe565b60405162000afc919062003ae9565b60405180910390f35b34801562000b1257600080fd5b5062000b31600480360381019062000b2b919062003aa6565b62001c10565b60405162000b40919062003ae9565b60405180910390f35b34801562000b5657600080fd5b5062000b6162001c62565b60405162000b70919062003c09565b60405180910390f35b34801562000b8657600080fd5b5062000b9162001c88565b60405162000ba0919062003ae9565b60405180910390f35b62000bc7600480360381019062000bc1919062003d9a565b62001ccd565b60405162000bd6919062003c09565b60405180910390f35b34801562000bec57600080fd5b5062000bf762001e08565b60405162000c06919062003ba0565b60405180910390f35b34801562000c1c57600080fd5b5062000c2762001ea2565b60405162000c36919062003ae9565b60405180910390f35b34801562000c4c57600080fd5b5062000c5762001eb3565b60405162000c66919062003ae9565b60405180910390f35b34801562000c7c57600080fd5b5062000c8762001eb9565b60405162000c96919062003ba0565b60405180910390f35b34801562000cac57600080fd5b5062000ccb600480360381019062000cc5919062003aa6565b62001f4f565b60405162000cda919062003ec6565b60405180910390f35b34801562000cf057600080fd5b5062000cfb62001ff7565b60405162000d0a919062003ae9565b60405180910390f35b62000d31600480360381019062000d2b919062003aa6565b62001ffd565b60405162000d40919062003ae9565b60405180910390f35b34801562000d5657600080fd5b5062000d75600480360381019062000d6f919062003f1b565b620020bb565b005b62000d95600480360381019062000d8f919062003f62565b620020d5565b60405162000da4919062003c09565b60405180910390f35b34801562000dba57600080fd5b5062000dc562002214565b60405162000dd4919062003ae9565b60405180910390f35b34801562000dea57600080fd5b5062000e09600480360381019062000e03919062003aa6565b6200221a565b60405162000e18919062003ae9565b60405180910390f35b34801562000e2e57600080fd5b5062000e3962002274565b60405162000e48919062003a4e565b60405180910390f35b34801562000e5e57600080fd5b5062000e7d600480360381019062000e779190620041a7565b62002285565b005b34801562000e8c57600080fd5b5062000eab600480360381019062000ea5919062003aa6565b620022f0565b60405162000eba919062003c09565b60405180910390f35b34801562000ed057600080fd5b5062000edb62002304565b60405162000eea919062003a4e565b60405180910390f35b34801562000f0057600080fd5b5062000f0b62002317565b60405162000f1a919062003ae9565b60405180910390f35b34801562000f3057600080fd5b5062000f4f600480360381019062000f49919062003aa6565b6200235c565b60405162000f5e919062003ba0565b60405180910390f35b34801562000f7457600080fd5b5062000f93600480360381019062000f8d919062003c9e565b62002410565b60405162000fa2919062003ae9565b60405180910390f35b62000fc9600480360381019062000fc3919062003aa6565b62002428565b60405162000fd8919062003ae9565b60405180910390f35b34801562000fee57600080fd5b506200100d600480360381019062001007919062003aa6565b62002487565b6040516200101c919062003ae9565b60405180910390f35b3480156200103257600080fd5b506200103d620024d9565b6040516200104c919062003ae9565b60405180910390f35b3480156200106257600080fd5b506200106d6200251e565b6040516200107c919062003ae9565b60405180910390f35b3480156200109257600080fd5b506200109d6200252f565b604051620010ac919062003ae9565b60405180910390f35b348015620010c257600080fd5b50620010e16004803603810190620010db919062003aa6565b62002574565b604051620010f0919062003ae9565b60405180910390f35b3480156200110657600080fd5b506200112560048036038101906200111f919062004238565b620025c6565b60405162001134919062003a4e565b60405180910390f35b3480156200114a57600080fd5b5062001169600480360381019062001163919062003c57565b6200265a565b60405162001178919062003a4e565b60405180910390f35b3480156200118e57600080fd5b506200119962002709565b604051620011a8919062003ae9565b60405180910390f35b60007f80ac58cd000000000000000000000000000000000000000000000000000000007bffffffffffffffffffffffffffffffffffffffffffffffffffffffff1916827bffffffffffffffffffffffffffffffffffffffffffffffffffffffff191614806200127d57507f5b5e139f000000000000000000000000000000000000000000000000000000007bffffffffffffffffffffffffffffffffffffffffffffffffffffffff1916827bffffffffffffffffffffffffffffffffffffffffffffffffffffffff1916145b806200129057506200128f826200274e565b5b9050919050565b6000806509184e72a00083620012ae9190620042ae565b90506000620012bc620027b8565b9050620012df670de0b6b3a764000083620012d89190620042ae565b8262002858565b92505050919050565b600080620012f56200288f565b9050600062001303620027b8565b905062001326670de0b6b3a7640000836200131f9190620042ae565b8262002858565b9250505090565b6060600080546200133e9062004328565b80601f01602080910402602001604051908101604052809291908181526020018280546200136c9062004328565b8015620013bd5780601f106200139157610100808354040283529160200191620013bd565b820191906000526020600020905b8154815290600101906020018083116200139f57829003601f168201915b5050505050905090565b6000620013d4826200292f565b62001416576040517f08c379a00000000000000000000000000000000000000000000000000000000081526004016200140d90620043d3565b60405180910390fd5b6004600083815260200190815260200160002060009054906101000a900473ffffffffffffffffffffffffffffffffffffffff169050919050565b60006200145e826200192f565b90508073ffffffffffffffffffffffffffffffffffffffff168373ffffffffffffffffffffffffffffffffffffffff1603620014d1576040517f08c379a0000000000000000000000000000000000000000000000000000000008152600401620014c8906200446b565b60405180910390fd5b8073ffffffffffffffffffffffffffffffffffffffff16620014f26200299b565b73ffffffffffffffffffffffffffffffffffffffff16148062001526575062001525816200151f6200299b565b620025c6565b5b62001568576040517f08c379a00000000000000000000000000000000000000000000000000000000081526004016200155f9062004503565b60405180910390fd5b620015748383620029a3565b505050565b6000806509184e72a00083620015909190620042ae565b905060006200159e6200288f565b9050620015c1670de0b6b3a764000083620015ba9190620042ae565b8262002858565b92505050919050565b6013602052816000526040600020602052806000526040600020600091509150505481565b601e6020528060005260406000206000915090505481565b601d6020528060005260406000206000915054906101000a900473ffffffffffffffffffffffffffffffffffffffff1681565b6200164f620016486200299b565b8262002a5e565b62001691576040517f08c379a000000000000000000000000000000000000000000000000000000000815260040162001688906200459b565b60405180910390fd5b6200169e83838362002b49565b505050565b601b6020528060005260406000206000915090505481565b600080620016c8620027b8565b90506000620016d662002db4565b9050620016f9670de0b6b3a764000083620016f29190620042ae565b8262002858565b9250505090565b6000806200170d6200288f565b905060006200171b62002e54565b90506200173e670de0b6b3a764000083620017379190620042ae565b8262002858565b9250505090565b6000600a60009054906101000a900473ffffffffffffffffffffffffffffffffffffffff1673ffffffffffffffffffffffffffffffffffffffff168273ffffffffffffffffffffffffffffffffffffffff1614620017a5576000620017a8565b60015b9050919050565b620017cc8383836040518060200160405280600081525062002285565b505050565b6000620017dd620027b8565b905090565b600080620017ef6200288f565b90506000620017fd62002db4565b905062001820670de0b6b3a764000083620018199190620042ae565b8262002858565b9250505090565b6000601660009054906101000a900473ffffffffffffffffffffffffffffffffffffffff1673ffffffffffffffffffffffffffffffffffffffff16634a2ad99f84846040518363ffffffff1660e01b815260040162001888929190620045bd565b6020604051808303816000875af1158015620018a8573d6000803e3d6000fd5b505050506040513d601f19601f82011682018060405250810190620018ce919062004601565b905092915050565b600b5481565b601f6020528160005260406000206020528060005260406000206000915091509054906101000a900473ffffffffffffffffffffffffffffffffffffffff1681565b60006200192a6200288f565b905090565b6000806002600084815260200190815260200160002060009054906101000a900473ffffffffffffffffffffffffffffffffffffffff169050600073ffffffffffffffffffffffffffffffffffffffff168173ffffffffffffffffffffffffffffffffffffffff1603620019da576040517f08c379a0000000000000000000000000000000000000000000000000000000008152600401620019d190620046a9565b60405180910390fd5b80915050919050565b6000620019ef62002ef4565b905090565b600c5481565b60008073ffffffffffffffffffffffffffffffffffffffff168273ffffffffffffffffffffffffffffffffffffffff160362001a6d576040517f08c379a000000000000000000000000000000000000000000000000000000000815260040162001a649062004741565b60405180910390fd5b600360008373ffffffffffffffffffffffffffffffffffffffff1673ffffffffffffffffffffffffffffffffffffffff168152602001908152602001600020549050919050565b600062001ac062002f39565b905090565b600080662386f26fc100008362001add9190620042ae565b9050600062001aeb62002f39565b905062001b0e670de0b6b3a76400008362001b079190620042ae565b8262002858565b92505050919050565b600062001b2362002f7e565b905090565b600e805462001b379062004328565b80601f016020809104026020016040519081016040528092919081815260200182805462001b659062004328565b801562001bb65780601f1062001b8a5761010080835404028352916020019162001bb6565b820191906000526020600020905b81548152906001019060200180831162001b9857829003601f168201915b505050505081565b600080662386f26fc100008362001bd69190620042ae565b9050600062001be462002ef4565b905062001c07670de0b6b3a76400008362001c009190620042ae565b8262002858565b92505050919050565b600080662386f26fc100008362001c289190620042ae565b9050600062001c3662002f7e565b905062001c59670de0b6b3a76400008362001c529190620042ae565b8262002858565b92505050919050565b600a60009054906101000a900473ffffffffffffffffffffffffffffffffffffffff1681565b60008062001c9562002e54565b9050600062001ca362002db4565b905062001cc6670de0b6b3a76400008262001cbf9190620042ae565b8362002858565b9250505090565b6000600560195462001ce0919062004792565b34108062001d2c575042601b60003373ffffffffffffffffffffffffffffffffffffffff1673ffffffffffffffffffffffffffffffffffffffff16815260200190815260200160002054115b1562001d64576040517f9bb42d4b00000000000000000000000000000000000000000000000000000000815260040160405180910390fd5b62001dfb88888080601f016020809104026020016040519081016040528093929190818152602001838380828437600081840152601f19601f8201169050808301925050505050505087878080601f016020809104026020016040519081016040528093929190818152602001838380828437600081840152601f19601f8201169050808301925050505050505086868662002fc3565b9050979650505050505050565b60606001805462001e199062004328565b80601f016020809104026020016040519081016040528092919081815260200182805462001e479062004328565b801562001e985780601f1062001e6c5761010080835404028352916020019162001e98565b820191906000526020600020905b81548152906001019060200180831162001e7a57829003601f168201915b5050505050905090565b600062001eae62002db4565b905090565b601c5481565b600d805462001ec89062004328565b80601f016020809104026020016040519081016040528092919081815260200182805462001ef69062004328565b801562001f475780601f1062001f1b5761010080835404028352916020019162001f47565b820191906000526020600020905b81548152906001019060200180831162001f2957829003601f168201915b505050505081565b6011602052806000526040600020600091509050805462001f709062004328565b80601f016020809104026020016040519081016040528092919081815260200182805462001f9e9062004328565b801562001fef5780601f1062001fc35761010080835404028352916020019162001fef565b820191906000526020600020905b81548152906001019060200180831162001fd157829003601f168201915b505050505081565b60105481565b6000600c54600b54101580620020245750600c5482600b54620020219190620047ca565b10155b156200205c576040517f064a6c4100000000000000000000000000000000000000000000000000000000815260040160405180910390fd5b816010546200206c9190620042ae565b3410620020a5576040517fefc60c1400000000000000000000000000000000000000000000000000000000815260040160405180910390fd5b620020b08262003020565b50600b549050919050565b620020d1620020c96200299b565b838362003072565b5050565b6000600a601954620020e8919062004792565b34108062002134575042601b60003373ffffffffffffffffffffffffffffffffffffffff1673ffffffffffffffffffffffffffffffffffffffff16815260200190815260200160002054115b156200216c576040517f9bb42d4b00000000000000000000000000000000000000000000000000000000815260040160405180910390fd5b620022058a8a8080601f016020809104026020016040519081016040528093929190818152602001838380828437600081840152601f19601f8201169050808301925050505050505089898080601f016020809104026020016040519081016040528093929190818152602001838380828437600081840152601f19601f820116905080830192505050505050508888888888620031e3565b90509998505050505050505050565b60195481565b6000601360003373ffffffffffffffffffffffffffffffffffffffff1673ffffffffffffffffffffffffffffffffffffffff1681526020019081526020016000206000838152602001908152602001600020549050919050565b6000620022806200323c565b905090565b6200229a620022936200299b565b8362002a5e565b620022dc576040517f08c379a0000000000000000000000000000000000000000000000000000000008152600401620022d3906200459b565b60405180910390fd5b620022ea848484846200326c565b50505050565b6000620022fd826200192f565b9050919050565b600f60009054906101000a900460ff1681565b600080620023246200288f565b905060006200233262002db4565b905062002355670de0b6b3a7640000826200234e9190620042ae565b8362002858565b9250505090565b606062002369826200292f565b620023ab576040517f08c379a0000000000000000000000000000000000000000000000000000000008152600401620023a2906200487b565b60405180910390fd5b6000620023b7620032cf565b90506000815111620023d9576040518060200160405280600081525062002408565b80620023e584620032e6565b604051602001620023f8929190620048df565b6040516020818303038152906040525b915050919050565b60126020528060005260406000206000915090505481565b6000601954826200243a9190620042ae565b34101562002474576040517f9bb42d4b00000000000000000000000000000000000000000000000000000000815260040160405180910390fd5b6200248033836200345f565b9050919050565b600080662386f26fc10000836200249f9190620042ae565b90506000620024ad62002e54565b9050620024d0670de0b6b3a764000083620024c99190620042ae565b8262002858565b92505050919050565b600080620024e662002e54565b90506000620024f4620027b8565b905062002517670de0b6b3a764000082620025109190620042ae565b8362002858565b9250505090565b60006200252a62002e54565b905090565b6000806200253c620027b8565b905060006200254a62002db4565b90506200256d670de0b6b3a764000082620025669190620042ae565b8362002858565b9250505090565b600080662386f26fc10000836200258c9190620042ae565b905060006200259a62002db4565b9050620025bd670de0b6b3a764000083620025b69190620042ae565b8262002858565b92505050919050565b6000600560008473ffffffffffffffffffffffffffffffffffffffff1673ffffffffffffffffffffffffffffffffffffffff16815260200190815260200160002060008373ffffffffffffffffffffffffffffffffffffffff1673ffffffffffffffffffffffffffffffffffffffff16815260200190815260200160002060009054906101000a900460ff16905092915050565b6000601660009054906101000a900473ffffffffffffffffffffffffffffffffffffffff1673ffffffffffffffffffffffffffffffffffffffff1663e9f38fc584846040518363ffffffff1660e01b8152600401620026bb929190620045bd565b6020604051808303816000875af1158015620026db573d6000803e3d6000fd5b505050506040513d601f19601f8201168201806040525081019062002701919062004601565b905092915050565b600080620027166200288f565b9050600062002724620027b8565b905062002747670de0b6b3a764000082620027409190620042ae565b8362002858565b9250505090565b60007f01ffc9a7000000000000000000000000000000000000000000000000000000007bffffffffffffffffffffffffffffffffffffffffffffffffffffffff1916827bffffffffffffffffffffffffffffffffffffffffffffffffffffffff1916149050919050565b600080601660009054906101000a900473ffffffffffffffffffffffffffffffffffffffff1673ffffffffffffffffffffffffffffffffffffffff166396722fe56040518163ffffffff1660e01b8152600401602060405180830381865afa15801562002829573d6000803e3d6000fd5b505050506040513d601f19601f820116820180604052508101906200284f919062004942565b90508091505090565b600080828462002869919062004974565b90508281856200287a9190620049ac565b62002886919062004792565b91505092915050565b600080601660009054906101000a900473ffffffffffffffffffffffffffffffffffffffff1673ffffffffffffffffffffffffffffffffffffffff16639a18c7956040518163ffffffff1660e01b8152600401602060405180830381865afa15801562002900573d6000803e3d6000fd5b505050506040513d601f19601f8201168201806040525081019062002926919062004942565b90508091505090565b60008073ffffffffffffffffffffffffffffffffffffffff166002600084815260200190815260200160002060009054906101000a900473ffffffffffffffffffffffffffffffffffffffff1673ffffffffffffffffffffffffffffffffffffffff1614159050919050565b600033905090565b816004600083815260200190815260200160002060006101000a81548173ffffffffffffffffffffffffffffffffffffffff021916908373ffffffffffffffffffffffffffffffffffffffff160217905550808273ffffffffffffffffffffffffffffffffffffffff1662002a18836200192f565b73ffffffffffffffffffffffffffffffffffffffff167f8c5be1e5ebec7d5bd14f71427d1e84f3dd0314c0f7b2291e5b200ac8c7c3b92560405160405180910390a45050565b600062002a6b826200292f565b62002aad576040517f08c379a000000000000000000000000000000000000000000000000000000000815260040162002aa49062004a5d565b60405180910390fd5b600062002aba836200192f565b90508073ffffffffffffffffffffffffffffffffffffffff168473ffffffffffffffffffffffffffffffffffffffff16148062002b2c57508373ffffffffffffffffffffffffffffffffffffffff1662002b1484620013c7565b73ffffffffffffffffffffffffffffffffffffffff16145b8062002b40575062002b3f8185620025c6565b5b91505092915050565b8273ffffffffffffffffffffffffffffffffffffffff1662002b6b826200192f565b73ffffffffffffffffffffffffffffffffffffffff161462002bc4576040517f08c379a000000000000000000000000000000000000000000000000000000000815260040162002bbb9062004af5565b60405180910390fd5b600073ffffffffffffffffffffffffffffffffffffffff168273ffffffffffffffffffffffffffffffffffffffff160362002c36576040517f08c379a000000000000000000000000000000000000000000000000000000000815260040162002c2d9062004b8d565b60405180910390fd5b62002c43838383620035e9565b62002c50600082620029a3565b6001600360008573ffffffffffffffffffffffffffffffffffffffff1673ffffffffffffffffffffffffffffffffffffffff168152602001908152602001600020600082825462002ca29190620049ac565b925050819055506001600360008473ffffffffffffffffffffffffffffffffffffffff1673ffffffffffffffffffffffffffffffffffffffff168152602001908152602001600020600082825462002cfb9190620047ca565b92505081905550816002600083815260200190815260200160002060006101000a81548173ffffffffffffffffffffffffffffffffffffffff021916908373ffffffffffffffffffffffffffffffffffffffff160217905550808273ffffffffffffffffffffffffffffffffffffffff168473ffffffffffffffffffffffffffffffffffffffff167fddf252ad1be2c89b69c2b068fc378daa952ba7f163c4a11628f55a4df523b3ef60405160405180910390a4505050565b600080601660009054906101000a900473ffffffffffffffffffffffffffffffffffffffff1673ffffffffffffffffffffffffffffffffffffffff1663414641df6040518163ffffffff1660e01b8152600401602060405180830381865afa15801562002e25573d6000803e3d6000fd5b505050506040513d601f19601f8201168201806040525081019062002e4b919062004942565b90508091505090565b600080601660009054906101000a900473ffffffffffffffffffffffffffffffffffffffff1673ffffffffffffffffffffffffffffffffffffffff1663f2e9bd7a6040518163ffffffff1660e01b8152600401602060405180830381865afa15801562002ec5573d6000803e3d6000fd5b505050506040513d601f19601f8201168201806040525081019062002eeb919062004942565b90508091505090565b60008062002f0162002e54565b9050600062002f0f620027b8565b905062002f32670de0b6b3a76400008362002f2b9190620042ae565b8262002858565b9250505090565b60008062002f4662002e54565b9050600062002f5462002db4565b905062002f77670de0b6b3a76400008362002f709190620042ae565b8262002858565b9250505090565b60008062002f8b62002e54565b9050600062002f996200288f565b905062002fbc670de0b6b3a76400008362002fb59190620042ae565b8262002858565b9250505090565b600080338787878760008060008a60405162002fdf9062003972565b62002ff39998979695949392919062004c26565b604051809103906000f08015801562003010573d6000803e3d6000fd5b5090508091505095945050505050565b600060078211156200303157600080fd5b60005b8281101562003067576200304b33600b54620035ee565b600b600081546001019190508190555080600101905062003034565b50600b549050919050565b8173ffffffffffffffffffffffffffffffffffffffff168373ffffffffffffffffffffffffffffffffffffffff1603620030e3576040517f08c379a0000000000000000000000000000000000000000000000000000000008152600401620030da9062004d4f565b60405180910390fd5b80600560008573ffffffffffffffffffffffffffffffffffffffff1673ffffffffffffffffffffffffffffffffffffffff16815260200190815260200160002060008473ffffffffffffffffffffffffffffffffffffffff1673ffffffffffffffffffffffffffffffffffffffff16815260200190815260200160002060006101000a81548160ff0219169083151502179055508173ffffffffffffffffffffffffffffffffffffffff168373ffffffffffffffffffffffffffffffffffffffff167f17307eab39ab6107e8899845ad3d59bd9653f200f220920489ca2b5937696c3183604051620031d6919062003a4e565b60405180910390a3505050565b60008088888888888888604051620031fb9062003980565b6200320d979695949392919062004d71565b604051809103906000f0801580156200322a573d6000803e3d6000fd5b50905080915050979650505050505050565b6000600f60009054906101000a900460ff1615600f60006101000a81548160ff0219169083151502179055905090565b6200327984848462002b49565b6200328784848484620037c7565b620032c9576040517f08c379a0000000000000000000000000000000000000000000000000000000008152600401620032c09062004e72565b60405180910390fd5b50505050565b606060405180602001604052806000815250905090565b6060600082036200332f576040518060400160405280600181526020017f300000000000000000000000000000000000000000000000000000000000000081525090506200345a565b600082905060005b60008214620033675780806200334d9062004e94565b915050600a826200335f919062004792565b915062003337565b60008167ffffffffffffffff81111562003386576200338562004060565b5b6040519080825280601f01601f191660200182016040528015620033b95781602001600182028036833780820191505090505b5090505b600085146200345357600182620033d59190620049ac565b9150600a85620033e6919062004974565b6030620033f49190620047ca565b60f81b8183815181106200340d576200340c62004ee1565b5b60200101907effffffffffffffffffffffffffffffffffffffffffffffffffffffffffffff1916908160001a905350600a856200344b919062004792565b9450620033bd565b8093505050505b919050565b600042601b60008573ffffffffffffffffffffffffffffffffffffffff1673ffffffffffffffffffffffffffffffffffffffff1681526020019081526020016000205411156200357857600042601b60008673ffffffffffffffffffffffffffffffffffffffff1673ffffffffffffffffffffffffffffffffffffffff16815260200190815260200160002054620034f89190620049ac565b9050826301e133806200350c9190620042ae565b81620035199190620047ca565b601b60008673ffffffffffffffffffffffffffffffffffffffff1673ffffffffffffffffffffffffffffffffffffffff1681526020019081526020016000206000828254620035699190620047ca565b925050819055915050620035e3565b816301e133806200358a9190620042ae565b601b60008573ffffffffffffffffffffffffffffffffffffffff1673ffffffffffffffffffffffffffffffffffffffff1681526020019081526020016000206000828254620035da9190620047ca565b92505081905590505b92915050565b505050565b600073ffffffffffffffffffffffffffffffffffffffff168273ffffffffffffffffffffffffffffffffffffffff160362003660576040517f08c379a0000000000000000000000000000000000000000000000000000000008152600401620036579062004f60565b60405180910390fd5b6200366b816200292f565b15620036ae576040517f08c379a0000000000000000000000000000000000000000000000000000000008152600401620036a59062004fd2565b60405180910390fd5b620036bc60008383620035e9565b6001600360008473ffffffffffffffffffffffffffffffffffffffff1673ffffffffffffffffffffffffffffffffffffffff16815260200190815260200160002060008282546200370e9190620047ca565b92505081905550816002600083815260200190815260200160002060006101000a81548173ffffffffffffffffffffffffffffffffffffffff021916908373ffffffffffffffffffffffffffffffffffffffff160217905550808273ffffffffffffffffffffffffffffffffffffffff16600073ffffffffffffffffffffffffffffffffffffffff167fddf252ad1be2c89b69c2b068fc378daa952ba7f163c4a11628f55a4df523b3ef60405160405180910390a45050565b6000620037ea8473ffffffffffffffffffffffffffffffffffffffff166200395f565b1562003952578373ffffffffffffffffffffffffffffffffffffffff1663150b7a02620038166200299b565b8786866040518563ffffffff1660e01b81526004016200383a949392919062004ff4565b6020604051808303816000875af19250505080156200387957506040513d601f19601f820116820180604052508101906200387691906200505f565b60015b62003901573d8060008114620038ac576040519150601f19603f3d011682016040523d82523d6000602084013e620038b1565b606091505b506000815103620038f9576040517f08c379a0000000000000000000000000000000000000000000000000000000008152600401620038f09062004e72565b60405180910390fd5b805181602001fd5b63150b7a0260e01b7bffffffffffffffffffffffffffffffffffffffffffffffffffffffff1916817bffffffffffffffffffffffffffffffffffffffffffffffffffffffff19161491505062003957565b600190505b949350505050565b600080823b905060008111915050919050565b61b544806200509283390190565b615d9080620105d683390190565b6000604051905090565b600080fd5b600080fd5b60007fffffffff0000000000000000000000000000000000000000000000000000000082169050919050565b620039d981620039a2565b8114620039e557600080fd5b50565b600081359050620039f981620039ce565b92915050565b60006020828403121562003a185762003a1762003998565b5b600062003a2884828501620039e8565b91505092915050565b60008115159050919050565b62003a488162003a31565b82525050565b600060208201905062003a65600083018462003a3d565b92915050565b6000819050919050565b62003a808162003a6b565b811462003a8c57600080fd5b50565b60008135905062003aa08162003a75565b92915050565b60006020828403121562003abf5762003abe62003998565b5b600062003acf8482850162003a8f565b91505092915050565b62003ae38162003a6b565b82525050565b600060208201905062003b00600083018462003ad8565b92915050565b600081519050919050565b600082825260208201905092915050565b60005b8381101562003b4257808201518184015260208101905062003b25565b60008484015250505050565b6000601f19601f8301169050919050565b600062003b6c8262003b06565b62003b78818562003b11565b935062003b8a81856020860162003b22565b62003b958162003b4e565b840191505092915050565b6000602082019050818103600083015262003bbc818462003b5f565b905092915050565b600073ffffffffffffffffffffffffffffffffffffffff82169050919050565b600062003bf18262003bc4565b9050919050565b62003c038162003be4565b82525050565b600060208201905062003c20600083018462003bf8565b92915050565b62003c318162003be4565b811462003c3d57600080fd5b50565b60008135905062003c518162003c26565b92915050565b6000806040838503121562003c715762003c7062003998565b5b600062003c818582860162003c40565b925050602062003c948582860162003a8f565b9150509250929050565b60006020828403121562003cb75762003cb662003998565b5b600062003cc78482850162003c40565b91505092915050565b60008060006060848603121562003cec5762003ceb62003998565b5b600062003cfc8682870162003c40565b935050602062003d0f8682870162003c40565b925050604062003d228682870162003a8f565b9150509250925092565b600080fd5b600080fd5b600080fd5b60008083601f84011262003d545762003d5362003d2c565b5b8235905067ffffffffffffffff81111562003d745762003d7362003d31565b5b60208301915083600182028301111562003d935762003d9262003d36565b5b9250929050565b600080600080600080600060a0888a03121562003dbc5762003dbb62003998565b5b600088013567ffffffffffffffff81111562003ddd5762003ddc6200399d565b5b62003deb8a828b0162003d3b565b9750975050602088013567ffffffffffffffff81111562003e115762003e106200399d565b5b62003e1f8a828b0162003d3b565b9550955050604062003e348a828b0162003a8f565b935050606062003e478a828b0162003a8f565b925050608062003e5a8a828b0162003a8f565b91505092959891949750929550565b600081519050919050565b600082825260208201905092915050565b600062003e928262003e69565b62003e9e818562003e74565b935062003eb081856020860162003b22565b62003ebb8162003b4e565b840191505092915050565b6000602082019050818103600083015262003ee2818462003e85565b905092915050565b62003ef58162003a31565b811462003f0157600080fd5b50565b60008135905062003f158162003eea565b92915050565b6000806040838503121562003f355762003f3462003998565b5b600062003f458582860162003c40565b925050602062003f588582860162003f04565b9150509250929050565b600080600080600080600080600060e08a8c03121562003f875762003f8662003998565b5b60008a013567ffffffffffffffff81111562003fa85762003fa76200399d565b5b62003fb68c828d0162003d3b565b995099505060208a013567ffffffffffffffff81111562003fdc5762003fdb6200399d565b5b62003fea8c828d0162003d3b565b9750975050604062003fff8c828d0162003a8f565b9550506060620040128c828d0162003a8f565b9450506080620040258c828d0162003f04565b93505060a0620040388c828d0162003f04565b92505060c06200404b8c828d0162003a8f565b9150509295985092959850929598565b600080fd5b7f4e487b7100000000000000000000000000000000000000000000000000000000600052604160045260246000fd5b6200409a8262003b4e565b810181811067ffffffffffffffff82111715620040bc57620040bb62004060565b5b80604052505050565b6000620040d16200398e565b9050620040df82826200408f565b919050565b600067ffffffffffffffff82111562004102576200410162004060565b5b6200410d8262003b4e565b9050602081019050919050565b82818337600083830152505050565b6000620041406200413a84620040e4565b620040c5565b9050828152602081018484840111156200415f576200415e6200405b565b5b6200416c8482856200411a565b509392505050565b600082601f8301126200418c576200418b62003d2c565b5b81356200419e84826020860162004129565b91505092915050565b60008060008060808587031215620041c457620041c362003998565b5b6000620041d48782880162003c40565b9450506020620041e78782880162003c40565b9350506040620041fa8782880162003a8f565b925050606085013567ffffffffffffffff8111156200421e576200421d6200399d565b5b6200422c8782880162004174565b91505092959194509250565b6000806040838503121562004252576200425162003998565b5b6000620042628582860162003c40565b9250506020620042758582860162003c40565b9150509250929050565b7f4e487b7100000000000000000000000000000000000000000000000000000000600052601160045260246000fd5b6000620042bb8262003a6b565b9150620042c88362003a6b565b9250828202620042d88162003a6b565b91508282048414831517620042f257620042f16200427f565b5b5092915050565b7f4e487b7100000000000000000000000000000000000000000000000000000000600052602260045260246000fd5b600060028204905060018216806200434157607f821691505b602082108103620043575762004356620042f9565b5b50919050565b7f4552433732313a20617070726f76656420717565727920666f72206e6f6e657860008201527f697374656e7420746f6b656e0000000000000000000000000000000000000000602082015250565b6000620043bb602c8362003b11565b9150620043c8826200435d565b604082019050919050565b60006020820190508181036000830152620043ee81620043ac565b9050919050565b7f4552433732313a20617070726f76616c20746f2063757272656e74206f776e6560008201527f7200000000000000000000000000000000000000000000000000000000000000602082015250565b60006200445360218362003b11565b91506200446082620043f5565b604082019050919050565b60006020820190508181036000830152620044868162004444565b9050919050565b7f4552433732313a20617070726f76652063616c6c6572206973206e6f74206f7760008201527f6e6572206e6f7220617070726f76656420666f7220616c6c0000000000000000602082015250565b6000620044eb60388362003b11565b9150620044f8826200448d565b604082019050919050565b600060208201905081810360008301526200451e81620044dc565b9050919050565b7f4552433732313a207472616e736665722063616c6c6572206973206e6f74206f60008201527f776e6572206e6f7220617070726f766564000000000000000000000000000000602082015250565b60006200458360318362003b11565b9150620045908262004525565b604082019050919050565b60006020820190508181036000830152620045b68162004574565b9050919050565b6000604082019050620045d4600083018562003bf8565b620045e3602083018462003ad8565b9392505050565b600081519050620045fb8162003eea565b92915050565b6000602082840312156200461a576200461962003998565b5b60006200462a84828501620045ea565b91505092915050565b7f4552433732313a206f776e657220717565727920666f72206e6f6e657869737460008201527f656e7420746f6b656e0000000000000000000000000000000000000000000000602082015250565b60006200469160298362003b11565b91506200469e8262004633565b604082019050919050565b60006020820190508181036000830152620046c48162004682565b9050919050565b7f4552433732313a2062616c616e636520717565727920666f7220746865207a6560008201527f726f206164647265737300000000000000000000000000000000000000000000602082015250565b600062004729602a8362003b11565b91506200473682620046cb565b604082019050919050565b600060208201905081810360008301526200475c816200471a565b9050919050565b7f4e487b7100000000000000000000000000000000000000000000000000000000600052601260045260246000fd5b60006200479f8262003a6b565b9150620047ac8362003a6b565b925082620047bf57620047be62004763565b5b828204905092915050565b6000620047d78262003a6b565b9150620047e48362003a6b565b9250828201905080821115620047ff57620047fe6200427f565b5b92915050565b7f4552433732314d657461646174613a2055524920717565727920666f72206e6f60008201527f6e6578697374656e7420746f6b656e0000000000000000000000000000000000602082015250565b600062004863602f8362003b11565b9150620048708262004805565b604082019050919050565b60006020820190508181036000830152620048968162004854565b9050919050565b600081905092915050565b6000620048b58262003b06565b620048c181856200489d565b9350620048d381856020860162003b22565b80840191505092915050565b6000620048ed8285620048a8565b9150620048fb8284620048a8565b91508190509392505050565b6000819050919050565b6200491c8162004907565b81146200492857600080fd5b50565b6000815190506200493c8162004911565b92915050565b6000602082840312156200495b576200495a62003998565b5b60006200496b848285016200492b565b91505092915050565b6000620049818262003a6b565b91506200498e8362003a6b565b925082620049a157620049a062004763565b5b828206905092915050565b6000620049b98262003a6b565b9150620049c68362003a6b565b9250828203905081811115620049e157620049e06200427f565b5b92915050565b7f4552433732313a206f70657261746f7220717565727920666f72206e6f6e657860008201527f697374656e7420746f6b656e0000000000000000000000000000000000000000602082015250565b600062004a45602c8362003b11565b915062004a5282620049e7565b604082019050919050565b6000602082019050818103600083015262004a788162004a36565b9050919050565b7f4552433732313a207472616e73666572206f6620746f6b656e2074686174206960008201527f73206e6f74206f776e0000000000000000000000000000000000000000000000602082015250565b600062004add60298362003b11565b915062004aea8262004a7f565b604082019050919050565b6000602082019050818103600083015262004b108162004ace565b9050919050565b7f4552433732313a207472616e7366657220746f20746865207a65726f2061646460008201527f7265737300000000000000000000000000000000000000000000000000000000602082015250565b600062004b7560248362003b11565b915062004b828262004b17565b604082019050919050565b6000602082019050818103600083015262004ba88162004b66565b9050919050565b50565b600062004bc160008362003b11565b915062004bce8262004baf565b600082019050919050565b6000819050919050565b6000819050919050565b600062004c0e62004c0862004c028462004bd9565b62004be3565b62003a6b565b9050919050565b62004c208162004bed565b82525050565b60006101608201905062004c3e600083018c62003bf8565b818103602083015262004c52818b62003b5f565b9050818103604083015262004c68818a62003b5f565b905062004c79606083018962003ad8565b62004c88608083018862003ad8565b81810360a083015262004c9b8162004bb2565b905081810360c083015262004cb08162004bb2565b905062004cc160e083018762003a3d565b62004cd161010083018662004c15565b62004ce161012083018562004c15565b62004cf161014083018462003ad8565b9a9950505050505050505050565b7f4552433732313a20617070726f766520746f2063616c6c657200000000000000600082015250565b600062004d3760198362003b11565b915062004d448262004cff565b602082019050919050565b6000602082019050818103600083015262004d6a8162004d28565b9050919050565b600060e082019050818103600083015262004d8d818a62003b5f565b9050818103602083015262004da3818962003b5f565b905062004db4604083018862003ad8565b62004dc3606083018762003ad8565b62004dd2608083018662003a3d565b62004de160a083018562003a3d565b62004df060c083018462003ad8565b98975050505050505050565b7f4552433732313a207472616e7366657220746f206e6f6e20455243373231526560008201527f63656976657220696d706c656d656e7465720000000000000000000000000000602082015250565b600062004e5a60328362003b11565b915062004e678262004dfc565b604082019050919050565b6000602082019050818103600083015262004e8d8162004e4b565b9050919050565b600062004ea18262003a6b565b91507fffffffffffffffffffffffffffffffffffffffffffffffffffffffffffffffff820362004ed65762004ed56200427f565b5b600182019050919050565b7f4e487b7100000000000000000000000000000000000000000000000000000000600052603260045260246000fd5b7f4552433732313a206d696e7420746f20746865207a65726f2061646472657373600082015250565b600062004f4860208362003b11565b915062004f558262004f10565b602082019050919050565b6000602082019050818103600083015262004f7b8162004f39565b9050919050565b7f4552433732313a20746f6b656e20616c7265616479206d696e74656400000000600082015250565b600062004fba601c8362003b11565b915062004fc78262004f82565b602082019050919050565b6000602082019050818103600083015262004fed8162004fab565b9050919050565b60006080820190506200500b600083018762003bf8565b6200501a602083018662003bf8565b62005029604083018562003ad8565b81810360608301526200503d818462003e85565b905095945050505050565b6000815190506200505981620039ce565b92915050565b60006020828403121562005078576200507762003998565b5b6000620050888482850162005048565b9150509291505056fe60806040523480156200001157600080fd5b506040516200b5443803806200b5448339818101604052810190620000379190620004b9565b898981600090816200004a919062000883565b5080600190816200005c919062000883565b50505060006006819055506000600781905550600060088190555060006009819055508a600a60006101000a81548173ffffffffffffffffffffffffffffffffffffffff021916908373ffffffffffffffffffffffffffffffffffffffff16021790555089600d9081620000d1919062000883565b5088600e9081620000e3919062000883565b5087600c8190555066038d7ea4c680008762000100919062000999565b601081905550831562000196578585838560016000600160405162000125906200022d565b62000137979695949392919062000a9b565b604051809103906000f08015801562000154573d6000803e3d6000fd5b50601460006101000a81548173ffffffffffffffffffffffffffffffffffffffff021916908373ffffffffffffffffffffffffffffffffffffffff1602179055505b60008111156200021c578030604051620001b0906200023b565b620001bd92919062000b37565b604051809103906000f080158015620001da573d6000803e3d6000fd5b50601560006101000a81548173ffffffffffffffffffffffffffffffffffffffff021916908373ffffffffffffffffffffffffffffffffffffffff1602179055505b505050505050505050505062000b64565b615d908062003ae883390190565b611ccc806200987883390190565b6000604051905090565b600080fd5b600080fd5b600073ffffffffffffffffffffffffffffffffffffffff82169050919050565b60006200028a826200025d565b9050919050565b6200029c816200027d565b8114620002a857600080fd5b50565b600081519050620002bc8162000291565b92915050565b600080fd5b600080fd5b6000601f19601f8301169050919050565b7f4e487b7100000000000000000000000000000000000000000000000000000000600052604160045260246000fd5b6200031782620002cc565b810181811067ffffffffffffffff82111715620003395762000338620002dd565b5b80604052505050565b60006200034e62000249565b90506200035c82826200030c565b919050565b600067ffffffffffffffff8211156200037f576200037e620002dd565b5b6200038a82620002cc565b9050602081019050919050565b60005b83811015620003b75780820151818401526020810190506200039a565b60008484015250505050565b6000620003da620003d48462000361565b62000342565b905082815260208101848484011115620003f957620003f8620002c7565b5b6200040684828562000397565b509392505050565b600082601f830112620004265762000425620002c2565b5b815162000438848260208601620003c3565b91505092915050565b6000819050919050565b620004568162000441565b81146200046257600080fd5b50565b60008151905062000476816200044b565b92915050565b60008115159050919050565b62000493816200047c565b81146200049f57600080fd5b50565b600081519050620004b38162000488565b92915050565b60008060008060008060008060008060006101608c8e031215620004e257620004e162000253565b5b6000620004f28e828f01620002ab565b9b505060208c015167ffffffffffffffff81111562000516576200051562000258565b5b620005248e828f016200040e565b9a505060408c015167ffffffffffffffff81111562000548576200054762000258565b5b620005568e828f016200040e565b9950506060620005698e828f0162000465565b98505060806200057c8e828f0162000465565b97505060a08c015167ffffffffffffffff811115620005a0576200059f62000258565b5b620005ae8e828f016200040e565b96505060c08c015167ffffffffffffffff811115620005d257620005d162000258565b5b620005e08e828f016200040e565b95505060e0620005f38e828f01620004a2565b945050610100620006078e828f0162000465565b9350506101206200061b8e828f0162000465565b9250506101406200062f8e828f0162000465565b9150509295989b509295989b9093969950565b600081519050919050565b7f4e487b7100000000000000000000000000000000000000000000000000000000600052602260045260246000fd5b600060028204905060018216806200069557607f821691505b602082108103620006ab57620006aa6200064d565b5b50919050565b60008190508160005260206000209050919050565b60006020601f8301049050919050565b600082821b905092915050565b600060088302620007157fffffffffffffffffffffffffffffffffffffffffffffffffffffffffffffffff82620006d6565b620007218683620006d6565b95508019841693508086168417925050509392505050565b6000819050919050565b6000620007646200075e620007588462000441565b62000739565b62000441565b9050919050565b6000819050919050565b620007808362000743565b620007986200078f826200076b565b848454620006e3565b825550505050565b600090565b620007af620007a0565b620007bc81848462000775565b505050565b5b81811015620007e457620007d8600082620007a5565b600181019050620007c2565b5050565b601f8211156200083357620007fd81620006b1565b6200080884620006c6565b8101602085101562000818578190505b620008306200082785620006c6565b830182620007c1565b50505b505050565b600082821c905092915050565b6000620008586000198460080262000838565b1980831691505092915050565b600062000873838362000845565b9150826002028217905092915050565b6200088e8262000642565b67ffffffffffffffff811115620008aa57620008a9620002dd565b5b620008b682546200067c565b620008c3828285620007e8565b600060209050601f831160018114620008fb5760008415620008e6578287015190505b620008f2858262000865565b86555062000962565b601f1984166200090b86620006b1565b60005b8281101562000935578489015182556001820191506020850194506020810190506200090e565b8683101562000955578489015162000951601f89168262000845565b8355505b6001600288020188555050505b505050505050565b7f4e487b7100000000000000000000000000000000000000000000000000000000600052601160045260246000fd5b6000620009a68262000441565b9150620009b38362000441565b9250828202620009c38162000441565b91508282048414831517620009dd57620009dc6200096a565b5b5092915050565b600082825260208201905092915050565b600062000a028262000642565b62000a0e8185620009e4565b935062000a2081856020860162000397565b62000a2b81620002cc565b840191505092915050565b62000a418162000441565b82525050565b62000a52816200047c565b82525050565b6000819050919050565b600062000a8362000a7d62000a778462000a58565b62000739565b62000441565b9050919050565b62000a958162000a62565b82525050565b600060e082019050818103600083015262000ab7818a620009f5565b9050818103602083015262000acd8189620009f5565b905062000ade604083018862000a36565b62000aed606083018762000a36565b62000afc608083018662000a47565b62000b0b60a083018562000a47565b62000b1a60c083018462000a8a565b98975050505050505050565b62000b31816200027d565b82525050565b600060408201905062000b4e600083018562000a36565b62000b5d602083018462000b26565b9392505050565b612f748062000b746000396000f3fe6080604052600436106101b75760003560e01c806395d89b41116100ec578063b524fd6f1161008a578063be9a655511610064578063be9a655514610661578063c87b56dd1461068c578063c971ebb3146106c9578063e985e9c514610706576101b7565b8063b524fd6f146105d0578063b88d4fde146105fb578063ba899a2e14610624576101b7565b8063a035b1fe116100c6578063a035b1fe1461050f578063a0712d681461053a578063a22cb4651461056a578063aba4759f14610593576101b7565b806395d89b411461047c5780639af9bec0146104a75780639b4f589f146104d2576101b7565b806342842e0e116101595780636ac5db19116101335780636ac5db19146103be57806370a08231146103e957806383813a28146104265780638da5cb5b14610451576101b7565b806342842e0e1461032d5780634f02c420146103565780636352211e14610381576101b7565b8063095ea7b311610195578063095ea7b3146102615780630f4c01341461028a57806323b872dd146102c75780632f54bf6e146102f0576101b7565b806301ffc9a7146101bc57806306fdde03146101f9578063081812fc14610224575b600080fd5b3480156101c857600080fd5b506101e360048036038101906101de9190611ec0565b610743565b6040516101f09190611f08565b60405180910390f35b34801561020557600080fd5b5061020e610825565b60405161021b9190611fb3565b60405180910390f35b34801561023057600080fd5b5061024b6004803603810190610246919061200b565b6108b7565b6040516102589190612079565b60405180910390f35b34801561026d57600080fd5b50610288600480360381019061028391906120c0565b61093c565b005b34801561029657600080fd5b506102b160048036038101906102ac91906120c0565b610a53565b6040516102be919061210f565b60405180910390f35b3480156102d357600080fd5b506102ee60048036038101906102e9919061212a565b610a78565b005b3480156102fc57600080fd5b506103176004803603810190610312919061217d565b610ad8565b6040516103249190611f08565b60405180910390f35b34801561033957600080fd5b50610354600480360381019061034f919061212a565b610b40565b005b34801561036257600080fd5b5061036b610b60565b604051610378919061210f565b60405180910390f35b34801561038d57600080fd5b506103a860048036038101906103a3919061200b565b610b66565b6040516103b59190612079565b60405180910390f35b3480156103ca57600080fd5b506103d3610c17565b6040516103e0919061210f565b60405180910390f35b3480156103f557600080fd5b50610410600480360381019061040b919061217d565b610c1d565b60405161041d919061210f565b60405180910390f35b34801561043257600080fd5b5061043b610cd4565b6040516104489190611fb3565b60405180910390f35b34801561045d57600080fd5b50610466610d62565b6040516104739190612079565b60405180910390f35b34801561048857600080fd5b50610491610d88565b60405161049e9190611fb3565b60405180910390f35b3480156104b357600080fd5b506104bc610e1a565b6040516104c99190611fb3565b60405180910390f35b3480156104de57600080fd5b506104f960048036038101906104f4919061200b565b610ea8565b60405161050691906121ff565b60405180910390f35b34801561051b57600080fd5b50610524610f48565b604051610531919061210f565b60405180910390f35b610554600480360381019061054f919061200b565b610f4e565b604051610561919061210f565b60405180910390f35b34801561057657600080fd5b50610591600480360381019061058c919061224d565b611003565b005b34801561059f57600080fd5b506105ba60048036038101906105b5919061200b565b611019565b6040516105c7919061210f565b60405180910390f35b3480156105dc57600080fd5b506105e5611073565b6040516105f29190611f08565b60405180910390f35b34801561060757600080fd5b50610622600480360381019061061d91906123c2565b611082565b005b34801561063057600080fd5b5061064b6004803603810190610646919061200b565b6110e4565b6040516106589190612079565b60405180910390f35b34801561066d57600080fd5b506106766110f6565b6040516106839190611f08565b60405180910390f35b34801561069857600080fd5b506106b360048036038101906106ae919061200b565b611109565b6040516106c09190611fb3565b60405180910390f35b3480156106d557600080fd5b506106f060048036038101906106eb919061217d565b6111b0565b6040516106fd919061210f565b60405180910390f35b34801561071257600080fd5b5061072d60048036038101906107289190612445565b6111c8565b60405161073a9190611f08565b60405180910390f35b60007f80ac58cd000000000000000000000000000000000000000000000000000000007bffffffffffffffffffffffffffffffffffffffffffffffffffffffff1916827bffffffffffffffffffffffffffffffffffffffffffffffffffffffff1916148061080e57507f5b5e139f000000000000000000000000000000000000000000000000000000007bffffffffffffffffffffffffffffffffffffffffffffffffffffffff1916827bffffffffffffffffffffffffffffffffffffffffffffffffffffffff1916145b8061081e575061081d8261125c565b5b9050919050565b606060008054610834906124b4565b80601f0160208091040260200160405190810160405280929190818152602001828054610860906124b4565b80156108ad5780601f10610882576101008083540402835291602001916108ad565b820191906000526020600020905b81548152906001019060200180831161089057829003601f168201915b5050505050905090565b60006108c2826112c6565b610901576040517f08c379a00000000000000000000000000000000000000000000000000000000081526004016108f890612557565b60405180910390fd5b6004600083815260200190815260200160002060009054906101000a900473ffffffffffffffffffffffffffffffffffffffff169050919050565b600061094782610b66565b90508073ffffffffffffffffffffffffffffffffffffffff168373ffffffffffffffffffffffffffffffffffffffff16036109b7576040517f08c379a00000000000000000000000000000000000000000000000000000000081526004016109ae906125e9565b60405180910390fd5b8073ffffffffffffffffffffffffffffffffffffffff166109d6611332565b73ffffffffffffffffffffffffffffffffffffffff161480610a055750610a04816109ff611332565b6111c8565b5b610a44576040517f08c379a0000000000000000000000000000000000000000000000000000000008152600401610a3b9061267b565b60405180910390fd5b610a4e838361133a565b505050565b6013602052816000526040600020602052806000526040600020600091509150505481565b610a89610a83611332565b826113f3565b610ac8576040517f08c379a0000000000000000000000000000000000000000000000000000000008152600401610abf9061270d565b60405180910390fd5b610ad38383836114d1565b505050565b6000600a60009054906101000a900473ffffffffffffffffffffffffffffffffffffffff1673ffffffffffffffffffffffffffffffffffffffff168273ffffffffffffffffffffffffffffffffffffffff1614610b36576000610b39565b60015b9050919050565b610b5b83838360405180602001604052806000815250611082565b505050565b600b5481565b6000806002600084815260200190815260200160002060009054906101000a900473ffffffffffffffffffffffffffffffffffffffff169050600073ffffffffffffffffffffffffffffffffffffffff168173ffffffffffffffffffffffffffffffffffffffff1603610c0e576040517f08c379a0000000000000000000000000000000000000000000000000000000008152600401610c059061279f565b60405180910390fd5b80915050919050565b600c5481565b60008073ffffffffffffffffffffffffffffffffffffffff168273ffffffffffffffffffffffffffffffffffffffff1603610c8d576040517f08c379a0000000000000000000000000000000000000000000000000000000008152600401610c8490612831565b60405180910390fd5b600360008373ffffffffffffffffffffffffffffffffffffffff1673ffffffffffffffffffffffffffffffffffffffff168152602001908152602001600020549050919050565b600e8054610ce1906124b4565b80601f0160208091040260200160405190810160405280929190818152602001828054610d0d906124b4565b8015610d5a5780601f10610d2f57610100808354040283529160200191610d5a565b820191906000526020600020905b815481529060010190602001808311610d3d57829003601f168201915b505050505081565b600a60009054906101000a900473ffffffffffffffffffffffffffffffffffffffff1681565b606060018054610d97906124b4565b80601f0160208091040260200160405190810160405280929190818152602001828054610dc3906124b4565b8015610e105780601f10610de557610100808354040283529160200191610e10565b820191906000526020600020905b815481529060010190602001808311610df357829003601f168201915b5050505050905090565b600d8054610e27906124b4565b80601f0160208091040260200160405190810160405280929190818152602001828054610e53906124b4565b8015610ea05780601f10610e7557610100808354040283529160200191610ea0565b820191906000526020600020905b815481529060010190602001808311610e8357829003601f168201915b505050505081565b60116020528060005260406000206000915090508054610ec7906124b4565b80601f0160208091040260200160405190810160405280929190818152602001828054610ef3906124b4565b8015610f405780601f10610f1557610100808354040283529160200191610f40565b820191906000526020600020905b815481529060010190602001808311610f2357829003601f168201915b505050505081565b60105481565b6000600c54600b54101580610f725750600c5482600b54610f6f9190612880565b10155b15610fa9576040517f064a6c4100000000000000000000000000000000000000000000000000000000815260040160405180910390fd5b81601054610fb791906128b4565b3410610fef576040517fefc60c1400000000000000000000000000000000000000000000000000000000815260040160405180910390fd5b610ff88261172c565b50600b549050919050565b61101561100e611332565b8383611779565b5050565b6000601360003373ffffffffffffffffffffffffffffffffffffffff1673ffffffffffffffffffffffffffffffffffffffff1681526020019081526020016000206000838152602001908152602001600020549050919050565b600061107d6118e5565b905090565b61109361108d611332565b836113f3565b6110d2576040517f08c379a00000000000000000000000000000000000000000000000000000000081526004016110c99061270d565b60405180910390fd5b6110de84848484611915565b50505050565b60006110ef82610b66565b9050919050565b600f60009054906101000a900460ff1681565b6060611114826112c6565b611153576040517f08c379a000000000000000000000000000000000000000000000000000000000815260040161114a90612968565b60405180910390fd5b600061115d611971565b9050600081511161117d57604051806020016040528060008152506111a8565b8061118784611988565b6040516020016111989291906129c4565b6040516020818303038152906040525b915050919050565b60126020528060005260406000206000915090505481565b6000600560008473ffffffffffffffffffffffffffffffffffffffff1673ffffffffffffffffffffffffffffffffffffffff16815260200190815260200160002060008373ffffffffffffffffffffffffffffffffffffffff1673ffffffffffffffffffffffffffffffffffffffff16815260200190815260200160002060009054906101000a900460ff16905092915050565b60007f01ffc9a7000000000000000000000000000000000000000000000000000000007bffffffffffffffffffffffffffffffffffffffffffffffffffffffff1916827bffffffffffffffffffffffffffffffffffffffffffffffffffffffff1916149050919050565b60008073ffffffffffffffffffffffffffffffffffffffff166002600084815260200190815260200160002060009054906101000a900473ffffffffffffffffffffffffffffffffffffffff1673ffffffffffffffffffffffffffffffffffffffff1614159050919050565b600033905090565b816004600083815260200190815260200160002060006101000a81548173ffffffffffffffffffffffffffffffffffffffff021916908373ffffffffffffffffffffffffffffffffffffffff160217905550808273ffffffffffffffffffffffffffffffffffffffff166113ad83610b66565b73ffffffffffffffffffffffffffffffffffffffff167f8c5be1e5ebec7d5bd14f71427d1e84f3dd0314c0f7b2291e5b200ac8c7c3b92560405160405180910390a45050565b60006113fe826112c6565b61143d576040517f08c379a000000000000000000000000000000000000000000000000000000000815260040161143490612a5a565b60405180910390fd5b600061144883610b66565b90508073ffffffffffffffffffffffffffffffffffffffff168473ffffffffffffffffffffffffffffffffffffffff1614806114b757508373ffffffffffffffffffffffffffffffffffffffff1661149f846108b7565b73ffffffffffffffffffffffffffffffffffffffff16145b806114c857506114c781856111c8565b5b91505092915050565b8273ffffffffffffffffffffffffffffffffffffffff166114f182610b66565b73ffffffffffffffffffffffffffffffffffffffff1614611547576040517f08c379a000000000000000000000000000000000000000000000000000000000815260040161153e90612aec565b60405180910390fd5b600073ffffffffffffffffffffffffffffffffffffffff168273ffffffffffffffffffffffffffffffffffffffff16036115b6576040517f08c379a00000000000000000000000000000000000000000000000000000000081526004016115ad90612b7e565b60405180910390fd5b6115c1838383611ae8565b6115cc60008261133a565b6001600360008573ffffffffffffffffffffffffffffffffffffffff1673ffffffffffffffffffffffffffffffffffffffff168152602001908152602001600020600082825461161c9190612b9e565b925050819055506001600360008473ffffffffffffffffffffffffffffffffffffffff1673ffffffffffffffffffffffffffffffffffffffff16815260200190815260200160002060008282546116739190612880565b92505081905550816002600083815260200190815260200160002060006101000a81548173ffffffffffffffffffffffffffffffffffffffff021916908373ffffffffffffffffffffffffffffffffffffffff160217905550808273ffffffffffffffffffffffffffffffffffffffff168473ffffffffffffffffffffffffffffffffffffffff167fddf252ad1be2c89b69c2b068fc378daa952ba7f163c4a11628f55a4df523b3ef60405160405180910390a4505050565b6000600782111561173c57600080fd5b60005b8281101561176e5761175333600b54611aed565b600b600081546001019190508190555080600101905061173f565b50600b549050919050565b8173ffffffffffffffffffffffffffffffffffffffff168373ffffffffffffffffffffffffffffffffffffffff16036117e7576040517f08c379a00000000000000000000000000000000000000000000000000000000081526004016117de90612c1e565b60405180910390fd5b80600560008573ffffffffffffffffffffffffffffffffffffffff1673ffffffffffffffffffffffffffffffffffffffff16815260200190815260200160002060008473ffffffffffffffffffffffffffffffffffffffff1673ffffffffffffffffffffffffffffffffffffffff16815260200190815260200160002060006101000a81548160ff0219169083151502179055508173ffffffffffffffffffffffffffffffffffffffff168373ffffffffffffffffffffffffffffffffffffffff167f17307eab39ab6107e8899845ad3d59bd9653f200f220920489ca2b5937696c31836040516118d89190611f08565b60405180910390a3505050565b6000600f60009054906101000a900460ff1615600f60006101000a81548160ff0219169083151502179055905090565b6119208484846114d1565b61192c84848484611cba565b61196b576040517f08c379a000000000000000000000000000000000000000000000000000000000815260040161196290612cb0565b60405180910390fd5b50505050565b606060405180602001604052806000815250905090565b6060600082036119cf576040518060400160405280600181526020017f30000000000000000000000000000000000000000000000000000000000000008152509050611ae3565b600082905060005b60008214611a015780806119ea90612cd0565b915050600a826119fa9190612d47565b91506119d7565b60008167ffffffffffffffff811115611a1d57611a1c612297565b5b6040519080825280601f01601f191660200182016040528015611a4f5781602001600182028036833780820191505090505b5090505b60008514611adc57600182611a689190612b9e565b9150600a85611a779190612d78565b6030611a839190612880565b60f81b818381518110611a9957611a98612da9565b5b60200101907effffffffffffffffffffffffffffffffffffffffffffffffffffffffffffff1916908160001a905350600a85611ad59190612d47565b9450611a53565b8093505050505b919050565b505050565b600073ffffffffffffffffffffffffffffffffffffffff168273ffffffffffffffffffffffffffffffffffffffff1603611b5c576040517f08c379a0000000000000000000000000000000000000000000000000000000008152600401611b5390612e24565b60405180910390fd5b611b65816112c6565b15611ba5576040517f08c379a0000000000000000000000000000000000000000000000000000000008152600401611b9c90612e90565b60405180910390fd5b611bb160008383611ae8565b6001600360008473ffffffffffffffffffffffffffffffffffffffff1673ffffffffffffffffffffffffffffffffffffffff1681526020019081526020016000206000828254611c019190612880565b92505081905550816002600083815260200190815260200160002060006101000a81548173ffffffffffffffffffffffffffffffffffffffff021916908373ffffffffffffffffffffffffffffffffffffffff160217905550808273ffffffffffffffffffffffffffffffffffffffff16600073ffffffffffffffffffffffffffffffffffffffff167fddf252ad1be2c89b69c2b068fc378daa952ba7f163c4a11628f55a4df523b3ef60405160405180910390a45050565b6000611cdb8473ffffffffffffffffffffffffffffffffffffffff16611e41565b15611e34578373ffffffffffffffffffffffffffffffffffffffff1663150b7a02611d04611332565b8786866040518563ffffffff1660e01b8152600401611d269493929190612eb0565b6020604051808303816000875af1925050508015611d6257506040513d601f19601f82011682018060405250810190611d5f9190612f11565b60015b611de4573d8060008114611d92576040519150601f19603f3d011682016040523d82523d6000602084013e611d97565b606091505b506000815103611ddc576040517f08c379a0000000000000000000000000000000000000000000000000000000008152600401611dd390612cb0565b60405180910390fd5b805181602001fd5b63150b7a0260e01b7bffffffffffffffffffffffffffffffffffffffffffffffffffffffff1916817bffffffffffffffffffffffffffffffffffffffffffffffffffffffff191614915050611e39565b600190505b949350505050565b600080823b905060008111915050919050565b6000604051905090565b600080fd5b600080fd5b60007fffffffff0000000000000000000000000000000000000000000000000000000082169050919050565b611e9d81611e68565b8114611ea857600080fd5b50565b600081359050611eba81611e94565b92915050565b600060208284031215611ed657611ed5611e5e565b5b6000611ee484828501611eab565b91505092915050565b60008115159050919050565b611f0281611eed565b82525050565b6000602082019050611f1d6000830184611ef9565b92915050565b600081519050919050565b600082825260208201905092915050565b60005b83811015611f5d578082015181840152602081019050611f42565b60008484015250505050565b6000601f19601f8301169050919050565b6000611f8582611f23565b611f8f8185611f2e565b9350611f9f818560208601611f3f565b611fa881611f69565b840191505092915050565b60006020820190508181036000830152611fcd8184611f7a565b905092915050565b6000819050919050565b611fe881611fd5565b8114611ff357600080fd5b50565b60008135905061200581611fdf565b92915050565b60006020828403121561202157612020611e5e565b5b600061202f84828501611ff6565b91505092915050565b600073ffffffffffffffffffffffffffffffffffffffff82169050919050565b600061206382612038565b9050919050565b61207381612058565b82525050565b600060208201905061208e600083018461206a565b92915050565b61209d81612058565b81146120a857600080fd5b50565b6000813590506120ba81612094565b92915050565b600080604083850312156120d7576120d6611e5e565b5b60006120e5858286016120ab565b92505060206120f685828601611ff6565b9150509250929050565b61210981611fd5565b82525050565b60006020820190506121246000830184612100565b92915050565b60008060006060848603121561214357612142611e5e565b5b6000612151868287016120ab565b9350506020612162868287016120ab565b925050604061217386828701611ff6565b9150509250925092565b60006020828403121561219357612192611e5e565b5b60006121a1848285016120ab565b91505092915050565b600081519050919050565b600082825260208201905092915050565b60006121d1826121aa565b6121db81856121b5565b93506121eb818560208601611f3f565b6121f481611f69565b840191505092915050565b6000602082019050818103600083015261221981846121c6565b905092915050565b61222a81611eed565b811461223557600080fd5b50565b60008135905061224781612221565b92915050565b6000806040838503121561226457612263611e5e565b5b6000612272858286016120ab565b925050602061228385828601612238565b9150509250929050565b600080fd5b600080fd5b7f4e487b7100000000000000000000000000000000000000000000000000000000600052604160045260246000fd5b6122cf82611f69565b810181811067ffffffffffffffff821117156122ee576122ed612297565b5b80604052505050565b6000612301611e54565b905061230d82826122c6565b919050565b600067ffffffffffffffff82111561232d5761232c612297565b5b61233682611f69565b9050602081019050919050565b82818337600083830152505050565b600061236561236084612312565b6122f7565b90508281526020810184848401111561238157612380612292565b5b61238c848285612343565b509392505050565b600082601f8301126123a9576123a861228d565b5b81356123b9848260208601612352565b91505092915050565b600080600080608085870312156123dc576123db611e5e565b5b60006123ea878288016120ab565b94505060206123fb878288016120ab565b935050604061240c87828801611ff6565b925050606085013567ffffffffffffffff81111561242d5761242c611e63565b5b61243987828801612394565b91505092959194509250565b6000806040838503121561245c5761245b611e5e565b5b600061246a858286016120ab565b925050602061247b858286016120ab565b9150509250929050565b7f4e487b7100000000000000000000000000000000000000000000000000000000600052602260045260246000fd5b600060028204905060018216806124cc57607f821691505b6020821081036124df576124de612485565b5b50919050565b7f4552433732313a20617070726f76656420717565727920666f72206e6f6e657860008201527f697374656e7420746f6b656e0000000000000000000000000000000000000000602082015250565b6000612541602c83611f2e565b915061254c826124e5565b604082019050919050565b6000602082019050818103600083015261257081612534565b9050919050565b7f4552433732313a20617070726f76616c20746f2063757272656e74206f776e6560008201527f7200000000000000000000000000000000000000000000000000000000000000602082015250565b60006125d3602183611f2e565b91506125de82612577565b604082019050919050565b60006020820190508181036000830152612602816125c6565b9050919050565b7f4552433732313a20617070726f76652063616c6c6572206973206e6f74206f7760008201527f6e6572206e6f7220617070726f76656420666f7220616c6c0000000000000000602082015250565b6000612665603883611f2e565b915061267082612609565b604082019050919050565b6000602082019050818103600083015261269481612658565b9050919050565b7f4552433732313a207472616e736665722063616c6c6572206973206e6f74206f60008201527f776e6572206e6f7220617070726f766564000000000000000000000000000000602082015250565b60006126f7603183611f2e565b91506127028261269b565b604082019050919050565b60006020820190508181036000830152612726816126ea565b9050919050565b7f4552433732313a206f776e657220717565727920666f72206e6f6e657869737460008201527f656e7420746f6b656e0000000000000000000000000000000000000000000000602082015250565b6000612789602983611f2e565b91506127948261272d565b604082019050919050565b600060208201905081810360008301526127b88161277c565b9050919050565b7f4552433732313a2062616c616e636520717565727920666f7220746865207a6560008201527f726f206164647265737300000000000000000000000000000000000000000000602082015250565b600061281b602a83611f2e565b9150612826826127bf565b604082019050919050565b6000602082019050818103600083015261284a8161280e565b9050919050565b7f4e487b7100000000000000000000000000000000000000000000000000000000600052601160045260246000fd5b600061288b82611fd5565b915061289683611fd5565b92508282019050808211156128ae576128ad612851565b5b92915050565b60006128bf82611fd5565b91506128ca83611fd5565b92508282026128d881611fd5565b915082820484148315176128ef576128ee612851565b5b5092915050565b7f4552433732314d657461646174613a2055524920717565727920666f72206e6f60008201527f6e6578697374656e7420746f6b656e0000000000000000000000000000000000602082015250565b6000612952602f83611f2e565b915061295d826128f6565b604082019050919050565b6000602082019050818103600083015261298181612945565b9050919050565b600081905092915050565b600061299e82611f23565b6129a88185612988565b93506129b8818560208601611f3f565b80840191505092915050565b60006129d08285612993565b91506129dc8284612993565b91508190509392505050565b7f4552433732313a206f70657261746f7220717565727920666f72206e6f6e657860008201527f697374656e7420746f6b656e0000000000000000000000000000000000000000602082015250565b6000612a44602c83611f2e565b9150612a4f826129e8565b604082019050919050565b60006020820190508181036000830152612a7381612a37565b9050919050565b7f4552433732313a207472616e73666572206f6620746f6b656e2074686174206960008201527f73206e6f74206f776e0000000000000000000000000000000000000000000000602082015250565b6000612ad6602983611f2e565b9150612ae182612a7a565b604082019050919050565b60006020820190508181036000830152612b0581612ac9565b9050919050565b7f4552433732313a207472616e7366657220746f20746865207a65726f2061646460008201527f7265737300000000000000000000000000000000000000000000000000000000602082015250565b6000612b68602483611f2e565b9150612b7382612b0c565b604082019050919050565b60006020820190508181036000830152612b9781612b5b565b9050919050565b6000612ba982611fd5565b9150612bb483611fd5565b9250828203905081811115612bcc57612bcb612851565b5b92915050565b7f4552433732313a20617070726f766520746f2063616c6c657200000000000000600082015250565b6000612c08601983611f2e565b9150612c1382612bd2565b602082019050919050565b60006020820190508181036000830152612c3781612bfb565b9050919050565b7f4552433732313a207472616e7366657220746f206e6f6e20455243373231526560008201527f63656976657220696d706c656d656e7465720000000000000000000000000000602082015250565b6000612c9a603283611f2e565b9150612ca582612c3e565b604082019050919050565b60006020820190508181036000830152612cc981612c8d565b9050919050565b6000612cdb82611fd5565b91507fffffffffffffffffffffffffffffffffffffffffffffffffffffffffffffffff8203612d0d57612d0c612851565b5b600182019050919050565b7f4e487b7100000000000000000000000000000000000000000000000000000000600052601260045260246000fd5b6000612d5282611fd5565b9150612d5d83611fd5565b925082612d6d57612d6c612d18565b5b828204905092915050565b6000612d8382611fd5565b9150612d8e83611fd5565b925082612d9e57612d9d612d18565b5b828206905092915050565b7f4e487b7100000000000000000000000000000000000000000000000000000000600052603260045260246000fd5b7f4552433732313a206d696e7420746f20746865207a65726f2061646472657373600082015250565b6000612e0e602083611f2e565b9150612e1982612dd8565b602082019050919050565b60006020820190508181036000830152612e3d81612e01565b9050919050565b7f4552433732313a20746f6b656e20616c7265616479206d696e74656400000000600082015250565b6000612e7a601c83611f2e565b9150612e8582612e44565b602082019050919050565b60006020820190508181036000830152612ea981612e6d565b9050919050565b6000608082019050612ec5600083018761206a565b612ed2602083018661206a565b612edf6040830185612100565b8181036060830152612ef181846121c6565b905095945050505050565b600081519050612f0b81611e94565b92915050565b600060208284031215612f2757612f26611e5e565b5b6000612f3584828501612efc565b9150509291505056fea2646970667358221220e3a782e627170a1a8ad6fba0bb03137fa4750bc7e39e38e6f4d9fdc6d137041264736f6c6343000811003360806040523480156200001157600080fd5b5060405162005d9038038062005d90833981810160405281019062000037919062001041565b868681600390816200004a919062001373565b5080600490816200005c919062001373565b5050506000600560006101000a81548160ff0219169083151502179055506200009a6200008e6200038560201b60201c565b6200038d60201b60201c565b60014603620000fe5773e47da91495c75e1d48569f343938380d8303b1f2600660006101000a81548173ffffffffffffffffffffffffffffffffffffffff021916908373ffffffffffffffffffffffffffffffffffffffff1602179055506200022a565b60054603620001625773e47da91495c75e1d48569f343938380d8303b1f2600660006101000a81548173ffffffffffffffffffffffffffffffffffffffff021916908373ffffffffffffffffffffffffffffffffffffffff16021790555062000229565b60894603620001c65773e47da91495c75e1d48569f343938380d8303b1f2600660006101000a81548173ffffffffffffffffffffffffffffffffffffffff021916908373ffffffffffffffffffffffffffffffffffffffff16021790555062000228565b620138814603620002275773e47da91495c75e1d48569f343938380d8303b1f2600660006101000a81548173ffffffffffffffffffffffffffffffffffffffff021916908373ffffffffffffffffffffffffffffffffffffffff1602179055505b5b5b5b6200023b856200045360201b60201c565b508360098190555086600c908162000254919062001373565b5082600b60006101000a81548160ff02191690831515021790555081600b60016101000a81548160ff0219169083151502179055506200029a8162000cf860201b60201c565b600d60006101000a81548160ff02191690836004811115620002c157620002c06200145a565b5b02179055506040518060600160405280600a548152602001868152602001600d60009054906101000a900460ff1660048111156200030457620003036200145a565b5b815250600e600a548154811062000320576200031f62001489565b5b9060005260206000209060030201600082015181600001556020820151816001015560408201518160020160006101000a81548160ff0219169083600481111562000370576200036f6200145a565b5b02179055509050505050505050505062001594565b600033905090565b6000600560019054906101000a900473ffffffffffffffffffffffffffffffffffffffff16905081600560016101000a81548173ffffffffffffffffffffffffffffffffffffffff021916908373ffffffffffffffffffffffffffffffffffffffff1602179055508173ffffffffffffffffffffffffffffffffffffffff168173ffffffffffffffffffffffffffffffffffffffff167f8be0079c531659141344cd1fd0a4f28419497f9722a3daafe3b4186f6b6457e060405160405180910390a35050565b600080600060048111156200046d576200046c6200145a565b5b600d60009054906101000a900460ff1660048111156200049257620004916200145a565b5b03620006335760008173ffffffffffffffffffffffffffffffffffffffff16638d4a8ffe856040518263ffffffff1660e01b8152600401620004d59190620014c9565b602060405180830381865afa158015620004f3573d6000803e3d6000fd5b505050506040513d601f19601f82011682018060405250810190620005199190620014e6565b9050600081101562000557576040517fc1a21f4e00000000000000000000000000000000000000000000000000000000815260040160405180910390fd5b6040518060600160405280600a548152602001828152602001600d60009054906101000a900460ff1660048111156200059557620005946200145a565b5b815250600e600a5481548110620005b157620005b062001489565b5b9060005260206000209060030201600082015181600001556020820151816001015560408201518160020160006101000a81548160ff021916908360048111156200060157620006006200145a565b5b0217905550905050600a60008154809291906200061e9062001547565b91905055508060078190559250505062000cf3565b600160048111156200064a57620006496200145a565b5b600d60009054906101000a900460ff1660048111156200066f576200066e6200145a565b5b03620007925760008390506000811015620006b6576040517fc1a21f4e00000000000000000000000000000000000000000000000000000000815260040160405180910390fd5b6040518060600160405280600a548152602001828152602001600d60009054906101000a900460ff166004811115620006f457620006f36200145a565b5b815250600e600a548154811062000710576200070f62001489565b5b9060005260206000209060030201600082015181600001556020820151816001015560408201518160020160006101000a81548160ff0219169083600481111562000760576200075f6200145a565b5b0217905550905050600a60008154809291906200077d9062001547565b91905055508060078190559250505062000cf3565b60026004811115620007a957620007a86200145a565b5b600d60009054906101000a900460ff166004811115620007ce57620007cd6200145a565b5b036200096f5760008173ffffffffffffffffffffffffffffffffffffffff16637afcc7a4856040518263ffffffff1660e01b8152600401620008119190620014c9565b602060405180830381865afa1580156200082f573d6000803e3d6000fd5b505050506040513d601f19601f82011682018060405250810190620008559190620014e6565b9050600081101562000893576040517fc1a21f4e00000000000000000000000000000000000000000000000000000000815260040160405180910390fd5b6040518060600160405280600a548152602001828152602001600d60009054906101000a900460ff166004811115620008d157620008d06200145a565b5b815250600e600a5481548110620008ed57620008ec62001489565b5b9060005260206000209060030201600082015181600001556020820151816001015560408201518160020160006101000a81548160ff021916908360048111156200093d576200093c6200145a565b5b0217905550905050600a60008154809291906200095a9062001547565b91905055508060078190559250505062000cf3565b600360048111156200098657620009856200145a565b5b600d60009054906101000a900460ff166004811115620009ab57620009aa6200145a565b5b0362000b4c5760008173ffffffffffffffffffffffffffffffffffffffff166387434dcd856040518263ffffffff1660e01b8152600401620009ee9190620014c9565b602060405180830381865afa15801562000a0c573d6000803e3d6000fd5b505050506040513d601f19601f8201168201806040525081019062000a329190620014e6565b9050600081101562000a70576040517fc1a21f4e00000000000000000000000000000000000000000000000000000000815260040160405180910390fd5b6040518060600160405280600a548152602001828152602001600d60009054906101000a900460ff16600481111562000aae5762000aad6200145a565b5b815250600e600a548154811062000aca5762000ac962001489565b5b9060005260206000209060030201600082015181600001556020820151816001015560408201518160020160006101000a81548160ff0219169083600481111562000b1a5762000b196200145a565b5b0217905550905050600a600081548092919062000b379062001547565b91905055508060078190559250505062000cf3565b60048081111562000b625762000b616200145a565b5b600d60009054906101000a900460ff16600481111562000b875762000b866200145a565b5b0362000cec5760008173ffffffffffffffffffffffffffffffffffffffff1663d1381f4e856040518263ffffffff1660e01b815260040162000bca9190620014c9565b602060405180830381865afa15801562000be8573d6000803e3d6000fd5b505050506040513d601f19601f8201168201806040525081019062000c0e9190620014e6565b90506040518060600160405280600a548152602001828152602001600d60009054906101000a900460ff16600481111562000c4e5762000c4d6200145a565b5b815250600e600a548154811062000c6a5762000c6962001489565b5b9060005260206000209060030201600082015181600001556020820151816001015560408201518160020160006101000a81548160ff0219169083600481111562000cba5762000cb96200145a565b5b0217905550905050600a600081548092919062000cd79062001547565b91905055508060078190559250505062000cf3565b6007549150505b919050565b600080820362000d36576000600d60006101000a81548160ff0219169083600481111562000d2b5762000d2a6200145a565b5b021790555062000e1f565b6001820362000d73576001600d60006101000a81548160ff0219169083600481111562000d685762000d676200145a565b5b021790555062000e1e565b6002820362000db0576002600d60006101000a81548160ff0219169083600481111562000da55762000da46200145a565b5b021790555062000e1d565b6003820362000ded576003600d60006101000a81548160ff0219169083600481111562000de25762000de16200145a565b5b021790555062000e1c565b6004600d60006101000a81548160ff0219169083600481111562000e165762000e156200145a565b5b02179055505b5b5b5b600d60009054906101000a900460ff169050919050565b6000604051905090565b600080fd5b600080fd5b600080fd5b600080fd5b6000601f19601f8301169050919050565b7f4e487b7100000000000000000000000000000000000000000000000000000000600052604160045260246000fd5b62000e9f8262000e54565b810181811067ffffffffffffffff8211171562000ec15762000ec062000e65565b5b80604052505050565b600062000ed662000e36565b905062000ee4828262000e94565b919050565b600067ffffffffffffffff82111562000f075762000f0662000e65565b5b62000f128262000e54565b9050602081019050919050565b60005b8381101562000f3f57808201518184015260208101905062000f22565b60008484015250505050565b600062000f6262000f5c8462000ee9565b62000eca565b90508281526020810184848401111562000f815762000f8062000e4f565b5b62000f8e84828562000f1f565b509392505050565b600082601f83011262000fae5762000fad62000e4a565b5b815162000fc084826020860162000f4b565b91505092915050565b6000819050919050565b62000fde8162000fc9565b811462000fea57600080fd5b50565b60008151905062000ffe8162000fd3565b92915050565b60008115159050919050565b6200101b8162001004565b81146200102757600080fd5b50565b6000815190506200103b8162001010565b92915050565b600080600080600080600060e0888a03121562001063576200106262000e40565b5b600088015167ffffffffffffffff81111562001084576200108362000e45565b5b620010928a828b0162000f96565b975050602088015167ffffffffffffffff811115620010b657620010b562000e45565b5b620010c48a828b0162000f96565b9650506040620010d78a828b0162000fed565b9550506060620010ea8a828b0162000fed565b9450506080620010fd8a828b016200102a565b93505060a0620011108a828b016200102a565b92505060c0620011238a828b0162000fed565b91505092959891949750929550565b600081519050919050565b7f4e487b7100000000000000000000000000000000000000000000000000000000600052602260045260246000fd5b600060028204905060018216806200118557607f821691505b6020821081036200119b576200119a6200113d565b5b50919050565b60008190508160005260206000209050919050565b60006020601f8301049050919050565b600082821b905092915050565b600060088302620012057fffffffffffffffffffffffffffffffffffffffffffffffffffffffffffffffff82620011c6565b620012118683620011c6565b95508019841693508086168417925050509392505050565b6000819050919050565b6000620012546200124e620012488462000fc9565b62001229565b62000fc9565b9050919050565b6000819050919050565b620012708362001233565b620012886200127f826200125b565b848454620011d3565b825550505050565b600090565b6200129f62001290565b620012ac81848462001265565b505050565b5b81811015620012d457620012c860008262001295565b600181019050620012b2565b5050565b601f8211156200132357620012ed81620011a1565b620012f884620011b6565b8101602085101562001308578190505b620013206200131785620011b6565b830182620012b1565b50505b505050565b600082821c905092915050565b6000620013486000198460080262001328565b1980831691505092915050565b600062001363838362001335565b9150826002028217905092915050565b6200137e8262001132565b67ffffffffffffffff8111156200139a576200139962000e65565b5b620013a682546200116c565b620013b3828285620012d8565b600060209050601f831160018114620013eb5760008415620013d6578287015190505b620013e2858262001355565b86555062001452565b601f198416620013fb86620011a1565b60005b828110156200142557848901518255600182019150602085019450602081019050620013fe565b8683101562001445578489015162001441601f89168262001335565b8355505b6001600288020188555050505b505050505050565b7f4e487b7100000000000000000000000000000000000000000000000000000000600052602160045260246000fd5b7f4e487b7100000000000000000000000000000000000000000000000000000000600052603260045260246000fd5b620014c38162000fc9565b82525050565b6000602082019050620014e06000830184620014b8565b92915050565b600060208284031215620014ff57620014fe62000e40565b5b60006200150f8482850162000fed565b91505092915050565b7f4e487b7100000000000000000000000000000000000000000000000000000000600052601160045260246000fd5b6000620015548262000fc9565b91507fffffffffffffffffffffffffffffffffffffffffffffffffffffffffffffffff820362001589576200158862001518565b5b600182019050919050565b6147ec80620015a46000396000f3fe60806040526004361061031e5760003560e01c8063715018a6116101ab578063a457c2d7116100f7578063dd62ed3e11610095578063e2ab78131161006f578063e2ab781314610c99578063e9f38fc514610cd6578063f2fde38b14610d13578063f42fff0114610d3c5761032d565b8063dd62ed3e14610c06578063e04777af14610c43578063e12ef5ed14610c6e5761032d565b8063c4ae3168116100d1578063c4ae316814610b48578063d1381f4e14610b73578063d21b872014610bb0578063d37e510414610bdb5761032d565b8063a457c2d714610aa3578063a9059cbb14610ae0578063bec9908e14610b1d5761032d565b8063836ceb9d116101645780638da5cb5b1161013e5780638da5cb5b146109f75780638dff74a714610a2257806395d89b4114610a4d57806396af428a14610a785761032d565b8063836ceb9d1461094057806387434dcd1461097d5780638d4a8ffe146109ba5761032d565b8063715018a614610842578063778a56ce1461085957806379cc67901461088457806379d79fcc146108ad5780637afcc7a4146108d85780637d670117146109155761032d565b806334fcf4371161026a5780634a2ad99f116102235780636260f55b116101fd5780636260f55b146107725780636a443b591461079d5780636f8b44b0146107c857806370a08231146108055761032d565b80634a2ad99f146106df5780634a79d50c1461071c5780635c975abb146107475761032d565b806334fcf437146105b65780633610724e146105f3578063395093511461062357806342966c6814610660578063445919461461068957806348cf734d146106b45761032d565b8063201a49d6116102d757806329d7a0bd116102b157806329d7a0bd1461050a5780632c4e722e14610535578063313ce5671461056057806332cb6b0c1461058b5761032d565b8063201a49d61461047757806323b872dd146104a2578063287ead9e146104df5761032d565b8063033a7a021461033f578063054dca2a1461037c57806306fdde03146103a7578063095ea7b3146103d25780630b4185ea1461040f57806318160ddd1461044c5761032d565b3661032d5761032b610d67565b005b610335610d67565b61033d610d86565b005b34801561034b57600080fd5b5061036660048036038101906103619190613836565b610e38565b6040516103739190613872565b60405180910390f35b34801561038857600080fd5b50610391610e81565b60405161039e9190613872565b60405180910390f35b3480156103b357600080fd5b506103bc610ebe565b6040516103c9919061391d565b60405180910390f35b3480156103de57600080fd5b506103f960048036038101906103f4919061399d565b610f50565b60405161040691906139f8565b60405180910390f35b34801561041b57600080fd5b5061043660048036038101906104319190613836565b610f6e565b6040516104439190613872565b60405180910390f35b34801561045857600080fd5b50610461610fb7565b60405161046e9190613872565b60405180910390f35b34801561048357600080fd5b5061048c610fc1565b6040516104999190613872565b60405180910390f35b3480156104ae57600080fd5b506104c960048036038101906104c49190613a13565b610fc7565b6040516104d691906139f8565b60405180910390f35b3480156104eb57600080fd5b506104f46110bf565b6040516105019190613872565b60405180910390f35b34801561051657600080fd5b5061051f6110fc565b60405161052c9190613872565b60405180910390f35b34801561054157600080fd5b5061054a611139565b6040516105579190613872565b60405180910390f35b34801561056c57600080fd5b5061057561113f565b6040516105829190613a82565b60405180910390f35b34801561059757600080fd5b506105a0611148565b6040516105ad9190613872565b60405180910390f35b3480156105c257600080fd5b506105dd60048036038101906105d89190613836565b61114e565b6040516105ea9190613872565b60405180910390f35b61060d60048036038101906106089190613836565b6111dc565b60405161061a9190613872565b60405180910390f35b34801561062f57600080fd5b5061064a6004803603810190610645919061399d565b6112be565b60405161065791906139f8565b60405180910390f35b34801561066c57600080fd5b5061068760048036038101906106829190613836565b61136a565b005b34801561069557600080fd5b5061069e6113c4565b6040516106ab9190613872565b60405180910390f35b3480156106c057600080fd5b506106c96113d3565b6040516106d69190613872565b60405180910390f35b3480156106eb57600080fd5b506107066004803603810190610701919061399d565b611410565b60405161071391906139f8565b60405180910390f35b34801561072857600080fd5b506107316114ba565b60405161073e919061391d565b60405180910390f35b34801561075357600080fd5b5061075c611548565b60405161076991906139f8565b60405180910390f35b34801561077e57600080fd5b5061078761155f565b6040516107949190613872565b60405180910390f35b3480156107a957600080fd5b506107b261156e565b6040516107bf9190613872565b60405180910390f35b3480156107d457600080fd5b506107ef60048036038101906107ea9190613836565b61157d565b6040516107fc9190613872565b60405180910390f35b34801561081157600080fd5b5061082c60048036038101906108279190613a9d565b611608565b6040516108399190613872565b60405180910390f35b34801561084e57600080fd5b50610857611650565b005b34801561086557600080fd5b5061086e6116d8565b60405161087b91906139f8565b60405180910390f35b34801561089057600080fd5b506108ab60048036038101906108a6919061399d565b611784565b005b3480156108b957600080fd5b506108c26117ff565b6040516108cf9190613872565b60405180910390f35b3480156108e457600080fd5b506108ff60048036038101906108fa9190613836565b61180e565b60405161090c9190613872565b60405180910390f35b34801561092157600080fd5b5061092a611858565b6040516109379190613872565b60405180910390f35b34801561094c57600080fd5b5061096760048036038101906109629190613836565b611867565b6040516109749190613b41565b60405180910390f35b34801561098957600080fd5b506109a4600480360381019061099f9190613836565b6118f5565b6040516109b19190613872565b60405180910390f35b3480156109c657600080fd5b506109e160048036038101906109dc9190613836565b61193f565b6040516109ee9190613872565b60405180910390f35b348015610a0357600080fd5b50610a0c611989565b604051610a199190613b6b565b60405180910390f35b348015610a2e57600080fd5b50610a376119b3565b604051610a449190613872565b60405180910390f35b348015610a5957600080fd5b50610a626119f0565b604051610a6f919061391d565b60405180910390f35b348015610a8457600080fd5b50610a8d611a82565b604051610a9a9190613872565b60405180910390f35b348015610aaf57600080fd5b50610aca6004803603810190610ac5919061399d565b611a91565b604051610ad791906139f8565b60405180910390f35b348015610aec57600080fd5b50610b076004803603810190610b02919061399d565b611b7c565b604051610b1491906139f8565b60405180910390f35b348015610b2957600080fd5b50610b32611b9a565b604051610b3f9190613872565b60405180910390f35b348015610b5457600080fd5b50610b5d611bd7565b604051610b6a91906139f8565b60405180910390f35b348015610b7f57600080fd5b50610b9a6004803603810190610b959190613836565b611c83565b604051610ba79190613872565b60405180910390f35b348015610bbc57600080fd5b50610bc5611ccd565b604051610bd29190613872565b60405180910390f35b348015610be757600080fd5b50610bf0611d0a565b604051610bfd91906139f8565b60405180910390f35b348015610c1257600080fd5b50610c2d6004803603810190610c289190613b86565b611e05565b604051610c3a9190613872565b60405180910390f35b348015610c4f57600080fd5b50610c58611e8c565b604051610c659190613872565b60405180910390f35b348015610c7a57600080fd5b50610c83611e9b565b604051610c909190613872565b60405180910390f35b348015610ca557600080fd5b50610cc06004803603810190610cbb9190613836565b611ed8565b604051610ccd9190613872565b60405180910390f35b348015610ce257600080fd5b50610cfd6004803603810190610cf8919061399d565b611f22565b604051610d0a91906139f8565b60405180910390f35b348015610d1f57600080fd5b50610d3a6004803603810190610d359190613a9d565b611fcc565b005b348015610d4857600080fd5b50610d516120c3565b604051610d5e9190613872565b60405180910390f35b600060075434610d779190613c24565b9050610d833382612100565b50565b60008060075482610d979190613c24565b9050600754811015610dd5576040517f99956c4600000000000000000000000000000000000000000000000000000000815260040160405180910390fd5b600081600854600954610de89190613c55565b610df29190613c55565b1015610e2a576040517f1e6f0b5400000000000000000000000000000000000000000000000000000000815260040160405180910390fd5b610e343382612100565b5050565b6000806509184e72a00083610e4d9190613c89565b90506000610e5961225f565b9050610e78670de0b6b3a764000083610e729190613c89565b826122fc565b92505050919050565b600080610e8c61232d565b90506000610e9861225f565b9050610eb7670de0b6b3a764000083610eb19190613c89565b826122fc565b9250505090565b606060038054610ecd90613cfa565b80601f0160208091040260200160405190810160405280929190818152602001828054610ef990613cfa565b8015610f465780601f10610f1b57610100808354040283529160200191610f46565b820191906000526020600020905b815481529060010190602001808311610f2957829003601f168201915b5050505050905090565b6000610f64610f5d6123ca565b84846123d2565b6001905092915050565b6000806509184e72a00083610f839190613c89565b90506000610f8f61232d565b9050610fae670de0b6b3a764000083610fa89190613c89565b826122fc565b92505050919050565b6000600254905090565b60085481565b6000610fd484848461259b565b6000600160008673ffffffffffffffffffffffffffffffffffffffff1673ffffffffffffffffffffffffffffffffffffffff168152602001908152602001600020600061101f6123ca565b73ffffffffffffffffffffffffffffffffffffffff1673ffffffffffffffffffffffffffffffffffffffff1681526020019081526020016000205490508281101561109f576040517f08c379a000000000000000000000000000000000000000000000000000000000815260040161109690613d9d565b60405180910390fd5b6110b3856110ab6123ca565b8584036123d2565b60019150509392505050565b6000806110ca61225f565b905060006110d661281a565b90506110f5670de0b6b3a7640000836110ef9190613c89565b826122fc565b9250505090565b60008061110761232d565b905060006111136128b7565b9050611132670de0b6b3a76400008361112c9190613c89565b826122fc565b9250505090565b60075481565b60006012905090565b60095481565b60006111586123ca565b73ffffffffffffffffffffffffffffffffffffffff16611176611989565b73ffffffffffffffffffffffffffffffffffffffff16146111cc576040517f08c379a00000000000000000000000000000000000000000000000000000000081526004016111c390613e09565b60405180910390fd5b6111d582612954565b9050919050565b6000600754826111ec9190613c89565b3411611224576040517f99956c4600000000000000000000000000000000000000000000000000000000815260040160405180910390fd5b6000670de0b6b3a76400008361123a9190613c89565b60085460095461124a9190613c55565b6112549190613c55565b101561128c576040517f1e6f0b5400000000000000000000000000000000000000000000000000000000815260040160405180910390fd5b6112a933670de0b6b3a7640000846112a49190613c89565b612100565b600754826112b79190613c89565b9050919050565b60006113606112cb6123ca565b8484600160006112d96123ca565b73ffffffffffffffffffffffffffffffffffffffff1673ffffffffffffffffffffffffffffffffffffffff16815260200190815260200160002060008873ffffffffffffffffffffffffffffffffffffffff1673ffffffffffffffffffffffffffffffffffffffff1681526020019081526020016000205461135b9190613e29565b6123d2565b6001905092915050565b60001515600b60009054906101000a900460ff161515036113b7576040517ffebe7e1900000000000000000000000000000000000000000000000000000000815260040160405180910390fd5b6113c13382613182565b50565b60006113ce61225f565b905090565b6000806113de61232d565b905060006113ea61281a565b9050611409670de0b6b3a7640000836114039190613c89565b826122fc565b9250505090565b6000600660009054906101000a900473ffffffffffffffffffffffffffffffffffffffff1673ffffffffffffffffffffffffffffffffffffffff16634a2ad99f84846040518363ffffffff1660e01b815260040161146f929190613e5d565b6020604051808303816000875af115801561148e573d6000803e3d6000fd5b505050506040513d601f19601f820116820180604052508101906114b29190613eb2565b905092915050565b600c80546114c790613cfa565b80601f01602080910402602001604051908101604052809291908181526020018280546114f390613cfa565b80156115405780601f1061151557610100808354040283529160200191611540565b820191906000526020600020905b81548152906001019060200180831161152357829003601f168201915b505050505081565b6000600560009054906101000a900460ff16905090565b600061156961232d565b905090565b6000611578613358565b905090565b60006115876123ca565b73ffffffffffffffffffffffffffffffffffffffff166115a5611989565b73ffffffffffffffffffffffffffffffffffffffff16146115fb576040517f08c379a00000000000000000000000000000000000000000000000000000000081526004016115f290613e09565b60405180910390fd5b8160098190559050919050565b60008060008373ffffffffffffffffffffffffffffffffffffffff1673ffffffffffffffffffffffffffffffffffffffff168152602001908152602001600020549050919050565b6116586123ca565b73ffffffffffffffffffffffffffffffffffffffff16611676611989565b73ffffffffffffffffffffffffffffffffffffffff16146116cc576040517f08c379a00000000000000000000000000000000000000000000000000000000081526004016116c390613e09565b60405180910390fd5b6116d66000613395565b565b60006116e26123ca565b73ffffffffffffffffffffffffffffffffffffffff16611700611989565b73ffffffffffffffffffffffffffffffffffffffff1614611756576040517f08c379a000000000000000000000000000000000000000000000000000000000815260040161174d90613e09565b60405180910390fd5b600b60009054906101000a900460ff1615600b60006101000a81548160ff0219169083151502179055905090565b6000611797836117926123ca565b611e05565b9050818110156117dc576040517f08c379a00000000000000000000000000000000000000000000000000000000081526004016117d390613f51565b60405180910390fd5b6117f0836117e86123ca565b8484036123d2565b6117fa8383613182565b505050565b600061180961345b565b905090565b600080662386f26fc10000836118249190613c89565b9050600061183061345b565b905061184f670de0b6b3a7640000836118499190613c89565b826122fc565b92505050919050565b6000611862613498565b905090565b60006118716123ca565b73ffffffffffffffffffffffffffffffffffffffff1661188f611989565b73ffffffffffffffffffffffffffffffffffffffff16146118e5576040517f08c379a00000000000000000000000000000000000000000000000000000000081526004016118dc90613e09565b60405180910390fd5b6118ee826134d5565b9050919050565b600080662386f26fc100008361190b9190613c89565b90506000611917613358565b9050611936670de0b6b3a7640000836119309190613c89565b826122fc565b92505050919050565b600080662386f26fc10000836119559190613c89565b90506000611961613498565b9050611980670de0b6b3a76400008361197a9190613c89565b826122fc565b92505050919050565b6000600560019054906101000a900473ffffffffffffffffffffffffffffffffffffffff16905090565b6000806119be6128b7565b905060006119ca61281a565b90506119e9670de0b6b3a7640000826119e39190613c89565b836122fc565b9250505090565b6060600480546119ff90613cfa565b80601f0160208091040260200160405190810160405280929190818152602001828054611a2b90613cfa565b8015611a785780601f10611a4d57610100808354040283529160200191611a78565b820191906000526020600020905b815481529060010190602001808311611a5b57829003601f168201915b5050505050905090565b6000611a8c61281a565b905090565b60008060016000611aa06123ca565b73ffffffffffffffffffffffffffffffffffffffff1673ffffffffffffffffffffffffffffffffffffffff16815260200190815260200160002060008573ffffffffffffffffffffffffffffffffffffffff1673ffffffffffffffffffffffffffffffffffffffff16815260200190815260200160002054905082811015611b5d576040517f08c379a0000000000000000000000000000000000000000000000000000000008152600401611b5490613fe3565b60405180910390fd5b611b71611b686123ca565b858584036123d2565b600191505092915050565b6000611b90611b896123ca565b848461259b565b6001905092915050565b600080611ba561232d565b90506000611bb161281a565b9050611bd0670de0b6b3a764000082611bca9190613c89565b836122fc565b9250505090565b6000611be16123ca565b73ffffffffffffffffffffffffffffffffffffffff16611bff611989565b73ffffffffffffffffffffffffffffffffffffffff1614611c55576040517f08c379a0000000000000000000000000000000000000000000000000000000008152600401611c4c90613e09565b60405180910390fd5b600b60019054906101000a900460ff1615600b60016101000a81548160ff0219169083151502179055905090565b600080662386f26fc1000083611c999190613c89565b90506000611ca56128b7565b9050611cc4670de0b6b3a764000083611cbe9190613c89565b826122fc565b92505050919050565b600080611cd86128b7565b90506000611ce461225f565b9050611d03670de0b6b3a764000082611cfd9190613c89565b836122fc565b9250505090565b6000611d146123ca565b73ffffffffffffffffffffffffffffffffffffffff16611d32611989565b73ffffffffffffffffffffffffffffffffffffffff1614611d88576040517f08c379a0000000000000000000000000000000000000000000000000000000008152600401611d7f90613e09565b60405180910390fd5b60001515600b60019054906101000a900460ff16151503611dd5576040517fda61c0d800000000000000000000000000000000000000000000000000000000815260040160405180910390fd5b611ddd611548565b15611def57611dea6135fc565b611df8565b611df761369e565b5b611e00611548565b905090565b6000600160008473ffffffffffffffffffffffffffffffffffffffff1673ffffffffffffffffffffffffffffffffffffffff16815260200190815260200160002060008373ffffffffffffffffffffffffffffffffffffffff1673ffffffffffffffffffffffffffffffffffffffff16815260200190815260200160002054905092915050565b6000611e966128b7565b905090565b600080611ea661225f565b90506000611eb261281a565b9050611ed1670de0b6b3a764000082611ecb9190613c89565b836122fc565b9250505090565b600080662386f26fc1000083611eee9190613c89565b90506000611efa61281a565b9050611f19670de0b6b3a764000083611f139190613c89565b826122fc565b92505050919050565b6000600660009054906101000a900473ffffffffffffffffffffffffffffffffffffffff1673ffffffffffffffffffffffffffffffffffffffff1663e9f38fc584846040518363ffffffff1660e01b8152600401611f81929190613e5d565b6020604051808303816000875af1158015611fa0573d6000803e3d6000fd5b505050506040513d601f19601f82011682018060405250810190611fc49190613eb2565b905092915050565b611fd46123ca565b73ffffffffffffffffffffffffffffffffffffffff16611ff2611989565b73ffffffffffffffffffffffffffffffffffffffff1614612048576040517f08c379a000000000000000000000000000000000000000000000000000000000815260040161203f90613e09565b60405180910390fd5b600073ffffffffffffffffffffffffffffffffffffffff168173ffffffffffffffffffffffffffffffffffffffff16036120b7576040517f08c379a00000000000000000000000000000000000000000000000000000000081526004016120ae90614075565b60405180910390fd5b6120c081613395565b50565b6000806120ce61232d565b905060006120da61225f565b90506120f9670de0b6b3a7640000826120f39190613c89565b836122fc565b9250505090565b600073ffffffffffffffffffffffffffffffffffffffff168273ffffffffffffffffffffffffffffffffffffffff160361216f576040517f08c379a0000000000000000000000000000000000000000000000000000000008152600401612166906140e1565b60405180910390fd5b61217b60008383613741565b806002600082825461218d9190613e29565b92505081905550806000808473ffffffffffffffffffffffffffffffffffffffff1673ffffffffffffffffffffffffffffffffffffffff16815260200190815260200160002060008282546121e29190613e29565b925050819055508173ffffffffffffffffffffffffffffffffffffffff16600073ffffffffffffffffffffffffffffffffffffffff167fddf252ad1be2c89b69c2b068fc378daa952ba7f163c4a11628f55a4df523b3ef836040516122479190613872565b60405180910390a361225b60008383613799565b5050565b600080600660009054906101000a900473ffffffffffffffffffffffffffffffffffffffff1673ffffffffffffffffffffffffffffffffffffffff166396722fe56040518163ffffffff1660e01b8152600401602060405180830381865afa1580156122cf573d6000803e3d6000fd5b505050506040513d601f19601f820116820180604052508101906122f39190614137565b90508091505090565b600080828461230b9190614164565b905082818561231a9190613c55565b6123249190613c24565b91505092915050565b600080600660009054906101000a900473ffffffffffffffffffffffffffffffffffffffff1673ffffffffffffffffffffffffffffffffffffffff16639a18c7956040518163ffffffff1660e01b8152600401602060405180830381865afa15801561239d573d6000803e3d6000fd5b505050506040513d601f19601f820116820180604052508101906123c19190614137565b90508091505090565b600033905090565b600073ffffffffffffffffffffffffffffffffffffffff168373ffffffffffffffffffffffffffffffffffffffff1603612441576040517f08c379a000000000000000000000000000000000000000000000000000000000815260040161243890614207565b60405180910390fd5b600073ffffffffffffffffffffffffffffffffffffffff168273ffffffffffffffffffffffffffffffffffffffff16036124b0576040517f08c379a00000000000000000000000000000000000000000000000000000000081526004016124a790614299565b60405180910390fd5b80600160008573ffffffffffffffffffffffffffffffffffffffff1673ffffffffffffffffffffffffffffffffffffffff16815260200190815260200160002060008473ffffffffffffffffffffffffffffffffffffffff1673ffffffffffffffffffffffffffffffffffffffff168152602001908152602001600020819055508173ffffffffffffffffffffffffffffffffffffffff168373ffffffffffffffffffffffffffffffffffffffff167f8c5be1e5ebec7d5bd14f71427d1e84f3dd0314c0f7b2291e5b200ac8c7c3b9258360405161258e9190613872565b60405180910390a3505050565b600073ffffffffffffffffffffffffffffffffffffffff168373ffffffffffffffffffffffffffffffffffffffff160361260a576040517f08c379a00000000000000000000000000000000000000000000000000000000081526004016126019061432b565b60405180910390fd5b600073ffffffffffffffffffffffffffffffffffffffff168273ffffffffffffffffffffffffffffffffffffffff1603612679576040517f08c379a0000000000000000000000000000000000000000000000000000000008152600401612670906143bd565b60405180910390fd5b612684838383613741565b60008060008573ffffffffffffffffffffffffffffffffffffffff1673ffffffffffffffffffffffffffffffffffffffff1681526020019081526020016000205490508181101561270a576040517f08c379a00000000000000000000000000000000000000000000000000000000081526004016127019061444f565b60405180910390fd5b8181036000808673ffffffffffffffffffffffffffffffffffffffff1673ffffffffffffffffffffffffffffffffffffffff16815260200190815260200160002081905550816000808573ffffffffffffffffffffffffffffffffffffffff1673ffffffffffffffffffffffffffffffffffffffff168152602001908152602001600020600082825461279d9190613e29565b925050819055508273ffffffffffffffffffffffffffffffffffffffff168473ffffffffffffffffffffffffffffffffffffffff167fddf252ad1be2c89b69c2b068fc378daa952ba7f163c4a11628f55a4df523b3ef846040516128019190613872565b60405180910390a3612814848484613799565b50505050565b600080600660009054906101000a900473ffffffffffffffffffffffffffffffffffffffff1673ffffffffffffffffffffffffffffffffffffffff1663414641df6040518163ffffffff1660e01b8152600401602060405180830381865afa15801561288a573d6000803e3d6000fd5b505050506040513d601f19601f820116820180604052508101906128ae9190614137565b90508091505090565b600080600660009054906101000a900473ffffffffffffffffffffffffffffffffffffffff1673ffffffffffffffffffffffffffffffffffffffff1663f2e9bd7a6040518163ffffffff1660e01b8152600401602060405180830381865afa158015612927573d6000803e3d6000fd5b505050506040513d601f19601f8201168201806040525081019061294b9190614137565b90508091505090565b6000806000600481111561296b5761296a613aca565b5b600d60009054906101000a900460ff16600481111561298d5761298c613aca565b5b03612b1b5760008173ffffffffffffffffffffffffffffffffffffffff16638d4a8ffe856040518263ffffffff1660e01b81526004016129cd9190613872565b602060405180830381865afa1580156129ea573d6000803e3d6000fd5b505050506040513d601f19601f82011682018060405250810190612a0e9190614484565b90506000811015612a4b576040517fc1a21f4e00000000000000000000000000000000000000000000000000000000815260040160405180910390fd5b6040518060600160405280600a548152602001828152602001600d60009054906101000a900460ff166004811115612a8657612a85613aca565b5b815250600e600a5481548110612a9f57612a9e6144b1565b5b9060005260206000209060030201600082015181600001556020820151816001015560408201518160020160006101000a81548160ff02191690836004811115612aec57612aeb613aca565b5b0217905550905050600a6000815480929190612b07906144e0565b91905055508060078190559250505061317d565b60016004811115612b2f57612b2e613aca565b5b600d60009054906101000a900460ff166004811115612b5157612b50613aca565b5b03612c665760008390506000811015612b96576040517fc1a21f4e00000000000000000000000000000000000000000000000000000000815260040160405180910390fd5b6040518060600160405280600a548152602001828152602001600d60009054906101000a900460ff166004811115612bd157612bd0613aca565b5b815250600e600a5481548110612bea57612be96144b1565b5b9060005260206000209060030201600082015181600001556020820151816001015560408201518160020160006101000a81548160ff02191690836004811115612c3757612c36613aca565b5b0217905550905050600a6000815480929190612c52906144e0565b91905055508060078190559250505061317d565b60026004811115612c7a57612c79613aca565b5b600d60009054906101000a900460ff166004811115612c9c57612c9b613aca565b5b03612e2a5760008173ffffffffffffffffffffffffffffffffffffffff16637afcc7a4856040518263ffffffff1660e01b8152600401612cdc9190613872565b602060405180830381865afa158015612cf9573d6000803e3d6000fd5b505050506040513d601f19601f82011682018060405250810190612d1d9190614484565b90506000811015612d5a576040517fc1a21f4e00000000000000000000000000000000000000000000000000000000815260040160405180910390fd5b6040518060600160405280600a548152602001828152602001600d60009054906101000a900460ff166004811115612d9557612d94613aca565b5b815250600e600a5481548110612dae57612dad6144b1565b5b9060005260206000209060030201600082015181600001556020820151816001015560408201518160020160006101000a81548160ff02191690836004811115612dfb57612dfa613aca565b5b0217905550905050600a6000815480929190612e16906144e0565b91905055508060078190559250505061317d565b60036004811115612e3e57612e3d613aca565b5b600d60009054906101000a900460ff166004811115612e6057612e5f613aca565b5b03612fee5760008173ffffffffffffffffffffffffffffffffffffffff166387434dcd856040518263ffffffff1660e01b8152600401612ea09190613872565b602060405180830381865afa158015612ebd573d6000803e3d6000fd5b505050506040513d601f19601f82011682018060405250810190612ee19190614484565b90506000811015612f1e576040517fc1a21f4e00000000000000000000000000000000000000000000000000000000815260040160405180910390fd5b6040518060600160405280600a548152602001828152602001600d60009054906101000a900460ff166004811115612f5957612f58613aca565b5b815250600e600a5481548110612f7257612f716144b1565b5b9060005260206000209060030201600082015181600001556020820151816001015560408201518160020160006101000a81548160ff02191690836004811115612fbf57612fbe613aca565b5b0217905550905050600a6000815480929190612fda906144e0565b91905055508060078190559250505061317d565b60048081111561300157613000613aca565b5b600d60009054906101000a900460ff16600481111561302357613022613aca565b5b036131765760008173ffffffffffffffffffffffffffffffffffffffff1663d1381f4e856040518263ffffffff1660e01b81526004016130639190613872565b602060405180830381865afa158015613080573d6000803e3d6000fd5b505050506040513d601f19601f820116820180604052508101906130a49190614484565b90506040518060600160405280600a548152602001828152602001600d60009054906101000a900460ff1660048111156130e1576130e0613aca565b5b815250600e600a54815481106130fa576130f96144b1565b5b9060005260206000209060030201600082015181600001556020820151816001015560408201518160020160006101000a81548160ff0219169083600481111561314757613146613aca565b5b0217905550905050600a6000815480929190613162906144e0565b91905055508060078190559250505061317d565b6007549150505b919050565b600073ffffffffffffffffffffffffffffffffffffffff168273ffffffffffffffffffffffffffffffffffffffff16036131f1576040517f08c379a00000000000000000000000000000000000000000000000000000000081526004016131e89061459a565b60405180910390fd5b6131fd82600083613741565b60008060008473ffffffffffffffffffffffffffffffffffffffff1673ffffffffffffffffffffffffffffffffffffffff16815260200190815260200160002054905081811015613283576040517f08c379a000000000000000000000000000000000000000000000000000000000815260040161327a9061462c565b60405180910390fd5b8181036000808573ffffffffffffffffffffffffffffffffffffffff1673ffffffffffffffffffffffffffffffffffffffff1681526020019081526020016000208190555081600260008282546132da9190613c55565b92505081905550600073ffffffffffffffffffffffffffffffffffffffff168373ffffffffffffffffffffffffffffffffffffffff167fddf252ad1be2c89b69c2b068fc378daa952ba7f163c4a11628f55a4df523b3ef8460405161333f9190613872565b60405180910390a361335383600084613799565b505050565b6000806133636128b7565b9050600061336f61225f565b905061338e670de0b6b3a7640000836133889190613c89565b826122fc565b9250505090565b6000600560019054906101000a900473ffffffffffffffffffffffffffffffffffffffff16905081600560016101000a81548173ffffffffffffffffffffffffffffffffffffffff021916908373ffffffffffffffffffffffffffffffffffffffff1602179055508173ffffffffffffffffffffffffffffffffffffffff168173ffffffffffffffffffffffffffffffffffffffff167f8be0079c531659141344cd1fd0a4f28419497f9722a3daafe3b4186f6b6457e060405160405180910390a35050565b6000806134666128b7565b9050600061347261281a565b9050613491670de0b6b3a76400008361348b9190613c89565b826122fc565b9250505090565b6000806134a36128b7565b905060006134af61232d565b90506134ce670de0b6b3a7640000836134c89190613c89565b826122fc565b9250505090565b600080820361350e576000600d60006101000a81548160ff0219169083600481111561350457613503613aca565b5b02179055506135e5565b60018203613546576001600d60006101000a81548160ff0219169083600481111561353c5761353b613aca565b5b02179055506135e4565b6002820361357e576002600d60006101000a81548160ff0219169083600481111561357457613573613aca565b5b02179055506135e3565b600382036135b6576003600d60006101000a81548160ff021916908360048111156135ac576135ab613aca565b5b02179055506135e2565b6004600d60006101000a81548160ff021916908360048111156135dc576135db613aca565b5b02179055505b5b5b5b600d60009054906101000a900460ff169050919050565b613604611548565b613643576040517f08c379a000000000000000000000000000000000000000000000000000000000815260040161363a90614698565b60405180910390fd5b6000600560006101000a81548160ff0219169083151502179055507f5db9ee0a495bf2e6ff9c91a7834c1ba4fdd244a5e8aa4e537bd38aeae4b073aa6136876123ca565b6040516136949190613b6b565b60405180910390a1565b6136a6611548565b156136e6576040517f08c379a00000000000000000000000000000000000000000000000000000000081526004016136dd90614704565b60405180910390fd5b6001600560006101000a81548160ff0219169083151502179055507f62e78cea01bee320cd4e420270b5ea74000d11b0c9f74754ebdbfc544b05a25861372a6123ca565b6040516137379190613b6b565b60405180910390a1565b613749611548565b15613789576040517f08c379a000000000000000000000000000000000000000000000000000000000815260040161378090614704565b60405180910390fd5b61379483838361379e565b505050565b505050565b6137a98383836137f6565b6137b1611548565b156137f1576040517f08c379a00000000000000000000000000000000000000000000000000000000081526004016137e890614796565b60405180910390fd5b505050565b505050565b600080fd5b6000819050919050565b61381381613800565b811461381e57600080fd5b50565b6000813590506138308161380a565b92915050565b60006020828403121561384c5761384b6137fb565b5b600061385a84828501613821565b91505092915050565b61386c81613800565b82525050565b60006020820190506138876000830184613863565b92915050565b600081519050919050565b600082825260208201905092915050565b60005b838110156138c75780820151818401526020810190506138ac565b60008484015250505050565b6000601f19601f8301169050919050565b60006138ef8261388d565b6138f98185613898565b93506139098185602086016138a9565b613912816138d3565b840191505092915050565b6000602082019050818103600083015261393781846138e4565b905092915050565b600073ffffffffffffffffffffffffffffffffffffffff82169050919050565b600061396a8261393f565b9050919050565b61397a8161395f565b811461398557600080fd5b50565b60008135905061399781613971565b92915050565b600080604083850312156139b4576139b36137fb565b5b60006139c285828601613988565b92505060206139d385828601613821565b9150509250929050565b60008115159050919050565b6139f2816139dd565b82525050565b6000602082019050613a0d60008301846139e9565b92915050565b600080600060608486031215613a2c57613a2b6137fb565b5b6000613a3a86828701613988565b9350506020613a4b86828701613988565b9250506040613a5c86828701613821565b9150509250925092565b600060ff82169050919050565b613a7c81613a66565b82525050565b6000602082019050613a976000830184613a73565b92915050565b600060208284031215613ab357613ab26137fb565b5b6000613ac184828501613988565b91505092915050565b7f4e487b7100000000000000000000000000000000000000000000000000000000600052602160045260246000fd5b60058110613b0a57613b09613aca565b5b50565b6000819050613b1b82613af9565b919050565b6000613b2b82613b0d565b9050919050565b613b3b81613b20565b82525050565b6000602082019050613b566000830184613b32565b92915050565b613b658161395f565b82525050565b6000602082019050613b806000830184613b5c565b92915050565b60008060408385031215613b9d57613b9c6137fb565b5b6000613bab85828601613988565b9250506020613bbc85828601613988565b9150509250929050565b7f4e487b7100000000000000000000000000000000000000000000000000000000600052601260045260246000fd5b7f4e487b7100000000000000000000000000000000000000000000000000000000600052601160045260246000fd5b6000613c2f82613800565b9150613c3a83613800565b925082613c4a57613c49613bc6565b5b828204905092915050565b6000613c6082613800565b9150613c6b83613800565b9250828203905081811115613c8357613c82613bf5565b5b92915050565b6000613c9482613800565b9150613c9f83613800565b9250828202613cad81613800565b91508282048414831517613cc457613cc3613bf5565b5b5092915050565b7f4e487b7100000000000000000000000000000000000000000000000000000000600052602260045260246000fd5b60006002820490506001821680613d1257607f821691505b602082108103613d2557613d24613ccb565b5b50919050565b7f45524332303a207472616e7366657220616d6f756e742065786365656473206160008201527f6c6c6f77616e6365000000000000000000000000000000000000000000000000602082015250565b6000613d87602883613898565b9150613d9282613d2b565b604082019050919050565b60006020820190508181036000830152613db681613d7a565b9050919050565b7f4f776e61626c653a2063616c6c6572206973206e6f7420746865206f776e6572600082015250565b6000613df3602083613898565b9150613dfe82613dbd565b602082019050919050565b60006020820190508181036000830152613e2281613de6565b9050919050565b6000613e3482613800565b9150613e3f83613800565b9250828201905080821115613e5757613e56613bf5565b5b92915050565b6000604082019050613e726000830185613b5c565b613e7f6020830184613863565b9392505050565b613e8f816139dd565b8114613e9a57600080fd5b50565b600081519050613eac81613e86565b92915050565b600060208284031215613ec857613ec76137fb565b5b6000613ed684828501613e9d565b91505092915050565b7f45524332303a206275726e20616d6f756e74206578636565647320616c6c6f7760008201527f616e636500000000000000000000000000000000000000000000000000000000602082015250565b6000613f3b602483613898565b9150613f4682613edf565b604082019050919050565b60006020820190508181036000830152613f6a81613f2e565b9050919050565b7f45524332303a2064656372656173656420616c6c6f77616e63652062656c6f7760008201527f207a65726f000000000000000000000000000000000000000000000000000000602082015250565b6000613fcd602583613898565b9150613fd882613f71565b604082019050919050565b60006020820190508181036000830152613ffc81613fc0565b9050919050565b7f4f776e61626c653a206e6577206f776e657220697320746865207a65726f206160008201527f6464726573730000000000000000000000000000000000000000000000000000602082015250565b600061405f602683613898565b915061406a82614003565b604082019050919050565b6000602082019050818103600083015261408e81614052565b9050919050565b7f45524332303a206d696e7420746f20746865207a65726f206164647265737300600082015250565b60006140cb601f83613898565b91506140d682614095565b602082019050919050565b600060208201905081810360008301526140fa816140be565b9050919050565b6000819050919050565b61411481614101565b811461411f57600080fd5b50565b6000815190506141318161410b565b92915050565b60006020828403121561414d5761414c6137fb565b5b600061415b84828501614122565b91505092915050565b600061416f82613800565b915061417a83613800565b92508261418a57614189613bc6565b5b828206905092915050565b7f45524332303a20617070726f76652066726f6d20746865207a65726f2061646460008201527f7265737300000000000000000000000000000000000000000000000000000000602082015250565b60006141f1602483613898565b91506141fc82614195565b604082019050919050565b60006020820190508181036000830152614220816141e4565b9050919050565b7f45524332303a20617070726f766520746f20746865207a65726f20616464726560008201527f7373000000000000000000000000000000000000000000000000000000000000602082015250565b6000614283602283613898565b915061428e82614227565b604082019050919050565b600060208201905081810360008301526142b281614276565b9050919050565b7f45524332303a207472616e736665722066726f6d20746865207a65726f20616460008201527f6472657373000000000000000000000000000000000000000000000000000000602082015250565b6000614315602583613898565b9150614320826142b9565b604082019050919050565b6000602082019050818103600083015261434481614308565b9050919050565b7f45524332303a207472616e7366657220746f20746865207a65726f206164647260008201527f6573730000000000000000000000000000000000000000000000000000000000602082015250565b60006143a7602383613898565b91506143b28261434b565b604082019050919050565b600060208201905081810360008301526143d68161439a565b9050919050565b7f45524332303a207472616e7366657220616d6f756e742065786365656473206260008201527f616c616e63650000000000000000000000000000000000000000000000000000602082015250565b6000614439602683613898565b9150614444826143dd565b604082019050919050565b600060208201905081810360008301526144688161442c565b9050919050565b60008151905061447e8161380a565b92915050565b60006020828403121561449a576144996137fb565b5b60006144a88482850161446f565b91505092915050565b7f4e487b7100000000000000000000000000000000000000000000000000000000600052603260045260246000fd5b60006144eb82613800565b91507fffffffffffffffffffffffffffffffffffffffffffffffffffffffffffffffff820361451d5761451c613bf5565b5b600182019050919050565b7f45524332303a206275726e2066726f6d20746865207a65726f2061646472657360008201527f7300000000000000000000000000000000000000000000000000000000000000602082015250565b6000614584602183613898565b915061458f82614528565b604082019050919050565b600060208201905081810360008301526145b381614577565b9050919050565b7f45524332303a206275726e20616d6f756e7420657863656564732062616c616e60008201527f6365000000000000000000000000000000000000000000000000000000000000602082015250565b6000614616602283613898565b9150614621826145ba565b604082019050919050565b6000602082019050818103600083015261464581614609565b9050919050565b7f5061757361626c653a206e6f7420706175736564000000000000000000000000600082015250565b6000614682601483613898565b915061468d8261464c565b602082019050919050565b600060208201905081810360008301526146b181614675565b9050919050565b7f5061757361626c653a2070617573656400000000000000000000000000000000600082015250565b60006146ee601083613898565b91506146f9826146b8565b602082019050919050565b6000602082019050818103600083015261471d816146e1565b9050919050565b7f45524332305061757361626c653a20746f6b656e207472616e7366657220776860008201527f696c652070617573656400000000000000000000000000000000000000000000602082015250565b6000614780602a83613898565b915061478b82614724565b604082019050919050565b600060208201905081810360008301526147af81614773565b905091905056fea2646970667358221220e5e683cb4f445f43fda38d82d1554d882f75b438abe93dc769d55a791e15819464736f6c6343000811003360806040523480156200001157600080fd5b5060405162001ccc38038062001ccc8339818101604052810190620000379190620001d8565b336000806101000a81548173ffffffffffffffffffffffffffffffffffffffff021916908373ffffffffffffffffffffffffffffffffffffffff1602179055506040518060400160405280601a81526020017f4245204652455348204d5920465255495459204652454e5a202100000000000081525060039081620000bd91906200048f565b50600060018190555081600281905550620000de81620000e760201b60201c565b50505062000576565b600081600560006101000a81548173ffffffffffffffffffffffffffffffffffffffff021916908373ffffffffffffffffffffffffffffffffffffffff16021790555060019050919050565b600080fd5b6000819050919050565b6200014d8162000138565b81146200015957600080fd5b50565b6000815190506200016d8162000142565b92915050565b600073ffffffffffffffffffffffffffffffffffffffff82169050919050565b6000620001a08262000173565b9050919050565b620001b28162000193565b8114620001be57600080fd5b50565b600081519050620001d281620001a7565b92915050565b60008060408385031215620001f257620001f162000133565b5b600062000202858286016200015c565b92505060206200021585828601620001c1565b9150509250929050565b600081519050919050565b7f4e487b7100000000000000000000000000000000000000000000000000000000600052604160045260246000fd5b7f4e487b7100000000000000000000000000000000000000000000000000000000600052602260045260246000fd5b60006002820490506001821680620002a157607f821691505b602082108103620002b757620002b662000259565b5b50919050565b60008190508160005260206000209050919050565b60006020601f8301049050919050565b600082821b905092915050565b600060088302620003217fffffffffffffffffffffffffffffffffffffffffffffffffffffffffffffffff82620002e2565b6200032d8683620002e2565b95508019841693508086168417925050509392505050565b6000819050919050565b6000620003706200036a620003648462000138565b62000345565b62000138565b9050919050565b6000819050919050565b6200038c836200034f565b620003a46200039b8262000377565b848454620002ef565b825550505050565b600090565b620003bb620003ac565b620003c881848462000381565b505050565b5b81811015620003f057620003e4600082620003b1565b600181019050620003ce565b5050565b601f8211156200043f576200040981620002bd565b6200041484620002d2565b8101602085101562000424578190505b6200043c6200043385620002d2565b830182620003cd565b50505b505050565b600082821c905092915050565b6000620004646000198460080262000444565b1980831691505092915050565b60006200047f838362000451565b9150826002028217905092915050565b6200049a826200021f565b67ffffffffffffffff811115620004b657620004b56200022a565b5b620004c2825462000288565b620004cf828285620003f4565b600060209050601f831160018114620005075760008415620004f2578287015190505b620004fe858262000471565b8655506200056e565b601f1984166200051786620002bd565b60005b8281101562000541578489015182556001820191506020850194506020810190506200051a565b868310156200056157848901516200055d601f89168262000451565b8355505b6001600288020188555050505b505050505050565b61174680620005866000396000f3fe6080604052600436106100f35760003560e01c806377b3cc9a1161008a578063e21f37ce11610059578063e21f37ce14610349578063ece866b914610374578063f794062e1461039f578063f851a440146103dc576100f3565b806377b3cc9a14610286578063c4784fd4146102b1578063c85e07b9146102e1578063cc87ec5f1461030c576100f3565b8063329dd364116100c6578063329dd364146101c8578063365b98b2146101f35780633ccfd60b146102305780636ac5db191461025b576100f3565b806301c0fb4c146100f8578063161dbc14146101355780632a0c74d4146101725780632f7136551461019d575b600080fd5b34801561010457600080fd5b5061011f600480360381019061011a9190610e7d565b610407565b60405161012c9190610ec5565b60405180910390f35b34801561014157600080fd5b5061015c60048036038101906101579190611026565b610419565b6040516101699190610ec5565b60405180910390f35b34801561017e57600080fd5b506101876104c0565b60405161019491906110ee565b60405180910390f35b3480156101a957600080fd5b506101b2610552565b6040516101bf919061116f565b60405180910390f35b3480156101d457600080fd5b506101dd610578565b6040516101ea9190611236565b60405180910390f35b3480156101ff57600080fd5b5061021a60048036038101906102159190611288565b6105fb565b60405161022791906112c4565b60405180910390f35b34801561023c57600080fd5b50610245610632565b60405161025291906112ee565b60405180910390f35b34801561026757600080fd5b50610270610726565b60405161027d91906112ee565b60405180910390f35b34801561029257600080fd5b5061029b61072c565b6040516102a89190610ec5565b60405180910390f35b6102cb60048036038101906102c69190611026565b610925565b6040516102d89190610ec5565b60405180910390f35b3480156102ed57600080fd5b506102f66109d0565b60405161030391906112ee565b60405180910390f35b34801561031857600080fd5b50610333600480360381019061032e9190610e7d565b6109d6565b6040516103409190610ec5565b60405180910390f35b34801561035557600080fd5b5061035e610c19565b60405161036b91906110ee565b60405180910390f35b34801561038057600080fd5b50610389610ca7565b60405161039691906112ee565b60405180910390f35b3480156103ab57600080fd5b506103c660048036038101906103c19190610e7d565b610cad565b6040516103d39190610ec5565b60405180910390f35b3480156103e857600080fd5b506103f1610ccd565b6040516103fe91906112c4565b60405180910390f35b600061041282610cf1565b9050919050565b60003373ffffffffffffffffffffffffffffffffffffffff1660008054906101000a900473ffffffffffffffffffffffffffffffffffffffff1673ffffffffffffffffffffffffffffffffffffffff16146104a0576040517f82b4290000000000000000000000000000000000000000000000000000000000815260040160405180910390fd5b81600390816104af919061150b565b504260048190555060019050919050565b6060600380546104cf90611338565b80601f01602080910402602001604051908101604052809291908181526020018280546104fb90611338565b80156105485780601f1061051d57610100808354040283529160200191610548565b820191906000526020600020905b81548152906001019060200180831161052b57829003601f168201915b5050505050905090565b600560009054906101000a900473ffffffffffffffffffffffffffffffffffffffff1681565b610580610de7565b60076104d28060200260405190810160405280929190826104d280156105f1576020028201915b8160009054906101000a900473ffffffffffffffffffffffffffffffffffffffff1673ffffffffffffffffffffffffffffffffffffffff16815260200190600101908083116105a7575b5050505050905090565b6007816104d2811061060c57600080fd5b016000915054906101000a900473ffffffffffffffffffffffffffffffffffffffff1681565b60003373ffffffffffffffffffffffffffffffffffffffff1660008054906101000a900473ffffffffffffffffffffffffffffffffffffffff1673ffffffffffffffffffffffffffffffffffffffff16146106b9576040517f82b4290000000000000000000000000000000000000000000000000000000000815260040160405180910390fd5b60008054906101000a900473ffffffffffffffffffffffffffffffffffffffff1673ffffffffffffffffffffffffffffffffffffffff166108fc479081150290604051600060405180830381858888f1935050505015801561071f573d6000803e3d6000fd5b5047905090565b60025481565b60003360011515600660008373ffffffffffffffffffffffffffffffffffffffff1673ffffffffffffffffffffffffffffffffffffffff16815260200190815260200160002060009054906101000a900460ff161515036107b9576040517fe08ca6b000000000000000000000000000000000000000000000000000000000815260040160405180910390fd5b600254600154106107f6576040517fea5db9c500000000000000000000000000000000000000000000000000000000815260040160405180910390fd5b6001600660003373ffffffffffffffffffffffffffffffffffffffff1673ffffffffffffffffffffffffffffffffffffffff16815260200190815260200160002060006101000a81548160ff0219169083151502179055503360076001546104d28110610866576108656115dd565b5b0160006101000a81548173ffffffffffffffffffffffffffffffffffffffff021916908373ffffffffffffffffffffffffffffffffffffffff160217905550600160008154809291906108b89061163b565b9190505550600254600154036108d2576108d0610d3d565b505b600660003373ffffffffffffffffffffffffffffffffffffffff1673ffffffffffffffffffffffffffffffffffffffff16815260200190815260200160002060009054906101000a900460ff1691505090565b6000670de0b6b3a76400003411610968576040517f99956c4600000000000000000000000000000000000000000000000000000000815260040160405180910390fd5b610e106004546109789190611683565b42116109b0576040517f7cd5facc00000000000000000000000000000000000000000000000000000000815260040160405180910390fd5b81600390816109bf919061150b565b504260048190555060019050919050565b60045481565b60008160011515600660008373ffffffffffffffffffffffffffffffffffffffff1673ffffffffffffffffffffffffffffffffffffffff16815260200190815260200160002060009054906101000a900460ff16151503610a63576040517fe08ca6b000000000000000000000000000000000000000000000000000000000815260040160405180910390fd5b3373ffffffffffffffffffffffffffffffffffffffff1660008054906101000a900473ffffffffffffffffffffffffffffffffffffffff1673ffffffffffffffffffffffffffffffffffffffff1614610ae8576040517f82b4290000000000000000000000000000000000000000000000000000000000815260040160405180910390fd5b6001600660008573ffffffffffffffffffffffffffffffffffffffff1673ffffffffffffffffffffffffffffffffffffffff16815260200190815260200160002060006101000a81548160ff0219169083151502179055508260076001546104d28110610b5857610b576115dd565b5b0160006101000a81548173ffffffffffffffffffffffffffffffffffffffff021916908373ffffffffffffffffffffffffffffffffffffffff16021790555060016000815480929190610baa9061163b565b919050555060025460015403610bc457610bc2610d3d565b505b600660008473ffffffffffffffffffffffffffffffffffffffff1673ffffffffffffffffffffffffffffffffffffffff16815260200190815260200160002060009054906101000a900460ff16915050919050565b60038054610c2690611338565b80601f0160208091040260200160405190810160405280929190818152602001828054610c5290611338565b8015610c9f5780601f10610c7457610100808354040283529160200191610c9f565b820191906000526020600020905b815481529060010190602001808311610c8257829003601f168201915b505050505081565b60015481565b60066020528060005260406000206000915054906101000a900460ff1681565b60008054906101000a900473ffffffffffffffffffffffffffffffffffffffff1681565b600081600560006101000a81548173ffffffffffffffffffffffffffffffffffffffff021916908373ffffffffffffffffffffffffffffffffffffffff16021790555060019050919050565b600060025460015414610d4f57600080fd5b600560009054906101000a900473ffffffffffffffffffffffffffffffffffffffff1673ffffffffffffffffffffffffffffffffffffffff1663b524fd6f6040518163ffffffff1660e01b81526004016020604051808303816000875af1158015610dbe573d6000803e3d6000fd5b505050506040513d601f19601f82011682018060405250810190610de291906116e3565b905090565b60405180619a4001604052806104d290602082028036833780820191505090505090565b6000604051905090565b600080fd5b600080fd5b600073ffffffffffffffffffffffffffffffffffffffff82169050919050565b6000610e4a82610e1f565b9050919050565b610e5a81610e3f565b8114610e6557600080fd5b50565b600081359050610e7781610e51565b92915050565b600060208284031215610e9357610e92610e15565b5b6000610ea184828501610e68565b91505092915050565b60008115159050919050565b610ebf81610eaa565b82525050565b6000602082019050610eda6000830184610eb6565b92915050565b600080fd5b600080fd5b6000601f19601f8301169050919050565b7f4e487b7100000000000000000000000000000000000000000000000000000000600052604160045260246000fd5b610f3382610eea565b810181811067ffffffffffffffff82111715610f5257610f51610efb565b5b80604052505050565b6000610f65610e0b565b9050610f718282610f2a565b919050565b600067ffffffffffffffff821115610f9157610f90610efb565b5b610f9a82610eea565b9050602081019050919050565b82818337600083830152505050565b6000610fc9610fc484610f76565b610f5b565b905082815260208101848484011115610fe557610fe4610ee5565b5b610ff0848285610fa7565b509392505050565b600082601f83011261100d5761100c610ee0565b5b813561101d848260208601610fb6565b91505092915050565b60006020828403121561103c5761103b610e15565b5b600082013567ffffffffffffffff81111561105a57611059610e1a565b5b61106684828501610ff8565b91505092915050565b600081519050919050565b600082825260208201905092915050565b60005b838110156110a957808201518184015260208101905061108e565b60008484015250505050565b60006110c08261106f565b6110ca818561107a565b93506110da81856020860161108b565b6110e381610eea565b840191505092915050565b6000602082019050818103600083015261110881846110b5565b905092915050565b6000819050919050565b600061113561113061112b84610e1f565b611110565b610e1f565b9050919050565b60006111478261111a565b9050919050565b60006111598261113c565b9050919050565b6111698161114e565b82525050565b60006020820190506111846000830184611160565b92915050565b60006104d29050919050565b600081905092915050565b6000819050919050565b6111b481610e3f565b82525050565b60006111c683836111ab565b60208301905092915050565b6000602082019050919050565b6111e88161118a565b6111f28184611196565b92506111fd826111a1565b8060005b8381101561122e57815161121587826111ba565b9650611220836111d2565b925050600181019050611201565b505050505050565b6000619a408201905061124c60008301846111df565b92915050565b6000819050919050565b61126581611252565b811461127057600080fd5b50565b6000813590506112828161125c565b92915050565b60006020828403121561129e5761129d610e15565b5b60006112ac84828501611273565b91505092915050565b6112be81610e3f565b82525050565b60006020820190506112d960008301846112b5565b92915050565b6112e881611252565b82525050565b600060208201905061130360008301846112df565b92915050565b7f4e487b7100000000000000000000000000000000000000000000000000000000600052602260045260246000fd5b6000600282049050600182168061135057607f821691505b60208210810361136357611362611309565b5b50919050565b60008190508160005260206000209050919050565b60006020601f8301049050919050565b600082821b905092915050565b6000600883026113cb7fffffffffffffffffffffffffffffffffffffffffffffffffffffffffffffffff8261138e565b6113d5868361138e565b95508019841693508086168417925050509392505050565b60006114086114036113fe84611252565b611110565b611252565b9050919050565b6000819050919050565b611422836113ed565b61143661142e8261140f565b84845461139b565b825550505050565b600090565b61144b61143e565b611456818484611419565b505050565b5b8181101561147a5761146f600082611443565b60018101905061145c565b5050565b601f8211156114bf5761149081611369565b6114998461137e565b810160208510156114a8578190505b6114bc6114b48561137e565b83018261145b565b50505b505050565b600082821c905092915050565b60006114e2600019846008026114c4565b1980831691505092915050565b60006114fb83836114d1565b9150826002028217905092915050565b6115148261106f565b67ffffffffffffffff81111561152d5761152c610efb565b5b6115378254611338565b61154282828561147e565b600060209050601f8311600181146115755760008415611563578287015190505b61156d85826114ef565b8655506115d5565b601f19841661158386611369565b60005b828110156115ab57848901518255600182019150602085019450602081019050611586565b868310156115c857848901516115c4601f8916826114d1565b8355505b6001600288020188555050505b505050505050565b7f4e487b7100000000000000000000000000000000000000000000000000000000600052603260045260246000fd5b7f4e487b7100000000000000000000000000000000000000000000000000000000600052601160045260246000fd5b600061164682611252565b91507fffffffffffffffffffffffffffffffffffffffffffffffffffffffffffffffff82036116785761167761160c565b5b600182019050919050565b600061168e82611252565b915061169983611252565b92508282019050808211156116b1576116b061160c565b5b92915050565b6116c081610eaa565b81146116cb57600080fd5b50565b6000815190506116dd816116b7565b92915050565b6000602082840312156116f9576116f8610e15565b5b6000611707848285016116ce565b9150509291505056fea26469706673582212205ad1f7dc461fcec22a69318122a1c460390a00f21065d2f5aaefbc89d7a4929c64736f6c6343000811003360806040523480156200001157600080fd5b5060405162005d9038038062005d90833981810160405281019062000037919062001041565b868681600390816200004a919062001373565b5080600490816200005c919062001373565b5050506000600560006101000a81548160ff0219169083151502179055506200009a6200008e6200038560201b60201c565b6200038d60201b60201c565b60014603620000fe5773e47da91495c75e1d48569f343938380d8303b1f2600660006101000a81548173ffffffffffffffffffffffffffffffffffffffff021916908373ffffffffffffffffffffffffffffffffffffffff1602179055506200022a565b60054603620001625773e47da91495c75e1d48569f343938380d8303b1f2600660006101000a81548173ffffffffffffffffffffffffffffffffffffffff021916908373ffffffffffffffffffffffffffffffffffffffff16021790555062000229565b60894603620001c65773e47da91495c75e1d48569f343938380d8303b1f2600660006101000a81548173ffffffffffffffffffffffffffffffffffffffff021916908373ffffffffffffffffffffffffffffffffffffffff16021790555062000228565b620138814603620002275773e47da91495c75e1d48569f343938380d8303b1f2600660006101000a81548173ffffffffffffffffffffffffffffffffffffffff021916908373ffffffffffffffffffffffffffffffffffffffff1602179055505b5b5b5b6200023b856200045360201b60201c565b508360098190555086600c908162000254919062001373565b5082600b60006101000a81548160ff02191690831515021790555081600b60016101000a81548160ff0219169083151502179055506200029a8162000cf860201b60201c565b600d60006101000a81548160ff02191690836004811115620002c157620002c06200145a565b5b02179055506040518060600160405280600a548152602001868152602001600d60009054906101000a900460ff1660048111156200030457620003036200145a565b5b815250600e600a548154811062000320576200031f62001489565b5b9060005260206000209060030201600082015181600001556020820151816001015560408201518160020160006101000a81548160ff0219169083600481111562000370576200036f6200145a565b5b02179055509050505050505050505062001594565b600033905090565b6000600560019054906101000a900473ffffffffffffffffffffffffffffffffffffffff16905081600560016101000a81548173ffffffffffffffffffffffffffffffffffffffff021916908373ffffffffffffffffffffffffffffffffffffffff1602179055508173ffffffffffffffffffffffffffffffffffffffff168173ffffffffffffffffffffffffffffffffffffffff167f8be0079c531659141344cd1fd0a4f28419497f9722a3daafe3b4186f6b6457e060405160405180910390a35050565b600080600060048111156200046d576200046c6200145a565b5b600d60009054906101000a900460ff1660048111156200049257620004916200145a565b5b03620006335760008173ffffffffffffffffffffffffffffffffffffffff16638d4a8ffe856040518263ffffffff1660e01b8152600401620004d59190620014c9565b602060405180830381865afa158015620004f3573d6000803e3d6000fd5b505050506040513d601f19601f82011682018060405250810190620005199190620014e6565b9050600081101562000557576040517fc1a21f4e00000000000000000000000000000000000000000000000000000000815260040160405180910390fd5b6040518060600160405280600a548152602001828152602001600d60009054906101000a900460ff1660048111156200059557620005946200145a565b5b815250600e600a5481548110620005b157620005b062001489565b5b9060005260206000209060030201600082015181600001556020820151816001015560408201518160020160006101000a81548160ff021916908360048111156200060157620006006200145a565b5b0217905550905050600a60008154809291906200061e9062001547565b91905055508060078190559250505062000cf3565b600160048111156200064a57620006496200145a565b5b600d60009054906101000a900460ff1660048111156200066f576200066e6200145a565b5b03620007925760008390506000811015620006b6576040517fc1a21f4e00000000000000000000000000000000000000000000000000000000815260040160405180910390fd5b6040518060600160405280600a548152602001828152602001600d60009054906101000a900460ff166004811115620006f457620006f36200145a565b5b815250600e600a548154811062000710576200070f62001489565b5b9060005260206000209060030201600082015181600001556020820151816001015560408201518160020160006101000a81548160ff0219169083600481111562000760576200075f6200145a565b5b0217905550905050600a60008154809291906200077d9062001547565b91905055508060078190559250505062000cf3565b60026004811115620007a957620007a86200145a565b5b600d60009054906101000a900460ff166004811115620007ce57620007cd6200145a565b5b036200096f5760008173ffffffffffffffffffffffffffffffffffffffff16637afcc7a4856040518263ffffffff1660e01b8152600401620008119190620014c9565b602060405180830381865afa1580156200082f573d6000803e3d6000fd5b505050506040513d601f19601f82011682018060405250810190620008559190620014e6565b9050600081101562000893576040517fc1a21f4e00000000000000000000000000000000000000000000000000000000815260040160405180910390fd5b6040518060600160405280600a548152602001828152602001600d60009054906101000a900460ff166004811115620008d157620008d06200145a565b5b815250600e600a5481548110620008ed57620008ec62001489565b5b9060005260206000209060030201600082015181600001556020820151816001015560408201518160020160006101000a81548160ff021916908360048111156200093d576200093c6200145a565b5b0217905550905050600a60008154809291906200095a9062001547565b91905055508060078190559250505062000cf3565b600360048111156200098657620009856200145a565b5b600d60009054906101000a900460ff166004811115620009ab57620009aa6200145a565b5b0362000b4c5760008173ffffffffffffffffffffffffffffffffffffffff166387434dcd856040518263ffffffff1660e01b8152600401620009ee9190620014c9565b602060405180830381865afa15801562000a0c573d6000803e3d6000fd5b505050506040513d601f19601f8201168201806040525081019062000a329190620014e6565b9050600081101562000a70576040517fc1a21f4e00000000000000000000000000000000000000000000000000000000815260040160405180910390fd5b6040518060600160405280600a548152602001828152602001600d60009054906101000a900460ff16600481111562000aae5762000aad6200145a565b5b815250600e600a548154811062000aca5762000ac962001489565b5b9060005260206000209060030201600082015181600001556020820151816001015560408201518160020160006101000a81548160ff0219169083600481111562000b1a5762000b196200145a565b5b0217905550905050600a600081548092919062000b379062001547565b91905055508060078190559250505062000cf3565b60048081111562000b625762000b616200145a565b5b600d60009054906101000a900460ff16600481111562000b875762000b866200145a565b5b0362000cec5760008173ffffffffffffffffffffffffffffffffffffffff1663d1381f4e856040518263ffffffff1660e01b815260040162000bca9190620014c9565b602060405180830381865afa15801562000be8573d6000803e3d6000fd5b505050506040513d601f19601f8201168201806040525081019062000c0e9190620014e6565b90506040518060600160405280600a548152602001828152602001600d60009054906101000a900460ff16600481111562000c4e5762000c4d6200145a565b5b815250600e600a548154811062000c6a5762000c6962001489565b5b9060005260206000209060030201600082015181600001556020820151816001015560408201518160020160006101000a81548160ff0219169083600481111562000cba5762000cb96200145a565b5b0217905550905050600a600081548092919062000cd79062001547565b91905055508060078190559250505062000cf3565b6007549150505b919050565b600080820362000d36576000600d60006101000a81548160ff0219169083600481111562000d2b5762000d2a6200145a565b5b021790555062000e1f565b6001820362000d73576001600d60006101000a81548160ff0219169083600481111562000d685762000d676200145a565b5b021790555062000e1e565b6002820362000db0576002600d60006101000a81548160ff0219169083600481111562000da55762000da46200145a565b5b021790555062000e1d565b6003820362000ded576003600d60006101000a81548160ff0219169083600481111562000de25762000de16200145a565b5b021790555062000e1c565b6004600d60006101000a81548160ff0219169083600481111562000e165762000e156200145a565b5b02179055505b5b5b5b600d60009054906101000a900460ff169050919050565b6000604051905090565b600080fd5b600080fd5b600080fd5b600080fd5b6000601f19601f8301169050919050565b7f4e487b7100000000000000000000000000000000000000000000000000000000600052604160045260246000fd5b62000e9f8262000e54565b810181811067ffffffffffffffff8211171562000ec15762000ec062000e65565b5b80604052505050565b600062000ed662000e36565b905062000ee4828262000e94565b919050565b600067ffffffffffffffff82111562000f075762000f0662000e65565b5b62000f128262000e54565b9050602081019050919050565b60005b8381101562000f3f57808201518184015260208101905062000f22565b60008484015250505050565b600062000f6262000f5c8462000ee9565b62000eca565b90508281526020810184848401111562000f815762000f8062000e4f565b5b62000f8e84828562000f1f565b509392505050565b600082601f83011262000fae5762000fad62000e4a565b5b815162000fc084826020860162000f4b565b91505092915050565b6000819050919050565b62000fde8162000fc9565b811462000fea57600080fd5b50565b60008151905062000ffe8162000fd3565b92915050565b60008115159050919050565b6200101b8162001004565b81146200102757600080fd5b50565b6000815190506200103b8162001010565b92915050565b600080600080600080600060e0888a03121562001063576200106262000e40565b5b600088015167ffffffffffffffff81111562001084576200108362000e45565b5b620010928a828b0162000f96565b975050602088015167ffffffffffffffff811115620010b657620010b562000e45565b5b620010c48a828b0162000f96565b9650506040620010d78a828b0162000fed565b9550506060620010ea8a828b0162000fed565b9450506080620010fd8a828b016200102a565b93505060a0620011108a828b016200102a565b92505060c0620011238a828b0162000fed565b91505092959891949750929550565b600081519050919050565b7f4e487b7100000000000000000000000000000000000000000000000000000000600052602260045260246000fd5b600060028204905060018216806200118557607f821691505b6020821081036200119b576200119a6200113d565b5b50919050565b60008190508160005260206000209050919050565b60006020601f8301049050919050565b600082821b905092915050565b600060088302620012057fffffffffffffffffffffffffffffffffffffffffffffffffffffffffffffffff82620011c6565b620012118683620011c6565b95508019841693508086168417925050509392505050565b6000819050919050565b6000620012546200124e620012488462000fc9565b62001229565b62000fc9565b9050919050565b6000819050919050565b620012708362001233565b620012886200127f826200125b565b848454620011d3565b825550505050565b600090565b6200129f62001290565b620012ac81848462001265565b505050565b5b81811015620012d457620012c860008262001295565b600181019050620012b2565b5050565b601f8211156200132357620012ed81620011a1565b620012f884620011b6565b8101602085101562001308578190505b620013206200131785620011b6565b830182620012b1565b50505b505050565b600082821c905092915050565b6000620013486000198460080262001328565b1980831691505092915050565b600062001363838362001335565b9150826002028217905092915050565b6200137e8262001132565b67ffffffffffffffff8111156200139a576200139962000e65565b5b620013a682546200116c565b620013b3828285620012d8565b600060209050601f831160018114620013eb5760008415620013d6578287015190505b620013e2858262001355565b86555062001452565b601f198416620013fb86620011a1565b60005b828110156200142557848901518255600182019150602085019450602081019050620013fe565b8683101562001445578489015162001441601f89168262001335565b8355505b6001600288020188555050505b505050505050565b7f4e487b7100000000000000000000000000000000000000000000000000000000600052602160045260246000fd5b7f4e487b7100000000000000000000000000000000000000000000000000000000600052603260045260246000fd5b620014c38162000fc9565b82525050565b6000602082019050620014e06000830184620014b8565b92915050565b600060208284031215620014ff57620014fe62000e40565b5b60006200150f8482850162000fed565b91505092915050565b7f4e487b7100000000000000000000000000000000000000000000000000000000600052601160045260246000fd5b6000620015548262000fc9565b91507fffffffffffffffffffffffffffffffffffffffffffffffffffffffffffffffff820362001589576200158862001518565b5b600182019050919050565b6147ec80620015a46000396000f3fe60806040526004361061031e5760003560e01c8063715018a6116101ab578063a457c2d7116100f7578063dd62ed3e11610095578063e2ab78131161006f578063e2ab781314610c99578063e9f38fc514610cd6578063f2fde38b14610d13578063f42fff0114610d3c5761032d565b8063dd62ed3e14610c06578063e04777af14610c43578063e12ef5ed14610c6e5761032d565b8063c4ae3168116100d1578063c4ae316814610b48578063d1381f4e14610b73578063d21b872014610bb0578063d37e510414610bdb5761032d565b8063a457c2d714610aa3578063a9059cbb14610ae0578063bec9908e14610b1d5761032d565b8063836ceb9d116101645780638da5cb5b1161013e5780638da5cb5b146109f75780638dff74a714610a2257806395d89b4114610a4d57806396af428a14610a785761032d565b8063836ceb9d1461094057806387434dcd1461097d5780638d4a8ffe146109ba5761032d565b8063715018a614610842578063778a56ce1461085957806379cc67901461088457806379d79fcc146108ad5780637afcc7a4146108d85780637d670117146109155761032d565b806334fcf4371161026a5780634a2ad99f116102235780636260f55b116101fd5780636260f55b146107725780636a443b591461079d5780636f8b44b0146107c857806370a08231146108055761032d565b80634a2ad99f146106df5780634a79d50c1461071c5780635c975abb146107475761032d565b806334fcf437146105b65780633610724e146105f3578063395093511461062357806342966c6814610660578063445919461461068957806348cf734d146106b45761032d565b8063201a49d6116102d757806329d7a0bd116102b157806329d7a0bd1461050a5780632c4e722e14610535578063313ce5671461056057806332cb6b0c1461058b5761032d565b8063201a49d61461047757806323b872dd146104a2578063287ead9e146104df5761032d565b8063033a7a021461033f578063054dca2a1461037c57806306fdde03146103a7578063095ea7b3146103d25780630b4185ea1461040f57806318160ddd1461044c5761032d565b3661032d5761032b610d67565b005b610335610d67565b61033d610d86565b005b34801561034b57600080fd5b5061036660048036038101906103619190613836565b610e38565b6040516103739190613872565b60405180910390f35b34801561038857600080fd5b50610391610e81565b60405161039e9190613872565b60405180910390f35b3480156103b357600080fd5b506103bc610ebe565b6040516103c9919061391d565b60405180910390f35b3480156103de57600080fd5b506103f960048036038101906103f4919061399d565b610f50565b60405161040691906139f8565b60405180910390f35b34801561041b57600080fd5b5061043660048036038101906104319190613836565b610f6e565b6040516104439190613872565b60405180910390f35b34801561045857600080fd5b50610461610fb7565b60405161046e9190613872565b60405180910390f35b34801561048357600080fd5b5061048c610fc1565b6040516104999190613872565b60405180910390f35b3480156104ae57600080fd5b506104c960048036038101906104c49190613a13565b610fc7565b6040516104d691906139f8565b60405180910390f35b3480156104eb57600080fd5b506104f46110bf565b6040516105019190613872565b60405180910390f35b34801561051657600080fd5b5061051f6110fc565b60405161052c9190613872565b60405180910390f35b34801561054157600080fd5b5061054a611139565b6040516105579190613872565b60405180910390f35b34801561056c57600080fd5b5061057561113f565b6040516105829190613a82565b60405180910390f35b34801561059757600080fd5b506105a0611148565b6040516105ad9190613872565b60405180910390f35b3480156105c257600080fd5b506105dd60048036038101906105d89190613836565b61114e565b6040516105ea9190613872565b60405180910390f35b61060d60048036038101906106089190613836565b6111dc565b60405161061a9190613872565b60405180910390f35b34801561062f57600080fd5b5061064a6004803603810190610645919061399d565b6112be565b60405161065791906139f8565b60405180910390f35b34801561066c57600080fd5b5061068760048036038101906106829190613836565b61136a565b005b34801561069557600080fd5b5061069e6113c4565b6040516106ab9190613872565b60405180910390f35b3480156106c057600080fd5b506106c96113d3565b6040516106d69190613872565b60405180910390f35b3480156106eb57600080fd5b506107066004803603810190610701919061399d565b611410565b60405161071391906139f8565b60405180910390f35b34801561072857600080fd5b506107316114ba565b60405161073e919061391d565b60405180910390f35b34801561075357600080fd5b5061075c611548565b60405161076991906139f8565b60405180910390f35b34801561077e57600080fd5b5061078761155f565b6040516107949190613872565b60405180910390f35b3480156107a957600080fd5b506107b261156e565b6040516107bf9190613872565b60405180910390f35b3480156107d457600080fd5b506107ef60048036038101906107ea9190613836565b61157d565b6040516107fc9190613872565b60405180910390f35b34801561081157600080fd5b5061082c60048036038101906108279190613a9d565b611608565b6040516108399190613872565b60405180910390f35b34801561084e57600080fd5b50610857611650565b005b34801561086557600080fd5b5061086e6116d8565b60405161087b91906139f8565b60405180910390f35b34801561089057600080fd5b506108ab60048036038101906108a6919061399d565b611784565b005b3480156108b957600080fd5b506108c26117ff565b6040516108cf9190613872565b60405180910390f35b3480156108e457600080fd5b506108ff60048036038101906108fa9190613836565b61180e565b60405161090c9190613872565b60405180910390f35b34801561092157600080fd5b5061092a611858565b6040516109379190613872565b60405180910390f35b34801561094c57600080fd5b5061096760048036038101906109629190613836565b611867565b6040516109749190613b41565b60405180910390f35b34801561098957600080fd5b506109a4600480360381019061099f9190613836565b6118f5565b6040516109b19190613872565b60405180910390f35b3480156109c657600080fd5b506109e160048036038101906109dc9190613836565b61193f565b6040516109ee9190613872565b60405180910390f35b348015610a0357600080fd5b50610a0c611989565b604051610a199190613b6b565b60405180910390f35b348015610a2e57600080fd5b50610a376119b3565b604051610a449190613872565b60405180910390f35b348015610a5957600080fd5b50610a626119f0565b604051610a6f919061391d565b60405180910390f35b348015610a8457600080fd5b50610a8d611a82565b604051610a9a9190613872565b60405180910390f35b348015610aaf57600080fd5b50610aca6004803603810190610ac5919061399d565b611a91565b604051610ad791906139f8565b60405180910390f35b348015610aec57600080fd5b50610b076004803603810190610b02919061399d565b611b7c565b604051610b1491906139f8565b60405180910390f35b348015610b2957600080fd5b50610b32611b9a565b604051610b3f9190613872565b60405180910390f35b348015610b5457600080fd5b50610b5d611bd7565b604051610b6a91906139f8565b60405180910390f35b348015610b7f57600080fd5b50610b9a6004803603810190610b959190613836565b611c83565b604051610ba79190613872565b60405180910390f35b348015610bbc57600080fd5b50610bc5611ccd565b604051610bd29190613872565b60405180910390f35b348015610be757600080fd5b50610bf0611d0a565b604051610bfd91906139f8565b60405180910390f35b348015610c1257600080fd5b50610c2d6004803603810190610c289190613b86565b611e05565b604051610c3a9190613872565b60405180910390f35b348015610c4f57600080fd5b50610c58611e8c565b604051610c659190613872565b60405180910390f35b348015610c7a57600080fd5b50610c83611e9b565b604051610c909190613872565b60405180910390f35b348015610ca557600080fd5b50610cc06004803603810190610cbb9190613836565b611ed8565b604051610ccd9190613872565b60405180910390f35b348015610ce257600080fd5b50610cfd6004803603810190610cf8919061399d565b611f22565b604051610d0a91906139f8565b60405180910390f35b348015610d1f57600080fd5b50610d3a6004803603810190610d359190613a9d565b611fcc565b005b348015610d4857600080fd5b50610d516120c3565b604051610d5e9190613872565b60405180910390f35b600060075434610d779190613c24565b9050610d833382612100565b50565b60008060075482610d979190613c24565b9050600754811015610dd5576040517f99956c4600000000000000000000000000000000000000000000000000000000815260040160405180910390fd5b600081600854600954610de89190613c55565b610df29190613c55565b1015610e2a576040517f1e6f0b5400000000000000000000000000000000000000000000000000000000815260040160405180910390fd5b610e343382612100565b5050565b6000806509184e72a00083610e4d9190613c89565b90506000610e5961225f565b9050610e78670de0b6b3a764000083610e729190613c89565b826122fc565b92505050919050565b600080610e8c61232d565b90506000610e9861225f565b9050610eb7670de0b6b3a764000083610eb19190613c89565b826122fc565b9250505090565b606060038054610ecd90613cfa565b80601f0160208091040260200160405190810160405280929190818152602001828054610ef990613cfa565b8015610f465780601f10610f1b57610100808354040283529160200191610f46565b820191906000526020600020905b815481529060010190602001808311610f2957829003601f168201915b5050505050905090565b6000610f64610f5d6123ca565b84846123d2565b6001905092915050565b6000806509184e72a00083610f839190613c89565b90506000610f8f61232d565b9050610fae670de0b6b3a764000083610fa89190613c89565b826122fc565b92505050919050565b6000600254905090565b60085481565b6000610fd484848461259b565b6000600160008673ffffffffffffffffffffffffffffffffffffffff1673ffffffffffffffffffffffffffffffffffffffff168152602001908152602001600020600061101f6123ca565b73ffffffffffffffffffffffffffffffffffffffff1673ffffffffffffffffffffffffffffffffffffffff1681526020019081526020016000205490508281101561109f576040517f08c379a000000000000000000000000000000000000000000000000000000000815260040161109690613d9d565b60405180910390fd5b6110b3856110ab6123ca565b8584036123d2565b60019150509392505050565b6000806110ca61225f565b905060006110d661281a565b90506110f5670de0b6b3a7640000836110ef9190613c89565b826122fc565b9250505090565b60008061110761232d565b905060006111136128b7565b9050611132670de0b6b3a76400008361112c9190613c89565b826122fc565b9250505090565b60075481565b60006012905090565b60095481565b60006111586123ca565b73ffffffffffffffffffffffffffffffffffffffff16611176611989565b73ffffffffffffffffffffffffffffffffffffffff16146111cc576040517f08c379a00000000000000000000000000000000000000000000000000000000081526004016111c390613e09565b60405180910390fd5b6111d582612954565b9050919050565b6000600754826111ec9190613c89565b3411611224576040517f99956c4600000000000000000000000000000000000000000000000000000000815260040160405180910390fd5b6000670de0b6b3a76400008361123a9190613c89565b60085460095461124a9190613c55565b6112549190613c55565b101561128c576040517f1e6f0b5400000000000000000000000000000000000000000000000000000000815260040160405180910390fd5b6112a933670de0b6b3a7640000846112a49190613c89565b612100565b600754826112b79190613c89565b9050919050565b60006113606112cb6123ca565b8484600160006112d96123ca565b73ffffffffffffffffffffffffffffffffffffffff1673ffffffffffffffffffffffffffffffffffffffff16815260200190815260200160002060008873ffffffffffffffffffffffffffffffffffffffff1673ffffffffffffffffffffffffffffffffffffffff1681526020019081526020016000205461135b9190613e29565b6123d2565b6001905092915050565b60001515600b60009054906101000a900460ff161515036113b7576040517ffebe7e1900000000000000000000000000000000000000000000000000000000815260040160405180910390fd5b6113c13382613182565b50565b60006113ce61225f565b905090565b6000806113de61232d565b905060006113ea61281a565b9050611409670de0b6b3a7640000836114039190613c89565b826122fc565b9250505090565b6000600660009054906101000a900473ffffffffffffffffffffffffffffffffffffffff1673ffffffffffffffffffffffffffffffffffffffff16634a2ad99f84846040518363ffffffff1660e01b815260040161146f929190613e5d565b6020604051808303816000875af115801561148e573d6000803e3d6000fd5b505050506040513d601f19601f820116820180604052508101906114b29190613eb2565b905092915050565b600c80546114c790613cfa565b80601f01602080910402602001604051908101604052809291908181526020018280546114f390613cfa565b80156115405780601f1061151557610100808354040283529160200191611540565b820191906000526020600020905b81548152906001019060200180831161152357829003601f168201915b505050505081565b6000600560009054906101000a900460ff16905090565b600061156961232d565b905090565b6000611578613358565b905090565b60006115876123ca565b73ffffffffffffffffffffffffffffffffffffffff166115a5611989565b73ffffffffffffffffffffffffffffffffffffffff16146115fb576040517f08c379a00000000000000000000000000000000000000000000000000000000081526004016115f290613e09565b60405180910390fd5b8160098190559050919050565b60008060008373ffffffffffffffffffffffffffffffffffffffff1673ffffffffffffffffffffffffffffffffffffffff168152602001908152602001600020549050919050565b6116586123ca565b73ffffffffffffffffffffffffffffffffffffffff16611676611989565b73ffffffffffffffffffffffffffffffffffffffff16146116cc576040517f08c379a00000000000000000000000000000000000000000000000000000000081526004016116c390613e09565b60405180910390fd5b6116d66000613395565b565b60006116e26123ca565b73ffffffffffffffffffffffffffffffffffffffff16611700611989565b73ffffffffffffffffffffffffffffffffffffffff1614611756576040517f08c379a000000000000000000000000000000000000000000000000000000000815260040161174d90613e09565b60405180910390fd5b600b60009054906101000a900460ff1615600b60006101000a81548160ff0219169083151502179055905090565b6000611797836117926123ca565b611e05565b9050818110156117dc576040517f08c379a00000000000000000000000000000000000000000000000000000000081526004016117d390613f51565b60405180910390fd5b6117f0836117e86123ca565b8484036123d2565b6117fa8383613182565b505050565b600061180961345b565b905090565b600080662386f26fc10000836118249190613c89565b9050600061183061345b565b905061184f670de0b6b3a7640000836118499190613c89565b826122fc565b92505050919050565b6000611862613498565b905090565b60006118716123ca565b73ffffffffffffffffffffffffffffffffffffffff1661188f611989565b73ffffffffffffffffffffffffffffffffffffffff16146118e5576040517f08c379a00000000000000000000000000000000000000000000000000000000081526004016118dc90613e09565b60405180910390fd5b6118ee826134d5565b9050919050565b600080662386f26fc100008361190b9190613c89565b90506000611917613358565b9050611936670de0b6b3a7640000836119309190613c89565b826122fc565b92505050919050565b600080662386f26fc10000836119559190613c89565b90506000611961613498565b9050611980670de0b6b3a76400008361197a9190613c89565b826122fc565b92505050919050565b6000600560019054906101000a900473ffffffffffffffffffffffffffffffffffffffff16905090565b6000806119be6128b7565b905060006119ca61281a565b90506119e9670de0b6b3a7640000826119e39190613c89565b836122fc565b9250505090565b6060600480546119ff90613cfa565b80601f0160208091040260200160405190810160405280929190818152602001828054611a2b90613cfa565b8015611a785780601f10611a4d57610100808354040283529160200191611a78565b820191906000526020600020905b815481529060010190602001808311611a5b57829003601f168201915b5050505050905090565b6000611a8c61281a565b905090565b60008060016000611aa06123ca565b73ffffffffffffffffffffffffffffffffffffffff1673ffffffffffffffffffffffffffffffffffffffff16815260200190815260200160002060008573ffffffffffffffffffffffffffffffffffffffff1673ffffffffffffffffffffffffffffffffffffffff16815260200190815260200160002054905082811015611b5d576040517f08c379a0000000000000000000000000000000000000000000000000000000008152600401611b5490613fe3565b60405180910390fd5b611b71611b686123ca565b858584036123d2565b600191505092915050565b6000611b90611b896123ca565b848461259b565b6001905092915050565b600080611ba561232d565b90506000611bb161281a565b9050611bd0670de0b6b3a764000082611bca9190613c89565b836122fc565b9250505090565b6000611be16123ca565b73ffffffffffffffffffffffffffffffffffffffff16611bff611989565b73ffffffffffffffffffffffffffffffffffffffff1614611c55576040517f08c379a0000000000000000000000000000000000000000000000000000000008152600401611c4c90613e09565b60405180910390fd5b600b60019054906101000a900460ff1615600b60016101000a81548160ff0219169083151502179055905090565b600080662386f26fc1000083611c999190613c89565b90506000611ca56128b7565b9050611cc4670de0b6b3a764000083611cbe9190613c89565b826122fc565b92505050919050565b600080611cd86128b7565b90506000611ce461225f565b9050611d03670de0b6b3a764000082611cfd9190613c89565b836122fc565b9250505090565b6000611d146123ca565b73ffffffffffffffffffffffffffffffffffffffff16611d32611989565b73ffffffffffffffffffffffffffffffffffffffff1614611d88576040517f08c379a0000000000000000000000000000000000000000000000000000000008152600401611d7f90613e09565b60405180910390fd5b60001515600b60019054906101000a900460ff16151503611dd5576040517fda61c0d800000000000000000000000000000000000000000000000000000000815260040160405180910390fd5b611ddd611548565b15611def57611dea6135fc565b611df8565b611df761369e565b5b611e00611548565b905090565b6000600160008473ffffffffffffffffffffffffffffffffffffffff1673ffffffffffffffffffffffffffffffffffffffff16815260200190815260200160002060008373ffffffffffffffffffffffffffffffffffffffff1673ffffffffffffffffffffffffffffffffffffffff16815260200190815260200160002054905092915050565b6000611e966128b7565b905090565b600080611ea661225f565b90506000611eb261281a565b9050611ed1670de0b6b3a764000082611ecb9190613c89565b836122fc565b9250505090565b600080662386f26fc1000083611eee9190613c89565b90506000611efa61281a565b9050611f19670de0b6b3a764000083611f139190613c89565b826122fc565b92505050919050565b6000600660009054906101000a900473ffffffffffffffffffffffffffffffffffffffff1673ffffffffffffffffffffffffffffffffffffffff1663e9f38fc584846040518363ffffffff1660e01b8152600401611f81929190613e5d565b6020604051808303816000875af1158015611fa0573d6000803e3d6000fd5b505050506040513d601f19601f82011682018060405250810190611fc49190613eb2565b905092915050565b611fd46123ca565b73ffffffffffffffffffffffffffffffffffffffff16611ff2611989565b73ffffffffffffffffffffffffffffffffffffffff1614612048576040517f08c379a000000000000000000000000000000000000000000000000000000000815260040161203f90613e09565b60405180910390fd5b600073ffffffffffffffffffffffffffffffffffffffff168173ffffffffffffffffffffffffffffffffffffffff16036120b7576040517f08c379a00000000000000000000000000000000000000000000000000000000081526004016120ae90614075565b60405180910390fd5b6120c081613395565b50565b6000806120ce61232d565b905060006120da61225f565b90506120f9670de0b6b3a7640000826120f39190613c89565b836122fc565b9250505090565b600073ffffffffffffffffffffffffffffffffffffffff168273ffffffffffffffffffffffffffffffffffffffff160361216f576040517f08c379a0000000000000000000000000000000000000000000000000000000008152600401612166906140e1565b60405180910390fd5b61217b60008383613741565b806002600082825461218d9190613e29565b92505081905550806000808473ffffffffffffffffffffffffffffffffffffffff1673ffffffffffffffffffffffffffffffffffffffff16815260200190815260200160002060008282546121e29190613e29565b925050819055508173ffffffffffffffffffffffffffffffffffffffff16600073ffffffffffffffffffffffffffffffffffffffff167fddf252ad1be2c89b69c2b068fc378daa952ba7f163c4a11628f55a4df523b3ef836040516122479190613872565b60405180910390a361225b60008383613799565b5050565b600080600660009054906101000a900473ffffffffffffffffffffffffffffffffffffffff1673ffffffffffffffffffffffffffffffffffffffff166396722fe56040518163ffffffff1660e01b8152600401602060405180830381865afa1580156122cf573d6000803e3d6000fd5b505050506040513d601f19601f820116820180604052508101906122f39190614137565b90508091505090565b600080828461230b9190614164565b905082818561231a9190613c55565b6123249190613c24565b91505092915050565b600080600660009054906101000a900473ffffffffffffffffffffffffffffffffffffffff1673ffffffffffffffffffffffffffffffffffffffff16639a18c7956040518163ffffffff1660e01b8152600401602060405180830381865afa15801561239d573d6000803e3d6000fd5b505050506040513d601f19601f820116820180604052508101906123c19190614137565b90508091505090565b600033905090565b600073ffffffffffffffffffffffffffffffffffffffff168373ffffffffffffffffffffffffffffffffffffffff1603612441576040517f08c379a000000000000000000000000000000000000000000000000000000000815260040161243890614207565b60405180910390fd5b600073ffffffffffffffffffffffffffffffffffffffff168273ffffffffffffffffffffffffffffffffffffffff16036124b0576040517f08c379a00000000000000000000000000000000000000000000000000000000081526004016124a790614299565b60405180910390fd5b80600160008573ffffffffffffffffffffffffffffffffffffffff1673ffffffffffffffffffffffffffffffffffffffff16815260200190815260200160002060008473ffffffffffffffffffffffffffffffffffffffff1673ffffffffffffffffffffffffffffffffffffffff168152602001908152602001600020819055508173ffffffffffffffffffffffffffffffffffffffff168373ffffffffffffffffffffffffffffffffffffffff167f8c5be1e5ebec7d5bd14f71427d1e84f3dd0314c0f7b2291e5b200ac8c7c3b9258360405161258e9190613872565b60405180910390a3505050565b600073ffffffffffffffffffffffffffffffffffffffff168373ffffffffffffffffffffffffffffffffffffffff160361260a576040517f08c379a00000000000000000000000000000000000000000000000000000000081526004016126019061432b565b60405180910390fd5b600073ffffffffffffffffffffffffffffffffffffffff168273ffffffffffffffffffffffffffffffffffffffff1603612679576040517f08c379a0000000000000000000000000000000000000000000000000000000008152600401612670906143bd565b60405180910390fd5b612684838383613741565b60008060008573ffffffffffffffffffffffffffffffffffffffff1673ffffffffffffffffffffffffffffffffffffffff1681526020019081526020016000205490508181101561270a576040517f08c379a00000000000000000000000000000000000000000000000000000000081526004016127019061444f565b60405180910390fd5b8181036000808673ffffffffffffffffffffffffffffffffffffffff1673ffffffffffffffffffffffffffffffffffffffff16815260200190815260200160002081905550816000808573ffffffffffffffffffffffffffffffffffffffff1673ffffffffffffffffffffffffffffffffffffffff168152602001908152602001600020600082825461279d9190613e29565b925050819055508273ffffffffffffffffffffffffffffffffffffffff168473ffffffffffffffffffffffffffffffffffffffff167fddf252ad1be2c89b69c2b068fc378daa952ba7f163c4a11628f55a4df523b3ef846040516128019190613872565b60405180910390a3612814848484613799565b50505050565b600080600660009054906101000a900473ffffffffffffffffffffffffffffffffffffffff1673ffffffffffffffffffffffffffffffffffffffff1663414641df6040518163ffffffff1660e01b8152600401602060405180830381865afa15801561288a573d6000803e3d6000fd5b505050506040513d601f19601f820116820180604052508101906128ae9190614137565b90508091505090565b600080600660009054906101000a900473ffffffffffffffffffffffffffffffffffffffff1673ffffffffffffffffffffffffffffffffffffffff1663f2e9bd7a6040518163ffffffff1660e01b8152600401602060405180830381865afa158015612927573d6000803e3d6000fd5b505050506040513d601f19601f8201168201806040525081019061294b9190614137565b90508091505090565b6000806000600481111561296b5761296a613aca565b5b600d60009054906101000a900460ff16600481111561298d5761298c613aca565b5b03612b1b5760008173ffffffffffffffffffffffffffffffffffffffff16638d4a8ffe856040518263ffffffff1660e01b81526004016129cd9190613872565b602060405180830381865afa1580156129ea573d6000803e3d6000fd5b505050506040513d601f19601f82011682018060405250810190612a0e9190614484565b90506000811015612a4b576040517fc1a21f4e00000000000000000000000000000000000000000000000000000000815260040160405180910390fd5b6040518060600160405280600a548152602001828152602001600d60009054906101000a900460ff166004811115612a8657612a85613aca565b5b815250600e600a5481548110612a9f57612a9e6144b1565b5b9060005260206000209060030201600082015181600001556020820151816001015560408201518160020160006101000a81548160ff02191690836004811115612aec57612aeb613aca565b5b0217905550905050600a6000815480929190612b07906144e0565b91905055508060078190559250505061317d565b60016004811115612b2f57612b2e613aca565b5b600d60009054906101000a900460ff166004811115612b5157612b50613aca565b5b03612c665760008390506000811015612b96576040517fc1a21f4e00000000000000000000000000000000000000000000000000000000815260040160405180910390fd5b6040518060600160405280600a548152602001828152602001600d60009054906101000a900460ff166004811115612bd157612bd0613aca565b5b815250600e600a5481548110612bea57612be96144b1565b5b9060005260206000209060030201600082015181600001556020820151816001015560408201518160020160006101000a81548160ff02191690836004811115612c3757612c36613aca565b5b0217905550905050600a6000815480929190612c52906144e0565b91905055508060078190559250505061317d565b60026004811115612c7a57612c79613aca565b5b600d60009054906101000a900460ff166004811115612c9c57612c9b613aca565b5b03612e2a5760008173ffffffffffffffffffffffffffffffffffffffff16637afcc7a4856040518263ffffffff1660e01b8152600401612cdc9190613872565b602060405180830381865afa158015612cf9573d6000803e3d6000fd5b505050506040513d601f19601f82011682018060405250810190612d1d9190614484565b90506000811015612d5a576040517fc1a21f4e00000000000000000000000000000000000000000000000000000000815260040160405180910390fd5b6040518060600160405280600a548152602001828152602001600d60009054906101000a900460ff166004811115612d9557612d94613aca565b5b815250600e600a5481548110612dae57612dad6144b1565b5b9060005260206000209060030201600082015181600001556020820151816001015560408201518160020160006101000a81548160ff02191690836004811115612dfb57612dfa613aca565b5b0217905550905050600a6000815480929190612e16906144e0565b91905055508060078190559250505061317d565b60036004811115612e3e57612e3d613aca565b5b600d60009054906101000a900460ff166004811115612e6057612e5f613aca565b5b03612fee5760008173ffffffffffffffffffffffffffffffffffffffff166387434dcd856040518263ffffffff1660e01b8152600401612ea09190613872565b602060405180830381865afa158015612ebd573d6000803e3d6000fd5b505050506040513d601f19601f82011682018060405250810190612ee19190614484565b90506000811015612f1e576040517fc1a21f4e00000000000000000000000000000000000000000000000000000000815260040160405180910390fd5b6040518060600160405280600a548152602001828152602001600d60009054906101000a900460ff166004811115612f5957612f58613aca565b5b815250600e600a5481548110612f7257612f716144b1565b5b9060005260206000209060030201600082015181600001556020820151816001015560408201518160020160006101000a81548160ff02191690836004811115612fbf57612fbe613aca565b5b0217905550905050600a6000815480929190612fda906144e0565b91905055508060078190559250505061317d565b60048081111561300157613000613aca565b5b600d60009054906101000a900460ff16600481111561302357613022613aca565b5b036131765760008173ffffffffffffffffffffffffffffffffffffffff1663d1381f4e856040518263ffffffff1660e01b81526004016130639190613872565b602060405180830381865afa158015613080573d6000803e3d6000fd5b505050506040513d601f19601f820116820180604052508101906130a49190614484565b90506040518060600160405280600a548152602001828152602001600d60009054906101000a900460ff1660048111156130e1576130e0613aca565b5b815250600e600a54815481106130fa576130f96144b1565b5b9060005260206000209060030201600082015181600001556020820151816001015560408201518160020160006101000a81548160ff0219169083600481111561314757613146613aca565b5b0217905550905050600a6000815480929190613162906144e0565b91905055508060078190559250505061317d565b6007549150505b919050565b600073ffffffffffffffffffffffffffffffffffffffff168273ffffffffffffffffffffffffffffffffffffffff16036131f1576040517f08c379a00000000000000000000000000000000000000000000000000000000081526004016131e89061459a565b60405180910390fd5b6131fd82600083613741565b60008060008473ffffffffffffffffffffffffffffffffffffffff1673ffffffffffffffffffffffffffffffffffffffff16815260200190815260200160002054905081811015613283576040517f08c379a000000000000000000000000000000000000000000000000000000000815260040161327a9061462c565b60405180910390fd5b8181036000808573ffffffffffffffffffffffffffffffffffffffff1673ffffffffffffffffffffffffffffffffffffffff1681526020019081526020016000208190555081600260008282546132da9190613c55565b92505081905550600073ffffffffffffffffffffffffffffffffffffffff168373ffffffffffffffffffffffffffffffffffffffff167fddf252ad1be2c89b69c2b068fc378daa952ba7f163c4a11628f55a4df523b3ef8460405161333f9190613872565b60405180910390a361335383600084613799565b505050565b6000806133636128b7565b9050600061336f61225f565b905061338e670de0b6b3a7640000836133889190613c89565b826122fc565b9250505090565b6000600560019054906101000a900473ffffffffffffffffffffffffffffffffffffffff16905081600560016101000a81548173ffffffffffffffffffffffffffffffffffffffff021916908373ffffffffffffffffffffffffffffffffffffffff1602179055508173ffffffffffffffffffffffffffffffffffffffff168173ffffffffffffffffffffffffffffffffffffffff167f8be0079c531659141344cd1fd0a4f28419497f9722a3daafe3b4186f6b6457e060405160405180910390a35050565b6000806134666128b7565b9050600061347261281a565b9050613491670de0b6b3a76400008361348b9190613c89565b826122fc565b9250505090565b6000806134a36128b7565b905060006134af61232d565b90506134ce670de0b6b3a7640000836134c89190613c89565b826122fc565b9250505090565b600080820361350e576000600d60006101000a81548160ff0219169083600481111561350457613503613aca565b5b02179055506135e5565b60018203613546576001600d60006101000a81548160ff0219169083600481111561353c5761353b613aca565b5b02179055506135e4565b6002820361357e576002600d60006101000a81548160ff0219169083600481111561357457613573613aca565b5b02179055506135e3565b600382036135b6576003600d60006101000a81548160ff021916908360048111156135ac576135ab613aca565b5b02179055506135e2565b6004600d60006101000a81548160ff021916908360048111156135dc576135db613aca565b5b02179055505b5b5b5b600d60009054906101000a900460ff169050919050565b613604611548565b613643576040517f08c379a000000000000000000000000000000000000000000000000000000000815260040161363a90614698565b60405180910390fd5b6000600560006101000a81548160ff0219169083151502179055507f5db9ee0a495bf2e6ff9c91a7834c1ba4fdd244a5e8aa4e537bd38aeae4b073aa6136876123ca565b6040516136949190613b6b565b60405180910390a1565b6136a6611548565b156136e6576040517f08c379a00000000000000000000000000000000000000000000000000000000081526004016136dd90614704565b60405180910390fd5b6001600560006101000a81548160ff0219169083151502179055507f62e78cea01bee320cd4e420270b5ea74000d11b0c9f74754ebdbfc544b05a25861372a6123ca565b6040516137379190613b6b565b60405180910390a1565b613749611548565b15613789576040517f08c379a000000000000000000000000000000000000000000000000000000000815260040161378090614704565b60405180910390fd5b61379483838361379e565b505050565b505050565b6137a98383836137f6565b6137b1611548565b156137f1576040517f08c379a00000000000000000000000000000000000000000000000000000000081526004016137e890614796565b60405180910390fd5b505050565b505050565b600080fd5b6000819050919050565b61381381613800565b811461381e57600080fd5b50565b6000813590506138308161380a565b92915050565b60006020828403121561384c5761384b6137fb565b5b600061385a84828501613821565b91505092915050565b61386c81613800565b82525050565b60006020820190506138876000830184613863565b92915050565b600081519050919050565b600082825260208201905092915050565b60005b838110156138c75780820151818401526020810190506138ac565b60008484015250505050565b6000601f19601f8301169050919050565b60006138ef8261388d565b6138f98185613898565b93506139098185602086016138a9565b613912816138d3565b840191505092915050565b6000602082019050818103600083015261393781846138e4565b905092915050565b600073ffffffffffffffffffffffffffffffffffffffff82169050919050565b600061396a8261393f565b9050919050565b61397a8161395f565b811461398557600080fd5b50565b60008135905061399781613971565b92915050565b600080604083850312156139b4576139b36137fb565b5b60006139c285828601613988565b92505060206139d385828601613821565b9150509250929050565b60008115159050919050565b6139f2816139dd565b82525050565b6000602082019050613a0d60008301846139e9565b92915050565b600080600060608486031215613a2c57613a2b6137fb565b5b6000613a3a86828701613988565b9350506020613a4b86828701613988565b9250506040613a5c86828701613821565b9150509250925092565b600060ff82169050919050565b613a7c81613a66565b82525050565b6000602082019050613a976000830184613a73565b92915050565b600060208284031215613ab357613ab26137fb565b5b6000613ac184828501613988565b91505092915050565b7f4e487b7100000000000000000000000000000000000000000000000000000000600052602160045260246000fd5b60058110613b0a57613b09613aca565b5b50565b6000819050613b1b82613af9565b919050565b6000613b2b82613b0d565b9050919050565b613b3b81613b20565b82525050565b6000602082019050613b566000830184613b32565b92915050565b613b658161395f565b82525050565b6000602082019050613b806000830184613b5c565b92915050565b60008060408385031215613b9d57613b9c6137fb565b5b6000613bab85828601613988565b9250506020613bbc85828601613988565b9150509250929050565b7f4e487b7100000000000000000000000000000000000000000000000000000000600052601260045260246000fd5b7f4e487b7100000000000000000000000000000000000000000000000000000000600052601160045260246000fd5b6000613c2f82613800565b9150613c3a83613800565b925082613c4a57613c49613bc6565b5b828204905092915050565b6000613c6082613800565b9150613c6b83613800565b9250828203905081811115613c8357613c82613bf5565b5b92915050565b6000613c9482613800565b9150613c9f83613800565b9250828202613cad81613800565b91508282048414831517613cc457613cc3613bf5565b5b5092915050565b7f4e487b7100000000000000000000000000000000000000000000000000000000600052602260045260246000fd5b60006002820490506001821680613d1257607f821691505b602082108103613d2557613d24613ccb565b5b50919050565b7f45524332303a207472616e7366657220616d6f756e742065786365656473206160008201527f6c6c6f77616e6365000000000000000000000000000000000000000000000000602082015250565b6000613d87602883613898565b9150613d9282613d2b565b604082019050919050565b60006020820190508181036000830152613db681613d7a565b9050919050565b7f4f776e61626c653a2063616c6c6572206973206e6f7420746865206f776e6572600082015250565b6000613df3602083613898565b9150613dfe82613dbd565b602082019050919050565b60006020820190508181036000830152613e2281613de6565b9050919050565b6000613e3482613800565b9150613e3f83613800565b9250828201905080821115613e5757613e56613bf5565b5b92915050565b6000604082019050613e726000830185613b5c565b613e7f6020830184613863565b9392505050565b613e8f816139dd565b8114613e9a57600080fd5b50565b600081519050613eac81613e86565b92915050565b600060208284031215613ec857613ec76137fb565b5b6000613ed684828501613e9d565b91505092915050565b7f45524332303a206275726e20616d6f756e74206578636565647320616c6c6f7760008201527f616e636500000000000000000000000000000000000000000000000000000000602082015250565b6000613f3b602483613898565b9150613f4682613edf565b604082019050919050565b60006020820190508181036000830152613f6a81613f2e565b9050919050565b7f45524332303a2064656372656173656420616c6c6f77616e63652062656c6f7760008201527f207a65726f000000000000000000000000000000000000000000000000000000602082015250565b6000613fcd602583613898565b9150613fd882613f71565b604082019050919050565b60006020820190508181036000830152613ffc81613fc0565b9050919050565b7f4f776e61626c653a206e6577206f776e657220697320746865207a65726f206160008201527f6464726573730000000000000000000000000000000000000000000000000000602082015250565b600061405f602683613898565b915061406a82614003565b604082019050919050565b6000602082019050818103600083015261408e81614052565b9050919050565b7f45524332303a206d696e7420746f20746865207a65726f206164647265737300600082015250565b60006140cb601f83613898565b91506140d682614095565b602082019050919050565b600060208201905081810360008301526140fa816140be565b9050919050565b6000819050919050565b61411481614101565b811461411f57600080fd5b50565b6000815190506141318161410b565b92915050565b60006020828403121561414d5761414c6137fb565b5b600061415b84828501614122565b91505092915050565b600061416f82613800565b915061417a83613800565b92508261418a57614189613bc6565b5b828206905092915050565b7f45524332303a20617070726f76652066726f6d20746865207a65726f2061646460008201527f7265737300000000000000000000000000000000000000000000000000000000602082015250565b60006141f1602483613898565b91506141fc82614195565b604082019050919050565b60006020820190508181036000830152614220816141e4565b9050919050565b7f45524332303a20617070726f766520746f20746865207a65726f20616464726560008201527f7373000000000000000000000000000000000000000000000000000000000000602082015250565b6000614283602283613898565b915061428e82614227565b604082019050919050565b600060208201905081810360008301526142b281614276565b9050919050565b7f45524332303a207472616e736665722066726f6d20746865207a65726f20616460008201527f6472657373000000000000000000000000000000000000000000000000000000602082015250565b6000614315602583613898565b9150614320826142b9565b604082019050919050565b6000602082019050818103600083015261434481614308565b9050919050565b7f45524332303a207472616e7366657220746f20746865207a65726f206164647260008201527f6573730000000000000000000000000000000000000000000000000000000000602082015250565b60006143a7602383613898565b91506143b28261434b565b604082019050919050565b600060208201905081810360008301526143d68161439a565b9050919050565b7f45524332303a207472616e7366657220616d6f756e742065786365656473206260008201527f616c616e63650000000000000000000000000000000000000000000000000000602082015250565b6000614439602683613898565b9150614444826143dd565b604082019050919050565b600060208201905081810360008301526144688161442c565b9050919050565b60008151905061447e8161380a565b92915050565b60006020828403121561449a576144996137fb565b5b60006144a88482850161446f565b91505092915050565b7f4e487b7100000000000000000000000000000000000000000000000000000000600052603260045260246000fd5b60006144eb82613800565b91507fffffffffffffffffffffffffffffffffffffffffffffffffffffffffffffffff820361451d5761451c613bf5565b5b600182019050919050565b7f45524332303a206275726e2066726f6d20746865207a65726f2061646472657360008201527f7300000000000000000000000000000000000000000000000000000000000000602082015250565b6000614584602183613898565b915061458f82614528565b604082019050919050565b600060208201905081810360008301526145b381614577565b9050919050565b7f45524332303a206275726e20616d6f756e7420657863656564732062616c616e60008201527f6365000000000000000000000000000000000000000000000000000000000000602082015250565b6000614616602283613898565b9150614621826145ba565b604082019050919050565b6000602082019050818103600083015261464581614609565b9050919050565b7f5061757361626c653a206e6f7420706175736564000000000000000000000000600082015250565b6000614682601483613898565b915061468d8261464c565b602082019050919050565b600060208201905081810360008301526146b181614675565b9050919050565b7f5061757361626c653a2070617573656400000000000000000000000000000000600082015250565b60006146ee601083613898565b91506146f9826146b8565b602082019050919050565b6000602082019050818103600083015261471d816146e1565b9050919050565b7f45524332305061757361626c653a20746f6b656e207472616e7366657220776860008201527f696c652070617573656400000000000000000000000000000000000000000000602082015250565b6000614780602a83613898565b915061478b82614724565b604082019050919050565b600060208201905081810360008301526147af81614773565b905091905056fea2646970667358221220e5e683cb4f445f43fda38d82d1554d882f75b438abe93dc769d55a791e15819464736f6c63430008110033a26469706673582212203e4396d0ea6e3ead521407a16fd8e97171b1121d185d9c1bf94e17332b250e8d64736f6c6343000811003360806040523480156200001157600080fd5b5060405162005d9038038062005d90833981810160405281019062000037919062001041565b868681600390816200004a919062001373565b5080600490816200005c919062001373565b5050506000600560006101000a81548160ff0219169083151502179055506200009a6200008e6200038560201b60201c565b6200038d60201b60201c565b60014603620000fe5773e47da91495c75e1d48569f343938380d8303b1f2600660006101000a81548173ffffffffffffffffffffffffffffffffffffffff021916908373ffffffffffffffffffffffffffffffffffffffff1602179055506200022a565b60054603620001625773e47da91495c75e1d48569f343938380d8303b1f2600660006101000a81548173ffffffffffffffffffffffffffffffffffffffff021916908373ffffffffffffffffffffffffffffffffffffffff16021790555062000229565b60894603620001c65773e47da91495c75e1d48569f343938380d8303b1f2600660006101000a81548173ffffffffffffffffffffffffffffffffffffffff021916908373ffffffffffffffffffffffffffffffffffffffff16021790555062000228565b620138814603620002275773e47da91495c75e1d48569f343938380d8303b1f2600660006101000a81548173ffffffffffffffffffffffffffffffffffffffff021916908373ffffffffffffffffffffffffffffffffffffffff1602179055505b5b5b5b6200023b856200045360201b60201c565b508360098190555086600c908162000254919062001373565b5082600b60006101000a81548160ff02191690831515021790555081600b60016101000a81548160ff0219169083151502179055506200029a8162000cf860201b60201c565b600d60006101000a81548160ff02191690836004811115620002c157620002c06200145a565b5b02179055506040518060600160405280600a548152602001868152602001600d60009054906101000a900460ff1660048111156200030457620003036200145a565b5b815250600e600a548154811062000320576200031f62001489565b5b9060005260206000209060030201600082015181600001556020820151816001015560408201518160020160006101000a81548160ff0219169083600481111562000370576200036f6200145a565b5b02179055509050505050505050505062001594565b600033905090565b6000600560019054906101000a900473ffffffffffffffffffffffffffffffffffffffff16905081600560016101000a81548173ffffffffffffffffffffffffffffffffffffffff021916908373ffffffffffffffffffffffffffffffffffffffff1602179055508173ffffffffffffffffffffffffffffffffffffffff168173ffffffffffffffffffffffffffffffffffffffff167f8be0079c531659141344cd1fd0a4f28419497f9722a3daafe3b4186f6b6457e060405160405180910390a35050565b600080600060048111156200046d576200046c6200145a565b5b600d60009054906101000a900460ff1660048111156200049257620004916200145a565b5b03620006335760008173ffffffffffffffffffffffffffffffffffffffff16638d4a8ffe856040518263ffffffff1660e01b8152600401620004d59190620014c9565b602060405180830381865afa158015620004f3573d6000803e3d6000fd5b505050506040513d601f19601f82011682018060405250810190620005199190620014e6565b9050600081101562000557576040517fc1a21f4e00000000000000000000000000000000000000000000000000000000815260040160405180910390fd5b6040518060600160405280600a548152602001828152602001600d60009054906101000a900460ff1660048111156200059557620005946200145a565b5b815250600e600a5481548110620005b157620005b062001489565b5b9060005260206000209060030201600082015181600001556020820151816001015560408201518160020160006101000a81548160ff021916908360048111156200060157620006006200145a565b5b0217905550905050600a60008154809291906200061e9062001547565b91905055508060078190559250505062000cf3565b600160048111156200064a57620006496200145a565b5b600d60009054906101000a900460ff1660048111156200066f576200066e6200145a565b5b03620007925760008390506000811015620006b6576040517fc1a21f4e00000000000000000000000000000000000000000000000000000000815260040160405180910390fd5b6040518060600160405280600a548152602001828152602001600d60009054906101000a900460ff166004811115620006f457620006f36200145a565b5b815250600e600a548154811062000710576200070f62001489565b5b9060005260206000209060030201600082015181600001556020820151816001015560408201518160020160006101000a81548160ff0219169083600481111562000760576200075f6200145a565b5b0217905550905050600a60008154809291906200077d9062001547565b91905055508060078190559250505062000cf3565b60026004811115620007a957620007a86200145a565b5b600d60009054906101000a900460ff166004811115620007ce57620007cd6200145a565b5b036200096f5760008173ffffffffffffffffffffffffffffffffffffffff16637afcc7a4856040518263ffffffff1660e01b8152600401620008119190620014c9565b602060405180830381865afa1580156200082f573d6000803e3d6000fd5b505050506040513d601f19601f82011682018060405250810190620008559190620014e6565b9050600081101562000893576040517fc1a21f4e00000000000000000000000000000000000000000000000000000000815260040160405180910390fd5b6040518060600160405280600a548152602001828152602001600d60009054906101000a900460ff166004811115620008d157620008d06200145a565b5b815250600e600a5481548110620008ed57620008ec62001489565b5b9060005260206000209060030201600082015181600001556020820151816001015560408201518160020160006101000a81548160ff021916908360048111156200093d576200093c6200145a565b5b0217905550905050600a60008154809291906200095a9062001547565b91905055508060078190559250505062000cf3565b600360048111156200098657620009856200145a565b5b600d60009054906101000a900460ff166004811115620009ab57620009aa6200145a565b5b0362000b4c5760008173ffffffffffffffffffffffffffffffffffffffff166387434dcd856040518263ffffffff1660e01b8152600401620009ee9190620014c9565b602060405180830381865afa15801562000a0c573d6000803e3d6000fd5b505050506040513d601f19601f8201168201806040525081019062000a329190620014e6565b9050600081101562000a70576040517fc1a21f4e00000000000000000000000000000000000000000000000000000000815260040160405180910390fd5b6040518060600160405280600a548152602001828152602001600d60009054906101000a900460ff16600481111562000aae5762000aad6200145a565b5b815250600e600a548154811062000aca5762000ac962001489565b5b9060005260206000209060030201600082015181600001556020820151816001015560408201518160020160006101000a81548160ff0219169083600481111562000b1a5762000b196200145a565b5b0217905550905050600a600081548092919062000b379062001547565b91905055508060078190559250505062000cf3565b60048081111562000b625762000b616200145a565b5b600d60009054906101000a900460ff16600481111562000b875762000b866200145a565b5b0362000cec5760008173ffffffffffffffffffffffffffffffffffffffff1663d1381f4e856040518263ffffffff1660e01b815260040162000bca9190620014c9565b602060405180830381865afa15801562000be8573d6000803e3d6000fd5b505050506040513d601f19601f8201168201806040525081019062000c0e9190620014e6565b90506040518060600160405280600a548152602001828152602001600d60009054906101000a900460ff16600481111562000c4e5762000c4d6200145a565b5b815250600e600a548154811062000c6a5762000c6962001489565b5b9060005260206000209060030201600082015181600001556020820151816001015560408201518160020160006101000a81548160ff0219169083600481111562000cba5762000cb96200145a565b5b0217905550905050600a600081548092919062000cd79062001547565b91905055508060078190559250505062000cf3565b6007549150505b919050565b600080820362000d36576000600d60006101000a81548160ff0219169083600481111562000d2b5762000d2a6200145a565b5b021790555062000e1f565b6001820362000d73576001600d60006101000a81548160ff0219169083600481111562000d685762000d676200145a565b5b021790555062000e1e565b6002820362000db0576002600d60006101000a81548160ff0219169083600481111562000da55762000da46200145a565b5b021790555062000e1d565b6003820362000ded576003600d60006101000a81548160ff0219169083600481111562000de25762000de16200145a565b5b021790555062000e1c565b6004600d60006101000a81548160ff0219169083600481111562000e165762000e156200145a565b5b02179055505b5b5b5b600d60009054906101000a900460ff169050919050565b6000604051905090565b600080fd5b600080fd5b600080fd5b600080fd5b6000601f19601f8301169050919050565b7f4e487b7100000000000000000000000000000000000000000000000000000000600052604160045260246000fd5b62000e9f8262000e54565b810181811067ffffffffffffffff8211171562000ec15762000ec062000e65565b5b80604052505050565b600062000ed662000e36565b905062000ee4828262000e94565b919050565b600067ffffffffffffffff82111562000f075762000f0662000e65565b5b62000f128262000e54565b9050602081019050919050565b60005b8381101562000f3f57808201518184015260208101905062000f22565b60008484015250505050565b600062000f6262000f5c8462000ee9565b62000eca565b90508281526020810184848401111562000f815762000f8062000e4f565b5b62000f8e84828562000f1f565b509392505050565b600082601f83011262000fae5762000fad62000e4a565b5b815162000fc084826020860162000f4b565b91505092915050565b6000819050919050565b62000fde8162000fc9565b811462000fea57600080fd5b50565b60008151905062000ffe8162000fd3565b92915050565b60008115159050919050565b6200101b8162001004565b81146200102757600080fd5b50565b6000815190506200103b8162001010565b92915050565b600080600080600080600060e0888a03121562001063576200106262000e40565b5b600088015167ffffffffffffffff81111562001084576200108362000e45565b5b620010928a828b0162000f96565b975050602088015167ffffffffffffffff811115620010b657620010b562000e45565b5b620010c48a828b0162000f96565b9650506040620010d78a828b0162000fed565b9550506060620010ea8a828b0162000fed565b9450506080620010fd8a828b016200102a565b93505060a0620011108a828b016200102a565b92505060c0620011238a828b0162000fed565b91505092959891949750929550565b600081519050919050565b7f4e487b7100000000000000000000000000000000000000000000000000000000600052602260045260246000fd5b600060028204905060018216806200118557607f821691505b6020821081036200119b576200119a6200113d565b5b50919050565b60008190508160005260206000209050919050565b60006020601f8301049050919050565b600082821b905092915050565b600060088302620012057fffffffffffffffffffffffffffffffffffffffffffffffffffffffffffffffff82620011c6565b620012118683620011c6565b95508019841693508086168417925050509392505050565b6000819050919050565b6000620012546200124e620012488462000fc9565b62001229565b62000fc9565b9050919050565b6000819050919050565b620012708362001233565b620012886200127f826200125b565b848454620011d3565b825550505050565b600090565b6200129f62001290565b620012ac81848462001265565b505050565b5b81811015620012d457620012c860008262001295565b600181019050620012b2565b5050565b601f8211156200132357620012ed81620011a1565b620012f884620011b6565b8101602085101562001308578190505b620013206200131785620011b6565b830182620012b1565b50505b505050565b600082821c905092915050565b6000620013486000198460080262001328565b1980831691505092915050565b600062001363838362001335565b9150826002028217905092915050565b6200137e8262001132565b67ffffffffffffffff8111156200139a576200139962000e65565b5b620013a682546200116c565b620013b3828285620012d8565b600060209050601f831160018114620013eb5760008415620013d6578287015190505b620013e2858262001355565b86555062001452565b601f198416620013fb86620011a1565b60005b828110156200142557848901518255600182019150602085019450602081019050620013fe565b8683101562001445578489015162001441601f89168262001335565b8355505b6001600288020188555050505b505050505050565b7f4e487b7100000000000000000000000000000000000000000000000000000000600052602160045260246000fd5b7f4e487b7100000000000000000000000000000000000000000000000000000000600052603260045260246000fd5b620014c38162000fc9565b82525050565b6000602082019050620014e06000830184620014b8565b92915050565b600060208284031215620014ff57620014fe62000e40565b5b60006200150f8482850162000fed565b91505092915050565b7f4e487b7100000000000000000000000000000000000000000000000000000000600052601160045260246000fd5b6000620015548262000fc9565b91507fffffffffffffffffffffffffffffffffffffffffffffffffffffffffffffffff820362001589576200158862001518565b5b600182019050919050565b6147ec80620015a46000396000f3fe60806040526004361061031e5760003560e01c8063715018a6116101ab578063a457c2d7116100f7578063dd62ed3e11610095578063e2ab78131161006f578063e2ab781314610c99578063e9f38fc514610cd6578063f2fde38b14610d13578063f42fff0114610d3c5761032d565b8063dd62ed3e14610c06578063e04777af14610c43578063e12ef5ed14610c6e5761032d565b8063c4ae3168116100d1578063c4ae316814610b48578063d1381f4e14610b73578063d21b872014610bb0578063d37e510414610bdb5761032d565b8063a457c2d714610aa3578063a9059cbb14610ae0578063bec9908e14610b1d5761032d565b8063836ceb9d116101645780638da5cb5b1161013e5780638da5cb5b146109f75780638dff74a714610a2257806395d89b4114610a4d57806396af428a14610a785761032d565b8063836ceb9d1461094057806387434dcd1461097d5780638d4a8ffe146109ba5761032d565b8063715018a614610842578063778a56ce1461085957806379cc67901461088457806379d79fcc146108ad5780637afcc7a4146108d85780637d670117146109155761032d565b806334fcf4371161026a5780634a2ad99f116102235780636260f55b116101fd5780636260f55b146107725780636a443b591461079d5780636f8b44b0146107c857806370a08231146108055761032d565b80634a2ad99f146106df5780634a79d50c1461071c5780635c975abb146107475761032d565b806334fcf437146105b65780633610724e146105f3578063395093511461062357806342966c6814610660578063445919461461068957806348cf734d146106b45761032d565b8063201a49d6116102d757806329d7a0bd116102b157806329d7a0bd1461050a5780632c4e722e14610535578063313ce5671461056057806332cb6b0c1461058b5761032d565b8063201a49d61461047757806323b872dd146104a2578063287ead9e146104df5761032d565b8063033a7a021461033f578063054dca2a1461037c57806306fdde03146103a7578063095ea7b3146103d25780630b4185ea1461040f57806318160ddd1461044c5761032d565b3661032d5761032b610d67565b005b610335610d67565b61033d610d86565b005b34801561034b57600080fd5b5061036660048036038101906103619190613836565b610e38565b6040516103739190613872565b60405180910390f35b34801561038857600080fd5b50610391610e81565b60405161039e9190613872565b60405180910390f35b3480156103b357600080fd5b506103bc610ebe565b6040516103c9919061391d565b60405180910390f35b3480156103de57600080fd5b506103f960048036038101906103f4919061399d565b610f50565b60405161040691906139f8565b60405180910390f35b34801561041b57600080fd5b5061043660048036038101906104319190613836565b610f6e565b6040516104439190613872565b60405180910390f35b34801561045857600080fd5b50610461610fb7565b60405161046e9190613872565b60405180910390f35b34801561048357600080fd5b5061048c610fc1565b6040516104999190613872565b60405180910390f35b3480156104ae57600080fd5b506104c960048036038101906104c49190613a13565b610fc7565b6040516104d691906139f8565b60405180910390f35b3480156104eb57600080fd5b506104f46110bf565b6040516105019190613872565b60405180910390f35b34801561051657600080fd5b5061051f6110fc565b60405161052c9190613872565b60405180910390f35b34801561054157600080fd5b5061054a611139565b6040516105579190613872565b60405180910390f35b34801561056c57600080fd5b5061057561113f565b6040516105829190613a82565b60405180910390f35b34801561059757600080fd5b506105a0611148565b6040516105ad9190613872565b60405180910390f35b3480156105c257600080fd5b506105dd60048036038101906105d89190613836565b61114e565b6040516105ea9190613872565b60405180910390f35b61060d60048036038101906106089190613836565b6111dc565b60405161061a9190613872565b60405180910390f35b34801561062f57600080fd5b5061064a6004803603810190610645919061399d565b6112be565b60405161065791906139f8565b60405180910390f35b34801561066c57600080fd5b5061068760048036038101906106829190613836565b61136a565b005b34801561069557600080fd5b5061069e6113c4565b6040516106ab9190613872565b60405180910390f35b3480156106c057600080fd5b506106c96113d3565b6040516106d69190613872565b60405180910390f35b3480156106eb57600080fd5b506107066004803603810190610701919061399d565b611410565b60405161071391906139f8565b60405180910390f35b34801561072857600080fd5b506107316114ba565b60405161073e919061391d565b60405180910390f35b34801561075357600080fd5b5061075c611548565b60405161076991906139f8565b60405180910390f35b34801561077e57600080fd5b5061078761155f565b6040516107949190613872565b60405180910390f35b3480156107a957600080fd5b506107b261156e565b6040516107bf9190613872565b60405180910390f35b3480156107d457600080fd5b506107ef60048036038101906107ea9190613836565b61157d565b6040516107fc9190613872565b60405180910390f35b34801561081157600080fd5b5061082c60048036038101906108279190613a9d565b611608565b6040516108399190613872565b60405180910390f35b34801561084e57600080fd5b50610857611650565b005b34801561086557600080fd5b5061086e6116d8565b60405161087b91906139f8565b60405180910390f35b34801561089057600080fd5b506108ab60048036038101906108a6919061399d565b611784565b005b3480156108b957600080fd5b506108c26117ff565b6040516108cf9190613872565b60405180910390f35b3480156108e457600080fd5b506108ff60048036038101906108fa9190613836565b61180e565b60405161090c9190613872565b60405180910390f35b34801561092157600080fd5b5061092a611858565b6040516109379190613872565b60405180910390f35b34801561094c57600080fd5b5061096760048036038101906109629190613836565b611867565b6040516109749190613b41565b60405180910390f35b34801561098957600080fd5b506109a4600480360381019061099f9190613836565b6118f5565b6040516109b19190613872565b60405180910390f35b3480156109c657600080fd5b506109e160048036038101906109dc9190613836565b61193f565b6040516109ee9190613872565b60405180910390f35b348015610a0357600080fd5b50610a0c611989565b604051610a199190613b6b565b60405180910390f35b348015610a2e57600080fd5b50610a376119b3565b604051610a449190613872565b60405180910390f35b348015610a5957600080fd5b50610a626119f0565b604051610a6f919061391d565b60405180910390f35b348015610a8457600080fd5b50610a8d611a82565b604051610a9a9190613872565b60405180910390f35b348015610aaf57600080fd5b50610aca6004803603810190610ac5919061399d565b611a91565b604051610ad791906139f8565b60405180910390f35b348015610aec57600080fd5b50610b076004803603810190610b02919061399d565b611b7c565b604051610b1491906139f8565b60405180910390f35b348015610b2957600080fd5b50610b32611b9a565b604051610b3f9190613872565b60405180910390f35b348015610b5457600080fd5b50610b5d611bd7565b604051610b6a91906139f8565b60405180910390f35b348015610b7f57600080fd5b50610b9a6004803603810190610b959190613836565b611c83565b604051610ba79190613872565b60405180910390f35b348015610bbc57600080fd5b50610bc5611ccd565b604051610bd29190613872565b60405180910390f35b348015610be757600080fd5b50610bf0611d0a565b604051610bfd91906139f8565b60405180910390f35b348015610c1257600080fd5b50610c2d6004803603810190610c289190613b86565b611e05565b604051610c3a9190613872565b60405180910390f35b348015610c4f57600080fd5b50610c58611e8c565b604051610c659190613872565b60405180910390f35b348015610c7a57600080fd5b50610c83611e9b565b604051610c909190613872565b60405180910390f35b348015610ca557600080fd5b50610cc06004803603810190610cbb9190613836565b611ed8565b604051610ccd9190613872565b60405180910390f35b348015610ce257600080fd5b50610cfd6004803603810190610cf8919061399d565b611f22565b604051610d0a91906139f8565b60405180910390f35b348015610d1f57600080fd5b50610d3a6004803603810190610d359190613a9d565b611fcc565b005b348015610d4857600080fd5b50610d516120c3565b604051610d5e9190613872565b60405180910390f35b600060075434610d779190613c24565b9050610d833382612100565b50565b60008060075482610d979190613c24565b9050600754811015610dd5576040517f99956c4600000000000000000000000000000000000000000000000000000000815260040160405180910390fd5b600081600854600954610de89190613c55565b610df29190613c55565b1015610e2a576040517f1e6f0b5400000000000000000000000000000000000000000000000000000000815260040160405180910390fd5b610e343382612100565b5050565b6000806509184e72a00083610e4d9190613c89565b90506000610e5961225f565b9050610e78670de0b6b3a764000083610e729190613c89565b826122fc565b92505050919050565b600080610e8c61232d565b90506000610e9861225f565b9050610eb7670de0b6b3a764000083610eb19190613c89565b826122fc565b9250505090565b606060038054610ecd90613cfa565b80601f0160208091040260200160405190810160405280929190818152602001828054610ef990613cfa565b8015610f465780601f10610f1b57610100808354040283529160200191610f46565b820191906000526020600020905b815481529060010190602001808311610f2957829003601f168201915b5050505050905090565b6000610f64610f5d6123ca565b84846123d2565b6001905092915050565b6000806509184e72a00083610f839190613c89565b90506000610f8f61232d565b9050610fae670de0b6b3a764000083610fa89190613c89565b826122fc565b92505050919050565b6000600254905090565b60085481565b6000610fd484848461259b565b6000600160008673ffffffffffffffffffffffffffffffffffffffff1673ffffffffffffffffffffffffffffffffffffffff168152602001908152602001600020600061101f6123ca565b73ffffffffffffffffffffffffffffffffffffffff1673ffffffffffffffffffffffffffffffffffffffff1681526020019081526020016000205490508281101561109f576040517f08c379a000000000000000000000000000000000000000000000000000000000815260040161109690613d9d565b60405180910390fd5b6110b3856110ab6123ca565b8584036123d2565b60019150509392505050565b6000806110ca61225f565b905060006110d661281a565b90506110f5670de0b6b3a7640000836110ef9190613c89565b826122fc565b9250505090565b60008061110761232d565b905060006111136128b7565b9050611132670de0b6b3a76400008361112c9190613c89565b826122fc565b9250505090565b60075481565b60006012905090565b60095481565b60006111586123ca565b73ffffffffffffffffffffffffffffffffffffffff16611176611989565b73ffffffffffffffffffffffffffffffffffffffff16146111cc576040517f08c379a00000000000000000000000000000000000000000000000000000000081526004016111c390613e09565b60405180910390fd5b6111d582612954565b9050919050565b6000600754826111ec9190613c89565b3411611224576040517f99956c4600000000000000000000000000000000000000000000000000000000815260040160405180910390fd5b6000670de0b6b3a76400008361123a9190613c89565b60085460095461124a9190613c55565b6112549190613c55565b101561128c576040517f1e6f0b5400000000000000000000000000000000000000000000000000000000815260040160405180910390fd5b6112a933670de0b6b3a7640000846112a49190613c89565b612100565b600754826112b79190613c89565b9050919050565b60006113606112cb6123ca565b8484600160006112d96123ca565b73ffffffffffffffffffffffffffffffffffffffff1673ffffffffffffffffffffffffffffffffffffffff16815260200190815260200160002060008873ffffffffffffffffffffffffffffffffffffffff1673ffffffffffffffffffffffffffffffffffffffff1681526020019081526020016000205461135b9190613e29565b6123d2565b6001905092915050565b60001515600b60009054906101000a900460ff161515036113b7576040517ffebe7e1900000000000000000000000000000000000000000000000000000000815260040160405180910390fd5b6113c13382613182565b50565b60006113ce61225f565b905090565b6000806113de61232d565b905060006113ea61281a565b9050611409670de0b6b3a7640000836114039190613c89565b826122fc565b9250505090565b6000600660009054906101000a900473ffffffffffffffffffffffffffffffffffffffff1673ffffffffffffffffffffffffffffffffffffffff16634a2ad99f84846040518363ffffffff1660e01b815260040161146f929190613e5d565b6020604051808303816000875af115801561148e573d6000803e3d6000fd5b505050506040513d601f19601f820116820180604052508101906114b29190613eb2565b905092915050565b600c80546114c790613cfa565b80601f01602080910402602001604051908101604052809291908181526020018280546114f390613cfa565b80156115405780601f1061151557610100808354040283529160200191611540565b820191906000526020600020905b81548152906001019060200180831161152357829003601f168201915b505050505081565b6000600560009054906101000a900460ff16905090565b600061156961232d565b905090565b6000611578613358565b905090565b60006115876123ca565b73ffffffffffffffffffffffffffffffffffffffff166115a5611989565b73ffffffffffffffffffffffffffffffffffffffff16146115fb576040517f08c379a00000000000000000000000000000000000000000000000000000000081526004016115f290613e09565b60405180910390fd5b8160098190559050919050565b60008060008373ffffffffffffffffffffffffffffffffffffffff1673ffffffffffffffffffffffffffffffffffffffff168152602001908152602001600020549050919050565b6116586123ca565b73ffffffffffffffffffffffffffffffffffffffff16611676611989565b73ffffffffffffffffffffffffffffffffffffffff16146116cc576040517f08c379a00000000000000000000000000000000000000000000000000000000081526004016116c390613e09565b60405180910390fd5b6116d66000613395565b565b60006116e26123ca565b73ffffffffffffffffffffffffffffffffffffffff16611700611989565b73ffffffffffffffffffffffffffffffffffffffff1614611756576040517f08c379a000000000000000000000000000000000000000000000000000000000815260040161174d90613e09565b60405180910390fd5b600b60009054906101000a900460ff1615600b60006101000a81548160ff0219169083151502179055905090565b6000611797836117926123ca565b611e05565b9050818110156117dc576040517f08c379a00000000000000000000000000000000000000000000000000000000081526004016117d390613f51565b60405180910390fd5b6117f0836117e86123ca565b8484036123d2565b6117fa8383613182565b505050565b600061180961345b565b905090565b600080662386f26fc10000836118249190613c89565b9050600061183061345b565b905061184f670de0b6b3a7640000836118499190613c89565b826122fc565b92505050919050565b6000611862613498565b905090565b60006118716123ca565b73ffffffffffffffffffffffffffffffffffffffff1661188f611989565b73ffffffffffffffffffffffffffffffffffffffff16146118e5576040517f08c379a00000000000000000000000000000000000000000000000000000000081526004016118dc90613e09565b60405180910390fd5b6118ee826134d5565b9050919050565b600080662386f26fc100008361190b9190613c89565b90506000611917613358565b9050611936670de0b6b3a7640000836119309190613c89565b826122fc565b92505050919050565b600080662386f26fc10000836119559190613c89565b90506000611961613498565b9050611980670de0b6b3a76400008361197a9190613c89565b826122fc565b92505050919050565b6000600560019054906101000a900473ffffffffffffffffffffffffffffffffffffffff16905090565b6000806119be6128b7565b905060006119ca61281a565b90506119e9670de0b6b3a7640000826119e39190613c89565b836122fc565b9250505090565b6060600480546119ff90613cfa565b80601f0160208091040260200160405190810160405280929190818152602001828054611a2b90613cfa565b8015611a785780601f10611a4d57610100808354040283529160200191611a78565b820191906000526020600020905b815481529060010190602001808311611a5b57829003601f168201915b5050505050905090565b6000611a8c61281a565b905090565b60008060016000611aa06123ca565b73ffffffffffffffffffffffffffffffffffffffff1673ffffffffffffffffffffffffffffffffffffffff16815260200190815260200160002060008573ffffffffffffffffffffffffffffffffffffffff1673ffffffffffffffffffffffffffffffffffffffff16815260200190815260200160002054905082811015611b5d576040517f08c379a0000000000000000000000000000000000000000000000000000000008152600401611b5490613fe3565b60405180910390fd5b611b71611b686123ca565b858584036123d2565b600191505092915050565b6000611b90611b896123ca565b848461259b565b6001905092915050565b600080611ba561232d565b90506000611bb161281a565b9050611bd0670de0b6b3a764000082611bca9190613c89565b836122fc565b9250505090565b6000611be16123ca565b73ffffffffffffffffffffffffffffffffffffffff16611bff611989565b73ffffffffffffffffffffffffffffffffffffffff1614611c55576040517f08c379a0000000000000000000000000000000000000000000000000000000008152600401611c4c90613e09565b60405180910390fd5b600b60019054906101000a900460ff1615600b60016101000a81548160ff0219169083151502179055905090565b600080662386f26fc1000083611c999190613c89565b90506000611ca56128b7565b9050611cc4670de0b6b3a764000083611cbe9190613c89565b826122fc565b92505050919050565b600080611cd86128b7565b90506000611ce461225f565b9050611d03670de0b6b3a764000082611cfd9190613c89565b836122fc565b9250505090565b6000611d146123ca565b73ffffffffffffffffffffffffffffffffffffffff16611d32611989565b73ffffffffffffffffffffffffffffffffffffffff1614611d88576040517f08c379a0000000000000000000000000000000000000000000000000000000008152600401611d7f90613e09565b60405180910390fd5b60001515600b60019054906101000a900460ff16151503611dd5576040517fda61c0d800000000000000000000000000000000000000000000000000000000815260040160405180910390fd5b611ddd611548565b15611def57611dea6135fc565b611df8565b611df761369e565b5b611e00611548565b905090565b6000600160008473ffffffffffffffffffffffffffffffffffffffff1673ffffffffffffffffffffffffffffffffffffffff16815260200190815260200160002060008373ffffffffffffffffffffffffffffffffffffffff1673ffffffffffffffffffffffffffffffffffffffff16815260200190815260200160002054905092915050565b6000611e966128b7565b905090565b600080611ea661225f565b90506000611eb261281a565b9050611ed1670de0b6b3a764000082611ecb9190613c89565b836122fc565b9250505090565b600080662386f26fc1000083611eee9190613c89565b90506000611efa61281a565b9050611f19670de0b6b3a764000083611f139190613c89565b826122fc565b92505050919050565b6000600660009054906101000a900473ffffffffffffffffffffffffffffffffffffffff1673ffffffffffffffffffffffffffffffffffffffff1663e9f38fc584846040518363ffffffff1660e01b8152600401611f81929190613e5d565b6020604051808303816000875af1158015611fa0573d6000803e3d6000fd5b505050506040513d601f19601f82011682018060405250810190611fc49190613eb2565b905092915050565b611fd46123ca565b73ffffffffffffffffffffffffffffffffffffffff16611ff2611989565b73ffffffffffffffffffffffffffffffffffffffff1614612048576040517f08c379a000000000000000000000000000000000000000000000000000000000815260040161203f90613e09565b60405180910390fd5b600073ffffffffffffffffffffffffffffffffffffffff168173ffffffffffffffffffffffffffffffffffffffff16036120b7576040517f08c379a00000000000000000000000000000000000000000000000000000000081526004016120ae90614075565b60405180910390fd5b6120c081613395565b50565b6000806120ce61232d565b905060006120da61225f565b90506120f9670de0b6b3a7640000826120f39190613c89565b836122fc565b9250505090565b600073ffffffffffffffffffffffffffffffffffffffff168273ffffffffffffffffffffffffffffffffffffffff160361216f576040517f08c379a0000000000000000000000000000000000000000000000000000000008152600401612166906140e1565b60405180910390fd5b61217b60008383613741565b806002600082825461218d9190613e29565b92505081905550806000808473ffffffffffffffffffffffffffffffffffffffff1673ffffffffffffffffffffffffffffffffffffffff16815260200190815260200160002060008282546121e29190613e29565b925050819055508173ffffffffffffffffffffffffffffffffffffffff16600073ffffffffffffffffffffffffffffffffffffffff167fddf252ad1be2c89b69c2b068fc378daa952ba7f163c4a11628f55a4df523b3ef836040516122479190613872565b60405180910390a361225b60008383613799565b5050565b600080600660009054906101000a900473ffffffffffffffffffffffffffffffffffffffff1673ffffffffffffffffffffffffffffffffffffffff166396722fe56040518163ffffffff1660e01b8152600401602060405180830381865afa1580156122cf573d6000803e3d6000fd5b505050506040513d601f19601f820116820180604052508101906122f39190614137565b90508091505090565b600080828461230b9190614164565b905082818561231a9190613c55565b6123249190613c24565b91505092915050565b600080600660009054906101000a900473ffffffffffffffffffffffffffffffffffffffff1673ffffffffffffffffffffffffffffffffffffffff16639a18c7956040518163ffffffff1660e01b8152600401602060405180830381865afa15801561239d573d6000803e3d6000fd5b505050506040513d601f19601f820116820180604052508101906123c19190614137565b90508091505090565b600033905090565b600073ffffffffffffffffffffffffffffffffffffffff168373ffffffffffffffffffffffffffffffffffffffff1603612441576040517f08c379a000000000000000000000000000000000000000000000000000000000815260040161243890614207565b60405180910390fd5b600073ffffffffffffffffffffffffffffffffffffffff168273ffffffffffffffffffffffffffffffffffffffff16036124b0576040517f08c379a00000000000000000000000000000000000000000000000000000000081526004016124a790614299565b60405180910390fd5b80600160008573ffffffffffffffffffffffffffffffffffffffff1673ffffffffffffffffffffffffffffffffffffffff16815260200190815260200160002060008473ffffffffffffffffffffffffffffffffffffffff1673ffffffffffffffffffffffffffffffffffffffff168152602001908152602001600020819055508173ffffffffffffffffffffffffffffffffffffffff168373ffffffffffffffffffffffffffffffffffffffff167f8c5be1e5ebec7d5bd14f71427d1e84f3dd0314c0f7b2291e5b200ac8c7c3b9258360405161258e9190613872565b60405180910390a3505050565b600073ffffffffffffffffffffffffffffffffffffffff168373ffffffffffffffffffffffffffffffffffffffff160361260a576040517f08c379a00000000000000000000000000000000000000000000000000000000081526004016126019061432b565b60405180910390fd5b600073ffffffffffffffffffffffffffffffffffffffff168273ffffffffffffffffffffffffffffffffffffffff1603612679576040517f08c379a0000000000000000000000000000000000000000000000000000000008152600401612670906143bd565b60405180910390fd5b612684838383613741565b60008060008573ffffffffffffffffffffffffffffffffffffffff1673ffffffffffffffffffffffffffffffffffffffff1681526020019081526020016000205490508181101561270a576040517f08c379a00000000000000000000000000000000000000000000000000000000081526004016127019061444f565b60405180910390fd5b8181036000808673ffffffffffffffffffffffffffffffffffffffff1673ffffffffffffffffffffffffffffffffffffffff16815260200190815260200160002081905550816000808573ffffffffffffffffffffffffffffffffffffffff1673ffffffffffffffffffffffffffffffffffffffff168152602001908152602001600020600082825461279d9190613e29565b925050819055508273ffffffffffffffffffffffffffffffffffffffff168473ffffffffffffffffffffffffffffffffffffffff167fddf252ad1be2c89b69c2b068fc378daa952ba7f163c4a11628f55a4df523b3ef846040516128019190613872565b60405180910390a3612814848484613799565b50505050565b600080600660009054906101000a900473ffffffffffffffffffffffffffffffffffffffff1673ffffffffffffffffffffffffffffffffffffffff1663414641df6040518163ffffffff1660e01b8152600401602060405180830381865afa15801561288a573d6000803e3d6000fd5b505050506040513d601f19601f820116820180604052508101906128ae9190614137565b90508091505090565b600080600660009054906101000a900473ffffffffffffffffffffffffffffffffffffffff1673ffffffffffffffffffffffffffffffffffffffff1663f2e9bd7a6040518163ffffffff1660e01b8152600401602060405180830381865afa158015612927573d6000803e3d6000fd5b505050506040513d601f19601f8201168201806040525081019061294b9190614137565b90508091505090565b6000806000600481111561296b5761296a613aca565b5b600d60009054906101000a900460ff16600481111561298d5761298c613aca565b5b03612b1b5760008173ffffffffffffffffffffffffffffffffffffffff16638d4a8ffe856040518263ffffffff1660e01b81526004016129cd9190613872565b602060405180830381865afa1580156129ea573d6000803e3d6000fd5b505050506040513d601f19601f82011682018060405250810190612a0e9190614484565b90506000811015612a4b576040517fc1a21f4e00000000000000000000000000000000000000000000000000000000815260040160405180910390fd5b6040518060600160405280600a548152602001828152602001600d60009054906101000a900460ff166004811115612a8657612a85613aca565b5b815250600e600a5481548110612a9f57612a9e6144b1565b5b9060005260206000209060030201600082015181600001556020820151816001015560408201518160020160006101000a81548160ff02191690836004811115612aec57612aeb613aca565b5b0217905550905050600a6000815480929190612b07906144e0565b91905055508060078190559250505061317d565b60016004811115612b2f57612b2e613aca565b5b600d60009054906101000a900460ff166004811115612b5157612b50613aca565b5b03612c665760008390506000811015612b96576040517fc1a21f4e00000000000000000000000000000000000000000000000000000000815260040160405180910390fd5b6040518060600160405280600a548152602001828152602001600d60009054906101000a900460ff166004811115612bd157612bd0613aca565b5b815250600e600a5481548110612bea57612be96144b1565b5b9060005260206000209060030201600082015181600001556020820151816001015560408201518160020160006101000a81548160ff02191690836004811115612c3757612c36613aca565b5b0217905550905050600a6000815480929190612c52906144e0565b91905055508060078190559250505061317d565b60026004811115612c7a57612c79613aca565b5b600d60009054906101000a900460ff166004811115612c9c57612c9b613aca565b5b03612e2a5760008173ffffffffffffffffffffffffffffffffffffffff16637afcc7a4856040518263ffffffff1660e01b8152600401612cdc9190613872565b602060405180830381865afa158015612cf9573d6000803e3d6000fd5b505050506040513d601f19601f82011682018060405250810190612d1d9190614484565b90506000811015612d5a576040517fc1a21f4e00000000000000000000000000000000000000000000000000000000815260040160405180910390fd5b6040518060600160405280600a548152602001828152602001600d60009054906101000a900460ff166004811115612d9557612d94613aca565b5b815250600e600a5481548110612dae57612dad6144b1565b5b9060005260206000209060030201600082015181600001556020820151816001015560408201518160020160006101000a81548160ff02191690836004811115612dfb57612dfa613aca565b5b0217905550905050600a6000815480929190612e16906144e0565b91905055508060078190559250505061317d565b60036004811115612e3e57612e3d613aca565b5b600d60009054906101000a900460ff166004811115612e6057612e5f613aca565b5b03612fee5760008173ffffffffffffffffffffffffffffffffffffffff166387434dcd856040518263ffffffff1660e01b8152600401612ea09190613872565b602060405180830381865afa158015612ebd573d6000803e3d6000fd5b505050506040513d601f19601f82011682018060405250810190612ee19190614484565b90506000811015612f1e576040517fc1a21f4e00000000000000000000000000000000000000000000000000000000815260040160405180910390fd5b6040518060600160405280600a548152602001828152602001600d60009054906101000a900460ff166004811115612f5957612f58613aca565b5b815250600e600a5481548110612f7257612f716144b1565b5b9060005260206000209060030201600082015181600001556020820151816001015560408201518160020160006101000a81548160ff02191690836004811115612fbf57612fbe613aca565b5b0217905550905050600a6000815480929190612fda906144e0565b91905055508060078190559250505061317d565b60048081111561300157613000613aca565b5b600d60009054906101000a900460ff16600481111561302357613022613aca565b5b036131765760008173ffffffffffffffffffffffffffffffffffffffff1663d1381f4e856040518263ffffffff1660e01b81526004016130639190613872565b602060405180830381865afa158015613080573d6000803e3d6000fd5b505050506040513d601f19601f820116820180604052508101906130a49190614484565b90506040518060600160405280600a548152602001828152602001600d60009054906101000a900460ff1660048111156130e1576130e0613aca565b5b815250600e600a54815481106130fa576130f96144b1565b5b9060005260206000209060030201600082015181600001556020820151816001015560408201518160020160006101000a81548160ff0219169083600481111561314757613146613aca565b5b0217905550905050600a6000815480929190613162906144e0565b91905055508060078190559250505061317d565b6007549150505b919050565b600073ffffffffffffffffffffffffffffffffffffffff168273ffffffffffffffffffffffffffffffffffffffff16036131f1576040517f08c379a00000000000000000000000000000000000000000000000000000000081526004016131e89061459a565b60405180910390fd5b6131fd82600083613741565b60008060008473ffffffffffffffffffffffffffffffffffffffff1673ffffffffffffffffffffffffffffffffffffffff16815260200190815260200160002054905081811015613283576040517f08c379a000000000000000000000000000000000000000000000000000000000815260040161327a9061462c565b60405180910390fd5b8181036000808573ffffffffffffffffffffffffffffffffffffffff1673ffffffffffffffffffffffffffffffffffffffff1681526020019081526020016000208190555081600260008282546132da9190613c55565b92505081905550600073ffffffffffffffffffffffffffffffffffffffff168373ffffffffffffffffffffffffffffffffffffffff167fddf252ad1be2c89b69c2b068fc378daa952ba7f163c4a11628f55a4df523b3ef8460405161333f9190613872565b60405180910390a361335383600084613799565b505050565b6000806133636128b7565b9050600061336f61225f565b905061338e670de0b6b3a7640000836133889190613c89565b826122fc565b9250505090565b6000600560019054906101000a900473ffffffffffffffffffffffffffffffffffffffff16905081600560016101000a81548173ffffffffffffffffffffffffffffffffffffffff021916908373ffffffffffffffffffffffffffffffffffffffff1602179055508173ffffffffffffffffffffffffffffffffffffffff168173ffffffffffffffffffffffffffffffffffffffff167f8be0079c531659141344cd1fd0a4f28419497f9722a3daafe3b4186f6b6457e060405160405180910390a35050565b6000806134666128b7565b9050600061347261281a565b9050613491670de0b6b3a76400008361348b9190613c89565b826122fc565b9250505090565b6000806134a36128b7565b905060006134af61232d565b90506134ce670de0b6b3a7640000836134c89190613c89565b826122fc565b9250505090565b600080820361350e576000600d60006101000a81548160ff0219169083600481111561350457613503613aca565b5b02179055506135e5565b60018203613546576001600d60006101000a81548160ff0219169083600481111561353c5761353b613aca565b5b02179055506135e4565b6002820361357e576002600d60006101000a81548160ff0219169083600481111561357457613573613aca565b5b02179055506135e3565b600382036135b6576003600d60006101000a81548160ff021916908360048111156135ac576135ab613aca565b5b02179055506135e2565b6004600d60006101000a81548160ff021916908360048111156135dc576135db613aca565b5b02179055505b5b5b5b600d60009054906101000a900460ff169050919050565b613604611548565b613643576040517f08c379a000000000000000000000000000000000000000000000000000000000815260040161363a90614698565b60405180910390fd5b6000600560006101000a81548160ff0219169083151502179055507f5db9ee0a495bf2e6ff9c91a7834c1ba4fdd244a5e8aa4e537bd38aeae4b073aa6136876123ca565b6040516136949190613b6b565b60405180910390a1565b6136a6611548565b156136e6576040517f08c379a00000000000000000000000000000000000000000000000000000000081526004016136dd90614704565b60405180910390fd5b6001600560006101000a81548160ff0219169083151502179055507f62e78cea01bee320cd4e420270b5ea74000d11b0c9f74754ebdbfc544b05a25861372a6123ca565b6040516137379190613b6b565b60405180910390a1565b613749611548565b15613789576040517f08c379a000000000000000000000000000000000000000000000000000000000815260040161378090614704565b60405180910390fd5b61379483838361379e565b505050565b505050565b6137a98383836137f6565b6137b1611548565b156137f1576040517f08c379a00000000000000000000000000000000000000000000000000000000081526004016137e890614796565b60405180910390fd5b505050565b505050565b600080fd5b6000819050919050565b61381381613800565b811461381e57600080fd5b50565b6000813590506138308161380a565b92915050565b60006020828403121561384c5761384b6137fb565b5b600061385a84828501613821565b91505092915050565b61386c81613800565b82525050565b60006020820190506138876000830184613863565b92915050565b600081519050919050565b600082825260208201905092915050565b60005b838110156138c75780820151818401526020810190506138ac565b60008484015250505050565b6000601f19601f8301169050919050565b60006138ef8261388d565b6138f98185613898565b93506139098185602086016138a9565b613912816138d3565b840191505092915050565b6000602082019050818103600083015261393781846138e4565b905092915050565b600073ffffffffffffffffffffffffffffffffffffffff82169050919050565b600061396a8261393f565b9050919050565b61397a8161395f565b811461398557600080fd5b50565b60008135905061399781613971565b92915050565b600080604083850312156139b4576139b36137fb565b5b60006139c285828601613988565b92505060206139d385828601613821565b9150509250929050565b60008115159050919050565b6139f2816139dd565b82525050565b6000602082019050613a0d60008301846139e9565b92915050565b600080600060608486031215613a2c57613a2b6137fb565b5b6000613a3a86828701613988565b9350506020613a4b86828701613988565b9250506040613a5c86828701613821565b9150509250925092565b600060ff82169050919050565b613a7c81613a66565b82525050565b6000602082019050613a976000830184613a73565b92915050565b600060208284031215613ab357613ab26137fb565b5b6000613ac184828501613988565b91505092915050565b7f4e487b7100000000000000000000000000000000000000000000000000000000600052602160045260246000fd5b60058110613b0a57613b09613aca565b5b50565b6000819050613b1b82613af9565b919050565b6000613b2b82613b0d565b9050919050565b613b3b81613b20565b82525050565b6000602082019050613b566000830184613b32565b92915050565b613b658161395f565b82525050565b6000602082019050613b806000830184613b5c565b92915050565b60008060408385031215613b9d57613b9c6137fb565b5b6000613bab85828601613988565b9250506020613bbc85828601613988565b9150509250929050565b7f4e487b7100000000000000000000000000000000000000000000000000000000600052601260045260246000fd5b7f4e487b7100000000000000000000000000000000000000000000000000000000600052601160045260246000fd5b6000613c2f82613800565b9150613c3a83613800565b925082613c4a57613c49613bc6565b5b828204905092915050565b6000613c6082613800565b9150613c6b83613800565b9250828203905081811115613c8357613c82613bf5565b5b92915050565b6000613c9482613800565b9150613c9f83613800565b9250828202613cad81613800565b91508282048414831517613cc457613cc3613bf5565b5b5092915050565b7f4e487b7100000000000000000000000000000000000000000000000000000000600052602260045260246000fd5b60006002820490506001821680613d1257607f821691505b602082108103613d2557613d24613ccb565b5b50919050565b7f45524332303a207472616e7366657220616d6f756e742065786365656473206160008201527f6c6c6f77616e6365000000000000000000000000000000000000000000000000602082015250565b6000613d87602883613898565b9150613d9282613d2b565b604082019050919050565b60006020820190508181036000830152613db681613d7a565b9050919050565b7f4f776e61626c653a2063616c6c6572206973206e6f7420746865206f776e6572600082015250565b6000613df3602083613898565b9150613dfe82613dbd565b602082019050919050565b60006020820190508181036000830152613e2281613de6565b9050919050565b6000613e3482613800565b9150613e3f83613800565b9250828201905080821115613e5757613e56613bf5565b5b92915050565b6000604082019050613e726000830185613b5c565b613e7f6020830184613863565b9392505050565b613e8f816139dd565b8114613e9a57600080fd5b50565b600081519050613eac81613e86565b92915050565b600060208284031215613ec857613ec76137fb565b5b6000613ed684828501613e9d565b91505092915050565b7f45524332303a206275726e20616d6f756e74206578636565647320616c6c6f7760008201527f616e636500000000000000000000000000000000000000000000000000000000602082015250565b6000613f3b602483613898565b9150613f4682613edf565b604082019050919050565b60006020820190508181036000830152613f6a81613f2e565b9050919050565b7f45524332303a2064656372656173656420616c6c6f77616e63652062656c6f7760008201527f207a65726f000000000000000000000000000000000000000000000000000000602082015250565b6000613fcd602583613898565b9150613fd882613f71565b604082019050919050565b60006020820190508181036000830152613ffc81613fc0565b9050919050565b7f4f776e61626c653a206e6577206f776e657220697320746865207a65726f206160008201527f6464726573730000000000000000000000000000000000000000000000000000602082015250565b600061405f602683613898565b915061406a82614003565b604082019050919050565b6000602082019050818103600083015261408e81614052565b9050919050565b7f45524332303a206d696e7420746f20746865207a65726f206164647265737300600082015250565b60006140cb601f83613898565b91506140d682614095565b602082019050919050565b600060208201905081810360008301526140fa816140be565b9050919050565b6000819050919050565b61411481614101565b811461411f57600080fd5b50565b6000815190506141318161410b565b92915050565b60006020828403121561414d5761414c6137fb565b5b600061415b84828501614122565b91505092915050565b600061416f82613800565b915061417a83613800565b92508261418a57614189613bc6565b5b828206905092915050565b7f45524332303a20617070726f76652066726f6d20746865207a65726f2061646460008201527f7265737300000000000000000000000000000000000000000000000000000000602082015250565b60006141f1602483613898565b91506141fc82614195565b604082019050919050565b60006020820190508181036000830152614220816141e4565b9050919050565b7f45524332303a20617070726f766520746f20746865207a65726f20616464726560008201527f7373000000000000000000000000000000000000000000000000000000000000602082015250565b6000614283602283613898565b915061428e82614227565b604082019050919050565b600060208201905081810360008301526142b281614276565b9050919050565b7f45524332303a207472616e736665722066726f6d20746865207a65726f20616460008201527f6472657373000000000000000000000000000000000000000000000000000000602082015250565b6000614315602583613898565b9150614320826142b9565b604082019050919050565b6000602082019050818103600083015261434481614308565b9050919050565b7f45524332303a207472616e7366657220746f20746865207a65726f206164647260008201527f6573730000000000000000000000000000000000000000000000000000000000602082015250565b60006143a7602383613898565b91506143b28261434b565b604082019050919050565b600060208201905081810360008301526143d68161439a565b9050919050565b7f45524332303a207472616e7366657220616d6f756e742065786365656473206260008201527f616c616e63650000000000000000000000000000000000000000000000000000602082015250565b6000614439602683613898565b9150614444826143dd565b604082019050919050565b600060208201905081810360008301526144688161442c565b9050919050565b60008151905061447e8161380a565b92915050565b60006020828403121561449a576144996137fb565b5b60006144a88482850161446f565b91505092915050565b7f4e487b7100000000000000000000000000000000000000000000000000000000600052603260045260246000fd5b60006144eb82613800565b91507fffffffffffffffffffffffffffffffffffffffffffffffffffffffffffffffff820361451d5761451c613bf5565b5b600182019050919050565b7f45524332303a206275726e2066726f6d20746865207a65726f2061646472657360008201527f7300000000000000000000000000000000000000000000000000000000000000602082015250565b6000614584602183613898565b915061458f82614528565b604082019050919050565b600060208201905081810360008301526145b381614577565b9050919050565b7f45524332303a206275726e20616d6f756e7420657863656564732062616c616e60008201527f6365000000000000000000000000000000000000000000000000000000000000602082015250565b6000614616602283613898565b9150614621826145ba565b604082019050919050565b6000602082019050818103600083015261464581614609565b9050919050565b7f5061757361626c653a206e6f7420706175736564000000000000000000000000600082015250565b6000614682601483613898565b915061468d8261464c565b602082019050919050565b600060208201905081810360008301526146b181614675565b9050919050565b7f5061757361626c653a2070617573656400000000000000000000000000000000600082015250565b60006146ee601083613898565b91506146f9826146b8565b602082019050919050565b6000602082019050818103600083015261471d816146e1565b9050919050565b7f45524332305061757361626c653a20746f6b656e207472616e7366657220776860008201527f696c652070617573656400000000000000000000000000000000000000000000602082015250565b6000614780602a83613898565b915061478b82614724565b604082019050919050565b600060208201905081810360008301526147af81614773565b905091905056fea2646970667358221220e5e683cb4f445f43fda38d82d1554d882f75b438abe93dc769d55a791e15819464736f6c6343000811003360806040523480156200001157600080fd5b5060405162001ccc38038062001ccc8339818101604052810190620000379190620001d8565b336000806101000a81548173ffffffffffffffffffffffffffffffffffffffff021916908373ffffffffffffffffffffffffffffffffffffffff1602179055506040518060400160405280601a81526020017f4245204652455348204d5920465255495459204652454e5a202100000000000081525060039081620000bd91906200048f565b50600060018190555081600281905550620000de81620000e760201b60201c565b50505062000576565b600081600560006101000a81548173ffffffffffffffffffffffffffffffffffffffff021916908373ffffffffffffffffffffffffffffffffffffffff16021790555060019050919050565b600080fd5b6000819050919050565b6200014d8162000138565b81146200015957600080fd5b50565b6000815190506200016d8162000142565b92915050565b600073ffffffffffffffffffffffffffffffffffffffff82169050919050565b6000620001a08262000173565b9050919050565b620001b28162000193565b8114620001be57600080fd5b50565b600081519050620001d281620001a7565b92915050565b60008060408385031215620001f257620001f162000133565b5b600062000202858286016200015c565b92505060206200021585828601620001c1565b9150509250929050565b600081519050919050565b7f4e487b7100000000000000000000000000000000000000000000000000000000600052604160045260246000fd5b7f4e487b7100000000000000000000000000000000000000000000000000000000600052602260045260246000fd5b60006002820490506001821680620002a157607f821691505b602082108103620002b757620002b662000259565b5b50919050565b60008190508160005260206000209050919050565b60006020601f8301049050919050565b600082821b905092915050565b600060088302620003217fffffffffffffffffffffffffffffffffffffffffffffffffffffffffffffffff82620002e2565b6200032d8683620002e2565b95508019841693508086168417925050509392505050565b6000819050919050565b6000620003706200036a620003648462000138565b62000345565b62000138565b9050919050565b6000819050919050565b6200038c836200034f565b620003a46200039b8262000377565b848454620002ef565b825550505050565b600090565b620003bb620003ac565b620003c881848462000381565b505050565b5b81811015620003f057620003e4600082620003b1565b600181019050620003ce565b5050565b601f8211156200043f576200040981620002bd565b6200041484620002d2565b8101602085101562000424578190505b6200043c6200043385620002d2565b830182620003cd565b50505b505050565b600082821c905092915050565b6000620004646000198460080262000444565b1980831691505092915050565b60006200047f838362000451565b9150826002028217905092915050565b6200049a826200021f565b67ffffffffffffffff811115620004b657620004b56200022a565b5b620004c2825462000288565b620004cf828285620003f4565b600060209050601f831160018114620005075760008415620004f2578287015190505b620004fe858262000471565b8655506200056e565b601f1984166200051786620002bd565b60005b8281101562000541578489015182556001820191506020850194506020810190506200051a565b868310156200056157848901516200055d601f89168262000451565b8355505b6001600288020188555050505b505050505050565b61174680620005866000396000f3fe6080604052600436106100f35760003560e01c806377b3cc9a1161008a578063e21f37ce11610059578063e21f37ce14610349578063ece866b914610374578063f794062e1461039f578063f851a440146103dc576100f3565b806377b3cc9a14610286578063c4784fd4146102b1578063c85e07b9146102e1578063cc87ec5f1461030c576100f3565b8063329dd364116100c6578063329dd364146101c8578063365b98b2146101f35780633ccfd60b146102305780636ac5db191461025b576100f3565b806301c0fb4c146100f8578063161dbc14146101355780632a0c74d4146101725780632f7136551461019d575b600080fd5b34801561010457600080fd5b5061011f600480360381019061011a9190610e7d565b610407565b60405161012c9190610ec5565b60405180910390f35b34801561014157600080fd5b5061015c60048036038101906101579190611026565b610419565b6040516101699190610ec5565b60405180910390f35b34801561017e57600080fd5b506101876104c0565b60405161019491906110ee565b60405180910390f35b3480156101a957600080fd5b506101b2610552565b6040516101bf919061116f565b60405180910390f35b3480156101d457600080fd5b506101dd610578565b6040516101ea9190611236565b60405180910390f35b3480156101ff57600080fd5b5061021a60048036038101906102159190611288565b6105fb565b60405161022791906112c4565b60405180910390f35b34801561023c57600080fd5b50610245610632565b60405161025291906112ee565b60405180910390f35b34801561026757600080fd5b50610270610726565b60405161027d91906112ee565b60405180910390f35b34801561029257600080fd5b5061029b61072c565b6040516102a89190610ec5565b60405180910390f35b6102cb60048036038101906102c69190611026565b610925565b6040516102d89190610ec5565b60405180910390f35b3480156102ed57600080fd5b506102f66109d0565b60405161030391906112ee565b60405180910390f35b34801561031857600080fd5b50610333600480360381019061032e9190610e7d565b6109d6565b6040516103409190610ec5565b60405180910390f35b34801561035557600080fd5b5061035e610c19565b60405161036b91906110ee565b60405180910390f35b34801561038057600080fd5b50610389610ca7565b60405161039691906112ee565b60405180910390f35b3480156103ab57600080fd5b506103c660048036038101906103c19190610e7d565b610cad565b6040516103d39190610ec5565b60405180910390f35b3480156103e857600080fd5b506103f1610ccd565b6040516103fe91906112c4565b60405180910390f35b600061041282610cf1565b9050919050565b60003373ffffffffffffffffffffffffffffffffffffffff1660008054906101000a900473ffffffffffffffffffffffffffffffffffffffff1673ffffffffffffffffffffffffffffffffffffffff16146104a0576040517f82b4290000000000000000000000000000000000000000000000000000000000815260040160405180910390fd5b81600390816104af919061150b565b504260048190555060019050919050565b6060600380546104cf90611338565b80601f01602080910402602001604051908101604052809291908181526020018280546104fb90611338565b80156105485780601f1061051d57610100808354040283529160200191610548565b820191906000526020600020905b81548152906001019060200180831161052b57829003601f168201915b5050505050905090565b600560009054906101000a900473ffffffffffffffffffffffffffffffffffffffff1681565b610580610de7565b60076104d28060200260405190810160405280929190826104d280156105f1576020028201915b8160009054906101000a900473ffffffffffffffffffffffffffffffffffffffff1673ffffffffffffffffffffffffffffffffffffffff16815260200190600101908083116105a7575b5050505050905090565b6007816104d2811061060c57600080fd5b016000915054906101000a900473ffffffffffffffffffffffffffffffffffffffff1681565b60003373ffffffffffffffffffffffffffffffffffffffff1660008054906101000a900473ffffffffffffffffffffffffffffffffffffffff1673ffffffffffffffffffffffffffffffffffffffff16146106b9576040517f82b4290000000000000000000000000000000000000000000000000000000000815260040160405180910390fd5b60008054906101000a900473ffffffffffffffffffffffffffffffffffffffff1673ffffffffffffffffffffffffffffffffffffffff166108fc479081150290604051600060405180830381858888f1935050505015801561071f573d6000803e3d6000fd5b5047905090565b60025481565b60003360011515600660008373ffffffffffffffffffffffffffffffffffffffff1673ffffffffffffffffffffffffffffffffffffffff16815260200190815260200160002060009054906101000a900460ff161515036107b9576040517fe08ca6b000000000000000000000000000000000000000000000000000000000815260040160405180910390fd5b600254600154106107f6576040517fea5db9c500000000000000000000000000000000000000000000000000000000815260040160405180910390fd5b6001600660003373ffffffffffffffffffffffffffffffffffffffff1673ffffffffffffffffffffffffffffffffffffffff16815260200190815260200160002060006101000a81548160ff0219169083151502179055503360076001546104d28110610866576108656115dd565b5b0160006101000a81548173ffffffffffffffffffffffffffffffffffffffff021916908373ffffffffffffffffffffffffffffffffffffffff160217905550600160008154809291906108b89061163b565b9190505550600254600154036108d2576108d0610d3d565b505b600660003373ffffffffffffffffffffffffffffffffffffffff1673ffffffffffffffffffffffffffffffffffffffff16815260200190815260200160002060009054906101000a900460ff1691505090565b6000670de0b6b3a76400003411610968576040517f99956c4600000000000000000000000000000000000000000000000000000000815260040160405180910390fd5b610e106004546109789190611683565b42116109b0576040517f7cd5facc00000000000000000000000000000000000000000000000000000000815260040160405180910390fd5b81600390816109bf919061150b565b504260048190555060019050919050565b60045481565b60008160011515600660008373ffffffffffffffffffffffffffffffffffffffff1673ffffffffffffffffffffffffffffffffffffffff16815260200190815260200160002060009054906101000a900460ff16151503610a63576040517fe08ca6b000000000000000000000000000000000000000000000000000000000815260040160405180910390fd5b3373ffffffffffffffffffffffffffffffffffffffff1660008054906101000a900473ffffffffffffffffffffffffffffffffffffffff1673ffffffffffffffffffffffffffffffffffffffff1614610ae8576040517f82b4290000000000000000000000000000000000000000000000000000000000815260040160405180910390fd5b6001600660008573ffffffffffffffffffffffffffffffffffffffff1673ffffffffffffffffffffffffffffffffffffffff16815260200190815260200160002060006101000a81548160ff0219169083151502179055508260076001546104d28110610b5857610b576115dd565b5b0160006101000a81548173ffffffffffffffffffffffffffffffffffffffff021916908373ffffffffffffffffffffffffffffffffffffffff16021790555060016000815480929190610baa9061163b565b919050555060025460015403610bc457610bc2610d3d565b505b600660008473ffffffffffffffffffffffffffffffffffffffff1673ffffffffffffffffffffffffffffffffffffffff16815260200190815260200160002060009054906101000a900460ff16915050919050565b60038054610c2690611338565b80601f0160208091040260200160405190810160405280929190818152602001828054610c5290611338565b8015610c9f5780601f10610c7457610100808354040283529160200191610c9f565b820191906000526020600020905b815481529060010190602001808311610c8257829003601f168201915b505050505081565b60015481565b60066020528060005260406000206000915054906101000a900460ff1681565b60008054906101000a900473ffffffffffffffffffffffffffffffffffffffff1681565b600081600560006101000a81548173ffffffffffffffffffffffffffffffffffffffff021916908373ffffffffffffffffffffffffffffffffffffffff16021790555060019050919050565b600060025460015414610d4f57600080fd5b600560009054906101000a900473ffffffffffffffffffffffffffffffffffffffff1673ffffffffffffffffffffffffffffffffffffffff1663b524fd6f6040518163ffffffff1660e01b81526004016020604051808303816000875af1158015610dbe573d6000803e3d6000fd5b505050506040513d601f19601f82011682018060405250810190610de291906116e3565b905090565b60405180619a4001604052806104d290602082028036833780820191505090505090565b6000604051905090565b600080fd5b600080fd5b600073ffffffffffffffffffffffffffffffffffffffff82169050919050565b6000610e4a82610e1f565b9050919050565b610e5a81610e3f565b8114610e6557600080fd5b50565b600081359050610e7781610e51565b92915050565b600060208284031215610e9357610e92610e15565b5b6000610ea184828501610e68565b91505092915050565b60008115159050919050565b610ebf81610eaa565b82525050565b6000602082019050610eda6000830184610eb6565b92915050565b600080fd5b600080fd5b6000601f19601f8301169050919050565b7f4e487b7100000000000000000000000000000000000000000000000000000000600052604160045260246000fd5b610f3382610eea565b810181811067ffffffffffffffff82111715610f5257610f51610efb565b5b80604052505050565b6000610f65610e0b565b9050610f718282610f2a565b919050565b600067ffffffffffffffff821115610f9157610f90610efb565b5b610f9a82610eea565b9050602081019050919050565b82818337600083830152505050565b6000610fc9610fc484610f76565b610f5b565b905082815260208101848484011115610fe557610fe4610ee5565b5b610ff0848285610fa7565b509392505050565b600082601f83011261100d5761100c610ee0565b5b813561101d848260208601610fb6565b91505092915050565b60006020828403121561103c5761103b610e15565b5b600082013567ffffffffffffffff81111561105a57611059610e1a565b5b61106684828501610ff8565b91505092915050565b600081519050919050565b600082825260208201905092915050565b60005b838110156110a957808201518184015260208101905061108e565b60008484015250505050565b60006110c08261106f565b6110ca818561107a565b93506110da81856020860161108b565b6110e381610eea565b840191505092915050565b6000602082019050818103600083015261110881846110b5565b905092915050565b6000819050919050565b600061113561113061112b84610e1f565b611110565b610e1f565b9050919050565b60006111478261111a565b9050919050565b60006111598261113c565b9050919050565b6111698161114e565b82525050565b60006020820190506111846000830184611160565b92915050565b60006104d29050919050565b600081905092915050565b6000819050919050565b6111b481610e3f565b82525050565b60006111c683836111ab565b60208301905092915050565b6000602082019050919050565b6111e88161118a565b6111f28184611196565b92506111fd826111a1565b8060005b8381101561122e57815161121587826111ba565b9650611220836111d2565b925050600181019050611201565b505050505050565b6000619a408201905061124c60008301846111df565b92915050565b6000819050919050565b61126581611252565b811461127057600080fd5b50565b6000813590506112828161125c565b92915050565b60006020828403121561129e5761129d610e15565b5b60006112ac84828501611273565b91505092915050565b6112be81610e3f565b82525050565b60006020820190506112d960008301846112b5565b92915050565b6112e881611252565b82525050565b600060208201905061130360008301846112df565b92915050565b7f4e487b7100000000000000000000000000000000000000000000000000000000600052602260045260246000fd5b6000600282049050600182168061135057607f821691505b60208210810361136357611362611309565b5b50919050565b60008190508160005260206000209050919050565b60006020601f8301049050919050565b600082821b905092915050565b6000600883026113cb7fffffffffffffffffffffffffffffffffffffffffffffffffffffffffffffffff8261138e565b6113d5868361138e565b95508019841693508086168417925050509392505050565b60006114086114036113fe84611252565b611110565b611252565b9050919050565b6000819050919050565b611422836113ed565b61143661142e8261140f565b84845461139b565b825550505050565b600090565b61144b61143e565b611456818484611419565b505050565b5b8181101561147a5761146f600082611443565b60018101905061145c565b5050565b601f8211156114bf5761149081611369565b6114998461137e565b810160208510156114a8578190505b6114bc6114b48561137e565b83018261145b565b50505b505050565b600082821c905092915050565b60006114e2600019846008026114c4565b1980831691505092915050565b60006114fb83836114d1565b9150826002028217905092915050565b6115148261106f565b67ffffffffffffffff81111561152d5761152c610efb565b5b6115378254611338565b61154282828561147e565b600060209050601f8311600181146115755760008415611563578287015190505b61156d85826114ef565b8655506115d5565b601f19841661158386611369565b60005b828110156115ab57848901518255600182019150602085019450602081019050611586565b868310156115c857848901516115c4601f8916826114d1565b8355505b6001600288020188555050505b505050505050565b7f4e487b7100000000000000000000000000000000000000000000000000000000600052603260045260246000fd5b7f4e487b7100000000000000000000000000000000000000000000000000000000600052601160045260246000fd5b600061164682611252565b91507fffffffffffffffffffffffffffffffffffffffffffffffffffffffffffffffff82036116785761167761160c565b5b600182019050919050565b600061168e82611252565b915061169983611252565b92508282019050808211156116b1576116b061160c565b5b92915050565b6116c081610eaa565b81146116cb57600080fd5b50565b6000815190506116dd816116b7565b92915050565b6000602082840312156116f9576116f8610e15565b5b6000611707848285016116ce565b9150509291505056fea26469706673582212205ad1f7dc461fcec22a69318122a1c460390a00f21065d2f5aaefbc89d7a4929c64736f6c63430008110033",
  "immutableReferences": {},
  "source": "// SPDX-License-Identifier: GPL-3.0\n// // // // // // // // // // // // // // // // // // // // // // // // // // // // // // // // // // // // // // // // // // // // // // // // // // // // // // // // // // // // //\n//\n//      MMWKd:..                                                                                    ..:dKWMM\n//      MKl.                                                                                            .lKW\n//      O'       ..''''''''''''.     .''''''.     .'''''.      .''''''''''''''.     .''''''''''''..       'O\n//      '     .ckKNNWNWWWWWWWWWk.   .xNWWNWNl    ,0WWWWW0,     lNWWWWWWWWWNWNk'    ;0NNNWWWWWWWWNNKkc.     '\n//           ,OWMMMMMMMMMMMMMMMO.   .kMMMMMWl    ,KMMMMMK,     lWMMMMMMMMMMM0,    ;KMMMMMMMMMMMMMMMMWO,\n//          .kMMMMMMMMMMMMMMMMMO.   .kMMMMMWl    ,KMMMMMK,     lWMMMMMMMMMM0,    ;KMMMMMMMMMMMMMMMMMMMk.\n//          '0MMMMMMMMMMMMMMMMMO.   .kMMMMMWl    ,KMMMMMK,     lWMMMMMMMMM0,    :KMMMMMMMMMMMMMMMMMMMM0'\n//          '0MMMMMMMMMMMMMMMMMO.   .kMMMMMWl    ,KMMMMMK,     lWMMMMMMMM0,    :KMMMMMMMMMMMMMMMMMMMMM0'\n//          '0MMMMMMMMMMMMMMMMMO.   .kMMMMMWl    ,KMMMMMK,     lWMMMMMMM0,    ;0NNWWMMMMMMMMMMMMMMMMMM0'\n//          '0MMMMMMMMMMMMMMMMMO.   .kMMMMMWl    ,KMMMMMK,     lWMMMMMM0,     .'.',;lkNMMMMMMMMMMMMMMM0'\n//          '0MMMMMMMMMMMMMMMMMO.   .kMMMMMWl    ,KMMMMMK,     lWMMMMMK;              ,kWMMMMMMMMMMMMM0'\n//          '0MMMMMMMMMMMMMMMMMO.   .kMMMMMWl    ,KMMMMMK,     lWMMMMX:    .:oxxdc'    .dWMMMMMMMMMMMM0'\n//          '0MMMMMMMMMMMMMMMMMO.   .kMMMMMWl    ,KMMMMMK,     lWMMMWd.   ,OWMMMMMXl.   '0MMMMMMMMMMMM0'\n//          '0MMMMMMMMMMMMMMMMMO.   .kMMMMMWl    ,KMMMMMK,     lWMMMX;   .kMMMMMMMMK,   .xMMMMMMMMMMMM0'\n//          '0MMMMMMMMMMMMMMMMMO.   .kMMMMMWl    ,KMMMMMK,     lWMMM0'   .OMMMMMMMMX;   .xMMMMMMMMMMMM0'\n//          .OMMMMMMMMMMMMMMMMMO.   .kMMMMMWl    ,KMMMMMK,     lWMMMK,    lNMMMMMMWx.   '0MMMMMMMMMMMMO.\n//           lNMMMMMMMMMMMMMMMMO.   .kMMMMMWl    ,KMMMMMK,     lWMMMWd.   .:x0KKKkc.   .dWMMMMMMMMMMMNl\n//      .    .c0WMMMMMMMMMMMMMMO.   .kMMMMMWo    ,KMMMMMK,     lWMMMMNd.     ....     .xNMMMMMMMMMMW0c.    .\n//      l      .,lddxxxxxxxxxxxc.    :xxxxxd,    .lxxxxxl.     ,dxxxxxd:.            .cdxxxxxxxxddl,.      l\n//      No.                                                                                              .oN\n//      MW0l'                                                                                          'l0WM\n//      MMMWKd;.                                                                                    .;dKWMMM\n//\n// // // // // // // // // // // // // // // // // // // // // // // // // // // // // // // // // // // // // // // // // // // // // // // // // // // // // // // // // // // // //\n//                                                                                                                                                                                  //\n//      @dev            ::              Aron Mauritala Ayuk                                                                                                                                          //\n//      @msg            ::              stereo@iii6.xyz                                                                                                                                   //\n//      @github         ::              @stereoIII6\n//      @twitter        ::              @stereoIII6                                                                                                                                              //\n//                                                                                                                                                                                  //\n// // // // // // // // // // // // // // // // // // // // // // // // // // // // // // // // // // // // // // // // // // // // // // // // // // // // // // // // // // // // //\n//                                                                                                                                                                                  //\n//      @dev            ::              Juan Xavier Valverde                                                                                                                                    //\n//      @msg            ::              juanxavier@iii6.xyz                                                                                                                               //\n//      @twitter        ::              @JuanXavier                                                                                                                                             //\n//      @github         ::              @JuanXavier                                                                                                                                             //\n//                                                                                                                                                                                  //                                                                                                                                                                                 //\n// // // // // // // // // // // // // // // // // // // // // // // // // // // // // // // // // // // // // // // // // // // // // // // // // // // // // // // // // // // // //\n//  *   *   *   *   *   *   *   *   *   *   *   *   *   *   *   *   *   *   *   *   *   *   *   *   *   *   *   *   *   *   *   *   *   *   *   *   *   *   *   *   *   *   *   *   //\n// // // // // // // // // // // // // // // // // // // // // // // // // // // // // // // // // // // // // // // // // // // // // // // // // // // // // // // // // // // // //\n//                                                                                                                                                                                  //\n//      @company        ::              Fractio Holding                                                                                                                                                                       //\n//      @title          ::              iii6 Coin Factory                                                                                                                            //\n//      @description    ::              ERC721 DIA Factory Contract                                                                                                                           //\n//      @version        ::              0.0.1                                                                                                                                       //\n//      @purpose        ::              ERC721 DIA Factory                                                                                                          //\n//                                                                                                                                                                                  //\n//                                                                                                                                                                                  //\n//                                                                                                                                                                                  //\n//                                                                                                                                                                                  //\n//                                                                                                                                                                                  //\n// // // // // // // // // // // // // // // // // // // // // // // // // // // // // // // // // // // // // // // // // // // // // // // // // // // // // // // // // // // // //\n//  *   *   *   *   *   *   *   *   *   *   *   *   *   *   *   *   *   *   *   *   *   *   *   *   *   *   *   *   *   *   *   *   *   *   *   *   *   *   *   *   *   *   *   *   //\n// // // // // // // // // // // // // // // // // // // // // // // // // // // // // // // // // // // // // // // // // // // // // // // // // // // // // // // // // // // // //\n\n/////////////////////////////////////////////////////////////////////////////////////////////////////////////////////\n\n/////////////////////////////////////////////////////////////////////////////////////////////////////////////////////\n\npragma solidity ^0.8.7;\n\nimport \"./iii6CoinModel.sol\";\nimport \"./iii6DiaModel.sol\";\nimport \"../Math/iii6PriceMath.sol\";\n\ncontract iii6AssetFactory is iii6DiaModel, iii6PriceMath {\n    /**\n     * @dev this contract is a model contract to be deployed through the iii6AssetFactory\n     */\n    // \n    // \n    // \n    // \n    // \n    // \n    address VRF;\n    address FEED;\n    uint256 public licenseFee;\n    uint256 gasSafe;\n    mapping(address => uint256) public licenseRange;\n    uint256 public p;\n    mapping(uint256 => address) public projects;\n    mapping(address => uint256) public mp;\n    mapping(address => mapping(uint256 => address)) public myProjects;\n\n    /*\n     * @dev this constructor creates a Dia NFT Token Contract\n     * @param _owner contract admin\n     * @param _name dia token name\n     * @param _max amount of tokens 0 = infinte\n     * @param _price amount of gascoin for token\n     * @param _cName name of related ERC20 token\n     * @param _cSym symbol of related ERC20 token\n     * @param _c bool if related coin exists\n     * @param _cs max supply of related ERC20 token 0 = infinite\n     * @param _rate price of related ERC20 token in gascoin\n     * @param _g number of greenlist slots for Dia NFT project 0 = no greenlist\n     */\n    constructor(string memory _name, string memory _sym)\n        iii6DiaModel(msg.sender, _name, _sym, 0, 0, \"\", \"\", false, 0, 0, 0)\n    {\n        gasSafe = 5 * 10**13;\n    }\n\n    // set the value of fee for asset creation\n    function _setLicenseFee(uint256 _fee) internal returns (uint256) {\n        return licenseFee = _fee * 10**16; // 100 = 1 ETH\n    }\n\n    function _setLicense(address _adr, uint256 _years)\n        internal\n        returns (uint256)\n    {\n        if (licenseRange[_adr] > block.timestamp) {\n            uint256 dif = licenseRange[_adr] - block.timestamp;\n            return licenseRange[_adr] += dif + 60 * 60 * 24 * 365 * _years;\n        } else return licenseRange[_adr] += 60 * 60 * 24 * 365 * _years;\n    }\n\n    // function creates a ERC20 Token Contract\n    function _makeERC20Asset(\n        string memory _name,\n        string memory _sym,\n        uint256 _rate,\n        uint256 _supply,\n        bool _burn,\n        bool _pause,\n        uint256 _curr\n    ) internal returns (address) {\n        // chose token model\n        iii6CoinModel token;\n        /**\n         * @dev creates an instance of iii6CoinModel\n         * @param _name token name\n         * @param _sym token symbol\n         * @param _rate token rate\n         * @param _supply max token supply // if 0-infinte\n         * @param _burn bool burnable\n         * @param _pause bool pauseble\n         * @param _curr denomintaor currency // 0-eth 1-gascoin 2-xCur 2-yCur >4-usdc\n         * @return contract address\n         */\n        token = new iii6CoinModel(\n            _name,\n            _sym,\n            _rate,\n            _supply,\n            _burn,\n            _pause,\n            _curr\n        );\n        // exit with address\n        // _mint(msg.sender, uint256(address(token)));\n        return address(token);\n    }\n\n    // function creates a ERC721 Token Contract\n    function _makeERC721Asset(\n        string memory _name,\n        string memory _sym,\n        uint256 _max,\n        uint256 _price,\n        uint256 _g\n    ) internal returns (address) {\n        // chose token model\n        iii6DiaModel diaToken;\n        /**\n         * @dev this constructor creates a Dia NFT Token Contract\n         * @param _owner contract admin\n         * @param _name dia token name\n         * @param _sym dia token name\n         * @param _max amount of tokens 0 = infinte\n         * @param _price amount of gascoin for Dia token\n         * @param _cName name of related ERC20 token\n         * @param _cSym symbol of related ERC20 token\n         * @param _c bool if related coin exists\n         * @param _cs max supply of related ERC20 token 0 = infinite\n         * @param _rate price of related ERC20 token in gascoin\n         * @param _g number of greenlist slots for Dia NFT project 0 = no greenlist\n         */\n        diaToken = new iii6DiaModel(\n            msg.sender,\n            _name,\n            _sym,\n            _max,\n            _price,\n            \"\",\n            \"\",\n            false,\n            0,\n            0,\n            _g\n        );\n        // _mint(msg.sender, uint256(address(diaToken)));\n        return address(diaToken);\n    }\n\n    function buyLicense(uint256 _years) external payable returns (uint256) {\n        if (msg.value < _years * licenseFee) revert Insufficient_Funds();\n        return _setLicense(msg.sender, _years);\n    }\n\n    /**\n     * @dev creates an instance of iii6CoinModel\n     * @param _name token name\n     * @param _sym token symbol\n     * @param _rate token rate\n     * @param _supply max token supply // if 0-infinte\n     * @param _burn bool burnable\n     * @param _pause bool pauseble\n     * @param _curr denomintaor currency // 0-eth 1-gascoin 2-xCur 2-yCur >4-usdc\n     * @return contract address\n     */\n    function buildERC20Token(\n        string calldata _name,\n        string calldata _sym,\n        uint256 _rate,\n        uint256 _supply,\n        bool _burn,\n        bool _pause,\n        uint256 _curr\n    ) external payable returns (address) {\n        // check msg.value\n        if (\n            msg.value < licenseFee / 10 ||\n            licenseRange[msg.sender] > block.timestamp\n        ) revert Insufficient_Funds();\n        // mint license\n        // make asset & exit with address\n        if (msg.value > 10**14) {\n            // address(this).transfer(safe, msg.value - gasSafe);\n        }\n        return\n            _makeERC20Asset(_name, _sym, _rate, _supply, _burn, _pause, _curr);\n    }\n\n    /**\n     * @dev function\n     * @param _name dia token name\n     * @param _max amount of tokens 0 = infinte\n     * @param _price amount of gascoin for Dia token\n     * @param _g number of greenlist slots for Dia NFT project 0 = no greenlist\n     */\n    function buildERC721Token(\n        string calldata _name,\n        string calldata _sym,\n        uint256 _max,\n        uint256 _price,\n        uint256 _g\n    ) external payable returns (address) {\n        if (\n            msg.value < licenseFee / 5 ||\n            licenseRange[msg.sender] > block.timestamp\n        ) revert Insufficient_Funds();\n        if (msg.value > 10**14) {\n            // address(this).transfer(safe, msg.value - gasSafe);\n        }\n        return _makeERC721Asset(_name, _sym, _max, _price, _g);\n    }\n}\n",
  "sourcePath": "/Users/iii6/Documents/GitHub/III6Dojo/contracts/iii6Utils/Assets/iii6AssetFactory.sol",
  "compiler": {
    "name": "solc",
    "version": "0.8.17+commit.8df45f5f.Emscripten.clang"
  },
  "schemaVersion": "3.4.8",
  "updatedAt": "2022-12-14T21:28:13.012Z",
  "devdoc": {
    "kind": "dev",
    "methods": {
      "COIN_USD()": {
        "details": "gets value of gascoin derived from iii6PriceConsumer => _get[...]Usdc()",
        "params": {
          "": "// EXTERNAL"
        },
        "returns": {
          "_0": "uint256 gascoin price in usdc"
        }
      },
      "ETH_USD()": {
        "details": "gets value of eth derived from INTERNAL => _get[...]Usdc()",
        "params": {
          "": "// EXTERNAL"
        },
        "returns": {
          "_0": "uint256 eth price in usdc"
        }
      },
      "X_USD()": {
        "details": "gets value of custon token x derived from iii6PriceConsumer => _get[...]Usdc()",
        "params": {
          "": "// EXTERNAL"
        },
        "returns": {
          "_0": "uint256 custon token x price in usdc"
        }
      },
      "Y_USD()": {
        "details": "gets value of custon token y derived from iii6PriceConsumer => _get[...]Usdc()",
        "params": {
          "": "// EXTERNAL"
        },
        "returns": {
          "_0": "uint256 custon token y price in usdc"
        }
      },
      "approve(address,uint256)": {
        "details": "See {IERC721-approve}."
      },
      "balanceOf(address)": {
        "details": "See {IERC721-balanceOf}."
      },
      "buildERC20Token(string,string,uint256,uint256,bool,bool,uint256)": {
        "details": "creates an instance of iii6CoinModel",
        "params": {
          "_burn": "bool burnable",
          "_curr": "denomintaor currency // 0-eth 1-gascoin 2-xCur 2-yCur >4-usdc",
          "_name": "token name",
          "_pause": "bool pauseble",
          "_rate": "token rate",
          "_supply": "max token supply // if 0-infinte",
          "_sym": "token symbol"
        },
        "returns": {
          "_0": "contract address"
        }
      },
      "buildERC721Token(string,string,uint256,uint256,uint256)": {
        "details": "function",
        "params": {
          "_g": "number of greenlist slots for Dia NFT project 0 = no greenlist",
          "_max": "amount of tokens 0 = infinte",
          "_name": "dia token name",
          "_price": "amount of gascoin for Dia token"
        }
      },
      "coinPriceOfEth(uint256)": {
        "details": "Returns price for input amount in chosen currency",
        "params": {
          "_amt": "uint256 amount of usd"
        },
        "returns": {
          "_0": "Result of division"
        }
      },
      "coinPriceOfUSD(uint256)": {
        "details": "Returns price for input amount in chosen currency",
        "params": {
          "_amt": "uint256 amount of usd"
        },
        "returns": {
          "_0": "Result of division"
        }
      },
      "coinPriceOfX(uint256)": {
        "details": "Returns price for input amount in chosen currency",
        "params": {
          "_amt": "uint256 amount of usd"
        },
        "returns": {
          "_0": "Result of division"
        }
      },
      "coinPriceOfY(uint256)": {
        "details": "Returns price for input amount in chosen currency",
        "params": {
          "_amt": "uint256 amount of usd"
        },
        "returns": {
          "_0": "Result of division"
        }
      },
      "ethPriceOfUSD(uint256)": {
        "details": "Returns price for input amount in chosen currency",
        "params": {
          "_amt": "uint256 amount of usd"
        },
        "returns": {
          "_0": "Result of division"
        }
      },
      "getApproved(uint256)": {
        "details": "See {IERC721-getApproved}."
      },
      "getCoinPriceInEth()": {
        "details": "gets value of gascoin denominated in eth derived from _get[...]Usdc()",
        "returns": {
          "coinPriceEth": "uint256 price of gascoin denominated in eth"
        }
      },
      "getCoinPriceInX()": {
        "details": "gets value of gascoin denominated in eth derived from _get[...]Usdc()",
        "returns": {
          "coinPriceX": "uint256 price of gascoin denominated in eth"
        }
      },
      "getCoinPriceInY()": {
        "details": "gets value of gascoin denominated in eth derived from _get[...]Usdc()",
        "returns": {
          "coinPriceY": "uint256 price of gascoin denominated in eth"
        }
      },
      "getEthPriceInCoin()": {
        "details": "gets value of eth denominated in gascoin derived from _get[...]Usdc()",
        "returns": {
          "ethPriceCoin": "uint256 price of eth denominated in gascoin"
        }
      },
      "getEthPriceInX()": {
        "details": "gets value of eth denominated in custom token x derived from _get[...]Usdc()",
        "returns": {
          "ethPriceX": "uint256 price of eth denominated in custom token x"
        }
      },
      "getEthPriceInY()": {
        "details": "gets value of eth denominated in custom token y derived from _get[...]Usdc()",
        "returns": {
          "ethPriceY": "uint256 price of eth denominated in custom token y"
        }
      },
      "getXPriceInCoin()": {
        "details": "gets value of gascoin denominated in eth derived from _get[...]Usdc()",
        "returns": {
          "xPriceCoin": "uint256 price of gascoin denominated in eth"
        }
      },
      "getXPriceInEth()": {
        "details": "gets value of gascoin denominated in eth derived from _get[...]Usdc()",
        "returns": {
          "xPriceEth": "uint256 price of gascoin denominated in eth"
        }
      },
      "getXPriceInY()": {
        "details": "gets value of gascoin denominated in eth derived from _get[...]Usdc()",
        "returns": {
          "xPriceY": "uint256 price of gascoin denominated in eth"
        }
      },
      "getYPriceInCoin()": {
        "details": "gets value of gascoin denominated in eth derived from _get[...]Usdc()",
        "returns": {
          "yPriceCoin": "uint256 price of gascoin denominated in eth"
        }
      },
      "getYPriceInEth()": {
        "details": "gets value of gascoin denominated in eth derived from _get[...]Usdc()",
        "returns": {
          "yPriceEth": "uint256 price of gascoin denominated in eth"
        }
      },
      "getYPriceInX()": {
        "details": "gets value of gascoin denominated in eth derived from _get[...]Usdc()",
        "returns": {
          "yPriceX": "uint256 price of gascoin denominated in eth"
        }
      },
      "isApprovedForAll(address,address)": {
        "details": "See {IERC721-isApprovedForAll}."
      },
      "name()": {
        "details": "See {IERC721Metadata-name}."
      },
      "ownerOf(uint256)": {
        "details": "See {IERC721-ownerOf}."
      },
      "safeTransferFrom(address,address,uint256)": {
        "details": "See {IERC721-safeTransferFrom}."
      },
      "safeTransferFrom(address,address,uint256,bytes)": {
        "details": "See {IERC721-safeTransferFrom}."
      },
      "setApprovalForAll(address,bool)": {
        "details": "See {IERC721-setApprovalForAll}."
      },
      "setX(address,uint256)": {
        "details": "sets the oracle for custom token x and adapts digit length",
        "params": {
          "": "// EXTERNAL",
          "_digits": "number of decimals passed by oracle",
          "_oracle": "address of the chainlink pricefeed oracle contract"
        },
        "returns": {
          "_0": "bool success"
        }
      },
      "setY(address,uint256)": {
        "details": "sets the oracle for custom token y and adapts digit length",
        "params": {
          "": "// EXTERNAL",
          "_digits": "number of decimals passed by oracle",
          "_oracle": "address of the chainlink pricefeed oracle contract"
        },
        "returns": {
          "_0": "bool success"
        }
      },
      "supportsInterface(bytes4)": {
        "details": "See {IERC165-supportsInterface}."
      },
      "symbol()": {
        "details": "See {IERC721Metadata-symbol}."
      },
      "tokenURI(uint256)": {
        "details": "See {IERC721Metadata-tokenURI}."
      },
      "transferFrom(address,address,uint256)": {
        "details": "See {IERC721-transferFrom}."
      },
      "xPriceOfUSD(uint256)": {
        "details": "Returns price for input amount in chosen currency",
        "params": {
          "_amt": "uint256 amount of usd"
        },
        "returns": {
          "_0": "Result of division"
        }
      },
      "yPriceOfUSD(uint256)": {
        "details": "Returns price for input amount in chosen currency",
        "params": {
          "_amt": "uint256 amount of usd"
        },
        "returns": {
          "_0": "Result of division"
        }
      }
    },
    "stateVariables": {
      "VRF": {
        "details": "this contract is a model contract to be deployed through the iii6AssetFactory"
      }
    },
    "version": 1
  },
  "userdoc": {
    "kind": "user",
    "methods": {},
    "version": 1
  }
}