{
  "contractName": "iii6Safes",
  "abi": [
    {
      "inputs": [],
      "stateMutability": "nonpayable",
      "type": "constructor"
    },
    {
      "inputs": [],
      "name": "codebender",
      "outputs": [
        {
          "internalType": "address payable",
          "name": "",
          "type": "address"
        }
      ],
      "stateMutability": "view",
      "type": "function"
    },
    {
      "inputs": [],
      "name": "dias",
      "outputs": [
        {
          "internalType": "address payable",
          "name": "",
          "type": "address"
        }
      ],
      "stateMutability": "view",
      "type": "function"
    },
    {
      "inputs": [],
      "name": "dojo",
      "outputs": [
        {
          "internalType": "address payable",
          "name": "",
          "type": "address"
        }
      ],
      "stateMutability": "view",
      "type": "function"
    },
    {
      "inputs": [],
      "name": "foyl",
      "outputs": [
        {
          "internalType": "address payable",
          "name": "",
          "type": "address"
        }
      ],
      "stateMutability": "view",
      "type": "function"
    },
    {
      "inputs": [],
      "name": "iii6",
      "outputs": [
        {
          "internalType": "address payable",
          "name": "",
          "type": "address"
        }
      ],
      "stateMutability": "view",
      "type": "function"
    },
    {
      "inputs": [],
      "name": "s0x",
      "outputs": [
        {
          "internalType": "address payable",
          "name": "",
          "type": "address"
        }
      ],
      "stateMutability": "view",
      "type": "function"
    },
    {
      "inputs": [],
      "name": "vanByte",
      "outputs": [
        {
          "internalType": "address payable",
          "name": "",
          "type": "address"
        }
      ],
      "stateMutability": "view",
      "type": "function"
    },
    {
      "inputs": [],
      "name": "vrl",
      "outputs": [
        {
          "internalType": "address payable",
          "name": "",
          "type": "address"
        }
      ],
      "stateMutability": "view",
      "type": "function"
    }
  ],
  "bytecode": "0x608060405234801561001057600080fd5b50600146036102295760008060006101000a81548173ffffffffffffffffffffffffffffffffffffffff021916908373ffffffffffffffffffffffffffffffffffffffff1602179055506000600160006101000a81548173ffffffffffffffffffffffffffffffffffffffff021916908373ffffffffffffffffffffffffffffffffffffffff1602179055506000600260006101000a81548173ffffffffffffffffffffffffffffffffffffffff021916908373ffffffffffffffffffffffffffffffffffffffff1602179055506000600360006101000a81548173ffffffffffffffffffffffffffffffffffffffff021916908373ffffffffffffffffffffffffffffffffffffffff1602179055506000600460006101000a81548173ffffffffffffffffffffffffffffffffffffffff021916908373ffffffffffffffffffffffffffffffffffffffff1602179055506000600560006101000a81548173ffffffffffffffffffffffffffffffffffffffff021916908373ffffffffffffffffffffffffffffffffffffffff1602179055506000600660006101000a81548173ffffffffffffffffffffffffffffffffffffffff021916908373ffffffffffffffffffffffffffffffffffffffff1602179055506000600760006101000a81548173ffffffffffffffffffffffffffffffffffffffff021916908373ffffffffffffffffffffffffffffffffffffffff1602179055505b606446036104415760008060006101000a81548173ffffffffffffffffffffffffffffffffffffffff021916908373ffffffffffffffffffffffffffffffffffffffff1602179055506000600160006101000a81548173ffffffffffffffffffffffffffffffffffffffff021916908373ffffffffffffffffffffffffffffffffffffffff1602179055506000600260006101000a81548173ffffffffffffffffffffffffffffffffffffffff021916908373ffffffffffffffffffffffffffffffffffffffff1602179055506000600360006101000a81548173ffffffffffffffffffffffffffffffffffffffff021916908373ffffffffffffffffffffffffffffffffffffffff1602179055506000600460006101000a81548173ffffffffffffffffffffffffffffffffffffffff021916908373ffffffffffffffffffffffffffffffffffffffff1602179055506000600560006101000a81548173ffffffffffffffffffffffffffffffffffffffff021916908373ffffffffffffffffffffffffffffffffffffffff1602179055506000600660006101000a81548173ffffffffffffffffffffffffffffffffffffffff021916908373ffffffffffffffffffffffffffffffffffffffff1602179055506000600760006101000a81548173ffffffffffffffffffffffffffffffffffffffff021916908373ffffffffffffffffffffffffffffffffffffffff1602179055505b608946036106595760008060006101000a81548173ffffffffffffffffffffffffffffffffffffffff021916908373ffffffffffffffffffffffffffffffffffffffff1602179055506000600160006101000a81548173ffffffffffffffffffffffffffffffffffffffff021916908373ffffffffffffffffffffffffffffffffffffffff1602179055506000600260006101000a81548173ffffffffffffffffffffffffffffffffffffffff021916908373ffffffffffffffffffffffffffffffffffffffff1602179055506000600360006101000a81548173ffffffffffffffffffffffffffffffffffffffff021916908373ffffffffffffffffffffffffffffffffffffffff1602179055506000600460006101000a81548173ffffffffffffffffffffffffffffffffffffffff021916908373ffffffffffffffffffffffffffffffffffffffff1602179055506000600560006101000a81548173ffffffffffffffffffffffffffffffffffffffff021916908373ffffffffffffffffffffffffffffffffffffffff1602179055506000600660006101000a81548173ffffffffffffffffffffffffffffffffffffffff021916908373ffffffffffffffffffffffffffffffffffffffff1602179055506000600760006101000a81548173ffffffffffffffffffffffffffffffffffffffff021916908373ffffffffffffffffffffffffffffffffffffffff1602179055505b6201388146036108735760008060006101000a81548173ffffffffffffffffffffffffffffffffffffffff021916908373ffffffffffffffffffffffffffffffffffffffff1602179055506000600160006101000a81548173ffffffffffffffffffffffffffffffffffffffff021916908373ffffffffffffffffffffffffffffffffffffffff1602179055506000600260006101000a81548173ffffffffffffffffffffffffffffffffffffffff021916908373ffffffffffffffffffffffffffffffffffffffff1602179055506000600360006101000a81548173ffffffffffffffffffffffffffffffffffffffff021916908373ffffffffffffffffffffffffffffffffffffffff1602179055506000600460006101000a81548173ffffffffffffffffffffffffffffffffffffffff021916908373ffffffffffffffffffffffffffffffffffffffff1602179055506000600560006101000a81548173ffffffffffffffffffffffffffffffffffffffff021916908373ffffffffffffffffffffffffffffffffffffffff1602179055506000600660006101000a81548173ffffffffffffffffffffffffffffffffffffffff021916908373ffffffffffffffffffffffffffffffffffffffff1602179055506000600760006101000a81548173ffffffffffffffffffffffffffffffffffffffff021916908373ffffffffffffffffffffffffffffffffffffffff1602179055505b61033d806108826000396000f3fe608060405234801561001057600080fd5b50600436106100885760003560e01c806378b0d35b1161005b57806378b0d35b146101055780639856243714610123578063ab6db19914610141578063f5e57f761461015f57610088565b806312945eee1461008d5780632f2f347e146100ab57806333253a9b146100c957806378534a1d146100e7575b600080fd5b61009561017d565b6040516100a291906102ec565b60405180910390f35b6100b36101a3565b6040516100c091906102ec565b60405180910390f35b6100d16101c9565b6040516100de91906102ec565b60405180910390f35b6100ef6101ef565b6040516100fc91906102ec565b60405180910390f35b61010d610213565b60405161011a91906102ec565b60405180910390f35b61012b610239565b60405161013891906102ec565b60405180910390f35b61014961025f565b60405161015691906102ec565b60405180910390f35b610167610285565b60405161017491906102ec565b60405180910390f35b600760009054906101000a900473ffffffffffffffffffffffffffffffffffffffff1681565b600160009054906101000a900473ffffffffffffffffffffffffffffffffffffffff1681565b600660009054906101000a900473ffffffffffffffffffffffffffffffffffffffff1681565b60008054906101000a900473ffffffffffffffffffffffffffffffffffffffff1681565b600560009054906101000a900473ffffffffffffffffffffffffffffffffffffffff1681565b600260009054906101000a900473ffffffffffffffffffffffffffffffffffffffff1681565b600360009054906101000a900473ffffffffffffffffffffffffffffffffffffffff1681565b600460009054906101000a900473ffffffffffffffffffffffffffffffffffffffff1681565b600073ffffffffffffffffffffffffffffffffffffffff82169050919050565b60006102d6826102ab565b9050919050565b6102e6816102cb565b82525050565b600060208201905061030160008301846102dd565b9291505056fea26469706673582212201beb3e52c5e48e93fcb179dad1845a64c6d6e386ee6dc6e13a072c7f32cb977164736f6c63430008110033",
  "immutableReferences": {},
  "source": "// SPDX-License-Identifier: GPL-3.0\r\n// // // // // // // // // // // // // // // // // // // // // // // // // // // // // // // // // // // // // // // // // // // // // // // // // // // // // // // // // // // // //\r\n//\r\n//      MMWKd:..                                                                                    ..:dKWMM\r\n//      MKl.                                                                                            .lKW\r\n//      O'       ..''''''''''''.     .''''''.     .'''''.      .''''''''''''''.     .''''''''''''..       'O\r\n//      '     .ckKNNWNWWWWWWWWWk.   .xNWWNWNl    ,0WWWWW0,     lNWWWWWWWWWNWNk'    ;0NNNWWWWWWWWNNKkc.     '\r\n//           ,OWMMMMMMMMMMMMMMMO.   .kMMMMMWl    ,KMMMMMK,     lWMMMMMMMMMMM0,    ;KMMMMMMMMMMMMMMMMWO,\r\n//          .kMMMMMMMMMMMMMMMMMO.   .kMMMMMWl    ,KMMMMMK,     lWMMMMMMMMMM0,    ;KMMMMMMMMMMMMMMMMMMMk.\r\n//          '0MMMMMMMMMMMMMMMMMO.   .kMMMMMWl    ,KMMMMMK,     lWMMMMMMMMM0,    :KMMMMMMMMMMMMMMMMMMMM0'\r\n//          '0MMMMMMMMMMMMMMMMMO.   .kMMMMMWl    ,KMMMMMK,     lWMMMMMMMM0,    :KMMMMMMMMMMMMMMMMMMMMM0'\r\n//          '0MMMMMMMMMMMMMMMMMO.   .kMMMMMWl    ,KMMMMMK,     lWMMMMMMM0,    ;0NNWWMMMMMMMMMMMMMMMMMM0'\r\n//          '0MMMMMMMMMMMMMMMMMO.   .kMMMMMWl    ,KMMMMMK,     lWMMMMMM0,     .'.',;lkNMMMMMMMMMMMMMMM0'\r\n//          '0MMMMMMMMMMMMMMMMMO.   .kMMMMMWl    ,KMMMMMK,     lWMMMMMK;              ,kWMMMMMMMMMMMMM0'\r\n//          '0MMMMMMMMMMMMMMMMMO.   .kMMMMMWl    ,KMMMMMK,     lWMMMMX:    .:oxxdc'    .dWMMMMMMMMMMMM0'\r\n//          '0MMMMMMMMMMMMMMMMMO.   .kMMMMMWl    ,KMMMMMK,     lWMMMWd.   ,OWMMMMMXl.   '0MMMMMMMMMMMM0'\r\n//          '0MMMMMMMMMMMMMMMMMO.   .kMMMMMWl    ,KMMMMMK,     lWMMMX;   .kMMMMMMMMK,   .xMMMMMMMMMMMM0'\r\n//          '0MMMMMMMMMMMMMMMMMO.   .kMMMMMWl    ,KMMMMMK,     lWMMM0'   .OMMMMMMMMX;   .xMMMMMMMMMMMM0'\r\n//          .OMMMMMMMMMMMMMMMMMO.   .kMMMMMWl    ,KMMMMMK,     lWMMMK,    lNMMMMMMWx.   '0MMMMMMMMMMMMO.\r\n//           lNMMMMMMMMMMMMMMMMO.   .kMMMMMWl    ,KMMMMMK,     lWMMMWd.   .:x0KKKkc.   .dWMMMMMMMMMMMNl\r\n//      .    .c0WMMMMMMMMMMMMMMO.   .kMMMMMWo    ,KMMMMMK,     lWMMMMNd.     ....     .xNMMMMMMMMMMW0c.    .\r\n//      l      .,lddxxxxxxxxxxxc.    :xxxxxd,    .lxxxxxl.     ,dxxxxxd:.            .cdxxxxxxxxddl,.      l\r\n//      No.                                                                                              .oN\r\n//      MW0l'                                                                                          'l0WM\r\n//      MMMWKd;.                                                                                    .;dKWMMM\r\n//\r\n// // // // // // // // // // // // // // // // // // // // // // // // // // // // // // // // // // // // // // // // // // // // // // // // // // // // // // // // // // // // //\r\n//                                                                                                                                                                                  //\r\n//      @dev            ::              Aron Mauritala Ayuk                                                                                                                                          //\r\n//      @msg            ::              stereo@iii6.xyz                                                                                                                                   //\r\n//      @github         ::              @stereoIII6\r\n//      @twitter        ::              @stereoIII6                                                                                                                                              //\r\n//                                                                                                                                                                                  //\r\n// // // // // // // // // // // // // // // // // // // // // // // // // // // // // // // // // // // // // // // // // // // // // // // // // // // // // // // // // // // // //\r\n//                                                                                                                                                                                  //\r\n//      @dev            ::              Juan Xavier Valverde                                                                                                                                    //\r\n//      @msg            ::              juanxavier@iii6.xyz                                                                                                                               //\r\n//      @twitter        ::              @JuanXavier                                                                                                                                             //\r\n//      @github         ::              @JuanXavier                                                                                                                                             //\r\n//                                                                                                                                                                                  //                                                                                                                                                                                 //\r\n// // // // // // // // // // // // // // // // // // // // // // // // // // // // // // // // // // // // // // // // // // // // // // // // // // // // // // // // // // // // //\r\n//  *   *   *   *   *   *   *   *   *   *   *   *   *   *   *   *   *   *   *   *   *   *   *   *   *   *   *   *   *   *   *   *   *   *   *   *   *   *   *   *   *   *   *   *   //\r\n// // // // // // // // // // // // // // // // // // // // // // // // // // // // // // // // // // // // // // // // // // // // // // // // // // // // // // // // // // // // //\r\n//                                                                                                                                                                                  //\r\n//      @company        ::              Fractio Holding                                                                                                                                                                       //\r\n//      @title          ::              iii6 Safes                                                                                                                            //\r\n//      @description    ::              Asset Safes Contract                                                                                                                           //\r\n//      @version        ::              0.0.1                                                                                                                                       //\r\n//      @purpose        ::              Multinet Address Storage                                                                                                           //\r\n//                                                                                                                                                                                  //\r\n//                                                                                                                                                                                  //\r\n//                                                                                                                                                                                  //\r\n//                                                                                                                                                                                  //\r\n//                                                                                                                                                                                  //\r\n// // // // // // // // // // // // // // // // // // // // // // // // // // // // // // // // // // // // // // // // // // // // // // // // // // // // // // // // // // // // //\r\n//  *   *   *   *   *   *   *   *   *   *   *   *   *   *   *   *   *   *   *   *   *   *   *   *   *   *   *   *   *   *   *   *   *   *   *   *   *   *   *   *   *   *   *   *   //\r\n// // // // // // // // // // // // // // // // // // // // // // // // // // // // // // // // // // // // // // // // // // // // // // // // // // // // // // // // // // // // //\r\n\r\n/////////////////////////////////////////////////////////////////////////////////////////////////////////////////////\r\n\r\n/////////////////////////////////////////////////////////////////////////////////////////////////////////////////////\r\n\r\npragma solidity ^0.8.7;\r\n\r\ncontract iii6Safes {\r\n    /**\r\n     * @dev this contract is a model contract to be deployed through the iii6AssetFactory\r\n     */\r\n    // ██╗███╗░░██╗██╗████████╗██╗░█████╗░██╗░░░░░██╗░██████╗░█████╗░████████╗██╗░█████╗░███╗░░██╗\r\n    // ██║████╗░██║██║╚══██╔══╝██║██╔══██╗██║░░░░░██║██╔════╝██╔══██╗╚══██╔══╝██║██╔══██╗████╗░██║\r\n    // ██║██╔██╗██║██║░░░██║░░░██║███████║██║░░░░░██║╚█████╗░███████║░░░██║░░░██║██║░░██║██╔██╗██║\r\n    // ██║██║╚████║██║░░░██║░░░██║██╔══██║██║░░░░░██║░╚═══██╗██╔══██║░░░██║░░░██║██║░░██║██║╚████║\r\n    // ██║██║░╚███║██║░░░██║░░░██║██║░░██║███████╗██║██████╔╝██║░░██║░░░██║░░░██║╚█████╔╝██║░╚███║\r\n    // ╚═╝╚═╝░░╚══╝╚═╝░░░╚═╝░░░╚═╝╚═╝░░╚═╝╚══════╝╚═╝╚═════╝░╚═╝░░╚═╝░░░╚═╝░░░╚═╝░╚════╝░╚═╝░░╚══╝\r\n\r\n    // validation that safe adrress is accessible for everyone\r\n    address payable public iii6; // developers conglomerate\r\n    address payable public dojo; // devtool framework\r\n    address payable public s0x; // community framework\r\n    address payable public dias; // dias conglomerate\r\n    address payable public codebender; // dynamic nft editor\r\n    address payable public vanByte; // dynamic arts museum\r\n    address payable public foyl; // digital arts community\r\n    address payable public vrl; // dynamic tech promo framework\r\n\r\n    //@audit: why not use block.chainid to always get the correct id and avoid possible confusions\r\n    constructor() {\r\n        if (block.chainid == 1) {\r\n            // ETH MAINNET\r\n            iii6 = payable(0x0000000000000000000000000000000000000000); // developers conglomerate\r\n            dojo = payable(0x0000000000000000000000000000000000000000); // devtool framework\r\n            s0x = payable(0x0000000000000000000000000000000000000000); // community framework\r\n            dias = payable(0x0000000000000000000000000000000000000000); // dias conglomerate\r\n            codebender = payable(0x0000000000000000000000000000000000000000); // dynamic nft editor\r\n            vanByte = payable(0x0000000000000000000000000000000000000000); // dynamic arts museum\r\n            foyl = payable(0x0000000000000000000000000000000000000000); // digital arts community\r\n            vrl = payable(0x0000000000000000000000000000000000000000);\r\n        }\r\n        if (block.chainid == 100) {\r\n            // GNOSIS\r\n            iii6 = payable(0x0000000000000000000000000000000000000000); // developers conglomerate\r\n            dojo = payable(0x0000000000000000000000000000000000000000); // devtool framework\r\n            s0x = payable(0x0000000000000000000000000000000000000000); // community framework\r\n            dias = payable(0x0000000000000000000000000000000000000000); // dias conglomerate\r\n            codebender = payable(0x0000000000000000000000000000000000000000); // dynamic nft editor\r\n            vanByte = payable(0x0000000000000000000000000000000000000000); // dynamic arts museum\r\n            foyl = payable(0x0000000000000000000000000000000000000000); // digital arts community\r\n            vrl = payable(0x0000000000000000000000000000000000000000);\r\n        }\r\n        if (block.chainid == 137) {\r\n            // Polygon MAINNET\r\n            iii6 = payable(0x0000000000000000000000000000000000000000); // developers conglomerate\r\n            dojo = payable(0x0000000000000000000000000000000000000000); // devtool framework\r\n            s0x = payable(0x0000000000000000000000000000000000000000); // community framework\r\n            dias = payable(0x0000000000000000000000000000000000000000); // dias conglomerate\r\n            codebender = payable(0x0000000000000000000000000000000000000000); // dynamic nft editor\r\n            vanByte = payable(0x0000000000000000000000000000000000000000); // dynamic arts museum\r\n            foyl = payable(0x0000000000000000000000000000000000000000); // digital arts community\r\n            vrl = payable(0x0000000000000000000000000000000000000000);\r\n        }\r\n        if (block.chainid == 80001) {\r\n            // Polygon Mumbai\r\n            iii6 = payable(0x0000000000000000000000000000000000000000); // developers conglomerate\r\n            dojo = payable(0x0000000000000000000000000000000000000000); // devtool framework\r\n            s0x = payable(0x0000000000000000000000000000000000000000); // community framework\r\n            dias = payable(0x0000000000000000000000000000000000000000); // dias conglomerate\r\n            codebender = payable(0x0000000000000000000000000000000000000000); // dynamic nft editor\r\n            vanByte = payable(0x0000000000000000000000000000000000000000); // dynamic arts museum\r\n            foyl = payable(0x0000000000000000000000000000000000000000); // digital arts community\r\n            vrl = payable(0x0000000000000000000000000000000000000000);\r\n        }\r\n    }\r\n}\r\n",
  "sourcePath": "C:\\Users\\juanx\\OneDrive\\Documents\\work\\III6Dojo\\contracts\\iii6utils\\Wallets\\iii6Safes.sol",
  "compiler": {
    "name": "solc",
    "version": "0.8.17+commit.8df45f5f.Emscripten.clang"
  },
  "schemaVersion": "3.4.11",
  "updatedAt": "2022-12-19T18:38:50.953Z",
  "devdoc": {
    "kind": "dev",
    "methods": {},
    "stateVariables": {
      "iii6": {
        "details": "this contract is a model contract to be deployed through the iii6AssetFactory"
      }
    },
    "version": 1
  },
  "userdoc": {
    "kind": "user",
    "methods": {},
    "version": 1
  }
}