{
  "contractName": "iii6CoinModel",
  "abi": [
    {
      "inputs": [
        {
          "internalType": "string",
          "name": "_name",
          "type": "string"
        },
        {
          "internalType": "string",
          "name": "_sym",
          "type": "string"
        },
        {
          "internalType": "uint256",
          "name": "_rate",
          "type": "uint256"
        },
        {
          "internalType": "uint256",
          "name": "_supply",
          "type": "uint256"
        },
        {
          "internalType": "bool",
          "name": "_burn",
          "type": "bool"
        },
        {
          "internalType": "bool",
          "name": "_pause",
          "type": "bool"
        },
        {
          "internalType": "uint256",
          "name": "_curr",
          "type": "uint256"
        }
      ],
      "stateMutability": "nonpayable",
      "type": "constructor"
    },
    {
      "inputs": [],
      "name": "All_Slots_Taken",
      "type": "error"
    },
    {
      "inputs": [],
      "name": "Already_Listed",
      "type": "error"
    },
    {
      "inputs": [],
      "name": "Array_Length_Mismatch",
      "type": "error"
    },
    {
      "inputs": [],
      "name": "Event_Has_Ended",
      "type": "error"
    },
    {
      "inputs": [],
      "name": "Greenlist_Expired",
      "type": "error"
    },
    {
      "inputs": [],
      "name": "Insufficient_Amount",
      "type": "error"
    },
    {
      "inputs": [],
      "name": "Insufficient_Balance",
      "type": "error"
    },
    {
      "inputs": [],
      "name": "Insufficient_Funds",
      "type": "error"
    },
    {
      "inputs": [],
      "name": "Insufficient_MLQ",
      "type": "error"
    },
    {
      "inputs": [],
      "name": "Insufficient_Supply",
      "type": "error"
    },
    {
      "inputs": [],
      "name": "Invalid_Amount",
      "type": "error"
    },
    {
      "inputs": [],
      "name": "Invalid_Response",
      "type": "error"
    },
    {
      "inputs": [],
      "name": "Max_Tokens_Minted",
      "type": "error"
    },
    {
      "inputs": [],
      "name": "Min_Requirements_Not_Met",
      "type": "error"
    },
    {
      "inputs": [],
      "name": "Mint_In_Progress",
      "type": "error"
    },
    {
      "inputs": [],
      "name": "Mint_Is_Not_Yet_Live",
      "type": "error"
    },
    {
      "inputs": [],
      "name": "Not_Burnable",
      "type": "error"
    },
    {
      "inputs": [],
      "name": "Not_Friends",
      "type": "error"
    },
    {
      "inputs": [],
      "name": "Not_Friends_Rev",
      "type": "error"
    },
    {
      "inputs": [],
      "name": "Not_Greenlisted",
      "type": "error"
    },
    {
      "inputs": [],
      "name": "Not_Pausable",
      "type": "error"
    },
    {
      "inputs": [],
      "name": "Sold_Out",
      "type": "error"
    },
    {
      "inputs": [],
      "name": "Unauthorized",
      "type": "error"
    },
    {
      "inputs": [],
      "name": "You_Are_Not_The_Holder",
      "type": "error"
    },
    {
      "inputs": [],
      "name": "You_Need_To_Wait",
      "type": "error"
    },
    {
      "anonymous": false,
      "inputs": [
        {
          "indexed": true,
          "internalType": "address",
          "name": "owner",
          "type": "address"
        },
        {
          "indexed": true,
          "internalType": "address",
          "name": "spender",
          "type": "address"
        },
        {
          "indexed": false,
          "internalType": "uint256",
          "name": "value",
          "type": "uint256"
        }
      ],
      "name": "Approval",
      "type": "event"
    },
    {
      "anonymous": false,
      "inputs": [
        {
          "indexed": true,
          "internalType": "address",
          "name": "previousOwner",
          "type": "address"
        },
        {
          "indexed": true,
          "internalType": "address",
          "name": "newOwner",
          "type": "address"
        }
      ],
      "name": "OwnershipTransferred",
      "type": "event"
    },
    {
      "anonymous": false,
      "inputs": [
        {
          "indexed": false,
          "internalType": "address",
          "name": "account",
          "type": "address"
        }
      ],
      "name": "Paused",
      "type": "event"
    },
    {
      "anonymous": false,
      "inputs": [
        {
          "indexed": true,
          "internalType": "address",
          "name": "from",
          "type": "address"
        },
        {
          "indexed": true,
          "internalType": "address",
          "name": "to",
          "type": "address"
        },
        {
          "indexed": false,
          "internalType": "uint256",
          "name": "value",
          "type": "uint256"
        }
      ],
      "name": "Transfer",
      "type": "event"
    },
    {
      "anonymous": false,
      "inputs": [
        {
          "indexed": false,
          "internalType": "address",
          "name": "account",
          "type": "address"
        }
      ],
      "name": "Unpaused",
      "type": "event"
    },
    {
      "stateMutability": "payable",
      "type": "fallback"
    },
    {
      "inputs": [],
      "name": "COIN_USD",
      "outputs": [
        {
          "internalType": "uint256",
          "name": "",
          "type": "uint256"
        }
      ],
      "stateMutability": "view",
      "type": "function"
    },
    {
      "inputs": [],
      "name": "ETH_USD",
      "outputs": [
        {
          "internalType": "uint256",
          "name": "",
          "type": "uint256"
        }
      ],
      "stateMutability": "view",
      "type": "function"
    },
    {
      "inputs": [],
      "name": "MAX_SUPPLY",
      "outputs": [
        {
          "internalType": "uint256",
          "name": "",
          "type": "uint256"
        }
      ],
      "stateMutability": "view",
      "type": "function"
    },
    {
      "inputs": [],
      "name": "PUB_SUPPLY",
      "outputs": [
        {
          "internalType": "uint256",
          "name": "",
          "type": "uint256"
        }
      ],
      "stateMutability": "view",
      "type": "function"
    },
    {
      "inputs": [],
      "name": "X_USD",
      "outputs": [
        {
          "internalType": "uint256",
          "name": "",
          "type": "uint256"
        }
      ],
      "stateMutability": "view",
      "type": "function"
    },
    {
      "inputs": [],
      "name": "Y_USD",
      "outputs": [
        {
          "internalType": "uint256",
          "name": "",
          "type": "uint256"
        }
      ],
      "stateMutability": "view",
      "type": "function"
    },
    {
      "inputs": [
        {
          "internalType": "address",
          "name": "owner",
          "type": "address"
        },
        {
          "internalType": "address",
          "name": "spender",
          "type": "address"
        }
      ],
      "name": "allowance",
      "outputs": [
        {
          "internalType": "uint256",
          "name": "",
          "type": "uint256"
        }
      ],
      "stateMutability": "view",
      "type": "function"
    },
    {
      "inputs": [
        {
          "internalType": "address",
          "name": "spender",
          "type": "address"
        },
        {
          "internalType": "uint256",
          "name": "amount",
          "type": "uint256"
        }
      ],
      "name": "approve",
      "outputs": [
        {
          "internalType": "bool",
          "name": "",
          "type": "bool"
        }
      ],
      "stateMutability": "nonpayable",
      "type": "function"
    },
    {
      "inputs": [
        {
          "internalType": "address",
          "name": "account",
          "type": "address"
        }
      ],
      "name": "balanceOf",
      "outputs": [
        {
          "internalType": "uint256",
          "name": "",
          "type": "uint256"
        }
      ],
      "stateMutability": "view",
      "type": "function"
    },
    {
      "inputs": [
        {
          "internalType": "address",
          "name": "account",
          "type": "address"
        },
        {
          "internalType": "uint256",
          "name": "amount",
          "type": "uint256"
        }
      ],
      "name": "burnFrom",
      "outputs": [],
      "stateMutability": "nonpayable",
      "type": "function"
    },
    {
      "inputs": [
        {
          "internalType": "uint256",
          "name": "_amt",
          "type": "uint256"
        }
      ],
      "name": "coinPriceOfEth",
      "outputs": [
        {
          "internalType": "uint256",
          "name": "",
          "type": "uint256"
        }
      ],
      "stateMutability": "view",
      "type": "function"
    },
    {
      "inputs": [
        {
          "internalType": "uint256",
          "name": "_amt",
          "type": "uint256"
        }
      ],
      "name": "coinPriceOfUSD",
      "outputs": [
        {
          "internalType": "uint256",
          "name": "",
          "type": "uint256"
        }
      ],
      "stateMutability": "view",
      "type": "function"
    },
    {
      "inputs": [
        {
          "internalType": "uint256",
          "name": "_amt",
          "type": "uint256"
        }
      ],
      "name": "coinPriceOfX",
      "outputs": [
        {
          "internalType": "uint256",
          "name": "",
          "type": "uint256"
        }
      ],
      "stateMutability": "view",
      "type": "function"
    },
    {
      "inputs": [
        {
          "internalType": "uint256",
          "name": "_amt",
          "type": "uint256"
        }
      ],
      "name": "coinPriceOfY",
      "outputs": [
        {
          "internalType": "uint256",
          "name": "",
          "type": "uint256"
        }
      ],
      "stateMutability": "view",
      "type": "function"
    },
    {
      "inputs": [],
      "name": "decimals",
      "outputs": [
        {
          "internalType": "uint8",
          "name": "",
          "type": "uint8"
        }
      ],
      "stateMutability": "view",
      "type": "function"
    },
    {
      "inputs": [
        {
          "internalType": "address",
          "name": "spender",
          "type": "address"
        },
        {
          "internalType": "uint256",
          "name": "subtractedValue",
          "type": "uint256"
        }
      ],
      "name": "decreaseAllowance",
      "outputs": [
        {
          "internalType": "bool",
          "name": "",
          "type": "bool"
        }
      ],
      "stateMutability": "nonpayable",
      "type": "function"
    },
    {
      "inputs": [
        {
          "internalType": "uint256",
          "name": "_amt",
          "type": "uint256"
        }
      ],
      "name": "ethPriceOfUSD",
      "outputs": [
        {
          "internalType": "uint256",
          "name": "",
          "type": "uint256"
        }
      ],
      "stateMutability": "view",
      "type": "function"
    },
    {
      "inputs": [],
      "name": "getCoinPriceInEth",
      "outputs": [
        {
          "internalType": "uint256",
          "name": "coinPriceEth",
          "type": "uint256"
        }
      ],
      "stateMutability": "view",
      "type": "function"
    },
    {
      "inputs": [],
      "name": "getCoinPriceInX",
      "outputs": [
        {
          "internalType": "uint256",
          "name": "coinPriceX",
          "type": "uint256"
        }
      ],
      "stateMutability": "view",
      "type": "function"
    },
    {
      "inputs": [],
      "name": "getCoinPriceInY",
      "outputs": [
        {
          "internalType": "uint256",
          "name": "coinPriceY",
          "type": "uint256"
        }
      ],
      "stateMutability": "view",
      "type": "function"
    },
    {
      "inputs": [],
      "name": "getEthPriceInCoin",
      "outputs": [
        {
          "internalType": "uint256",
          "name": "ethPriceCoin",
          "type": "uint256"
        }
      ],
      "stateMutability": "view",
      "type": "function"
    },
    {
      "inputs": [],
      "name": "getEthPriceInX",
      "outputs": [
        {
          "internalType": "uint256",
          "name": "ethPriceX",
          "type": "uint256"
        }
      ],
      "stateMutability": "view",
      "type": "function"
    },
    {
      "inputs": [],
      "name": "getEthPriceInY",
      "outputs": [
        {
          "internalType": "uint256",
          "name": "ethPriceY",
          "type": "uint256"
        }
      ],
      "stateMutability": "view",
      "type": "function"
    },
    {
      "inputs": [],
      "name": "getXPriceInCoin",
      "outputs": [
        {
          "internalType": "uint256",
          "name": "xPriceCoin",
          "type": "uint256"
        }
      ],
      "stateMutability": "view",
      "type": "function"
    },
    {
      "inputs": [],
      "name": "getXPriceInEth",
      "outputs": [
        {
          "internalType": "uint256",
          "name": "xPriceEth",
          "type": "uint256"
        }
      ],
      "stateMutability": "view",
      "type": "function"
    },
    {
      "inputs": [],
      "name": "getXPriceInY",
      "outputs": [
        {
          "internalType": "uint256",
          "name": "xPriceY",
          "type": "uint256"
        }
      ],
      "stateMutability": "view",
      "type": "function"
    },
    {
      "inputs": [],
      "name": "getYPriceInCoin",
      "outputs": [
        {
          "internalType": "uint256",
          "name": "yPriceCoin",
          "type": "uint256"
        }
      ],
      "stateMutability": "view",
      "type": "function"
    },
    {
      "inputs": [],
      "name": "getYPriceInEth",
      "outputs": [
        {
          "internalType": "uint256",
          "name": "yPriceEth",
          "type": "uint256"
        }
      ],
      "stateMutability": "view",
      "type": "function"
    },
    {
      "inputs": [],
      "name": "getYPriceInX",
      "outputs": [
        {
          "internalType": "uint256",
          "name": "yPriceX",
          "type": "uint256"
        }
      ],
      "stateMutability": "view",
      "type": "function"
    },
    {
      "inputs": [
        {
          "internalType": "address",
          "name": "spender",
          "type": "address"
        },
        {
          "internalType": "uint256",
          "name": "addedValue",
          "type": "uint256"
        }
      ],
      "name": "increaseAllowance",
      "outputs": [
        {
          "internalType": "bool",
          "name": "",
          "type": "bool"
        }
      ],
      "stateMutability": "nonpayable",
      "type": "function"
    },
    {
      "inputs": [],
      "name": "name",
      "outputs": [
        {
          "internalType": "string",
          "name": "",
          "type": "string"
        }
      ],
      "stateMutability": "view",
      "type": "function"
    },
    {
      "inputs": [],
      "name": "owner",
      "outputs": [
        {
          "internalType": "address",
          "name": "",
          "type": "address"
        }
      ],
      "stateMutability": "view",
      "type": "function"
    },
    {
      "inputs": [],
      "name": "paused",
      "outputs": [
        {
          "internalType": "bool",
          "name": "",
          "type": "bool"
        }
      ],
      "stateMutability": "view",
      "type": "function"
    },
    {
      "inputs": [],
      "name": "rate",
      "outputs": [
        {
          "internalType": "uint256",
          "name": "",
          "type": "uint256"
        }
      ],
      "stateMutability": "view",
      "type": "function"
    },
    {
      "inputs": [],
      "name": "renounceOwnership",
      "outputs": [],
      "stateMutability": "nonpayable",
      "type": "function"
    },
    {
      "inputs": [
        {
          "internalType": "address",
          "name": "_oracle",
          "type": "address"
        },
        {
          "internalType": "uint256",
          "name": "_digits",
          "type": "uint256"
        }
      ],
      "name": "setX",
      "outputs": [
        {
          "internalType": "bool",
          "name": "",
          "type": "bool"
        }
      ],
      "stateMutability": "nonpayable",
      "type": "function"
    },
    {
      "inputs": [
        {
          "internalType": "address",
          "name": "_oracle",
          "type": "address"
        },
        {
          "internalType": "uint256",
          "name": "_digits",
          "type": "uint256"
        }
      ],
      "name": "setY",
      "outputs": [
        {
          "internalType": "bool",
          "name": "",
          "type": "bool"
        }
      ],
      "stateMutability": "nonpayable",
      "type": "function"
    },
    {
      "inputs": [],
      "name": "symbol",
      "outputs": [
        {
          "internalType": "string",
          "name": "",
          "type": "string"
        }
      ],
      "stateMutability": "view",
      "type": "function"
    },
    {
      "inputs": [],
      "name": "title",
      "outputs": [
        {
          "internalType": "string",
          "name": "",
          "type": "string"
        }
      ],
      "stateMutability": "view",
      "type": "function"
    },
    {
      "inputs": [],
      "name": "totalSupply",
      "outputs": [
        {
          "internalType": "uint256",
          "name": "",
          "type": "uint256"
        }
      ],
      "stateMutability": "view",
      "type": "function"
    },
    {
      "inputs": [
        {
          "internalType": "address",
          "name": "recipient",
          "type": "address"
        },
        {
          "internalType": "uint256",
          "name": "amount",
          "type": "uint256"
        }
      ],
      "name": "transfer",
      "outputs": [
        {
          "internalType": "bool",
          "name": "",
          "type": "bool"
        }
      ],
      "stateMutability": "nonpayable",
      "type": "function"
    },
    {
      "inputs": [
        {
          "internalType": "address",
          "name": "sender",
          "type": "address"
        },
        {
          "internalType": "address",
          "name": "recipient",
          "type": "address"
        },
        {
          "internalType": "uint256",
          "name": "amount",
          "type": "uint256"
        }
      ],
      "name": "transferFrom",
      "outputs": [
        {
          "internalType": "bool",
          "name": "",
          "type": "bool"
        }
      ],
      "stateMutability": "nonpayable",
      "type": "function"
    },
    {
      "inputs": [
        {
          "internalType": "address",
          "name": "newOwner",
          "type": "address"
        }
      ],
      "name": "transferOwnership",
      "outputs": [],
      "stateMutability": "nonpayable",
      "type": "function"
    },
    {
      "inputs": [
        {
          "internalType": "uint256",
          "name": "_amt",
          "type": "uint256"
        }
      ],
      "name": "xPriceOfUSD",
      "outputs": [
        {
          "internalType": "uint256",
          "name": "",
          "type": "uint256"
        }
      ],
      "stateMutability": "view",
      "type": "function"
    },
    {
      "inputs": [
        {
          "internalType": "uint256",
          "name": "_amt",
          "type": "uint256"
        }
      ],
      "name": "yPriceOfUSD",
      "outputs": [
        {
          "internalType": "uint256",
          "name": "",
          "type": "uint256"
        }
      ],
      "stateMutability": "view",
      "type": "function"
    },
    {
      "stateMutability": "payable",
      "type": "receive"
    },
    {
      "inputs": [
        {
          "internalType": "uint256",
          "name": "_curr",
          "type": "uint256"
        }
      ],
      "name": "setCurr",
      "outputs": [
        {
          "internalType": "enum iii6Misc.Coins",
          "name": "",
          "type": "uint8"
        }
      ],
      "stateMutability": "nonpayable",
      "type": "function"
    },
    {
      "inputs": [
        {
          "internalType": "uint256",
          "name": "_rate",
          "type": "uint256"
        }
      ],
      "name": "setRate",
      "outputs": [
        {
          "internalType": "uint256",
          "name": "",
          "type": "uint256"
        }
      ],
      "stateMutability": "nonpayable",
      "type": "function"
    },
    {
      "inputs": [
        {
          "internalType": "uint256",
          "name": "_newSupply",
          "type": "uint256"
        }
      ],
      "name": "setMaxSupply",
      "outputs": [
        {
          "internalType": "uint256",
          "name": "",
          "type": "uint256"
        }
      ],
      "stateMutability": "nonpayable",
      "type": "function"
    },
    {
      "inputs": [
        {
          "internalType": "uint256",
          "name": "_amount",
          "type": "uint256"
        }
      ],
      "name": "burn",
      "outputs": [],
      "stateMutability": "nonpayable",
      "type": "function"
    },
    {
      "inputs": [],
      "name": "togglePause",
      "outputs": [
        {
          "internalType": "bool",
          "name": "",
          "type": "bool"
        }
      ],
      "stateMutability": "nonpayable",
      "type": "function"
    },
    {
      "inputs": [],
      "name": "toggleBurn",
      "outputs": [
        {
          "internalType": "bool",
          "name": "",
          "type": "bool"
        }
      ],
      "stateMutability": "nonpayable",
      "type": "function"
    },
    {
      "inputs": [],
      "name": "toggleState",
      "outputs": [
        {
          "internalType": "bool",
          "name": "",
          "type": "bool"
        }
      ],
      "stateMutability": "nonpayable",
      "type": "function"
    },
    {
      "inputs": [
        {
          "internalType": "uint256",
          "name": "_amount",
          "type": "uint256"
        }
      ],
      "name": "buyTokens",
      "outputs": [
        {
          "internalType": "uint256",
          "name": "",
          "type": "uint256"
        }
      ],
      "stateMutability": "payable",
      "type": "function"
    }
  ],
  "bytecode": "0x60806040523480156200001157600080fd5b5060405162005d9038038062005d90833981810160405281019062000037919062001041565b868681600390816200004a919062001373565b5080600490816200005c919062001373565b5050506000600560006101000a81548160ff0219169083151502179055506200009a6200008e6200038560201b60201c565b6200038d60201b60201c565b60014603620000fe5773e47da91495c75e1d48569f343938380d8303b1f2600660006101000a81548173ffffffffffffffffffffffffffffffffffffffff021916908373ffffffffffffffffffffffffffffffffffffffff1602179055506200022a565b60054603620001625773e47da91495c75e1d48569f343938380d8303b1f2600660006101000a81548173ffffffffffffffffffffffffffffffffffffffff021916908373ffffffffffffffffffffffffffffffffffffffff16021790555062000229565b60894603620001c65773e47da91495c75e1d48569f343938380d8303b1f2600660006101000a81548173ffffffffffffffffffffffffffffffffffffffff021916908373ffffffffffffffffffffffffffffffffffffffff16021790555062000228565b620138814603620002275773e47da91495c75e1d48569f343938380d8303b1f2600660006101000a81548173ffffffffffffffffffffffffffffffffffffffff021916908373ffffffffffffffffffffffffffffffffffffffff1602179055505b5b5b5b6200023b856200045360201b60201c565b508360098190555086600c908162000254919062001373565b5082600b60006101000a81548160ff02191690831515021790555081600b60016101000a81548160ff0219169083151502179055506200029a8162000cf860201b60201c565b600d60006101000a81548160ff02191690836004811115620002c157620002c06200145a565b5b02179055506040518060600160405280600a548152602001868152602001600d60009054906101000a900460ff1660048111156200030457620003036200145a565b5b815250600e600a548154811062000320576200031f62001489565b5b9060005260206000209060030201600082015181600001556020820151816001015560408201518160020160006101000a81548160ff0219169083600481111562000370576200036f6200145a565b5b02179055509050505050505050505062001594565b600033905090565b6000600560019054906101000a900473ffffffffffffffffffffffffffffffffffffffff16905081600560016101000a81548173ffffffffffffffffffffffffffffffffffffffff021916908373ffffffffffffffffffffffffffffffffffffffff1602179055508173ffffffffffffffffffffffffffffffffffffffff168173ffffffffffffffffffffffffffffffffffffffff167f8be0079c531659141344cd1fd0a4f28419497f9722a3daafe3b4186f6b6457e060405160405180910390a35050565b600080600060048111156200046d576200046c6200145a565b5b600d60009054906101000a900460ff1660048111156200049257620004916200145a565b5b03620006335760008173ffffffffffffffffffffffffffffffffffffffff16638d4a8ffe856040518263ffffffff1660e01b8152600401620004d59190620014c9565b602060405180830381865afa158015620004f3573d6000803e3d6000fd5b505050506040513d601f19601f82011682018060405250810190620005199190620014e6565b9050600081101562000557576040517fc1a21f4e00000000000000000000000000000000000000000000000000000000815260040160405180910390fd5b6040518060600160405280600a548152602001828152602001600d60009054906101000a900460ff1660048111156200059557620005946200145a565b5b815250600e600a5481548110620005b157620005b062001489565b5b9060005260206000209060030201600082015181600001556020820151816001015560408201518160020160006101000a81548160ff021916908360048111156200060157620006006200145a565b5b0217905550905050600a60008154809291906200061e9062001547565b91905055508060078190559250505062000cf3565b600160048111156200064a57620006496200145a565b5b600d60009054906101000a900460ff1660048111156200066f576200066e6200145a565b5b03620007925760008390506000811015620006b6576040517fc1a21f4e00000000000000000000000000000000000000000000000000000000815260040160405180910390fd5b6040518060600160405280600a548152602001828152602001600d60009054906101000a900460ff166004811115620006f457620006f36200145a565b5b815250600e600a548154811062000710576200070f62001489565b5b9060005260206000209060030201600082015181600001556020820151816001015560408201518160020160006101000a81548160ff0219169083600481111562000760576200075f6200145a565b5b0217905550905050600a60008154809291906200077d9062001547565b91905055508060078190559250505062000cf3565b60026004811115620007a957620007a86200145a565b5b600d60009054906101000a900460ff166004811115620007ce57620007cd6200145a565b5b036200096f5760008173ffffffffffffffffffffffffffffffffffffffff16637afcc7a4856040518263ffffffff1660e01b8152600401620008119190620014c9565b602060405180830381865afa1580156200082f573d6000803e3d6000fd5b505050506040513d601f19601f82011682018060405250810190620008559190620014e6565b9050600081101562000893576040517fc1a21f4e00000000000000000000000000000000000000000000000000000000815260040160405180910390fd5b6040518060600160405280600a548152602001828152602001600d60009054906101000a900460ff166004811115620008d157620008d06200145a565b5b815250600e600a5481548110620008ed57620008ec62001489565b5b9060005260206000209060030201600082015181600001556020820151816001015560408201518160020160006101000a81548160ff021916908360048111156200093d576200093c6200145a565b5b0217905550905050600a60008154809291906200095a9062001547565b91905055508060078190559250505062000cf3565b600360048111156200098657620009856200145a565b5b600d60009054906101000a900460ff166004811115620009ab57620009aa6200145a565b5b0362000b4c5760008173ffffffffffffffffffffffffffffffffffffffff166387434dcd856040518263ffffffff1660e01b8152600401620009ee9190620014c9565b602060405180830381865afa15801562000a0c573d6000803e3d6000fd5b505050506040513d601f19601f8201168201806040525081019062000a329190620014e6565b9050600081101562000a70576040517fc1a21f4e00000000000000000000000000000000000000000000000000000000815260040160405180910390fd5b6040518060600160405280600a548152602001828152602001600d60009054906101000a900460ff16600481111562000aae5762000aad6200145a565b5b815250600e600a548154811062000aca5762000ac962001489565b5b9060005260206000209060030201600082015181600001556020820151816001015560408201518160020160006101000a81548160ff0219169083600481111562000b1a5762000b196200145a565b5b0217905550905050600a600081548092919062000b379062001547565b91905055508060078190559250505062000cf3565b60048081111562000b625762000b616200145a565b5b600d60009054906101000a900460ff16600481111562000b875762000b866200145a565b5b0362000cec5760008173ffffffffffffffffffffffffffffffffffffffff1663d1381f4e856040518263ffffffff1660e01b815260040162000bca9190620014c9565b602060405180830381865afa15801562000be8573d6000803e3d6000fd5b505050506040513d601f19601f8201168201806040525081019062000c0e9190620014e6565b90506040518060600160405280600a548152602001828152602001600d60009054906101000a900460ff16600481111562000c4e5762000c4d6200145a565b5b815250600e600a548154811062000c6a5762000c6962001489565b5b9060005260206000209060030201600082015181600001556020820151816001015560408201518160020160006101000a81548160ff0219169083600481111562000cba5762000cb96200145a565b5b0217905550905050600a600081548092919062000cd79062001547565b91905055508060078190559250505062000cf3565b6007549150505b919050565b600080820362000d36576000600d60006101000a81548160ff0219169083600481111562000d2b5762000d2a6200145a565b5b021790555062000e1f565b6001820362000d73576001600d60006101000a81548160ff0219169083600481111562000d685762000d676200145a565b5b021790555062000e1e565b6002820362000db0576002600d60006101000a81548160ff0219169083600481111562000da55762000da46200145a565b5b021790555062000e1d565b6003820362000ded576003600d60006101000a81548160ff0219169083600481111562000de25762000de16200145a565b5b021790555062000e1c565b6004600d60006101000a81548160ff0219169083600481111562000e165762000e156200145a565b5b02179055505b5b5b5b600d60009054906101000a900460ff169050919050565b6000604051905090565b600080fd5b600080fd5b600080fd5b600080fd5b6000601f19601f8301169050919050565b7f4e487b7100000000000000000000000000000000000000000000000000000000600052604160045260246000fd5b62000e9f8262000e54565b810181811067ffffffffffffffff8211171562000ec15762000ec062000e65565b5b80604052505050565b600062000ed662000e36565b905062000ee4828262000e94565b919050565b600067ffffffffffffffff82111562000f075762000f0662000e65565b5b62000f128262000e54565b9050602081019050919050565b60005b8381101562000f3f57808201518184015260208101905062000f22565b60008484015250505050565b600062000f6262000f5c8462000ee9565b62000eca565b90508281526020810184848401111562000f815762000f8062000e4f565b5b62000f8e84828562000f1f565b509392505050565b600082601f83011262000fae5762000fad62000e4a565b5b815162000fc084826020860162000f4b565b91505092915050565b6000819050919050565b62000fde8162000fc9565b811462000fea57600080fd5b50565b60008151905062000ffe8162000fd3565b92915050565b60008115159050919050565b6200101b8162001004565b81146200102757600080fd5b50565b6000815190506200103b8162001010565b92915050565b600080600080600080600060e0888a03121562001063576200106262000e40565b5b600088015167ffffffffffffffff81111562001084576200108362000e45565b5b620010928a828b0162000f96565b975050602088015167ffffffffffffffff811115620010b657620010b562000e45565b5b620010c48a828b0162000f96565b9650506040620010d78a828b0162000fed565b9550506060620010ea8a828b0162000fed565b9450506080620010fd8a828b016200102a565b93505060a0620011108a828b016200102a565b92505060c0620011238a828b0162000fed565b91505092959891949750929550565b600081519050919050565b7f4e487b7100000000000000000000000000000000000000000000000000000000600052602260045260246000fd5b600060028204905060018216806200118557607f821691505b6020821081036200119b576200119a6200113d565b5b50919050565b60008190508160005260206000209050919050565b60006020601f8301049050919050565b600082821b905092915050565b600060088302620012057fffffffffffffffffffffffffffffffffffffffffffffffffffffffffffffffff82620011c6565b620012118683620011c6565b95508019841693508086168417925050509392505050565b6000819050919050565b6000620012546200124e620012488462000fc9565b62001229565b62000fc9565b9050919050565b6000819050919050565b620012708362001233565b620012886200127f826200125b565b848454620011d3565b825550505050565b600090565b6200129f62001290565b620012ac81848462001265565b505050565b5b81811015620012d457620012c860008262001295565b600181019050620012b2565b5050565b601f8211156200132357620012ed81620011a1565b620012f884620011b6565b8101602085101562001308578190505b620013206200131785620011b6565b830182620012b1565b50505b505050565b600082821c905092915050565b6000620013486000198460080262001328565b1980831691505092915050565b600062001363838362001335565b9150826002028217905092915050565b6200137e8262001132565b67ffffffffffffffff8111156200139a576200139962000e65565b5b620013a682546200116c565b620013b3828285620012d8565b600060209050601f831160018114620013eb5760008415620013d6578287015190505b620013e2858262001355565b86555062001452565b601f198416620013fb86620011a1565b60005b828110156200142557848901518255600182019150602085019450602081019050620013fe565b8683101562001445578489015162001441601f89168262001335565b8355505b6001600288020188555050505b505050505050565b7f4e487b7100000000000000000000000000000000000000000000000000000000600052602160045260246000fd5b7f4e487b7100000000000000000000000000000000000000000000000000000000600052603260045260246000fd5b620014c38162000fc9565b82525050565b6000602082019050620014e06000830184620014b8565b92915050565b600060208284031215620014ff57620014fe62000e40565b5b60006200150f8482850162000fed565b91505092915050565b7f4e487b7100000000000000000000000000000000000000000000000000000000600052601160045260246000fd5b6000620015548262000fc9565b91507fffffffffffffffffffffffffffffffffffffffffffffffffffffffffffffffff820362001589576200158862001518565b5b600182019050919050565b6147ec80620015a46000396000f3fe60806040526004361061031e5760003560e01c8063715018a6116101ab578063a457c2d7116100f7578063dd62ed3e11610095578063e2ab78131161006f578063e2ab781314610c99578063e9f38fc514610cd6578063f2fde38b14610d13578063f42fff0114610d3c5761032d565b8063dd62ed3e14610c06578063e04777af14610c43578063e12ef5ed14610c6e5761032d565b8063c4ae3168116100d1578063c4ae316814610b48578063d1381f4e14610b73578063d21b872014610bb0578063d37e510414610bdb5761032d565b8063a457c2d714610aa3578063a9059cbb14610ae0578063bec9908e14610b1d5761032d565b8063836ceb9d116101645780638da5cb5b1161013e5780638da5cb5b146109f75780638dff74a714610a2257806395d89b4114610a4d57806396af428a14610a785761032d565b8063836ceb9d1461094057806387434dcd1461097d5780638d4a8ffe146109ba5761032d565b8063715018a614610842578063778a56ce1461085957806379cc67901461088457806379d79fcc146108ad5780637afcc7a4146108d85780637d670117146109155761032d565b806334fcf4371161026a5780634a2ad99f116102235780636260f55b116101fd5780636260f55b146107725780636a443b591461079d5780636f8b44b0146107c857806370a08231146108055761032d565b80634a2ad99f146106df5780634a79d50c1461071c5780635c975abb146107475761032d565b806334fcf437146105b65780633610724e146105f3578063395093511461062357806342966c6814610660578063445919461461068957806348cf734d146106b45761032d565b8063201a49d6116102d757806329d7a0bd116102b157806329d7a0bd1461050a5780632c4e722e14610535578063313ce5671461056057806332cb6b0c1461058b5761032d565b8063201a49d61461047757806323b872dd146104a2578063287ead9e146104df5761032d565b8063033a7a021461033f578063054dca2a1461037c57806306fdde03146103a7578063095ea7b3146103d25780630b4185ea1461040f57806318160ddd1461044c5761032d565b3661032d5761032b610d67565b005b610335610d67565b61033d610d86565b005b34801561034b57600080fd5b5061036660048036038101906103619190613836565b610e38565b6040516103739190613872565b60405180910390f35b34801561038857600080fd5b50610391610e81565b60405161039e9190613872565b60405180910390f35b3480156103b357600080fd5b506103bc610ebe565b6040516103c9919061391d565b60405180910390f35b3480156103de57600080fd5b506103f960048036038101906103f4919061399d565b610f50565b60405161040691906139f8565b60405180910390f35b34801561041b57600080fd5b5061043660048036038101906104319190613836565b610f6e565b6040516104439190613872565b60405180910390f35b34801561045857600080fd5b50610461610fb7565b60405161046e9190613872565b60405180910390f35b34801561048357600080fd5b5061048c610fc1565b6040516104999190613872565b60405180910390f35b3480156104ae57600080fd5b506104c960048036038101906104c49190613a13565b610fc7565b6040516104d691906139f8565b60405180910390f35b3480156104eb57600080fd5b506104f46110bf565b6040516105019190613872565b60405180910390f35b34801561051657600080fd5b5061051f6110fc565b60405161052c9190613872565b60405180910390f35b34801561054157600080fd5b5061054a611139565b6040516105579190613872565b60405180910390f35b34801561056c57600080fd5b5061057561113f565b6040516105829190613a82565b60405180910390f35b34801561059757600080fd5b506105a0611148565b6040516105ad9190613872565b60405180910390f35b3480156105c257600080fd5b506105dd60048036038101906105d89190613836565b61114e565b6040516105ea9190613872565b60405180910390f35b61060d60048036038101906106089190613836565b6111dc565b60405161061a9190613872565b60405180910390f35b34801561062f57600080fd5b5061064a6004803603810190610645919061399d565b6112be565b60405161065791906139f8565b60405180910390f35b34801561066c57600080fd5b5061068760048036038101906106829190613836565b61136a565b005b34801561069557600080fd5b5061069e6113c4565b6040516106ab9190613872565b60405180910390f35b3480156106c057600080fd5b506106c96113d3565b6040516106d69190613872565b60405180910390f35b3480156106eb57600080fd5b506107066004803603810190610701919061399d565b611410565b60405161071391906139f8565b60405180910390f35b34801561072857600080fd5b506107316114ba565b60405161073e919061391d565b60405180910390f35b34801561075357600080fd5b5061075c611548565b60405161076991906139f8565b60405180910390f35b34801561077e57600080fd5b5061078761155f565b6040516107949190613872565b60405180910390f35b3480156107a957600080fd5b506107b261156e565b6040516107bf9190613872565b60405180910390f35b3480156107d457600080fd5b506107ef60048036038101906107ea9190613836565b61157d565b6040516107fc9190613872565b60405180910390f35b34801561081157600080fd5b5061082c60048036038101906108279190613a9d565b611608565b6040516108399190613872565b60405180910390f35b34801561084e57600080fd5b50610857611650565b005b34801561086557600080fd5b5061086e6116d8565b60405161087b91906139f8565b60405180910390f35b34801561089057600080fd5b506108ab60048036038101906108a6919061399d565b611784565b005b3480156108b957600080fd5b506108c26117ff565b6040516108cf9190613872565b60405180910390f35b3480156108e457600080fd5b506108ff60048036038101906108fa9190613836565b61180e565b60405161090c9190613872565b60405180910390f35b34801561092157600080fd5b5061092a611858565b6040516109379190613872565b60405180910390f35b34801561094c57600080fd5b5061096760048036038101906109629190613836565b611867565b6040516109749190613b41565b60405180910390f35b34801561098957600080fd5b506109a4600480360381019061099f9190613836565b6118f5565b6040516109b19190613872565b60405180910390f35b3480156109c657600080fd5b506109e160048036038101906109dc9190613836565b61193f565b6040516109ee9190613872565b60405180910390f35b348015610a0357600080fd5b50610a0c611989565b604051610a199190613b6b565b60405180910390f35b348015610a2e57600080fd5b50610a376119b3565b604051610a449190613872565b60405180910390f35b348015610a5957600080fd5b50610a626119f0565b604051610a6f919061391d565b60405180910390f35b348015610a8457600080fd5b50610a8d611a82565b604051610a9a9190613872565b60405180910390f35b348015610aaf57600080fd5b50610aca6004803603810190610ac5919061399d565b611a91565b604051610ad791906139f8565b60405180910390f35b348015610aec57600080fd5b50610b076004803603810190610b02919061399d565b611b7c565b604051610b1491906139f8565b60405180910390f35b348015610b2957600080fd5b50610b32611b9a565b604051610b3f9190613872565b60405180910390f35b348015610b5457600080fd5b50610b5d611bd7565b604051610b6a91906139f8565b60405180910390f35b348015610b7f57600080fd5b50610b9a6004803603810190610b959190613836565b611c83565b604051610ba79190613872565b60405180910390f35b348015610bbc57600080fd5b50610bc5611ccd565b604051610bd29190613872565b60405180910390f35b348015610be757600080fd5b50610bf0611d0a565b604051610bfd91906139f8565b60405180910390f35b348015610c1257600080fd5b50610c2d6004803603810190610c289190613b86565b611e05565b604051610c3a9190613872565b60405180910390f35b348015610c4f57600080fd5b50610c58611e8c565b604051610c659190613872565b60405180910390f35b348015610c7a57600080fd5b50610c83611e9b565b604051610c909190613872565b60405180910390f35b348015610ca557600080fd5b50610cc06004803603810190610cbb9190613836565b611ed8565b604051610ccd9190613872565b60405180910390f35b348015610ce257600080fd5b50610cfd6004803603810190610cf8919061399d565b611f22565b604051610d0a91906139f8565b60405180910390f35b348015610d1f57600080fd5b50610d3a6004803603810190610d359190613a9d565b611fcc565b005b348015610d4857600080fd5b50610d516120c3565b604051610d5e9190613872565b60405180910390f35b600060075434610d779190613c24565b9050610d833382612100565b50565b60008060075482610d979190613c24565b9050600754811015610dd5576040517f99956c4600000000000000000000000000000000000000000000000000000000815260040160405180910390fd5b600081600854600954610de89190613c55565b610df29190613c55565b1015610e2a576040517f1e6f0b5400000000000000000000000000000000000000000000000000000000815260040160405180910390fd5b610e343382612100565b5050565b6000806509184e72a00083610e4d9190613c89565b90506000610e5961225f565b9050610e78670de0b6b3a764000083610e729190613c89565b826122fc565b92505050919050565b600080610e8c61232d565b90506000610e9861225f565b9050610eb7670de0b6b3a764000083610eb19190613c89565b826122fc565b9250505090565b606060038054610ecd90613cfa565b80601f0160208091040260200160405190810160405280929190818152602001828054610ef990613cfa565b8015610f465780601f10610f1b57610100808354040283529160200191610f46565b820191906000526020600020905b815481529060010190602001808311610f2957829003601f168201915b5050505050905090565b6000610f64610f5d6123ca565b84846123d2565b6001905092915050565b6000806509184e72a00083610f839190613c89565b90506000610f8f61232d565b9050610fae670de0b6b3a764000083610fa89190613c89565b826122fc565b92505050919050565b6000600254905090565b60085481565b6000610fd484848461259b565b6000600160008673ffffffffffffffffffffffffffffffffffffffff1673ffffffffffffffffffffffffffffffffffffffff168152602001908152602001600020600061101f6123ca565b73ffffffffffffffffffffffffffffffffffffffff1673ffffffffffffffffffffffffffffffffffffffff1681526020019081526020016000205490508281101561109f576040517f08c379a000000000000000000000000000000000000000000000000000000000815260040161109690613d9d565b60405180910390fd5b6110b3856110ab6123ca565b8584036123d2565b60019150509392505050565b6000806110ca61225f565b905060006110d661281a565b90506110f5670de0b6b3a7640000836110ef9190613c89565b826122fc565b9250505090565b60008061110761232d565b905060006111136128b7565b9050611132670de0b6b3a76400008361112c9190613c89565b826122fc565b9250505090565b60075481565b60006012905090565b60095481565b60006111586123ca565b73ffffffffffffffffffffffffffffffffffffffff16611176611989565b73ffffffffffffffffffffffffffffffffffffffff16146111cc576040517f08c379a00000000000000000000000000000000000000000000000000000000081526004016111c390613e09565b60405180910390fd5b6111d582612954565b9050919050565b6000600754826111ec9190613c89565b3411611224576040517f99956c4600000000000000000000000000000000000000000000000000000000815260040160405180910390fd5b6000670de0b6b3a76400008361123a9190613c89565b60085460095461124a9190613c55565b6112549190613c55565b101561128c576040517f1e6f0b5400000000000000000000000000000000000000000000000000000000815260040160405180910390fd5b6112a933670de0b6b3a7640000846112a49190613c89565b612100565b600754826112b79190613c89565b9050919050565b60006113606112cb6123ca565b8484600160006112d96123ca565b73ffffffffffffffffffffffffffffffffffffffff1673ffffffffffffffffffffffffffffffffffffffff16815260200190815260200160002060008873ffffffffffffffffffffffffffffffffffffffff1673ffffffffffffffffffffffffffffffffffffffff1681526020019081526020016000205461135b9190613e29565b6123d2565b6001905092915050565b60001515600b60009054906101000a900460ff161515036113b7576040517ffebe7e1900000000000000000000000000000000000000000000000000000000815260040160405180910390fd5b6113c13382613182565b50565b60006113ce61225f565b905090565b6000806113de61232d565b905060006113ea61281a565b9050611409670de0b6b3a7640000836114039190613c89565b826122fc565b9250505090565b6000600660009054906101000a900473ffffffffffffffffffffffffffffffffffffffff1673ffffffffffffffffffffffffffffffffffffffff16634a2ad99f84846040518363ffffffff1660e01b815260040161146f929190613e5d565b6020604051808303816000875af115801561148e573d6000803e3d6000fd5b505050506040513d601f19601f820116820180604052508101906114b29190613eb2565b905092915050565b600c80546114c790613cfa565b80601f01602080910402602001604051908101604052809291908181526020018280546114f390613cfa565b80156115405780601f1061151557610100808354040283529160200191611540565b820191906000526020600020905b81548152906001019060200180831161152357829003601f168201915b505050505081565b6000600560009054906101000a900460ff16905090565b600061156961232d565b905090565b6000611578613358565b905090565b60006115876123ca565b73ffffffffffffffffffffffffffffffffffffffff166115a5611989565b73ffffffffffffffffffffffffffffffffffffffff16146115fb576040517f08c379a00000000000000000000000000000000000000000000000000000000081526004016115f290613e09565b60405180910390fd5b8160098190559050919050565b60008060008373ffffffffffffffffffffffffffffffffffffffff1673ffffffffffffffffffffffffffffffffffffffff168152602001908152602001600020549050919050565b6116586123ca565b73ffffffffffffffffffffffffffffffffffffffff16611676611989565b73ffffffffffffffffffffffffffffffffffffffff16146116cc576040517f08c379a00000000000000000000000000000000000000000000000000000000081526004016116c390613e09565b60405180910390fd5b6116d66000613395565b565b60006116e26123ca565b73ffffffffffffffffffffffffffffffffffffffff16611700611989565b73ffffffffffffffffffffffffffffffffffffffff1614611756576040517f08c379a000000000000000000000000000000000000000000000000000000000815260040161174d90613e09565b60405180910390fd5b600b60009054906101000a900460ff1615600b60006101000a81548160ff0219169083151502179055905090565b6000611797836117926123ca565b611e05565b9050818110156117dc576040517f08c379a00000000000000000000000000000000000000000000000000000000081526004016117d390613f51565b60405180910390fd5b6117f0836117e86123ca565b8484036123d2565b6117fa8383613182565b505050565b600061180961345b565b905090565b600080662386f26fc10000836118249190613c89565b9050600061183061345b565b905061184f670de0b6b3a7640000836118499190613c89565b826122fc565b92505050919050565b6000611862613498565b905090565b60006118716123ca565b73ffffffffffffffffffffffffffffffffffffffff1661188f611989565b73ffffffffffffffffffffffffffffffffffffffff16146118e5576040517f08c379a00000000000000000000000000000000000000000000000000000000081526004016118dc90613e09565b60405180910390fd5b6118ee826134d5565b9050919050565b600080662386f26fc100008361190b9190613c89565b90506000611917613358565b9050611936670de0b6b3a7640000836119309190613c89565b826122fc565b92505050919050565b600080662386f26fc10000836119559190613c89565b90506000611961613498565b9050611980670de0b6b3a76400008361197a9190613c89565b826122fc565b92505050919050565b6000600560019054906101000a900473ffffffffffffffffffffffffffffffffffffffff16905090565b6000806119be6128b7565b905060006119ca61281a565b90506119e9670de0b6b3a7640000826119e39190613c89565b836122fc565b9250505090565b6060600480546119ff90613cfa565b80601f0160208091040260200160405190810160405280929190818152602001828054611a2b90613cfa565b8015611a785780601f10611a4d57610100808354040283529160200191611a78565b820191906000526020600020905b815481529060010190602001808311611a5b57829003601f168201915b5050505050905090565b6000611a8c61281a565b905090565b60008060016000611aa06123ca565b73ffffffffffffffffffffffffffffffffffffffff1673ffffffffffffffffffffffffffffffffffffffff16815260200190815260200160002060008573ffffffffffffffffffffffffffffffffffffffff1673ffffffffffffffffffffffffffffffffffffffff16815260200190815260200160002054905082811015611b5d576040517f08c379a0000000000000000000000000000000000000000000000000000000008152600401611b5490613fe3565b60405180910390fd5b611b71611b686123ca565b858584036123d2565b600191505092915050565b6000611b90611b896123ca565b848461259b565b6001905092915050565b600080611ba561232d565b90506000611bb161281a565b9050611bd0670de0b6b3a764000082611bca9190613c89565b836122fc565b9250505090565b6000611be16123ca565b73ffffffffffffffffffffffffffffffffffffffff16611bff611989565b73ffffffffffffffffffffffffffffffffffffffff1614611c55576040517f08c379a0000000000000000000000000000000000000000000000000000000008152600401611c4c90613e09565b60405180910390fd5b600b60019054906101000a900460ff1615600b60016101000a81548160ff0219169083151502179055905090565b600080662386f26fc1000083611c999190613c89565b90506000611ca56128b7565b9050611cc4670de0b6b3a764000083611cbe9190613c89565b826122fc565b92505050919050565b600080611cd86128b7565b90506000611ce461225f565b9050611d03670de0b6b3a764000082611cfd9190613c89565b836122fc565b9250505090565b6000611d146123ca565b73ffffffffffffffffffffffffffffffffffffffff16611d32611989565b73ffffffffffffffffffffffffffffffffffffffff1614611d88576040517f08c379a0000000000000000000000000000000000000000000000000000000008152600401611d7f90613e09565b60405180910390fd5b60001515600b60019054906101000a900460ff16151503611dd5576040517fda61c0d800000000000000000000000000000000000000000000000000000000815260040160405180910390fd5b611ddd611548565b15611def57611dea6135fc565b611df8565b611df761369e565b5b611e00611548565b905090565b6000600160008473ffffffffffffffffffffffffffffffffffffffff1673ffffffffffffffffffffffffffffffffffffffff16815260200190815260200160002060008373ffffffffffffffffffffffffffffffffffffffff1673ffffffffffffffffffffffffffffffffffffffff16815260200190815260200160002054905092915050565b6000611e966128b7565b905090565b600080611ea661225f565b90506000611eb261281a565b9050611ed1670de0b6b3a764000082611ecb9190613c89565b836122fc565b9250505090565b600080662386f26fc1000083611eee9190613c89565b90506000611efa61281a565b9050611f19670de0b6b3a764000083611f139190613c89565b826122fc565b92505050919050565b6000600660009054906101000a900473ffffffffffffffffffffffffffffffffffffffff1673ffffffffffffffffffffffffffffffffffffffff1663e9f38fc584846040518363ffffffff1660e01b8152600401611f81929190613e5d565b6020604051808303816000875af1158015611fa0573d6000803e3d6000fd5b505050506040513d601f19601f82011682018060405250810190611fc49190613eb2565b905092915050565b611fd46123ca565b73ffffffffffffffffffffffffffffffffffffffff16611ff2611989565b73ffffffffffffffffffffffffffffffffffffffff1614612048576040517f08c379a000000000000000000000000000000000000000000000000000000000815260040161203f90613e09565b60405180910390fd5b600073ffffffffffffffffffffffffffffffffffffffff168173ffffffffffffffffffffffffffffffffffffffff16036120b7576040517f08c379a00000000000000000000000000000000000000000000000000000000081526004016120ae90614075565b60405180910390fd5b6120c081613395565b50565b6000806120ce61232d565b905060006120da61225f565b90506120f9670de0b6b3a7640000826120f39190613c89565b836122fc565b9250505090565b600073ffffffffffffffffffffffffffffffffffffffff168273ffffffffffffffffffffffffffffffffffffffff160361216f576040517f08c379a0000000000000000000000000000000000000000000000000000000008152600401612166906140e1565b60405180910390fd5b61217b60008383613741565b806002600082825461218d9190613e29565b92505081905550806000808473ffffffffffffffffffffffffffffffffffffffff1673ffffffffffffffffffffffffffffffffffffffff16815260200190815260200160002060008282546121e29190613e29565b925050819055508173ffffffffffffffffffffffffffffffffffffffff16600073ffffffffffffffffffffffffffffffffffffffff167fddf252ad1be2c89b69c2b068fc378daa952ba7f163c4a11628f55a4df523b3ef836040516122479190613872565b60405180910390a361225b60008383613799565b5050565b600080600660009054906101000a900473ffffffffffffffffffffffffffffffffffffffff1673ffffffffffffffffffffffffffffffffffffffff166396722fe56040518163ffffffff1660e01b8152600401602060405180830381865afa1580156122cf573d6000803e3d6000fd5b505050506040513d601f19601f820116820180604052508101906122f39190614137565b90508091505090565b600080828461230b9190614164565b905082818561231a9190613c55565b6123249190613c24565b91505092915050565b600080600660009054906101000a900473ffffffffffffffffffffffffffffffffffffffff1673ffffffffffffffffffffffffffffffffffffffff16639a18c7956040518163ffffffff1660e01b8152600401602060405180830381865afa15801561239d573d6000803e3d6000fd5b505050506040513d601f19601f820116820180604052508101906123c19190614137565b90508091505090565b600033905090565b600073ffffffffffffffffffffffffffffffffffffffff168373ffffffffffffffffffffffffffffffffffffffff1603612441576040517f08c379a000000000000000000000000000000000000000000000000000000000815260040161243890614207565b60405180910390fd5b600073ffffffffffffffffffffffffffffffffffffffff168273ffffffffffffffffffffffffffffffffffffffff16036124b0576040517f08c379a00000000000000000000000000000000000000000000000000000000081526004016124a790614299565b60405180910390fd5b80600160008573ffffffffffffffffffffffffffffffffffffffff1673ffffffffffffffffffffffffffffffffffffffff16815260200190815260200160002060008473ffffffffffffffffffffffffffffffffffffffff1673ffffffffffffffffffffffffffffffffffffffff168152602001908152602001600020819055508173ffffffffffffffffffffffffffffffffffffffff168373ffffffffffffffffffffffffffffffffffffffff167f8c5be1e5ebec7d5bd14f71427d1e84f3dd0314c0f7b2291e5b200ac8c7c3b9258360405161258e9190613872565b60405180910390a3505050565b600073ffffffffffffffffffffffffffffffffffffffff168373ffffffffffffffffffffffffffffffffffffffff160361260a576040517f08c379a00000000000000000000000000000000000000000000000000000000081526004016126019061432b565b60405180910390fd5b600073ffffffffffffffffffffffffffffffffffffffff168273ffffffffffffffffffffffffffffffffffffffff1603612679576040517f08c379a0000000000000000000000000000000000000000000000000000000008152600401612670906143bd565b60405180910390fd5b612684838383613741565b60008060008573ffffffffffffffffffffffffffffffffffffffff1673ffffffffffffffffffffffffffffffffffffffff1681526020019081526020016000205490508181101561270a576040517f08c379a00000000000000000000000000000000000000000000000000000000081526004016127019061444f565b60405180910390fd5b8181036000808673ffffffffffffffffffffffffffffffffffffffff1673ffffffffffffffffffffffffffffffffffffffff16815260200190815260200160002081905550816000808573ffffffffffffffffffffffffffffffffffffffff1673ffffffffffffffffffffffffffffffffffffffff168152602001908152602001600020600082825461279d9190613e29565b925050819055508273ffffffffffffffffffffffffffffffffffffffff168473ffffffffffffffffffffffffffffffffffffffff167fddf252ad1be2c89b69c2b068fc378daa952ba7f163c4a11628f55a4df523b3ef846040516128019190613872565b60405180910390a3612814848484613799565b50505050565b600080600660009054906101000a900473ffffffffffffffffffffffffffffffffffffffff1673ffffffffffffffffffffffffffffffffffffffff1663414641df6040518163ffffffff1660e01b8152600401602060405180830381865afa15801561288a573d6000803e3d6000fd5b505050506040513d601f19601f820116820180604052508101906128ae9190614137565b90508091505090565b600080600660009054906101000a900473ffffffffffffffffffffffffffffffffffffffff1673ffffffffffffffffffffffffffffffffffffffff1663f2e9bd7a6040518163ffffffff1660e01b8152600401602060405180830381865afa158015612927573d6000803e3d6000fd5b505050506040513d601f19601f8201168201806040525081019061294b9190614137565b90508091505090565b6000806000600481111561296b5761296a613aca565b5b600d60009054906101000a900460ff16600481111561298d5761298c613aca565b5b03612b1b5760008173ffffffffffffffffffffffffffffffffffffffff16638d4a8ffe856040518263ffffffff1660e01b81526004016129cd9190613872565b602060405180830381865afa1580156129ea573d6000803e3d6000fd5b505050506040513d601f19601f82011682018060405250810190612a0e9190614484565b90506000811015612a4b576040517fc1a21f4e00000000000000000000000000000000000000000000000000000000815260040160405180910390fd5b6040518060600160405280600a548152602001828152602001600d60009054906101000a900460ff166004811115612a8657612a85613aca565b5b815250600e600a5481548110612a9f57612a9e6144b1565b5b9060005260206000209060030201600082015181600001556020820151816001015560408201518160020160006101000a81548160ff02191690836004811115612aec57612aeb613aca565b5b0217905550905050600a6000815480929190612b07906144e0565b91905055508060078190559250505061317d565b60016004811115612b2f57612b2e613aca565b5b600d60009054906101000a900460ff166004811115612b5157612b50613aca565b5b03612c665760008390506000811015612b96576040517fc1a21f4e00000000000000000000000000000000000000000000000000000000815260040160405180910390fd5b6040518060600160405280600a548152602001828152602001600d60009054906101000a900460ff166004811115612bd157612bd0613aca565b5b815250600e600a5481548110612bea57612be96144b1565b5b9060005260206000209060030201600082015181600001556020820151816001015560408201518160020160006101000a81548160ff02191690836004811115612c3757612c36613aca565b5b0217905550905050600a6000815480929190612c52906144e0565b91905055508060078190559250505061317d565b60026004811115612c7a57612c79613aca565b5b600d60009054906101000a900460ff166004811115612c9c57612c9b613aca565b5b03612e2a5760008173ffffffffffffffffffffffffffffffffffffffff16637afcc7a4856040518263ffffffff1660e01b8152600401612cdc9190613872565b602060405180830381865afa158015612cf9573d6000803e3d6000fd5b505050506040513d601f19601f82011682018060405250810190612d1d9190614484565b90506000811015612d5a576040517fc1a21f4e00000000000000000000000000000000000000000000000000000000815260040160405180910390fd5b6040518060600160405280600a548152602001828152602001600d60009054906101000a900460ff166004811115612d9557612d94613aca565b5b815250600e600a5481548110612dae57612dad6144b1565b5b9060005260206000209060030201600082015181600001556020820151816001015560408201518160020160006101000a81548160ff02191690836004811115612dfb57612dfa613aca565b5b0217905550905050600a6000815480929190612e16906144e0565b91905055508060078190559250505061317d565b60036004811115612e3e57612e3d613aca565b5b600d60009054906101000a900460ff166004811115612e6057612e5f613aca565b5b03612fee5760008173ffffffffffffffffffffffffffffffffffffffff166387434dcd856040518263ffffffff1660e01b8152600401612ea09190613872565b602060405180830381865afa158015612ebd573d6000803e3d6000fd5b505050506040513d601f19601f82011682018060405250810190612ee19190614484565b90506000811015612f1e576040517fc1a21f4e00000000000000000000000000000000000000000000000000000000815260040160405180910390fd5b6040518060600160405280600a548152602001828152602001600d60009054906101000a900460ff166004811115612f5957612f58613aca565b5b815250600e600a5481548110612f7257612f716144b1565b5b9060005260206000209060030201600082015181600001556020820151816001015560408201518160020160006101000a81548160ff02191690836004811115612fbf57612fbe613aca565b5b0217905550905050600a6000815480929190612fda906144e0565b91905055508060078190559250505061317d565b60048081111561300157613000613aca565b5b600d60009054906101000a900460ff16600481111561302357613022613aca565b5b036131765760008173ffffffffffffffffffffffffffffffffffffffff1663d1381f4e856040518263ffffffff1660e01b81526004016130639190613872565b602060405180830381865afa158015613080573d6000803e3d6000fd5b505050506040513d601f19601f820116820180604052508101906130a49190614484565b90506040518060600160405280600a548152602001828152602001600d60009054906101000a900460ff1660048111156130e1576130e0613aca565b5b815250600e600a54815481106130fa576130f96144b1565b5b9060005260206000209060030201600082015181600001556020820151816001015560408201518160020160006101000a81548160ff0219169083600481111561314757613146613aca565b5b0217905550905050600a6000815480929190613162906144e0565b91905055508060078190559250505061317d565b6007549150505b919050565b600073ffffffffffffffffffffffffffffffffffffffff168273ffffffffffffffffffffffffffffffffffffffff16036131f1576040517f08c379a00000000000000000000000000000000000000000000000000000000081526004016131e89061459a565b60405180910390fd5b6131fd82600083613741565b60008060008473ffffffffffffffffffffffffffffffffffffffff1673ffffffffffffffffffffffffffffffffffffffff16815260200190815260200160002054905081811015613283576040517f08c379a000000000000000000000000000000000000000000000000000000000815260040161327a9061462c565b60405180910390fd5b8181036000808573ffffffffffffffffffffffffffffffffffffffff1673ffffffffffffffffffffffffffffffffffffffff1681526020019081526020016000208190555081600260008282546132da9190613c55565b92505081905550600073ffffffffffffffffffffffffffffffffffffffff168373ffffffffffffffffffffffffffffffffffffffff167fddf252ad1be2c89b69c2b068fc378daa952ba7f163c4a11628f55a4df523b3ef8460405161333f9190613872565b60405180910390a361335383600084613799565b505050565b6000806133636128b7565b9050600061336f61225f565b905061338e670de0b6b3a7640000836133889190613c89565b826122fc565b9250505090565b6000600560019054906101000a900473ffffffffffffffffffffffffffffffffffffffff16905081600560016101000a81548173ffffffffffffffffffffffffffffffffffffffff021916908373ffffffffffffffffffffffffffffffffffffffff1602179055508173ffffffffffffffffffffffffffffffffffffffff168173ffffffffffffffffffffffffffffffffffffffff167f8be0079c531659141344cd1fd0a4f28419497f9722a3daafe3b4186f6b6457e060405160405180910390a35050565b6000806134666128b7565b9050600061347261281a565b9050613491670de0b6b3a76400008361348b9190613c89565b826122fc565b9250505090565b6000806134a36128b7565b905060006134af61232d565b90506134ce670de0b6b3a7640000836134c89190613c89565b826122fc565b9250505090565b600080820361350e576000600d60006101000a81548160ff0219169083600481111561350457613503613aca565b5b02179055506135e5565b60018203613546576001600d60006101000a81548160ff0219169083600481111561353c5761353b613aca565b5b02179055506135e4565b6002820361357e576002600d60006101000a81548160ff0219169083600481111561357457613573613aca565b5b02179055506135e3565b600382036135b6576003600d60006101000a81548160ff021916908360048111156135ac576135ab613aca565b5b02179055506135e2565b6004600d60006101000a81548160ff021916908360048111156135dc576135db613aca565b5b02179055505b5b5b5b600d60009054906101000a900460ff169050919050565b613604611548565b613643576040517f08c379a000000000000000000000000000000000000000000000000000000000815260040161363a90614698565b60405180910390fd5b6000600560006101000a81548160ff0219169083151502179055507f5db9ee0a495bf2e6ff9c91a7834c1ba4fdd244a5e8aa4e537bd38aeae4b073aa6136876123ca565b6040516136949190613b6b565b60405180910390a1565b6136a6611548565b156136e6576040517f08c379a00000000000000000000000000000000000000000000000000000000081526004016136dd90614704565b60405180910390fd5b6001600560006101000a81548160ff0219169083151502179055507f62e78cea01bee320cd4e420270b5ea74000d11b0c9f74754ebdbfc544b05a25861372a6123ca565b6040516137379190613b6b565b60405180910390a1565b613749611548565b15613789576040517f08c379a000000000000000000000000000000000000000000000000000000000815260040161378090614704565b60405180910390fd5b61379483838361379e565b505050565b505050565b6137a98383836137f6565b6137b1611548565b156137f1576040517f08c379a00000000000000000000000000000000000000000000000000000000081526004016137e890614796565b60405180910390fd5b505050565b505050565b600080fd5b6000819050919050565b61381381613800565b811461381e57600080fd5b50565b6000813590506138308161380a565b92915050565b60006020828403121561384c5761384b6137fb565b5b600061385a84828501613821565b91505092915050565b61386c81613800565b82525050565b60006020820190506138876000830184613863565b92915050565b600081519050919050565b600082825260208201905092915050565b60005b838110156138c75780820151818401526020810190506138ac565b60008484015250505050565b6000601f19601f8301169050919050565b60006138ef8261388d565b6138f98185613898565b93506139098185602086016138a9565b613912816138d3565b840191505092915050565b6000602082019050818103600083015261393781846138e4565b905092915050565b600073ffffffffffffffffffffffffffffffffffffffff82169050919050565b600061396a8261393f565b9050919050565b61397a8161395f565b811461398557600080fd5b50565b60008135905061399781613971565b92915050565b600080604083850312156139b4576139b36137fb565b5b60006139c285828601613988565b92505060206139d385828601613821565b9150509250929050565b60008115159050919050565b6139f2816139dd565b82525050565b6000602082019050613a0d60008301846139e9565b92915050565b600080600060608486031215613a2c57613a2b6137fb565b5b6000613a3a86828701613988565b9350506020613a4b86828701613988565b9250506040613a5c86828701613821565b9150509250925092565b600060ff82169050919050565b613a7c81613a66565b82525050565b6000602082019050613a976000830184613a73565b92915050565b600060208284031215613ab357613ab26137fb565b5b6000613ac184828501613988565b91505092915050565b7f4e487b7100000000000000000000000000000000000000000000000000000000600052602160045260246000fd5b60058110613b0a57613b09613aca565b5b50565b6000819050613b1b82613af9565b919050565b6000613b2b82613b0d565b9050919050565b613b3b81613b20565b82525050565b6000602082019050613b566000830184613b32565b92915050565b613b658161395f565b82525050565b6000602082019050613b806000830184613b5c565b92915050565b60008060408385031215613b9d57613b9c6137fb565b5b6000613bab85828601613988565b9250506020613bbc85828601613988565b9150509250929050565b7f4e487b7100000000000000000000000000000000000000000000000000000000600052601260045260246000fd5b7f4e487b7100000000000000000000000000000000000000000000000000000000600052601160045260246000fd5b6000613c2f82613800565b9150613c3a83613800565b925082613c4a57613c49613bc6565b5b828204905092915050565b6000613c6082613800565b9150613c6b83613800565b9250828203905081811115613c8357613c82613bf5565b5b92915050565b6000613c9482613800565b9150613c9f83613800565b9250828202613cad81613800565b91508282048414831517613cc457613cc3613bf5565b5b5092915050565b7f4e487b7100000000000000000000000000000000000000000000000000000000600052602260045260246000fd5b60006002820490506001821680613d1257607f821691505b602082108103613d2557613d24613ccb565b5b50919050565b7f45524332303a207472616e7366657220616d6f756e742065786365656473206160008201527f6c6c6f77616e6365000000000000000000000000000000000000000000000000602082015250565b6000613d87602883613898565b9150613d9282613d2b565b604082019050919050565b60006020820190508181036000830152613db681613d7a565b9050919050565b7f4f776e61626c653a2063616c6c6572206973206e6f7420746865206f776e6572600082015250565b6000613df3602083613898565b9150613dfe82613dbd565b602082019050919050565b60006020820190508181036000830152613e2281613de6565b9050919050565b6000613e3482613800565b9150613e3f83613800565b9250828201905080821115613e5757613e56613bf5565b5b92915050565b6000604082019050613e726000830185613b5c565b613e7f6020830184613863565b9392505050565b613e8f816139dd565b8114613e9a57600080fd5b50565b600081519050613eac81613e86565b92915050565b600060208284031215613ec857613ec76137fb565b5b6000613ed684828501613e9d565b91505092915050565b7f45524332303a206275726e20616d6f756e74206578636565647320616c6c6f7760008201527f616e636500000000000000000000000000000000000000000000000000000000602082015250565b6000613f3b602483613898565b9150613f4682613edf565b604082019050919050565b60006020820190508181036000830152613f6a81613f2e565b9050919050565b7f45524332303a2064656372656173656420616c6c6f77616e63652062656c6f7760008201527f207a65726f000000000000000000000000000000000000000000000000000000602082015250565b6000613fcd602583613898565b9150613fd882613f71565b604082019050919050565b60006020820190508181036000830152613ffc81613fc0565b9050919050565b7f4f776e61626c653a206e6577206f776e657220697320746865207a65726f206160008201527f6464726573730000000000000000000000000000000000000000000000000000602082015250565b600061405f602683613898565b915061406a82614003565b604082019050919050565b6000602082019050818103600083015261408e81614052565b9050919050565b7f45524332303a206d696e7420746f20746865207a65726f206164647265737300600082015250565b60006140cb601f83613898565b91506140d682614095565b602082019050919050565b600060208201905081810360008301526140fa816140be565b9050919050565b6000819050919050565b61411481614101565b811461411f57600080fd5b50565b6000815190506141318161410b565b92915050565b60006020828403121561414d5761414c6137fb565b5b600061415b84828501614122565b91505092915050565b600061416f82613800565b915061417a83613800565b92508261418a57614189613bc6565b5b828206905092915050565b7f45524332303a20617070726f76652066726f6d20746865207a65726f2061646460008201527f7265737300000000000000000000000000000000000000000000000000000000602082015250565b60006141f1602483613898565b91506141fc82614195565b604082019050919050565b60006020820190508181036000830152614220816141e4565b9050919050565b7f45524332303a20617070726f766520746f20746865207a65726f20616464726560008201527f7373000000000000000000000000000000000000000000000000000000000000602082015250565b6000614283602283613898565b915061428e82614227565b604082019050919050565b600060208201905081810360008301526142b281614276565b9050919050565b7f45524332303a207472616e736665722066726f6d20746865207a65726f20616460008201527f6472657373000000000000000000000000000000000000000000000000000000602082015250565b6000614315602583613898565b9150614320826142b9565b604082019050919050565b6000602082019050818103600083015261434481614308565b9050919050565b7f45524332303a207472616e7366657220746f20746865207a65726f206164647260008201527f6573730000000000000000000000000000000000000000000000000000000000602082015250565b60006143a7602383613898565b91506143b28261434b565b604082019050919050565b600060208201905081810360008301526143d68161439a565b9050919050565b7f45524332303a207472616e7366657220616d6f756e742065786365656473206260008201527f616c616e63650000000000000000000000000000000000000000000000000000602082015250565b6000614439602683613898565b9150614444826143dd565b604082019050919050565b600060208201905081810360008301526144688161442c565b9050919050565b60008151905061447e8161380a565b92915050565b60006020828403121561449a576144996137fb565b5b60006144a88482850161446f565b91505092915050565b7f4e487b7100000000000000000000000000000000000000000000000000000000600052603260045260246000fd5b60006144eb82613800565b91507fffffffffffffffffffffffffffffffffffffffffffffffffffffffffffffffff820361451d5761451c613bf5565b5b600182019050919050565b7f45524332303a206275726e2066726f6d20746865207a65726f2061646472657360008201527f7300000000000000000000000000000000000000000000000000000000000000602082015250565b6000614584602183613898565b915061458f82614528565b604082019050919050565b600060208201905081810360008301526145b381614577565b9050919050565b7f45524332303a206275726e20616d6f756e7420657863656564732062616c616e60008201527f6365000000000000000000000000000000000000000000000000000000000000602082015250565b6000614616602283613898565b9150614621826145ba565b604082019050919050565b6000602082019050818103600083015261464581614609565b9050919050565b7f5061757361626c653a206e6f7420706175736564000000000000000000000000600082015250565b6000614682601483613898565b915061468d8261464c565b602082019050919050565b600060208201905081810360008301526146b181614675565b9050919050565b7f5061757361626c653a2070617573656400000000000000000000000000000000600082015250565b60006146ee601083613898565b91506146f9826146b8565b602082019050919050565b6000602082019050818103600083015261471d816146e1565b9050919050565b7f45524332305061757361626c653a20746f6b656e207472616e7366657220776860008201527f696c652070617573656400000000000000000000000000000000000000000000602082015250565b6000614780602a83613898565b915061478b82614724565b604082019050919050565b600060208201905081810360008301526147af81614773565b905091905056fea26469706673582212203928b907ff3be54534b34cabe6d600c98070626e3492c5e3f90f2135056bb18864736f6c63430008110033",
  "immutableReferences": {},
  "source": "// SPDX-License-Identifier: GPL-3.0\n// // // // // // // // // // // // // // // // // // // // // // // // // // // // // // // // // // // // // // // // // // // // // // // // // // // // // // // // // // // // //\n//\n//      MMWKd:..                                                                                    ..:dKWMM\n//      MKl.                                                                                            .lKW\n//      O'       ..''''''''''''.     .''''''.     .'''''.      .''''''''''''''.     .''''''''''''..       'O\n//      '     .ckKNNWNWWWWWWWWWk.   .xNWWNWNl    ,0WWWWW0,     lNWWWWWWWWWNWNk'    ;0NNNWWWWWWWWNNKkc.     '\n//           ,OWMMMMMMMMMMMMMMMO.   .kMMMMMWl    ,KMMMMMK,     lWMMMMMMMMMMM0,    ;KMMMMMMMMMMMMMMMMWO,\n//          .kMMMMMMMMMMMMMMMMMO.   .kMMMMMWl    ,KMMMMMK,     lWMMMMMMMMMM0,    ;KMMMMMMMMMMMMMMMMMMMk.\n//          '0MMMMMMMMMMMMMMMMMO.   .kMMMMMWl    ,KMMMMMK,     lWMMMMMMMMM0,    :KMMMMMMMMMMMMMMMMMMMM0'\n//          '0MMMMMMMMMMMMMMMMMO.   .kMMMMMWl    ,KMMMMMK,     lWMMMMMMMM0,    :KMMMMMMMMMMMMMMMMMMMMM0'\n//          '0MMMMMMMMMMMMMMMMMO.   .kMMMMMWl    ,KMMMMMK,     lWMMMMMMM0,    ;0NNWWMMMMMMMMMMMMMMMMMM0'\n//          '0MMMMMMMMMMMMMMMMMO.   .kMMMMMWl    ,KMMMMMK,     lWMMMMMM0,     .'.',;lkNMMMMMMMMMMMMMMM0'\n//          '0MMMMMMMMMMMMMMMMMO.   .kMMMMMWl    ,KMMMMMK,     lWMMMMMK;              ,kWMMMMMMMMMMMMM0'\n//          '0MMMMMMMMMMMMMMMMMO.   .kMMMMMWl    ,KMMMMMK,     lWMMMMX:    .:oxxdc'    .dWMMMMMMMMMMMM0'\n//          '0MMMMMMMMMMMMMMMMMO.   .kMMMMMWl    ,KMMMMMK,     lWMMMWd.   ,OWMMMMMXl.   '0MMMMMMMMMMMM0'\n//          '0MMMMMMMMMMMMMMMMMO.   .kMMMMMWl    ,KMMMMMK,     lWMMMX;   .kMMMMMMMMK,   .xMMMMMMMMMMMM0'\n//          '0MMMMMMMMMMMMMMMMMO.   .kMMMMMWl    ,KMMMMMK,     lWMMM0'   .OMMMMMMMMX;   .xMMMMMMMMMMMM0'\n//          .OMMMMMMMMMMMMMMMMMO.   .kMMMMMWl    ,KMMMMMK,     lWMMMK,    lNMMMMMMWx.   '0MMMMMMMMMMMMO.\n//           lNMMMMMMMMMMMMMMMMO.   .kMMMMMWl    ,KMMMMMK,     lWMMMWd.   .:x0KKKkc.   .dWMMMMMMMMMMMNl\n//      .    .c0WMMMMMMMMMMMMMMO.   .kMMMMMWo    ,KMMMMMK,     lWMMMMNd.     ....     .xNMMMMMMMMMMW0c.    .\n//      l      .,lddxxxxxxxxxxxc.    :xxxxxd,    .lxxxxxl.     ,dxxxxxd:.            .cdxxxxxxxxddl,.      l\n//      No.                                                                                              .oN\n//      MW0l'                                                                                          'l0WM\n//      MMMWKd;.                                                                                    .;dKWMMM\n//\n// // // // // // // // // // // // // // // // // // // // // // // // // // // // // // // // // // // // // // // // // // // // // // // // // // // // // // // // // // // // //\n//                                                                                                                                                                                  //\n//      @dev            ::              Aron Mauritala Ayuk                                                                                                                                          //\n//      @msg            ::              stereo@iii6.xyz                                                                                                                                   //\n//      @github         ::              @stereoIII6\n//      @twitter        ::              @stereoIII6                                                                                                                                              //\n//                                                                                                                                                                                  //\n// // // // // // // // // // // // // // // // // // // // // // // // // // // // // // // // // // // // // // // // // // // // // // // // // // // // // // // // // // // // //\n//                                                                                                                                                                                  //\n//      @dev            ::              Juan Xavier Valverde                                                                                                                                    //\n//      @msg            ::              juanxavier@iii6.xyz                                                                                                                               //\n//      @twitter        ::              @JuanXavier                                                                                                                                             //\n//      @github         ::              @JuanXavier                                                                                                                                             //\n//                                                                                                                                                                                  //                                                                                                                                                                                 //\n// // // // // // // // // // // // // // // // // // // // // // // // // // // // // // // // // // // // // // // // // // // // // // // // // // // // // // // // // // // // //\n//  *   *   *   *   *   *   *   *   *   *   *   *   *   *   *   *   *   *   *   *   *   *   *   *   *   *   *   *   *   *   *   *   *   *   *   *   *   *   *   *   *   *   *   *   //\n// // // // // // // // // // // // // // // // // // // // // // // // // // // // // // // // // // // // // // // // // // // // // // // // // // // // // // // // // // // // //\n//                                                                                                                                                                                  //\n//      @company        ::              Fractio Holding                                                                                                                                                                       //\n//      @title          ::              iii6 Coin Model                                                                                                                            //\n//      @description    ::              ERC20 Model Preset Contract                                                                                                                           //\n//      @version        ::              0.0.1                                                                                                                                       //\n//      @purpose        ::              ERC20 Model Preset                                                                                                          //\n//                                                                                                                                                                                  //\n//                                                                                                                                                                                  //\n//                                                                                                                                                                                  //\n//                                                                                                                                                                                  //\n//                                                                                                                                                                                  //\n// // // // // // // // // // // // // // // // // // // // // // // // // // // // // // // // // // // // // // // // // // // // // // // // // // // // // // // // // // // // //\n//  *   *   *   *   *   *   *   *   *   *   *   *   *   *   *   *   *   *   *   *   *   *   *   *   *   *   *   *   *   *   *   *   *   *   *   *   *   *   *   *   *   *   *   *   //\n// // // // // // // // // // // // // // // // // // // // // // // // // // // // // // // // // // // // // // // // // // // // // // // // // // // // // // // // // // // // //\n\n/////////////////////////////////////////////////////////////////////////////////////////////////////////////////////\n\n/////////////////////////////////////////////////////////////////////////////////////////////////////////////////////\n\npragma solidity ^0.8.7;\n\nimport \"@openzeppelin/contracts/token/ERC20/ERC20.sol\";\nimport \"@openzeppelin/contracts/access/Ownable.sol\";\nimport \"@openzeppelin/contracts/token/ERC20/extensions/ERC20Burnable.sol\";\nimport \"@openzeppelin/contracts/token/ERC20/extensions/ERC20Pausable.sol\";\nimport \"../Oracles/iii6PriceConsumer.sol\";\nimport \"../Math/iii6PriceMath.sol\";\nimport \"./iii6Safes.sol\";\nimport \"../Misc/iii6Misc.sol\";\nimport \"../Misc/Errors/iii6Errors.sol\";\n\ncontract iii6CoinModel is\n    ERC20,\n    ERC20Pausable,\n    ERC20Burnable,\n    Ownable,\n    iii6PriceMath,\n    iii6Misc,\n    iii6Errors\n{\n    /**\n     * @dev this contract is a factory contract to deploy iii6CoinModel & iii6DiaModel\n     */\n    // \n    // \n    // \n    // \n    // \n    // \n    /**\n     * @dev declaration of storage vars\n     */\n    uint256 public rate;\n    uint256 public PUB_SUPPLY;\n    uint256 public MAX_SUPPLY;\n    uint256 private r;\n    bool private burns;\n    bool private pauses;\n    string public title;\n\n    /**\n     * @dev declaration of enums structs and arrays\n     */\n    Coins private ocoin;\n    struct Rates {\n        uint256 rateid;\n        uint256 rate;\n        Coins ocoin;\n    }\n    Rates[] private rates;\n\n    /**\n     * @dev creates an instance of iii6CoinModel\n     * @param _name token name\n     * @param _sym token symbol\n     * @param _rate token rate\n     * @param _supply max token supply // if 0-infinte\n     * @param _burn bool burnable\n     * @param _pause bool pauseble\n     * @param _curr denomintaor currency // 0-eth 1-gascoin 2-xCur 2-yCur >4-usdc\n     */\n    constructor(\n        string memory _name, // Token Name\n        string memory _sym, // Token Symbol\n        uint256 _rate, // Token Price in USD // 100 == 1 usd // 100000 = 1ETH\n        uint256 _supply, // Token Max Supply\n        bool _burn, // Burnable Option\n        bool _pause,\n        uint256 _curr // 1-eth 2-usd 3-xCur 4-yCur\n    ) ERC20(_name, _sym) {\n        _setRate(_rate); /** @dev see _setRate() :: line138 */\n        MAX_SUPPLY = _supply;\n        title = _name;\n        burns = _burn;\n        pauses = _pause;\n        ocoin = _setCurr(_curr); /** @dev see _setRate() :: line181 */\n        rates[r] = Rates(r, _rate, ocoin); /** @dev see Rates{} :: line97 */\n    }\n\n    // \n    // \n    // \n    // \n    // \n    // \n\n    /**\n     * @dev sets token price in denomination currency ocoin\n     * @param _newRate token price in $ocoin (denomination currency)\n     * denomination currency can be set in setCurr()\n     * @return uint256 rate in gascoin\n     */\n    function _setRate(uint256 _newRate) internal returns (uint256) {\n        iii6PriceMath pm;\n        if (ocoin == Coins.WETH) {\n            uint256 eP = pm.coinPriceOfEth(_newRate); /** @dev see iii6PriceMath.sol coinPriceOfEth() :: line138 */\n            if (eP < 0) revert Invalid_Response();\n            rates[r] = Rates(r, eP, ocoin);\n            r++;\n            return rate = eP;\n        } else if (ocoin == Coins.GASCOIN) {\n            uint256 gP = _newRate;\n            if (gP < 0) revert Invalid_Response();\n            rates[r] = Rates(r, gP, ocoin);\n            r++;\n            return rate = gP;\n        } else if (ocoin == Coins.XXX) {\n            uint256 xP = pm.coinPriceOfX(_newRate); /** @dev see iii6PriceMath.sol coinPriceOfX() :: line138 */\n            if (xP < 0) revert Invalid_Response();\n            rates[r] = Rates(r, xP, ocoin);\n            r++;\n            return rate = xP;\n        } else if (ocoin == Coins.YYY) {\n            uint256 yP = pm.coinPriceOfY(_newRate); /** @dev see iii6PriceMath.sol coinPriceOfY() :: line138 */\n            if (yP < 0) revert Invalid_Response();\n            rates[r] = Rates(r, yP, ocoin);\n            r++;\n            return rate = yP;\n        } else if (ocoin == Coins.USDC) {\n            uint256 newRate = pm.coinPriceOfUSD(_newRate); /** @dev see iii6PriceMath.sol coinPriceOfUSD() :: line138 */\n            rates[r] = Rates(r, newRate, ocoin);\n            r++;\n            return rate = newRate;\n        } else {\n            return rate;\n        }\n    }\n\n    /**\n     * @dev sets the denomination currency\n     * @param // INTERNAL\n     * @param _curr  ocoin (denomination currency) // 0-eth 1-gascoin 2-xCur 2-yCur >4-usdc\n     * denomination currency can be set in setCurr()\n     * @return Coins.[???] // ocoin name as enum Coins\n     */\n    function _setCurr(uint256 _curr) internal returns (Coins) {\n        if (_curr == 0) {\n            ocoin = Coins.WETH;\n        } else if (_curr == 1) {\n            ocoin = Coins.GASCOIN;\n        } else if (_curr == 2) {\n            ocoin = Coins.XXX;\n        } else if (_curr == 3) {\n            ocoin = Coins.YYY;\n        } else {\n            ocoin = Coins.USDC;\n        }\n        return ocoin;\n    }\n\n    /**\n     * @dev overrides ERC20 & ERC20Pausable\n     */\n    function _beforeTokenTransfer(\n        address from,\n        address to,\n        uint256 amount\n    ) internal override(ERC20, ERC20Pausable) whenNotPaused {\n        super._beforeTokenTransfer(from, to, amount);\n    }\n\n    // \n    // \n    // \n    // \n    // \n    // \n\n    /**\n     * @dev sets the denomination currency\n     * @param // EXTERNAL\n     * @param _curr  ocoin (denomination currency) // 0-eth 1-gascoin 2-xCur 2-yCur >4-usdc\n     * denomination currency can be set in setCurr()\n     * @return Coins.[???] // ocoin name as enum Coins\n     */\n    function setCurr(uint256 _curr) external onlyOwner returns (Coins) {\n        return _setCurr(_curr);\n    }\n\n    /**\n     * @dev sets the rate of currency in denomination currency\n     * @dev check the ocoin for its state to determine what value to type in\n     * @param // EXTERNAL\n     * @param _rate  ocoin (denomination currency) // 0-eth 1-gascoin 2-xCur 2-yCur >4-usdc\n     * denomination currency can be set in setCurr()\n     * @return _setRate // ocoin name as enum Coins\n     */\n    function setRate(uint256 _rate) external onlyOwner returns (uint256) {\n        return _setRate(_rate);\n    }\n\n    /**\n     * @dev sets the max supply\n     * @param // EXTERNAL only owner\n     * @param _newSupply  ocoin (denomination currency) // 0-eth 1-gascoin 2-xCur 2-yCur >4-usdc\n     * denomination currency can be set in setCurr()\n     * @return Max Supply\n     */\n    function setMaxSupply(uint256 _newSupply)\n        external\n        onlyOwner\n        returns (uint256)\n    {\n        return MAX_SUPPLY = _newSupply;\n    }\n\n    /**\n     * @dev burn function for token holders only for burnable contracts\n     * @param _amount of tokens to burn // EXTERNAL\n     */\n    function burn(uint256 _amount) public override {\n        if (burns == false) revert Not_Burnable();\n        _burn(msg.sender, _amount);\n    }\n\n    /**\n     * @dev toggle the pausable functionality on the contract\n     * @return pausable state of contract\n     */\n    function togglePause() public onlyOwner returns (bool) {\n        return pauses = !pauses;\n    }\n\n    /**\n     * @dev toggle the burnable functionality on the contract\n     * @return burnable state of contract\n     */\n    function toggleBurn() public onlyOwner returns (bool) {\n        return burns = !burns;\n    }\n\n    /**\n     * @dev if contract pauses the state get checked and toggled via condition to opposite state\n     * @return active state of contract (true = paused / false = active)\n     */\n    function toggleState() public onlyOwner returns (bool) {\n        if (pauses == false) revert Not_Pausable();\n        if (paused()) _unpause();\n        else _pause();\n        return paused();\n    }\n\n    /**\n     * @dev buy function for token holders\n     * @param _amount of tokens to mint // EXTERNAL\n     * @return uint total price\n     */\n    function buyTokens(uint256 _amount) external payable returns (uint256) {\n        if (msg.value <= _amount * rate) revert Insufficient_Amount();\n        if ((MAX_SUPPLY - PUB_SUPPLY) - (_amount * 10**18) < 0)\n            revert Insufficient_Supply();\n        _mint(msg.sender, _amount * 10**18);\n        return _amount * rate;\n    }\n\n    /**\n     * @dev recieve function returns tokens on gascoin transfer to contract\n     */\n\n    receive() external payable {\n        // condition\n        _rcMint();\n    }\n\n    /**\n     * @dev recieve function returns tokens on gascoin and/or tokens transfer to contract\n     */\n    fallback() external payable {\n        // condition\n        _rcMint();\n        // condition\n        _fbMint();\n    }\n\n    /**\n     * @dev does mint  in exchange for gascoin action on recieve() and fallback()\n     */\n    function _rcMint() internal {\n        uint256 amount = msg.value / rate;\n        _mint(msg.sender, amount);\n    }\n\n    /**\n     * @dev does mint in exchange for erc20 tokens action on recieve() and fallback()\n     */\n    function _fbMint() internal {\n        // else if() { // ROADMAP\n        // handle erc20 tokens\n        // get token address\n        // check for oracle\n        // go to oracle list for network\n        // check if address is listed or exit empty\n        // connect X Custom Token to oracle address\n        // check for price\n        uint256 input = 0; // amount input from token x to amount of gascoins\n        // determine tAmount\n        uint256 tAmount = input / rate;\n        // check if input sufficient\n        if (tAmount < rate) revert Insufficient_Amount();\n        // check if tokens available\n        if ((MAX_SUPPLY - PUB_SUPPLY) - (tAmount) < 0)\n            revert Insufficient_Supply();\n        _mint(msg.sender, tAmount);\n    }\n}\n\ncontract iii6CoinModelDrop is iii6CoinModel {\n    /**\n     * @dev creates an instance of iii6CoinModel\n     * @param _name token name\n     * @param _sym token symbol\n     * @param _rate token rate\n     * @param _supply max token supply // if 0-infinte\n     * @param _burn bool burnable\n     * @param _pause bool pauseble\n     * @param _curr denomintaor currency // 0-eth 1-gascoin 2-xCur 2-yCur >4-usdc\n     */\n    constructor(\n        string memory _name,\n        string memory _sym,\n        uint256 _rate,\n        uint256 _supply,\n        bool _burn,\n        bool _pause,\n        uint256 _curr\n    ) iii6CoinModel(_name, _sym, _rate, _supply, _burn, _pause, _curr) {}\n\n    /**\n     * @dev Drops users 100 Full Tokens For testnets only\n     */\n    function dropToken() external {\n        _mint(msg.sender, 100 * 10**18);\n    }\n}\n// // // // // // // // // // // // // // // // // // // // // // // // // // // // // // // // // // // // // // // // // // // // // // // // // // // // // // // // // // // // //\n//\n//      MMWKd:..                                                                                    ..:dKWMM\n//      MKl.                                                                                            .lKW\n//      O'       ..''''''''''''.     .''''''.     .'''''.      .''''''''''''''.     .''''''''''''..       'O\n//      '     .ckKNNWNWWWWWWWWWk.   .xNWWNWNl    ,0WWWWW0,     lNWWWWWWWWWNWNk'    ;0NNNWWWWWWWWNNKkc.     '\n//           ,OWMMMMMMMMMMMMMMMO.   .kMMMMMWl    ,KMMMMMK,     lWMMMMMMMMMMM0,    ;KMMMMMMMMMMMMMMMMWO,\n//          .kMMMMMMMMMMMMMMMMMO.   .kMMMMMWl    ,KMMMMMK,     lWMMMMMMMMMM0,    ;KMMMMMMMMMMMMMMMMMMMk.\n//          '0MMMMMMMMMMMMMMMMMO.   .kMMMMMWl    ,KMMMMMK,     lWMMMMMMMMM0,    :KMMMMMMMMMMMMMMMMMMMM0'\n//          '0MMMMMMMMMMMMMMMMMO.   .kMMMMMWl    ,KMMMMMK,     lWMMMMMMMM0,    :KMMMMMMMMMMMMMMMMMMMMM0'\n//          '0MMMMMMMMMMMMMMMMMO.   .kMMMMMWl    ,KMMMMMK,     lWMMMMMMM0,    ;0NNWWMMMMMMMMMMMMMMMMMM0'\n//          '0MMMMMMMMMMMMMMMMMO.   .kMMMMMWl    ,KMMMMMK,     lWMMMMMM0,     .'.',;lkNMMMMMMMMMMMMMMM0'\n//          '0MMMMMMMMMMMMMMMMMO.   .kMMMMMWl    ,KMMMMMK,     lWMMMMMK;              ,kWMMMMMMMMMMMMM0'\n//          '0MMMMMMMMMMMMMMMMMO.   .kMMMMMWl    ,KMMMMMK,     lWMMMMX:    .:oxxdc'    .dWMMMMMMMMMMMM0'\n//          '0MMMMMMMMMMMMMMMMMO.   .kMMMMMWl    ,KMMMMMK,     lWMMMWd.   ,OWMMMMMXl.   '0MMMMMMMMMMMM0'\n//          '0MMMMMMMMMMMMMMMMMO.   .kMMMMMWl    ,KMMMMMK,     lWMMMX;   .kMMMMMMMMK,   .xMMMMMMMMMMMM0'\n//          '0MMMMMMMMMMMMMMMMMO.   .kMMMMMWl    ,KMMMMMK,     lWMMM0'   .OMMMMMMMMX;   .xMMMMMMMMMMMM0'\n//          .OMMMMMMMMMMMMMMMMMO.   .kMMMMMWl    ,KMMMMMK,     lWMMMK,    lNMMMMMMWx.   '0MMMMMMMMMMMMO.\n//           lNMMMMMMMMMMMMMMMMO.   .kMMMMMWl    ,KMMMMMK,     lWMMMWd.   .:x0KKKkc.   .dWMMMMMMMMMMMNl\n//      .    .c0WMMMMMMMMMMMMMMO.   .kMMMMMWo    ,KMMMMMK,     lWMMMMNd.     ....     .xNMMMMMMMMMMW0c.    .\n//      l      .,lddxxxxxxxxxxxc.    :xxxxxd,    .lxxxxxl.     ,dxxxxxd:.            .cdxxxxxxxxddl,.      l\n//      No.                                                                                              .oN\n//      MW0l'                                                                                          'l0WM\n//      MMMWKd;.                                                                                    .;dKWMMM\n//\n// // // // // // // // // // // // // // // // // // // // // // // // // // // // // // // // // // // // // // // // // // // // // // // // // // // // // // // // // // // // //\n",
  "sourcePath": "/Users/iii6/Documents/GitHub/III6Dojo/contracts/iii6utils/Assets/iii6CoinModel.sol",
  "compiler": {
    "name": "solc",
    "version": "0.8.17+commit.8df45f5f.Emscripten.clang"
  },
  "schemaVersion": "3.4.8",
  "updatedAt": "2022-12-14T21:28:13.025Z",
  "devdoc": {
    "kind": "dev",
    "methods": {
      "COIN_USD()": {
        "details": "gets value of gascoin derived from iii6PriceConsumer => _get[...]Usdc()",
        "params": {
          "": "// EXTERNAL"
        },
        "returns": {
          "_0": "uint256 gascoin price in usdc"
        }
      },
      "ETH_USD()": {
        "details": "gets value of eth derived from INTERNAL => _get[...]Usdc()",
        "params": {
          "": "// EXTERNAL"
        },
        "returns": {
          "_0": "uint256 eth price in usdc"
        }
      },
      "X_USD()": {
        "details": "gets value of custon token x derived from iii6PriceConsumer => _get[...]Usdc()",
        "params": {
          "": "// EXTERNAL"
        },
        "returns": {
          "_0": "uint256 custon token x price in usdc"
        }
      },
      "Y_USD()": {
        "details": "gets value of custon token y derived from iii6PriceConsumer => _get[...]Usdc()",
        "params": {
          "": "// EXTERNAL"
        },
        "returns": {
          "_0": "uint256 custon token y price in usdc"
        }
      },
      "allowance(address,address)": {
        "details": "See {IERC20-allowance}."
      },
      "approve(address,uint256)": {
        "details": "See {IERC20-approve}. Requirements: - `spender` cannot be the zero address."
      },
      "balanceOf(address)": {
        "details": "See {IERC20-balanceOf}."
      },
      "burn(uint256)": {
        "details": "burn function for token holders only for burnable contracts",
        "params": {
          "_amount": "of tokens to burn // EXTERNAL"
        }
      },
      "burnFrom(address,uint256)": {
        "details": "Destroys `amount` tokens from `account`, deducting from the caller's allowance. See {ERC20-_burn} and {ERC20-allowance}. Requirements: - the caller must have allowance for ``accounts``'s tokens of at least `amount`."
      },
      "buyTokens(uint256)": {
        "details": "buy function for token holders",
        "params": {
          "_amount": "of tokens to mint // EXTERNAL"
        },
        "returns": {
          "_0": "uint total price"
        }
      },
      "coinPriceOfEth(uint256)": {
        "details": "Returns price for input amount in chosen currency",
        "params": {
          "_amt": "uint256 amount of usd"
        },
        "returns": {
          "_0": "Result of division"
        }
      },
      "coinPriceOfUSD(uint256)": {
        "details": "Returns price for input amount in chosen currency",
        "params": {
          "_amt": "uint256 amount of usd"
        },
        "returns": {
          "_0": "Result of division"
        }
      },
      "coinPriceOfX(uint256)": {
        "details": "Returns price for input amount in chosen currency",
        "params": {
          "_amt": "uint256 amount of usd"
        },
        "returns": {
          "_0": "Result of division"
        }
      },
      "coinPriceOfY(uint256)": {
        "details": "Returns price for input amount in chosen currency",
        "params": {
          "_amt": "uint256 amount of usd"
        },
        "returns": {
          "_0": "Result of division"
        }
      },
      "constructor": {
        "details": "creates an instance of iii6CoinModel",
        "params": {
          "_burn": "bool burnable",
          "_curr": "denomintaor currency // 0-eth 1-gascoin 2-xCur 2-yCur >4-usdc",
          "_name": "token name",
          "_pause": "bool pauseble",
          "_rate": "token rate",
          "_supply": "max token supply // if 0-infinte",
          "_sym": "token symbol"
        }
      },
      "decimals()": {
        "details": "Returns the number of decimals used to get its user representation. For example, if `decimals` equals `2`, a balance of `505` tokens should be displayed to a user as `5.05` (`505 / 10 ** 2`). Tokens usually opt for a value of 18, imitating the relationship between Ether and Wei. This is the value {ERC20} uses, unless this function is overridden; NOTE: This information is only used for _display_ purposes: it in no way affects any of the arithmetic of the contract, including {IERC20-balanceOf} and {IERC20-transfer}."
      },
      "decreaseAllowance(address,uint256)": {
        "details": "Atomically decreases the allowance granted to `spender` by the caller. This is an alternative to {approve} that can be used as a mitigation for problems described in {IERC20-approve}. Emits an {Approval} event indicating the updated allowance. Requirements: - `spender` cannot be the zero address. - `spender` must have allowance for the caller of at least `subtractedValue`."
      },
      "ethPriceOfUSD(uint256)": {
        "details": "Returns price for input amount in chosen currency",
        "params": {
          "_amt": "uint256 amount of usd"
        },
        "returns": {
          "_0": "Result of division"
        }
      },
      "getCoinPriceInEth()": {
        "details": "gets value of gascoin denominated in eth derived from _get[...]Usdc()",
        "returns": {
          "coinPriceEth": "uint256 price of gascoin denominated in eth"
        }
      },
      "getCoinPriceInX()": {
        "details": "gets value of gascoin denominated in eth derived from _get[...]Usdc()",
        "returns": {
          "coinPriceX": "uint256 price of gascoin denominated in eth"
        }
      },
      "getCoinPriceInY()": {
        "details": "gets value of gascoin denominated in eth derived from _get[...]Usdc()",
        "returns": {
          "coinPriceY": "uint256 price of gascoin denominated in eth"
        }
      },
      "getEthPriceInCoin()": {
        "details": "gets value of eth denominated in gascoin derived from _get[...]Usdc()",
        "returns": {
          "ethPriceCoin": "uint256 price of eth denominated in gascoin"
        }
      },
      "getEthPriceInX()": {
        "details": "gets value of eth denominated in custom token x derived from _get[...]Usdc()",
        "returns": {
          "ethPriceX": "uint256 price of eth denominated in custom token x"
        }
      },
      "getEthPriceInY()": {
        "details": "gets value of eth denominated in custom token y derived from _get[...]Usdc()",
        "returns": {
          "ethPriceY": "uint256 price of eth denominated in custom token y"
        }
      },
      "getXPriceInCoin()": {
        "details": "gets value of gascoin denominated in eth derived from _get[...]Usdc()",
        "returns": {
          "xPriceCoin": "uint256 price of gascoin denominated in eth"
        }
      },
      "getXPriceInEth()": {
        "details": "gets value of gascoin denominated in eth derived from _get[...]Usdc()",
        "returns": {
          "xPriceEth": "uint256 price of gascoin denominated in eth"
        }
      },
      "getXPriceInY()": {
        "details": "gets value of gascoin denominated in eth derived from _get[...]Usdc()",
        "returns": {
          "xPriceY": "uint256 price of gascoin denominated in eth"
        }
      },
      "getYPriceInCoin()": {
        "details": "gets value of gascoin denominated in eth derived from _get[...]Usdc()",
        "returns": {
          "yPriceCoin": "uint256 price of gascoin denominated in eth"
        }
      },
      "getYPriceInEth()": {
        "details": "gets value of gascoin denominated in eth derived from _get[...]Usdc()",
        "returns": {
          "yPriceEth": "uint256 price of gascoin denominated in eth"
        }
      },
      "getYPriceInX()": {
        "details": "gets value of gascoin denominated in eth derived from _get[...]Usdc()",
        "returns": {
          "yPriceX": "uint256 price of gascoin denominated in eth"
        }
      },
      "increaseAllowance(address,uint256)": {
        "details": "Atomically increases the allowance granted to `spender` by the caller. This is an alternative to {approve} that can be used as a mitigation for problems described in {IERC20-approve}. Emits an {Approval} event indicating the updated allowance. Requirements: - `spender` cannot be the zero address."
      },
      "name()": {
        "details": "Returns the name of the token."
      },
      "owner()": {
        "details": "Returns the address of the current owner."
      },
      "paused()": {
        "details": "Returns true if the contract is paused, and false otherwise."
      },
      "renounceOwnership()": {
        "details": "Leaves the contract without owner. It will not be possible to call `onlyOwner` functions anymore. Can only be called by the current owner. NOTE: Renouncing ownership will leave the contract without an owner, thereby removing any functionality that is only available to the owner."
      },
      "setCurr(uint256)": {
        "details": "sets the denomination currency",
        "params": {
          "": "// EXTERNAL",
          "_curr": "ocoin (denomination currency) // 0-eth 1-gascoin 2-xCur 2-yCur >4-usdc denomination currency can be set in setCurr()"
        },
        "returns": {
          "_0": "Coins.[???] // ocoin name as enum Coins"
        }
      },
      "setMaxSupply(uint256)": {
        "details": "sets the max supply",
        "params": {
          "": "// EXTERNAL only owner",
          "_newSupply": "ocoin (denomination currency) // 0-eth 1-gascoin 2-xCur 2-yCur >4-usdc denomination currency can be set in setCurr()"
        },
        "returns": {
          "_0": "Max Supply"
        }
      },
      "setRate(uint256)": {
        "details": "sets the rate of currency in denomination currencycheck the ocoin for its state to determine what value to type in",
        "params": {
          "": "// EXTERNAL",
          "_rate": "ocoin (denomination currency) // 0-eth 1-gascoin 2-xCur 2-yCur >4-usdc denomination currency can be set in setCurr()"
        },
        "returns": {
          "_0": "_setRate // ocoin name as enum Coins"
        }
      },
      "setX(address,uint256)": {
        "details": "sets the oracle for custom token x and adapts digit length",
        "params": {
          "": "// EXTERNAL",
          "_digits": "number of decimals passed by oracle",
          "_oracle": "address of the chainlink pricefeed oracle contract"
        },
        "returns": {
          "_0": "bool success"
        }
      },
      "setY(address,uint256)": {
        "details": "sets the oracle for custom token y and adapts digit length",
        "params": {
          "": "// EXTERNAL",
          "_digits": "number of decimals passed by oracle",
          "_oracle": "address of the chainlink pricefeed oracle contract"
        },
        "returns": {
          "_0": "bool success"
        }
      },
      "symbol()": {
        "details": "Returns the symbol of the token, usually a shorter version of the name."
      },
      "toggleBurn()": {
        "details": "toggle the burnable functionality on the contract",
        "returns": {
          "_0": "burnable state of contract"
        }
      },
      "togglePause()": {
        "details": "toggle the pausable functionality on the contract",
        "returns": {
          "_0": "pausable state of contract"
        }
      },
      "toggleState()": {
        "details": "if contract pauses the state get checked and toggled via condition to opposite state",
        "returns": {
          "_0": "active state of contract (true = paused / false = active)"
        }
      },
      "totalSupply()": {
        "details": "See {IERC20-totalSupply}."
      },
      "transfer(address,uint256)": {
        "details": "See {IERC20-transfer}. Requirements: - `recipient` cannot be the zero address. - the caller must have a balance of at least `amount`."
      },
      "transferFrom(address,address,uint256)": {
        "details": "See {IERC20-transferFrom}. Emits an {Approval} event indicating the updated allowance. This is not required by the EIP. See the note at the beginning of {ERC20}. Requirements: - `sender` and `recipient` cannot be the zero address. - `sender` must have a balance of at least `amount`. - the caller must have allowance for ``sender``'s tokens of at least `amount`."
      },
      "transferOwnership(address)": {
        "details": "Transfers ownership of the contract to a new account (`newOwner`). Can only be called by the current owner."
      },
      "xPriceOfUSD(uint256)": {
        "details": "Returns price for input amount in chosen currency",
        "params": {
          "_amt": "uint256 amount of usd"
        },
        "returns": {
          "_0": "Result of division"
        }
      },
      "yPriceOfUSD(uint256)": {
        "details": "Returns price for input amount in chosen currency",
        "params": {
          "_amt": "uint256 amount of usd"
        },
        "returns": {
          "_0": "Result of division"
        }
      }
    },
    "stateVariables": {
      "ocoin": {
        "details": "declaration of enums structs and arrays"
      },
      "rate": {
        "details": "declaration of storage vars"
      }
    },
    "version": 1
  },
  "userdoc": {
    "kind": "user",
    "methods": {},
    "version": 1
  }
}