{
  "contractName": "Market",
  "abi": [
    {
      "inputs": [
        {
          "internalType": "address",
          "name": "_FCT",
          "type": "address"
        },
        {
          "internalType": "address",
          "name": "_ICE",
          "type": "address"
        },
        {
          "internalType": "address",
          "name": "_GL",
          "type": "address"
        }
      ],
      "stateMutability": "nonpayable",
      "type": "constructor"
    },
    {
      "inputs": [],
      "name": "admin",
      "outputs": [
        {
          "internalType": "address",
          "name": "",
          "type": "address"
        }
      ],
      "stateMutability": "view",
      "type": "function",
      "constant": true
    },
    {
      "inputs": [],
      "name": "fct",
      "outputs": [
        {
          "internalType": "contract FrootyCoolTingz",
          "name": "",
          "type": "address"
        }
      ],
      "stateMutability": "view",
      "type": "function",
      "constant": true
    },
    {
      "inputs": [],
      "name": "gl",
      "outputs": [
        {
          "internalType": "contract Greenlist",
          "name": "",
          "type": "address"
        }
      ],
      "stateMutability": "view",
      "type": "function",
      "constant": true
    },
    {
      "inputs": [],
      "name": "ice",
      "outputs": [
        {
          "internalType": "contract ICE",
          "name": "",
          "type": "address"
        }
      ],
      "stateMutability": "view",
      "type": "function",
      "constant": true
    },
    {
      "inputs": [
        {
          "internalType": "address",
          "name": "",
          "type": "address"
        }
      ],
      "name": "myListCount",
      "outputs": [
        {
          "internalType": "uint256",
          "name": "",
          "type": "uint256"
        }
      ],
      "stateMutability": "view",
      "type": "function",
      "constant": true
    },
    {
      "inputs": [
        {
          "internalType": "address",
          "name": "",
          "type": "address"
        },
        {
          "internalType": "uint256",
          "name": "",
          "type": "uint256"
        }
      ],
      "name": "myListings",
      "outputs": [
        {
          "internalType": "uint256",
          "name": "id",
          "type": "uint256"
        },
        {
          "internalType": "address",
          "name": "holder",
          "type": "address"
        },
        {
          "internalType": "uint256",
          "name": "tid",
          "type": "uint256"
        },
        {
          "internalType": "uint256",
          "name": "price",
          "type": "uint256"
        },
        {
          "internalType": "uint256",
          "name": "deadline",
          "type": "uint256"
        }
      ],
      "stateMutability": "view",
      "type": "function",
      "constant": true
    },
    {
      "inputs": [],
      "name": "roy",
      "outputs": [
        {
          "internalType": "uint256",
          "name": "",
          "type": "uint256"
        }
      ],
      "stateMutability": "view",
      "type": "function",
      "constant": true
    },
    {
      "inputs": [
        {
          "internalType": "uint256",
          "name": "",
          "type": "uint256"
        }
      ],
      "name": "tid2lc",
      "outputs": [
        {
          "internalType": "uint256",
          "name": "",
          "type": "uint256"
        }
      ],
      "stateMutability": "view",
      "type": "function",
      "constant": true
    },
    {
      "inputs": [
        {
          "internalType": "address",
          "name": "_adr",
          "type": "address"
        },
        {
          "internalType": "uint256",
          "name": "_tid",
          "type": "uint256"
        },
        {
          "internalType": "uint256",
          "name": "_price",
          "type": "uint256"
        },
        {
          "internalType": "uint256",
          "name": "_dead",
          "type": "uint256"
        }
      ],
      "name": "makeListing",
      "outputs": [
        {
          "internalType": "bool",
          "name": "",
          "type": "bool"
        }
      ],
      "stateMutability": "nonpayable",
      "type": "function"
    },
    {
      "inputs": [
        {
          "internalType": "address",
          "name": "_adr",
          "type": "address"
        },
        {
          "internalType": "uint256",
          "name": "_tid",
          "type": "uint256"
        }
      ],
      "name": "deleteListing",
      "outputs": [
        {
          "internalType": "bool",
          "name": "",
          "type": "bool"
        }
      ],
      "stateMutability": "nonpayable",
      "type": "function"
    }
  ],
  "bytecode": "0x60806040523480156200001157600080fd5b5060405162000fc238038062000fc28339818101604052810190620000379190620001b5565b336000806101000a81548173ffffffffffffffffffffffffffffffffffffffff021916908373ffffffffffffffffffffffffffffffffffffffff16021790555082600560006101000a81548173ffffffffffffffffffffffffffffffffffffffff021916908373ffffffffffffffffffffffffffffffffffffffff16021790555081600660006101000a81548173ffffffffffffffffffffffffffffffffffffffff021916908373ffffffffffffffffffffffffffffffffffffffff16021790555080600760006101000a81548173ffffffffffffffffffffffffffffffffffffffff021916908373ffffffffffffffffffffffffffffffffffffffff160217905550600560088190555050505062000211565b600080fd5b600073ffffffffffffffffffffffffffffffffffffffff82169050919050565b60006200017d8262000150565b9050919050565b6200018f8162000170565b81146200019b57600080fd5b50565b600081519050620001af8162000184565b92915050565b600080600060608486031215620001d157620001d06200014b565b5b6000620001e1868287016200019e565b9350506020620001f4868287016200019e565b925050604062000207868287016200019e565b9150509250925092565b610da180620002216000396000f3fe608060405234801561001057600080fd5b506004361061009e5760003560e01c8063a77a394911610066578063a77a39491461016f578063b75c8c4b1461018d578063c425a321146101ab578063c6aacbb4146101df578063f851a4401461020f5761009e565b80633a647cf8146100a35780634c2a860d146100d35780634fe5d985146100f1578063940b54a814610121578063996c24a81461013f575b600080fd5b6100bd60048036038101906100b891906108fb565b61022d565b6040516100ca9190610941565b60405180910390f35b6100db610245565b6040516100e891906109bb565b60405180910390f35b61010b60048036038101906101069190610a02565b61026b565b6040516101189190610a5d565b60405180910390f35b610129610497565b6040516101369190610941565b60405180910390f35b61015960048036038101906101549190610a78565b61049d565b6040516101669190610a5d565b60405180910390f35b6101776107ad565b6040516101849190610b00565b60405180910390f35b6101956107d3565b6040516101a29190610b3c565b60405180910390f35b6101c560048036038101906101c09190610a02565b6107f9565b6040516101d6959493929190610b66565b60405180910390f35b6101f960048036038101906101f49190610bb9565b61085c565b6040516102069190610941565b60405180910390f35b610217610874565b6040516102249190610be6565b60405180910390f35b60016020528060005260406000206000915090505481565b600660009054906101000a900473ffffffffffffffffffffffffffffffffffffffff1681565b600080600360008573ffffffffffffffffffffffffffffffffffffffff1673ffffffffffffffffffffffffffffffffffffffff1681526020019081526020016000206000600260008681526020019081526020016000205481526020019081526020016000206040518060a0016040529081600082015481526020016001820160009054906101000a900473ffffffffffffffffffffffffffffffffffffffff1673ffffffffffffffffffffffffffffffffffffffff1673ffffffffffffffffffffffffffffffffffffffff168152602001600282015481526020016003820154815260200160048201548152505090506000816020019073ffffffffffffffffffffffffffffffffffffffff16908173ffffffffffffffffffffffffffffffffffffffff168152505060008160400181815250506000816060018181525050600081608001818152505080600360008673ffffffffffffffffffffffffffffffffffffffff1673ffffffffffffffffffffffffffffffffffffffff1681526020019081526020016000206000600260008781526020019081526020016000205481526020019081526020016000206000820151816000015560208201518160010160006101000a81548173ffffffffffffffffffffffffffffffffffffffff021916908373ffffffffffffffffffffffffffffffffffffffff160217905550604082015181600201556060820151816003015560808201518160040155905050600191505092915050565b60085481565b60008473ffffffffffffffffffffffffffffffffffffffff16600560009054906101000a900473ffffffffffffffffffffffffffffffffffffffff1673ffffffffffffffffffffffffffffffffffffffff1663ba899a2e866040518263ffffffff1660e01b81526004016105119190610941565b602060405180830381865afa15801561052e573d6000803e3d6000fd5b505050506040513d601f19601f820116820180604052508101906105529190610c16565b73ffffffffffffffffffffffffffffffffffffffff16146105a8576040517f08c379a000000000000000000000000000000000000000000000000000000000815260040161059f90610ca0565b60405180910390fd5b6040518060a0016040528060045481526020018673ffffffffffffffffffffffffffffffffffffffff16815260200185815260200184815260200183426105ef9190610cef565b815250600360008773ffffffffffffffffffffffffffffffffffffffff1673ffffffffffffffffffffffffffffffffffffffff1681526020019081526020016000206000600160008973ffffffffffffffffffffffffffffffffffffffff1673ffffffffffffffffffffffffffffffffffffffff1681526020019081526020016000205481526020019081526020016000206000820151816000015560208201518160010160006101000a81548173ffffffffffffffffffffffffffffffffffffffff021916908373ffffffffffffffffffffffffffffffffffffffff16021790555060408201518160020155606082015181600301556080820151816004015590505060045460026000600160008973ffffffffffffffffffffffffffffffffffffffff1673ffffffffffffffffffffffffffffffffffffffff16815260200190815260200160002054815260200190815260200160002081905550600160008673ffffffffffffffffffffffffffffffffffffffff1673ffffffffffffffffffffffffffffffffffffffff168152602001908152602001600020600081548092919061079c90610d23565b919050555060019050949350505050565b600760009054906101000a900473ffffffffffffffffffffffffffffffffffffffff1681565b600560009054906101000a900473ffffffffffffffffffffffffffffffffffffffff1681565b6003602052816000526040600020602052806000526040600020600091509150508060000154908060010160009054906101000a900473ffffffffffffffffffffffffffffffffffffffff16908060020154908060030154908060040154905085565b60026020528060005260406000206000915090505481565b60008054906101000a900473ffffffffffffffffffffffffffffffffffffffff1681565b600080fd5b600073ffffffffffffffffffffffffffffffffffffffff82169050919050565b60006108c88261089d565b9050919050565b6108d8816108bd565b81146108e357600080fd5b50565b6000813590506108f5816108cf565b92915050565b60006020828403121561091157610910610898565b5b600061091f848285016108e6565b91505092915050565b6000819050919050565b61093b81610928565b82525050565b60006020820190506109566000830184610932565b92915050565b6000819050919050565b600061098161097c6109778461089d565b61095c565b61089d565b9050919050565b600061099382610966565b9050919050565b60006109a582610988565b9050919050565b6109b58161099a565b82525050565b60006020820190506109d060008301846109ac565b92915050565b6109df81610928565b81146109ea57600080fd5b50565b6000813590506109fc816109d6565b92915050565b60008060408385031215610a1957610a18610898565b5b6000610a27858286016108e6565b9250506020610a38858286016109ed565b9150509250929050565b60008115159050919050565b610a5781610a42565b82525050565b6000602082019050610a726000830184610a4e565b92915050565b60008060008060808587031215610a9257610a91610898565b5b6000610aa0878288016108e6565b9450506020610ab1878288016109ed565b9350506040610ac2878288016109ed565b9250506060610ad3878288016109ed565b91505092959194509250565b6000610aea82610988565b9050919050565b610afa81610adf565b82525050565b6000602082019050610b156000830184610af1565b92915050565b6000610b2682610988565b9050919050565b610b3681610b1b565b82525050565b6000602082019050610b516000830184610b2d565b92915050565b610b60816108bd565b82525050565b600060a082019050610b7b6000830188610932565b610b886020830187610b57565b610b956040830186610932565b610ba26060830185610932565b610baf6080830184610932565b9695505050505050565b600060208284031215610bcf57610bce610898565b5b6000610bdd848285016109ed565b91505092915050565b6000602082019050610bfb6000830184610b57565b92915050565b600081519050610c10816108cf565b92915050565b600060208284031215610c2c57610c2b610898565b5b6000610c3a84828501610c01565b91505092915050565b600082825260208201905092915050565b7f596f7520617265206e6f7420746865206f776e65722021000000000000000000600082015250565b6000610c8a601783610c43565b9150610c9582610c54565b602082019050919050565b60006020820190508181036000830152610cb981610c7d565b9050919050565b7f4e487b7100000000000000000000000000000000000000000000000000000000600052601160045260246000fd5b6000610cfa82610928565b9150610d0583610928565b9250828201905080821115610d1d57610d1c610cc0565b5b92915050565b6000610d2e82610928565b91507fffffffffffffffffffffffffffffffffffffffffffffffffffffffffffffffff8203610d6057610d5f610cc0565b5b60018201905091905056fea2646970667358221220dcda287374c3692f2ef8afd7ba4066425c352525b320e549a31c5d0094a1169064736f6c63430008110033",
  "immutableReferences": {},
  "source": "// SPDX-License-Identifier: MIT\npragma solidity ^0.8.10;\n\nimport \"@openzeppelin/contracts/token/ERC20/ERC20.sol\";\nimport \"@openzeppelin/contracts/token/ERC721/ERC721.sol\";\nimport \"./FrootyCoolTingz.sol\";\n\ncontract Market {\n    address public admin; // CONTRACT OWNER\n\n    mapping(address => uint256) public myListCount; // LISTING COUNT FOR USER\n    mapping(uint256 => uint256) public tid2lc; // TAKES Token Id and returns ListCount\n    mapping(address => mapping(uint256 => Listing)) public myListings; // LISTINGS OF USER\n    uint256 l; // NUMBER OF LISTINGS\n    FrootyCoolTingz public fct; // FROOT ADDRESS\n    ICE public ice;\n    Greenlist public gl;\n    uint256 public roy;\n\n    struct Listing {\n        // STRUCT FOR SALES LISTINGS\n        uint256 id;\n        address holder;\n        uint256 tid;\n        uint256 price;\n        uint256 deadline;\n    }\n\n    struct Auction {\n        // STRUCT FOR AUCTION LISTINGS\n        uint256 id;\n        address holder;\n        uint256 tid;\n        uint256 minprice;\n        uint256 iterSteps;\n        uint256 deadline;\n    }\n\n    struct Offer {\n        // STRUCT FOR OFFERS\n        uint256 id;\n        address holder;\n        uint256 tid;\n        address buyer;\n        uint256 price;\n        uint256 deadline;\n    }\n    struct AuctionOffer {\n        // STRUCT FOR AUCTION OFFERS\n        uint256 id;\n        address holder;\n        uint256 tid;\n        address buyer;\n        uint256 price;\n        uint256 deadline;\n    }\n    struct DedicatedListing {\n        // STRUCT FOR DEDICATED LISTING\n        uint256 id;\n        address holder;\n        uint256 tid;\n        address buyer;\n        uint256 price;\n        uint256 deadline;\n    }\n\n    constructor(\n        address _FCT,\n        address _ICE,\n        address _GL\n    ) {\n        admin = msg.sender;\n        fct = FrootyCoolTingz(_FCT);\n        ice = ICE(_ICE);\n        gl = Greenlist(_GL);\n        roy = 5;\n    }\n\n    function makeListing(\n        address _adr,\n        uint256 _tid,\n        uint256 _price,\n        uint256 _dead\n    ) external returns (bool) {\n        // MAKE A LISTING\n        require(fct.holder(_tid) == _adr, \"You are not the owner !\");\n        myListings[_adr][myListCount[_adr]] = Listing(\n            l,\n            _adr,\n            _tid,\n            _price,\n            block.timestamp + _dead\n        );\n        tid2lc[myListCount[_adr]] = l;\n        myListCount[_adr]++;\n        return true;\n    }\n\n    function deleteListing(address _adr, uint256 _tid) external returns (bool) {\n        // DELETE A LISTING\n        Listing memory thisList = myListings[_adr][tid2lc[_tid]];\n        thisList.holder = 0x0000000000000000000000000000000000000000;\n        thisList.tid = 0;\n        thisList.price = 0;\n        thisList.deadline = 0;\n        myListings[_adr][tid2lc[_tid]] = thisList;\n        return true;\n    }\n}\n",
  "sourcePath": "/Users/iii6/Documents/GitHub/III6Dojo/contracts/Market.sol",
  "compiler": {
    "name": "solc",
    "version": "0.8.17+commit.8df45f5f.Emscripten.clang"
  },
  "schemaVersion": "3.4.8",
  "updatedAt": "2022-10-27T20:53:02.447Z",
  "networkType": "ethereum",
  "devdoc": {
    "kind": "dev",
    "methods": {},
    "version": 1
  },
  "userdoc": {
    "kind": "user",
    "methods": {},
    "version": 1
  }
}