{
  "contractName": "RiteWhabbits",
  "abi": [
    {
      "inputs": [
        {
          "internalType": "address",
          "name": "_owner",
          "type": "address"
        },
        {
          "internalType": "string",
          "name": "_name",
          "type": "string"
        },
        {
          "internalType": "string",
          "name": "_sym",
          "type": "string"
        },
        {
          "internalType": "address",
          "name": "_usdc",
          "type": "address"
        },
        {
          "internalType": "address",
          "name": "_vrf",
          "type": "address"
        },
        {
          "internalType": "address",
          "name": "_mlq",
          "type": "address"
        }
      ],
      "stateMutability": "nonpayable",
      "type": "constructor"
    },
    {
      "anonymous": false,
      "inputs": [
        {
          "indexed": true,
          "internalType": "address",
          "name": "owner",
          "type": "address"
        },
        {
          "indexed": true,
          "internalType": "address",
          "name": "approved",
          "type": "address"
        },
        {
          "indexed": true,
          "internalType": "uint256",
          "name": "tokenId",
          "type": "uint256"
        }
      ],
      "name": "Approval",
      "type": "event"
    },
    {
      "anonymous": false,
      "inputs": [
        {
          "indexed": true,
          "internalType": "address",
          "name": "owner",
          "type": "address"
        },
        {
          "indexed": true,
          "internalType": "address",
          "name": "operator",
          "type": "address"
        },
        {
          "indexed": false,
          "internalType": "bool",
          "name": "approved",
          "type": "bool"
        }
      ],
      "name": "ApprovalForAll",
      "type": "event"
    },
    {
      "anonymous": false,
      "inputs": [
        {
          "indexed": true,
          "internalType": "address",
          "name": "from",
          "type": "address"
        },
        {
          "indexed": true,
          "internalType": "address",
          "name": "to",
          "type": "address"
        },
        {
          "indexed": true,
          "internalType": "uint256",
          "name": "tokenId",
          "type": "uint256"
        }
      ],
      "name": "Transfer",
      "type": "event"
    },
    {
      "inputs": [
        {
          "internalType": "address",
          "name": "to",
          "type": "address"
        },
        {
          "internalType": "uint256",
          "name": "tokenId",
          "type": "uint256"
        }
      ],
      "name": "approve",
      "outputs": [],
      "stateMutability": "nonpayable",
      "type": "function"
    },
    {
      "inputs": [
        {
          "internalType": "address",
          "name": "owner",
          "type": "address"
        }
      ],
      "name": "balanceOf",
      "outputs": [
        {
          "internalType": "uint256",
          "name": "",
          "type": "uint256"
        }
      ],
      "stateMutability": "view",
      "type": "function"
    },
    {
      "inputs": [
        {
          "internalType": "uint256",
          "name": "",
          "type": "uint256"
        }
      ],
      "name": "dias",
      "outputs": [
        {
          "internalType": "bytes",
          "name": "",
          "type": "bytes"
        }
      ],
      "stateMutability": "view",
      "type": "function"
    },
    {
      "inputs": [
        {
          "internalType": "uint256",
          "name": "tokenId",
          "type": "uint256"
        }
      ],
      "name": "getApproved",
      "outputs": [
        {
          "internalType": "address",
          "name": "",
          "type": "address"
        }
      ],
      "stateMutability": "view",
      "type": "function"
    },
    {
      "inputs": [],
      "name": "getName",
      "outputs": [
        {
          "internalType": "string",
          "name": "",
          "type": "string"
        }
      ],
      "stateMutability": "view",
      "type": "function"
    },
    {
      "inputs": [],
      "name": "getSym",
      "outputs": [
        {
          "internalType": "string",
          "name": "",
          "type": "string"
        }
      ],
      "stateMutability": "view",
      "type": "function"
    },
    {
      "inputs": [
        {
          "internalType": "uint256",
          "name": "count",
          "type": "uint256"
        }
      ],
      "name": "grabIds",
      "outputs": [
        {
          "internalType": "uint256",
          "name": "ids",
          "type": "uint256"
        }
      ],
      "stateMutability": "view",
      "type": "function"
    },
    {
      "inputs": [
        {
          "internalType": "uint256",
          "name": "_id",
          "type": "uint256"
        }
      ],
      "name": "holder",
      "outputs": [
        {
          "internalType": "address",
          "name": "",
          "type": "address"
        }
      ],
      "stateMutability": "view",
      "type": "function"
    },
    {
      "inputs": [
        {
          "internalType": "address",
          "name": "owner",
          "type": "address"
        },
        {
          "internalType": "address",
          "name": "operator",
          "type": "address"
        }
      ],
      "name": "isApprovedForAll",
      "outputs": [
        {
          "internalType": "bool",
          "name": "",
          "type": "bool"
        }
      ],
      "stateMutability": "view",
      "type": "function"
    },
    {
      "inputs": [
        {
          "internalType": "address",
          "name": "_adr",
          "type": "address"
        }
      ],
      "name": "isOwner",
      "outputs": [
        {
          "internalType": "bool",
          "name": "",
          "type": "bool"
        }
      ],
      "stateMutability": "view",
      "type": "function"
    },
    {
      "inputs": [],
      "name": "max",
      "outputs": [
        {
          "internalType": "uint256",
          "name": "",
          "type": "uint256"
        }
      ],
      "stateMutability": "view",
      "type": "function"
    },
    {
      "inputs": [
        {
          "internalType": "uint256",
          "name": "_amnt",
          "type": "uint256"
        }
      ],
      "name": "mint",
      "outputs": [
        {
          "internalType": "uint256",
          "name": "",
          "type": "uint256"
        }
      ],
      "stateMutability": "nonpayable",
      "type": "function"
    },
    {
      "inputs": [],
      "name": "minted",
      "outputs": [
        {
          "internalType": "uint256",
          "name": "",
          "type": "uint256"
        }
      ],
      "stateMutability": "view",
      "type": "function"
    },
    {
      "inputs": [],
      "name": "mlq",
      "outputs": [
        {
          "internalType": "contract MLQ",
          "name": "",
          "type": "address"
        }
      ],
      "stateMutability": "view",
      "type": "function"
    },
    {
      "inputs": [],
      "name": "nam",
      "outputs": [
        {
          "internalType": "string",
          "name": "",
          "type": "string"
        }
      ],
      "stateMutability": "view",
      "type": "function"
    },
    {
      "inputs": [],
      "name": "name",
      "outputs": [
        {
          "internalType": "string",
          "name": "",
          "type": "string"
        }
      ],
      "stateMutability": "view",
      "type": "function"
    },
    {
      "inputs": [
        {
          "internalType": "address",
          "name": "",
          "type": "address"
        }
      ],
      "name": "nftCount",
      "outputs": [
        {
          "internalType": "uint256",
          "name": "",
          "type": "uint256"
        }
      ],
      "stateMutability": "view",
      "type": "function"
    },
    {
      "inputs": [
        {
          "internalType": "address",
          "name": "",
          "type": "address"
        },
        {
          "internalType": "uint256",
          "name": "",
          "type": "uint256"
        }
      ],
      "name": "ntfIdByCount",
      "outputs": [
        {
          "internalType": "uint256",
          "name": "",
          "type": "uint256"
        }
      ],
      "stateMutability": "view",
      "type": "function"
    },
    {
      "inputs": [],
      "name": "owner",
      "outputs": [
        {
          "internalType": "address",
          "name": "",
          "type": "address"
        }
      ],
      "stateMutability": "view",
      "type": "function"
    },
    {
      "inputs": [
        {
          "internalType": "uint256",
          "name": "tokenId",
          "type": "uint256"
        }
      ],
      "name": "ownerOf",
      "outputs": [
        {
          "internalType": "address",
          "name": "",
          "type": "address"
        }
      ],
      "stateMutability": "view",
      "type": "function"
    },
    {
      "inputs": [
        {
          "internalType": "address",
          "name": "from",
          "type": "address"
        },
        {
          "internalType": "address",
          "name": "to",
          "type": "address"
        },
        {
          "internalType": "uint256",
          "name": "tokenId",
          "type": "uint256"
        }
      ],
      "name": "safeTransferFrom",
      "outputs": [],
      "stateMutability": "nonpayable",
      "type": "function"
    },
    {
      "inputs": [
        {
          "internalType": "address",
          "name": "from",
          "type": "address"
        },
        {
          "internalType": "address",
          "name": "to",
          "type": "address"
        },
        {
          "internalType": "uint256",
          "name": "tokenId",
          "type": "uint256"
        },
        {
          "internalType": "bytes",
          "name": "_data",
          "type": "bytes"
        }
      ],
      "name": "safeTransferFrom",
      "outputs": [],
      "stateMutability": "nonpayable",
      "type": "function"
    },
    {
      "inputs": [
        {
          "internalType": "address",
          "name": "operator",
          "type": "address"
        },
        {
          "internalType": "bool",
          "name": "approved",
          "type": "bool"
        }
      ],
      "name": "setApprovalForAll",
      "outputs": [],
      "stateMutability": "nonpayable",
      "type": "function"
    },
    {
      "inputs": [
        {
          "internalType": "bytes4",
          "name": "interfaceId",
          "type": "bytes4"
        }
      ],
      "name": "supportsInterface",
      "outputs": [
        {
          "internalType": "bool",
          "name": "",
          "type": "bool"
        }
      ],
      "stateMutability": "view",
      "type": "function"
    },
    {
      "inputs": [],
      "name": "sym",
      "outputs": [
        {
          "internalType": "string",
          "name": "",
          "type": "string"
        }
      ],
      "stateMutability": "view",
      "type": "function"
    },
    {
      "inputs": [],
      "name": "symbol",
      "outputs": [
        {
          "internalType": "string",
          "name": "",
          "type": "string"
        }
      ],
      "stateMutability": "view",
      "type": "function"
    },
    {
      "inputs": [
        {
          "internalType": "uint256",
          "name": "tokenId",
          "type": "uint256"
        }
      ],
      "name": "tokenURI",
      "outputs": [
        {
          "internalType": "string",
          "name": "",
          "type": "string"
        }
      ],
      "stateMutability": "view",
      "type": "function"
    },
    {
      "inputs": [
        {
          "internalType": "address",
          "name": "from",
          "type": "address"
        },
        {
          "internalType": "address",
          "name": "to",
          "type": "address"
        },
        {
          "internalType": "uint256",
          "name": "tokenId",
          "type": "uint256"
        }
      ],
      "name": "transferFrom",
      "outputs": [],
      "stateMutability": "nonpayable",
      "type": "function"
    },
    {
      "inputs": [],
      "name": "usdc",
      "outputs": [
        {
          "internalType": "contract ERC20",
          "name": "",
          "type": "address"
        }
      ],
      "stateMutability": "view",
      "type": "function"
    },
    {
      "inputs": [],
      "name": "vrf",
      "outputs": [
        {
          "internalType": "contract VRFv2Consumer",
          "name": "",
          "type": "address"
        }
      ],
      "stateMutability": "view",
      "type": "function"
    }
  ],
  "bytecode": "0x60806040523480156200001157600080fd5b5060405162003894380380620038948339818101604052810190620000379190620003a0565b85858585858584848160009081620000509190620006c5565b508060019081620000629190620006c5565b50505085600660006101000a81548173ffffffffffffffffffffffffffffffffffffffff021916908373ffffffffffffffffffffffffffffffffffffffff1602179055506103e86008819055508460099081620000c09190620006c5565b5083600a9081620000d29190620006c5565b5081600b60006101000a81548173ffffffffffffffffffffffffffffffffffffffff021916908373ffffffffffffffffffffffffffffffffffffffff16021790555082600c60006101000a81548173ffffffffffffffffffffffffffffffffffffffff021916908373ffffffffffffffffffffffffffffffffffffffff16021790555080600d60006101000a81548173ffffffffffffffffffffffffffffffffffffffff021916908373ffffffffffffffffffffffffffffffffffffffff160217905550505050505050505050505050620007ac565b6000604051905090565b600080fd5b600080fd5b600073ffffffffffffffffffffffffffffffffffffffff82169050919050565b6000620001e982620001bc565b9050919050565b620001fb81620001dc565b81146200020757600080fd5b50565b6000815190506200021b81620001f0565b92915050565b600080fd5b600080fd5b6000601f19601f8301169050919050565b7f4e487b7100000000000000000000000000000000000000000000000000000000600052604160045260246000fd5b62000276826200022b565b810181811067ffffffffffffffff821117156200029857620002976200023c565b5b80604052505050565b6000620002ad620001a8565b9050620002bb82826200026b565b919050565b600067ffffffffffffffff821115620002de57620002dd6200023c565b5b620002e9826200022b565b9050602081019050919050565b60005b8381101562000316578082015181840152602081019050620002f9565b60008484015250505050565b6000620003396200033384620002c0565b620002a1565b90508281526020810184848401111562000358576200035762000226565b5b62000365848285620002f6565b509392505050565b600082601f83011262000385576200038462000221565b5b81516200039784826020860162000322565b91505092915050565b60008060008060008060c08789031215620003c057620003bf620001b2565b5b6000620003d089828a016200020a565b965050602087015167ffffffffffffffff811115620003f457620003f3620001b7565b5b6200040289828a016200036d565b955050604087015167ffffffffffffffff811115620004265762000425620001b7565b5b6200043489828a016200036d565b94505060606200044789828a016200020a565b93505060806200045a89828a016200020a565b92505060a06200046d89828a016200020a565b9150509295509295509295565b600081519050919050565b7f4e487b7100000000000000000000000000000000000000000000000000000000600052602260045260246000fd5b60006002820490506001821680620004cd57607f821691505b602082108103620004e357620004e262000485565b5b50919050565b60008190508160005260206000209050919050565b60006020601f8301049050919050565b600082821b905092915050565b6000600883026200054d7fffffffffffffffffffffffffffffffffffffffffffffffffffffffffffffffff826200050e565b6200055986836200050e565b95508019841693508086168417925050509392505050565b6000819050919050565b6000819050919050565b6000620005a6620005a06200059a8462000571565b6200057b565b62000571565b9050919050565b6000819050919050565b620005c28362000585565b620005da620005d182620005ad565b8484546200051b565b825550505050565b600090565b620005f1620005e2565b620005fe818484620005b7565b505050565b5b8181101562000626576200061a600082620005e7565b60018101905062000604565b5050565b601f82111562000675576200063f81620004e9565b6200064a84620004fe565b810160208510156200065a578190505b620006726200066985620004fe565b83018262000603565b50505b505050565b600082821c905092915050565b60006200069a600019846008026200067a565b1980831691505092915050565b6000620006b5838362000687565b9150826002028217905092915050565b620006d0826200047a565b67ffffffffffffffff811115620006ec57620006eb6200023c565b5b620006f88254620004b4565b620007058282856200062a565b600060209050601f8311600181146200073d576000841562000728578287015190505b620007348582620006a7565b865550620007a4565b601f1984166200074d86620004e9565b60005b82811015620007775784890151825560018201915060208501945060208101905062000750565b8683101562000797578489015162000793601f89168262000687565b8355505b6001600288020188555050505b505050505050565b6130d880620007bc6000396000f3fe608060405234801561001057600080fd5b50600436106101da5760003560e01c80636ac5db1911610104578063a0712d68116100a2578063ba899a2e11610071578063ba899a2e14610583578063c87b56dd146105b3578063c971ebb3146105e3578063e985e9c514610613576101da565b8063a0712d68146104eb578063a22cb4651461051b578063aba4759f14610537578063b88d4fde14610567576101da565b80638da5cb5b116100de5780638da5cb5b1461046157806395d89b411461047f5780639af9bec01461049d5780639b4f589f146104bb576101da565b80636ac5db19146103f557806370a082311461041357806383813a2814610443576101da565b806317d7de7c1161017c57806342842e0e1161014b57806342842e0e1461036d578063489969f1146103895780634f02c420146103a75780636352211e146103c5576101da565b806317d7de7c146102e557806323b872dd146103035780632f54bf6e1461031f5780633e413bee1461034f576101da565b8063095ea7b3116101b8578063095ea7b31461025d5780630c949043146102795780630f4c01341461029757806312e2dbd8146102c7576101da565b806301ffc9a7146101df57806306fdde031461020f578063081812fc1461022d575b600080fd5b6101f960048036038101906101f49190611f62565b610643565b6040516102069190611faa565b60405180910390f35b610217610725565b6040516102249190612055565b60405180910390f35b610247600480360381019061024291906120ad565b6107b7565b604051610254919061211b565b60405180910390f35b61027760048036038101906102729190612162565b61083c565b005b610281610953565b60405161028e9190612201565b60405180910390f35b6102b160048036038101906102ac9190612162565b610979565b6040516102be919061222b565b60405180910390f35b6102cf61099e565b6040516102dc9190612055565b60405180910390f35b6102ed610a30565b6040516102fa9190612055565b60405180910390f35b61031d60048036038101906103189190612246565b610ac2565b005b61033960048036038101906103349190612299565b610b22565b6040516103469190611faa565b60405180910390f35b610357610b8c565b60405161036491906122e7565b60405180910390f35b61038760048036038101906103829190612246565b610bb2565b005b610391610bd2565b60405161039e9190612335565b60405180910390f35b6103af610bf8565b6040516103bc919061222b565b60405180910390f35b6103df60048036038101906103da91906120ad565b610bfe565b6040516103ec919061211b565b60405180910390f35b6103fd610caf565b60405161040a919061222b565b60405180910390f35b61042d60048036038101906104289190612299565b610cb5565b60405161043a919061222b565b60405180910390f35b61044b610d6c565b6040516104589190612055565b60405180910390f35b610469610dfa565b604051610476919061211b565b60405180910390f35b610487610e20565b6040516104949190612055565b60405180910390f35b6104a5610eb2565b6040516104b29190612055565b60405180910390f35b6104d560048036038101906104d091906120ad565b610f40565b6040516104e291906123a5565b60405180910390f35b610505600480360381019061050091906120ad565b610fe0565b604051610512919061222b565b60405180910390f35b610535600480360381019061053091906123f3565b611006565b005b610551600480360381019061054c91906120ad565b61101c565b60405161055e919061222b565b60405180910390f35b610581600480360381019061057c9190612568565b611076565b005b61059d600480360381019061059891906120ad565b6110d8565b6040516105aa919061211b565b60405180910390f35b6105cd60048036038101906105c891906120ad565b6110ea565b6040516105da9190612055565b60405180910390f35b6105fd60048036038101906105f89190612299565b611191565b60405161060a919061222b565b60405180910390f35b61062d600480360381019061062891906125eb565b6111a9565b60405161063a9190611faa565b60405180910390f35b60007f80ac58cd000000000000000000000000000000000000000000000000000000007bffffffffffffffffffffffffffffffffffffffffffffffffffffffff1916827bffffffffffffffffffffffffffffffffffffffffffffffffffffffff1916148061070e57507f5b5e139f000000000000000000000000000000000000000000000000000000007bffffffffffffffffffffffffffffffffffffffffffffffffffffffff1916827bffffffffffffffffffffffffffffffffffffffffffffffffffffffff1916145b8061071e575061071d8261123d565b5b9050919050565b6060600080546107349061265a565b80601f01602080910402602001604051908101604052809291908181526020018280546107609061265a565b80156107ad5780601f10610782576101008083540402835291602001916107ad565b820191906000526020600020905b81548152906001019060200180831161079057829003601f168201915b5050505050905090565b60006107c2826112a7565b610801576040517f08c379a00000000000000000000000000000000000000000000000000000000081526004016107f8906126fd565b60405180910390fd5b6004600083815260200190815260200160002060009054906101000a900473ffffffffffffffffffffffffffffffffffffffff169050919050565b600061084782610bfe565b90508073ffffffffffffffffffffffffffffffffffffffff168373ffffffffffffffffffffffffffffffffffffffff16036108b7576040517f08c379a00000000000000000000000000000000000000000000000000000000081526004016108ae9061278f565b60405180910390fd5b8073ffffffffffffffffffffffffffffffffffffffff166108d6611313565b73ffffffffffffffffffffffffffffffffffffffff1614806109055750610904816108ff611313565b6111a9565b5b610944576040517f08c379a000000000000000000000000000000000000000000000000000000000815260040161093b90612821565b60405180910390fd5b61094e838361131b565b505050565b600b60009054906101000a900473ffffffffffffffffffffffffffffffffffffffff1681565b6010602052816000526040600020602052806000526040600020600091509150505481565b6060600a80546109ad9061265a565b80601f01602080910402602001604051908101604052809291908181526020018280546109d99061265a565b8015610a265780601f106109fb57610100808354040283529160200191610a26565b820191906000526020600020905b815481529060010190602001808311610a0957829003601f168201915b5050505050905090565b606060098054610a3f9061265a565b80601f0160208091040260200160405190810160405280929190818152602001828054610a6b9061265a565b8015610ab85780601f10610a8d57610100808354040283529160200191610ab8565b820191906000526020600020905b815481529060010190602001808311610a9b57829003601f168201915b5050505050905090565b610ad3610acd611313565b826113d4565b610b12576040517f08c379a0000000000000000000000000000000000000000000000000000000008152600401610b09906128b3565b60405180910390fd5b610b1d8383836114b2565b505050565b6000600660009054906101000a900473ffffffffffffffffffffffffffffffffffffffff1673ffffffffffffffffffffffffffffffffffffffff168273ffffffffffffffffffffffffffffffffffffffff1603610b825760019050610b87565b600090505b919050565b600c60009054906101000a900473ffffffffffffffffffffffffffffffffffffffff1681565b610bcd83838360405180602001604052806000815250611076565b505050565b600d60009054906101000a900473ffffffffffffffffffffffffffffffffffffffff1681565b60075481565b6000806002600084815260200190815260200160002060009054906101000a900473ffffffffffffffffffffffffffffffffffffffff169050600073ffffffffffffffffffffffffffffffffffffffff168173ffffffffffffffffffffffffffffffffffffffff1603610ca6576040517f08c379a0000000000000000000000000000000000000000000000000000000008152600401610c9d90612945565b60405180910390fd5b80915050919050565b60085481565b60008073ffffffffffffffffffffffffffffffffffffffff168273ffffffffffffffffffffffffffffffffffffffff1603610d25576040517f08c379a0000000000000000000000000000000000000000000000000000000008152600401610d1c906129d7565b60405180910390fd5b600360008373ffffffffffffffffffffffffffffffffffffffff1673ffffffffffffffffffffffffffffffffffffffff168152602001908152602001600020549050919050565b600a8054610d799061265a565b80601f0160208091040260200160405190810160405280929190818152602001828054610da59061265a565b8015610df25780601f10610dc757610100808354040283529160200191610df2565b820191906000526020600020905b815481529060010190602001808311610dd557829003601f168201915b505050505081565b600660009054906101000a900473ffffffffffffffffffffffffffffffffffffffff1681565b606060018054610e2f9061265a565b80601f0160208091040260200160405190810160405280929190818152602001828054610e5b9061265a565b8015610ea85780601f10610e7d57610100808354040283529160200191610ea8565b820191906000526020600020905b815481529060010190602001808311610e8b57829003601f168201915b5050505050905090565b60098054610ebf9061265a565b80601f0160208091040260200160405190810160405280929190818152602001828054610eeb9061265a565b8015610f385780601f10610f0d57610100808354040283529160200191610f38565b820191906000526020600020905b815481529060010190602001808311610f1b57829003601f168201915b505050505081565b600e6020528060005260406000206000915090508054610f5f9061265a565b80601f0160208091040260200160405190810160405280929190818152602001828054610f8b9061265a565b8015610fd85780601f10610fad57610100808354040283529160200191610fd8565b820191906000526020600020905b815481529060010190602001808311610fbb57829003601f168201915b505050505081565b600060085460075410610ff257600080fd5b610ffb8261170d565b506007549050919050565b611018611011611313565b838361184b565b5050565b6000601060003373ffffffffffffffffffffffffffffffffffffffff1673ffffffffffffffffffffffffffffffffffffffff1681526020019081526020016000206000838152602001908152602001600020549050919050565b611087611081611313565b836113d4565b6110c6576040517f08c379a00000000000000000000000000000000000000000000000000000000081526004016110bd906128b3565b60405180910390fd5b6110d2848484846119b7565b50505050565b60006110e382610bfe565b9050919050565b60606110f5826112a7565b611134576040517f08c379a000000000000000000000000000000000000000000000000000000000815260040161112b90612a69565b60405180910390fd5b600061113e611a13565b9050600081511161115e5760405180602001604052806000815250611189565b8061116884611a2a565b604051602001611179929190612ac5565b6040516020818303038152906040525b915050919050565b600f6020528060005260406000206000915090505481565b6000600560008473ffffffffffffffffffffffffffffffffffffffff1673ffffffffffffffffffffffffffffffffffffffff16815260200190815260200160002060008373ffffffffffffffffffffffffffffffffffffffff1673ffffffffffffffffffffffffffffffffffffffff16815260200190815260200160002060009054906101000a900460ff16905092915050565b60007f01ffc9a7000000000000000000000000000000000000000000000000000000007bffffffffffffffffffffffffffffffffffffffffffffffffffffffff1916827bffffffffffffffffffffffffffffffffffffffffffffffffffffffff1916149050919050565b60008073ffffffffffffffffffffffffffffffffffffffff166002600084815260200190815260200160002060009054906101000a900473ffffffffffffffffffffffffffffffffffffffff1673ffffffffffffffffffffffffffffffffffffffff1614159050919050565b600033905090565b816004600083815260200190815260200160002060006101000a81548173ffffffffffffffffffffffffffffffffffffffff021916908373ffffffffffffffffffffffffffffffffffffffff160217905550808273ffffffffffffffffffffffffffffffffffffffff1661138e83610bfe565b73ffffffffffffffffffffffffffffffffffffffff167f8c5be1e5ebec7d5bd14f71427d1e84f3dd0314c0f7b2291e5b200ac8c7c3b92560405160405180910390a45050565b60006113df826112a7565b61141e576040517f08c379a000000000000000000000000000000000000000000000000000000000815260040161141590612b5b565b60405180910390fd5b600061142983610bfe565b90508073ffffffffffffffffffffffffffffffffffffffff168473ffffffffffffffffffffffffffffffffffffffff16148061149857508373ffffffffffffffffffffffffffffffffffffffff16611480846107b7565b73ffffffffffffffffffffffffffffffffffffffff16145b806114a957506114a881856111a9565b5b91505092915050565b8273ffffffffffffffffffffffffffffffffffffffff166114d282610bfe565b73ffffffffffffffffffffffffffffffffffffffff1614611528576040517f08c379a000000000000000000000000000000000000000000000000000000000815260040161151f90612bed565b60405180910390fd5b600073ffffffffffffffffffffffffffffffffffffffff168273ffffffffffffffffffffffffffffffffffffffff1603611597576040517f08c379a000000000000000000000000000000000000000000000000000000000815260040161158e90612c7f565b60405180910390fd5b6115a2838383611b8a565b6115ad60008261131b565b6001600360008573ffffffffffffffffffffffffffffffffffffffff1673ffffffffffffffffffffffffffffffffffffffff16815260200190815260200160002060008282546115fd9190612cce565b925050819055506001600360008473ffffffffffffffffffffffffffffffffffffffff1673ffffffffffffffffffffffffffffffffffffffff16815260200190815260200160002060008282546116549190612d02565b92505081905550816002600083815260200190815260200160002060006101000a81548173ffffffffffffffffffffffffffffffffffffffff021916908373ffffffffffffffffffffffffffffffffffffffff160217905550808273ffffffffffffffffffffffffffffffffffffffff168473ffffffffffffffffffffffffffffffffffffffff167fddf252ad1be2c89b69c2b068fc378daa952ba7f163c4a11628f55a4df523b3ef60405160405180910390a4505050565b600061171b33600754611b8f565b6007600081548092919061172e90612d36565b9190505550600282106118415761174733600754611b8f565b6007600081548092919061175a90612d36565b9190505550600382106118405761177333600754611b8f565b6007600081548092919061178690612d36565b91905055506004821061183f5761179f33600754611b8f565b600760008154809291906117b290612d36565b91905055506005821061183e576117cb33600754611b8f565b600760008154809291906117de90612d36565b91905055506006821061183d576117f733600754611b8f565b6007600081548092919061180a90612d36565b91905055506007821061183c5761182333600754611b8f565b6007600081548092919061183690612d36565b91905055505b5b5b5b5b5b6007549050919050565b8173ffffffffffffffffffffffffffffffffffffffff168373ffffffffffffffffffffffffffffffffffffffff16036118b9576040517f08c379a00000000000000000000000000000000000000000000000000000000081526004016118b090612dca565b60405180910390fd5b80600560008573ffffffffffffffffffffffffffffffffffffffff1673ffffffffffffffffffffffffffffffffffffffff16815260200190815260200160002060008473ffffffffffffffffffffffffffffffffffffffff1673ffffffffffffffffffffffffffffffffffffffff16815260200190815260200160002060006101000a81548160ff0219169083151502179055508173ffffffffffffffffffffffffffffffffffffffff168373ffffffffffffffffffffffffffffffffffffffff167f17307eab39ab6107e8899845ad3d59bd9653f200f220920489ca2b5937696c31836040516119aa9190611faa565b60405180910390a3505050565b6119c28484846114b2565b6119ce84848484611d5c565b611a0d576040517f08c379a0000000000000000000000000000000000000000000000000000000008152600401611a0490612e5c565b60405180910390fd5b50505050565b606060405180602001604052806000815250905090565b606060008203611a71576040518060400160405280600181526020017f30000000000000000000000000000000000000000000000000000000000000008152509050611b85565b600082905060005b60008214611aa3578080611a8c90612d36565b915050600a82611a9c9190612eab565b9150611a79565b60008167ffffffffffffffff811115611abf57611abe61243d565b5b6040519080825280601f01601f191660200182016040528015611af15781602001600182028036833780820191505090505b5090505b60008514611b7e57600182611b0a9190612cce565b9150600a85611b199190612edc565b6030611b259190612d02565b60f81b818381518110611b3b57611b3a612f0d565b5b60200101907effffffffffffffffffffffffffffffffffffffffffffffffffffffffffffff1916908160001a905350600a85611b779190612eab565b9450611af5565b8093505050505b919050565b505050565b600073ffffffffffffffffffffffffffffffffffffffff168273ffffffffffffffffffffffffffffffffffffffff1603611bfe576040517f08c379a0000000000000000000000000000000000000000000000000000000008152600401611bf590612f88565b60405180910390fd5b611c07816112a7565b15611c47576040517f08c379a0000000000000000000000000000000000000000000000000000000008152600401611c3e90612ff4565b60405180910390fd5b611c5360008383611b8a565b6001600360008473ffffffffffffffffffffffffffffffffffffffff1673ffffffffffffffffffffffffffffffffffffffff1681526020019081526020016000206000828254611ca39190612d02565b92505081905550816002600083815260200190815260200160002060006101000a81548173ffffffffffffffffffffffffffffffffffffffff021916908373ffffffffffffffffffffffffffffffffffffffff160217905550808273ffffffffffffffffffffffffffffffffffffffff16600073ffffffffffffffffffffffffffffffffffffffff167fddf252ad1be2c89b69c2b068fc378daa952ba7f163c4a11628f55a4df523b3ef60405160405180910390a45050565b6000611d7d8473ffffffffffffffffffffffffffffffffffffffff16611ee3565b15611ed6578373ffffffffffffffffffffffffffffffffffffffff1663150b7a02611da6611313565b8786866040518563ffffffff1660e01b8152600401611dc89493929190613014565b6020604051808303816000875af1925050508015611e0457506040513d601f19601f82011682018060405250810190611e019190613075565b60015b611e86573d8060008114611e34576040519150601f19603f3d011682016040523d82523d6000602084013e611e39565b606091505b506000815103611e7e576040517f08c379a0000000000000000000000000000000000000000000000000000000008152600401611e7590612e5c565b60405180910390fd5b805181602001fd5b63150b7a0260e01b7bffffffffffffffffffffffffffffffffffffffffffffffffffffffff1916817bffffffffffffffffffffffffffffffffffffffffffffffffffffffff191614915050611edb565b600190505b949350505050565b600080823b905060008111915050919050565b6000604051905090565b600080fd5b600080fd5b60007fffffffff0000000000000000000000000000000000000000000000000000000082169050919050565b611f3f81611f0a565b8114611f4a57600080fd5b50565b600081359050611f5c81611f36565b92915050565b600060208284031215611f7857611f77611f00565b5b6000611f8684828501611f4d565b91505092915050565b60008115159050919050565b611fa481611f8f565b82525050565b6000602082019050611fbf6000830184611f9b565b92915050565b600081519050919050565b600082825260208201905092915050565b60005b83811015611fff578082015181840152602081019050611fe4565b60008484015250505050565b6000601f19601f8301169050919050565b600061202782611fc5565b6120318185611fd0565b9350612041818560208601611fe1565b61204a8161200b565b840191505092915050565b6000602082019050818103600083015261206f818461201c565b905092915050565b6000819050919050565b61208a81612077565b811461209557600080fd5b50565b6000813590506120a781612081565b92915050565b6000602082840312156120c3576120c2611f00565b5b60006120d184828501612098565b91505092915050565b600073ffffffffffffffffffffffffffffffffffffffff82169050919050565b6000612105826120da565b9050919050565b612115816120fa565b82525050565b6000602082019050612130600083018461210c565b92915050565b61213f816120fa565b811461214a57600080fd5b50565b60008135905061215c81612136565b92915050565b6000806040838503121561217957612178611f00565b5b60006121878582860161214d565b925050602061219885828601612098565b9150509250929050565b6000819050919050565b60006121c76121c26121bd846120da565b6121a2565b6120da565b9050919050565b60006121d9826121ac565b9050919050565b60006121eb826121ce565b9050919050565b6121fb816121e0565b82525050565b600060208201905061221660008301846121f2565b92915050565b61222581612077565b82525050565b6000602082019050612240600083018461221c565b92915050565b60008060006060848603121561225f5761225e611f00565b5b600061226d8682870161214d565b935050602061227e8682870161214d565b925050604061228f86828701612098565b9150509250925092565b6000602082840312156122af576122ae611f00565b5b60006122bd8482850161214d565b91505092915050565b60006122d1826121ce565b9050919050565b6122e1816122c6565b82525050565b60006020820190506122fc60008301846122d8565b92915050565b600061230d826121ac565b9050919050565b600061231f82612302565b9050919050565b61232f81612314565b82525050565b600060208201905061234a6000830184612326565b92915050565b600081519050919050565b600082825260208201905092915050565b600061237782612350565b612381818561235b565b9350612391818560208601611fe1565b61239a8161200b565b840191505092915050565b600060208201905081810360008301526123bf818461236c565b905092915050565b6123d081611f8f565b81146123db57600080fd5b50565b6000813590506123ed816123c7565b92915050565b6000806040838503121561240a57612409611f00565b5b60006124188582860161214d565b9250506020612429858286016123de565b9150509250929050565b600080fd5b600080fd5b7f4e487b7100000000000000000000000000000000000000000000000000000000600052604160045260246000fd5b6124758261200b565b810181811067ffffffffffffffff821117156124945761249361243d565b5b80604052505050565b60006124a7611ef6565b90506124b3828261246c565b919050565b600067ffffffffffffffff8211156124d3576124d261243d565b5b6124dc8261200b565b9050602081019050919050565b82818337600083830152505050565b600061250b612506846124b8565b61249d565b90508281526020810184848401111561252757612526612438565b5b6125328482856124e9565b509392505050565b600082601f83011261254f5761254e612433565b5b813561255f8482602086016124f8565b91505092915050565b6000806000806080858703121561258257612581611f00565b5b60006125908782880161214d565b94505060206125a18782880161214d565b93505060406125b287828801612098565b925050606085013567ffffffffffffffff8111156125d3576125d2611f05565b5b6125df8782880161253a565b91505092959194509250565b6000806040838503121561260257612601611f00565b5b60006126108582860161214d565b92505060206126218582860161214d565b9150509250929050565b7f4e487b7100000000000000000000000000000000000000000000000000000000600052602260045260246000fd5b6000600282049050600182168061267257607f821691505b6020821081036126855761268461262b565b5b50919050565b7f4552433732313a20617070726f76656420717565727920666f72206e6f6e657860008201527f697374656e7420746f6b656e0000000000000000000000000000000000000000602082015250565b60006126e7602c83611fd0565b91506126f28261268b565b604082019050919050565b60006020820190508181036000830152612716816126da565b9050919050565b7f4552433732313a20617070726f76616c20746f2063757272656e74206f776e6560008201527f7200000000000000000000000000000000000000000000000000000000000000602082015250565b6000612779602183611fd0565b91506127848261271d565b604082019050919050565b600060208201905081810360008301526127a88161276c565b9050919050565b7f4552433732313a20617070726f76652063616c6c6572206973206e6f74206f7760008201527f6e6572206e6f7220617070726f76656420666f7220616c6c0000000000000000602082015250565b600061280b603883611fd0565b9150612816826127af565b604082019050919050565b6000602082019050818103600083015261283a816127fe565b9050919050565b7f4552433732313a207472616e736665722063616c6c6572206973206e6f74206f60008201527f776e6572206e6f7220617070726f766564000000000000000000000000000000602082015250565b600061289d603183611fd0565b91506128a882612841565b604082019050919050565b600060208201905081810360008301526128cc81612890565b9050919050565b7f4552433732313a206f776e657220717565727920666f72206e6f6e657869737460008201527f656e7420746f6b656e0000000000000000000000000000000000000000000000602082015250565b600061292f602983611fd0565b915061293a826128d3565b604082019050919050565b6000602082019050818103600083015261295e81612922565b9050919050565b7f4552433732313a2062616c616e636520717565727920666f7220746865207a6560008201527f726f206164647265737300000000000000000000000000000000000000000000602082015250565b60006129c1602a83611fd0565b91506129cc82612965565b604082019050919050565b600060208201905081810360008301526129f0816129b4565b9050919050565b7f4552433732314d657461646174613a2055524920717565727920666f72206e6f60008201527f6e6578697374656e7420746f6b656e0000000000000000000000000000000000602082015250565b6000612a53602f83611fd0565b9150612a5e826129f7565b604082019050919050565b60006020820190508181036000830152612a8281612a46565b9050919050565b600081905092915050565b6000612a9f82611fc5565b612aa98185612a89565b9350612ab9818560208601611fe1565b80840191505092915050565b6000612ad18285612a94565b9150612add8284612a94565b91508190509392505050565b7f4552433732313a206f70657261746f7220717565727920666f72206e6f6e657860008201527f697374656e7420746f6b656e0000000000000000000000000000000000000000602082015250565b6000612b45602c83611fd0565b9150612b5082612ae9565b604082019050919050565b60006020820190508181036000830152612b7481612b38565b9050919050565b7f4552433732313a207472616e73666572206f6620746f6b656e2074686174206960008201527f73206e6f74206f776e0000000000000000000000000000000000000000000000602082015250565b6000612bd7602983611fd0565b9150612be282612b7b565b604082019050919050565b60006020820190508181036000830152612c0681612bca565b9050919050565b7f4552433732313a207472616e7366657220746f20746865207a65726f2061646460008201527f7265737300000000000000000000000000000000000000000000000000000000602082015250565b6000612c69602483611fd0565b9150612c7482612c0d565b604082019050919050565b60006020820190508181036000830152612c9881612c5c565b9050919050565b7f4e487b7100000000000000000000000000000000000000000000000000000000600052601160045260246000fd5b6000612cd982612077565b9150612ce483612077565b9250828203905081811115612cfc57612cfb612c9f565b5b92915050565b6000612d0d82612077565b9150612d1883612077565b9250828201905080821115612d3057612d2f612c9f565b5b92915050565b6000612d4182612077565b91507fffffffffffffffffffffffffffffffffffffffffffffffffffffffffffffffff8203612d7357612d72612c9f565b5b600182019050919050565b7f4552433732313a20617070726f766520746f2063616c6c657200000000000000600082015250565b6000612db4601983611fd0565b9150612dbf82612d7e565b602082019050919050565b60006020820190508181036000830152612de381612da7565b9050919050565b7f4552433732313a207472616e7366657220746f206e6f6e20455243373231526560008201527f63656976657220696d706c656d656e7465720000000000000000000000000000602082015250565b6000612e46603283611fd0565b9150612e5182612dea565b604082019050919050565b60006020820190508181036000830152612e7581612e39565b9050919050565b7f4e487b7100000000000000000000000000000000000000000000000000000000600052601260045260246000fd5b6000612eb682612077565b9150612ec183612077565b925082612ed157612ed0612e7c565b5b828204905092915050565b6000612ee782612077565b9150612ef283612077565b925082612f0257612f01612e7c565b5b828206905092915050565b7f4e487b7100000000000000000000000000000000000000000000000000000000600052603260045260246000fd5b7f4552433732313a206d696e7420746f20746865207a65726f2061646472657373600082015250565b6000612f72602083611fd0565b9150612f7d82612f3c565b602082019050919050565b60006020820190508181036000830152612fa181612f65565b9050919050565b7f4552433732313a20746f6b656e20616c7265616479206d696e74656400000000600082015250565b6000612fde601c83611fd0565b9150612fe982612fa8565b602082019050919050565b6000602082019050818103600083015261300d81612fd1565b9050919050565b6000608082019050613029600083018761210c565b613036602083018661210c565b613043604083018561221c565b8181036060830152613055818461236c565b905095945050505050565b60008151905061306f81611f36565b92915050565b60006020828403121561308b5761308a611f00565b5b600061309984828501613060565b9150509291505056fea2646970667358221220e5081e1815396ebf85d6cab233d122e138ce3e2821cea7532d3bc071784d379b64736f6c63430008110033",
  "immutableReferences": {},
  "source": "// SPDX-License-Identifier: GPL-3.0\n// // // // // // // // // // // // // // // // // // // // // // // // // // // // // // // // // // // // // // // // // // // // // // // // // // // // // // // // // // // // //\n//\n//              .d8888.  .d88b.  db    db d888888b d88888b d888888b db    db\n//              88'  YP .8P  88. `8b  d8'   `88'   88'     `~~88~~' `8b  d8'\n//              `8bo.   88  d'88  `8bd8'     88    88ooooo    88     `8bd8'\n//                `Y8b. 88 d' 88  .dPYb.     88    88~~~~~    88       88\n//              db   8D `88  d8' .8P  Y8.   .88.   88.        88       88\n//              `8888Y'  `Y88P'  YP    YP Y888888P Y88888P    YP       YP\n//\n// // // // // // // // // // // // // // // // // // // // // // // // // // // // // // // // // // // // // // // // // // // // // // // // // // // // // // // // // // // // //\n//                                                                                                                                                                                  //\n//      @dev            ::              stereoIII6.dao                                                                                                                                          //\n//      @msg            ::              type.stereo@pm.me                                                                                                                                    //\n//      @github         ::              @stereoIII6\n//      @twitter        ::              @stereoIII6                                                                                                                                              //\n//                                                                                                                                                                                  //\n// // // // // // // // // // // // // // // // // // // // // // // // // // // // // // // // // // // // // // // // // // // // // // // // // // // // // // // // // // // // //\n//                                                                                                                                                                                  //\n//      @dev            ::              Juan Xavier Valverde                                                                                                                                    //\n//      @msg            ::              juanxaviervm@hotmail.com                                                                                                                               //\n//      @twitter        ::              @JuanXavier                                                                                                                                             //\n//      @github         ::              @JuanXavier                                                                                                                                             //\n//                                                                                                                                                                                  //                                                                                                                                                                                 //\n// // // // // // // // // // // // // // // // // // // // // // // // // // // // // // // // // // // // // // // // // // // // // // // // // // // // // // // // // // // // //\n//  *   *   *   *   *   *   *   *   *   *   *   *   *   *   *   *   *   *   *   *   *   *   *   *   *   *   *   *   *   *   *   *   *   *   *   *   *   *   *   *   *   *   *   *   //\n// // // // // // // // // // // // // // // // // // // // // // // // // // // // // // // // // // // // // // // // // // // // // // // // // // // // // // // // // // // // //\n//                                                                                                                                                                                  //\n//                                                                                                                                                                                  //\n//      @title          ::              s0xiety Connect                                                                                                                             //\n//      @description    ::              decentral s0xiety                                                                                                                           //\n//      @version        ::              0.0.1                                                                                                                                       //\n//      @purpose        ::              Refer friennds on the blockchain                                                                                                            //\n//                                                                                                                                                                                  //\n//                                                                                                                                                                                  //\n//                                                                                                                                                                                  //\n//                                                                                                                                                                                  //\n//                                                                                                                                                                                  //\n// // // // // // // // // // // // // // // // // // // // // // // // // // // // // // // // // // // // // // // // // // // // // // // // // // // // // // // // // // // // //\n//  *   *   *   *   *   *   *   *   *   *   *   *   *   *   *   *   *   *   *   *   *   *   *   *   *   *   *   *   *   *   *   *   *   *   *   *   *   *   *   *   *   *   *   *   //\n// // // // // // // // // // // // // // // // // // // // // // // // // // // // // // // // // // // // // // // // // // // // // // // // // // // // // // // // // // // // //\n\n/////////////////////////////////////////////////////////////////////////////////////////////////////////////////////\n\n/* \n\nINSTRUCTIONS \n\nHere are the source codes you will need to test the functionality of the eco mint function with USDC payment \n(because of the 0.094$ price) \n\n- USDC is an obvious mockUp with a airdrop function so you can grab some coins !\n- Trees is the TR33 Contract that takes care of the Tree Tokenomics and gives the user his TR33 Tokens\n- MLQ is our Impact.dao Utility and Liquidity Token (unused but a dependency)\n- ECO is the Eco Mint NFT Contract that automates one tree per NFT into the payment process \n\nHope that helps the easiest way is to deploy all the contracts in remix and try to \n\n\nThats kind of it !\n\ngreetings and blessings https://stereoIII6.dao\n\n*/\n\n/////////////////////////////////////////////////////////////////////////////////////////////////////////////////////\n\npragma solidity ^0.8.7;\n\nimport \"@openzeppelin/contracts/utils/Counters.sol\";\nimport \"@openzeppelin/contracts/utils/Strings.sol\";\nimport \"@openzeppelin/contracts/token/ERC20/ERC20.sol\";\nimport \"@openzeppelin/contracts/token/ERC20/IERC20.sol\";\nimport \"@openzeppelin/contracts/token/ERC721/ERC721.sol\";\nimport \"@openzeppelin/contracts/token/ERC721/IERC721.sol\";\nimport \"@openzeppelin/contracts/token/ERC1155/ERC1155.sol\";\nimport \"@chainlink/contracts/src/v0.8/interfaces/AggregatorV3Interface.sol\";\nimport \"@chainlink/contracts/src/v0.8/interfaces/LinkTokenInterface.sol\";\nimport \"@chainlink/contracts/src/v0.8/interfaces/VRFCoordinatorV2Interface.sol\";\nimport \"@chainlink/contracts/src/v0.8/VRFConsumerBaseV2.sol\";\n\n//      MINIMAL LAUNCH CHECKLIST AVAX, FANTOM, POLYGON , XDAI                                               ()\n//                                                                                                          /#/\n// 1 ) validation that safe adrress is accessible for everyone                                              ()\n// 2 ) production VRF subscription ID                                                                       ( )\n// 3 ) validate vrf consumer addresses                                                                      ( )\n// 4 ) validate price consumer addresses                                                                    ( )\n// 5 ) test price exchange rates weth/usdc mlq/usdc main/usdc on all networks from frontend                 ( )\n//      a ) MLQ                                                                                             ( )\n//      b ) S33D                                                                                            ( )\n//      c ) CO2                                                                                             ( )\n// 6 ) test direct payment on contract with ud ens and ether address                                        ( )\n//      a ) MLQ                                                                                             ( )\n//      b ) S33D                                                                                            ( )\n//      c ) NFT & ECONFT **                                                                                 ( )**\n// 7 ) test carbon vesting in high speed                                                                    ( )\n// 8 ) test user profile and ipfs pinning function **                                                       ( )**\n// 9 ) test group , posting and direct messaging **                                                         ( )**\n// 10 ) test impact solbond profile NFT interface **                                                        ( )**\n// 11 ) test impact marketplace dias interface **                                                           ( )**\n//      a ) Layers **                                                                                       ( )**\n//      b ) Keys **                                                                                         ( )**\n//      c ) Actions **                                                                                      ( )**\n//      d ) Spec Combos **                                                                                  ( )**\n// 12 ) fractio testing dias object syntax ****                                                             ( )****\n// 13 ) afl8 testing ****                                                                                   ( )****\n// 14 ) drntl testing ****                                                                                  ( )****\n//      a ) Governance ****                                                                                 ( )****\n//      b ) Umbrella ****                                                                                   ( )****\n//      c ) Project ****                                                                                    ( )****\n//      d ) Holder ****                                                                                     ( )****\n//\n//      Phase 1 Migration Script\n//      ** Phase 2 Migration Script\n//      **** Phase 3 Migration Script\n\n// tasks\n\n/**\n\nUpload Form integration for avatar image \n\nProfile section under profile button \n\nSoulbound Profile Extension \n\nTREE Token Display \n\n\n */\n\n// 0 Fuji // 1 Avax // 2 Fantom Test // 3 Fantom Main // 4 Polygon Mumbai // 5 Polygon Main\ncontract exitSafes {\n    // ** CHECKLIST **\n    // validation that safe adrress is accessible for everyone\n    address iii6; // developers conglomerate\n    address dojo; // devtool framework\n    address s0x; // community framework\n    address dias; // dias conglomerate\n    address codebender; // dynamic nft editor\n    address vanByte; // dynamic arts museum\n    address foyl; // digital arts community\n    address vrl; // dynamic tech promo framework\n\n    constructor(uint256 _net) {\n        if (_net == 1) {\n            // AVAX\n        } else if (_net == 3) {\n            // FANTOM Opera\n        } else if (_net == 2) {\n            // Fantom Test\n        } else if (_net == 5) {\n            // Polygon\n        } else {\n            // FALLBACK\n        }\n    }\n}\n\ncontract VRFv2Consumer is VRFConsumerBaseV2 {\n    VRFCoordinatorV2Interface COORDINATOR;\n\n    // Your subscription ID.\n    uint64 s_subscriptionId;\n    uint256 net;\n\n    uint32 constant callbackGasLimit = 100000;\n    uint16 constant requestConfirmations = 3;\n    uint32 constant numWords = 7;\n\n    mapping(uint256 => uint256[]) public s_requestIdToRandomWords;\n    mapping(uint256 => address) public s_requestIdToAddress;\n    uint256 public s_requestId;\n    address s_owner;\n\n    // 0 Fuji // 1 Avax // 2 Fantom Test // 3 Fantom Main // 4 Polygon Mumbai // 5 Polygon Main\n    /* 5 => /\n    // Polygon Main coordinator. For other networks,\n    // see https://docs.chain.link/docs/vrf-contracts/#configurations\n    address vrfCoordinator = 0xAE975071Be8F8eE67addBC1A82488F1C24858067;\n    bytes32 keyHash =\n        0xd729dc84e21ae57ffb6be0053bf2b0668aa2aaf300a2a7b2ddf7dc0bb6e875a8;\n    // */\n\n    /* 4 => /\n    // Polygon Mumbai coordinator. For other networks,\n    // see https://docs.chain.link/docs/vrf-contracts/#configurations\n    address vrfCoordinator = 0x7a1BaC17Ccc5b313516C5E16fb24f7659aA5ebed;\n    bytes32 keyHash =\n        0x4b09e658ed251bcafeebbc69400383d49f344ace09b9576fe248bb02c003fe9f;\n\n    // */\n\n    /* 3 => /\n    // Fantom Main coordinator. For other networks,\n    // see https://docs.chain.link/docs/vrf-contracts/#configurations\n    address vrfCoordinator = 0xd5D517aBE5cF79B7e95eC98dB0f0277788aFF634;\n    bytes32 keyHash =\n        0x64ae04e5dba58bc08ba2d53eb33fe95bf71f5002789692fe78fb3778f16121c9;\n\n    // */\n\n    /* 2 => /\n    // Fantom Test coordinator. For other networks,\n    // see https://docs.chain.link/docs/vrf-contracts/#configurations\n    address vrfCoordinator = 0xbd13f08b8352A3635218ab9418E340c60d6Eb418;\n    bytes32 keyHash =\n        0x121a143066e0f2f08b620784af77cccb35c6242460b4a8ee251b4b416abaebd4;\n    // */\n\n    /* 1 => /\n    // AVAX coordinator. For other networks,\n    // see https://docs.chain.link/docs/vrf-contracts/#configurations\n    address vrfCoordinator = 0x2eD832Ba664535e5886b75D64C46EB9a228C2610;\n    bytes32 keyHash =\n        0x06eb0e2ea7cca202fc7c8258397a36f33d88568d2522b37aaa3b14ff6ee1b696;\n    // */\n\n    /* 0 => */\n    // AVAX Fuji coordinator. For other networks,\n    // see https://docs.chain.link/docs/vrf-contracts/#configurations\n    address vrfCoordinator = 0x2eD832Ba664535e5886b75D64C46EB9a228C2610;\n    bytes32 keyHash =\n        0x354d2f95da55398f44b7cff77da56283d9c6c829a4bdf1bbcaf2ad6a4d081f61;\n\n    // */\n\n    constructor(uint64 subscriptionId) VRFConsumerBaseV2(vrfCoordinator) {\n        COORDINATOR = VRFCoordinatorV2Interface(vrfCoordinator);\n        s_owner = msg.sender;\n        s_subscriptionId = subscriptionId;\n    }\n\n    function randy(uint256 _rid) external view returns (uint256[] memory) {\n        return s_requestIdToRandomWords[_rid];\n    }\n\n    // Assumes the subscription is funded sufficiently.\n    function requestRandomWords() external returns (uint256) {\n        uint256 requestId = COORDINATOR.requestRandomWords(\n            keyHash,\n            s_subscriptionId,\n            requestConfirmations,\n            callbackGasLimit,\n            numWords\n        );\n        s_requestIdToAddress[requestId] = msg.sender;\n\n        // Store the latest requestId for this example.\n        s_requestId = requestId;\n\n        // Return the requestId to the requester.\n        return requestId;\n    }\n\n    function fulfillRandomWords(uint256 requestId, uint256[] memory randomWords)\n        internal\n        override\n    {\n        // You can return the value to the requester,\n        // but this example simply stores it.\n        s_requestIdToRandomWords[requestId] = randomWords;\n    }\n}\n\n// 0 Fuji // 1 Avax // 2 Fantom Test // 4 Fantom Main // 5 Polygon Mumbai // 6 Polygon Main\ncontract PriceConsumerV3 {\n    AggregatorV3Interface internal ethUSDagg;\n    AggregatorV3Interface internal mainUSDagg;\n\n    constructor(uint256 _net) {\n        if (_net == 0) {\n            // AVAX FUJI\n            ethUSDagg = AggregatorV3Interface(\n                0x86d67c3D38D2bCeE722E601025C25a575021c6EA\n            );\n            mainUSDagg = AggregatorV3Interface(\n                0x5498BB86BC934c8D34FDA08E81D444153d0D06aD\n            );\n        } else if (_net == 1) {\n            // AVAX MAINNET\n            ethUSDagg = AggregatorV3Interface(\n                0x976B3D034E162d8bD72D6b9C989d545b839003b0\n            );\n            mainUSDagg = AggregatorV3Interface(\n                0x0A77230d17318075983913bC2145DB16C7366156\n            );\n        } else if (_net == 2) {\n            // Fantom TESTNET\n            ethUSDagg = AggregatorV3Interface(\n                0xB8C458C957a6e6ca7Cc53eD95bEA548c52AFaA24\n            );\n            mainUSDagg = AggregatorV3Interface(\n                0xe04676B9A9A2973BCb0D1478b5E1E9098BBB7f3D\n            );\n        } else if (_net == 3) {\n            // Fantom MAINNET\n            ethUSDagg = AggregatorV3Interface(\n                0x11DdD3d147E5b83D01cee7070027092397d63658\n            );\n            mainUSDagg = AggregatorV3Interface(\n                0xf4766552D15AE4d256Ad41B6cf2933482B0680dc\n            );\n        } else if (_net == 4) {\n            // Polygon Mumbai\n            ethUSDagg = AggregatorV3Interface(\n                0x0715A7794a1dc8e42615F059dD6e406A6594651A\n            );\n            mainUSDagg = AggregatorV3Interface(\n                0xd0D5e3DB44DE05E9F294BB0a3bEEaF030DE24Ada\n            );\n        } else if (_net == 5) {\n            // Polygon Mainnet\n            ethUSDagg = AggregatorV3Interface(\n                0xF9680D99D6C9589e2a93a78A04A279e509205945\n            );\n            mainUSDagg = AggregatorV3Interface(\n                0xAB594600376Ec9fD91F8e885dADF0CE036862dE0\n            );\n        }\n    }\n\n    // gives back weth price in $\n    function EthUsdPrice() external view returns (int256 price) {\n        (, price, , , ) = ethUSDagg.latestRoundData();\n    }\n\n    // gives back network gas currency price in $\n    function MainUsdPrice() external view returns (int256 price) {\n        (, price, , , ) = mainUSDagg.latestRoundData();\n    }\n}\n\ncontract MathFnx {\n    // Math Function Extension\n    // division function for solidity\n    function divide(uint256 _a, uint256 _b) internal pure returns (uint256) {\n        uint256 rem = _a % _b;\n        return ((_a - rem) / _b);\n    }\n\n    // generates unique id nr\n    function uniqID(string memory _inf) internal pure returns (uint256) {\n        bytes32 BHash = keccak256(abi.encode(_inf));\n        return uint256(BHash);\n    }\n\n    // gives back the smaller wallet address\n    function smaller(address _a, address _b)\n        internal\n        pure\n        returns (address s, address l)\n    {\n        if (_a < _b) {\n            s = _a;\n            l = _b;\n        } else if (_a > _b) {\n            s = _b;\n            l = _a;\n        }\n    }\n}\n\nlibrary MLQlib {\n    // MLQ Token Extension\n    uint256 public constant MLQ_RATE = 100;\n    uint256 public constant MLQ_DIG = 10**18;\n    uint256 public constant MAX_SUPPLY = 3 * 10**9 * MLQ_DIG;\n    uint256 public constant PUB_SUPPLY = 1 * 10**9 * MLQ_DIG;\n    uint256 public constant POOL_RESERVE = 1 * 10**9 * MLQ_DIG;\n    uint256 public constant CIRC_RESERVE = 1 * 10**9 * MLQ_DIG;\n}\n\ncontract Users {\n    // user data storage for conglomerate\n    address private s0x; // s0x admin\n\n    struct Impact {\n        uint256 action;\n        uint256 connection;\n        uint256 liquidity;\n    }\n    // user profile array // user# => dias%\n    mapping(address => bytes) public users;\n    mapping(address => bool) private isUser;\n    // role // user# => role$\n    mapping(address => uint256) private roles;\n    // only admin allowed function modifier\n    mapping(address => Impact) public impx;\n    mapping(address => string) public name;\n\n    modifier isAdmin() {\n        require(msg.sender == s0x);\n        _;\n    }\n\n    constructor() {\n        s0x = msg.sender; // admin initialization\n        makeUser(\n            s0x,\n            '{\"name\":\"s0xAdmin\",\"email\":\"type.stereo@pm.me\",\"image\":\"https://ipfs.io/ipfs/QmXNciGvGJGRV2HHE82oLoicvwatB8sqsydxn7P3NSP1nW\"}',\n            99,\n            \"s0xAdmin\"\n        ); // admin user account setup\n    }\n\n    // takes address , dias , and role to create and store a user profile in user mapping\n    function makeUser(\n        address _adr,\n        bytes memory _dias,\n        uint256 _r,\n        string memory _name\n    ) internal returns (bool) {\n        users[_adr] = _dias;\n        roles[_adr] = _r;\n        impx[_adr] = Impact(0, 0, 0);\n        name[_adr] = _name;\n        isUser[_adr] = true;\n        return true;\n    }\n\n    // takes dias to create guest user profile\n    function createUserAccount(\n        string memory _dias,\n        address _user,\n        string calldata _name\n    ) external returns (bool) {\n        return makeUser(_user, bytes(_dias), 2, _name);\n    }\n\n    // takes address , dias , and role to admin edit and store a user profile in user mapping\n    function adminEditUser(\n        address _adr,\n        string memory _dias,\n        uint256 _r\n    ) external isAdmin returns (bool) {\n        string memory _name = name[_adr];\n        return makeUser(_adr, bytes(_dias), _r, _name);\n    }\n\n    // takes address , dias , and role to edit and store your user profile in user mapping\n    function editUser(string memory _dias) external returns (bool) {\n        string memory _name = name[msg.sender];\n        return makeUser(msg.sender, bytes(_dias), 2, _name);\n    }\n\n    // shows user dias by address input\n    function showUser(address _adr) external view returns (string memory) {\n        return string(users[_adr]);\n    }\n\n    function showImpx(address _adr)\n        external\n        view\n        returns (\n            uint256,\n            uint256,\n            uint256\n        )\n    {\n        return (impx[_adr].action, impx[_adr].connection, impx[_adr].liquidity);\n    }\n\n    // shows role by address input\n    function getRole(address _adr) external view returns (uint256) {\n        return roles[_adr];\n    }\n\n    function getName(address _adr) external view returns (string memory) {\n        return name[_adr];\n    }\n\n    function isU(address _adr) external view returns (bool) {\n        return isUser[_adr];\n    }\n}\n\ncontract Friends is MathFnx {\n    Users private user;\n    // frenz // you# => frenz# => isfriend?\n    mapping(address => mapping(address => bool)) public frenz; // people following you\n    // degenz // you# => degenz# => isfriend?\n    mapping(address => mapping(address => bool)) public degenz; // people you follow\n    // connection bool // smaller# => bigger# => friends$ // friends : $0=unrelated, $1=hype, $2=nest\n    uint256 c;\n    mapping(address => mapping(address => uint256)) public connection;\n    mapping(address => uint256) public frenzCount;\n    mapping(address => uint256) public degenzCount;\n    mapping(address => mapping(uint256 => address)) public frenzByCount;\n    // user degenerated you\n    modifier degenerated(address _adr) {\n        require(degenz[msg.sender][_adr] == true || msg.sender == _adr); // do you follow or is it yourself\n        _;\n    }\n    // user frenzonned you\n    modifier frenzoned(address _adr) {\n        require(frenz[_adr][msg.sender] || msg.sender == _adr); // is he following or is it yourself\n        _;\n    }\n\n    constructor(address _usrAdr) {\n        user = Users(_usrAdr);\n        c = 1;\n    }\n\n    function showMe() external view returns (string memory) {\n        return user.showUser(msg.sender);\n    }\n\n    function showYou(address _adr) external view returns (string memory) {\n        return user.showUser(_adr);\n    }\n\n    function getRole(address _adr) external view returns (uint256) {\n        return user.getRole(_adr);\n    }\n\n    function follow(address _adr, address _sender) external returns (uint256) {\n        degenz[_adr][_sender] = true;\n        degenzCount[_adr]++;\n        frenz[_sender][_adr] = true;\n        frenzByCount[_sender][frenzCount[_sender]] = _adr;\n        frenzCount[_sender]++;\n        (address s, address l) = smaller(_adr, _sender);\n        if (connection[s][l] == 0) {\n            connection[s][l] = c;\n            c++;\n            return (connection[s][l]);\n        } else return (connection[s][l]);\n    }\n\n    function doShowStatus(address _adr, address _sender)\n        external\n        view\n        returns (\n            uint256,\n            bool,\n            bool,\n            address,\n            address\n        )\n    {\n        (address s, address l) = smaller(_adr, _sender);\n        return (\n            connection[s][l],\n            frenz[_sender][_adr],\n            degenz[_sender][_adr],\n            s,\n            l\n        );\n    }\n\n    function doFrenzCount(address _adr) external view returns (uint256) {\n        return frenzCount[_adr];\n    }\n\n    function doDegenzCount(address _adr) external view returns (uint256) {\n        return degenzCount[_adr];\n    }\n\n    function doShowFrenz(address _adr, uint256 _c)\n        external\n        view\n        returns (address)\n    {\n        return frenzByCount[_adr][_c];\n    }\n\n    function isFrenz(address _a, address _b) external view returns (bool) {\n        return frenz[_a][_b];\n    }\n}\n\ncontract Groups is MathFnx {\n    Users private user; // user contract reference\n    Friends private friend; // friend contract reference\n    address public owner; // owner address\n    string public name; // group name\n    uint256 private m; // member count\n    uint256 private state; // 0-private (no invite), 1-bothchecked, 2-ulike, 3-likeu, 4-bothcheckedofulike, 5-public, 9-secret, 99-admin\n    mapping(uint256 => address) public members; // address by id\n    mapping(address => uint256) public mNum; // id by address\n    uint256 private c; // content count\n    mapping(address => uint256) public myContent; // content count by address\n    mapping(address => mapping(uint256 => bytes)) public content; // content by address => myContent counter\n    mapping(uint256 => bytes) public cntnt; // contentt by cid\n    mapping(uint256 => uint256) public r; // replys by cntnt id c\n    mapping(uint256 => mapping(uint256 => bytes)) public replys; // replys by cid => rply id => reply content\n    mapping(address => uint256) public myRplyCount; // reply count  by useraddress\n    mapping(address => mapping(uint256 => bytes)) public myReplys; // reply content by address and myrplycount\n    mapping(address => bool) public invite;\n\n    constructor(\n        address _user,\n        address _friend,\n        bytes memory _name,\n        uint256 _state,\n        address _o\n    ) {\n        state = _state;\n        user = Users(_user);\n        friend = Friends(_friend);\n        owner = _o;\n        name = string(_name);\n    }\n\n    function addUser(address _adr) external returns (address) {\n        if (state == 0)\n            require(m < 2); // private state one allows 2 users only\n            // require(user.isU(msg.sender) == true);\n            // require(user.isU(_adr) == true);\n        else if (state == 1) {\n            require(friend.isFrenz(owner, _adr));\n            require(friend.isFrenz(_adr, owner));\n        } // only degenz&frenz allowed\n        /*\n        else if(state == 2) {\n          require(friend.isFrenz(owner, _adr));  \n        } // only frenz people you like\n        else if(state == 3) {\n          require(friend.isFrenz(_adr, owner));  \n        } // only degenz people who like you\n        else if(state == 4) {\n            require(friend.isFrenz(msg.sender, _adr));\n            require(friend.isFrenz(_adr, msg.sender));\n        } // only degenz&frenz allowed\n\n        else if(state == 9) require(invite[_adr] == true);\n        else if(state == 99) require(friend.getRole(msg.sender) == 99);\n        */\n        members[m] = _adr;\n        mNum[_adr] = m;\n        m++;\n        return _adr;\n    }\n\n    function removeUser(address _adr) external returns (address) {\n        require(state != 0);\n        members[mNum[_adr]] = 0x0000000000000000000000000000000000000000;\n        mNum[_adr] = 0;\n        return _adr;\n    }\n\n    function addContent(string memory _cnt) external returns (string memory) {\n        content[msg.sender][myContent[msg.sender]] = bytes(_cnt);\n        myContent[msg.sender]++;\n        cntnt[c] = bytes(_cnt);\n        c++;\n        return _cnt;\n    }\n\n    function addReplyToContent(string memory _rply, uint256 _c)\n        external\n        returns (uint256)\n    {\n        replys[_c][r[_c]] = bytes(_rply);\n        myReplys[msg.sender][myRplyCount[msg.sender]] = bytes(_rply);\n        myRplyCount[msg.sender]++;\n        return r[_c]++;\n    }\n}\n\ncontract s0xFactory is Users, MathFnx {\n    Friends public friends;\n    Groups public groups;\n    MLQ public mlq;\n    address private fAdr;\n    mapping(address => uint256) public groupCount;\n    mapping(address => mapping(uint256 => address)) public groupByCount;\n\n    constructor(address _mlq) Users() MathFnx() {\n        mlq = MLQ(payable(_mlq));\n        friends = new Friends(address(this));\n        fAdr = address(friends);\n    }\n\n    function createGroup(string memory _name, uint256 _state)\n        external\n        returns (address)\n    {\n        groups = new Groups(\n            address(this),\n            fAdr,\n            bytes(_name),\n            _state,\n            msg.sender\n        );\n        groupByCount[msg.sender][groupCount[msg.sender]] = address(groups);\n        groupCount[msg.sender]++;\n        return address(groups);\n    }\n\n    function createConvo(\n        address _to,\n        address _from,\n        string memory _msg\n    ) external returns (address) {\n        (address s, address l) = smaller(_to, _from);\n        return makeConvo(s, l, _msg, _from);\n    }\n\n    function makeConvo(\n        address _s,\n        address _l,\n        string memory _name,\n        address _from\n    ) internal returns (address) {\n        groups = new Groups(address(this), fAdr, bytes(_name), 0, _from);\n        groupByCount[_s][groupCount[_s]] = address(groups);\n        groupByCount[_l][groupCount[_l]] = address(groups);\n        groupCount[_s]++;\n        groupCount[_l]++;\n        groups.addUser(_s);\n        groups.addUser(_l);\n        return address(groups);\n    }\n\n    function followAdr(address _adr) external returns (uint256) {\n        return friends.follow(_adr, msg.sender);\n    }\n\n    function showFrenz(address _adr, uint256 _c)\n        external\n        view\n        returns (address)\n    {\n        return friends.doShowFrenz(_adr, _c);\n    }\n\n    function countFrenz(address _adr) external view returns (uint256) {\n        return friends.doFrenzCount(_adr);\n    }\n\n    function countDegenz(address _adr) external view returns (uint256) {\n        return friends.doDegenzCount(_adr);\n    }\n\n    function showStatus(address _adr)\n        external\n        view\n        returns (\n            uint256,\n            bool,\n            bool,\n            address,\n            address\n        )\n    {\n        return friends.doShowStatus(_adr, msg.sender);\n    }\n}\n\ncontract USDC is ERC20 {\n    constructor() ERC20(\"US Dollar Coin\", \"USDC\") {}\n\n    function dropUSDC() external {\n        _mint(msg.sender, 100 * 10**18);\n    }\n}\n\n// 0 Fuji // 1 Avax // 2 Fantom Test // 4 Fantom Main // 5 Polygon Mumbai // 6 Polygon Main\ncontract MLQ is ERC20, MathFnx, exitSafes {\n    using MLQlib for *;\n    address private admin;\n    int256 public rate;\n    uint256 public PUB_SUPPLY;\n    uint256 MLQ_RATE;\n    uint256 mainRate;\n    PriceConsumerV3 public ethUsdPrice;\n    mapping(address => uint256) public mlqBalance;\n    USDC usdc;\n\n    constructor(\n        address _usdc,\n        address _pc,\n        uint256 _net\n    ) ERC20(\"Milquidity Token\", \"MLQ\") exitSafes(_net) {\n        admin = msg.sender;\n        usdc = USDC(_usdc);\n        setSupply(MLQlib.PUB_SUPPLY);\n        ethUsdPrice = PriceConsumerV3(_pc);\n    }\n\n    function setMLQRate() internal returns (int256) {\n        int256 price = ethUsdPrice.EthUsdPrice();\n        uint256 newRate = divide(uint256(price), 100);\n        rate = int256(newRate);\n        return rate;\n    }\n\n    function setMainRate() internal returns (int256) {\n        int256 price = ethUsdPrice.MainUsdPrice();\n        uint256 newRate = divide(uint256(price), 100);\n        rate = int256(newRate);\n        return rate;\n    }\n\n    function setSupply(uint256 _newSupply) internal returns (uint256) {\n        PUB_SUPPLY = _newSupply;\n        return PUB_SUPPLY;\n    }\n\n    function buyMlqMain() external payable returns (uint256) {\n        setMLQRate();\n        setMainRate();\n        uint256 swapRate = divide(mainRate, MLQ_RATE);\n        uint256 amnt = msg.value * swapRate;\n        require(amnt > address(this).balance, \"insufficient balance\");\n        // find maincurr price for mlq\n        require(PUB_SUPPLY >= amnt);\n        _mint(msg.sender, amnt);\n        mlqBalance[msg.sender] += amnt;\n        PUB_SUPPLY -= amnt;\n        return amnt;\n    }\n\n    function buyMlqUSDC(uint256 _amnt) external payable returns (uint256) {\n        setMLQRate();\n        uint256 amnt = _amnt * uint256(rate) * 10**10;\n        require(PUB_SUPPLY >= amnt);\n        usdc.transferFrom(msg.sender, address(this), amnt);\n        _mint(msg.sender, _amnt * 10**18);\n        mlqBalance[msg.sender] = _amnt * 10**18;\n        PUB_SUPPLY -= amnt;\n        return amnt;\n    }\n\n    function mlqBal(address _adr) external view returns (uint256) {\n        return mlqBalance[_adr];\n    }\n\n    function withdraw(uint256 _amnt) external returns (uint256) {\n        uint256 amnt = MLQlib.MLQ_DIG * _amnt;\n        require(admin == msg.sender);\n        require(mlqBalance[address(this)] >= amnt);\n        transferFrom(address(this), admin, amnt);\n        return amnt;\n    }\n\n    function flush() external returns (uint256) {\n        require(admin == msg.sender);\n        transferFrom(address(this), admin, mlqBalance[address(this)]);\n        payable(admin).transfer(address(this).balance);\n        usdc.transferFrom(address(this), admin, usdc.balanceOf(address(this)));\n        return address(this).balance;\n    }\n\n    receive() external payable {\n        uint256 val = divide(msg.value, 1000);\n        payable(iii6).transfer(val * 10);\n        payable(dias).transfer(val * 10);\n        payable(dojo).transfer(val * 10);\n        payable(s0x).transfer(val * 10);\n        payable(codebender).transfer(val * 900);\n    }\n}\n\ncontract nftProject is ERC721 {\n    address public owner;\n    uint256 public minted;\n    uint256 public max;\n    string public nam;\n    string public sym;\n    VRFv2Consumer public vrf;\n    ERC20 public usdc;\n    MLQ public mlq;\n    // token id # => dias obj %\n    mapping(uint256 => bytes) public dias;\n    // user address @ => nft count #\n    mapping(address => uint256) public nftCount;\n    // user address @ => nft count # => nft id #\n    mapping(address => mapping(uint256 => uint256)) public ntfIdByCount;\n\n    constructor(\n        address _owner,\n        string memory _name,\n        string memory _sym,\n        address _usdc,\n        address _vrf,\n        address _mlq\n    ) ERC721(_name, _sym) {\n        owner = _owner;\n        max = 1000;\n        nam = _name;\n        sym = _sym;\n        vrf = VRFv2Consumer(_vrf);\n        usdc = ERC20(_usdc);\n        mlq = MLQ(payable(_mlq));\n    }\n\n    function isOwner(address _adr) external view returns (bool) {\n        if (_adr == owner) return true;\n        else return false;\n    }\n\n    function getName() external view returns (string memory) {\n        return nam;\n    }\n\n    function getSym() external view returns (string memory) {\n        return sym;\n    }\n\n    function mint(uint256 _amnt) external returns (uint256) {\n        require(minted < max);\n        doMint(_amnt);\n        return minted;\n    }\n\n    function getVrfId() internal returns (uint256[] memory) {\n        uint256 rid = vrf.requestRandomWords();\n        return vrf.randy(rid);\n    }\n\n    function grabIds(uint256 count) external view returns (uint256 ids) {\n        return ids = ntfIdByCount[msg.sender][count];\n    }\n\n    function doMint(uint256 _amnt) internal returns (uint256) {\n        _mint(msg.sender, minted);\n        minted++;\n        if (_amnt >= 2) {\n            _mint(msg.sender, minted);\n            minted++;\n\n            if (_amnt >= 3) {\n                _mint(msg.sender, minted);\n                minted++;\n\n                if (_amnt >= 4) {\n                    _mint(msg.sender, minted);\n                    minted++;\n\n                    if (_amnt >= 5) {\n                        _mint(msg.sender, minted);\n                        minted++;\n\n                        if (_amnt >= 6) {\n                            _mint(msg.sender, minted);\n                            minted++;\n\n                            if (_amnt >= 7) {\n                                _mint(msg.sender, minted);\n                                minted++;\n                            }\n                        }\n                    }\n                }\n            }\n        }\n        return minted;\n    }\n\n    function holder(uint256 _id) external view returns (address) {\n        return ownerOf(_id);\n    }\n}\n\ncontract RiteWhabbits is nftProject {\n    constructor(\n        address _owner,\n        string memory _name,\n        string memory _sym,\n        address _usdc,\n        address _vrf,\n        address _mlq\n    ) nftProject(_owner, _name, _sym, _usdc, _vrf, _mlq) {}\n\n    mapping(uint256 => bytes) private _tokenStatus;\n    mapping(uint256 => uint256) private _tokenVRF;\n    mapping(uint256 => bytes) private _tokenTraitScramble;\n    struct Traits {\n        uint256 bg0; // far landscape\n        uint256 bg1; // mid\n        uint256 bg2; // near\n        uint256 bodybg0; // min body shape\n        uint256 bodybg1; // female shape < .5\n        uint256 bodybg2; // male shape >= .5\n        uint256 hair;\n        uint256 hat;\n        uint256 eyes;\n        uint256 eyebrows;\n        uint256 glasses;\n        uint256 nose;\n        uint256 mouth;\n        uint256 beard;\n    }\n}\n\ncontract COIN is ERC20, MathFnx {\n    using MLQlib for *;\n    address private admin;\n    uint256 public rate;\n    uint256 public PUB_SUPPLY;\n    uint256 public MAX_SUPPLY;\n    string public title;\n    mapping(address => uint256) public coinBalance;\n\n    constructor(\n        string memory _name,\n        string memory _sym,\n        uint256 _rate,\n        uint256 _supply,\n        address _admin\n    ) ERC20(_name, _sym) {\n        admin = _admin;\n        setRate(_rate);\n        MAX_SUPPLY = _supply;\n        title = _name;\n    }\n\n    function setRate(uint256 _newRate) internal returns (uint256) {\n        rate = _newRate;\n        return rate;\n    }\n\n    function getRate() external view returns (uint256) {\n        return rate;\n    }\n\n    function getMax() external view returns (uint256) {\n        return MAX_SUPPLY;\n    }\n\n    function getName() external view returns (string memory) {\n        return title;\n    }\n\n    function getMinted() external view returns (uint256) {\n        return PUB_SUPPLY;\n    }\n\n    function buyMlq(uint256 _amnt) external payable returns (uint256) {\n        uint256 amnt = MLQlib.MLQ_DIG * _amnt;\n        require(PUB_SUPPLY >= amnt);\n        require(divide(msg.value, 100) >= amnt);\n        _mint(msg.sender, amnt);\n        coinBalance[msg.sender] = amnt;\n        PUB_SUPPLY += amnt;\n        return amnt;\n    }\n\n    function coinBal(address _adr) external view returns (uint256) {\n        return coinBalance[_adr];\n    }\n\n    function withdraw(uint256 _amnt) external returns (uint256) {\n        uint256 amnt = MLQlib.MLQ_DIG * _amnt;\n        require(admin == msg.sender);\n        require(coinBalance[address(this)] >= amnt);\n        transferFrom(address(this), admin, amnt);\n        return amnt;\n    }\n\n    function flush() external returns (uint256) {\n        require(admin == msg.sender);\n        transferFrom(address(this), admin, coinBalance[address(this)]);\n        payable(admin).transfer(address(this).balance);\n        return address(this).balance;\n    }\n}\n\ncontract s0xPool is MathFnx {\n    COIN public coin;\n    COIN public main;\n    COIN public sec;\n    COIN public pool;\n    uint256 p;\n    struct Pool {\n        uint256 id;\n        address pool;\n        address main;\n        uint256 ethByMain;\n        uint256 mainMax;\n        address sec;\n        uint256 ethBySec;\n        uint256 secMax;\n        uint256 distrib;\n        uint256 xRate;\n    }\n    uint256 t;\n    struct Token {\n        uint256 id;\n        string name;\n        address adr;\n        uint256 MAX_SUPPLY;\n        uint256 mintedSupply;\n        uint256 priceInEth;\n    }\n    uint256 s;\n    struct Safe {\n        uint256 id;\n        address user;\n        address token;\n        uint256 safeBalance;\n    }\n    mapping(uint256 => Pool) public poolz;\n    mapping(uint256 => Token) public tokenz;\n    mapping(uint256 => Safe) public safez;\n\n    function addToken(address _token) external returns (address) {\n        coin = COIN(_token);\n        tokenz[t] = Token(\n            t,\n            coin.getName(),\n            address(coin),\n            coin.getMax(),\n            coin.getMinted(),\n            coin.getRate()\n        );\n        t++;\n        return address(coin);\n    }\n\n    function createToken(\n        string memory _name,\n        string memory _sym,\n        uint256 _rate,\n        uint256 _max\n    ) external returns (address) {\n        coin = new COIN(_name, _sym, _rate, _max, msg.sender);\n        tokenz[t] = Token(t, _name, address(coin), _max, 0, _rate);\n        t++;\n        return address(coin);\n    }\n\n    function createPool(\n        address _main,\n        address _sec,\n        string memory _name,\n        string memory _psym\n    ) external returns (address) {\n        // get token contracts\n        main = COIN(_main);\n        sec = COIN(_sec);\n        // detect currency eth value per token\n        uint256 mEthPrice = divide(10**18, main.getRate()); // example // 10^18 / 100 = 10^16\n        uint256 sEthPrice = divide(10**18, sec.getRate()); // example // 10^18 / 100000 = 10^13\n        // detect dif ratio\n        uint256 dRate; // difference ratio\n        if (sEthPrice < mEthPrice)\n            dRate = divide(mEthPrice, sEthPrice); // example // 10^16 / 10^13 = 1000\n        else dRate = divide(sEthPrice, mEthPrice); // example // null\n        uint256 xRate;\n        xRate =\n            ((mEthPrice * main.getMax()) + (sEthPrice * sec.getMax())) /\n            100;\n        pool = new COIN(_name, _psym, xRate, 100 * 10**18, msg.sender); // example // 100 * 10^18\n        poolz[p] = Pool(\n            p,\n            address(pool),\n            _main,\n            mEthPrice,\n            divide(main.getMax(), 3),\n            _sec,\n            sEthPrice,\n            divide(sec.getMax(), 3),\n            0,\n            xRate\n        );\n\n        p++;\n        /*\n\n        // 0xbd5b354220B250DF257ed5e988Fe8FE81CdB6235 MLQ\n        // 0x7e54D10fda1dBAf0aA2eB842942B3B924fcfd947 LYX\n\n        mlq 10000000000000000eth * 1000000mlq\n        lyx 10000000000000eth * 1000000000lyx\n        shk 600000000000000000000eth * 100shk\n\n        */\n        return address(coin);\n    }\n\n    function addMilquidity(uint256 _p, uint256 _mIn)\n        external\n        returns (\n            uint256,\n            uint256,\n            uint256\n        )\n    {\n        main = COIN(poolz[_p].main);\n        sec = COIN(poolz[_p].sec);\n        coin = COIN(poolz[_p].pool);\n        // uint256 weth = 10**18;\n        return (_mIn, 0, 0);\n    }\n}\n\ncontract affily8 {\n    address[] client;\n    uint256 cc;\n    address[] public publisher;\n    uint256 pubc;\n    address[] public advertiser;\n    uint256 adc;\n    address owner;\n    mapping(address => uint256) occ;\n    mapping(address => mapping(uint256 => uint256)) myCampaigns;\n\n    struct Campaign {\n        uint256 id;\n        address publisher;\n        uint256 slots;\n        uint256 cType; // 0-view, 1-click, 2-sale\n        uint256 slotValue;\n        uint256 used;\n    }\n    Campaign[] public campaigns;\n    modifier onlyO() {\n        require(msg.sender == owner);\n        _;\n    }\n\n    constructor() {\n        owner = msg.sender;\n    }\n\n    function createCampaign(\n        uint256 _slots,\n        uint256 _ctype,\n        uint256 _slotV,\n        uint256 _used\n    ) external returns (bool) {\n        campaigns.push(Campaign(cc, msg.sender, _slots, _ctype, _slotV, _used));\n        myCampaigns[msg.sender][occ[msg.sender]] = cc;\n        occ[msg.sender]++;\n        cc++;\n        return true;\n    }\n\n    function campaignSignUp(uint256 _cc, string memory decsription)\n        external\n        returns (bool)\n    {}\n\n    function approveCampaignAdvertiser(uint256 _cc, address _adv)\n        external\n        returns (bool)\n    {}\n\n    function campaignRefCode(uint256 _cc) external returns (string memory) {}\n}\n\n// MAINNET CHECKLIST\n\n// new safe & clean deploy address \n// 2x multisig exit safe address output wallets \n// token names and symbols \n// migration on the right network \n// funded vrf link subs on 0xe55E1a1C7C8A82648aEdBb2853a01306CE97Df87 \n\n/////////////////////////////////////////////////////////////////////////////////////////////////////////////////////\n",
  "sourcePath": "/Users/iii6/Documents/GitHub/III6Dojo/contracts/s0x.sol",
  "compiler": {
    "name": "solc",
    "version": "0.8.17+commit.8df45f5f.Emscripten.clang"
  },
  "schemaVersion": "3.4.8",
  "updatedAt": "2022-10-27T17:45:05.260Z",
  "devdoc": {
    "kind": "dev",
    "methods": {
      "approve(address,uint256)": {
        "details": "See {IERC721-approve}."
      },
      "balanceOf(address)": {
        "details": "See {IERC721-balanceOf}."
      },
      "getApproved(uint256)": {
        "details": "See {IERC721-getApproved}."
      },
      "isApprovedForAll(address,address)": {
        "details": "See {IERC721-isApprovedForAll}."
      },
      "name()": {
        "details": "See {IERC721Metadata-name}."
      },
      "ownerOf(uint256)": {
        "details": "See {IERC721-ownerOf}."
      },
      "safeTransferFrom(address,address,uint256)": {
        "details": "See {IERC721-safeTransferFrom}."
      },
      "safeTransferFrom(address,address,uint256,bytes)": {
        "details": "See {IERC721-safeTransferFrom}."
      },
      "setApprovalForAll(address,bool)": {
        "details": "See {IERC721-setApprovalForAll}."
      },
      "supportsInterface(bytes4)": {
        "details": "See {IERC165-supportsInterface}."
      },
      "symbol()": {
        "details": "See {IERC721Metadata-symbol}."
      },
      "tokenURI(uint256)": {
        "details": "See {IERC721Metadata-tokenURI}."
      },
      "transferFrom(address,address,uint256)": {
        "details": "See {IERC721-transferFrom}."
      }
    },
    "version": 1
  },
  "userdoc": {
    "kind": "user",
    "methods": {},
    "version": 1
  }
}