{
  "contractName": "s0xFriends",
  "abi": [
    {
      "inputs": [
        {
          "internalType": "address",
          "name": "_usrAdr",
          "type": "address"
        }
      ],
      "stateMutability": "nonpayable",
      "type": "constructor"
    },
    {
      "inputs": [
        {
          "internalType": "address",
          "name": "",
          "type": "address"
        }
      ],
      "name": "banned",
      "outputs": [
        {
          "internalType": "bool",
          "name": "",
          "type": "bool"
        }
      ],
      "stateMutability": "view",
      "type": "function"
    },
    {
      "inputs": [
        {
          "internalType": "address",
          "name": "",
          "type": "address"
        },
        {
          "internalType": "address",
          "name": "",
          "type": "address"
        }
      ],
      "name": "connection",
      "outputs": [
        {
          "internalType": "uint256",
          "name": "",
          "type": "uint256"
        }
      ],
      "stateMutability": "view",
      "type": "function"
    },
    {
      "inputs": [
        {
          "internalType": "address",
          "name": "",
          "type": "address"
        }
      ],
      "name": "followerCount",
      "outputs": [
        {
          "internalType": "uint256",
          "name": "",
          "type": "uint256"
        }
      ],
      "stateMutability": "view",
      "type": "function"
    },
    {
      "inputs": [
        {
          "internalType": "address",
          "name": "",
          "type": "address"
        },
        {
          "internalType": "uint256",
          "name": "",
          "type": "uint256"
        }
      ],
      "name": "followersByCount",
      "outputs": [
        {
          "internalType": "address",
          "name": "",
          "type": "address"
        }
      ],
      "stateMutability": "view",
      "type": "function"
    },
    {
      "inputs": [
        {
          "internalType": "address",
          "name": "",
          "type": "address"
        }
      ],
      "name": "myFollowingCount",
      "outputs": [
        {
          "internalType": "uint256",
          "name": "",
          "type": "uint256"
        }
      ],
      "stateMutability": "view",
      "type": "function"
    },
    {
      "inputs": [],
      "name": "showMe",
      "outputs": [
        {
          "internalType": "string",
          "name": "",
          "type": "string"
        }
      ],
      "stateMutability": "view",
      "type": "function"
    },
    {
      "inputs": [
        {
          "internalType": "address",
          "name": "_adr",
          "type": "address"
        }
      ],
      "name": "showYou",
      "outputs": [
        {
          "internalType": "string",
          "name": "",
          "type": "string"
        }
      ],
      "stateMutability": "view",
      "type": "function"
    },
    {
      "inputs": [
        {
          "internalType": "address",
          "name": "_sender",
          "type": "address"
        },
        {
          "internalType": "address",
          "name": "_adr",
          "type": "address"
        }
      ],
      "name": "getMsgAllow",
      "outputs": [
        {
          "internalType": "bool",
          "name": "",
          "type": "bool"
        }
      ],
      "stateMutability": "view",
      "type": "function"
    },
    {
      "inputs": [
        {
          "internalType": "address",
          "name": "_adr",
          "type": "address"
        },
        {
          "internalType": "address",
          "name": "_sender",
          "type": "address"
        },
        {
          "internalType": "uint256",
          "name": "_rel",
          "type": "uint256"
        }
      ],
      "name": "relate",
      "outputs": [
        {
          "internalType": "uint256",
          "name": "",
          "type": "uint256"
        }
      ],
      "stateMutability": "nonpayable",
      "type": "function"
    },
    {
      "inputs": [
        {
          "internalType": "address",
          "name": "_adr",
          "type": "address"
        }
      ],
      "name": "doFollowerCount",
      "outputs": [
        {
          "internalType": "uint256",
          "name": "",
          "type": "uint256"
        }
      ],
      "stateMutability": "view",
      "type": "function"
    },
    {
      "inputs": [
        {
          "internalType": "address",
          "name": "_adr",
          "type": "address"
        }
      ],
      "name": "doFollowingCount",
      "outputs": [
        {
          "internalType": "uint256",
          "name": "",
          "type": "uint256"
        }
      ],
      "stateMutability": "view",
      "type": "function"
    },
    {
      "inputs": [
        {
          "internalType": "address",
          "name": "_adr",
          "type": "address"
        },
        {
          "internalType": "uint256",
          "name": "_c",
          "type": "uint256"
        }
      ],
      "name": "doShowFollower",
      "outputs": [
        {
          "internalType": "address",
          "name": "",
          "type": "address"
        }
      ],
      "stateMutability": "view",
      "type": "function"
    },
    {
      "inputs": [
        {
          "internalType": "address",
          "name": "_adr",
          "type": "address"
        }
      ],
      "name": "showRelation",
      "outputs": [
        {
          "components": [
            {
              "internalType": "uint256",
              "name": "id",
              "type": "uint256"
            },
            {
              "internalType": "bool",
              "name": "AfollowsB",
              "type": "bool"
            },
            {
              "internalType": "bool",
              "name": "BfollowsA",
              "type": "bool"
            },
            {
              "internalType": "bool",
              "name": "AbansB",
              "type": "bool"
            },
            {
              "internalType": "bool",
              "name": "BbansA",
              "type": "bool"
            },
            {
              "internalType": "bool",
              "name": "AallowsBmsg",
              "type": "bool"
            },
            {
              "internalType": "bool",
              "name": "BallowsAmsg",
              "type": "bool"
            },
            {
              "internalType": "enum iii6Relations.Relation",
              "name": "AprivB",
              "type": "uint8"
            },
            {
              "internalType": "enum iii6Relations.Relation",
              "name": "BprivA",
              "type": "uint8"
            }
          ],
          "internalType": "struct iii6Relations.Relations",
          "name": "rel",
          "type": "tuple"
        }
      ],
      "stateMutability": "view",
      "type": "function"
    },
    {
      "inputs": [
        {
          "internalType": "address",
          "name": "_adr",
          "type": "address"
        },
        {
          "internalType": "bool",
          "name": "_fol",
          "type": "bool"
        },
        {
          "internalType": "bool",
          "name": "_msg",
          "type": "bool"
        },
        {
          "internalType": "bool",
          "name": "_ban",
          "type": "bool"
        },
        {
          "internalType": "uint256",
          "name": "_rel",
          "type": "uint256"
        }
      ],
      "name": "editRelation",
      "outputs": [
        {
          "components": [
            {
              "internalType": "uint256",
              "name": "id",
              "type": "uint256"
            },
            {
              "internalType": "bool",
              "name": "AfollowsB",
              "type": "bool"
            },
            {
              "internalType": "bool",
              "name": "BfollowsA",
              "type": "bool"
            },
            {
              "internalType": "bool",
              "name": "AbansB",
              "type": "bool"
            },
            {
              "internalType": "bool",
              "name": "BbansA",
              "type": "bool"
            },
            {
              "internalType": "bool",
              "name": "AallowsBmsg",
              "type": "bool"
            },
            {
              "internalType": "bool",
              "name": "BallowsAmsg",
              "type": "bool"
            },
            {
              "internalType": "enum iii6Relations.Relation",
              "name": "AprivB",
              "type": "uint8"
            },
            {
              "internalType": "enum iii6Relations.Relation",
              "name": "BprivA",
              "type": "uint8"
            }
          ],
          "internalType": "struct iii6Relations.Relations",
          "name": "",
          "type": "tuple"
        }
      ],
      "stateMutability": "nonpayable",
      "type": "function"
    },
    {
      "inputs": [
        {
          "internalType": "address",
          "name": "_adr",
          "type": "address"
        }
      ],
      "name": "blockAddress",
      "outputs": [
        {
          "components": [
            {
              "internalType": "uint256",
              "name": "id",
              "type": "uint256"
            },
            {
              "internalType": "bool",
              "name": "AfollowsB",
              "type": "bool"
            },
            {
              "internalType": "bool",
              "name": "BfollowsA",
              "type": "bool"
            },
            {
              "internalType": "bool",
              "name": "AbansB",
              "type": "bool"
            },
            {
              "internalType": "bool",
              "name": "BbansA",
              "type": "bool"
            },
            {
              "internalType": "bool",
              "name": "AallowsBmsg",
              "type": "bool"
            },
            {
              "internalType": "bool",
              "name": "BallowsAmsg",
              "type": "bool"
            },
            {
              "internalType": "enum iii6Relations.Relation",
              "name": "AprivB",
              "type": "uint8"
            },
            {
              "internalType": "enum iii6Relations.Relation",
              "name": "BprivA",
              "type": "uint8"
            }
          ],
          "internalType": "struct iii6Relations.Relations",
          "name": "",
          "type": "tuple"
        }
      ],
      "stateMutability": "nonpayable",
      "type": "function"
    }
  ],
  "bytecode": "0x60806040523480156200001157600080fd5b5060405162002ced38038062002ced8339818101604052810190620000379190620000e8565b806000806101000a81548173ffffffffffffffffffffffffffffffffffffffff021916908373ffffffffffffffffffffffffffffffffffffffff160217905550506200011a565b600080fd5b600073ffffffffffffffffffffffffffffffffffffffff82169050919050565b6000620000b08262000083565b9050919050565b620000c281620000a3565b8114620000ce57600080fd5b50565b600081519050620000e281620000b7565b92915050565b6000602082840312156200010157620001006200007e565b5b60006200011184828501620000d1565b91505092915050565b612bc3806200012a6000396000f3fe608060405234801561001057600080fd5b50600436106100f55760003560e01c80639c8d83bb11610097578063bd49739711610066578063bd497397146102f8578063d77d72ca14610328578063e27b3ca814610358578063e340938214610388576100f5565b80639c8d83bb1461024a578063a34cc9361461027a578063ab2d8b4f14610298578063ad2bb1b3146102c8576100f5565b80634e8810f7116100d35780634e8810f71461018a578063614df572146101ba5780638d4b42ff146101ea57806393bb5cab1461021a576100f5565b80631059c192146100fa5780631629ea531461012a57806330b3a8901461015a575b600080fd5b610114600480360381019061010f919061251a565b6103b8565b6040516101219190612569565b60405180910390f35b610144600480360381019061013f9190612584565b6103fa565b60405161015191906125c0565b60405180910390f35b610174600480360381019061016f9190612584565b610443565b60405161018191906125c0565b60405180910390f35b6101a4600480360381019061019f919061251a565b61045b565b6040516101b19190612569565b60405180910390f35b6101d460048036038101906101cf91906125db565b6104d6565b6040516101e19190612636565b60405180910390f35b61020460048036038101906101ff919061267d565b61056d565b6040516102119190612844565b60405180910390f35b610234600480360381019061022f9190612860565b61058d565b60405161024191906125c0565b60405180910390f35b610264600480360381019061025f9190612584565b611798565b6040516102719190612636565b60405180910390f35b6102826117b8565b60405161028f9190612943565b60405180910390f35b6102b260048036038101906102ad9190612584565b61185e565b6040516102bf91906125c0565b60405180910390f35b6102e260048036038101906102dd9190612584565b611876565b6040516102ef9190612844565b60405180910390f35b610312600480360381019061030d9190612584565b611895565b60405161031f9190612943565b60405180910390f35b610342600480360381019061033d91906125db565b61193d565b60405161034f91906125c0565b60405180910390f35b610372600480360381019061036d9190612584565b611962565b60405161037f9190612844565b60405180910390f35b6103a2600480360381019061039d9190612584565b611b1b565b6040516103af91906125c0565b60405180910390f35b60086020528160005260406000206020528060005260406000206000915091509054906101000a900473ffffffffffffffffffffffffffffffffffffffff1681565b6000600760008373ffffffffffffffffffffffffffffffffffffffff1673ffffffffffffffffffffffffffffffffffffffff168152602001908152602001600020549050919050565b60066020528060005260406000206000915090505481565b6000600860008473ffffffffffffffffffffffffffffffffffffffff1673ffffffffffffffffffffffffffffffffffffffff168152602001908152602001600020600083815260200190815260200160002060009054906101000a900473ffffffffffffffffffffffffffffffffffffffff16905092915050565b6000600160008473ffffffffffffffffffffffffffffffffffffffff1673ffffffffffffffffffffffffffffffffffffffff16815260200190815260200160002060008373ffffffffffffffffffffffffffffffffffffffff1673ffffffffffffffffffffffffffffffffffffffff16815260200190815260200160002060010160059054906101000a900460ff16905092915050565b6105756123f6565b6105828686868686611b64565b905095945050505050565b6000806105998361234d565b9050600760008673ffffffffffffffffffffffffffffffffffffffff1673ffffffffffffffffffffffffffffffffffffffff168152602001908152602001600020600081546105e790612994565b9190508190555084600860008673ffffffffffffffffffffffffffffffffffffffff1673ffffffffffffffffffffffffffffffffffffffff1681526020019081526020016000206000600660008873ffffffffffffffffffffffffffffffffffffffff1673ffffffffffffffffffffffffffffffffffffffff16815260200190815260200160002054815260200190815260200160002060006101000a81548173ffffffffffffffffffffffffffffffffffffffff021916908373ffffffffffffffffffffffffffffffffffffffff160217905550600660008573ffffffffffffffffffffffffffffffffffffffff1673ffffffffffffffffffffffffffffffffffffffff1681526020019081526020016000206000815461070890612994565b9190508190555060008061071c87876123a1565b915091506000600560008473ffffffffffffffffffffffffffffffffffffffff1673ffffffffffffffffffffffffffffffffffffffff16815260200190815260200160002060008373ffffffffffffffffffffffffffffffffffffffff1673ffffffffffffffffffffffffffffffffffffffff1681526020019081526020016000205403610dd3576003600081546107b390612994565b91905081905550600354600560008473ffffffffffffffffffffffffffffffffffffffff1673ffffffffffffffffffffffffffffffffffffffff16815260200190815260200160002060008373ffffffffffffffffffffffffffffffffffffffff1673ffffffffffffffffffffffffffffffffffffffff16815260200190815260200160002081905550604051806101200160405280600454815260200160011515815260200160001515815260200160001515815260200160001515815260200160011515815260200160001515815260200184600881111561089a57610899612716565b5b8152602001600060088111156108b3576108b2612716565b5b815250600160008873ffffffffffffffffffffffffffffffffffffffff1673ffffffffffffffffffffffffffffffffffffffff16815260200190815260200160002060008973ffffffffffffffffffffffffffffffffffffffff1673ffffffffffffffffffffffffffffffffffffffff1681526020019081526020016000206000820151816000015560208201518160010160006101000a81548160ff02191690831515021790555060408201518160010160016101000a81548160ff02191690831515021790555060608201518160010160026101000a81548160ff02191690831515021790555060808201518160010160036101000a81548160ff02191690831515021790555060a08201518160010160046101000a81548160ff02191690831515021790555060c08201518160010160056101000a81548160ff02191690831515021790555060e08201518160010160066101000a81548160ff02191690836008811115610a2757610a26612716565b5b02179055506101008201518160010160076101000a81548160ff02191690836008811115610a5857610a57612716565b5b0217905550905050600460008154610a6f90612994565b9190508190555060008054906101000a900473ffffffffffffffffffffffffffffffffffffffff1673ffffffffffffffffffffffffffffffffffffffff1663d328e840876040518263ffffffff1660e01b8152600401610acf9190612569565b6020604051808303816000875af1158015610aee573d6000803e3d6000fd5b505050506040513d601f19601f82011682018060405250810190610b1291906129f1565b50604051806101200160405280600454815260200160001515815260200160011515815260200160001515815260200160001515815260200160001515815260200160011515815260200160006008811115610b7157610b70612716565b5b8152602001846008811115610b8957610b88612716565b5b815250600160008973ffffffffffffffffffffffffffffffffffffffff1673ffffffffffffffffffffffffffffffffffffffff16815260200190815260200160002060008873ffffffffffffffffffffffffffffffffffffffff1673ffffffffffffffffffffffffffffffffffffffff1681526020019081526020016000206000820151816000015560208201518160010160006101000a81548160ff02191690831515021790555060408201518160010160016101000a81548160ff02191690831515021790555060608201518160010160026101000a81548160ff02191690831515021790555060808201518160010160036101000a81548160ff02191690831515021790555060a08201518160010160046101000a81548160ff02191690831515021790555060c08201518160010160056101000a81548160ff02191690831515021790555060e08201518160010160066101000a81548160ff02191690836008811115610cfd57610cfc612716565b5b02179055506101008201518160010160076101000a81548160ff02191690836008811115610d2e57610d2d612716565b5b0217905550905050600460008154610d4590612994565b91905081905550600560008373ffffffffffffffffffffffffffffffffffffffff1673ffffffffffffffffffffffffffffffffffffffff16815260200190815260200160002060008273ffffffffffffffffffffffffffffffffffffffff1673ffffffffffffffffffffffffffffffffffffffff168152602001908152602001600020549350505050611791565b6001600560008473ffffffffffffffffffffffffffffffffffffffff1673ffffffffffffffffffffffffffffffffffffffff16815260200190815260200160002060008373ffffffffffffffffffffffffffffffffffffffff1673ffffffffffffffffffffffffffffffffffffffff168152602001908152602001600020540361170e57600360008154610e6690612994565b9190508190555060006008811115610e8157610e80612716565b5b600160008873ffffffffffffffffffffffffffffffffffffffff1673ffffffffffffffffffffffffffffffffffffffff16815260200190815260200160002060008973ffffffffffffffffffffffffffffffffffffffff1673ffffffffffffffffffffffffffffffffffffffff16815260200190815260200160002060010160069054906101000a900460ff166008811115610f2057610f1f612716565b5b0361168757600354600560008473ffffffffffffffffffffffffffffffffffffffff1673ffffffffffffffffffffffffffffffffffffffff16815260200190815260200160002060008373ffffffffffffffffffffffffffffffffffffffff1673ffffffffffffffffffffffffffffffffffffffff16815260200190815260200160002081905550610fb06123f6565b600160008873ffffffffffffffffffffffffffffffffffffffff1673ffffffffffffffffffffffffffffffffffffffff16815260200190815260200160002060008973ffffffffffffffffffffffffffffffffffffffff1673ffffffffffffffffffffffffffffffffffffffff16815260200190815260200160002060405180610120016040529081600082015481526020016001820160009054906101000a900460ff161515151581526020016001820160019054906101000a900460ff161515151581526020016001820160029054906101000a900460ff161515151581526020016001820160039054906101000a900460ff161515151581526020016001820160049054906101000a900460ff161515151581526020016001820160059054906101000a900460ff161515151581526020016001820160069054906101000a900460ff16600881111561110957611108612716565b5b600881111561111b5761111a612716565b5b81526020016001820160079054906101000a900460ff16600881111561114457611143612716565b5b600881111561115657611155612716565b5b81525050905060405180610120016040528060045481526020016001151581526020018260400151151581526020016000151581526020018260800151151581526020016001151581526020018260c00151151581526020018560088111156111c2576111c1612716565b5b815260200182610100015160088111156111df576111de612716565b5b815250600160008973ffffffffffffffffffffffffffffffffffffffff1673ffffffffffffffffffffffffffffffffffffffff16815260200190815260200160002060008a73ffffffffffffffffffffffffffffffffffffffff1673ffffffffffffffffffffffffffffffffffffffff1681526020019081526020016000206000820151816000015560208201518160010160006101000a81548160ff02191690831515021790555060408201518160010160016101000a81548160ff02191690831515021790555060608201518160010160026101000a81548160ff02191690831515021790555060808201518160010160036101000a81548160ff02191690831515021790555060a08201518160010160046101000a81548160ff02191690831515021790555060c08201518160010160056101000a81548160ff02191690831515021790555060e08201518160010160066101000a81548160ff0219169083600881111561135357611352612716565b5b02179055506101008201518160010160076101000a81548160ff0219169083600881111561138457611383612716565b5b021790555090505060046000815461139b90612994565b9190508190555060008054906101000a900473ffffffffffffffffffffffffffffffffffffffff1673ffffffffffffffffffffffffffffffffffffffff1663d328e840886040518263ffffffff1660e01b81526004016113fb9190612569565b6020604051808303816000875af115801561141a573d6000803e3d6000fd5b505050506040513d601f19601f8201168201806040525081019061143e91906129f1565b5060405180610120016040528060045481526020018260400151151581526020016001151581526020018260800151151581526020016000151581526020018260c001511515815260200160011515815260200182610100015160088111156114aa576114a9612716565b5b81526020018560088111156114c2576114c1612716565b5b815250600160008a73ffffffffffffffffffffffffffffffffffffffff1673ffffffffffffffffffffffffffffffffffffffff16815260200190815260200160002060008973ffffffffffffffffffffffffffffffffffffffff1673ffffffffffffffffffffffffffffffffffffffff1681526020019081526020016000206000820151816000015560208201518160010160006101000a81548160ff02191690831515021790555060408201518160010160016101000a81548160ff02191690831515021790555060608201518160010160026101000a81548160ff02191690831515021790555060808201518160010160036101000a81548160ff02191690831515021790555060a08201518160010160046101000a81548160ff02191690831515021790555060c08201518160010160056101000a81548160ff02191690831515021790555060e08201518160010160066101000a81548160ff0219169083600881111561163657611635612716565b5b02179055506101008201518160010160076101000a81548160ff0219169083600881111561166757611666612716565b5b021790555090505060046000815461167e90612994565b91905081905550505b600560008373ffffffffffffffffffffffffffffffffffffffff1673ffffffffffffffffffffffffffffffffffffffff16815260200190815260200160002060008273ffffffffffffffffffffffffffffffffffffffff1673ffffffffffffffffffffffffffffffffffffffff168152602001908152602001600020549350505050611791565b600560008373ffffffffffffffffffffffffffffffffffffffff1673ffffffffffffffffffffffffffffffffffffffff16815260200190815260200160002060008273ffffffffffffffffffffffffffffffffffffffff1673ffffffffffffffffffffffffffffffffffffffff1681526020019081526020016000205493505050505b9392505050565b60026020528060005260406000206000915054906101000a900460ff1681565b606060008054906101000a900473ffffffffffffffffffffffffffffffffffffffff1673ffffffffffffffffffffffffffffffffffffffff1663517fe4de336040518263ffffffff1660e01b81526004016118139190612569565b600060405180830381865afa158015611830573d6000803e3d6000fd5b505050506040513d6000823e3d601f19601f820116820180604052508101906118599190612b44565b905090565b60076020528060005260406000206000915090505481565b61187e6123f6565b61188e8260008060016005611b64565b9050919050565b606060008054906101000a900473ffffffffffffffffffffffffffffffffffffffff1673ffffffffffffffffffffffffffffffffffffffff1663517fe4de836040518263ffffffff1660e01b81526004016118f09190612569565b600060405180830381865afa15801561190d573d6000803e3d6000fd5b505050506040513d6000823e3d601f19601f820116820180604052508101906119369190612b44565b9050919050565b6005602052816000526040600020602052806000526040600020600091509150505481565b61196a6123f6565b600160003373ffffffffffffffffffffffffffffffffffffffff1673ffffffffffffffffffffffffffffffffffffffff16815260200190815260200160002060008373ffffffffffffffffffffffffffffffffffffffff1673ffffffffffffffffffffffffffffffffffffffff16815260200190815260200160002060405180610120016040529081600082015481526020016001820160009054906101000a900460ff161515151581526020016001820160019054906101000a900460ff161515151581526020016001820160029054906101000a900460ff161515151581526020016001820160039054906101000a900460ff161515151581526020016001820160049054906101000a900460ff161515151581526020016001820160059054906101000a900460ff161515151581526020016001820160069054906101000a900460ff166008811115611ac357611ac2612716565b5b6008811115611ad557611ad4612716565b5b81526020016001820160079054906101000a900460ff166008811115611afe57611afd612716565b5b6008811115611b1057611b0f612716565b5b815250509050919050565b6000600660008373ffffffffffffffffffffffffffffffffffffffff1673ffffffffffffffffffffffffffffffffffffffff168152602001908152602001600020549050919050565b611b6c6123f6565b6000611b778361234d565b90506000600160003373ffffffffffffffffffffffffffffffffffffffff1673ffffffffffffffffffffffffffffffffffffffff16815260200190815260200160002060008973ffffffffffffffffffffffffffffffffffffffff1673ffffffffffffffffffffffffffffffffffffffff16815260200190815260200160002060405180610120016040529081600082015481526020016001820160009054906101000a900460ff161515151581526020016001820160019054906101000a900460ff161515151581526020016001820160029054906101000a900460ff161515151581526020016001820160039054906101000a900460ff161515151581526020016001820160049054906101000a900460ff161515151581526020016001820160059054906101000a900460ff161515151581526020016001820160069054906101000a900460ff166008811115611cd457611cd3612716565b5b6008811115611ce657611ce5612716565b5b81526020016001820160079054906101000a900460ff166008811115611d0f57611d0e612716565b5b6008811115611d2157611d20612716565b5b8152505090506000600160008a73ffffffffffffffffffffffffffffffffffffffff1673ffffffffffffffffffffffffffffffffffffffff16815260200190815260200160002060003373ffffffffffffffffffffffffffffffffffffffff1673ffffffffffffffffffffffffffffffffffffffff16815260200190815260200160002060405180610120016040529081600082015481526020016001820160009054906101000a900460ff161515151581526020016001820160019054906101000a900460ff161515151581526020016001820160029054906101000a900460ff161515151581526020016001820160039054906101000a900460ff161515151581526020016001820160049054906101000a900460ff161515151581526020016001820160059054906101000a900460ff161515151581526020016001820160069054906101000a900460ff166008811115611e8257611e81612716565b5b6008811115611e9457611e93612716565b5b81526020016001820160079054906101000a900460ff166008811115611ebd57611ebc612716565b5b6008811115611ecf57611ece612716565b5b8152505090506000604051806101200160405280846000015181526020018a15158152602001846040015115158152602001881515815260200184608001511515815260200189151581526020018460c0015115158152602001856008811115611f3c57611f3b612716565b5b81526020018461010001516008811115611f5957611f58612716565b5b81525090506000604051806101200160405280846000015181526020018460200151151581526020018b1515815260200184606001511515815260200189151581526020018460a00151151581526020018a151581526020018460e001516008811115611fc957611fc8612716565b5b8152602001866008811115611fe157611fe0612716565b5b815250905081600160003373ffffffffffffffffffffffffffffffffffffffff1673ffffffffffffffffffffffffffffffffffffffff16815260200190815260200160002060008d73ffffffffffffffffffffffffffffffffffffffff1673ffffffffffffffffffffffffffffffffffffffff1681526020019081526020016000206000820151816000015560208201518160010160006101000a81548160ff02191690831515021790555060408201518160010160016101000a81548160ff02191690831515021790555060608201518160010160026101000a81548160ff02191690831515021790555060808201518160010160036101000a81548160ff02191690831515021790555060a08201518160010160046101000a81548160ff02191690831515021790555060c08201518160010160056101000a81548160ff02191690831515021790555060e08201518160010160066101000a81548160ff0219169083600881111561215857612157612716565b5b02179055506101008201518160010160076101000a81548160ff0219169083600881111561218957612188612716565b5b021790555090505080600160008d73ffffffffffffffffffffffffffffffffffffffff1673ffffffffffffffffffffffffffffffffffffffff16815260200190815260200160002060003373ffffffffffffffffffffffffffffffffffffffff1673ffffffffffffffffffffffffffffffffffffffff1681526020019081526020016000206000820151816000015560208201518160010160006101000a81548160ff02191690831515021790555060408201518160010160016101000a81548160ff02191690831515021790555060608201518160010160026101000a81548160ff02191690831515021790555060808201518160010160036101000a81548160ff02191690831515021790555060a08201518160010160046101000a81548160ff02191690831515021790555060c08201518160010160056101000a81548160ff02191690831515021790555060e08201518160010160066101000a81548160ff0219169083600881111561230357612302612716565b5b02179055506101008201518160010160076101000a81548160ff0219169083600881111561233457612333612716565b5b0217905550905050819550505050505095945050505050565b600080820361235b57600290505b6001820361236857600390505b6002820361237557600490505b6003820361238257600590505b6004820361238f57600690505b6005820361239c57600790505b919050565b6000808273ffffffffffffffffffffffffffffffffffffffff168473ffffffffffffffffffffffffffffffffffffffff16106123e45782915081849150816123ed565b83915081839150815b50509250929050565b604051806101200160405280600081526020016000151581526020016000151581526020016000151581526020016000151581526020016000151581526020016000151581526020016000600881111561245357612452612716565b5b81526020016000600881111561246c5761246b612716565b5b81525090565b6000604051905090565b600080fd5b600080fd5b600073ffffffffffffffffffffffffffffffffffffffff82169050919050565b60006124b182612486565b9050919050565b6124c1816124a6565b81146124cc57600080fd5b50565b6000813590506124de816124b8565b92915050565b6000819050919050565b6124f7816124e4565b811461250257600080fd5b50565b600081359050612514816124ee565b92915050565b600080604083850312156125315761253061247c565b5b600061253f858286016124cf565b925050602061255085828601612505565b9150509250929050565b612563816124a6565b82525050565b600060208201905061257e600083018461255a565b92915050565b60006020828403121561259a5761259961247c565b5b60006125a8848285016124cf565b91505092915050565b6125ba816124e4565b82525050565b60006020820190506125d560008301846125b1565b92915050565b600080604083850312156125f2576125f161247c565b5b6000612600858286016124cf565b9250506020612611858286016124cf565b9150509250929050565b60008115159050919050565b6126308161261b565b82525050565b600060208201905061264b6000830184612627565b92915050565b61265a8161261b565b811461266557600080fd5b50565b60008135905061267781612651565b92915050565b600080600080600060a086880312156126995761269861247c565b5b60006126a7888289016124cf565b95505060206126b888828901612668565b94505060406126c988828901612668565b93505060606126da88828901612668565b92505060806126eb88828901612505565b9150509295509295909350565b612701816124e4565b82525050565b6127108161261b565b82525050565b7f4e487b7100000000000000000000000000000000000000000000000000000000600052602160045260246000fd5b6009811061275657612755612716565b5b50565b600081905061276782612745565b919050565b600061277782612759565b9050919050565b6127878161276c565b82525050565b610120820160008201516127a460008501826126f8565b5060208201516127b76020850182612707565b5060408201516127ca6040850182612707565b5060608201516127dd6060850182612707565b5060808201516127f06080850182612707565b5060a082015161280360a0850182612707565b5060c082015161281660c0850182612707565b5060e082015161282960e085018261277e565b5061010082015161283e61010085018261277e565b50505050565b60006101208201905061285a600083018461278d565b92915050565b6000806000606084860312156128795761287861247c565b5b6000612887868287016124cf565b9350506020612898868287016124cf565b92505060406128a986828701612505565b9150509250925092565b600081519050919050565b600082825260208201905092915050565b60005b838110156128ed5780820151818401526020810190506128d2565b60008484015250505050565b6000601f19601f8301169050919050565b6000612915826128b3565b61291f81856128be565b935061292f8185602086016128cf565b612938816128f9565b840191505092915050565b6000602082019050818103600083015261295d818461290a565b905092915050565b7f4e487b7100000000000000000000000000000000000000000000000000000000600052601160045260246000fd5b600061299f826124e4565b91507fffffffffffffffffffffffffffffffffffffffffffffffffffffffffffffffff82036129d1576129d0612965565b5b600182019050919050565b6000815190506129eb816124ee565b92915050565b600060208284031215612a0757612a0661247c565b5b6000612a15848285016129dc565b91505092915050565b600080fd5b600080fd5b7f4e487b7100000000000000000000000000000000000000000000000000000000600052604160045260246000fd5b612a60826128f9565b810181811067ffffffffffffffff82111715612a7f57612a7e612a28565b5b80604052505050565b6000612a92612472565b9050612a9e8282612a57565b919050565b600067ffffffffffffffff821115612abe57612abd612a28565b5b612ac7826128f9565b9050602081019050919050565b6000612ae7612ae284612aa3565b612a88565b905082815260208101848484011115612b0357612b02612a23565b5b612b0e8482856128cf565b509392505050565b600082601f830112612b2b57612b2a612a1e565b5b8151612b3b848260208601612ad4565b91505092915050565b600060208284031215612b5a57612b5961247c565b5b600082015167ffffffffffffffff811115612b7857612b77612481565b5b612b8484828501612b16565b9150509291505056fea2646970667358221220ebd115af7f4d46fe885e4b94af8edd1fc45dfaf5e4c9904c5641532c2ff0c50364736f6c63430008110033",
  "immutableReferences": {},
  "source": "// SPDX-License-Identifier: GPL-3.0\n// // // // // // // // // // // // // // // // // // // // // // // // // // // // // // // // // // // // // // // // // // // // // // // // // // // // // // // // // // // // //\n//\n//      0KKKKKKKKKKKKKKKKKKKKKKKKKKKKKKKK0Okdlc:;,......    ......',;cldxO0KKKKKKKKKKKKKKKKKKKKKKKKKKKKKKKKK\n//      XNNNNNNNNNNNNNNNNNNNNNNNNNNXX0kdc;'...        .......         ...';coxOKXNNNNNNNNNNNNNNNNNNNNNNNNNNN\n//      XNNNNNNNNNNNNNNNNNNNNNNNX0xl;'..              .,;;:,.                ..;cdOXXNNNNNNNNNNNNNNNNNNNNNNN\n//      XNNNNNNNNNNNNNNNNNNXNXOo:'.                   .......                    ..;lkKXNNNNNNNNNNNNNNNNNNNN\n//      XNNNNNNNNNNNNNNNNNXOo;..              .........................             ..,lkKNNNNXNNNNNNNNNNNNN\n//      XNNNNNNNNNNNNXXNKx:..            ..........    'lc'.    ............            .;d0XNNNNNNNNNNNNNNN\n//      XNNNNNNNNNNNNX0d;.          ........         .;dddkl.            .......          .'lOXNNNNNNNNNNNNN\n//      XNNNNNNNNNNX0d,.         ......             .cx:..,lo'               ......         .'lOXNNNNNNNNNNN\n//      XNNNNXNNNNKx,.         .....               .ox;.   .:o,.                 ....         .'o0XNNNNNNNNN\n//      XNXNNNNNXOc.        .....                .,dd'      .;l;.                  .....   .... .;xXNNNNNNNN\n//      XNNNNNNKd'....... .....                 .;xo.        .'c;.                    .....':;..  .l0XNNNNNN\n//      XNNNNX0c. ..'''......                  .ckc.           .:;.                     ....',...  .;OXNNNNN\n//      XNNNXO:.   ........                   .ok:.             .;;.                     ......     .,xXNNXX\n//      XNNXO;.       ...                    'dx;.               .,;.                      ...        'xXNNN\n//      XNXO;.       ...                   .,xx'       .....''''''';:..                     ...        'xXNN\n//      XN0:.       ...                   .;kd.  ..,:ldxkOOOOOOOOOkO0Odl:,..                  ...      .,kXN\n//      XKl.       ...                   .cko'':ok00Okdlc;;,'''...',;:dkxkkd:..                ..       .:0N\n//      Xx'       ...                   .lKOxk00xxxl,.  ....',..      .'..,cddl,.              ...       .oX\n//      O:.      ...                  ..dNN0xl;':c::c:'..':odol:..     .... ..:lc,.             ...       ,k\n//      d.       ..                 .,o00d:.. .od'  .,cclxxl'.'coc.     ....   ..,,'..           ..       .l\n//      :.      ...              ..:xKNO,.   .lO:    .;k0o;.   .'do.     ...      .....          ...       ,\n//      '       ..             ..cddx0x'     .xO,   .:dc',:;'.   ;k:.           ..,'...           ..       .\n//      .       ..            .:lc,ckd.      .dKc. .cl'.  ..,'. .lO:       ..':ll:,..             ...      .\n//      .      ...          .,:,..ckl.       .;0O:,:,.      ...'lOl.   ..;ldkkdo;.                ...      .\n//             ...        ..'.. .lkc.         .;kK0o,.......':dOx;..,cdOKKko;..'c:.               ...\n//      .      ...       ....  .lk:.           .'coxOkkxxxxkkkxdodkKXXOdc'.    .'dd,.             ...\n//      .      ...        ....,dk;.            ..  ..;coxkkOO0KXX0ko:'..         'dOc.            ...      .\n//      .       ..          .,dd;,,;;:::;;;;;::clloxkO0KK00Oxdl;'..               .l0d'.          ...      .\n//      ,.      ...        .;dc.  ...,;:clloodddddoolc:;'....                      .;OO:.         ......   .\n//      c.  .......       .:o;.                                                     .'d0d'.      ....,;'. .:\n//      x'  .';,...      .cl'.                                                        .:OO:.     ....;;.. .o\n//      0l. ..,'....   .'ol...............................'''',,,,,,;;;:::::ccccclllllookNXd.   ... .... .;0\n//      XO,       ...  .coc::cccccccccllllllllllllloooooooooooooooooooooooooooooooolllllllc;.  ...       .dX\n//      XXd.       ...  .........................................                             ...       .lKN\n//      XNKl.       ...            .:cccccc:;:ccccccc:::cccccccccccccccccccccccc'.           ...       .:0NX\n//      XNNKc.       ...          .cXWNXXNKkxokXNWWNNK0NMWWNXNW0OXWNNWWNWWNWWNWWo.          ...       .;OXNN\n//      XNNN0l.       ....        .cXNxokKxokllOkdxKNOxXWkloddOdlOXKkK0ONWOdx0WWo.         ...       .;OXNNN\n//      XNNNNKo.        ...       .cXNOdokxcddd0klo0WKdOXd;lxkKOd0NWOlokKXOllOWWo.       ...        .c0NNNNN\n//      XNNNNNXd'.       ....     .cXWK00XNKO0XXKNXKWN0KNNK00KNNK0XXOdOKKXKNXKNWo.     ....        .lKNNNNNN\n//      XNNNNNNXO:.        ....    'oddddddddddddddddddddddddddddddl:coddddddddo;.   ....        .,xXNNNNNNN\n//      XNNNNNNNNKd'.        .....                                                 ....        ..l0XNNNNNNNN\n//      XNNNNNNNNNXOl..        ......                                           .....         .:kXNNNNNNNNNN\n//      XNNNNNNNNNNNXOc..         ......                                    ......          .:xKNNNNNNNNNNNN\n//      XNNNNNNNNNNNNNXOl'.          ........                          ........          ..ckKNNNNNNXNNNNNNN\n//      XNNNNNNNNNNNNNNNX0d;..       ..'....................................',,.       .,oOXNNNNNNNNNNNNNNNN\n//      XNNNNNNNNNNNNNNNNNNXOo;..    ...;;.     ....................      .;,'..   ..,lkKXNNNNNNNNNNNNNNNNNN\n//      XNNNNNNNNNNNNNNNNNNNNNKOd:'.    ..                                 ...  ..;lkKXNXNNNNNNNNNNNNNNNNNNN\n//      XNNNNNNNNNNNNNNNNNNNNNNNNX0ko:,...                                 ..':lx0XNNNNNXNNNNNNNNNNNNNNNNNNN\n//      XNNNNNNNNNNNNNNNNNNNNNNNNNNNNXKOxoc;,....                  ....';:ldOKXXNNNNNNNNNNNNNNNNNNNNNNNNNNNN\n//      XNNNNNNNNNNNNNNNNNNNNNNNNNNNXXNNNNXK0kdl:;'.....    .....',:ldk0KXNNNNNXNNNNNNNNNNNNNNNNNNNNNNNNNNNN\n//\n// // // // // // // // // // // // // // // // // // // // // // // // // // // // // // // // // // // // // // // // // // // // // // // // // // // // // // // // // // // // //\n//                                                                                                                                                                                  //\n//      @dev            ::              Aron Mauritala Ayuk                                                                                                                                          //\n//      @msg            ::              stereo@iii6.xyz                                                                                                                                   //\n//      @github         ::              @stereoIII6\n//      @twitter        ::              @stereoIII6                                                                                                                                              //\n//                                                                                                                                                                                  //\n// // // // // // // // // // // // // // // // // // // // // // // // // // // // // // // // // // // // // // // // // // // // // // // // // // // // // // // // // // // // //\n//                                                                                                                                                                                  //\n//      @dev            ::              Juan Xavier Valverde                                                                                                                                    //\n//      @msg            ::              juanxavier@iii6.xyz                                                                                                                               //\n//      @twitter        ::              @JuanXavier                                                                                                                                             //\n//      @github         ::              @JuanXavier                                                                                                                                             //\n//                                                                                                                                                                                  //                                                                                                                                                                                 //\n// // // // // // // // // // // // // // // // // // // // // // // // // // // // // // // // // // // // // // // // // // // // // // // // // // // // // // // // // // // // //\n//  *   *   *   *   *   *   *   *   *   *   *   *   *   *   *   *   *   *   *   *   *   *   *   *   *   *   *   *   *   *   *   *   *   *   *   *   *   *   *   *   *   *   *   *   //\n// // // // // // // // // // // // // // // // // // // // // // // // // // // // // // // // // // // // // // // // // // // // // // // // // // // // // // // // // // // // //\n//                                                                                                                                                                                  //\n//      @company        ::              Fractio Holding                                                                                                                                                                       //\n//      @title          ::              s0xiety Users                                                                                                                            //\n//      @description    ::              Friend Interface Contract                                                                                                                           //\n//      @version        ::              0.0.1                                                                                                                                       //\n//      @purpose        ::              Multinet Friendship Interface                                                                                                           //\n//                                                                                                                                                                                  //\n//                                                                                                                                                                                  //\n//                                                                                                                                                                                  //\n//                                                                                                                                                                                  //\n//                                                                                                                                                                                  //\n// // // // // // // // // // // // // // // // // // // // // // // // // // // // // // // // // // // // // // // // // // // // // // // // // // // // // // // // // // // // //\n//  *   *   *   *   *   *   *   *   *   *   *   *   *   *   *   *   *   *   *   *   *   *   *   *   *   *   *   *   *   *   *   *   *   *   *   *   *   *   *   *   *   *   *   *   //\n// // // // // // // // // // // // // // // // // // // // // // // // // // // // // // // // // // // // // // // // // // // // // // // // // // // // // // // // // // // // //\n\n/////////////////////////////////////////////////////////////////////////////////////////////////////////////////////\n\n/////////////////////////////////////////////////////////////////////////////////////////////////////////////////////\n\npragma solidity ^0.8.7;\n\nimport \"../iii6Utils/Math/iii6Math.sol\";\nimport \"../iii6Utils/Misc/iii6Relations.sol\";\nimport \"./s0xUsers.sol\";\n\n/**\n * @dev soxFriends is the s0xiety contract that takes care or friendships relations and privacy\n * it inherits iii6Math and iii6Relations\n *\n */\ncontract s0xFriends is iii6Math, iii6Relations {\n    // importing s0x user contract struct\n    s0xUsers private user;\n    // following // address ref user # =>  address privacy user # => Relation Mode Struct ?\n    mapping(address => mapping(address => Relations)) private relationToUser;\n    mapping(address => bool) public banned;\n    // count connections var\n    uint256 c;\n    uint256 r;\n    // connections // address smaller # => address bigger # => uint c connection count\n    mapping(address => mapping(address => uint256)) public connection; // connection array\n    // follower count // address ref user # => uint follower counter\n    mapping(address => uint256) public followerCount;\n    // follower count // address ref user # => uint followed counter\n    mapping(address => uint256) public myFollowingCount;\n    // followers by count //address ref user # => uint follower counter\n    mapping(address => mapping(uint256 => address)) public followersByCount;\n\n    /**\n     * @dev soxFriends is the s0xiety contract that takes care or friendships relations and privacy\n     * @param _usrAdr is the User Contract Adress\n     *\n     */\n    constructor(address _usrAdr) {\n        user = s0xUsers(_usrAdr);\n    }\n\n    /**\n     * @dev shows user account of msg sender\n     */\n    function showMe() external view returns (string memory) {\n        return user.showUser(msg.sender);\n    }\n\n    /**\n     * @dev shows user account of given address\n     * @param _adr address of user account to show\n     */\n    function showYou(address _adr) external view returns (string memory) {\n        return user.showUser(_adr);\n    }\n\n    /**\n     * @dev shows user relation to msg.sender INTERNAL\n     */\n    function _detectRelation(uint256 _rel)\n        internal\n        pure\n        returns (Relation rel)\n    {\n        if (_rel == 0) rel = Relation.Friend;\n        if (_rel == 1) rel = Relation.Family;\n        if (_rel == 2) rel = Relation.Work;\n        if (_rel == 3) rel = Relation.Homies;\n        if (_rel == 4) rel = Relation.Partners;\n        if (_rel == 5) rel = Relation.Blocked;\n    }\n\n    /**\n     * @dev shows user msg allowance to msg.sender\n     */\n    function getMsgAllow(address _sender, address _adr)\n        external\n        view\n        returns (bool)\n    {\n        return relationToUser[_sender][_adr].BallowsAmsg;\n    }\n\n    /**\n     * @dev create user relation from sender to adr INTERNAL\n     */\n    function relate(\n        address _adr,\n        address _sender,\n        uint256 _rel\n    ) external returns (uint256) {\n        Relation rel = _detectRelation(_rel);\n        ++myFollowingCount[_adr];\n        followersByCount[_sender][followerCount[_sender]] = _adr;\n        ++followerCount[_sender];\n        (address s, address l) = _smaller(_adr, _sender);\n        // if no connection for this user pair exists\n        if (connection[s][l] == 0) {\n            ++c;\n            connection[s][l] = c;\n            relationToUser[_sender][_adr] = Relations(\n                r,\n                true,\n                false,\n                false,\n                false,\n                true,\n                false,\n                rel,\n                Relation.Member\n            );\n            ++r;\n            user.addedConnection(_sender);\n            relationToUser[_adr][_sender] = Relations(\n                r,\n                false,\n                true,\n                false,\n                false,\n                false,\n                true,\n                Relation.Member,\n                rel\n            );\n            ++r;\n            return (connection[s][l]);\n        }\n        // if one sided  connection for this user pair exists\n        else if (connection[s][l] == 1) {\n            ++c;\n            if (relationToUser[_sender][_adr].AprivB == Relation.Member) {\n                connection[s][l] = c;\n                Relations memory oldRel;\n                oldRel = relationToUser[_sender][_adr];\n                relationToUser[_sender][_adr] = Relations(\n                    r,\n                    true,\n                    oldRel.BfollowsA,\n                    false,\n                    oldRel.BbansA,\n                    true,\n                    oldRel.BallowsAmsg,\n                    rel,\n                    oldRel.BprivA\n                );\n                ++r;\n                user.addedConnection(_sender);\n                relationToUser[_adr][_sender] = Relations(\n                    r,\n                    oldRel.BfollowsA,\n                    true,\n                    oldRel.BbansA,\n                    false,\n                    oldRel.BallowsAmsg,\n                    true,\n                    oldRel.BprivA,\n                    rel\n                );\n                ++r;\n            }\n            return (connection[s][l]);\n        }\n        // if users are two way connected\n        else return (connection[s][l]);\n    }\n\n    /**\n     * @dev count followers of address\n     */\n    function doFollowerCount(address _adr) external view returns (uint256) {\n        return followerCount[_adr];\n    }\n\n    /**\n     * @dev count how many users address follows\n     * @param _adr address of user\n     */\n    function doFollowingCount(address _adr) external view returns (uint256) {\n        return myFollowingCount[_adr];\n    }\n\n    /**\n     * @dev shows one specific Followers address\n     * @param _adr address of user\n     * @param _c follower count pointer of user _adr\n     */\n    function doShowFollower(address _adr, uint256 _c)\n        external\n        view\n        returns (address)\n    {\n        return followersByCount[_adr][_c];\n    }\n\n    /**\n     * @dev shows relation fom msg.sender to _adr\n     * @param _adr address of user\n     * @return rel Relations struct\n     */\n    function showRelation(address _adr)\n        external\n        view\n        returns (Relations memory rel)\n    {\n        rel = relationToUser[msg.sender][_adr];\n    }\n\n    /**\n     * @dev edits one specific Followers address relation status a = msg.sender b = _adr\n     * @param _adr address of user\n     * @param _fol bool follower\n     * @param _msg bool can a msg b\n     * @param _ban bool did a ban b\n     * @param _rel uint relation gets converted to Relaion enum by _detectRelation()\n     */\n    function editRelation(\n        address _adr,\n        bool _fol,\n        bool _msg,\n        bool _ban,\n        uint256 _rel\n    ) external returns (Relations memory) {\n        return _editRelation(_adr, _fol, _msg, _ban, _rel);\n    }\n\n    /**\n     * @dev edits one specific Followers address relation status\n     * a = msg.sender b = _adr INTERNAL\n     * @param _adr address of reciever\n     * @param _fol bool a follows b\n     * @param _msg bool a allows msgs b\n     * @param _ban bool a bans b\n     * @param _rel Relation in /iii6Utils/Misc/iii6Relations.sol Relation enum\n     * @return rel\n     */\n    function _editRelation(\n        address _adr,\n        bool _fol,\n        bool _msg,\n        bool _ban,\n        uint256 _rel\n    ) internal returns (Relations memory rel) {\n        Relation newRel = _detectRelation(_rel);\n        Relations memory hold1 = relationToUser[msg.sender][_adr];\n        Relations memory hold2 = relationToUser[_adr][msg.sender];\n\n        /**\n         * Relations Struct Scheme\n         *\n         * @param uint256 id;\n         * @param bool AfollowsB;\n         * @param bool BfollowsA;\n         * @param bool AbansB;\n         * @param bool BbansA;\n         * @param bool AallowsBmsg;\n         * @param bool BallowsAmsg;\n         * @param Relation AprivB;\n         * @param Relation BprivA;\n         */\n        Relations memory relOut = Relations(\n            hold1.id,\n            _fol,\n            hold1.BfollowsA,\n            _ban,\n            hold1.BbansA,\n            _msg,\n            hold1.BallowsAmsg,\n            newRel,\n            hold1.BprivA\n        );\n        Relations memory relIn = Relations(\n            hold2.id,\n            hold2.AfollowsB,\n            _fol,\n            hold2.AbansB,\n            _ban,\n            hold2.AallowsBmsg,\n            _msg,\n            hold2.AprivB,\n            newRel\n        );\n        relationToUser[msg.sender][_adr] = relOut;\n        relationToUser[_adr][msg.sender] = relIn;\n        rel = relOut;\n    }\n\n    function blockAddress(address _adr) external returns (Relations memory) {\n        return _editRelation(_adr, false, false, true, 5);\n    }\n}\n",
  "sourcePath": "/Users/iii6/Documents/GitHub/III6Dojo/contracts/s0xCommunity/s0xFriends.sol",
  "compiler": {
    "name": "solc",
    "version": "0.8.17+commit.8df45f5f.Emscripten.clang"
  },
  "schemaVersion": "3.4.8",
  "updatedAt": "2022-12-15T19:23:26.502Z",
  "devdoc": {
    "details": "soxFriends is the s0xiety contract that takes care or friendships relations and privacy it inherits iii6Math and iii6Relations",
    "kind": "dev",
    "methods": {
      "constructor": {
        "details": "soxFriends is the s0xiety contract that takes care or friendships relations and privacy",
        "params": {
          "_usrAdr": "is the User Contract Adress"
        }
      },
      "doFollowerCount(address)": {
        "details": "count followers of address"
      },
      "doFollowingCount(address)": {
        "details": "count how many users address follows",
        "params": {
          "_adr": "address of user"
        }
      },
      "doShowFollower(address,uint256)": {
        "details": "shows one specific Followers address",
        "params": {
          "_adr": "address of user",
          "_c": "follower count pointer of user _adr"
        }
      },
      "editRelation(address,bool,bool,bool,uint256)": {
        "details": "edits one specific Followers address relation status a = msg.sender b = _adr",
        "params": {
          "_adr": "address of user",
          "_ban": "bool did a ban b",
          "_fol": "bool follower",
          "_msg": "bool can a msg b",
          "_rel": "uint relation gets converted to Relaion enum by _detectRelation()"
        }
      },
      "getMsgAllow(address,address)": {
        "details": "shows user msg allowance to msg.sender"
      },
      "relate(address,address,uint256)": {
        "details": "create user relation from sender to adr INTERNAL"
      },
      "showMe()": {
        "details": "shows user account of msg sender"
      },
      "showRelation(address)": {
        "details": "shows relation fom msg.sender to _adr",
        "params": {
          "_adr": "address of user"
        },
        "returns": {
          "rel": "Relations struct"
        }
      },
      "showYou(address)": {
        "details": "shows user account of given address",
        "params": {
          "_adr": "address of user account to show"
        }
      }
    },
    "version": 1
  },
  "userdoc": {
    "kind": "user",
    "methods": {},
    "version": 1
  }
}