{
  "contractName": "s0xGroups",
  "abi": [
    {
      "inputs": [
        {
          "internalType": "address",
          "name": "_user",
          "type": "address"
        },
        {
          "internalType": "address",
          "name": "_friend",
          "type": "address"
        },
        {
          "internalType": "bytes",
          "name": "_name",
          "type": "bytes"
        },
        {
          "internalType": "enum iii6Relations.GroupType",
          "name": "_mode",
          "type": "uint8"
        },
        {
          "internalType": "address",
          "name": "_o",
          "type": "address"
        },
        {
          "internalType": "string",
          "name": "_p",
          "type": "string"
        }
      ],
      "stateMutability": "nonpayable",
      "type": "constructor"
    },
    {
      "inputs": [],
      "name": "All_Slots_Taken",
      "type": "error"
    },
    {
      "inputs": [],
      "name": "Already_Listed",
      "type": "error"
    },
    {
      "inputs": [],
      "name": "Array_Length_Mismatch",
      "type": "error"
    },
    {
      "inputs": [],
      "name": "Event_Has_Ended",
      "type": "error"
    },
    {
      "inputs": [],
      "name": "Greenlist_Expired",
      "type": "error"
    },
    {
      "inputs": [],
      "name": "Insufficient_Amount",
      "type": "error"
    },
    {
      "inputs": [],
      "name": "Insufficient_Balance",
      "type": "error"
    },
    {
      "inputs": [],
      "name": "Insufficient_Funds",
      "type": "error"
    },
    {
      "inputs": [],
      "name": "Insufficient_MLQ",
      "type": "error"
    },
    {
      "inputs": [],
      "name": "Insufficient_Supply",
      "type": "error"
    },
    {
      "inputs": [],
      "name": "Invalid_Amount",
      "type": "error"
    },
    {
      "inputs": [],
      "name": "Invalid_Response",
      "type": "error"
    },
    {
      "inputs": [],
      "name": "Max_Tokens_Minted",
      "type": "error"
    },
    {
      "inputs": [],
      "name": "Min_Requirements_Not_Met",
      "type": "error"
    },
    {
      "inputs": [],
      "name": "Mint_In_Progress",
      "type": "error"
    },
    {
      "inputs": [],
      "name": "Mint_Is_Not_Yet_Live",
      "type": "error"
    },
    {
      "inputs": [],
      "name": "Not_Burnable",
      "type": "error"
    },
    {
      "inputs": [],
      "name": "Not_Friends",
      "type": "error"
    },
    {
      "inputs": [],
      "name": "Not_Friends_Rev",
      "type": "error"
    },
    {
      "inputs": [],
      "name": "Not_Greenlisted",
      "type": "error"
    },
    {
      "inputs": [],
      "name": "Not_Pausable",
      "type": "error"
    },
    {
      "inputs": [],
      "name": "Sold_Out",
      "type": "error"
    },
    {
      "inputs": [],
      "name": "Unauthorized",
      "type": "error"
    },
    {
      "inputs": [],
      "name": "You_Are_Not_The_Holder",
      "type": "error"
    },
    {
      "inputs": [],
      "name": "You_Need_To_Wait",
      "type": "error"
    },
    {
      "inputs": [
        {
          "internalType": "uint256",
          "name": "",
          "type": "uint256"
        }
      ],
      "name": "cntnt",
      "outputs": [
        {
          "internalType": "bytes",
          "name": "",
          "type": "bytes"
        }
      ],
      "stateMutability": "view",
      "type": "function"
    },
    {
      "inputs": [
        {
          "internalType": "address",
          "name": "",
          "type": "address"
        },
        {
          "internalType": "uint256",
          "name": "",
          "type": "uint256"
        }
      ],
      "name": "content",
      "outputs": [
        {
          "internalType": "bytes",
          "name": "",
          "type": "bytes"
        }
      ],
      "stateMutability": "view",
      "type": "function"
    },
    {
      "inputs": [
        {
          "internalType": "address",
          "name": "",
          "type": "address"
        }
      ],
      "name": "invite",
      "outputs": [
        {
          "internalType": "bool",
          "name": "",
          "type": "bool"
        }
      ],
      "stateMutability": "view",
      "type": "function"
    },
    {
      "inputs": [],
      "name": "m",
      "outputs": [
        {
          "internalType": "uint256",
          "name": "",
          "type": "uint256"
        }
      ],
      "stateMutability": "view",
      "type": "function"
    },
    {
      "inputs": [
        {
          "internalType": "address",
          "name": "",
          "type": "address"
        }
      ],
      "name": "mNum",
      "outputs": [
        {
          "internalType": "uint256",
          "name": "",
          "type": "uint256"
        }
      ],
      "stateMutability": "view",
      "type": "function"
    },
    {
      "inputs": [
        {
          "internalType": "uint256",
          "name": "",
          "type": "uint256"
        }
      ],
      "name": "members",
      "outputs": [
        {
          "internalType": "address",
          "name": "",
          "type": "address"
        }
      ],
      "stateMutability": "view",
      "type": "function"
    },
    {
      "inputs": [],
      "name": "mode",
      "outputs": [
        {
          "internalType": "enum iii6Relations.GroupType",
          "name": "",
          "type": "uint8"
        }
      ],
      "stateMutability": "view",
      "type": "function"
    },
    {
      "inputs": [
        {
          "internalType": "address",
          "name": "",
          "type": "address"
        }
      ],
      "name": "myContent",
      "outputs": [
        {
          "internalType": "uint256",
          "name": "",
          "type": "uint256"
        }
      ],
      "stateMutability": "view",
      "type": "function"
    },
    {
      "inputs": [
        {
          "internalType": "address",
          "name": "",
          "type": "address"
        },
        {
          "internalType": "uint256",
          "name": "",
          "type": "uint256"
        }
      ],
      "name": "myReplys",
      "outputs": [
        {
          "internalType": "bytes",
          "name": "",
          "type": "bytes"
        }
      ],
      "stateMutability": "view",
      "type": "function"
    },
    {
      "inputs": [
        {
          "internalType": "address",
          "name": "",
          "type": "address"
        }
      ],
      "name": "myRplyCount",
      "outputs": [
        {
          "internalType": "uint256",
          "name": "",
          "type": "uint256"
        }
      ],
      "stateMutability": "view",
      "type": "function"
    },
    {
      "inputs": [],
      "name": "name",
      "outputs": [
        {
          "internalType": "string",
          "name": "",
          "type": "string"
        }
      ],
      "stateMutability": "view",
      "type": "function"
    },
    {
      "inputs": [],
      "name": "owner",
      "outputs": [
        {
          "internalType": "address",
          "name": "",
          "type": "address"
        }
      ],
      "stateMutability": "view",
      "type": "function"
    },
    {
      "inputs": [
        {
          "internalType": "uint256",
          "name": "",
          "type": "uint256"
        }
      ],
      "name": "r",
      "outputs": [
        {
          "internalType": "uint256",
          "name": "",
          "type": "uint256"
        }
      ],
      "stateMutability": "view",
      "type": "function"
    },
    {
      "inputs": [
        {
          "internalType": "uint256",
          "name": "",
          "type": "uint256"
        },
        {
          "internalType": "uint256",
          "name": "",
          "type": "uint256"
        }
      ],
      "name": "replys",
      "outputs": [
        {
          "internalType": "bytes",
          "name": "",
          "type": "bytes"
        }
      ],
      "stateMutability": "view",
      "type": "function"
    },
    {
      "inputs": [
        {
          "internalType": "address",
          "name": "_sender",
          "type": "address"
        },
        {
          "internalType": "address",
          "name": "_adr",
          "type": "address"
        },
        {
          "internalType": "string",
          "name": "_pin",
          "type": "string"
        }
      ],
      "name": "addUser",
      "outputs": [
        {
          "internalType": "address",
          "name": "ad",
          "type": "address"
        }
      ],
      "stateMutability": "nonpayable",
      "type": "function"
    },
    {
      "inputs": [
        {
          "internalType": "address",
          "name": "_sender",
          "type": "address"
        },
        {
          "internalType": "address",
          "name": "_adr",
          "type": "address"
        }
      ],
      "name": "removeUser",
      "outputs": [
        {
          "internalType": "address",
          "name": "",
          "type": "address"
        }
      ],
      "stateMutability": "nonpayable",
      "type": "function"
    },
    {
      "inputs": [
        {
          "internalType": "address",
          "name": "_sender",
          "type": "address"
        },
        {
          "internalType": "string",
          "name": "_cnt",
          "type": "string"
        }
      ],
      "name": "addContent",
      "outputs": [
        {
          "internalType": "string",
          "name": "",
          "type": "string"
        }
      ],
      "stateMutability": "nonpayable",
      "type": "function"
    },
    {
      "inputs": [
        {
          "internalType": "address",
          "name": "_sender",
          "type": "address"
        },
        {
          "internalType": "string",
          "name": "_rply",
          "type": "string"
        },
        {
          "internalType": "uint256",
          "name": "_c",
          "type": "uint256"
        }
      ],
      "name": "addReplyToContent",
      "outputs": [
        {
          "internalType": "uint256",
          "name": "",
          "type": "uint256"
        }
      ],
      "stateMutability": "nonpayable",
      "type": "function"
    },
    {
      "inputs": [
        {
          "internalType": "uint256",
          "name": "_contentId",
          "type": "uint256"
        }
      ],
      "name": "showContent",
      "outputs": [
        {
          "internalType": "string",
          "name": "",
          "type": "string"
        },
        {
          "internalType": "string[]",
          "name": "",
          "type": "string[]"
        }
      ],
      "stateMutability": "view",
      "type": "function"
    }
  ],
  "bytecode": "0x60806040523480156200001157600080fd5b5060405162002fbb38038062002fbb833981810160405281019062000037919062000524565b82600760006101000a81548160ff021916908360058111156200005f576200005e620005fe565b5b0217905550856000806101000a81548173ffffffffffffffffffffffffffffffffffffffff021916908373ffffffffffffffffffffffffffffffffffffffff16021790555084600160006101000a81548173ffffffffffffffffffffffffffffffffffffffff021916908373ffffffffffffffffffffffffffffffffffffffff16021790555081600260006101000a81548173ffffffffffffffffffffffffffffffffffffffff021916908373ffffffffffffffffffffffffffffffffffffffff160217905550806004908162000137919062000878565b50836003908162000149919062000878565b50600160058190555062000185600260009054906101000a900473ffffffffffffffffffffffffffffffffffffffff166200019260201b60201c565b50505050505050620009db565b60008160086000600554815260200190815260200160002060006101000a81548173ffffffffffffffffffffffffffffffffffffffff021916908373ffffffffffffffffffffffffffffffffffffffff160217905550600554600960008473ffffffffffffffffffffffffffffffffffffffff1673ffffffffffffffffffffffffffffffffffffffff168152602001908152602001600020819055506005600081548092919062000243906200098e565b9190505550819050919050565b6000604051905090565b600080fd5b600080fd5b600073ffffffffffffffffffffffffffffffffffffffff82169050919050565b6000620002918262000264565b9050919050565b620002a38162000284565b8114620002af57600080fd5b50565b600081519050620002c38162000298565b92915050565b600080fd5b600080fd5b6000601f19601f8301169050919050565b7f4e487b7100000000000000000000000000000000000000000000000000000000600052604160045260246000fd5b6200031e82620002d3565b810181811067ffffffffffffffff8211171562000340576200033f620002e4565b5b80604052505050565b60006200035562000250565b905062000363828262000313565b919050565b600067ffffffffffffffff821115620003865762000385620002e4565b5b6200039182620002d3565b9050602081019050919050565b60005b83811015620003be578082015181840152602081019050620003a1565b60008484015250505050565b6000620003e1620003db8462000368565b62000349565b9050828152602081018484840111156200040057620003ff620002ce565b5b6200040d8482856200039e565b509392505050565b600082601f8301126200042d576200042c620002c9565b5b81516200043f848260208601620003ca565b91505092915050565b600681106200045657600080fd5b50565b6000815190506200046a8162000448565b92915050565b600067ffffffffffffffff8211156200048e576200048d620002e4565b5b6200049982620002d3565b9050602081019050919050565b6000620004bd620004b78462000470565b62000349565b905082815260208101848484011115620004dc57620004db620002ce565b5b620004e98482856200039e565b509392505050565b600082601f830112620005095762000508620002c9565b5b81516200051b848260208601620004a6565b91505092915050565b60008060008060008060c087890312156200054457620005436200025a565b5b60006200055489828a01620002b2565b96505060206200056789828a01620002b2565b955050604087015167ffffffffffffffff8111156200058b576200058a6200025f565b5b6200059989828a0162000415565b9450506060620005ac89828a0162000459565b9350506080620005bf89828a01620002b2565b92505060a087015167ffffffffffffffff811115620005e357620005e26200025f565b5b620005f189828a01620004f1565b9150509295509295509295565b7f4e487b7100000000000000000000000000000000000000000000000000000000600052602160045260246000fd5b600081519050919050565b7f4e487b7100000000000000000000000000000000000000000000000000000000600052602260045260246000fd5b600060028204905060018216806200068057607f821691505b60208210810362000696576200069562000638565b5b50919050565b60008190508160005260206000209050919050565b60006020601f8301049050919050565b600082821b905092915050565b600060088302620007007fffffffffffffffffffffffffffffffffffffffffffffffffffffffffffffffff82620006c1565b6200070c8683620006c1565b95508019841693508086168417925050509392505050565b6000819050919050565b6000819050919050565b600062000759620007536200074d8462000724565b6200072e565b62000724565b9050919050565b6000819050919050565b620007758362000738565b6200078d620007848262000760565b848454620006ce565b825550505050565b600090565b620007a462000795565b620007b18184846200076a565b505050565b5b81811015620007d957620007cd6000826200079a565b600181019050620007b7565b5050565b601f8211156200082857620007f2816200069c565b620007fd84620006b1565b810160208510156200080d578190505b620008256200081c85620006b1565b830182620007b6565b50505b505050565b600082821c905092915050565b60006200084d600019846008026200082d565b1980831691505092915050565b60006200086883836200083a565b9150826002028217905092915050565b62000883826200062d565b67ffffffffffffffff8111156200089f576200089e620002e4565b5b620008ab825462000667565b620008b8828285620007dd565b600060209050601f831160018114620008f05760008415620008db578287015190505b620008e785826200085a565b86555062000957565b601f19841662000900866200069c565b60005b828110156200092a5784890151825560018201915060208501945060208101905062000903565b868310156200094a578489015162000946601f8916826200083a565b8355505b6001600288020188555050505b505050505050565b7f4e487b7100000000000000000000000000000000000000000000000000000000600052601160045260246000fd5b60006200099b8262000724565b91507fffffffffffffffffffffffffffffffffffffffffffffffffffffffffffffffff8203620009d057620009cf6200095f565b5b600182019050919050565b6125d080620009eb6000396000f3fe608060405234801561001057600080fd5b50600436106101215760003560e01c80634f0592e7116100ad578063bc87c22511610071578063bc87c2251461037f578063cbc69260146103af578063d3758c2a146103df578063f471d7ac1461040f578063f6ed3c431461043f57610121565b80634f0592e7146102b25780635a2ee019146102e35780635daf08ca146103015780638da5cb5b146103315780639a76a6d71461034f57610121565b806322928d6b116100f457806322928d6b146101d4578063295a5212146102045780632cdd0d5c146102225780632f5300e4146102525780634b77c4681461028257610121565b8063028c3f481461012657806306fdde03146101565780630a0b138f146101745780631bea2627146101a4575b600080fd5b610140600480360381019061013b9190611b76565b61046f565b60405161014d9190611bf4565b60405180910390f35b61015e6105d5565b60405161016b9190611c8e565b60405180910390f35b61018e60048036038101906101899190611cb0565b610663565b60405161019b9190611bf4565b60405180910390f35b6101be60048036038101906101b99190611cdd565b61067b565b6040516101cb9190611d5f565b60405180910390f35b6101ee60048036038101906101e99190611d81565b61071b565b6040516101fb9190611dd0565b60405180910390f35b61020c6108f0565b6040516102199190611e62565b60405180910390f35b61023c60048036038101906102379190611e7d565b610903565b6040516102499190611d5f565b60405180910390f35b61026c60048036038101906102679190611cb0565b6109b0565b6040516102799190611bf4565b60405180910390f35b61029c60048036038101906102979190611cb0565b6109c8565b6040516102a99190611ed8565b60405180910390f35b6102cc60048036038101906102c79190611cdd565b6109e8565b6040516102da929190611fff565b60405180910390f35b6102eb6109fd565b6040516102f89190611bf4565b60405180910390f35b61031b60048036038101906103169190611cdd565b610a03565b6040516103289190611dd0565b60405180910390f35b610339610a36565b6040516103469190611dd0565b60405180910390f35b61036960048036038101906103649190611cb0565b610a5c565b6040516103769190611bf4565b60405180910390f35b61039960048036038101906103949190612036565b610a74565b6040516103a69190611c8e565b60405180910390f35b6103c960048036038101906103c49190612092565b610ba8565b6040516103d69190611dd0565b60405180910390f35b6103f960048036038101906103f49190612101565b611542565b6040516104069190611d5f565b60405180910390f35b61042960048036038101906104249190611cdd565b6115ef565b6040516104369190611bf4565b60405180910390f35b61045960048036038101906104549190612101565b611607565b6040516104669190611d5f565b60405180910390f35b600082600e60008481526020019081526020016000206000600d600086815260200190815260200160002054815260200190815260200160002090816104b5919061234d565b5082601060008673ffffffffffffffffffffffffffffffffffffffff1673ffffffffffffffffffffffffffffffffffffffff1681526020019081526020016000206000600f60008873ffffffffffffffffffffffffffffffffffffffff1673ffffffffffffffffffffffffffffffffffffffff1681526020019081526020016000205481526020019081526020016000209081610552919061234d565b50600f60008573ffffffffffffffffffffffffffffffffffffffff1673ffffffffffffffffffffffffffffffffffffffff1681526020019081526020016000206000815461059f9061244e565b91905081905550600d6000838152602001908152602001600020600081546105c69061244e565b91905081905590509392505050565b600380546105e290612170565b80601f016020809104026020016040519081016040528092919081815260200182805461060e90612170565b801561065b5780601f106106305761010080835404028352916020019161065b565b820191906000526020600020905b81548152906001019060200180831161063e57829003601f168201915b505050505081565b600a6020528060005260406000206000915090505481565b600c602052806000526040600020600091509050805461069a90612170565b80601f01602080910402602001604051908101604052809291908181526020018280546106c690612170565b80156107135780601f106106e857610100808354040283529160200191610713565b820191906000526020600020905b8154815290600101906020018083116106f657829003601f168201915b505050505081565b60008060058111156107305761072f611deb565b5b600760009054906101000a900460ff16600581111561075257610751611deb565b5b03610789576040517f3a5bc32100000000000000000000000000000000000000000000000000000000815260040160405180910390fd5b600260009054906101000a900473ffffffffffffffffffffffffffffffffffffffff1673ffffffffffffffffffffffffffffffffffffffff168373ffffffffffffffffffffffffffffffffffffffff1614610810576040517f82b4290000000000000000000000000000000000000000000000000000000000815260040160405180910390fd5b600060086000600960008673ffffffffffffffffffffffffffffffffffffffff1673ffffffffffffffffffffffffffffffffffffffff16815260200190815260200160002054815260200190815260200160002060006101000a81548173ffffffffffffffffffffffffffffffffffffffff021916908373ffffffffffffffffffffffffffffffffffffffff1602179055506000600960008473ffffffffffffffffffffffffffffffffffffffff1673ffffffffffffffffffffffffffffffffffffffff1681526020019081526020016000208190555081905092915050565b600760009054906101000a900460ff1681565b600e60205281600052604060002060205280600052604060002060009150915050805461092f90612170565b80601f016020809104026020016040519081016040528092919081815260200182805461095b90612170565b80156109a85780601f1061097d576101008083540402835291602001916109a8565b820191906000526020600020905b81548152906001019060200180831161098b57829003601f168201915b505050505081565b60096020528060005260406000206000915090505481565b60116020528060005260406000206000915054906101000a900460ff1681565b6060806109f4836116b4565b91509150915091565b60055481565b60086020528060005260406000206000915054906101000a900473ffffffffffffffffffffffffffffffffffffffff1681565b600260009054906101000a900473ffffffffffffffffffffffffffffffffffffffff1681565b600f6020528060005260406000206000915090505481565b606081600b60008573ffffffffffffffffffffffffffffffffffffffff1673ffffffffffffffffffffffffffffffffffffffff1681526020019081526020016000206000600a60008773ffffffffffffffffffffffffffffffffffffffff1673ffffffffffffffffffffffffffffffffffffffff1681526020019081526020016000205481526020019081526020016000209081610b12919061234d565b50600a60008473ffffffffffffffffffffffffffffffffffffffff1673ffffffffffffffffffffffffffffffffffffffff16815260200190815260200160002060008154610b5f9061244e565b9190508190555081600c600060065481526020019081526020016000209081610b88919061234d565b50600660008154610b989061244e565b9190508190555081905092915050565b6000806005811115610bbd57610bbc611deb565b5b600760009054906101000a900460ff166005811115610bdf57610bde611deb565b5b03610dae5760026005541115610c21576040517fea5db9c500000000000000000000000000000000000000000000000000000000815260040160405180910390fd5b600260009054906101000a900473ffffffffffffffffffffffffffffffffffffffff1673ffffffffffffffffffffffffffffffffffffffff168473ffffffffffffffffffffffffffffffffffffffff1614610ca8576040517f82b4290000000000000000000000000000000000000000000000000000000000815260040160405180910390fd5b600160009054906101000a900473ffffffffffffffffffffffffffffffffffffffff1673ffffffffffffffffffffffffffffffffffffffff1663614df572600260009054906101000a900473ffffffffffffffffffffffffffffffffffffffff16856040518363ffffffff1660e01b8152600401610d27929190612496565b602060405180830381865afa158015610d44573d6000803e3d6000fd5b505050506040513d601f19601f82011682018060405250810190610d6891906124eb565b610d9e576040517fcece67ff00000000000000000000000000000000000000000000000000000000815260040160405180910390fd5b610da783611873565b905061153b565b60016005811115610dc257610dc1611deb565b5b600760009054906101000a900460ff166005811115610de457610de3611deb565b5b0361101257600260009054906101000a900473ffffffffffffffffffffffffffffffffffffffff1673ffffffffffffffffffffffffffffffffffffffff168473ffffffffffffffffffffffffffffffffffffffff16141580610f035750600160009054906101000a900473ffffffffffffffffffffffffffffffffffffffff1673ffffffffffffffffffffffffffffffffffffffff1663614df572600260009054906101000a900473ffffffffffffffffffffffffffffffffffffffff16856040518363ffffffff1660e01b8152600401610ec0929190612496565b602060405180830381865afa158015610edd573d6000803e3d6000fd5b505050506040513d601f19601f82011682018060405250810190610f0191906124eb565b155b80610fcb5750600160009054906101000a900473ffffffffffffffffffffffffffffffffffffffff1673ffffffffffffffffffffffffffffffffffffffff1663614df57284600260009054906101000a900473ffffffffffffffffffffffffffffffffffffffff166040518363ffffffff1660e01b8152600401610f88929190612496565b602060405180830381865afa158015610fa5573d6000803e3d6000fd5b505050506040513d601f19601f82011682018060405250810190610fc991906124eb565b155b15611002576040517f82b4290000000000000000000000000000000000000000000000000000000000815260040160405180910390fd5b61100b83611873565b905061153a565b6002600581111561102657611025611deb565b5b600760009054906101000a900460ff16600581111561104857611047611deb565b5b036112a957600160009054906101000a900473ffffffffffffffffffffffffffffffffffffffff1673ffffffffffffffffffffffffffffffffffffffff1663614df57285856040518363ffffffff1660e01b81526004016110aa929190612496565b602060405180830381865afa1580156110c7573d6000803e3d6000fd5b505050506040513d601f19601f820116820180604052508101906110eb91906124eb565b15806111925750600160009054906101000a900473ffffffffffffffffffffffffffffffffffffffff1673ffffffffffffffffffffffffffffffffffffffff1663614df57284866040518363ffffffff1660e01b815260040161114f929190612496565b602060405180830381865afa15801561116c573d6000803e3d6000fd5b505050506040513d601f19601f8201168201806040525081019061119091906124eb565b155b156111c9576040517f82b4290000000000000000000000000000000000000000000000000000000000815260040160405180910390fd5b61125d82600480546111da90612170565b80601f016020809104026020016040519081016040528092919081815260200182805461120690612170565b80156112535780601f1061122857610100808354040283529160200191611253565b820191906000526020600020905b81548152906001019060200180831161123657829003601f168201915b505050505061192f565b156112725761126b83611873565b90506112a4565b6040517f82b4290000000000000000000000000000000000000000000000000000000000815260040160405180910390fd5b611539565b600360058111156112bd576112bc611deb565b5b600760009054906101000a900460ff1660058111156112df576112de611deb565b5b148061131e5750600460058111156112fa576112f9611deb565b5b600760009054906101000a900460ff16600581111561131c5761131b611deb565b5b145b156114bb5760001515600160009054906101000a900473ffffffffffffffffffffffffffffffffffffffff1673ffffffffffffffffffffffffffffffffffffffff1663614df57286866040518363ffffffff1660e01b8152600401611384929190612496565b602060405180830381865afa1580156113a1573d6000803e3d6000fd5b505050506040513d601f19601f820116820180604052508101906113c591906124eb565b15151480611474575060001515600160009054906101000a900473ffffffffffffffffffffffffffffffffffffffff1673ffffffffffffffffffffffffffffffffffffffff1663614df57285876040518363ffffffff1660e01b815260040161142f929190612496565b602060405180830381865afa15801561144c573d6000803e3d6000fd5b505050506040513d601f19601f8201168201806040525081019061147091906124eb565b1515145b156114ab576040517f82b4290000000000000000000000000000000000000000000000000000000000815260040160405180910390fd5b6114b483611873565b9050611538565b6005808111156114ce576114cd611deb565b5b600760009054906101000a900460ff1660058111156114f0576114ef611deb565b5b03611505576114fe83611873565b9050611537565b6040517f82b4290000000000000000000000000000000000000000000000000000000000815260040160405180910390fd5b5b5b5b5b9392505050565b600b60205281600052604060002060205280600052604060002060009150915050805461156e90612170565b80601f016020809104026020016040519081016040528092919081815260200182805461159a90612170565b80156115e75780601f106115bc576101008083540402835291602001916115e7565b820191906000526020600020905b8154815290600101906020018083116115ca57829003601f168201915b505050505081565b600d6020528060005260406000206000915090505481565b601060205281600052604060002060205280600052604060002060009150915050805461163390612170565b80601f016020809104026020016040519081016040528092919081815260200182805461165f90612170565b80156116ac5780601f10611681576101008083540402835291602001916116ac565b820191906000526020600020905b81548152906001019060200180831161168f57829003601f168201915b505050505081565b606080606060005b600d6000868152602001908152602001600020548110156117c857600e60008681526020019081526020016000206000600d6000888152602001908152602001600020548152602001908152602001600020805461171990612170565b80601f016020809104026020016040519081016040528092919081815260200182805461174590612170565b80156117925780601f1061176757610100808354040283529160200191611792565b820191906000526020600020905b81548152906001019060200180831161177557829003601f168201915b50505050508282815181106117aa576117a9612518565b5b602002602001018190525080806117c09061244e565b9150506116bc565b50600c6000858152602001908152602001600020818180546117e990612170565b80601f016020809104026020016040519081016040528092919081815260200182805461181590612170565b80156118625780601f1061183757610100808354040283529160200191611862565b820191906000526020600020905b81548152906001019060200180831161184557829003601f168201915b505050505091509250925050915091565b60008160086000600554815260200190815260200160002060006101000a81548173ffffffffffffffffffffffffffffffffffffffff021916908373ffffffffffffffffffffffffffffffffffffffff160217905550600554600960008473ffffffffffffffffffffffffffffffffffffffff1673ffffffffffffffffffffffffffffffffffffffff16815260200190815260200160002081905550600560008154809291906119229061244e565b9190505550819050919050565b6000816040516020016119429190612583565b60405160208183030381529060405280519060200120836040516020016119699190612583565b6040516020818303038152906040528051906020012014905092915050565b6000604051905090565b600080fd5b600080fd5b600073ffffffffffffffffffffffffffffffffffffffff82169050919050565b60006119c78261199c565b9050919050565b6119d7816119bc565b81146119e257600080fd5b50565b6000813590506119f4816119ce565b92915050565b600080fd5b600080fd5b6000601f19601f8301169050919050565b7f4e487b7100000000000000000000000000000000000000000000000000000000600052604160045260246000fd5b611a4d82611a04565b810181811067ffffffffffffffff82111715611a6c57611a6b611a15565b5b80604052505050565b6000611a7f611988565b9050611a8b8282611a44565b919050565b600067ffffffffffffffff821115611aab57611aaa611a15565b5b611ab482611a04565b9050602081019050919050565b82818337600083830152505050565b6000611ae3611ade84611a90565b611a75565b905082815260208101848484011115611aff57611afe6119ff565b5b611b0a848285611ac1565b509392505050565b600082601f830112611b2757611b266119fa565b5b8135611b37848260208601611ad0565b91505092915050565b6000819050919050565b611b5381611b40565b8114611b5e57600080fd5b50565b600081359050611b7081611b4a565b92915050565b600080600060608486031215611b8f57611b8e611992565b5b6000611b9d868287016119e5565b935050602084013567ffffffffffffffff811115611bbe57611bbd611997565b5b611bca86828701611b12565b9250506040611bdb86828701611b61565b9150509250925092565b611bee81611b40565b82525050565b6000602082019050611c096000830184611be5565b92915050565b600081519050919050565b600082825260208201905092915050565b60005b83811015611c49578082015181840152602081019050611c2e565b60008484015250505050565b6000611c6082611c0f565b611c6a8185611c1a565b9350611c7a818560208601611c2b565b611c8381611a04565b840191505092915050565b60006020820190508181036000830152611ca88184611c55565b905092915050565b600060208284031215611cc657611cc5611992565b5b6000611cd4848285016119e5565b91505092915050565b600060208284031215611cf357611cf2611992565b5b6000611d0184828501611b61565b91505092915050565b600081519050919050565b600082825260208201905092915050565b6000611d3182611d0a565b611d3b8185611d15565b9350611d4b818560208601611c2b565b611d5481611a04565b840191505092915050565b60006020820190508181036000830152611d798184611d26565b905092915050565b60008060408385031215611d9857611d97611992565b5b6000611da6858286016119e5565b9250506020611db7858286016119e5565b9150509250929050565b611dca816119bc565b82525050565b6000602082019050611de56000830184611dc1565b92915050565b7f4e487b7100000000000000000000000000000000000000000000000000000000600052602160045260246000fd5b60068110611e2b57611e2a611deb565b5b50565b6000819050611e3c82611e1a565b919050565b6000611e4c82611e2e565b9050919050565b611e5c81611e41565b82525050565b6000602082019050611e776000830184611e53565b92915050565b60008060408385031215611e9457611e93611992565b5b6000611ea285828601611b61565b9250506020611eb385828601611b61565b9150509250929050565b60008115159050919050565b611ed281611ebd565b82525050565b6000602082019050611eed6000830184611ec9565b92915050565b600081519050919050565b600082825260208201905092915050565b6000819050602082019050919050565b600082825260208201905092915050565b6000611f3b82611c0f565b611f458185611f1f565b9350611f55818560208601611c2b565b611f5e81611a04565b840191505092915050565b6000611f758383611f30565b905092915050565b6000602082019050919050565b6000611f9582611ef3565b611f9f8185611efe565b935083602082028501611fb185611f0f565b8060005b85811015611fed5784840389528151611fce8582611f69565b9450611fd983611f7d565b925060208a01995050600181019050611fb5565b50829750879550505050505092915050565b600060408201905081810360008301526120198185611c55565b9050818103602083015261202d8184611f8a565b90509392505050565b6000806040838503121561204d5761204c611992565b5b600061205b858286016119e5565b925050602083013567ffffffffffffffff81111561207c5761207b611997565b5b61208885828601611b12565b9150509250929050565b6000806000606084860312156120ab576120aa611992565b5b60006120b9868287016119e5565b93505060206120ca868287016119e5565b925050604084013567ffffffffffffffff8111156120eb576120ea611997565b5b6120f786828701611b12565b9150509250925092565b6000806040838503121561211857612117611992565b5b6000612126858286016119e5565b925050602061213785828601611b61565b9150509250929050565b7f4e487b7100000000000000000000000000000000000000000000000000000000600052602260045260246000fd5b6000600282049050600182168061218857607f821691505b60208210810361219b5761219a612141565b5b50919050565b60008190508160005260206000209050919050565b60006020601f8301049050919050565b600082821b905092915050565b6000600883026122037fffffffffffffffffffffffffffffffffffffffffffffffffffffffffffffffff826121c6565b61220d86836121c6565b95508019841693508086168417925050509392505050565b6000819050919050565b600061224a61224561224084611b40565b612225565b611b40565b9050919050565b6000819050919050565b6122648361222f565b61227861227082612251565b8484546121d3565b825550505050565b600090565b61228d612280565b61229881848461225b565b505050565b5b818110156122bc576122b1600082612285565b60018101905061229e565b5050565b601f821115612301576122d2816121a1565b6122db846121b6565b810160208510156122ea578190505b6122fe6122f6856121b6565b83018261229d565b50505b505050565b600082821c905092915050565b600061232460001984600802612306565b1980831691505092915050565b600061233d8383612313565b9150826002028217905092915050565b61235682611d0a565b67ffffffffffffffff81111561236f5761236e611a15565b5b6123798254612170565b6123848282856122c0565b600060209050601f8311600181146123b757600084156123a5578287015190505b6123af8582612331565b865550612417565b601f1984166123c5866121a1565b60005b828110156123ed578489015182556001820191506020850194506020810190506123c8565b8683101561240a5784890151612406601f891682612313565b8355505b6001600288020188555050505b505050505050565b7f4e487b7100000000000000000000000000000000000000000000000000000000600052601160045260246000fd5b600061245982611b40565b91507fffffffffffffffffffffffffffffffffffffffffffffffffffffffffffffffff820361248b5761248a61241f565b5b600182019050919050565b60006040820190506124ab6000830185611dc1565b6124b86020830184611dc1565b9392505050565b6124c881611ebd565b81146124d357600080fd5b50565b6000815190506124e5816124bf565b92915050565b60006020828403121561250157612500611992565b5b600061250f848285016124d6565b91505092915050565b7f4e487b7100000000000000000000000000000000000000000000000000000000600052603260045260246000fd5b600081905092915050565b600061255d82611c0f565b6125678185612547565b9350612577818560208601611c2b565b80840191505092915050565b600061258f8284612552565b91508190509291505056fea2646970667358221220816b85a30a39032e23bec105eddc9b1dce9cf565e78b4735f0b069b7ce0ad99c64736f6c63430008110033",
  "immutableReferences": {},
  "source": "// SPDX-License-Identifier: GPL-3.0\n// // // // // // // // // // // // // // // // // // // // // // // // // // // // // // // // // // // // // // // // // // // // // // // // // // // // // // // // // // // // //\n//\n//      0KKKKKKKKKKKKKKKKKKKKKKKKKKKKKKKK0Okdlc:;,......    ......',;cldxO0KKKKKKKKKKKKKKKKKKKKKKKKKKKKKKKKK\n//      XNNNNNNNNNNNNNNNNNNNNNNNNNNXX0kdc;'...        .......         ...';coxOKXNNNNNNNNNNNNNNNNNNNNNNNNNNN\n//      XNNNNNNNNNNNNNNNNNNNNNNNX0xl;'..              .,;;:,.                ..;cdOXXNNNNNNNNNNNNNNNNNNNNNNN\n//      XNNNNNNNNNNNNNNNNNNXNXOo:'.                   .......                    ..;lkKXNNNNNNNNNNNNNNNNNNNN\n//      XNNNNNNNNNNNNNNNNNXOo;..              .........................             ..,lkKNNNNXNNNNNNNNNNNNN\n//      XNNNNNNNNNNNNXXNKx:..            ..........    'lc'.    ............            .;d0XNNNNNNNNNNNNNNN\n//      XNNNNNNNNNNNNX0d;.          ........         .;dddkl.            .......          .'lOXNNNNNNNNNNNNN\n//      XNNNNNNNNNNX0d,.         ......             .cx:..,lo'               ......         .'lOXNNNNNNNNNNN\n//      XNNNNXNNNNKx,.         .....               .ox;.   .:o,.                 ....         .'o0XNNNNNNNNN\n//      XNXNNNNNXOc.        .....                .,dd'      .;l;.                  .....   .... .;xXNNNNNNNN\n//      XNNNNNNKd'....... .....                 .;xo.        .'c;.                    .....':;..  .l0XNNNNNN\n//      XNNNNX0c. ..'''......                  .ckc.           .:;.                     ....',...  .;OXNNNNN\n//      XNNNXO:.   ........                   .ok:.             .;;.                     ......     .,xXNNXX\n//      XNNXO;.       ...                    'dx;.               .,;.                      ...        'xXNNN\n//      XNXO;.       ...                   .,xx'       .....''''''';:..                     ...        'xXNN\n//      XN0:.       ...                   .;kd.  ..,:ldxkOOOOOOOOOkO0Odl:,..                  ...      .,kXN\n//      XKl.       ...                   .cko'':ok00Okdlc;;,'''...',;:dkxkkd:..                ..       .:0N\n//      Xx'       ...                   .lKOxk00xxxl,.  ....',..      .'..,cddl,.              ...       .oX\n//      O:.      ...                  ..dNN0xl;':c::c:'..':odol:..     .... ..:lc,.             ...       ,k\n//      d.       ..                 .,o00d:.. .od'  .,cclxxl'.'coc.     ....   ..,,'..           ..       .l\n//      :.      ...              ..:xKNO,.   .lO:    .;k0o;.   .'do.     ...      .....          ...       ,\n//      '       ..             ..cddx0x'     .xO,   .:dc',:;'.   ;k:.           ..,'...           ..       .\n//      .       ..            .:lc,ckd.      .dKc. .cl'.  ..,'. .lO:       ..':ll:,..             ...      .\n//      .      ...          .,:,..ckl.       .;0O:,:,.      ...'lOl.   ..;ldkkdo;.                ...      .\n//             ...        ..'.. .lkc.         .;kK0o,.......':dOx;..,cdOKKko;..'c:.               ...\n//      .      ...       ....  .lk:.           .'coxOkkxxxxkkkxdodkKXXOdc'.    .'dd,.             ...\n//      .      ...        ....,dk;.            ..  ..;coxkkOO0KXX0ko:'..         'dOc.            ...      .\n//      .       ..          .,dd;,,;;:::;;;;;::clloxkO0KK00Oxdl;'..               .l0d'.          ...      .\n//      ,.      ...        .;dc.  ...,;:clloodddddoolc:;'....                      .;OO:.         ......   .\n//      c.  .......       .:o;.                                                     .'d0d'.      ....,;'. .:\n//      x'  .';,...      .cl'.                                                        .:OO:.     ....;;.. .o\n//      0l. ..,'....   .'ol...............................'''',,,,,,;;;:::::ccccclllllookNXd.   ... .... .;0\n//      XO,       ...  .coc::cccccccccllllllllllllloooooooooooooooooooooooooooooooolllllllc;.  ...       .dX\n//      XXd.       ...  .........................................                             ...       .lKN\n//      XNKl.       ...            .:cccccc:;:ccccccc:::cccccccccccccccccccccccc'.           ...       .:0NX\n//      XNNKc.       ...          .cXWNXXNKkxokXNWWNNK0NMWWNXNW0OXWNNWWNWWNWWNWWo.          ...       .;OXNN\n//      XNNN0l.       ....        .cXNxokKxokllOkdxKNOxXWkloddOdlOXKkK0ONWOdx0WWo.         ...       .;OXNNN\n//      XNNNNKo.        ...       .cXNOdokxcddd0klo0WKdOXd;lxkKOd0NWOlokKXOllOWWo.       ...        .c0NNNNN\n//      XNNNNNXd'.       ....     .cXWK00XNKO0XXKNXKWN0KNNK00KNNK0XXOdOKKXKNXKNWo.     ....        .lKNNNNNN\n//      XNNNNNNXO:.        ....    'oddddddddddddddddddddddddddddddl:coddddddddo;.   ....        .,xXNNNNNNN\n//      XNNNNNNNNKd'.        .....                                                 ....        ..l0XNNNNNNNN\n//      XNNNNNNNNNXOl..        ......                                           .....         .:kXNNNNNNNNNN\n//      XNNNNNNNNNNNXOc..         ......                                    ......          .:xKNNNNNNNNNNNN\n//      XNNNNNNNNNNNNNXOl'.          ........                          ........          ..ckKNNNNNNXNNNNNNN\n//      XNNNNNNNNNNNNNNNX0d;..       ..'....................................',,.       .,oOXNNNNNNNNNNNNNNNN\n//      XNNNNNNNNNNNNNNNNNNXOo;..    ...;;.     ....................      .;,'..   ..,lkKXNNNNNNNNNNNNNNNNNN\n//      XNNNNNNNNNNNNNNNNNNNNNKOd:'.    ..                                 ...  ..;lkKXNXNNNNNNNNNNNNNNNNNNN\n//      XNNNNNNNNNNNNNNNNNNNNNNNNX0ko:,...                                 ..':lx0XNNNNNXNNNNNNNNNNNNNNNNNNN\n//      XNNNNNNNNNNNNNNNNNNNNNNNNNNNNXKOxoc;,....                  ....';:ldOKXXNNNNNNNNNNNNNNNNNNNNNNNNNNNN\n//      XNNNNNNNNNNNNNNNNNNNNNNNNNNNXXNNNNXK0kdl:;'.....    .....',:ldk0KXNNNNNXNNNNNNNNNNNNNNNNNNNNNNNNNNNN\n//\n// // // // // // // // // // // // // // // // // // // // // // // // // // // // // // // // // // // // // // // // // // // // // // // // // // // // // // // // // // // // //\n//                                                                                                                                                                                  //\n//      @dev            ::              Aron Mauritala Ayuk                                                                                                                                          //\n//      @msg            ::              stereo@iii6.xyz                                                                                                                                   //\n//      @github         ::              @stereoIII6\n//      @twitter        ::              @stereoIII6                                                                                                                                              //\n//                                                                                                                                                                                  //\n// // // // // // // // // // // // // // // // // // // // // // // // // // // // // // // // // // // // // // // // // // // // // // // // // // // // // // // // // // // // //\n//                                                                                                                                                                                  //\n//      @dev            ::              Juan Xavier Valverde                                                                                                                                    //\n//      @msg            ::              juanxavier@iii6.xyz                                                                                                                               //\n//      @twitter        ::              @JuanXavier                                                                                                                                             //\n//      @github         ::              @JuanXavier                                                                                                                                             //\n//                                                                                                                                                                                  //                                                                                                                                                                                 //\n// // // // // // // // // // // // // // // // // // // // // // // // // // // // // // // // // // // // // // // // // // // // // // // // // // // // // // // // // // // // //\n//  *   *   *   *   *   *   *   *   *   *   *   *   *   *   *   *   *   *   *   *   *   *   *   *   *   *   *   *   *   *   *   *   *   *   *   *   *   *   *   *   *   *   *   *   //\n// // // // // // // // // // // // // // // // // // // // // // // // // // // // // // // // // // // // // // // // // // // // // // // // // // // // // // // // // // // // //\n//                                                                                                                                                                                  //\n//      @company        ::              Fractio Holding                                                                                                                                                                       //\n//      @title          ::              s0xiety Groups                                                                                                                            //\n//      @description    ::              Group Interface Contract                                                                                                                           //\n//      @version        ::              0.0.1                                                                                                                                       //\n//      @purpose        ::              Multinet Group Interface                                                                                                           //\n//                                                                                                                                                                                  //\n//                                                                                                                                                                                  //\n//                                                                                                                                                                                  //\n//                                                                                                                                                                                  //\n//                                                                                                                                                                                  //\n// // // // // // // // // // // // // // // // // // // // // // // // // // // // // // // // // // // // // // // // // // // // // // // // // // // // // // // // // // // // //\n//  *   *   *   *   *   *   *   *   *   *   *   *   *   *   *   *   *   *   *   *   *   *   *   *   *   *   *   *   *   *   *   *   *   *   *   *   *   *   *   *   *   *   *   *   //\n// // // // // // // // // // // // // // // // // // // // // // // // // // // // // // // // // // // // // // // // // // // // // // // // // // // // // // // // // // // // //\n\n/////////////////////////////////////////////////////////////////////////////////////////////////////////////////////\n\n/////////////////////////////////////////////////////////////////////////////////////////////////////////////////////\n\npragma solidity ^0.8.7;\n\nimport \"./s0xUsers.sol\";\nimport {s0xFriends, iii6Relations, iii6Math} from \"./s0xFriends.sol\";\nimport \"../iii6Utils/Misc/Errors/iii6Errors.sol\";\n\ncontract s0xGroups is iii6Math, iii6Relations, iii6Errors {\n    s0xUsers private user; // user contract reference\n    s0xFriends private friend; // friend contract reference\n    address public owner; // owner address\n    string public name; // group name\n    string p;\n    uint256 public m; // member count\n    uint256 private c; // content count\n    GroupType public mode; // 0-private (no invite), 1-bothchecked, 2-ulike, 3-likeu, 4-bothcheckedofulike, 5-public, 9-secret, 99-admin\n\n    mapping(uint256 => address) public members; // address by id\n    mapping(address => uint256) public mNum; // id by address\n    mapping(address => uint256) public myContent; // content count by address\n    mapping(address => mapping(uint256 => bytes)) public content; // content by address => myContent counter\n    mapping(uint256 => bytes) public cntnt; // contentt by cid\n    mapping(uint256 => uint256) public r; // replys by cntnt id c\n    mapping(uint256 => mapping(uint256 => bytes)) public replys; // replys by cid => rply id => reply content\n    mapping(address => uint256) public myRplyCount; // reply count  by useraddress\n    mapping(address => mapping(uint256 => bytes)) public myReplys; // reply content by address and myrplycount\n    mapping(address => bool) public invite;\n\n    constructor(\n        address _user,\n        address _friend,\n        bytes memory _name,\n        GroupType _mode,\n        address _o,\n        string memory _p\n    ) {\n        mode = _mode;\n        user = s0xUsers(_user);\n        friend = s0xFriends(_friend);\n        owner = _o;\n        p = _p;\n        name = string(_name);\n        m = 1;\n        _addUser(owner);\n    }\n\n    function _addUser(address _adr) internal returns (address) {\n        members[m] = _adr;\n        mNum[_adr] = m;\n        m++;\n        return _adr;\n    }\n\n    function addUser(\n        address _sender,\n        address _adr,\n        string memory _pin\n    ) external returns (address ad) {\n        /**\n         * @dev FACE TO FACE PRIVATE CHAT\n         * if sender and receiver know another\n         * and ref user is alone new user gets\n         * added to face to face chat\n         */\n        if (mode == GroupType.FaceToFace) {\n            if (m > 2) revert All_Slots_Taken();\n            if (_sender != owner) revert Unauthorized();\n            if (!friend.getMsgAllow(owner, _adr)) revert Not_Friends();\n            ad = _addUser(_adr);\n        }\n        /**\n         * @dev PRIVATE GROUP\n         * if owner and receiver know another\n         * new user gets added\n         */\n        else if (mode == GroupType.Private) {\n            if (\n                _sender != owner ||\n                !friend.getMsgAllow(owner, _adr) ||\n                !friend.getMsgAllow(_adr, owner)\n            ) revert Unauthorized();\n            // add user to group\n            ad = _addUser(_adr);\n        }\n        /**\n         * @dev Password Protected PRIVATE Group\n         */\n        else if (mode == GroupType.Closed) {\n            if (\n                !friend.getMsgAllow(_sender, _adr) ||\n                !friend.getMsgAllow(_adr, _sender)\n            ) revert Unauthorized();\n            if (_stringEqual(_pin, p)) {\n                ad = _addUser(_adr);\n            } else revert Unauthorized();\n        }\n        /**\n         * @dev Friends Invite Friends Public Group\n         */\n        else if (mode == GroupType.Shared || mode == GroupType.Public) {\n            if (\n                friend.getMsgAllow(_sender, _adr) == false ||\n                friend.getMsgAllow(_adr, _sender) == false\n            ) revert Unauthorized();\n            ad = _addUser(_adr);\n        }\n        /**\n         * @dev public group\n         */\n        else if (mode == GroupType.Open) {\n            ad = _addUser(_adr);\n        }\n        /**\n         * @dev open group\n         */\n        else revert Unauthorized();\n    }\n\n    function removeUser(address _sender, address _adr)\n        external\n        returns (address)\n    {\n        if (mode == GroupType.FaceToFace) revert Min_Requirements_Not_Met();\n        if (_sender != owner) revert Unauthorized();\n        members[mNum[_adr]] = address(0);\n        mNum[_adr] = 0;\n        return _adr;\n    }\n\n    function addContent(address _sender, string memory _cnt)\n        external\n        returns (string memory)\n    {\n        content[_sender][myContent[_sender]] = bytes(_cnt);\n        ++myContent[_sender];\n        cntnt[c] = bytes(_cnt);\n        ++c;\n        return _cnt;\n    }\n\n    function addReplyToContent(\n        address _sender,\n        string memory _rply,\n        uint256 _c\n    ) external returns (uint256) {\n        replys[_c][r[_c]] = bytes(_rply);\n        myReplys[_sender][myRplyCount[_sender]] = bytes(_rply);\n        ++myRplyCount[_sender];\n        return ++r[_c];\n    }\n\n    function _showContent(uint256 _contentId)\n        internal\n        view\n        returns (string memory, string[] memory)\n    {\n        string[] memory repliers;\n        for (uint256 i = 0; i < r[_contentId]; i++) {\n            repliers[i] = string(replys[_contentId][r[_contentId]]);\n        }\n        return (string(cntnt[_contentId]), repliers);\n    }\n\n    function showContent(uint256 _contentId)\n        external\n        view\n        returns (string memory, string[] memory)\n    {\n        return _showContent(_contentId);\n    }\n}\n",
  "sourcePath": "/Users/iii6/Documents/GitHub/III6Dojo/contracts/s0xCommunity/s0xGroups.sol",
  "compiler": {
    "name": "solc",
    "version": "0.8.17+commit.8df45f5f.Emscripten.clang"
  },
  "schemaVersion": "3.4.8",
  "updatedAt": "2022-12-14T21:28:13.198Z",
  "devdoc": {
    "kind": "dev",
    "methods": {},
    "version": 1
  },
  "userdoc": {
    "kind": "user",
    "methods": {},
    "version": 1
  }
}