{
  "contractName": "s0xUsers",
  "abi": [
    {
      "inputs": [],
      "stateMutability": "nonpayable",
      "type": "constructor"
    },
    {
      "inputs": [],
      "name": "Unauthorized",
      "type": "error"
    },
    {
      "inputs": [
        {
          "internalType": "address",
          "name": "",
          "type": "address"
        }
      ],
      "name": "impx",
      "outputs": [
        {
          "internalType": "uint256",
          "name": "action",
          "type": "uint256"
        },
        {
          "internalType": "uint256",
          "name": "connection",
          "type": "uint256"
        },
        {
          "internalType": "uint256",
          "name": "liquidity",
          "type": "uint256"
        }
      ],
      "stateMutability": "view",
      "type": "function"
    },
    {
      "inputs": [
        {
          "internalType": "address",
          "name": "",
          "type": "address"
        }
      ],
      "name": "isUser",
      "outputs": [
        {
          "internalType": "bool",
          "name": "",
          "type": "bool"
        }
      ],
      "stateMutability": "view",
      "type": "function"
    },
    {
      "inputs": [
        {
          "internalType": "address",
          "name": "",
          "type": "address"
        }
      ],
      "name": "name",
      "outputs": [
        {
          "internalType": "string",
          "name": "",
          "type": "string"
        }
      ],
      "stateMutability": "view",
      "type": "function"
    },
    {
      "inputs": [
        {
          "internalType": "address",
          "name": "",
          "type": "address"
        }
      ],
      "name": "roles",
      "outputs": [
        {
          "internalType": "uint256",
          "name": "",
          "type": "uint256"
        }
      ],
      "stateMutability": "view",
      "type": "function"
    },
    {
      "inputs": [
        {
          "internalType": "address",
          "name": "",
          "type": "address"
        }
      ],
      "name": "users",
      "outputs": [
        {
          "internalType": "bytes",
          "name": "",
          "type": "bytes"
        }
      ],
      "stateMutability": "view",
      "type": "function"
    },
    {
      "inputs": [
        {
          "internalType": "string",
          "name": "_dias",
          "type": "string"
        },
        {
          "internalType": "address",
          "name": "_user",
          "type": "address"
        },
        {
          "internalType": "string",
          "name": "_name",
          "type": "string"
        }
      ],
      "name": "createUserAccount",
      "outputs": [
        {
          "internalType": "bool",
          "name": "",
          "type": "bool"
        }
      ],
      "stateMutability": "nonpayable",
      "type": "function"
    },
    {
      "inputs": [
        {
          "internalType": "address",
          "name": "_adr",
          "type": "address"
        },
        {
          "internalType": "string",
          "name": "_dias",
          "type": "string"
        },
        {
          "internalType": "uint256",
          "name": "_r",
          "type": "uint256"
        }
      ],
      "name": "adminEditUser",
      "outputs": [
        {
          "internalType": "bool",
          "name": "",
          "type": "bool"
        }
      ],
      "stateMutability": "nonpayable",
      "type": "function"
    },
    {
      "inputs": [
        {
          "internalType": "string",
          "name": "_dias",
          "type": "string"
        }
      ],
      "name": "editUser",
      "outputs": [
        {
          "internalType": "bool",
          "name": "",
          "type": "bool"
        }
      ],
      "stateMutability": "nonpayable",
      "type": "function"
    },
    {
      "inputs": [
        {
          "internalType": "address",
          "name": "_adr",
          "type": "address"
        }
      ],
      "name": "showUser",
      "outputs": [
        {
          "internalType": "string",
          "name": "",
          "type": "string"
        }
      ],
      "stateMutability": "view",
      "type": "function"
    },
    {
      "inputs": [
        {
          "internalType": "address",
          "name": "_adr",
          "type": "address"
        }
      ],
      "name": "showImpx",
      "outputs": [
        {
          "internalType": "uint256",
          "name": "",
          "type": "uint256"
        },
        {
          "internalType": "uint256",
          "name": "",
          "type": "uint256"
        },
        {
          "internalType": "uint256",
          "name": "",
          "type": "uint256"
        }
      ],
      "stateMutability": "view",
      "type": "function"
    },
    {
      "inputs": [
        {
          "internalType": "address",
          "name": "_adr",
          "type": "address"
        }
      ],
      "name": "addedConnection",
      "outputs": [
        {
          "internalType": "uint256",
          "name": "",
          "type": "uint256"
        }
      ],
      "stateMutability": "nonpayable",
      "type": "function"
    }
  ],
  "bytecode": "0x60806040523480156200001157600080fd5b50336000806101000a81548173ffffffffffffffffffffffffffffffffffffffff021916908373ffffffffffffffffffffffffffffffffffffffff160217905550620000d560008054906101000a900473ffffffffffffffffffffffffffffffffffffffff166040518060a00160405280607d815260200162001c6d607d913960636040518060400160405280600881526020017f73307841646d696e000000000000000000000000000000000000000000000000815250620000dc60201b60201c565b506200075a565b600083600160008773ffffffffffffffffffffffffffffffffffffffff1673ffffffffffffffffffffffffffffffffffffffff16815260200190815260200160002090816200012c91906200051c565b506001600260008773ffffffffffffffffffffffffffffffffffffffff1673ffffffffffffffffffffffffffffffffffffffff16815260200190815260200160002060006101000a81548160ff02191690831515021790555082600360008773ffffffffffffffffffffffffffffffffffffffff1673ffffffffffffffffffffffffffffffffffffffff16815260200190815260200160002081905550604051806060016040528060008152602001600081526020016000815250600460008773ffffffffffffffffffffffffffffffffffffffff1673ffffffffffffffffffffffffffffffffffffffff16815260200190815260200160002060008201518160000155602082015181600101556040820151816002015590505081600560008773ffffffffffffffffffffffffffffffffffffffff1673ffffffffffffffffffffffffffffffffffffffff168152602001908152602001600020908162000295919062000673565b5060019050949350505050565b600081519050919050565b7f4e487b7100000000000000000000000000000000000000000000000000000000600052604160045260246000fd5b7f4e487b7100000000000000000000000000000000000000000000000000000000600052602260045260246000fd5b600060028204905060018216806200032457607f821691505b6020821081036200033a5762000339620002dc565b5b50919050565b60008190508160005260206000209050919050565b60006020601f8301049050919050565b600082821b905092915050565b600060088302620003a47fffffffffffffffffffffffffffffffffffffffffffffffffffffffffffffffff8262000365565b620003b0868362000365565b95508019841693508086168417925050509392505050565b6000819050919050565b6000819050919050565b6000620003fd620003f7620003f184620003c8565b620003d2565b620003c8565b9050919050565b6000819050919050565b6200041983620003dc565b62000431620004288262000404565b84845462000372565b825550505050565b600090565b6200044862000439565b620004558184846200040e565b505050565b5b818110156200047d57620004716000826200043e565b6001810190506200045b565b5050565b601f821115620004cc57620004968162000340565b620004a18462000355565b81016020851015620004b1578190505b620004c9620004c08562000355565b8301826200045a565b50505b505050565b600082821c905092915050565b6000620004f160001984600802620004d1565b1980831691505092915050565b60006200050c8383620004de565b9150826002028217905092915050565b6200052782620002a2565b67ffffffffffffffff811115620005435762000542620002ad565b5b6200054f82546200030b565b6200055c82828562000481565b600060209050601f8311600181146200059457600084156200057f578287015190505b6200058b8582620004fe565b865550620005fb565b601f198416620005a48662000340565b60005b82811015620005ce57848901518255600182019150602085019450602081019050620005a7565b86831015620005ee5784890151620005ea601f891682620004de565b8355505b6001600288020188555050505b505050505050565b600081519050919050565b60008190508160005260206000209050919050565b601f8211156200066e5762000638816200060e565b620006438462000355565b8101602085101562000653578190505b6200066b620006628562000355565b8301826200045a565b50505b505050565b6200067e8262000603565b67ffffffffffffffff8111156200069a5762000699620002ad565b5b620006a682546200030b565b620006b382828562000623565b600060209050601f831160018114620006eb5760008415620006d6578287015190505b620006e28582620004fe565b86555062000752565b601f198416620006fb866200060e565b60005b828110156200072557848901518255600182019150602085019450602081019050620006fe565b8683101562000745578489015162000741601f891682620004de565b8355505b6001600288020188555050505b505050505050565b611503806200076a6000396000f3fe608060405234801561001057600080fd5b50600436106100a95760003560e01c806382f7a5881161007157806382f7a5881461019e5780638b006d6c146101d05780639937464214610200578063a87430ba14610230578063c2a59c7714610260578063d328e84014610292576100a9565b806301984892146100ae57806337dfd162146100de5780634209fff11461010e578063517fe4de1461013e578063817544941461016e575b600080fd5b6100c860048036038101906100c39190610b4b565b6102c2565b6040516100d59190610c08565b60405180910390f35b6100f860048036038101906100f39190610dbf565b610362565b6040516101059190610e6a565b60405180910390f35b61012860048036038101906101239190610b4b565b6103bf565b6040516101359190610e6a565b60405180910390f35b61015860048036038101906101539190610b4b565b6103df565b6040516101659190610c08565b60405180910390f35b61018860048036038101906101839190610e85565b6104b0565b6040516101959190610e6a565b60405180910390f35b6101b860048036038101906101b39190610b4b565b610592565b6040516101c793929190610ee7565b60405180910390f35b6101ea60048036038101906101e59190610f4a565b61066d565b6040516101f79190610e6a565b60405180910390f35b61021a60048036038101906102159190610b4b565b6107d7565b6040516102279190610fb9565b60405180910390f35b61024a60048036038101906102459190610b4b565b6107ef565b6040516102579190611029565b60405180910390f35b61027a60048036038101906102759190610b4b565b61088f565b60405161028993929190610ee7565b60405180910390f35b6102ac60048036038101906102a79190610b4b565b6108b9565b6040516102b99190610fb9565b60405180910390f35b600560205280600052604060002060009150905080546102e19061107a565b80601f016020809104026020016040519081016040528092919081815260200182805461030d9061107a565b801561035a5780601f1061032f5761010080835404028352916020019161035a565b820191906000526020600020905b81548152906001019060200180831161033d57829003601f168201915b505050505081565b60006103b58486600286868080601f016020809104026020016040519081016040528093929190818152602001838380828437600081840152601f19601f82011690508083019250505050505050610917565b9050949350505050565b60026020528060005260406000206000915054906101000a900460ff1681565b6060600160008373ffffffffffffffffffffffffffffffffffffffff1673ffffffffffffffffffffffffffffffffffffffff168152602001908152602001600020805461042b9061107a565b80601f01602080910402602001604051908101604052809291908181526020018280546104579061107a565b80156104a45780601f10610479576101008083540402835291602001916104a4565b820191906000526020600020905b81548152906001019060200180831161048757829003601f168201915b50505050509050919050565b600080600560003373ffffffffffffffffffffffffffffffffffffffff1673ffffffffffffffffffffffffffffffffffffffff16815260200190815260200160002080546104fd9061107a565b80601f01602080910402602001604051908101604052809291908181526020018280546105299061107a565b80156105765780601f1061054b57610100808354040283529160200191610576565b820191906000526020600020905b81548152906001019060200180831161055957829003601f168201915b5050505050905061058a3384600284610917565b915050919050565b6000806000600460008573ffffffffffffffffffffffffffffffffffffffff1673ffffffffffffffffffffffffffffffffffffffff16815260200190815260200160002060000154600460008673ffffffffffffffffffffffffffffffffffffffff1673ffffffffffffffffffffffffffffffffffffffff16815260200190815260200160002060010154600460008773ffffffffffffffffffffffffffffffffffffffff1673ffffffffffffffffffffffffffffffffffffffff168152602001908152602001600020600201549250925092509193909250565b60008060009054906101000a900473ffffffffffffffffffffffffffffffffffffffff1673ffffffffffffffffffffffffffffffffffffffff163373ffffffffffffffffffffffffffffffffffffffff16146106f5576040517f82b4290000000000000000000000000000000000000000000000000000000000815260040160405180910390fd5b6000600560008673ffffffffffffffffffffffffffffffffffffffff1673ffffffffffffffffffffffffffffffffffffffff16815260200190815260200160002080546107419061107a565b80601f016020809104026020016040519081016040528092919081815260200182805461076d9061107a565b80156107ba5780601f1061078f576101008083540402835291602001916107ba565b820191906000526020600020905b81548152906001019060200180831161079d57829003601f168201915b505050505090506107cd85858584610917565b9150509392505050565b60036020528060005260406000206000915090505481565b6001602052806000526040600020600091509050805461080e9061107a565b80601f016020809104026020016040519081016040528092919081815260200182805461083a9061107a565b80156108875780601f1061085c57610100808354040283529160200191610887565b820191906000526020600020905b81548152906001019060200180831161086a57829003601f168201915b505050505081565b60046020528060005260406000206000915090508060000154908060010154908060020154905083565b6000600460008373ffffffffffffffffffffffffffffffffffffffff1673ffffffffffffffffffffffffffffffffffffffff1681526020019081526020016000206001016000815461090a906110da565b9190508190559050919050565b600083600160008773ffffffffffffffffffffffffffffffffffffffff1673ffffffffffffffffffffffffffffffffffffffff168152602001908152602001600020908161096591906112ce565b506001600260008773ffffffffffffffffffffffffffffffffffffffff1673ffffffffffffffffffffffffffffffffffffffff16815260200190815260200160002060006101000a81548160ff02191690831515021790555082600360008773ffffffffffffffffffffffffffffffffffffffff1673ffffffffffffffffffffffffffffffffffffffff16815260200190815260200160002081905550604051806060016040528060008152602001600081526020016000815250600460008773ffffffffffffffffffffffffffffffffffffffff1673ffffffffffffffffffffffffffffffffffffffff16815260200190815260200160002060008201518160000155602082015181600101556040820151816002015590505081600560008773ffffffffffffffffffffffffffffffffffffffff1673ffffffffffffffffffffffffffffffffffffffff1681526020019081526020016000209081610acc91906113fb565b5060019050949350505050565b6000604051905090565b600080fd5b600080fd5b600073ffffffffffffffffffffffffffffffffffffffff82169050919050565b6000610b1882610aed565b9050919050565b610b2881610b0d565b8114610b3357600080fd5b50565b600081359050610b4581610b1f565b92915050565b600060208284031215610b6157610b60610ae3565b5b6000610b6f84828501610b36565b91505092915050565b600081519050919050565b600082825260208201905092915050565b60005b83811015610bb2578082015181840152602081019050610b97565b60008484015250505050565b6000601f19601f8301169050919050565b6000610bda82610b78565b610be48185610b83565b9350610bf4818560208601610b94565b610bfd81610bbe565b840191505092915050565b60006020820190508181036000830152610c228184610bcf565b905092915050565b600080fd5b600080fd5b7f4e487b7100000000000000000000000000000000000000000000000000000000600052604160045260246000fd5b610c6c82610bbe565b810181811067ffffffffffffffff82111715610c8b57610c8a610c34565b5b80604052505050565b6000610c9e610ad9565b9050610caa8282610c63565b919050565b600067ffffffffffffffff821115610cca57610cc9610c34565b5b610cd382610bbe565b9050602081019050919050565b82818337600083830152505050565b6000610d02610cfd84610caf565b610c94565b905082815260208101848484011115610d1e57610d1d610c2f565b5b610d29848285610ce0565b509392505050565b600082601f830112610d4657610d45610c2a565b5b8135610d56848260208601610cef565b91505092915050565b600080fd5b600080fd5b60008083601f840112610d7f57610d7e610c2a565b5b8235905067ffffffffffffffff811115610d9c57610d9b610d5f565b5b602083019150836001820283011115610db857610db7610d64565b5b9250929050565b60008060008060608587031215610dd957610dd8610ae3565b5b600085013567ffffffffffffffff811115610df757610df6610ae8565b5b610e0387828801610d31565b9450506020610e1487828801610b36565b935050604085013567ffffffffffffffff811115610e3557610e34610ae8565b5b610e4187828801610d69565b925092505092959194509250565b60008115159050919050565b610e6481610e4f565b82525050565b6000602082019050610e7f6000830184610e5b565b92915050565b600060208284031215610e9b57610e9a610ae3565b5b600082013567ffffffffffffffff811115610eb957610eb8610ae8565b5b610ec584828501610d31565b91505092915050565b6000819050919050565b610ee181610ece565b82525050565b6000606082019050610efc6000830186610ed8565b610f096020830185610ed8565b610f166040830184610ed8565b949350505050565b610f2781610ece565b8114610f3257600080fd5b50565b600081359050610f4481610f1e565b92915050565b600080600060608486031215610f6357610f62610ae3565b5b6000610f7186828701610b36565b935050602084013567ffffffffffffffff811115610f9257610f91610ae8565b5b610f9e86828701610d31565b9250506040610faf86828701610f35565b9150509250925092565b6000602082019050610fce6000830184610ed8565b92915050565b600081519050919050565b600082825260208201905092915050565b6000610ffb82610fd4565b6110058185610fdf565b9350611015818560208601610b94565b61101e81610bbe565b840191505092915050565b600060208201905081810360008301526110438184610ff0565b905092915050565b7f4e487b7100000000000000000000000000000000000000000000000000000000600052602260045260246000fd5b6000600282049050600182168061109257607f821691505b6020821081036110a5576110a461104b565b5b50919050565b7f4e487b7100000000000000000000000000000000000000000000000000000000600052601160045260246000fd5b60006110e582610ece565b91507fffffffffffffffffffffffffffffffffffffffffffffffffffffffffffffffff8203611117576111166110ab565b5b600182019050919050565b60008190508160005260206000209050919050565b60006020601f8301049050919050565b600082821b905092915050565b6000600883026111847fffffffffffffffffffffffffffffffffffffffffffffffffffffffffffffffff82611147565b61118e8683611147565b95508019841693508086168417925050509392505050565b6000819050919050565b60006111cb6111c66111c184610ece565b6111a6565b610ece565b9050919050565b6000819050919050565b6111e5836111b0565b6111f96111f1826111d2565b848454611154565b825550505050565b600090565b61120e611201565b6112198184846111dc565b505050565b5b8181101561123d57611232600082611206565b60018101905061121f565b5050565b601f8211156112825761125381611122565b61125c84611137565b8101602085101561126b578190505b61127f61127785611137565b83018261121e565b50505b505050565b600082821c905092915050565b60006112a560001984600802611287565b1980831691505092915050565b60006112be8383611294565b9150826002028217905092915050565b6112d782610fd4565b67ffffffffffffffff8111156112f0576112ef610c34565b5b6112fa825461107a565b611305828285611241565b600060209050601f8311600181146113385760008415611326578287015190505b61133085826112b2565b865550611398565b601f19841661134686611122565b60005b8281101561136e57848901518255600182019150602085019450602081019050611349565b8683101561138b5784890151611387601f891682611294565b8355505b6001600288020188555050505b505050505050565b60008190508160005260206000209050919050565b601f8211156113f6576113c7816113a0565b6113d084611137565b810160208510156113df578190505b6113f36113eb85611137565b83018261121e565b50505b505050565b61140482610b78565b67ffffffffffffffff81111561141d5761141c610c34565b5b611427825461107a565b6114328282856113b5565b600060209050601f8311600181146114655760008415611453578287015190505b61145d85826112b2565b8655506114c5565b601f198416611473866113a0565b60005b8281101561149b57848901518255600182019150602085019450602081019050611476565b868310156114b857848901516114b4601f891682611294565b8355505b6001600288020188555050505b50505050505056fea2646970667358221220b09fe369da09678abee66e544bcbc978ad40354e954672a55a422ceef786d6b564736f6c634300081100337b226e616d65223a2273307841646d696e222c22656d61696c223a22747970652e73746572656f40706d2e6d65222c22696d616765223a2268747470733a2f2f697066732e696f2f697066732f516d584e63694776474a4752563248484538326f4c6f69637677617442387371737964786e3750334e5350316e57227d",
  "immutableReferences": {},
  "source": "// SPDX-License-Identifier: GPL-3.0\n// // // // // // // // // // // // // // // // // // // // // // // // // // // // // // // // // // // // // // // // // // // // // // // // // // // // // // // // // // // // //\n//\n//      0KKKKKKKKKKKKKKKKKKKKKKKKKKKKKKKK0Okdlc:;,......    ......',;cldxO0KKKKKKKKKKKKKKKKKKKKKKKKKKKKKKKKK\n//      XNNNNNNNNNNNNNNNNNNNNNNNNNNXX0kdc;'...        .......         ...';coxOKXNNNNNNNNNNNNNNNNNNNNNNNNNNN\n//      XNNNNNNNNNNNNNNNNNNNNNNNX0xl;'..              .,;;:,.                ..;cdOXXNNNNNNNNNNNNNNNNNNNNNNN\n//      XNNNNNNNNNNNNNNNNNNXNXOo:'.                   .......                    ..;lkKXNNNNNNNNNNNNNNNNNNNN\n//      XNNNNNNNNNNNNNNNNNXOo;..              .........................             ..,lkKNNNNXNNNNNNNNNNNNN\n//      XNNNNNNNNNNNNXXNKx:..            ..........    'lc'.    ............            .;d0XNNNNNNNNNNNNNNN\n//      XNNNNNNNNNNNNX0d;.          ........         .;dddkl.            .......          .'lOXNNNNNNNNNNNNN\n//      XNNNNNNNNNNX0d,.         ......             .cx:..,lo'               ......         .'lOXNNNNNNNNNNN\n//      XNNNNXNNNNKx,.         .....               .ox;.   .:o,.                 ....         .'o0XNNNNNNNNN\n//      XNXNNNNNXOc.        .....                .,dd'      .;l;.                  .....   .... .;xXNNNNNNNN\n//      XNNNNNNKd'....... .....                 .;xo.        .'c;.                    .....':;..  .l0XNNNNNN\n//      XNNNNX0c. ..'''......                  .ckc.           .:;.                     ....',...  .;OXNNNNN\n//      XNNNXO:.   ........                   .ok:.             .;;.                     ......     .,xXNNXX\n//      XNNXO;.       ...                    'dx;.               .,;.                      ...        'xXNNN\n//      XNXO;.       ...                   .,xx'       .....''''''';:..                     ...        'xXNN\n//      XN0:.       ...                   .;kd.  ..,:ldxkOOOOOOOOOkO0Odl:,..                  ...      .,kXN\n//      XKl.       ...                   .cko'':ok00Okdlc;;,'''...',;:dkxkkd:..                ..       .:0N\n//      Xx'       ...                   .lKOxk00xxxl,.  ....',..      .'..,cddl,.              ...       .oX\n//      O:.      ...                  ..dNN0xl;':c::c:'..':odol:..     .... ..:lc,.             ...       ,k\n//      d.       ..                 .,o00d:.. .od'  .,cclxxl'.'coc.     ....   ..,,'..           ..       .l\n//      :.      ...              ..:xKNO,.   .lO:    .;k0o;.   .'do.     ...      .....          ...       ,\n//      '       ..             ..cddx0x'     .xO,   .:dc',:;'.   ;k:.           ..,'...           ..       .\n//      .       ..            .:lc,ckd.      .dKc. .cl'.  ..,'. .lO:       ..':ll:,..             ...      .\n//      .      ...          .,:,..ckl.       .;0O:,:,.      ...'lOl.   ..;ldkkdo;.                ...      .\n//             ...        ..'.. .lkc.         .;kK0o,.......':dOx;..,cdOKKko;..'c:.               ...\n//      .      ...       ....  .lk:.           .'coxOkkxxxxkkkxdodkKXXOdc'.    .'dd,.             ...\n//      .      ...        ....,dk;.            ..  ..;coxkkOO0KXX0ko:'..         'dOc.            ...      .\n//      .       ..          .,dd;,,;;:::;;;;;::clloxkO0KK00Oxdl;'..               .l0d'.          ...      .\n//      ,.      ...        .;dc.  ...,;:clloodddddoolc:;'....                      .;OO:.         ......   .\n//      c.  .......       .:o;.                                                     .'d0d'.      ....,;'. .:\n//      x'  .';,...      .cl'.                                                        .:OO:.     ....;;.. .o\n//      0l. ..,'....   .'ol...............................'''',,,,,,;;;:::::ccccclllllookNXd.   ... .... .;0\n//      XO,       ...  .coc::cccccccccllllllllllllloooooooooooooooooooooooooooooooolllllllc;.  ...       .dX\n//      XXd.       ...  .........................................                             ...       .lKN\n//      XNKl.       ...            .:cccccc:;:ccccccc:::cccccccccccccccccccccccc'.           ...       .:0NX\n//      XNNKc.       ...          .cXWNXXNKkxokXNWWNNK0NMWWNXNW0OXWNNWWNWWNWWNWWo.          ...       .;OXNN\n//      XNNN0l.       ....        .cXNxokKxokllOkdxKNOxXWkloddOdlOXKkK0ONWOdx0WWo.         ...       .;OXNNN\n//      XNNNNKo.        ...       .cXNOdokxcddd0klo0WKdOXd;lxkKOd0NWOlokKXOllOWWo.       ...        .c0NNNNN\n//      XNNNNNXd'.       ....     .cXWK00XNKO0XXKNXKWN0KNNK00KNNK0XXOdOKKXKNXKNWo.     ....        .lKNNNNNN\n//      XNNNNNNXO:.        ....    'oddddddddddddddddddddddddddddddl:coddddddddo;.   ....        .,xXNNNNNNN\n//      XNNNNNNNNKd'.        .....                                                 ....        ..l0XNNNNNNNN\n//      XNNNNNNNNNXOl..        ......                                           .....         .:kXNNNNNNNNNN\n//      XNNNNNNNNNNNXOc..         ......                                    ......          .:xKNNNNNNNNNNNN\n//      XNNNNNNNNNNNNNXOl'.          ........                          ........          ..ckKNNNNNNXNNNNNNN\n//      XNNNNNNNNNNNNNNNX0d;..       ..'....................................',,.       .,oOXNNNNNNNNNNNNNNNN\n//      XNNNNNNNNNNNNNNNNNNXOo;..    ...;;.     ....................      .;,'..   ..,lkKXNNNNNNNNNNNNNNNNNN\n//      XNNNNNNNNNNNNNNNNNNNNNKOd:'.    ..                                 ...  ..;lkKXNXNNNNNNNNNNNNNNNNNNN\n//      XNNNNNNNNNNNNNNNNNNNNNNNNX0ko:,...                                 ..':lx0XNNNNNXNNNNNNNNNNNNNNNNNNN\n//      XNNNNNNNNNNNNNNNNNNNNNNNNNNNNXKOxoc;,....                  ....';:ldOKXXNNNNNNNNNNNNNNNNNNNNNNNNNNNN\n//      XNNNNNNNNNNNNNNNNNNNNNNNNNNNXXNNNNXK0kdl:;'.....    .....',:ldk0KXNNNNNXNNNNNNNNNNNNNNNNNNNNNNNNNNNN\n//\n// // // // // // // // // // // // // // // // // // // // // // // // // // // // // // // // // // // // // // // // // // // // // // // // // // // // // // // // // // // // //\n//                                                                                                                                                                                  //\n//      @dev            ::              Aron Mauritala Ayuk                                                                                                                                          //\n//      @msg            ::              stereo@iii6.xyz                                                                                                                                   //\n//      @github         ::              @stereoIII6\n//      @twitter        ::              @stereoIII6                                                                                                                                              //\n//                                                                                                                                                                                  //\n// // // // // // // // // // // // // // // // // // // // // // // // // // // // // // // // // // // // // // // // // // // // // // // // // // // // // // // // // // // // //\n//                                                                                                                                                                                  //\n//      @dev            ::              Juan Xavier Valverde                                                                                                                                    //\n//      @msg            ::              juanxavier@iii6.xyz                                                                                                                               //\n//      @twitter        ::              @JuanXavier                                                                                                                                             //\n//      @github         ::              @JuanXavier                                                                                                                                             //\n//                                                                                                                                                                                  //                                                                                                                                                                                 //\n// // // // // // // // // // // // // // // // // // // // // // // // // // // // // // // // // // // // // // // // // // // // // // // // // // // // // // // // // // // // //\n//  *   *   *   *   *   *   *   *   *   *   *   *   *   *   *   *   *   *   *   *   *   *   *   *   *   *   *   *   *   *   *   *   *   *   *   *   *   *   *   *   *   *   *   *   //\n// // // // // // // // // // // // // // // // // // // // // // // // // // // // // // // // // // // // // // // // // // // // // // // // // // // // // // // // // // // // //\n//                                                                                                                                                                                  //\n//      @company        ::              Fractio Holding                                                                                                                                                                       //\n//      @title          ::              s0xiety Users                                                                                                                            //\n//      @description    ::              User Catalog Contract                                                                                                                           //\n//      @version        ::              0.0.1                                                                                                                                       //\n//      @purpose        ::              Multinet User Catalog                                                                                                           //\n//                                                                                                                                                                                  //\n//                                                                                                                                                                                  //\n//                                                                                                                                                                                  //\n//                                                                                                                                                                                  //\n//                                                                                                                                                                                  //\n// // // // // // // // // // // // // // // // // // // // // // // // // // // // // // // // // // // // // // // // // // // // // // // // // // // // // // // // // // // // //\n//  *   *   *   *   *   *   *   *   *   *   *   *   *   *   *   *   *   *   *   *   *   *   *   *   *   *   *   *   *   *   *   *   *   *   *   *   *   *   *   *   *   *   *   *   //\n// // // // // // // // // // // // // // // // // // // // // // // // // // // // // // // // // // // // // // // // // // // // // // // // // // // // // // // // // // // // //\n\n/////////////////////////////////////////////////////////////////////////////////////////////////////////////////////\n\n/////////////////////////////////////////////////////////////////////////////////////////////////////////////////////\n\npragma solidity ^0.8.7;\n\ncontract s0xUsers {\n    // user data storage for conglomerate\n    address private s0x; // s0x admin\n\n    struct Impact {\n        uint256 action;\n        uint256 connection;\n        uint256 liquidity;\n    }\n    // user profile array // user# => dias%\n    mapping(address => bytes) public users;\n    mapping(address => bool) public isUser;\n\n    // role // user# => role$\n    mapping(address => uint256) public roles;\n\n    // only admin allowed function modifier\n    mapping(address => Impact) public impx;\n    mapping(address => string) public name;\n\n    error Unauthorized();\n\n    modifier isAdmin() {\n        if (msg.sender != s0x) revert Unauthorized();\n        _;\n    }\n\n    constructor() {\n        s0x = msg.sender; // admin initialization\n        makeUser(\n            s0x,\n            '{\"name\":\"s0xAdmin\",\"email\":\"type.stereo@pm.me\",\"image\":\"https://ipfs.io/ipfs/QmXNciGvGJGRV2HHE82oLoicvwatB8sqsydxn7P3NSP1nW\"}',\n            99,\n            \"s0xAdmin\"\n        ); // admin user account setup\n    }\n\n    // takes address , dias , and role to create and store a user profile in user mapping\n    function makeUser(\n        address _adr,\n        bytes memory _dias,\n        uint256 _r,\n        string memory _name\n    ) internal returns (bool) {\n        users[_adr] = _dias;\n        isUser[_adr] = true;\n        roles[_adr] = _r;\n        impx[_adr] = Impact(0, 0, 0);\n        name[_adr] = _name;\n        return true;\n    }\n\n    /// @notice takes dias to create guest user profile\n    function createUserAccount(\n        string memory _dias,\n        address _user,\n        string calldata _name\n    ) external returns (bool) {\n        return makeUser(_user, bytes(_dias), 2, _name); // role 2 is Affily8\n    }\n\n    // takes address , dias , and role to admin edit and store a user profile in user mapping\n    function adminEditUser(\n        address _adr,\n        string memory _dias,\n        uint256 _r\n    ) external isAdmin returns (bool) {\n        string memory _name = name[_adr];\n        return makeUser(_adr, bytes(_dias), _r, _name);\n    }\n\n    // takes address , dias , and role to edit and store your user profile in user mapping\n    function editUser(string memory _dias) external returns (bool) {\n        string memory _name = name[msg.sender];\n        return makeUser(msg.sender, bytes(_dias), 2, _name);\n    }\n\n    // shows user dias by address input\n    function showUser(address _adr) external view returns (string memory) {\n        return string(users[_adr]);\n    }\n\n    function showImpx(address _adr)\n        external\n        view\n        returns (\n            uint256,\n            uint256,\n            uint256\n        )\n    {\n        return (impx[_adr].action, impx[_adr].connection, impx[_adr].liquidity);\n    }\n\n    function addedConnection(address _adr) external returns (uint256) {\n        return ++impx[_adr].connection;\n    }\n}\n",
  "sourcePath": "/Users/iii6/Documents/GitHub/III6Dojo/contracts/s0xCommunity/s0xUsers.sol",
  "compiler": {
    "name": "solc",
    "version": "0.8.17+commit.8df45f5f.Emscripten.clang"
  },
  "schemaVersion": "3.4.8",
  "updatedAt": "2022-12-14T21:28:13.203Z",
  "devdoc": {
    "kind": "dev",
    "methods": {},
    "version": 1
  },
  "userdoc": {
    "kind": "user",
    "methods": {
      "createUserAccount(string,address,string)": {
        "notice": "takes dias to create guest user profile"
      }
    },
    "version": 1
  }
}