{
    "contractName": "iii6PriceConsumer",
    "abi": [
        {
            "inputs": [],
            "stateMutability": "nonpayable",
            "type": "constructor"
        },
        {
            "inputs": [],
            "name": "CoinUsdPrice",
            "outputs": [
                {
                    "internalType": "int256",
                    "name": "priceFull",
                    "type": "int256"
                }
            ],
            "stateMutability": "view",
            "type": "function"
        },
        {
            "inputs": [],
            "name": "WethUsdPrice",
            "outputs": [
                {
                    "internalType": "int256",
                    "name": "priceFull",
                    "type": "int256"
                }
            ],
            "stateMutability": "view",
            "type": "function"
        },
        {
            "inputs": [],
            "name": "XUsdPrice",
            "outputs": [
                {
                    "internalType": "int256",
                    "name": "priceFull",
                    "type": "int256"
                }
            ],
            "stateMutability": "view",
            "type": "function"
        },
        {
            "inputs": [],
            "name": "YUsdPrice",
            "outputs": [
                {
                    "internalType": "int256",
                    "name": "priceFull",
                    "type": "int256"
                }
            ],
            "stateMutability": "view",
            "type": "function"
        },
        {
            "inputs": [
                {
                    "internalType": "address",
                    "name": "_oracle",
                    "type": "address"
                },
                {
                    "internalType": "uint256",
                    "name": "_digits",
                    "type": "uint256"
                }
            ],
            "name": "setX",
            "outputs": [
                {
                    "internalType": "bool",
                    "name": "",
                    "type": "bool"
                }
            ],
            "stateMutability": "nonpayable",
            "type": "function"
        },
        {
            "inputs": [
                {
                    "internalType": "address",
                    "name": "_oracle",
                    "type": "address"
                },
                {
                    "internalType": "uint256",
                    "name": "_digits",
                    "type": "uint256"
                }
            ],
            "name": "setY",
            "outputs": [
                {
                    "internalType": "bool",
                    "name": "",
                    "type": "bool"
                }
            ],
            "stateMutability": "nonpayable",
            "type": "function"
        }
    ],
    "bytecode": "608060405234801561001057600080fd5b504661a8690361006757600080546001600160a01b03199081167386d67c3d38d2bcee722e601025c25a575021c6ea1790915560018054909116735498bb86bc934c8d34fda08e81d444153d0d06ad179055610210565b4661a86a036100bd57600080546001600160a01b031990811673976b3d034e162d8bd72d6b9c989d545b839003b01790915560018054909116730a77230d17318075983913bc2145db16c7366156179055610210565b46610fa20361011357600080546001600160a01b031990811673b8c458c957a6e6ca7cc53ed95bea548c52afaa24179091556001805490911673e04676b9a9a2973bcb0d1478b5e1e9098bbb7f3d179055610210565b4660fa0361016857600080546001600160a01b03199081167311ddd3d147e5b83d01cee7070027092397d63658179091556001805490911673f4766552d15ae4d256ad41b6cf2933482b0680dc179055610210565b4662013881036101bf57600080546001600160a01b0319908116730715a7794a1dc8e42615f059dd6e406a6594651a179091556001805490911673d0d5e3db44de05e9f294bb0a3beeaf030de24ada179055610210565b4660890361021057600080546001600160a01b031990811673f9680d99d6c9589e2a93a78a04a279e509205945179091556001805490911673ab594600376ec9fd91f8e885dadf0ce036862de01790555b61056f8061021f6000396000f3fe608060405234801561001057600080fd5b50600436106100625760003560e01c8063414641df146100675780634a2ad99f1461008257806396722fe5146100a55780639a18c795146100ad578063e9f38fc5146100b5578063f2e9bd7a146100c8575b600080fd5b61006f6100d0565b6040519081526020015b60405180910390f35b610095610090366004610362565b61016f565b6040519015158152602001610079565b61006f610184565b61006f610213565b6100956100c3366004610362565b610298565b61006f6102a4565b600080600260009054906101000a90046001600160a01b03166001600160a01b031663feaf968c6040518163ffffffff1660e01b815260040160a060405180830381865afa158015610126573d6000803e3d6000fd5b505050506040513d601f19601f8201168201806040525081019061014a91906103b9565b505050915050600454600a61015f9190610503565b610169908261050f565b91505090565b600061017b83836102fa565b90505b92915050565b600080600360009054906101000a90046001600160a01b03166001600160a01b031663feaf968c6040518163ffffffff1660e01b815260040160a060405180830381865afa1580156101da573d6000803e3d6000fd5b505050506040513d601f19601f820116820180604052508101906101fe91906103b9565b505050915050600554600a61015f9190610503565b6000805460408051633fabe5a360e21b8152905183926001600160a01b03169163feaf968c9160048083019260a09291908290030181865afa15801561025d573d6000803e3d6000fd5b505050506040513d601f19601f8201168201806040525081019061028191906103b9565b505050915050806402540be400610169919061050f565b600061017b838361032e565b600080600160009054906101000a90046001600160a01b03166001600160a01b031663feaf968c6040518163ffffffff1660e01b815260040160a060405180830381865afa15801561025d573d6000803e3d6000fd5b600280546001600160a01b0319166001600160a01b0384161790556000610322826012610526565b60045550600192915050565b600380546001600160a01b0319166001600160a01b0384161790556000610356826012610526565b60055550600192915050565b6000806040838503121561037557600080fd5b82356001600160a01b038116811461038c57600080fd5b946020939093013593505050565b805169ffffffffffffffffffff811681146103b457600080fd5b919050565b600080600080600060a086880312156103d157600080fd5b6103da8661039a565b94506020860151935060408601519250606086015191506103fd6080870161039a565b90509295509295909350565b634e487b7160e01b600052601160045260246000fd5b600181815b8085111561045a57816000190482111561044057610440610409565b8085161561044d57918102915b93841c9390800290610424565b509250929050565b6000826104715750600161017e565b8161047e5750600061017e565b8160018114610494576002811461049e576104ba565b600191505061017e565b60ff8411156104af576104af610409565b50506001821b61017e565b5060208310610133831016604e8410600b84101617156104dd575081810a61017e565b6104e7838361041f565b80600019048211156104fb576104fb610409565b029392505050565b600061017b8383610462565b808202811582820484141761017e5761017e610409565b8181038181111561017e5761017e61040956fea2646970667358221220693a383722df0df86977b13618e94aeb07d88490e256c805546f5a2d321cca1764736f6c63430008110033",
    "sourcePath": "/Users/iii6/Documents/GitHub/III6Dojo/contracts/iii6PriceConsumer.sol",
    "compiler": {
        "name": "solc",
        "version": "0.8.17+commit.8df45f5f"
    },
    "functionHashes": {
        "CoinUsdPrice()": "f2e9bd7a",
        "WethUsdPrice()": "9a18c795",
        "XUsdPrice()": "414641df",
        "YUsdPrice()": "96722fe5",
        "setX(address,uint256)": "4a2ad99f",
        "setY(address,uint256)": "e9f38fc5"
    },
    "gasEstimates": {
        "creation": {
            "codeDepositCost": "278200",
            "executionCost": "48919",
            "totalCost": "327119"
        },
        "external": {
            "CoinUsdPrice()": "infinite",
            "WethUsdPrice()": "infinite",
            "XUsdPrice()": "infinite",
            "YUsdPrice()": "infinite",
            "setX(address,uint256)": "infinite",
            "setY(address,uint256)": "infinite"
        },
        "internal": {
            "_setX(address,uint256)": "46459",
            "_setY(address,uint256)": "46459"
        }
    }
}